:10000000020363801C4D564600223202527D0001DD
:100010000203220252B8227F01222280ED023476AE
:1000200022323280FDE4C3FA90960AE04401F05493
:10003000FEF0909609E0A2E2E492E02A23FA90967C
:100040000AE04401F054FEF0909609E0A2E2E49246
:10005000E02A23FA90960AE04401F054FEF09096CC
:1000600009E0A2E2E492E02A23FA90960AE0440131
:10007000F054FEF0909609E0A2E2E492E02A23FA1E
:1000800090960AE04401F054FEF0909609E0A2E256
:10009000E492E02A23FA90960AE04401F054FEF03C
:1000A000909609E0A2E2E492E02A23FA90960AE010
:1000B0004401F054FEF0909609E0A2E2E492E02AB6
:1000C00023FA90960AE04401F054FEF0909609E07D
:1000D000A2E2E492E02AFA90960AE04401F0EAFFF4
:1000E000227808EF33FF90960AE092E154FEF090F8
:1000F000960AE04401F0D8EB22900A410285DD2205
:100100000000220000220000220000220000220045
:100110000022000022000022000022000022000035
:100120002200002200002200002200002200002203
:100130000000220000220000220000220000220015
:1001400000220000220262BD000022000022000006
:100150002202314702384C022ED600002200002233
:1001600000002200002200002202662F0000220070
:100170000022000022000022000022000022022BA8
:10018000C1000022022DE00000220000220267DEF2
:100190000000220000220265470000220000220029
:1001A00000220000220000220000220000220000A5
:1001B0002200002200002200002200002200002273
:1001C0000000220000220000220000220000220085
:1001D00000220000220249D60263FA02621B026476
:1001E0000D0261780000220000220247A002001DDB
:1001F0000000220000220000220000220000220055
:100200000022000022000022000022000022000044
:100210002200002200002200002200002200002212
:10022000000022000022024D68022012000022007D
:100230000022000022000022000022000022000014
:1002400022022AFF000022000022000022000022D9
:100250000000220000224109C4004109BE004209F9
:10026000BF00004209C100004109C3004108DA0093
:100270004108D9004108E5004108D700410A74014E
:10028000410A7200410A7300410A9D004108F100D1
:100290004208F700004308E80C04034109EB004161
:1002A00009EC004109EA004109E9004109E800417F
:1002B0000AA001410AA102410AA300410799004195
:1002C000079700440731FFFFFFFF41072B0041085C
:1002D000AD014408A00000000042089E00644408EC
:1002E000A90000000041096B0042096C00004209AE
:1002F0006E0000420968000041096A004109670078
:100300004109430042093C000041094400410945BC
:100310000041093B00410916FF410AD00145084050
:100320000000000000410856004108B4004108B533
:1003300000410AD700410AAF024107A50041083E2B
:10034000004108CB00410AB100410AB001410AB3A3
:1003500001410AB2014109B1004209B401F4410965
:10036000AE0000122340787FE4F6D8FD12527AEFF7
:10037000FD9006D96003A3DFFD7F277E11C3EF9DAB
:10038000FF50011EE4F0A3DFFCDEFA75810B12348E
:100390000D0203CF02260DE493A3F8E493A34003D8
:1003A000F68001F208DFF48029E493A3F8540724CF
:1003B0000CC8C333C4540F4420C8834004F456808F
:1003C0000146F6DFE4800B01020408102040809013
:1003D0000256E47E019360BCA3FF543F30E509540C
:1003E0001FFEE493A360010ECF54C025E060A84037
:1003F000B8E493A3FAE493A3F8E493A3C8C582C82E
:10040000CAC583CAF0A3C8C582C8CAC583CADFE902
:10041000DEE780BEBB0111F8E58229F582E5833A6B
:10042000F583E0C828F0E8225009C58229F8C58282
:1004300026C622BBFE0DC58229F8E2C5822582F2BE
:10044000E58222EA2583F583E99322BB010FF8E5D3
:100450008229F582E5833AF583E028F0225009C528
:100460008229F8E58226F622BBFE09C58229F8E238
:100470002582F222F8EA2583F583E9932822F8E021
:10048000FBA3A3E0F925F0F0E58215827002158345
:10049000E0FA38F022D083D082F8E493701274012D
:1004A00093700DA3A393F8740193F5828883E4738A
:1004B0007402936860EFA3A3A380DF8F828E83ED25
:1004C0007004EC600B1CE06455F0A3DDF90204C27B
:1004D00022464154313600000000000000000000B8
:1004E0000000000002FAFCFDFEFCFAFA0202FF0224
:1004F000FFFDFAFAFAFDFF0202FFFF00020202020C
:10050000FDFAFAFF0200FF00020201FFFEFAFEFE02
:10051000FEFCFAFE02FE02FFFFFDFAFAFAFA020200
:10052000020101FFFEFEFEFDFDFDFAFAFF010202DF
:10053000020202FFFD020202020202FD0202FFFAB3
:10054000FF020202020202020000001A001F002441
:10055000002A0031003A0043004E005B006B007D32
:10056000009300AD00CC00F0011A014C018701CCD2
:10057000021D027C02EC0370040B04C2059906966E
:1005800007C0091E0ABA0C9E0ED83F3E3C393634CD
:1005900032302D2A292725242221201E1D1C1A191C
:1005A00018171513110F0D0B0908073F3D3B39377D
:1005B0003533312F2D2B29272523211F1E1D1C1BD1
:1005C0001A191817161514131211100F3F3E3A3648
:1005D00033302D2A272523211F1D1B191715131111
:1005E000100F0E0D0C0B0A09080706050412000077
:1005F0000006101000071111000157570003090EE3
:10060000132E2C2A2927262423211F1E1C1B90066B
:10061000D7EFF0E01313543FFF12B875123818905B
:1006200006D7E01313543F25E025E0FF123FD59095
:1006300009ED7401F022D17DEF7002FF227F0412D8
:100640002507E4FD7F18120826D1667F0112661186
:100650007F121218A674FFFFFE12B8577F08D10E42
:100660001225A77F0122F1E27002D16D227BDF7D8E
:1006700030E4FF125B467FC87E00028AF89008B51E
:10068000E07003125D1E9008B5E07F0060027F01FC
:1006900022EF24FC600E24F860072409700802256C
:1006A000E20224F280907F00229009EEE0900AC2DC
:1006B000F0D191EF700B900AC2F10A70047F01D162
:1006C000C222E4900A9FF0900A9FE0FEC394035078
:1006D0001174E82EF118E06F6008900A9FE004F0B2
:1006E00080E5E4900A9EF0129766900A9FF1104010
:1006F00002E4F0900A9FE024E8F118F10A700A90F1
:100700000A9EF11040E112257522E0FFD191EF22FF
:10071000E004F0E0C3940322F582E43408F5832278
:100720007B017A07792C7F007E00F1DB125D1EF1E0
:10073000E97B017A0879EB7F2CF1D97B017A087982
:10074000EB12B5E4EF70051247E480EFF1C49009B5
:10075000EEF10A70047F0CF15A22900AC1EFF0D139
:1007600091EF7007900AC1E0FFD1C2229009EEE03C
:10077000900AC3F0E4FF122F6C9008F0EFF064557C
:100780006004E0B44002F1F11247E4EF60047F033B
:10079000D1A99009EEE024FD700A123FE1EF700448
:1007A0007F01F15A9008F0E0B41218900006E0B40E
:1007B000030A9009EEE0B40D0312160D9009EEE065
:1007C000FFD1C222E4FD7F1C805C7B017A0879CDD9
:1007D000227B017A0879CD7FF47E017D007C0002C6
:1007E000B5B29008B5E024F722F1E27003125CD4B0
:1007F00022121813120F570209C07F0022FFFFFFB9
:03080000140108D8
:100807007F002205320007D001F4006401F400C81C
:10081700320AC350271007D014503C140A1E1490F4
:100827000A90EFF0A3EDF0900AAEE07002FF22907D
:1008370009EFE0900A92F012CECF124F189009EE0E
:10084700E0B404067D017F01F15BF1F2900A90E0CC
:10085700FF121847126148EF600512976680F5127C
:100867006272900A92E09009EFF0900A91E06003BB
:100877001262797F012212629BEF6008121826121A
:10088700B946800F9009EFE0D3940040061218266E
:1008970012B9881207CA12B5E4EF60077D207F1CE2
:1008A70012B9887F01122F6CEF12049508CF010847
:1008B700E60608FF07091A10092B110941570963B2
:1008C7006309AE64000009BF1207D11207CA12B547
:1008D700E4EF6002215D7D207F1C12B94680EC1297
:1008E70007D11207CA12B5E4EF70097D047F011220
:1008F700B94680EE7D0480171207D11207CA12B5D8
:10090700E4EF70097D027F0112B94680EE7D027F18
:100917000121AB126ACB4008E4FD7F15112631D1C6
:100927007F0180139009EFE0D394005008E4FD7F26
:1009370016112631D1E4FF0217211207CA7FE87E7C
:10094700031207DB1207CA12B5E4EF70097D207F97
:100957001C12B94680EE7D207F1C80481207D112F9
:1009670007CA12B5E4EF70097D207F1C12B94680D3
:10097700EE1207CA7F2C1207D91207CA12B5E4EF85
:1009870070097D207F1C12B98880EE1207D11207EB
:10099700CA12B5E4EF70097D207F1C12B94680EEBC
:1009A7007D207F1C02B9881207CA7F887E13120731
:1009B700DB7D207F1C12B94622D310AF01C3C0D004
:1009C70012BAA280FEF0E4FFD1589009EFE060462A
:1009D7009009C4E0640170279009EEE0B40407E4CD
:1009E700FFD1581225D29009EEE0B403087FC01258
:1009F70018A61226B29009EEE0B40C0312248B124B
:100A070020EA9009EFE0D39400400612182612B9A5
:100A170088E49009C4F0229008BCE014700261BF1A
:100A270024FD60612402600261FF910012B5E4EFCA
:100A3700700261FF126A6AE49008B3F09008BDE0A3
:100A4700FF64016004EFB4020EF1A9126A96F07B0D
:100A5700017D387C04800CF1A9126A96F07B017D38
:100A67006B7C03125A829008BC7404F091007F6477
:100A77007E001207DB9006F3E0FFA3E09008C3CFE8
:100A8700F0A3EFF022910012B5E4EF700261FF7F4F
:100A970001125DDA900AD6EFF07002614112000987
:100AA700900AD6E0B4030891007F647E0061FCF1F0
:100AB700EB707C9006F7E0FFC39432504B9006F33F
:100AC700E0FCA3E0FDC3946BEC94035013ED240802
:100AD700FE74F82FD145EEF09006F6E004F0800B97
:100AE700124F72FF9006F7D142EFF09006F7E0043D
:100AF70031CC9008B37401F0FB7A0879BE7FD07EC1
:100B0700071207DBF1B18032126A14E0400BD143C0
:100B1700E024F8FEE434028009D143E0246BFEE4CC
:100B270034039006F3F0A3CEF031CDF1E4800790C3
:100B370008BC740131CCD19380619008BDE0FFB44B
:100B47000308125261E094034018EF64026004F155
:100B5700EB704AC39006F4E094389006F3E09404EF
:100B6700403BF1E4126AC3402EF1EB702A120009F0
:100B7700126A14E0400BD143E024F8FEE43402800B
:100B870009D143E0246BFEE434039006F3F0A3CECF
:100B9700F0D168D1938002D16831CDE1B19008BC22
:100BA7007402F0A3E09006F3B4030674FFF5F08037
:100BB70004E475F0010281D7910012B5E4EF6038C3
:100BC7009008B3E0FFB40203E4F022EFB40106E4B7
:100BD7009008B3F022EFB4031F1260C49008B4E08A
:100BE700D394004005E014F08005E49008B3F09139
:100BF700007F2C7E011207DB227B017A0879BE2257
:100C07007F01122F6C900AD5EFF01204950C540156
:100C17000CE9020C54030CE9060D0E070DFC100E2F
:100C270006110C48120E11130D4A1F0C9F210D0EB1
:100C37002D0C542E0DE03A0C48400C544100000E88
:100C470041D1A1900AD5E0FDE4FF021508D14D700E
:100C5700457404F0A37401F0125DE4E4A3F0A3F07B
:100C6700A3F0FE7F32FD7B017A0679F81287C67DF5
:100C7700017F01F15BD168F1A9FF9009AB7401F025
:100C8700A3F0FB7D387C04125A827F01D158910072
:100C97007F647E00A1F5C1A1D14D6002C1419006DC
:100CA700F7E0C394324002C141C3125262E0940399
:100CB700500A1269EF500512526C8010125261E00F
:100CC700940340101269EF400B124F72FE74F82F15
:100CD700D145EEF0126A8B7406F091007F2C7E01ED
:100CE700A1F5125DB194005002C141D14D6002C11E
:100CF70041EF14FF9006F5E09F5005E004F0802ACD
:100D0700E49006F5F08023125DB194005002C141D2
:100D1700D14D6002C1419006F5E0D394004005E053
:100D270014F08006EF149006F5F09008B37402F003
:100D3700D1E431D191007FD07E071207DBE490091F
:100D4700F0F022D14D6002C141124F0FD39400EE53
:100D5700940040459006F7E0FDD3EF9DEE940050D8
:100D67003890093CE0FCA3E0FD149006F5F0A3E001
:100D7700FFED9FEC94009006F5E0500BD143E02483
:100D8700F8FEE434028009D143E0246BFEE4340327
:100D97009006F3F0A3CEF08017124F0FC3946BEEBB
:100DA70094034010D3EF9438EE94045007125DD1AA
:100DB700D1938017F1DDF090094404F0900945F0D4
:100DC700FB7A0879517FE87E038023D154F1DDF067
:100DD700121747FFFEFDFC8019D14D705D1251D3EC
:100DE700F1DDF0126A8B04F091007F2C7E017D000B
:100DF7007C0002B5B212258612B9887F01800812DD
:100E0700258612B988E4FF021721D14D702C90096D
:100E1700F0E06006E4FD7F1B8004E4FD7F1A1126E5
:100E27007F121218A69009F0E06008D1689009F0C7
:100E37007401F07F0812060EF1BC22E024F8F58257
:100E4700E43406F583229008BCE0640122D168E40B
:100E5700FF1207E2700512598880037F00227F0185
:100E670022F1A9FF9008C3EEF0A3EFF01207E2709A
:100E77000512599980037F00229009F0E0B4010917
:100E870031D1E49009F0F0F1B17F01227B017A06BC
:100E970079F27D381210357F01229008BCE0D39497
:100EA700014039A3E06035E49008B3F0126AC3400B
:100EB70025126A14E0400BD143E024F8FEE4340223
:100EC7008009D143E0246BFEE434039006F3F0A3DA
:100ED700CEF0D168D19331CDF1E4F1B1221269EFAF
:100EE700500E74F82FD145E024F8FEE43402800C4C
:100EF7009006F5D142E0246BFEE434039006F3F04C
:100F0700A3CEF0D15480859107511ED14D70401268
:100F170025CB12B5E4EF6037E4FF12587EEF20E5EA
:100F27000F125C819008C3E06E7003A3E06F60103E
:100F37009008BBE004F0E0D394024009D154800547
:100F4700E49008BBF01225CB7FFA7E001207DB2264
:100F57007D01E4FF900AB6EFF0ED64017006121808
:100F67002612B946900AB6E0B4011D12206B90090B
:100F7700EEE0B40305E4FF1218A69009EEE0B40C06
:100F87000FE4FF1218A68008E4FDFCFFFE1229F407
:100F97009009EEE0B404047F01D1589009C47401AC
:100FA700F0229006F3E0FEA3E022900856E0B40199
:100FB700031217C9229009F0E06006E4F031D180EE
:100FC7000A9009F07401F0FDFFF15B900856E0B458
:100FD700010312174E22E490093CF0A3229008BCAB
:100FE7007401F0229008BDE064012212382B7F01C2
:100FF70012B8757F01123FD5E49009EDF0029766AC
:101007009009EEE024FC601224F8600924097017A7
:101017001226B2800812249080031225D27B017A0F
:101027000679DD7D011135227A0679DC7D01900A8A
:10103700411285E6900A44EDF0126A3A12365140A1
:1010470002E4F01236494002E4F09006DB745AF0ED
:101057009009EEE0FF60049006DCF09009EFE09065
:1010670006DDF01237E14002E4F09009EEE0FBB450
:10107700011690073AE09006DEF090096BE09006C3
:10108700E331709006DF8018EBB4021790073AE05F
:101097009006E8F090096BE09006ED31709006E954
:1010A7001285701236591236A690072AEFF01200F1
:1010B700F9E94A4B602D900A44E060277D5AE4FF26
:1010C70012BA061200F9C3E994DBFF1200F9900A7D
:1010D70044E09009E2F012347E90072AE0FD7F4F4A
:1010E70012BA062211079009EFE070109009C4E0C8
:1010F700700A9009F0F07D01FF120F5B9009C4E0C0
:10110700B4010D9009EFE0D394004004A37401F0FB
:101117009009F0E0B40105E4F01209D122C374E8A4
:101127003177400FE49006E8F07B017A0679E87D95
:10113700011135C374DE3177400FE49006DEF07B92
:10114700017A0679DE7D011135C374DD94DBFF1268
:10115700BFF4900AC8EFF09009EFE06F600A7B01D7
:101167007A0679DD7D01113522F09007830284D359
:1011770094DBFF12BFF4900AC8EFF0D394012290DA
:1011870009EEE0FBB40107D1039006E48009EBB454
:101197000208D1039006EE128570126A3A9009EEA2
:1011A700E0B401087B017A0679E4800D9009EEE04E
:1011B700B4020A7B017A0679EE7D041135227F019C
:1011C700122F6C900736EFF0900798E06029900790
:1011D70036E070237B017A0779A012B5E4EF601738
:1011E700B147EF700D900739E07D06B401027D0726
:1011F700D109E4900798F0900735E0640670026122
:10120700D3A3E012049512DD0612E90712670C1248
:101217004A10124E1112BA13133C1F130B24130B4F
:1012270025132226132227130B2813222912DD2A1E
:1012370012E92B12A02D12542E133C3A13A55F006E
:101247000013D37F018002E4FFF12161D3900737B8
:10125700E0B40304E4F0803A9007377403F0803277
:10126700900737E0700404F08005E4900737F090AA
:101277000737E0B4040B90073A7401F090076A80CF
:1012870008E490073AF09007681250D5F0A3EFF002
:1012970031867F01125EE861D3900738E004F0E001
:1012A700C3940B4002E4F0124AF931867F01125EC3
:1012B700EE61D39009F0E06011900735E0B40204C5
:1012C7007D018002E4FD7F1B8004E4FD7F1A120884
:1012D70026120FBC61D3D114500261D39142E4FFAF
:1012E700800AD114500261D391427F01124FCC1270
:1012F700269B7A0779A07FE87E03FDFC12B5B290A2
:101307000798802CD117500261D391427F02126A4D
:1013170076600261D37D06F1ED8015D11750026129
:10132700D391427F03126A76600261D37D07F1EDA4
:101337007401F061D3124F0FC390002DE09F90000E
:101347002CE09E40301262F6402B90073AE0702561
:10135700900766E06E7003A3E06F601991429009F1
:101367003C1250D5F0A3EFF0120FDDF0B147EF704C
:10137700047D06D109124F7A1251C79E4011D3ED51
:101387009400EC94004008F1477FE87E038006F163
:10139700477F007E001207DB120FDDF0802E9007DB
:1013A700A5E0B40127E4900AC7F0900735E0B4023E
:1013B70009124C18900AC77401F01240319007A522
:1013C7007402F0900AC7E0B401029164900735E017
:1013D70014601024FE600704700C91648008124C9E
:1013E700188003124FB690072BE0600D1262B1EF21
:1013F7006007E490072BF0802690072BE0702012FF
:1014070062B1EF701A90072B04F0900735E0B40231
:101417000ED103EF2401FFE43E123FA11237C1D1E1
:10142700039007311237626011124D56D12F400ACF
:10143700D1039007311285703186227B017A0779B3
:101447006812A68F9003F312857C00000000D10D6F
:10145700E4FDFF120F5B7F647E00028AF8124F994A
:10146700600612CEB0EF7011900737E06403702565
:101477007F0A124D58D12F401C9142900737E064E4
:10148700016005E4FF124FCCB147EF70087D067F7E
:1014970001B10880427B017A07799B12B5E4EF60BE
:1014A700189009F0E07012900797E0700C1209D1BC
:1014B700122AE19007977401F0124C44EF701A91C9
:1014C70042900739E0FF64026003EF70047D0680F5
:1014D700027D077F01B108C10D124D46600B24FE46
:1014E70060181460152404701712CECF124F18908D
:1014F70007357403F0120F578003F1F5F0124D4DC5
:1015070022900A39ED126A2212810FC39408400310
:101517007F0022900A39E0FFA3122FBA7401120448
:1015270014FD1280F62DFD7C00ED5407FD900A3A5C
:10153700122FE2E92DF9EC3AFAEF12813C7F0122F2
:101547007B007A007900900A751285E6E490079887
:10155700F090073AE07015124F7AD3900767E09F33
:10156700900766E09E4005E4F0A304F0900A751228
:1015770085DD9005131285E6900766E0FFA3E090EE
:101587000516122DD87A077968129C6BEF700790B1
:101597000AA27405802B7B017A0779777D0B1236B7
:1015A700A690096BEFF07B017A0679DB7D50113548
:1015B7007B017A07796812CEE6EF7009900AA27468
:1015C70007F07F00229003F312857C000000009053
:1015D700079AE0601DE4F01237C79003EF1284D337
:1015E7009003F3123762400A9003F312857C0000E0
:1015F7000000124A66EF7F017001FF229003F30299
:1016070084D37F01B1089007357401F022120FB11E
:10161700D390002DE0940190002CE0940022E47F09
:10162700487E0DFDFC9008A91284DFD302840E903A
:101637000AA4EFF0E4A3F0D390089FE09400900889
:101647009EE0940040229008A01284DFC000C001F1
:10165700C002C0031230A4E4FCFDD003D002D001C5
:10166700D000126AAA1247DA90089EE07002A3E03F
:101677006002E1177B64FAF9F89008A0123FA9907D
:1016870008A912857090089EE4F0A37464F0A31271
:10169700857C00000000E47F107E0ED12A40089070
:1016A70008987402F08019E47FACD12840089008AC
:1016B700987404F0800AD12540069008987405F0C4
:1016C700D1254015E47FAC7E0DFDFC9008A91237AB
:1016D7006250069008987405F0900AA4E0B4010AD5
:1016E700D1255006900AA57401F0900AA4E0700A6B
:1016F700D1265006900AA57401F0900AA5E0B4011E
:101707000F9008987406F01200121297661207F1EC
:1017170002001211EB7F01020016EFB4010A126AF0
:10172700CB5011E004F0800C9009EFE0D394004017
:1017370003E014F080DDE4900858F07D01FFF19795
:101747007B017A087951229009EEE024FC6021049C
:10175700703D125F647011900858125F5A7D01E462
:10176700F1447FE87E038024F13D7F007E00801CEA
:10177700125F647011900858F0125F6BE4FDF1443A
:101787007FE87E038006F13D7F007E001207DB22A3
:10179700900AA7EDF0900AA6EFF07010A3E07D0184
:1017A7007F01600512B988800312B946900AA6E046
:1017B700B4010EA3E07D207F0A600302B98812B945
:1017C70046229009EEE024FC60050470028000E4E4
:1017D700FD7F01F1977D01E4126AA0F1477FE87E62
:1017E70003FDFC02B5B27F01B10890073522914293
:1017F700E49009F022900A74E07010900A9DE0705E
:101807000A1113112612B9461209C022900856E090
:10181700B40103125F04125ECCE0900857F0227DFA
:10182700107F2012B9467D107F2112B9887D107F65
:101837001D12B9887D107F1E12B9467D107F1C22AC
:10184700900ADBEFF0126235EF7002FF2212C7F742
:1018570090081AE0FF12636A900ADBE0FF7E00E45B
:10186700FD1240A1EF7002FF2212616B1260CBEFF5
:101877004E7002FF2212616B12CDA09009EF74180F
:10188700F07F0911A690081C124B5E1220EA112660
:1018970012B988125DC2122AE112CEB87F012290D6
:1018A7000ABBEFF01220E354449008D9F0900ABB2A
:1018B700E0F0FF9008DAE0B50706D1C270024116E2
:1018C700900ABBE0701E909C49E05409600291B3F6
:1018D700D1BB6002B155909C49E054127002410699
:1018E70051174106900ABBE0FF5409603FD1BB6026
:1018F70007EF54247002B155909C49E054126020C0
:10190700126A83701BEF54C070169008DAE0541205
:1019170060045117800A9008DAE054C06002D129A8
:10192700909C49E054096409600291FD126A836042
:1019370035909C49E054096007EF5409700291B350
:10194700D1BB600A900ABBE054247002B155909C49
:1019570049E05412600BE05412FFD1C26F6002518C
:1019670017D1C2FF51D0900ABBE0FF5424602590E5
:101977009C49E054096007EF5409700291B3909CA9
:1019870049E05412600C126A837007EF54C070026A
:101997005117B19F900ABBE0FF54C06062909C4909
:1019A700E054096007EF5409700291B3D1BB600A94
:1019B700900ABBE054247002B155909C49E0541240
:1019C7006006D1C270025117909C49E05412FFB4CF
:1019D70012047FC0800EEFB402047F408006EFB48C
:1019E70010027F80EFD39400400B900ABBE054C0F5
:1019F7006F6002D129900ABBE054C0FF12287B9088
:101A07000ABBE0FF9008DAE06F6002EFF0F1E32233
:101A17007F01120E581221AB5004AF068000900AC6
:101A2700B9EFF0909C41E09008E4F0909C42E09080
:101A370008E7F0900AB9E0C39440501412976690F3
:101A47000AB9126ABAF091CB900AB9E004F080E3C0
:101A5700B148909C4FE0549F51AB5198909C4FE0F8
:101A670054E751AB909C4CE054FCF07F147E00513E
:101A7700B01225679194EFF47002EEF4601291941E
:101A8700EFF47003EE64FE6007909C48E04401F0B9
:101A970022909C49E054EDF07F027E0051B0909C6B
:101AA7004FE054F9F07F027E00900A96EEF0A3EF24
:101AB700F0900A9674FFF5F01281ED45F060091277
:101AC700976691CB91CB80E922900A6CEFF0909CBE
:101AD7004E91AB909C4DE0543F900A6E1227BF7019
:101AE70002EEF460129194EFF47003EE64FE600767
:101AF700909C48E054FEF0909C4CE04403F0909C8E
:101B070041E4F0A3F0909C4FE0441851AB909C4FF8
:101B1700E0440151AB909C4FE0440651AB909C4987
:101B2700E0441251AB7B017A0879DD7F107E2712E2
:101B370007DB9008D7E060028106909C4BE020E02D
:101B47005C909C4BE030E0028100126A06600281E3
:101B5700009194EFF47002EEF4600B9194EFF4703F
:101B670003EE64FE7024900A6DE014919D909C4EE4
:101B7700E07025ED643F70028100900A6D7440F0BB
:101B8700A3E025E0F04401F0800E900A6DE0149088
:101B97009C4EF091ABE06061126AD380A4909C4B9D
:101BA700E030E055909C4BE030E04E126A067049F9
:101BB7009194EFF47002EEF4600B9194EFF47003DC
:101BC700EE64FE701F900A6DE004919D909C4EE0BC
:101BD700643F7020ED6022900A6D74FFF0A3E0C3AC
:101BE70013F08010900A6DE004909C4EF091ABE0EA
:101BF700643F6005126AD380AB9008D77401F05137
:101C070098909C4FE054FE51AB122195909C4FE069
:101C1700440651AB909C49E0441251AB909C4FE075
:101C2700446051AB1260C39008D9E07004126AB3E4
:101C3700F0B14F12219E5004AF068000900A6EEF5C
:101C4700F0900A6D743FF0900A6EE0FF900A6DE025
:101C5700D39F40281229EB900A6DE0FEC39F4005F1
:101C6700909C41EEF01229E24008900A6DE0909CAA
:101C770042F091CB900A6DE014F080CB9008E4E03D
:101C8700909C41F09008E7E0909C42F02290966B80
:101C9700E0FEA3E0FF22909C4EF0900A6EE0FD90DC
:101CA7009C4DF0A3E0543F900A6DF0221227CD120D
:101CB70020DBB148909C48E04422126A6154F6F157
:101CC700884411F012B8A0EFFD7C007E017F9012CE
:101CD7008182EF2401FFE43EFE909904E020E00BAF
:101CE700EF7802CEC313CE13D8F9FFEF1FAC0670FF
:101CF700011E4C70F622909C437403F0A3126A6194
:101D07004409F18854EEF18854DDF091CB9194EFBA
:101D1700F47002EEF460089194BEFE0ABFFF0790CC
:101D27009C4374028005909C437401F0A3F0126AEF
:101D3700DA7005126AB3B14E1227E47F507E004174
:101D4700B0909C48E04444F07F0A7E0041B01221E5
:101D5700AB5004AF068000900AB8EFF0909C41E0CA
:101D67009008DBF0909C42E09008DCF0900AB8E025
:101D7700C394405014129766900AB8126ABA126A4E
:101D87004B900AB8E004F080E3B148909C49E054D6
:101D9700DBF07F037E0041B0122195126A62442472
:101DA700F091CB909C47E04403F07FF47E0151B063
:101DB700909C47E054FCF0126ADA7004126AB3F0A0
:101DC700B14F1221AB5004AF068000900A98EFF094
:101DD700A3743FF0900A98E0FFA3E0D39F4032122C
:101DE70097669008DBE0FF900A99E0FEC39F4005E5
:101DF700909C41EEF09008DCE0FFEEC39F40089016
:101E07000A99E0909C42F091CB900A99E014F080F7
:101E1700C39008DBE0909C41F09008DCE0909C4286
:101E2700F02212219E5004AF068000900ABAEFF00C
:101E3700900ABAE0D3943F502B129766909C49E0E2
:101E470030E108900ABAE0909C41F0909C49E0305C
:101E5700E408900ABAE0909C42F051AC900ABAE0CC
:101E670004F080CC909C49E030E107909C48E04426
:101E770004F0909C49E030E407909C48E04440F02F
:101E8700B14F909C49E030E10312305C909C49E0EF
:101E970030E40312305451AC909C49E030E104E047
:101EA70054FDF0909C49E030E404E054EFF07F02E9
:101EB7007E0041B0909C49E0542422900ABBE05434
:101EC7001222900AB7EFF0126A53B14E909C45E088
:101ED70054FAB14E909C46E0547FB14E909C46E038
:101EE70054DFB14E909C46E054EFF0900AB7E0FF04
:101EF70012286E1207DB909C4BE020E306126A065D
:101F070060F42222AE079008E5E0707412201AAF41
:101F170006D1C9909C00E4F0909C49E04440F091C0
:101F2700CB12309C7481F0909C00141227BF700272
:101F3700EEF460089194BEFE0DBFFF0A909C4374B7
:101F470002F0A3F0800D909C437401F0A3F0909CE5
:101F57004AE4F0909C04E4F0122FD07411F090083A
:101F6700E4740AF09008E7F09187E49008DAF090BB
:101F770008E504F01227CDF07F327E0051B0F1E37F
:101F870022F091CB909C48E022AE0712201A909C39
:101F970046E04410F0AF0612286E1207DB909C4B08
:101FA700E020E205126A0660F4126A53126A4B9047
:101FB7009C46E04420F091CB909C45E04405F0918D
:101FC700CB909C46E0547F126A4B909C49E054BFEB
:101FD700F091CBE49008E5F09008DAF09008D8E0AB
:101FE7007016124F8EC083C082E0FFA3E054FED06C
:101FF70082D083CFF0A3EFF0229005BFE0B40508AD
:10200700A3E0B4AC037F01227F002211009006AC4D
:10201700EFF022116330E0027F019008D8EFF090D3
:102027009901C083C082E0FFA3E04401D082D0833E
:10203700CFF0A3EFF0909C06E04480F022116330CC
:10204700E0027F01900ADEEFF0909901C083C08221
:10205700E0FFA3E04401D082D08380D4909901A30C
:10206700E07F002211E35444FFBF44028063909C49
:1020770049E054096004F1CD11DB121EBB7005E085
:102087005412603E121EBB600A31AB5004AF06808B
:102097000A8008319E5004AF068000900ABCEFF01A
:1020A700900ABCE0C3943F5017129766900ABCE0B1
:1020B70004F0E0543F909C41F0A3F0121CCB80E069
:1020C7003195909C48E0544464446005E0444411D1
:1020D700DB021FE3F07F507E00021AB0111A909CBA
:1020E70048E02211E35444700221893195909C48BD
:1020F700E05444600BE054BBF07F1E7E00121AB020
:10210700909C49E054096002F1E4121EBB7005E09F
:102117005412606E121EBB600F31AB5004AF0680C5
:1021270000318C9008DC800D319E5004AF06800092
:10213700318C9008E7E0900A2FF0900A30743FF056
:10214700900A2DE0FF900A30E0C39F403512976652
:10215700900A30E014F0900A2EE0FF900A30E0FE7B
:10216700C39F4007EE543F909C41F0900A2FE0FF39
:10217700EEC39F4008A3E0543F909C42F0121CCB53
:1021870080BE021FE3900A2DEFF0A3EEF022909C91
:1021970041743FF0A3F0229008E7E0FF9008E4E0E5
:1021A700FEC39F229008DCE0FF9008DBE0FEC39FA0
:1021B70022116B917F12B988125EBE7195F1D4120C
:1021C700B94612697302B9885114EF700F90B204BF
:1021D700F090B203510D90B205F08024EFB4010ED8
:1021E70090B204E4F0A3510D90B203F08012EFB463
:1021F700020E90B203E4F090B205510D90B204F0D4
:1022070090B000E4F022F0ED90000E932290B00021
:1022170074FFF02290988AE04430F090988CE05454
:10222700FAF05114909804E0B4170890B0077403BB
:10223700F08009907FC0E49390B007F090B000E47D
:10224700F1BF4E6007511490B00851C07D027F075F
:1022570012B9887D027F0512B98890B009E020E1A4
:1022670057511490B00951C0F50AF50B050BE50B52
:102277007002050A640A450A70F2E4F50AF50B9044
:10228700B004E030E01F90B004E030E102801105B7
:102297000BE50B7002050AD39440E50A941F40DF53
:1022A700E4FF02BA9A90B004E020E0DAE020E1D639
:1022B700E4FF12BA9A1209C022E04402F090B0007B
:1022C700E4F022900ADCEFF012B957900ADCE0FF45
:1022D7007008511451EE4404800AEFB401085114F8
:1022E70051EE440851C32290B009E054F3F0E022C4
:1022F70012BA95511490B100E0444180BF5114A324
:10230700E054FBF090B100E054BE80B090B009E01B
:1023170020E00A511490B009E0440151C32290987B
:1023270001E0FDEF543FFCED5CF0EF30E50A51149E
:1023370090B100E054BE51C322900ADD7414F0F14D
:10234700B2718CE0700C900ADDE0FF14F0EF70F6CC
:10235700718C909800E054FEF0F1DC6005EF64208A
:10236700701A7184BF0404E4FF80077184BF0804F6
:102377007F0151CA7F0112C06B12C00E2290B009B3
:10238700E0540CFF22909803E09006D8F0227D01DC
:102397007F0212B9887D017F0312B9467D027F054E
:1023A70012B9467D027F0612B9467D027F0212B935
:1023B700887D027F0312B9467D027F0112B988E446
:1023C700FDFF31CF7D047F0512B9467D047F0612DC
:1023D700B9467D047F0212B9887D047F0312B9468E
:1023E7007D047F0112B9887D207F0E229008CC746E
:1023F70001F09008C5F0917F12B946F1EC918BD1AD
:102407009812102F7D017F0512B9467D017F0612B4
:10241700B988719512B9887D207F0F12B988126922
:102427007312B9887D017F2012B9467D017F211281
:10243700B9887D017F1E12B9887D017F1D12B946BB
:102447007D027F2012B9467D027F2112B9887D0265
:102457007F1E12B9887D027F1D12B9467D407F0E0F
:1024670012B9467D407F0F12B9887D407F0C12B9A3
:10247700887D407F0B02B9467D807F0C12B9467D6F
:10248700807F0A227F241218A69009EFE0FFAE078B
:10249700EE9005CC93FDFFAE07111AEE543FFEED0B
:1024A700543FFD121EBB600A9008DBEEF0A3EDF06F
:1024B7008012909C49E05412602E9008E4EEF09050
:1024C70008E7EDF0909C48E020E20B909C41E05437
:1024D7003F6E6002EEF0909C48E020E60B909C4235
:1024E700E0543F6D6002EDF0021FE3D106120FF2D8
:1024F7007F0CB107E4FD7F0B12082671F37F0122E1
:10250700900AC0EFF09009EEE024FD601C24F7600C
:10251700252408702B900AC0E064046023B1671279
:102527000FF2E4FF1266118017900AC0E06403609F
:102537000F124807800A900AC0E0640C600231B8A5
:10254700900AC0E09009EEF0900AB1F07D017F019A
:10255700120F5BE49009F0F0D1A3120FD2020FB172
:10256700120EA1126A6A1207E9B18602B946E4FFA0
:10257700B107E4FF1218A6B18612B9887F01227D40
:10258700087F2012B9467D087F2112B9887D087F10
:102597001D12B9887D087F1E12B9467D087F1C224F
:1025A700120E54B1D2120FE41209D1B18612B988B2
:1025B7007B0112102FE49008BBF0B1CB7FFAFEFD30
:1025C700FC02B5B27B017A0879B6229009EFE0FFE9
:1025D700AE07EE9005AB93FDFF819E123FE1EF70D2
:1025E70002FF22D106120FF27F03B107E4FD7F0C31
:1025F700120826F1EC7FC01218A6D18B7F01227436
:10260700FFFFFE02B83F511BD10612B8CC129766E6
:1026170012382BF165D2AFF1B8D1C2D1A31253064C
:10262700E4FDFF31CF12182612B946E4FF125E45CA
:10263700D1F3E4FF121F0B12353612454B12472810
:10264700120720129766D1D5124D9612076C900982
:10265700EEE024FE600E14601A14600D24F8600E7C
:10266700240B70111211C5800C120F0E800712086F
:102677007D8002F143D18080CA900856E0B40103FF
:10268700125FE022D1B2D1987A0679DC7D0102107F
:10269700351209D1E49009F0F07B01227E007F1EFC
:1026A7007D007B017A08795E0287C69009EFE0FF1B
:1026B700AE07EE90058A93FDFF819EF188120FDD2C
:1026C700F07B017A09793EFFFEFDFC02B5B2D1EC41
:1026D70012B5E4EF600ED1EC7F327E001207DBE427
:1026E700FF121636227B017A08799922D1EC7F00F6
:1026F7007E001207DB7B017A0879AE7F007E00122D
:1027070007DB90089EE07002A3E0602B1247DA9087
:1027170008A01284DFC000C001C002C0031230A4A9
:10272700E4FCFDD003D002D001D000126AAA7F05D5
:102737007E00128AF880CB7F010216367F01122FA6
:102747006CEF14601524F0600C24FE600D240370F8
:102757000C7F018002E4FF021721120FBC229006B2
:102767001112857C00000000C2A9C28C5389F04376
:1027770089027F01123FD5D2B9D2A9D28C43A902CF
:1027870022E4900918F0F1C6FFFEFDFC12B5B27DF8
:10279700807F1D12B9887D807F1E12B9887D807F5A
:1027A7002012B9887D807F2102B946908000E4938A
:1027B70022C28AD2AAD2AF22F0121C94EFF4227B53
:1027C700017A09791922909C01E044032212B94643
:1027D7007D207F0F229006D8E0FF640822909C019D
:1027E700E054FCF0227D017F2612B9887D017F2706
:1027F70012B9887D017F2912B9887D017F2A12B914
:10280700467D027F2612B9887D027F2712B9887D0F
:10281700027F2912B9887D027F2A02B946900A6988
:10282700EFF0A37401F0129766909C46E054F09085
:102837000A6BF0E0FF900A6AE0FEEF4EA3F0900A01
:1028470069E0B4010BEEB40707900A6BE04408F0A7
:10285700900A6BE0909C46121D4E900A6AE004F0C5
:10286700E0C3940840C02211247B017A0879DD7FF8
:10287700B87E0B22900A6FEFF030E60231D1900A52
:102887006FE0FF30E70231C9EF30E606909C4174F4
:102897003FF0900A6FE030E706909C42743FF0905B
:1028A7000A6FE0FF30E60231C1EF30E70231B912BB
:1028B7001AAC900A6FE0FF30E602315DEF30E702B5
:1028C7003155121AAC9008D9E06444601A900A6F27
:1028D700E0FF30E607909C48E054FBF0EF30E70755
:1028E700909C48E054BFF0121D4F12219E5004AF38
:1028F700068000900A70EFF0A3743FF0900A70E032
:10290700FFA3E0D39F403531EB900A71E0FEC39FF0
:10291700400C900A6FE030E605909C41EEF031E202
:10292700400F900A6FE030E708900A71E0909C42F0
:10293700F0121AAC900A71E014F080C0900A6FE0B0
:10294700FF30E60231D9EF30E703121C8B22909C4F
:102957004FE04420F022909C4FE04440F022900A40
:10296700BDEFF012201A900ABDE0FF30E60231D128
:10297700EF30E70231C9900ABDE030E60231C1907D
:102987000ABDE030E70231B9121AAC900ABDE0FF88
:1029970030E602315DEF30E7023155121AAC900A8A
:1029A700BDE0FF30E60231D9EF30E703121C8B029E
:1029B7001FE3909C49E04410F022909C49E04402B8
:1029C700F022909C4CE04408F022909C4CE0440498
:1029D700F0229008E4E0909C41F0229008E7E0FFA5
:1029E700EEC39F221297669008E4E0FF22900A291F
:1029F700F1D8EDF012201A121C94EFF47002EEF4E5
:102A0700605F121C94EFF47003EE64FE6053900A4B
:102A170029E0FEA3E07802C333CE33CED8F951C9FB
:102A2700900A29EEF0FAA3EFF0FBA3E0FEA3E0780B
:102A370002C333CE33CED8F951C9900A2BEEF0A397
:102A4700EFF0D3EB94EAEA940B4005900A2951D9A9
:102A5700D3900A2CE094EA900A2BE0940B400251A1
:102A6700D9900A2951D1A351D1900A29E0FCA3E0BA
:102A7700FDECC454F0FBA3E04B9008E2F0AF05A3D4
:102A8700EFF0900A2BA3E09008E6F0909C04EFF09B
:102A9700909C02E0540FF0C083C082E0FF9008E2F0
:102AA700E0FE54F0FDEF4DD082D083F09008E6E0D1
:102AB700F1D0E054F0F0E0FFEE540FFEEF4EF002DD
:102AC7001FE3FF7C007D05028182E0540FF0A3E045
:102AD700F022740BF0A374EAF0229009EFE025E0EE
:102AE7002448F582E43405F58351F7FDAC0621F45B
:102AF700E493FE740193FF2271B575F002908A7911
:102B07001285D151F790000312810FFD7C00EF2D44
:102B1700FFEC3ECF24FFCF34FF900A1AF0A3EFF06B
:102B2700128203FFAEF012C07BEF601171B5D39430
:102B370002400A900A1AE475F0011281D79005AF96
:102B47001285DD1282032444FD2403FFE433FEEFE4
:102B57007802CEC313CE13D8F9900A1EF0AF05E45E
:102B6700FCFDFE7B6D7A01F9F81282CD900A1EF109
:102B7700C8FE900A1BE02FFF900A1AE03E900A1C3D
:102B8700F0A3EFF0900AA0E0B40208900AA1E06475
:102B970003600E71AC12BFDB9005AFD1CFEF12818E
:102BA7004ED080D080900A1CE0FEA3E0FF22900563
:102BB700AF1285DD90000202810FE49009BBF0D0CF
:102BC70080D080FE7F08FD7B017A0579BF1287C61A
:102BD700B1C6A37408F07B017A02792C9004B1E4A2
:102BE700B1A0700AB1977006B1977002FF229002E8
:102BF7002CE0FF9009B7F0900233E09009B6F0D3CC
:102C0700EF9400748094814003E4A3F012BDF79021
:102C170006A17427F0A37410F012CA15EF7002FF13
:102C270022B1C69009B6E0900398F0B1AEEFB1A417
:102C37007002FF2290023CE09009BCF0900235E060
:102C4700FE900234E07C002400FFEC3E9005BFF0CC
:102C5700A3EFF0900237E0FE900236E02400FFEC8D
:102C67003E9005C1B1D97A02792CB1B97409B1CEB8
:102C77007002FF2290022EE09009B7F0D3940074FF
:102C87008094814002E4F0B1AEEFB1CE7002FF2232
:102C970012B007BF0107E49006ACF0FF227B017A70
:102CA70002792C9009B81285E690022EE0242CFFB9
:102CB700E43402FAA9077B01C003C002C0019009EE
:102CC700B81285DDC3D082D083D0E0E99582EA953A
:102CD700834002A1949009B8F1BA12810FFF6404EE
:102CE700703690000512810FB40819900006128102
:102CF7000FFE64056004EEB4060A90000712810F08
:102D070064506007E49009BDF080069009BD740126
:102D1700F0E49009BBF0804EEF640570499009BD5F
:102D2700E0604390000312810F540364027037710F
:102D3700BB30E719540F900367F0A37405F0B1C0D7
:102D4700900369F09009BBE04401F0801971BB540E
:102D57000F90036AF0A37406F0B1C090036CF09073
:102D670009BBE04402F09009BBE0B4030F900231C5
:102D7700E0FF12CA64EF7F017015FF229009B8F1D6
:102D870020FF9009B9E48FF01281D781B07F00222C
:102D97007B017A02792C9004B1F0A37408F0E4FD6A
:102DA7007F0112AA35EF227B017A02792C9009B7AD
:102DB700E0FF9004B1E4F0A32290000402810FE445
:102DC700900396F0A3F022F0E4FD7F0212AA35EFFC
:102DD70022CFF0A3EFF07B01229009157402F0D007
:102DE70080D080900357E0B4280F90033BE0FFA307
:102DF700E090046ACFF0A3EFF0900915E0FF14F01C
:102E0700EF7002C18E7B017A03794890058F128596
:102E1700E6900592E4F0A3741FF0D1B860DB90044C
:102E27006AE0FEA3E04E6046900354E030E72B9043
:102E37000399D1B09004671285DD900586D1C190C2
:102E47000589B1D87A03D1917009D1987967129120
:102E57007D80A6900346D1B080149004671285DD6B
:102E670090058FD1C1900592B1D8D1B8608BD19818
:102E7700D1917008D198D1917002C100900914E0E6
:102E87006002C1007F01227F0022796712917DEFE6
:102E9700227B017A0979089005861285E6900589D3
:102EA700E4F0A3740DF07A0322E0FEA3E0FF02CD65
:102EB700147A03796A128CA2EF221285E690046ACB
:102EC700E0FFA3E02290069D1285DD90000422A278
:102ED700AFE433900ABFF0C2AFD1CC12810F701D9F
:102EE700128445F117900611123E39E4FBFAF9F8FE
:102EF700C31283F85007D1CC740112814E900ABFD8
:102F0700E024FF92AFD080D080D1CC12810FFF2276
:102F1700AB07AA06A905A804221285DD0280F69050
:102F270009C5EEF0A3EFF09009C91285E6E4900910
:102F3700C7F0A3F09009C5F1C19009C8E09F9009B7
:102F4700C7E09E501F9009C9F120FF1200E19009C8
:102F5700CAE475F0011281D79009C7E475F0011230
:102F670081D780D022E4900A3D126A2212810F6035
:102F77003C900A3EF1E2C003C002C001900A3EF154
:102F870020FF7C00D001D002D00329F9EC3AFA12D5
:102F970080F6900A3DF0EF045407FFA31285DDEF9A
:102FA70012813C900A3EF1BA74FF12044B900A3D1D
:102FB700E0FF221285DD90000122E0FEA3E0FFC3BF
:102FC70022E07C002FFFEC3E22909C03F0909C02B5
:102FD70022EEF0A3EFF0A3ECF0A3221285DDE924A3
:102FE70002F9E43AFA22EF909C50B40105E054FC50
:102FF700F022E04402F0E054FEF02212201A90087A
:10300700DAE05412702E909C49E030E102115C9096
:103017009C49E030E4021154121AAC909C49E0300C
:10302700E104E054FDF0909C49E030E404E054EF03
:10303700F0121AAC909C4CE030E204E054FBF090A4
:103047009C4CE030E304E054F7F0021FE3909C4F00
:10305700E054DFF022909C4FE054BFF02212201A78
:10306700909C00E4F0119C74A3F0909C007480F095
:103077009096417420F07D037F1D12B9467D037F32
:103087001E12B9887D047F1D12B9887D047F1E1228
:10309700B946021FE3909C057442F0A322907FDF9C
:1030A700E493543FFF900A9AE4F0A3EFF0900A9A52
:1030B700122FC19424EE94004009D3EF942CEE9480
:1030C700004009900A9AE4F0A37428F0E4FDFF1287
:1030D700B0157E007C0C7D1C1285EFC006C00790E2
:1030E7000A9AE0FEA3E0FBAA06E4F9F8D007D006A7
:1030F700128358C3EF94B8EE940B50067E0B7FB83B
:10310700800DD3EF94F8EE941140047E117FF822DE
:1031170090B004E030E016900A72E004F0E0B40AE0
:1031270006900A747401F0E4900A73F022900A730F
:10313700E004F0E0B40A03E4A3F0E4900A72F0229A
:10314700900AB0E07002315431170217FC9096458F
:103157007403F0714AEF60189006A0E064076010EE
:103167009009B4740BF0A374B8F09006A07407F03C
:103177009006A0E0FE702B51DAEF600C712CEF7017
:10318700079009AFF0A3F0227104FCC3E5F0946443
:10319700EC9400500241D971217402F09009AE14E9
:1031A700F022EEB4012651DAEF700241D7712CEF0D
:1031B700600241D79009AF7108FED3E5F09464EE41
:1031C7009400500241D9E49006A0F0229006A0E0B6
:1031D7006402703D51F151DAEF600A712CEF70050E
:1031E700712204F022120017EF6401700241D99096
:1031F70009B27107FEC3E5F094D0EE94075002417F
:10320700D9E49009B2F0A3F0715B9006A07403F0C3
:10321700229006A0E0FE6403701E51DAEF7015716C
:10322700FA51DAEF6008710E71217404F022710E01
:1032370051F141D751F141D7EEB4041A51DAEF6099
:103247000451F141D77104FED3E5F094F4EE9401F3
:10325700500241D9800D9006A0E0FEB4051D51DA59
:10326700EF70079006A07406F0227104FCD3E5F016
:103277009432EC9400405B51F18055EEB406137123
:10328700F2EF6002714351DAEF60479006A07405D0
:10329700F0229006A0E0FEB40721714AEF70069075
:1032A70006A07406F0D39009B5E094009009B4E045
:1032B7009400401E74FFF5F00281D7EEB4080F7139
:1032C7000E715B51DAEF600A710E51F1800251F114
:1032D7007143229009EEE0B40408909612E054027C
:1032E700FF2290A628E05404FF22D310AF01C3C0E9
:1032F700D0909644E04460F0D0D092AF229009AFCE
:10330700E475F0010281EDD310AF01C3C0D09096F0
:1033170044E054FCF0D0D092AF22E49009AFF0A380
:10332700F09006A0229009EEE0B40408909612E00F
:103337005401FF2290A628E05402FF229006A074B1
:1033470002F022909644E05403FFBF03047F0180FC
:10335700027F0022D310AF01C3C0D0909644E0543F
:103367009FF0D0D092AF22D310AF01C3C0D0900648
:10337700A0E0FF6406600EEF64056009EF64076074
:10338700047F0080569009EEE0B40416909901C0BE
:1033970083C082E0FFA3E04404D082D083CFF0A3B0
:1033A700EFF071E7E06F60109009B47401F0A37457
:1033B700F4F071E7EFF080219009B4E07002A3E028
:1033C70070179009B404F0A374F4F0710E715B9058
:1033D70006A07408F07F0080027F01D0D092AF2250
:1033E7007F0C7EA3128C849009B122909644E054FE
:1033F70040FF22D310AF01C3C0D0909644E04403EE
:10340700F0D0D092AF221227B2E490040C124A50A7
:1034170071439006A104F0A374E8F0126960F0907C
:103427000395916E900042F0A3F09006ACF09006E1
:10343700ADF090042804F0E490033DF0900610747A
:1034470004F0E4900436F0900429F090042AF0FE8A
:103457007F1FFD7B017A0379481287C690034812C4
:10346700857C5553424322F0900000F0A3F022E4FC
:10347700900042F0A380F09009DF1285E69009DE04
:10348700F169EFD39495500B9009DF1285DDE94A76
:103497004B70037F00229009E2E0FF9009DEF17C88
:1034A700400774969D9009E2F0E4900A9CF0900919
:1034B700E2F17250189009DEE02EFFA3D1E41280EA
:1034C700F6FD12BA06900A9CE004F080E1E4900A47
:1034D7009DF07F01229009E41285E69009E3F169E6
:1034E700EFD39495500B9009E41285DDE94A4B70B0
:1034F700037F00229009E7E0FF9009E3F17C400792
:1035070074969D9009E7F0E4900A9CF09009E7F122
:1035170072501A9009E3E02EFF12BFF49009E4D12C
:10352700E4EF12813C900A9CE004F080DF809ED19A
:1035370059D1A6AB079006D8E020E0629006DBE001
:10354700645A705A90072AE06B70539006D8F0902F
:1035570006DCE09009EED18740037419F0D15140A1
:1035670002E4F0D1494002E4F0D196F09009EEE090
:10357700FAB4010CD16ED1421285709006E4800E28
:10358700EAB40211D162D1421285709006EEF1BE03
:10359700E490073AF0F1E15002C141E4F0227E00E5
:1035A7007F527D007B017A0679D91287C67A067920
:1035B700DB7B019009E77450F0E4FF91DCD159D12E
:1035C700A6AB079006DBE0B45A0790072AE06F60C6
:1035D7001E9009677401F0E49006D9F0A3F0A37474
:1035E7005AF0A37401F0D17AF0A37419F0804890CF
:1035F70009677401F0F1B89009EEEFD187400374C1
:1036070019F0D1514002E4F0D1494002E4F0D17AF7
:10361700E0FBB4010C9006DEE090073AF0D16E8033
:103627000EEBB4020F9006E8E090073AF0D162D1B2
:1036370042128570D196F0121124221284D390077A
:1036470083229006DAE0C39405229006D9E0C3945A
:103657000B227B017A0679DB7D4F229006EDE09005
:10366700096BF09006E9229006E3E090096BF09071
:1036770006DF22E49006DEF09006E8F09009EE22DD
:10368700F09006DDE0543F9009EFF0D394202290AC
:1036970006D9E0900738F09006DAE09007372290D5
:1036A7000A451285E6900A48EDF0E4FE900A48E0E4
:1036B700FD14F0ED6024900A45D1E41280F66EFE09
:1036C700E4FFEFC3940850E4EE30E007C313648CC3
:1036D700FE8004EEC313FE0F80E8AF0622E475F008
:1036E7000102047E90096AE07050900006E06401D0
:1036F7007020129FB8129FDF9006DFF162703BF1D6
:10370700427D0BD1A69006E3E06F702E90096A0404
:10371700F022900006E064027020129FB8129FDF2B
:103727009006E9F1627013F1427D0BD1A69006ED88
:10373700E0B5070690096A7401F0229003D8028564
:10374700DD128358AC00AD01AE02AF03900903123E
:1037570085709009031284D39008FF1284DFC30297
:10376700840EEFF0900A9D7401F022E0FF900A9C0E
:10377700E0FEC39F22E0FD2FFFE433FED3EF9496D4
:10378700EE64809480229009F71285E69009FAED9D
:10379700F09009FAE0FF14F0EF60139009F7D1E415
:1037A7001280F6FF9009FB1255BE70E5FF227F01DC
:1037B700229006DCE0FF221284D39003F302857087
:1037C7009009EEE0FBB401059006E48007EBB40234
:1037D700059006EEF1BED196F02290073AE0D36449
:1037E70080948122D310AF01C3C0D0F16B12BA0607
:1037F700E4900A9DF0D0D092AF22D310AF01C3C09E
:10380700D012376B12BFF4E4900A9DF0D0D092AF7C
:1038170022909904E054FEF090980DE054FEF0E0F9
:10382700440EF02290B004E030E3F990980DE05494
:10383700F1F0E04401F090981FE030E0F99099042E
:10384700E04401F022A2AFE433900ABEF0C2AF9089
:1038570005FE1284D390061111879005FB1285DDB2
:103867001284959005FB122ECFE412814E900ABE6A
:10387700E024FF92AFD080D080221282B290087CE1
:103887001284DF0282B290088012857C000000005B
:10389700E4900892F0900006E0B4010C12CD53EECC
:1038A700C31390088DF0800690088D7401F0F128FD
:1038B700F1867002FF22F128F17864AA7003EE64A2
:1038C7005560089009C3E07002FF22E490088CF06D
:1038D70090088CE0FFC3940440022190EF75F0102C
:1038E700A424BEFFE5F0340EFAA9077B01900895E2
:1038F7001285E6122DC0FF6405600AEF640F6005AC
:10390700EF64857037900892E0FF600890088CE0BC
:10391700C39F40289008801284DFC000C001C00206
:10392700C003F15E129814D003D002D001D000F189
:103937004290088CE004900892F001B59008951227
:103947002ECF12810FFF64046018EF64066013EF37
:10395700640B600EEF640C6009EF64016004EFB460
:103967000E1F9008801284DFC000C001C002C00390
:10397700F15E129814D003D002D001D000F142803A
:103987000890088CE004F001D790088CE0B4041B81
:10399700900892E0FFD394004011EF9404500C90EC
:1039A700088012857C0000000001B571D4FE9008E4
:1039B7008071E9F1867002FF2271D4FE9008807150
:1039C700E9F17864AA7003EE645560089009C3E0D2
:1039D7007002FF22900D0DE0900013F0900D0EE0A5
:1039E700FEA3E0FF1297F8900893EEF0A3EFF0E440
:1039F700FCFD9008801187900014128570900D11BE
:103A0700E0FEA3E0FF4E603B1297F87C007D20129A
:103A170085EF71F5AB0790088DE07F0025E0FEE4A8
:103A2700FCFD1282B2D1FDC006C007E025E07B0095
:103A3700FAE4F9F8D007D00612835890087C12856B
:103A470070800A90087C12857C00000000900D169B
:103A5700E0FEA3E0FF4E60081297F8E4FCFD800546
:103A6700900D2471EF900884128570900D13E0FE7D
:103A7700A3E0FF4E60081297F8E4FCFD8005900D67
:103A87002071EF90088812857071DD71F5AB079092
:103A97000893F1AF118171F5AB07900888D139C050
:103AA70007900013E0FBE4FAF9F8D0071283589067
:103AB700088E128570E47FF57E0FFDFC90088E124C
:103AC70037625008E4900008F07F0122E47FF57E1A
:103AD700FFFDFC90088E123762500AE4900007F051
:103AE700A304F0802578367C0D7D017BFF7A04796D
:103AF700D17E007F081287A2EF9000077003F08045
:103B0700037401F09000087401F071DD9000141245
:103B170084DF118190001C128570900007E0600C13
:103B2700900D2C71EF90088E1187800E90088E12E1
:103B370084D3EF2402FFE43EF1A1900020128570A8
:103B4700900007E06021900D2C71EFEF24FEFBEE53
:103B570034FFFAED34FFF9EC34FFF8900013E0FF7F
:103B6700E4FCFDF13A800571DD90001411879000A7
:103B770018128570900013E0FE90088DE0FFEE8F1D
:103B8700F0A4900013F0A31284DFE4FCFDFE128280
:103B9700CD90001412857090001C71D1F13A1285F6
:103BA70070F128900888118771F5AB0771D4FE1260
:103BB70082CD90002412857090001871D1FE128278
:103BC700CD9000181285707F01221284DF90088D36
:103BD700E0FFE4FCFD22900D10E0FFE4FCFDFE9009
:103BE70008841284DF0282CD1284D3029814A804B9
:103BF700A905AA06229008FAEDF0A31285E6900817
:103C0700F9EFF090053EE0FEEFD39E50179008F9CC
:103C1700E0C39401400E9005451285DDE94A4B60EB
:103C270003EE70037F00229008F9E0149008FEF07D
:103C37009008FAE0FF9005451285DD9008FEF11720
:103C4700EF12814E9008FB1285DD12BF3FF12290E3
:103C570008FAE064036002A17AA3122ECF12810F43
:103C6700D39406400312BE90D1F7900903128570D2
:103C7700D1127800900903F1A9EF2402FFE43EF185
:103C8700A1E47B07FAF9F8128358AF03900907EF0D
:103C9700F09008FB122ECF12810FFEC39F4013EE48
:103CA700FF900907E0FDEF9DF14BD112F81282CD8D
:103CB70080289008FB122ECF12810FFF900907E092
:103CC700C39FF14BD112F81282CDC374809FFF744A
:103CD7003A9EFE74099DFDE49CFCC006C007D119FD
:103CE700900001D007D0061284AFD119D13FFAC096
:103CF70003C002C0011284459009031187D001D087
:103D070002D003128495D10CF16AF122900903D1F4
:103D17000F78001237489008FEE075F006402BD167
:103D270020D13FFAC003C002C001128445C004C0BD
:103D370005C006C007F154D13971F5AB07D007D0DC
:103D470006D005D0041282B2807DD120D13FFAC0BF
:103D570003C002C001128445C004C005C006C007E5
:103D6700D13071F5AB07D007D006D005D004128249
:103D7700BF80549008FAE064027057D10CF16AF1E1
:103D870022D1127800D1F71237484006F154D139C1
:103D97008012D130C374809FFF74519EFE74019DC1
:103DA700FDE49CFCC006C007D119900001D007D0E4
:103DB700061284AFD119D13FFAC003C002C0011265
:103DC700844590B1061187D001D002D003128495A3
:103DD70080259008FAE0B4011ED1F79009031285F7
:103DE700709008FF1284D3C006C007D11990000154
:103DF700D007D0061284AF9008F9E0FF12C1CB12AA
:103E0700BA257F01229008FF1284D37B807A5179EB
:103E170001229008FEE075F006A4FF900545128583
:103E2700DDE92FF9EA35F0FA229008FF1284DF90D6
:103E370009031284D30282BFE92401F9E43A2290EC
:103E47000A2012857C00000000E4900A1FF090050C
:103E57003EE0FF900A1FE0FEC39F4002C1F4EED18F
:103E67001D90000512810F6401707AF10E12810F07
:103E7700FBB4020FD1F7EF2480FFEE3451FEED348F
:103E8700018011EBB40313D1F7EF2480FFEE343A2E
:103E9700FEED3409FDE43CFC800AF10E12810FB4FB
:103EA7000108D1F7900A20128570900A1FD11C9043
:103EB7000001128465900A201237626021900A1F60
:103EC700D11CF12ED1FDC312840E6012900A1FD1AE
:103ED7001CF12EEF24FEF100C312840E7007900A26
:103EE7001FE004FF22900A1FE004F0C1557F002263
:103EF70090B1060284D3EF24FFFFEE34FFFEED34CA
:103F0700FFFDEC34FFFC229005451285DD900A1F6A
:103F1700E075F006A4F58285F083229008FF0285FC
:103F2700709008800284D390000112850B900A20BC
:103F37000284D3FE1282CD90001C221282B2900816
:103F470080028570FFE49400FEE4FCFD22900903E3
:103F57001284DF9008FF229008951285DD900008F3
:103F67000284657800128358AC00AD01AE02AF033E
:103F77002290000B128570900EFEE0FEA3E02290C7
:103F87000606740DF0A3E4F0A304F012D177EF2234
:103F97001284D3EF24FFFFEE3401FEE43DFDE43C41
:103FA700FC221284D3028358E0FEA3E0FFE4FCFD69
:103FB700229007C11284DF9007C9D139F1CE12824E
:103FC700CD900808028570E4FB7A02F9F82212C93D
:103FD7004690060FE0900610F02290960BE04410F2
:103FE700F090960EE054EFF0A3E054EFF090960CAB
:103FF700E054EFF012402A909609E030E40BE49089
:1040070009EAF09009E8F080149009E8E0C39414F5
:104017005005E004F080069009EA7401F09009EA7F
:10402700E0FF227F0A7E000290019009DA12857C68
:104037000000000012B8F1512D119A12DB79EF70D0
:104047004F119A90047F124A54FD7C0F12A02A90B8
:1040570009D8EEF0A3EFF04E700280347B017A0F9F
:1040670079009009D8E0FFA3E090099BCFF0A3EF78
:10407700F09009DA1284D391ED9009DA1284DF9077
:1040870009D8123FAF1282B2A3128570112A80A9F4
:1040970002B8CC7B017A0779A622AB07AA06900A59
:1040A7008DEDF0A3E4F0A304F0EDD3940240037F79
:1040B7000022900A8DE0F9701B9007DF511340032F
:1040C7007F00229007E1E02BFEE43A900A8EF0A3EE
:1040D700CEF08039E9640170229007E05113400364
:1040E7007F00229007E1E02BFFE43AFE9007DF1202
:1040F7002FC8900A8EF0A3EFF080129007E15113BA
:1041070040037F0022900A8EEAF0A3EBF09007F6B7
:10411700EBF0A3E9F090080812857C0000000090FE
:104127000A8F5124900A8E511C2410FFE43EFEE4AE
:10413700FCFD7A0779F87B01900992F0A37410F0DF
:10414700D136900A8DE06002411074FFFFFEFDFC3E
:104157009007FC123762700D9007FC12857C0000F7
:1041670000007F00227E007F2F7D00119A1287C6F4
:104177007E007F047D307B017A0779B51287C67888
:10418700B97C077D017B017A0879007E007F0412E4
:1041970080D078BD7C077D017B017A0879057E0098
:1041A7007F031280D09007FC1284D39007D1128529
:1041B700709007FC123F97123FCE1283589007C5A5
:1041C7001285709007DE51249007DD511C2420FFD3
:1041D700E43EFEAB07FAE4F9F89007F8123E39E43B
:1041E700FB7A02F81283589007C11285709007C1B5
:1041F7001284D39007C91285709007CD12857C0071
:104207000000009007C07401F07F0122E0FFD3EBAC
:104217009FEA940022E0C454F048FEEF22E0C4F87D
:10422700540FC868FF22900AAEE0B40307900A0A49
:10423700514A6199900AAEE0B40107900A14514AB5
:1042470051562274C7F07F007E007D007C002290CB
:104257000A10128570E4FF51887170900A14E0FF0C
:10426700518E71707F05518E120025900ADAEFF09A
:1042770071707F017E00128AF8900ADAE020E0E48C
:104287002271BD516B7F06AD07F18C0200E19009E9
:10429700511285709009551285E6900958E0700211
:1042A700A3E07002614D9009511284D3EF5401FFCE
:1042B700E4FEFDFCFBFAF9F8C312840E60169009C0
:1042C7005112853B9009551236E41280F6717890A9
:1042D7000958F1DD7F06518E71707FAD518E9009BF
:1042E7005191DC714EB11A900959E024FEFE9009F4
:1042F70058E034FF90095AF0A3CEF0D390095BE061
:10430700940190095AE0940040157FAD518E714E8B
:1043170090095A74FF75F0FE1281D7B11A80DC7FBD
:1043270004518E7170516B900958E0FEA3E0FF3085
:10433700E014E4FCFD900951123887123EFD900904
:1043470055122F20717822900955E475F001120457
:104357007E1280F6FF1200E1900955E475F0011214
:10436700047E1280F6FF1200E190960AE04408F0FE
:1043770022900A0FF0900A0B1285707F06518E71FA
:10438700707F02518E900A0B91DC900A0FE0716CDE
:10439700416B900A061285707F4351887170900AAD
:1043A7000AE0FF518E900A0AE064C76005900A068A
:1043B70091DC7170416B900AD9EFF07F50518E718B
:1043C700707F01518E900AD9E0809AF0A3EFF090A8
:1043D70009231284D3900982128570900986128569
:1043E700E6B1294E6027D3EF9400EE9401501E7F6B
:1043F70006518E71707F02518E900982F107B129A3
:104407009009861285DD122F267170516B2291E774
:104417009009271285E6B121C39F90092CF0603ED1
:1044270091E190092CE0FF900989E471D29009236A
:104437001284DF90092CE0FFE4FCFDFE1282B291AA
:10444700E790092CE0FF7E00900928EE8FF012819B
:10445700D7C390092BE09FF090092AE09EF0C39004
:10446700092AE09401404CE490092DF0A3F090094B
:104477002AE0FFC390092EE09F90092DE094005099
:10448700329009231284D391E19009897401F0A332
:10449700E4F071DCB1212F123F9D91E79009287458
:1044A7000175F0001281D790092DE475F001128192
:1044B700D780BB7E0090092AA3E0FF90092AEEF07F
:1044C700A3EFF0600F91E190092AE0FFA3E09009C4
:1044D70089CF71D2221284D3E10A9009270285DDA0
:1044E700900923028570900994128570900998129B
:1044F70085E6900AAEE0B40309B13D900958B132A0
:104507004195900AAEE0B40109B13D90092AB13254
:104517009115227F017E000290019009231284D316
:10452700E422900989E0FEA3E0FF22CFF0A3EFF099
:104537009009940284D39009981285DD90099BE035
:10454700FFA3E0227D087F0C12B946B16DE4900A03
:10455700AEF0B1CF900AAEE0FF600AEFB401067F7C
:104567001C71BD516B227170E04401F0E04402F10F
:10457700D1E04401F0E054FBF0E04402F02290095E
:104587005C1285709009601285E6E4900965F10078
:1045970090095C91DC7FFF1200E1900963122FC143
:1045A700900966E09F900965E09E501A12002590D9
:1045B70009601285DD900965F194900965E475F04D
:1045C700011281D780D46170F18C7F9F1200E112B4
:1045D7000025900A8AEFF0D1287B00EF12813CD1A9
:1045E700287B00900001EF12814E7170E4900AAEB3
:1045F700F0900A8AE0FFB4EF07900AAE7404F02245
:10460700EFB4C807900AAE7401F022EFB4C2079066
:104617000AAE7402F022EFB4BF06900AAE7403F03C
:1046270022120025900A8BE0FCA3E0AA04F922904D
:10463700098B12857090098F1285E690098F128574
:10464700DDE94A4B604F900992E0FEA3E0FF4E6020
:104657004490098F1285DDC3EA940F40167E00EF60
:104667005403FF600E74049FFFE49E9009928FF03D
:104677001281D7900AAEE0B4030BD1A890094DD1AF
:104687009DD1B68010900AAEE0B40109D1A8900977
:1046970063D19DB18522CFF0A3EFF090098B0284FF
:1046A700D390098F1285DD900992E0FFA3E0229055
:1046B700094612857090094A1285E6E490094FF180
:1046C70000900946F1077FFF1200E190094D122F74
:1046D700C1900950E09F90094FE09E501A120025A3
:1046E70090094A1285DD90094FF19490094FE475BE
:1046F700F0011281D780D46170F0A3F07F0B418E57
:104707001284D3900A4D128570900A4EE0FF120072
:10471700E1900A4FE0FF1200E1900A50E0FF02002B
:10472700E17E007F377D00F183900AAEE07002FFE3
:10473700227A0779D57B01900992E4F0A37420517E
:104747004CD1367FFE7E017DAA7C559007D5123766
:104757006270079007F504F0800BE49007F5F0FE10
:104767007F20FDF1839007DDE0FFA3E090002CCFD1
:10477700F0A3EFF09007827401F0FF227B017A0724
:1047870079D50287C690960AE054F7F022E0FCA399
:10479700E0F5828C83EF02814EE4FF900006E0B4DF
:1047A700030BF1C81266247F01D080D080900006E9
:1047B700E0B4040CF1C8E4FD11A17F01D080D080E2
:1047C70022900516E0FEA3E0FF22F090960CE0444D
:1047D70008F02290089E74FFF5F00281D79009EA4D
:1047E700E0900AC4F0123FE19009EAEFF0900AC4A2
:1047F700E0700A9009EAE060047F0180027F0022EE
:104807007D037F2712B9887D037F2612B9467D0372
:104817007F2912B9887D037F2A02B988123742900F
:10482700000812810F900A31F090000912810F9051
:104837000A32F090000A12810F900A33F0900A3181
:10484700E0B44D10A3E0B4500BA3E0B43306A37457
:1048570001F08005E4900A34F0900AA3E070099013
:104867000A34E060031236EB900A34E0FF22E4904A
:104877000AB3F0900AB2F09000181284D3E49006BD
:1048870043F0A304F012C68612CF4F90001812848B
:10489700D39003DC128570129766129D6A900AC541
:1048A700EFF090002C123FAF7BFE7AFFF9F8C312AE
:1048B70083F8500221CB9003DBE0700312D7F2900C
:1048C7000AC5E0147002217224FC7002217B2405C2
:1048D70070C51123EF604D90002CE475F001128133
:1048E700D790002EE475F0011281D790096AE0B4E1
:1048F700013290096CE07002A3E0702831CE900974
:104907006CCFF0A3EFF090002EE0FFA3E090096ECC
:10491700CFF0A3EFF0900030E0FFA3E0900968CF5D
:10492700F0A3EFF0900030E07004A3E064016002B0
:10493700019E9007A5E064017002019E123742E9CB
:104947002408F9E43AA801FCAD037BFF7A00790556
:104957007E007F031287A2EF6002019E9007A504E5
:10496700F0FB7A0779A612983B019E900032E47516
:10497700F001804B12D90C900030E07004A3E06482
:1049870001700A31CE900036CFF0A3EFF012DB9B17
:1049970012DCACEF70037F0122900030E475F00168
:1049A7001281D7E4900032F0A3F090002EF0A3F02C
:1049B70012D711EF6002019E90003074FFF5F012DC
:1049C70081D7019E7F012290002CE0FFA3E02211F6
:1049D700239006D3EFF022900AC6EFF07E007F32D5
:1049E7007D007B017A0079061287C6900AC6E0909F
:1049F7000006F090000B12857CFFFFFFFF90000F71
:104A070012857CFFFFFFFFE4900AA2F0A35150122A
:104A1700388DEF7006900AA204800FE490096AF0BF
:104A27001175EF700C900AA27402F0A304F07F00D6
:104A37002290002CE07002A3E07006900AA2740393
:104A4700F0900AA37401F0FF22F090040E7402F0B4
:104A5700A3E4F02290073112857CFFFFFFFF2212AB
:104A6700C7F79003E7E0FF12636A9003E9715E51AD
:104A7700F9E4900797F012CEB812160312B7CA914D
:104A8700A54E700E900AA2E0640960037408F07FD7
:104A9700002251F012CD9251F0900404E02FFF90C4
:104AA7000403E03EFE900405E0FCA3E0FDC3900490
:104AB7000FE09DFD90040EE09CFC12CDA0515B9190
:104AC7000F7E271207DBB15612162F4005E47FC869
:104AD7008002E4FFFEFDFC7B017A07799B12B5B2E9
:104AE7009007357402F07F0122900405E0FEA3E0F1
:104AF700FF22900738E075F00AA424DAF974043528
:104B0700F0FA7BFF900A551285E690040CE06401E9
:104B17007044FF900A551285DD8F827583001281DC
:104B27000F2409900A58F0D394804004E4F0800CD5
:104B3700900A58E0C3940D4003740CF0900A58E0B3
:104B470090060193FE740D2FF582E43495F583EEFC
:104B5700F00FEFB40ABD22E0FEA3E0FFEEFA909C4F
:104B67000812857C01000000EAC3942750047B8D5E
:104B7700805DEAC3942D50047BB38053EAC3943617
:104B870050047B918049EAC3944A50047B95803F47
:104B9700EAC3945950047BB78035EAC3946D500437
:104BA7007BB9802BEAC3949450047B998021EAC394
:104BB70094B3501990966AE030E00E7B88909C0879
:104BC70012857C001A000080067BA380027B891275
:104BD7002044909C06E06B6013909C00E0547FF0AB
:104BE700909C06EBF0909C00E04480F0900ADEE099
:104BF7007015F18EC083C082E0FFA3E054FED0821F
:104C0700D083CFF0A3EFF0227B017A07792C7F10B6
:104C170022B146600B24FE601D14601A2404701C28
:104C27001210EB12CEB8F183910F7E271207DB909B
:104C37000735740280031217F5F0B14D229007353E
:104C4700E0B40204F19960037F012212BD13EF70F3
:104C5700117B017A07792C12B5E4EF7F01603E7F63
:104C67000022910F7E271207DB9003E7E0640170B3
:104C77002A91A54E7012900735F0900AA2E06409B8
:104C870060037408F07F0022900403E0FEA3E0FFB6
:104C970090040EE0FCA3E0FD12CDA07F01227B0172
:104CA7007A077968900403E0FCA3E0FD90040EE026
:104CB700FFA3E090047FCFF0A3EFF012A02AEF222A
:104CC70012BF3F900A65128570B10612B5E4EF7006
:104CD70018B15F6401600EEF64026009EF6406605B
:104CE70004EFB408E4914480E0900A651284D3127B
:104CF700B708B1067F2C1207D912A6C102BA257BC5
:104D0700017A0A792422900A931285E67FFF7EB002
:104D17007DB77CE190B10612162F401AB10612B585
:104D2700E4EF700512976680F312424D12B708B18F
:104D3700067F2C1207D9900A931285DD02AFD29015
:104D47000736E024FE22900735E090084FF022E472
:104D5700FFFEFDFC9003F322129766900AB1E0FF75
:104D670022B15F9006ADE06F601AEF64016013EF48
:104D77006402600EEF64066009EF64076004EFB435
:104D870008029144B1961208079006ACEFF022F1A1
:104D9700A4900AC9EFF0900945E0B40105F10F129C
:104DA700001A90093CE07002A3E060257B017A09B4
:104DB700793E12B5E4EF7007900AC9E0B42012F10A
:104DC700671207DB900AC9741FF0E4900945F0C128
:104DD700F8900AC9E0FFC394145002C166EFD39458
:104DE7001E507CF1236013EF6402600EEF640460D1
:104DF70002C1E5120E4D6002C1E5F12B900AC9E030
:104E0700FBB41E1BF10F7C007D0A128182ED4C6002
:104E170004120FDDF0F15D9009437401F0802590D5
:104E27000943E06011EB24ECFFE434FF90093C8F69
:104E3700F01281D78009900AC9E024ECFFF135E42C
:104E4700900943F0E4900AC9F07B017A09793E7F23
:104E5700D07E07FDFC12B5B2F10F12001AC1F8900F
:104E67000AC9E0FFC3942F407CEFD394395076F101
:104E770023600FEF6402600AEF64047074120E4D32
:104E8700706FF12BF167FDFC12B5B2900AC9E0FF14
:104E9700B43904F15D8006EF24D1FFF135F10F122B
:104EA700001AF1236004EFB4020FF17AD390093DA1
:104EB700E09F90093CE09E401D9009EEE0B4041E7F
:104EC7009008BCE0B40117D390093DE094329009F3
:104ED7003CE094005008900AC9743AF08013E490BB
:104EE7000AC9F0800C900AC9E06006120FDDF0F1E4
:104EF7002C900AC9E0FD600F7F01121508900AC9BE
:104F0700E0FDE4FF1215082290093CE0FEA3E0FF54
:104F17002290073112857CFFFFFFFF229009EEE008
:104F2700FF640122E4900945F0900944F022AB07A1
:104F3700F10FC394E8EE940350117C007D0A1281AF
:104F470070EB2FFFEC3E90093C8006AF0390093CC5
:104F5700E4F0A3EFF02290093CE475F00A0281D750
:104F67007B017A09793E7F887E13229006F3A3E0BE
:104F770024952290002CE0FEA3E0FF229007311237
:104F8700857CFFFFFFFF22909C06E0547FF09099FD
:104F970001227B017A07796812DB79EF22E4FF703F
:104FA7000D1253F49009EEE0B40C0312531A22B118
:104FB70046600304700E121547EF7005900735041D
:104FC700F01210EB22900A35EFF0F17A900A36EEE4
:104FD700F0A3EFF04E70030250D4900737E024FEA1
:104FE7007003025084240224FB50030250C9900A24
:104FF70035E0FFB4020D900A38740AF0E4900A35E0
:10500700F08012EF900A38B40308740AF0900A355A
:1050170080007401F0900A35E07032900A38E0FFA2
:105027007E00900767E02FFD900766E03EFCC39087
:105037000A37E09D900A36E09C9007665007E4F037
:10504700A304F0807DEE8FF01281D78075900A352A
:10505700E06401706D900A38E0F9FF90076631CA85
:1050670094005007900A3611D58053E9FFC3ED9F8E
:10507700FEEC9400900766F0A3CEF08045900A36C8
:10508700E0FEA3E0FFFBAA06E4F9F8900611123F41
:10509700A9EB2401FFE43AFE900766E0B5060AA3F0
:1050A700E0B507050FBF00010EC3900A37E09F90D8
:1050B7000A36E09E50047E007F01900766EEF0A35B
:1050C700EFF0900A35E0900739F012002022E0FF58
:1050D700A3E0900766CF22E490073AF0900798F094
:1050E70031BBEF6401706E90096AE0700C90079A0B
:1050F700F0900766F0A304805490096CE0FEA3E0EB
:10510700FFD39400EE9400406F90079A7401F090DB
:10511700002CE0FCA3E0FDD3EF9DEE9C4008900936
:105127006CE4F0A304F0900030E0FEA3E0FFD3901E
:105137000969E09F900968E09E4005E4F0A304F048
:10514700E490073AF090096C11D5F0A3EFF0E490E2
:105157000737F08023E490079AF090073BF0A30409
:10516700F0900766E4F0A304F0E4900737F09003AB
:10517700F312857C00000000E4900739F090002CC2
:10518700E07002A3E0700790073504F0FF221216C3
:105197000D121547EF70077D067F01121508E49081
:1051A700096CF0A3F090096EF0A3F0900968F0A3E2
:1051B700F07F01229006DBE07F00B45A027F0122D4
:1051C70090093CE0FCA3E0FDD39FEC22124F0FD3E4
:1051D7009432EE940040024160C35162E094034070
:1051E700299006F7E0FDFBD3EF9BEE9400400C906F
:1051F70006F5EDF09006F704F0800A90093CA3E06D
:10520700149006F5F0124F7280489006F6E0FF31D1
:10521700C7940040359006F7E0FF9006F6E0FEEFF2
:10522700D39E401774F72FF582E43406F583E0FB2D
:1052370074F82F120E45EBF01F80DF9006F5EEF0A5
:10524700A3E004F0A3E004F08006ED149006F5F067
:10525700516CFFA3120E42EFF022D39006F4E094B4
:105267006B9006F3229006F3A3E02408221214425F
:105277007F01227F5222C0E0C0F0C083C082C0D02D
:1052870075D000C000C001C002C003C004C005C083
:1052970006C00712C90BD007D006D005D004D0032B
:1052A700D002D001D000D0D0D082D083D0F0D0E0CF
:1052B70032C0E0C0F0C083C082C0D075D000C0004B
:1052C700C001C002C003C004C005C006C00712B9B0
:1052D700EB900A78EEF0A3EFF012B9E5900A78A305
:1052E700E05FA3F0D007D006D005D004D003D002EA
:1052F700D001D000D0D0D082D083D0F0D0E032E43B
:10530700FF12C99F12C9BD9006D8EFF022900898E6
:10531700E0FF229009CCEFF0BF011A90093BE0C3F0
:1053270094024002E4F090093BE004F0E0B4010588
:1053370071881207D7718812B5E4EF700E90093B98
:10534700E0B40107E49009CCF08030718812B5E42D
:10535700EF700E90093BE0B402079009CC746380AC
:1053670014718812B5E4EF601290093BE0B4010BA9
:105377009009CC7401F0E490093BF09009CCE0FF70
:10538700227B017A0979CD22900ACAEFF07D0112BA
:10539700B0157E00C006C00771E3D0E02DFFD0E056
:1053A7003400FEC006C00771E3D0E02DFFD0E03423
:1053B70000CF2402CF3400FE7C007D031281827E61
:1053C70004E4FDEDC39E5011ED9005FD93FCEFC382
:1053D7009C5003AF05220D80EA7FFF22900ACAE0A6
:1053E700FF7D0112B015EFFD227F05809B1227C6B6
:1053F70012B5E4EF7002FF221227C67F0A7E001261
:1054070007DB71F0900917EFF0A3E0146031146027
:105417005914700281A52403600281D7900917E00F
:10542700FEB4FF037F0022900916EEF07B017A0994
:10543700791E7F147E001207DB9009187401F09122
:10544700DFE06F600281D77B017A09791E12B5E42C
:10545700EF700281DC7B017A09791E7F587E021288
:1054670007DB9009187402F0806B91DFE0FE6F6034
:105477000B91FC24EDF582E43405804E7B017A091B
:10548700791E12B5E4EF604D91F11207DB90091810
:105497007403F091E824EEF582E43405802C91DF63
:1054A700E0FE6F600B91FC24F0F582E43405801A6E
:1054B7007B017A09791E12B5E4EF601991F11207A1
:1054C700DB91E824EFF582E43405F583E493FF22CA
:1054D700E4900918F07F0022900917E0FF90091661
:1054E70022900916E025E025E0227B017A09791E42
:1054F7007FC87E0022E4900918F0EE25E025E0221F
:10550700C2AFEFB4010E909630E04402F090962FB0
:10551700E054FDF0D2AF22900ACBEFF0D158900AB9
:10552700CBE0FFD13F900ACBE0FFB107900ACBE079
:10553700FFF15E900ACBE0FFD158900ACBD14F1212
:105547009001900ACBE0FFF175900ACBE0FFC2AF64
:10555700EFB4010790962EE054FDF0D2AF22900AE7
:1055670001122FDBEDF0A3EBF0A3B1B2700F7F0AAE
:10557700FE128AF8900A05B1B270028021900A02E1
:10558700A3B1B970028017900A04E064017019A3EF
:10559700E0FFB11E900A01E04401B1BA700A900A17
:1055A70005E0FFD1687F00227F0122E0FFB11E9056
:1055B7000A01E0FF900A05E0FDB1C4EF22900A7BE3
:1055C700EFF0A3EDF0FFA37408F0F15E802C900AD2
:1055D7007DE0FF14F0EF602B900A7BE030E707A334
:1055E700E0FFD1588007900A7CE0FFF175900A7BB5
:1055F700E025E0F0A3D14F129001900A7CE0FFB1C3
:105607005580CB900A7CE0FF900ACFEFF0B1559020
:105617000ACFE0FFD197900ACFD14F129001900A9D
:10562700CFE0FFF1B1EF7F0070027F01AE07900A74
:10563700CFE0FFB155AF0622C2AFEFB40107909696
:105647002EE04402F0D2AF22E0FFD13F7F127E006E
:1056570022C2AFEFB4010790962EE04401F0D2AF1B
:1056670022900ACCEFF0B107900ACCE0FFF15E90F0
:105677000ACCE0FFF1757F127E00129001900ACCF0
:10568700E0FFD13F900ACCE0FFD158900ACCE0FF71
:10569700C2AFEFB4010E909630E054FEF090962F13
:1056A700E04401F0D2AF22900A7EEFF0A37408F035
:1056B700E4A3F0D197900A7FE0FF14F0EF6027A3EF
:1056C700E025E0F0900A7EE0FFF1B1EF6007900A75
:1056D70080E04401F0900A7ED14F129001900A7E3B
:1056E700E0FFB15580CF900A7EE0FFF15E900A801F
:1056F700E0FF229009D21285709009D77404F090C8
:1057070009D6E0FFF15E803F9009D7E0FF14F0EF84
:10571700603E9009D21284D3E4FEFDEC5480FC90E5
:1057270009D66006E0FFD1588004E0FFF1759009C3
:10573700D21284D378011284329009D212857090E4
:1057470009D6D14F1290019009D6E0FFB15580B824
:105757009009D6E0FFC10FC2AFEFB4010E909630AB
:10576700E04401F090962FE054FEF0D2AF22C2AF92
:10577700EFB4010790962EE054FEF0D2AF22900AC4
:10578700CDEFF0F175900ACDD14F129001900ACD6F
:10579700E0FFA155900ACEEFF0D158900ACED14F35
:1057A700129001900ACEE0FFA155EFB40107909641
:1057B7002DE05401FF2290960CE04404F090960BE4
:1057C700E054FBF090960DE04404F0A3E054FBF0A6
:1057D700A3E054FB1247D190960BE054F7F0909654
:1057E7000DE04408F0A3E054F7F0A3E054F7F022EB
:1057F7009009FC1285E69009FFEDF09009FFE0FFA4
:1058070014F0EF6028A3E0FF1256AE9009FC1236A1
:10581700E4EF12813C9009FFE07008A3E0FF125704
:105827009B80D8900A00E0FF12578580CE7F012227
:1058370090097C1285E6E4900981F0900980E09058
:105847000A05F07B01125565900981EFF0BF011938
:1058570090097C1285DD90097FE0FDA3E0900A00A6
:10586700F01257F7900981EFF0900980E0FF125688
:1058770068900981E0FF22900A81EFF0E4A3F0A38A
:105887007408F0900A83E014F06017900A81E0FD35
:105897007C007B017A0A798290097F91C21137EFE8
:1058A70060E1900A82E0FF22E4FFFE11C87D807F5D
:1058B7004F7E0011C87F4F117EEFC313FD7F4F7ED0
:1058C70000900A49EEF0A3EFF0A3EDF0A37408F0FF
:1058D700900A4CE014F06018900A49E0FCA3E0FD40
:1058E7007B017A0A794B90097691C2B1FDEF60E0AE
:1058F7007F01227D81E4FFFE11C87F0A7E00128AA4
:10590700F8E4FD7F01FE11C87D017F157E0011C8F7
:105917007D087F167E0011C87D5C7F177E0011C849
:105927007D477F547E0011C87DC47F197E0011C852
:105937007D707F407E0011C87D9E7F337E0011C839
:105947007DD67F2D7E0011C87D107F437E0011C854
:105957007D397F477E0011C87D11E4FFFE11C87DA8
:10596700A97F1D7E0011C87D4011C47D0C7F347E48
:105977000011C87D337F357E0011C87D127F3691B7
:105987001CEF60047D308004B1C27D107F4A7E0029
:1059970001C8900AACEEF0A3EFF091617D709153CE
:1059A7007D527F2C7E0011C87D507F457E0011C837
:1059B7007DCA7F41911C117EEF54BFFF900AACE076
:1059C700FCA3E0FD64A67003EC64036024ED64AB04
:1059D7007003EC6403601AED64B97003EC64036050
:1059E70010ED64E67003EC64036006BC0409BD189F
:1059F70006EF4440FF8004EF54BFFFAD077F0191DE
:105A07001C3188900AACE0FEA3E0FF51277D1311FB
:105A1700AF7F327E00128AF87D707F497E0001C811
:105A2700900AA8EEF0A3EFF0E025E0FF900AA89116
:105A370045F091277F0891237F0991237F077E00F7
:105A470011C8900AA8E0FCA3E0FDEC5403FBEDAEFF
:105A5700047806CEC313CE13D8F9540C4BFB900A27
:105A6700A891E04B4440FBFD7F0A7E0001C8512707
:105A77007D1111AF7D12E4FFFE01C89009A6122F18
:105A8700D8EDF0A3EBF0E49009ADF09009ACE0603D
:105A97000271119009ABE0606C9009A7E025E0FF67
:105AA7009009A69145F0FD9009A9E025E0FF90092E
:105AB700A89145F07F08913B91597806CEC313CE44
:105AC70013D8F9540C4D9009ADF09009A8A3E0FD47
:105AD7007F09913B9009A891E0FFED4FFF9009AD39
