:10000000020413E1FB4D5646002232026C17000138
:10001000020322026C52220224E32280ED022F65A9
:1000200022223280FDE4C3FA90960AE04401F054A3
:10003000FEF0909609E0A2E2E492E02A23FA90967C
:100040000AE04401F054FEF0909609E0A2E2E49246
:10005000E02A23FA90960AE04401F054FEF09096CC
:1000600009E0A2E2E492E02A23FA90960AE0440131
:10007000F054FEF0909609E0A2E2E492E02A23FA1E
:1000800090960AE04401F054FEF0909609E0A2E256
:10009000E492E02A23FA90960AE04401F054FEF03C
:1000A000909609E0A2E2E492E02A23FA90960AE010
:1000B0004401F054FEF0909609E0A2E2E492E02AB6
:1000C00023FA90960AE04401F054FEF0909609E07D
:1000D000A2E2E492E02AFA90960AE04401F0EAFFF4
:1000E000227808EF33FF90960AE092E154FEF090F8
:1000F000960AE04401F0D8EB229003F30284D32265
:100100000000220000220000220000220000220045
:100110000022000022000022000022000022000035
:100120002200002200002200002200002200002203
:100130000000220000220000220000220000220015
:10014000002200002202709600002200002200001F
:1001500022025051025FDB021F78000022000022C1
:10016000000022000022000022025611000022009E
:100170000022000022000022000022000022023C97
:10018000140000220272EB0000220000220273E63B
:100190000000220000220271F9000022000022006B
:1001A00000220000220000220000220000220000A5
:1001B0002200002200002200002200002200002273
:1001C0000000220000220000220000220000220085
:1001D0000022000022026ABB0271E6026FA902350A
:1001E000C40268830000220000220271AA0271A1E9
:1001F0000000220000220000220000220000220055
:100200000022000022000022000022000022000044
:100210002200002200002200002200002200002212
:100220000000220000220263A402708D0000220060
:100230000022000022000022000022000022000014
:1002400022023E2D00002200002200002200002297
:10025000000022000022410AB400410AAE00420A16
:10026000AF0000420AB10000410AB3004109D800C2
:100270004109D7004109E3004109D500410B7B0149
:10028000410B7900410B7A00410BA100420A0B009F
:1002900000420A090000430A0DFF0600430A06FF58
:1002A000060F430A03FF061E4109CD004209D30091
:1002B000004409C30C020307410A3D00410A3E0005
:1002C000410A3700410A3600410A3400410A35002C
:1002D0004209BC00004209BA01064209B5000042C9
:1002E00009B301084309BEFF062C4309B7FF063BCB
:1002F0004309B0FF06484209AE00634209C10063EA
:10030000410BA601410BA702410BA9004107610067
:1003100041075F0041076200410773004406F9FF8F
:10032000FFFFFF4106F30041098F014409820000ED
:100330000000420980006444098B00000000410A6B
:100340006D00420A6E0000420A700000420A6A0014
:1003500000410A6C00410A6900410A1900420A1171
:100360000000410A1A00410A1B00410A1301410A18
:100370001000410941FF41094200410943FF45097D
:1003800005000000000041091B00410BB1024108BB
:100390006900410902004109030041099B0041092C
:1003A0009C00410BB300410BB20152084C120110EA
:1003B0000100000040000002021000010203014C95
:1003C000079300000008001DC3FF03000200480758
:1003D00081001DC3FF000002004C07740B000008E1
:1003E00000020000000002004D07E0555342530890
:1003F00070BA840000000000420BB603E8410AA175
:1004000000420AA401F4410A9E00410BB901410BCC
:10041000B80100125F74787FE4F6D8FD126BE2EF4A
:10042000FD9006D96003A3DFFD7F277E11C3EF9DFA
:10043000FF50011EE4F0A3DFFCDEFA75810B125FB2
:100440000F02047F0228D8E493A3F8E493A34003A7
:10045000F68001F208DFF48029E493A3F85407241E
:100460000CC8C333C4540F4420C8834004F45680DE
:100470000146F6DFE4800B01020408102040809062
:100480000256E47E019360BCA3FF543F30E509545B
:100490001FFEE493A360010ECF54C025E060A84086
:1004A000B8E493A3FAE493A3F8E493A3C8C582C87D
:1004B000CAC583CAF0A3C8C582C8CAC583CADFE952
:1004C000DEE780BEBB0111F8E58229F582E5833ABB
:1004D000F583E0C828F0E8225009C58229F8C582D2
:1004E00026C622BBFE0DC58229F8E2C5822582F20E
:1004F000E58222EA2583F583E99322BB010FF8E523
:100500008229F582E5833AF583E028F0225009C577
:100510008229F8E58226F622BBFE09C58229F8E287
:100520002582F222F8EA2583F583E9932822F8E070
:10053000FBA3A3E0F925F0F0E58215827002158394
:10054000E0FA38F022D083D082F8E493701274017C
:1005500093700DA3A393F8740193F5828883E473D9
:100560007402936860EFA3A3A380DF555342430056
:10057000008002021F0000004D5653490000000099
:10058000436172642052656164657200000000007E
:1005900056312E3003000000700002000000000AF7
:1005A000000000003A00000000007000050000009C
:1005B000000A00000000240000000000ED030354C6
:1005C0003FFD8E838F82E090A621E0F88E838F829C
:1005D000E090A621E0FB8E838F82E090A621E0FCD4
:1005E0008E838F82E090A621E08A838982C8F0A35F
:1005F000EBF0A3ECF0A3E8F0A3AA83A982DDC32269
:100600004D5653494C49434F4E2E494E432E004DB3
:100610005620434152442052454144455200323015
:100620003131303930313132333435004D56534960
:100630004C49434F4E2E494E432E004D56205553A4
:100640004220415544494F00323031313039303148
:100650003132333435008F828E83ED7004EC600BC1
:100660001CE06455F0A3DDF902065D2246415431D9
:10067000360000000004030904090287000301009A
:1006800080FA0904000000010100000924010001B2
:10069000280001010C2402010101000203000000F6
:1006A0000A240602010101020200092403030103D6
:1006B0000002000904010000010200000904010118
:1006C0000101020000072401010101000B240201C5
:1006D0000202100144AC0009050409C00001000039
:1006E00007250101000000090402000103000000C9
:1006F00009210102000122210007058303400001B6
:100700000902200001010080FA0904000002080625
:100710005000070581024000010705020240000168
:1007200009029E0004010080FA0904000002080684
:100730005000070581024000010705020240000148
:100740000904010000010100000924010001280042
:1007500001020C24020101010002030000000A242E
:100760000602010101020200092403030103000241
:100770000009040200000102000009040201010155
:10078000020000072401010101000B240201020202
:10079000100144AC0009050409C000010000072550
:1007A0000101000000090403000103000000092109
:1007B0000102000122210007058303400001050C0E
:1007C0000901A1011500250109E909EA09B509B6E0
:1007D00009E209B309CD09B7750195088142C02E18
:1007E0002C2A2927262423211F1E1C1B12C94690B0
:1007F000060FE0900610F0227F00223222FFFFFF5A
:03080000140108D8
:100807000254F705320007D001F4006401F400C870
:10081700320AC350271007D014503C140A1E140084
:1008270000000000000000000002FAFCFDFEFCFAD8
:10083700FA0202FF02FFFDFAFAFAFDFF0202FFFFCA
:100847000002020202FDFAFAFF0200FF00020201A3
:10085700FFFEFAFEFEFEFCFAFE02FE02FFFFFDFAB5
:10086700FAFAFA0202020101FFFEFEFEFDFDFDFAA1
:10087700FAFF010202020202FFFD02020202020265
:10088700FD0202FFFAFF020202020202020000005A
:100897001A001F0024002A0031003A0043004E00CE
:1008A7005B006B007D009300AD00CC00F0011A01E6
:1008B7004C018701CC021D027C02EC0370040B047F
:1008C700C20599069607C0091E0ABA0C9E0ED85A89
:1008D700A55FA05EA15DA25CA359A65BA400000072
:1008E7000000000000000000000000000000000001
:1008F70000000000000000000000000000000000F1
:1009070000000000000000EAF6E9F3E7A1F7E3A51D
:10091700BDADB5BAB9BBE6B8F2F8BFBC0000000080
:10092700000000E9EDEFFBFAF9F7F6F5F3F2F1FF56
:10093700FDFEEEE7E6E5EBEA00000000000000FA46
:10094700F9F7F3F2F1EFEEEDEBEAE9E1E5FFE7FEA8
:10095700FDFBF6F501020304E100000000000000C2
:100967000100000014640000585A590007000000F5
:100977000600000065651200666613003F3E3A36C2
:1009870033302D2A272523211F1D1B191715131156
:10099700100F0E0D0C0B0A0907060402013F3E3A21
:1009A7003633302D2A272523211F1D1B1917151410
:1009B700131211100F0E0D0C0B0A090807069006EB
:1009C700D7EFF0E01313543FFF12B87512583A905F
:1009D70006D7E01313543F25E025E0FF1207EC90FC
:1009E7000AF17401F02274FFFFFE12B83F125CE4B3
:1009F7007F0112B8757F011207ECE4900AF1F0024B
:100A07009766900B8FEDF0900B8EEFF0641D6004EE
:100A1700E0B41E037F0022900BB0E07002FF22902B
:100A27000AF3E0900B90F012CECF126AC3900AF24D
:100A3700E0B40402F1D331F4900B8EE0FF1230FEE4
:100A4700123191EF600512976680F5127031900BA5
:100A570090E0900AF3F0900B8FE0600612703D1261
:100A670017F27F0122E4900B82F0A3F07F01125D61
:100A7700959006FEEFF0900760E0602B9006FEE091
:100A870070257B017A07796E12B5E4EF60191220A1
:100A970040EF700E900701E07D06B401027D07125A
:100AA7002432E4900760F09006FDE064067002814E
:100AB700E5A3E01205450BDE060BEA070B6A0C0BF4
:100AC70000120B2A130BBC150C4C210C0B260C0B1C
:100AD700270C28280C28290C0B2A0C282B0BDE2C7A
:100AE7000BEA2D0BA12F0B57300C4C3C0CB6630BAC
:100AF70000650B2A6600000CE5121FC55006900B17
:100B070083121FBF9006FEE06465600281E5121F35
:100B1700EF600281E5900B83E0600281E57D017F54
:100B270015802912182C4006900B8212193790064F
:100B3700FEE06466600281E5900AF3E0600281E509
:100B4700900B82E0600281E57D017F16510981E506
:100B57009006FFE0B40304E4F080389006FF7403C6
:100B6700F080309006FFE0700404F08005E4900602
:100B7700FFF09006FFE0B4040B9007027401F090B9
:100B870007328008E4900702F090073012763FF0B2
:100B9700126CDB7F01126DDE81E5900700E004F047
:100BA700E0C3940B4002E4F0126144126CDB7F0156
:100BB700126DE481E5900AF4E060119006FDE0B45F
:100BC70002047D018002E4FD7F1B8004E4FD7F1A9F
:100BD700510912198881E5B1D5500281E5B1B6E412
:100BE700FF800AB1D5500281E5B1B67F01126BDAF9
:100BF7007B017A07796E7FE87E03FDFC12B5B29020
:100C07000760803CB1D8500281E5B1B67F02126B14
:100C1700DA122040EF600281E51221A49006FD80E0
:100C27001FB1D8500281E5B1B67F03126BDA1220EB
:100C370040EF600281E57D077F011221A89006FD44
:100C47007401F081E51249D290002DE09F90002CAD
:100C5700E09E402E1270CF4029900702E07023904B
:100C6700072EE06E7003A3E06F6017B1B6900A110C
:100C770012763FF0122356122040EF70057D0612C0
:100C87002432126BECFF900A11126BE59FEC9E4029
:100C970011D3ED9400EC94004008D1097FE87E035E
:100CA7008006D1097F007E00F1CC122356802F9059
:100CB7000869E0B40128E4900B84F09006FDE0B4E5
:100CC700020912626B900B847401F0124C61900858
:100CD700697402F0900B84E0B401031220FE1277CE
:100CE700416016900762E0701004F0FB7A077963A1
:100CF70012760E9007737401F09006FDE0B4020CB3
:100D0700900762E06006E4F0900773F0900773E0E5
:100D1700602812774812B5E4EF601F127741600F21
:100D27001228D1E4FD7F1B127654125869800BE418
:100D3700900773F0127748121FE89006FDE01460E1
:100D47001124FE600804700D1220FE800812626BE9
:100D5700800312202B9006F3E0600D127081EF6084
:100D670007E49006F3F080279006F3E070211270F5
:100D770081EF701B9006F304F09006FDE0B4020FBC
:100D87001200F9EF2401FFE43E1237C4126CD512AA
:100D970000F99006F9121B9D601412624C121B7C1D
:100DA700400C1200F99006F9128570126CDB2212C2
:100DB70020F712A68F9003F312857C000000001223
:100DC7002436E4FDFFF1D77F647E00028AF8125BC8
:100DD700A4D390002DE0940190002CE0940022E031
:100DE70054FDF0E054DFF0E054FBF0E054BFF0E0D6
:100DF7004401F0E04410F0E4FDFFD189E4FD7F01F8
:100E0700D1897B017A09791622122F09600D1460A6
:100E17002724FD24FD504524087061F14A90091DDF
:100E27007008B1E67FE87E038050F154D1847D01DC
:100E3700D1057F007E008042F14A701590091D128E
:100E470057D954BFF07D01E4FFD1077FE87E0380C7
:100E5700091276B0D1077F007E00801EF14A70111B
:100E670090091D12768EE4FDFFD1077FE87E03808F
:100E7700091276B0D1077F007E00F1CC22F07D0108
:100E8700E4FF900BAFEDF0900BAEEFF07010A3E026
:100E97007D017F01600512B988800312B946900B66
:100EA700AEE0B4010EA3E07D207F0A600302B9889B
:100EB70012B9462212233C6005EF6402704A12778A
:100EC70041700B90091DB1E67FF47E0180389006D2
:100ED700FDE0FF64016005EF64037010F151F0124B
:100EE7002FE97D01D1057F007E00801A9006FDE085
:100EF700600464067012F151D1847D017F01D189AC
:100F0700D1097F007E00F1CC22900AF2E0640370E1
:100F170031F14A700E90091DF0F154B1FD7FF47E56
:100F270001801DE490091DF0E054FDF0E054DF124C
:100F370057D954BF12768E7D01E4D1007F007E0021
:100F4700F1CC22900AF4E064012290091DE054FDDF
:100F5700F0E054DFF0E054FBF0E054BFF0E054FE63
:100F6700F0E054EF22900AF2E0FF6406600AEF64B3
:100F7700076005EF64087048900AD4E0B4010B12CB
:100F870076B0D1077F007E008034900AD4E06402F7
:100F9700702EFDFFD189E490091DF0900AF4E090CE
:100FA700091DB4010B12768FD1097FE87E03800EED
:100FB700E04404F0E04440F0D1097FF47E01F1CC35
:100FC700227F007E007D007C0002B5B27D017F019B
:100FD700900BBEEFF0ED6401700612297312B98809
:100FE700900BBEE0B4011C12172A900AF2E0B4037A
:100FF70005E4FF121019900AF2E0B40C0EE4FF1199
:10100700198008E4FDFCFFFE1239CA900AB4740186
:10101700F022900BC4EFF01230269009D7F0900B16
:10102700C4E0F0FF9009D8E0B50706B1F2700221DD
:1010370058900BC4E0701671D2600271EFB1EB608B
:1010470002918A71CB7002214831592148900BC413
:10105700E0FF54096036B1EB6007EF54247002914A
:101067008A71CB601FF1EA701BEF54C070169009AC
:10107700D8E0541260043159800A9009D8E054C06E
:101087006002B15971D2640960029134F1EA602DAE
:1010970071D26007EF5409700271EFB1EB600A90EB
:1010A7000BC4E054247002918A71CB600BE0541298
:1010B700FFB1F26F60023159B1F2FF510C900BC4CE
:1010C700E0FF5424601C71D26007EF54097002716D
:1010D700EF71CB600BF1EA7007EF54C07002315922
:1010E70091D2900BC4E0FF54C0605671D26007EFF5
:1010F7005409700271EFB1EB600A900BC4E05424FD
:101107007002918A71CB6006B1F27002315971CBCE
:10111700FFB412047FC0800EEFB402047F40800644
:10112700EFB410027F80EFD39400400B900BC4E024
:1011370054C06F6002B159900BC4E054C0FF12381D
:1011470038900BC4E0FF9009D8E06F6002EFF0D150
:101157008C227F011227EBF1A95004AF0680009083
:101167000BC2EFF0909C41E09009E2F0909C42E0C6
:101177009009E5F0900BC2E0C394405013129766B4
:10118700900BC212774F9102900BC2E004F080E4FB
:10119700917D909C4FE0549F31EB31D8909C4FE06C
:1011A70054E731EB909C4CE054FCF07F147E003107
:1011B700F012001A71C2EFF47002EEF4601271C2FD
:1011C700EFF47003EE64FE6007909C48E04401F082
:1011D70022909C49E054EDF07F027E0031F0909C14
:1011E7004FE054F9F07F027E00900B9AEEF0A3EFE8
:1011F700F0900B9A12668245F06009129766910289
:10120700910280ED22900B73EFF0909C4E71E79066
:101217009C4DE0543F900B75F1D17002EEF46012D3
:1012270071C2EFF47003EE64FE6007909C48E054CF
:10123700FEF0909C4CE04403F0909C41E4F0A3F056
:10124700909C4FE0441831EB909C4FE0440131EB08
:10125700909C4FE0440631EB909C49E0441231EBFF
:101267007B017A0979DB7F107E27120FCC9009D595
:10127700E06002613B909C4BE020E058909C4BE083
:1012870030E0026135F1B66002613571C2EFF4708A
:1012970002EEF4600B71C2EFF47003EE64FE70228D
:1012A700900B74E01471D9909C4EE07023ED643F6D
:1012B700607C900B747440F0A3E025E0F04401F0EB
:1012C700800E900B74E014909C4EF071E7E0605E26
:1012D700F1E480A8909C4BE030E053909C4BE030C9
:1012E700E04CF1B6704871C2EFF47002EEF4600B97
:1012F70071C2EFF47003EE64FE701F900B74E0048C
:1013070071D9909C4EE0643F7020ED6021900B7482
:1013170074FFF0A3E0C313F08010900B74E0049007
:101327009C4EF071E7E0643F6004F1E480AD900902
:10133700D57401F031D8909C4FE054FE31EB127612
:101347004B909C4FE0440631EB909C49E0441231AE
:10135700EB909C4FE0446031EB1200099009D7E015
:101367007003F1D7F091841239BD5004AF068000A5
:10137700900B75EFF0900B74743FF0900B75E0FFD6
:10138700900B74E0D39F402A1239B5FF900B74E09D
:10139700FEC39F4005909C41EEF01239AD9F400877
:1013A700900B74E0909C42F09102900B74E014F063
:1013B70080C99009E2E01239A1F02290966BE0FE15
:1013C700A3E0FF22909C49E0541222909C49E054EC
:1013D7000922909C4EF0900B75E0FD909C4DF0A378
:1013E700E0543F900B74F022F1C4917D909C48E04B
:1013F7004422F1A154F6F18E4411F012B8A0EFFD8A
:101407007C007E017F90128182EF2401FFE43EFE83
:10141700909904E020E00BEF7802CEC313CE13D8E7
:10142700F9FFEF1FAC0670011E4C70F622909C432B
:101437007403F0A3F1A14409F18E54EEF18E54DD4B
:10144700F0910271C2EFF47002EEF4600871C2BE4F
:10145700FE0ABFFF07909C4374028005909C43746B
:1014670001F0A3F01277A67004F1D7918312779653
:101477007F507E0021F0909C48E04444F07F0A7E34
:101487000021F0F1A95004AF068000900BC1EFF0E6
:10149700909C41E09009D9F0909C42E09009DAF0E5
:1014A700900BC1E0C394405013129766900BC11282
:1014B700774FF1DE900BC1E004F080E4917D909CC2
:1014C70049E054DBF07F037E0021F012764BF1A256
:1014D7004424F09102909C47E04403F07FF47E019E
:1014E70031F0909C47E054FCF01277A67003F1D7D7
:1014F700F09184F1A95004AF068000900B9CEFF0A7
:10150700A3743FF0900B9CE0FFA3E0D39F403212FF
:1015170097669009D9E0FF900B9DE0FEC39F4005B9
:10152700909C41EEF09009DAE0FFEEC39F400890EF
:101537000B9DE0909C42F09102900B9DE014F0808F
:10154700C39009D9E0909C41F09009DAE0909C4261
:10155700F0221239BD5004AF068000900BC3EFF0A4
:10156700900BC3E0D3943F502B129766909C49E0B1
:1015770030E108900BC3E0909C41F0909C49E0302B
:10158700E408900BC3E0909C42F031EC900BC3E071
:1015970004F080CC909C49E030E107909C48E044FF
:1015A70004F0909C49E030E407909C48E04440F008
:1015B7009184909C49E030E1031248AB909C49E04C
:1015C70030E4031248A331EC909C49E030E104E099
:1015D70054FDF0909C49E030E404E054EFF07F02C2
:1015E7007E0021F0909C49E0542422900BC4E054E3
:1015F7001222900BC0EFF0F19644809183909C45A6
:10160700E054FA9183909C46E0547F9183909C46E6
:10161700E054DF9183909C46E054EFF0900BC0E0DC
:10162700FF1276B9120FCC909C4BE020E305F1B680
:1016370060F52222AE07122FFB909C46E04410F083
:10164700AF061276B9120FCC909C4BE020E204F162
:10165700B660F5F1964480F07F01F1984420F0914F
:1016670002909C45E04405F09102909C46E0547F2F
:10167700F0F1DE909C49E054BFF09102E49009E359
:10168700F09009D8F09009D6E07016126689C083E9
:10169700C082E0FFA3E054FED082D083CFF0A3EF57
:1016A700F022AE079009E3E07078122FFBAF06B186
:1016B700F9909C00E4F0909C49E04440F0910212BC
:1016C70048EB7481F0909C0014F1D17002EEF46045
:1016D7000871C2BEFE0DBFFF0A909C437402F0A3BF
:1016E700F0800D909C437401F0A3F0909C4AE4F0C5
:1016F700909C04E4F012779E7411F09009E2740A4A
:10170700F09009E5F01239A1F0E49009D8F09009BA
:10171700E304F0909C01E04403F07F327E0031F057
:10172700D18C22123026FFBF4402805971D2600249
:10173700F1C4B1EB7005E05412603EB1EB600AF101
:10174700A95004AF06800B80091239BD5004AF06BB
:101757008000900BC5EFF0900BC5E0C3943F501687
:10176700129766900BC5E004F0E0543F909C41F05F
:10177700A3F0910280E112764B1230296444600590
:10178700E04444F1CAC18CF09102909C48E0227F6A
:10179700647E0031F0909C46E022F09102909C49D3
:1017A700E0229009DAE0FF9009D9E0FEC39F2212F8
:1017B70097667B017A0979DB12B5E4EF22909C01E9
:1017C700E04403F07F507E0021F0F071C2EFF42275
:1017D700909C48E054BB227F017E0021F07F057E6C
:1017E7000021F0900BC4E0FF541222900AF3E0604E
:1017F70033900AB4E064017019900AF2E0B4030868
:101807007FC012101912686F900AF2E0B40C03122D
:101817007046123030112C400612297312B946E473
:10182700900AB4F022900AF3E0D3940022E4900BDC
:1018370092F0A3F0311EEF601290099DE0700C0446
:10184700F0FB12760A90099C7401F0311EEF7017B5
:1018570090099DE06011112C400DE490099D3129FC
:10186700F1E8E490099CF090099DE0600812297363
:1018770012B98880031217F2312A12B5E4EF6028F3
:1018870090099CE06022311EEF6015122F5912B9A2
:10189700881228D1E4FD7F1B1276541258698008FC
:1018A700E490099C3129F1E87B017A0979A412B502
:1018B700E47F01125D95900B91EFF024ED603024E9
:1018C700AE60071460292454704CF1C55005900B85
:1018D70093F1BF900B91E06465703BF1EF70379027
:1018E7000B93E070317D017F1531AB702980241196
:1018F7002C4005900B923137900B91E0B46617900E
:101907000AF3E07011900B92E0700B7D017F1631A6
:10191700AB70031217F222E4FF12706630E7027F02
:101927000022F07B017A09799E2290099DE0FF222F
:101937007401F0E4FFEFB40109F1C5500CE004F0C5
:101947008007112C4003E014F0900AF3E0B4201252
:101957007D017F15124692B40C083131EF700312E6
:1019670017F2900AF3E070127D017F16124692B4C7
:101977000C083131EF70031217F2F1F67F01020004
:1019870012900AF4E06007E4F01217F2800B900A55
:10199700F47401F0FDFF120FD790091BE0B40103A7
:1019A700120E1022120A093131EF227F01125D95C2
:1019B700900B7CEFF0E4A3F0A3F0EF14605724EE54
:1019C700603024FE604F24B06007146025245470F3
:1019D70046F1C55005900B7EF1BF900B7CE0646526
:1019E7007035F1EF7031900B7EE0702B7D017F1524
:1019F7008020112C4005900B7D3137900B7CE0B493
:101A07006615900AF3E0700F900B7DE070097D0179
:101A17007F16020A09318822900BAAEFF0E4A3F09F
:101A2700D3900981E09400900980E09400402290CF
:101A370009821284DFC000C001C002C0031248F34C
:101A4700E4FCFDD003D002D001D0001249C91276C0
:101A570098900980E07002A3E0600261497B64FA14
:101A6700F9F89009821284D312835890098B128552
:101A770070900980E4F0A37464F0A312857C0000E1
:101A87000000E47F107E0E7177400890097A740297
:101A9700F08019E47FAC7175400890097A7404F0FE
:101AA700800A7172400690097A7405F071724014C9
:101AB700E47FAC7E0DFDFC90098B719D500690096B
:101AC7007A7405F0900BAAE0B4010A71725006907F
:101AD7000BAB7401F0900BAAE0700A71735006907B
:101AE7000BAB7401F0900BABE06401705590097A71
:101AF7007406F012001612976690098FE0602DE4C5
:101B0700F07B017A0979867F107E27FDFC12B5B23A
:101B17007D017F0F120A09127778900AF2E0640CB0
:101B270070203131EF701B1217F280167B017A0992
:101B3700798612B5E4EF600AE4FD7F0F127654123E
:101B47005869020016125D2B600D24F7600E240AF7
:101B57007018123ABA800812686F800312704B7BB4
:101B6700017A0679DD7D01122BF622E47F487E0D8E
:101B7700FDFC90098B1284DFD302840E128358ACCC
:101B870000AD01AE02AF039009F01285709009F025
:101B97001284D39009EC1284DFC302840E9006D816
:101BA700E0FF64086007EF6420600281657B017ACB
:101BB7000A79607FAC7E0D120FCC7B017A0A7960BF
:101BC70012B5E4EF707B129766127221900A6512C4
:101BD70085707F807E7F7DA57C5A900A65719D60A8
:101BE7005A7F807E7F7DA07C5F900A65719D604BE8
:101BF7007F807E7F7DA17C5E900A65719D603C7FC2
:101C0700807E7F7DA27C5D900A65719D602D7F80BF
:101C17007E7F7DA37C5C900A65719D601E7F807EC0
:101C27007F7DA67C59900A65719D600F7F807E7FBE
:101C37007DA47C5B900A65719D7006125E920277A7
:101C47008E125E647F0912B9ACEF20E60C7F0A7E24
:101C570000128AF812976680EB7F0112584D229086
:101C670009E7EDF0A31285E69009E6EFF090053E4F
:101C7700E0FEEFD39E50149009E6E0C39401400BB9
:101C8700900545124D766003EE70037F00229009A0
:101C9700E6E0149009EBF09009E7E0FF90054512A4
:101CA70085DD9009EBF1D6EF12814E9009E8128598
:101CB700DD12BF3FF1B99009E7E064036002A1E6D6
:101CC700A3F17112810FD39406400312BE90F168FD
:101CD7009009F0128570D17F78009009F01284D3B3
:101CE700128358EF2402FFE43E1237C4E47B07FA5D
:101CF700F9F8128358AF039009F4EFF09009E8F16F
:101D07007112810FFEC39F4015EEFF9009F4E0FDAD
:101D1700EF9D127768FDD17FF81282CD8029900957
:101D2700E8F17112810FFF9009F4E0C39F12776801
:101D3700FDD17FF81282CDC374809FFF743A9EFE57
:101D470074099DFDE49CFCC006C007D18690000184
:101D5700D007D0061284AFD186D19DC003C002C080
:101D6700011284459009F0123246D001D002D00307
:101D7700128495D1791276A2F1B99009F0D17C78C5
:101D87000071839009EBE075F006402BD18DD19D52
:101D9700C003C002C001128445C004C005C006C00C
:101DA7000712772ED1AEF1E1AB07D007D006D005E9
:101DB700D0041282B2807DD18DD19DC003C002C0F4
:101DC70001128445C004C005C006C007D1A5F1E1D2
:101DD700AB07D007D006D005D0041282BF8055903C
:101DE70009E7E064027058D1791276A2F1B9D17F80
:101DF7007800F1687183400712772ED1AE8012D137
:101E0700A5C374809FFF74519EFE74019DFDE49CE1
:101E1700FCC006C007D186900001D007D006128407
:101E2700AFD186D19DC003C002C00112844590B1D5
:101E370006123246D001D002D00312849580259035
:101E470009E7E0B4011EF1689009F0128570900966
:101E5700EC1284D3C006C007D186900001D007D00A
:101E6700061284AF9009E6E0FF12C1CB12BA257FB4
:101E770001229009EC1284D37B807A517901229058
:101E870009EBE075F006A4FF9005451285DDE92F03
:101E9700F9EA35F0FA22E92401F9E43AFA2290093D
:101EA700EC1284DF9009F01284D30282BF900B1FDB
:101EB70012857C00000000E4900B1EF090053EE0C8
:101EC700FF900B1EE0FEC39F4002E165EED18A90B2
:101ED700000512810F6401707DF1CD12810FFBB4F3
:101EE700020FF168EF2480FFEE3451FEED340180DC
:101EF70011EBB40313F168EF2480FFEE343AFEEDE3
:101F07003409FDE43CFC800AF1CD12810FB40108CD
:101F1700F168900B1F128570900B1ED189900001FC
:101F2700128465900B1F719D6025900B1ED189123D
:101F370076C7124157C312840E6014900B1ED189C5
:101F47001276C7EF24FE12415AC312840E7007900F
:101F57000B1EE004FF22900B1EE004F0C1C37F00BC
:101F67002290B1060284D390069D1285DD9000046D
:101F770022A2AFE433900BC8F0C2AFF16E12810F0B
:101F8700701D1284451237DF900611D1AEE4FBFABB
:101F9700F9F8C31283F85007F16E740112814E905D
:101FA7000BC8E024FF92AFD080D080F16E12810F72
:101FB700FF229009EC0285707401F0FF213C900A22
:101FC700F3E0C39420229005451285DD900B1EE0B7
:101FD70075F006A4F58285F08322A804A905AA0650
:101FE70022FFFEFDFC02B5B2900AF3E064202271E5
:101FF7004C900AF3E07010900AB4E0700A900AF46B
:10200700F07D01FF120FD7900AB4E0B4010912184E
:102017002C4004A37401F0900AF4E0B40105E4F045
:102027001217F222F1E4600304700D1140EF7005FE
:102037009006FD04F0121FF6227B007A00790090CB
:102047000B7F1285E6E4900760F0900702E07013BB
:10205700715E90072FE09F90072EE09E4005E4F009
:10206700A304F0900B7F1285DD9005131285E6908F
:10207700072EE0FFA3E0900516CFF0A3EFF011F7CE
:10208700129C6BEF7007900BA8740580287B017A70
:1020970007793F7D0B122E1F900A6DEFF07B017AB7
:1020A7000679DB7D18122BF611F712CEE6EF7009D1
:1020B700900BA87407F07F00229003F312857C0031
:1020C700000000900768E0601DE4F0126CB990030F
:1020D700EF1284D39003F3121B9D400A9003F3126F
:1020E700857C000000001260AEEF7F017001FF22C7
:1020F7007B017A0779302211F712DB79EF6006123C
:10210700CEB0EF70129006FFE0640370237F0A12CF
:10211700624E121B7C4019120DB69006FFE0640157
:102127006005E4FF126ACE1140EF700431A48043CA
:102137007B017A07796912B5E4EF6018900AF4E039
:10214700701290075FE0700C1217F2123ABA9007FC
:102157005F7401F0126295EF701B120DB6900701C4
:10216700E0FF64026003EF70047D0680027D077F55
:102177000131A88136F1E4600B24FE601814601564
:102187002404701812CECF126AC39006FD7403F0B0
:10219700125E6B80041263D6F0126694227D067F6E
:1021A70001900B38ED125EA1C3940840037F002213
:1021B700900B38E0FFA31285DD9000017401120433
:1021C700C4FD1280F62DFD7C00ED5407FD900B3900
:1021D700125E87E92DF9EC3AFAEF12813C7F012272
:1021E7001245B2900BD6EFF0600B7B0112760A1204
:1021F700774812760E900A1BE0B401027144900AE8
:1022070011E07002A3E06025713512B5E4EF7007A5
:10221700900BD6E0B4221671357F887E13120FCC4F
:10222700900BD67421F0E4900A1BF0611F900BD637
:10223700E0FFC394164075EFD39420506F713C6054
:1022470007EF64026002610D714DF0900BD6E0FB61
:10225700B42020900A11E0FEA3E0FF7C007D0A1263
:102267008182ED4C60027156127724900A1974012D
:10227700F08026900A19E06011EB24EAFFE434FFAE
:10228700900A118FF01281D7800A900BD6E024EACA
:10229700FF1249DCE4900A19F0E4900BD671347F01
:1022A700D07E07FDFC12B5B27144806C900BD6E06E
:1022B700FFC394314057EFD3943B5051713C6005B5
:1022C700EF64027053714D71347F887E13FDFC12E9
:1022D700B5B2900BD6E0FFB43B051277248007EF29
:1022E70024CFFF1249DC7144713C6004EFB402163D
:1022F700715E900A12E09F900A11E09E5008900BC1
:10230700D6743CF08012E4900BD6F0800B900BD67D
:10231700E060057156714EF0900BD6E0FD600D7FC1
:102327000131A8900BD6E0FDE4FF31A822F07B0134
:102337007A0A791422900AF2E0FF640122900A11C6
:10234700E0FEA3E0FF22E4900A1BF0900A1A22E4C1
:10235700900A11F0A3F02290002CE0FEA3E0FFD337
:1023670022E4900702F0900760F0126CADEF640171
:102377007061900A6CE0700C900768F090072EF07F
:10238700A3048047900A6E71619400EE9400406642
:102397009007687401F090002C126BE5EF9DEE9C9E
:1023A7004008900A6EE4F0A304F090003071619049
:1023B7000A6BE09F900A6AE09E4005E4F0A304F0F0
:1023C700E4900702F0900A6E12763FF0E49006FF61
:1023D700F08023E4900768F0900703F0A304F090DF
:1023E700072EE4F0A304F0E49006FFF09003F31245
:1023F700857C00000000E4900701F090002CE0705D
:1024070002A3E070079006FD04F0FF229136114009
:10241700EF700231A4E4900A6EF0A3F0900A70F016
:10242700A3F0900A6AF0A3F07F01227F0131A89000
:1024370006FD7401F022900AD51285E6900AD8ECC1
:10244700F0A3EDF07D011247DDC3900AD8E09402B6
:102457005062900AD871619440EE94004006A374CC
:1024670040F08005900ADAEFF0900ADAE0FDFFC34A
:10247700900AD9E09FF0900AD8E09400F0900AD52E
:102487001285DD7F24127770F1D47D207F131254DB
:10249700297F01125577EF6042F1D212547A900AE0
:1024A700DAE0FF900AD61265CB900AD8E07002A353
:1024B700E0709F22F1D27DB412547C900AD5127637
:1024C700EB900AD51276DF900AD812770F900AD8C8
:1024D7001277387D1F1254641257B122F1247B0101
:1024E7007A0779A07D1F7C0012536DEF641F4E6041
:1024F70002C13578A07C077D017BFF7A05796B7E69
:10250700007F041287A2EF6002C1359007A4E09014
:1025170007E4F09007A5E09007E5F09007A6E090A4
:1025270007E6F09007A7E09007E7F09007AFE01203
:10253700054525A50025D703255E1225B81A25FDD3
:102547001B25BC1E257423257925257E2825822A4F
:1025570025F92F000026097BFF7A0579707D247CF9
:1025670000913D127719913D90079FC1041246D6FD
:10257700C10D1246A2C10DD1BC8010124F547B0170
:102587007A0779F07FD07E07120FCC90079F7402ED
:10259700F07B017A07798E7F0A120FCA8068D136DD
:1025A700EF70069007EDF080599007EDE0604080EE
:1025B70051D15680519007B3E0700CD136EF6007C8
:1025C700E49007EEF0802C9007EE7401F0E480238E
:1025D700D136EF60069007EDE060087BFF7A05795A
:1025E7009880067BFF7A0579AA7D127C00913DE4ED
:1025F7008001E4FF800EE4FFD1B29007ED7401F093
:1026070080047F01D1B27B017A07798E12B5E4EF9E
:10261700600A90079FE0B402037401F0900780748A
:1026270001F0FB7A0779897FB07E04120FCC221262
:102637005ABEEF70069007EFF0800E9007EFE0703C
:102647000812B24F9007EFEFF09007EFE0FF22D1AB
:1026570036EF70051246C5805212B83990077812C6
:1026670085709007B1E024C1601C242370307BFF84
:102677007A0579949007B3E0FFC39404500280026F
:102687007F04F1DB80257B017A0779749007B3E03B
:10269700FFC3940C500280027F0CF1DB800D7B009E
:1026A7007A007900E4FDFC913DE4FF9007ECEFF040
:1026B700127719813D9007B11284D39007B7E07A5A
:1026C7000F30E0027A0D7B00900AE5EAF0A3EBF009
:1026D700124E5F12667FFED3E5F09401EE94004040
:1026E70023124F8F30E0027E0D7F001272D59007C4
:1026F700B7E07E0D30E0027E0F7F00124F99913DCB
:1027070031E780CF124F1A9007B7E07E0D30E00215
:102717007E0F7F00124F99913DE4FF808E127192D8
:10272700EF30E212E4FF12717F7F041252C27F8101
:102737001252C21247997B017A0779F87D08126510
:10274700D9EF7002E1D19007F8E020E7119007FE7A
:10275700E0600B7B017A0879617D0812662090079B
:10276700F8E05460704DA3E012054527910027D18A
:102777000127930327990527A30627A60827A80952
:1027870027B30A27D10B000027B580229007FCE06A
:10279700801D9007FAE0547FFF02717F0263F48087
:1027A7001E1252BC7F831252C20260118011E4FFD5
:1027B7000246F79007F8E0B4A10DA3E0B4FE087D48
:1027C70001E4FFFE0266A7123AD822E4FD7F127EDB
:1027D700A3028F80EFFD7C00913DE4FF229006FE6F
:1027E700E024FE22900BBFEFF07F0122900B7BE0ED
:1027F7007018900BA1E070121112317312B9889002
:102807000AF2E0B40C025194F13B2290091BE0B4A8
:1028170001021120126DBEF022F1E9E4FD7F0112E1
:102827000E8912770311357F147E00029001F09014
:102837009605E04440F0A3E04440F022E490094EBE
:10284700F0F117121FE8F110120FC8E4FF71BEE490
:10285700FF12C06B12C00E90961DE054DFF0A3E08C
:102867004420F0909620E04420F0A3E04420F0902C
:10287700961CE054EF11D090961DE054BF113C9088
:102887009620113990961C11CD909602E054FBF0DA
:10289700A3E04404F0909605E04404F0A3E0440468
:1028A700F11E11D0909602E054FDF0A3E04402F02F
:1028B700909605E04402F0A3E04402F01277867F89
:1028C700027E00028AF8E054BFF07F027E00028A8F
:1028D700F8711274FFFFFE12B83F12B8CC12976658
:1028E700E4900BB2F0125CE4126BF4D2AF126CA05E
:1028F700127703113590960111CD126D2D125E924C
:10290700121BA412778EA3E044401135909601E084
:10291700444011D0E4FDFF3194317312B988E4FFCC
:10292700126D3D124965E4FF1216A9B100126F79C5
:10293700124D11125A361297661249AD1221E7123B
:10294700587EF109600F14601624FC601724FB60A1
:1029570009240B7012120A6C800D121834800812A9
:1029670019B28003120017F13080CBF07D107F2061
:1029770012B9467D107F2112B9887D107F1D12B9CB
:10298700887D107F1E12B9467D107F1C2271B7EF1C
:10299700700F90B204F090B20331D290B205F0807C
:1029A70024EFB4010E90B204E4F0A331D290B20345
:1029B700F08012EFB4020E90B203E4F090B205314A
:1029C700D290B204F090B000E4F022F0ED90000E47
:1029D70093229009A37401F0900995F0F15912B967
:1029E70046125ED71270461217F212191EEF600CCC
:1029F70090099D7401317212B9888009E490099D8C
:102A0700317212B94612191EEF601390099DE060EA
:102A17000D7401F0FB12760A90099C7401F0F150D5
:102A270071F6F1EF12B98851B412B9887D207F0F82
:102A370012B98812758E12B9887D017F2012B946A6
:102A47007D017F2112B9887D017F1E12B9887D0122
:102A57007F1D12B9467D027F2012B9467D027F2174
:102A670012B9887D027F1E12B9887D027F1D12B9B7
:102A7700467D807F0212B9467D807F0312B9887D2B
:102A8700807F0512B9467D807F0602B946120FD3B3
:102A970012172AE4FF121019F15912B988F1EF122F
:102AA700B94651B4126DB412758E02B9887D017F93
:102AB7000212B9887D017F0312B9467D027F051294
:102AC700B9467D027F0612B9467D027F0212B98898
:102AD7007D027F0312B9467D027F0112B988E4FDAA
:102AE700FF31947D047F0512B9467D047F0612B934
:102AF700467D047F0212B9887D047F0312B9467DA3
:102B0700047F0112B9887D207F0E2290988AE044C5
:102B170030F090988CE054FAF071B7909804E0B4D4
:102B2700170890B0077403F08009907FC0E4939072
:102B3700B007F090B000E41217D14E600771B7905C
:102B4700B00871E47D027F0712B9887D027F051204
:102B5700B98890B009E020E15671B790B00971E4E7
:102B6700F50AF50B050BE50B7002050A640A450A21
:102B770070F2E4F50AF50B90B004E030E01F90B076
:102B870004E030E1028011050BE50B7002050AD362
:102B97009440E50A941F40DFE4FF02BA9A90B0041C
:102BA700E020E0DAE020E1D6E4FF12BA9AF13B2216
:102BB70090B00074FFF022900BE6EFF012B9579037
:102BC7000BE6E0FF700971B771EEE04404800BEF8C
:102BD700B4010971B771EEE0440871E722E04402DD
:102BE700F090B000E4F02290B009E054F3F02290A6
:102BF7000B401285E6900B43EDF0126D1CD1064099
:102C070002E4F0B1FE4002E4F09006DB745AF09063
:102C17000AF2E0FF60049006DCF0900AF3E0900609
:102C2700DDF0F1264002E4F0900AF2E0FBB4011671
:102C3700900702E09006DEF0900A6DE09006E3D17F
:102C47005E9006DF8018EBB40217900702E090064B
:102C5700E8F0900A6DE09006EDD15E9006E91285E6
:102C670070D1179006F2EFF0900B40124D7660335B
:102C7700900B43E0602D7D5AE4FF12BA06900B409B
:102C87001285DDC3E994DBFF900B401285DD900BC5
:102C970043E0900AEBF0124D7D9006F2E0FD7F17BE
:102CA70012BA0622C374E891F4D39401400FE4905A
:102CB70006E8F07B017A0679E87D0171F6C374DED8
:102CC70091F4D39401400FE49006DEF07B017A067D
:102CD70079DE7D0171F6C374DD91F4900AF3E06F3C
:102CE700600A7B017A0679DD7D0171F62294DBFFAC
:102CF70012BFF4900BD4EFF022D117AB079006D890
:102D0700E020E05C9006DBE0645A70549006F2E045
:102D17006B704D9006D8F09006DCE0900AF2D18AED
:102D270040037419F0D1064002E4F0B1FE4002E41A
:102D3700F0D199900AF2E0FAB40109D171D10E905D
:102D470006E4800BEAB4020FD165D10E9006EE12AD
:102D57006CD2E4900702F0F1265002A1FDE4F022C4
:102D67007E007F1A7D007B017A0679D91287C67AA1
:102D77000679DB7B01900AF07418F0E4FF124DD757
:102D8700D117AB079006DBE0B45A079006F2E06F65
:102D9700601E900A697401F0E49006D9F0A3F0A3CD
:102DA700745AF0A37401F0D17DF0A37419F0804434
:102DB700900A697401F0F1E3900AF2EFD18A4003B7
:102DC7007419F0D1064002E4F0B1FE4002E4F0D1FC
:102DD7007DE0FBB4010C9006DEE0900702F0D171B4
:102DE700800EEBB4020C9006E8E0900702F0D16584
:102DF700D10ED19991AB229006DAE0C394052290C7
:102E070006D9E0C3940B221284D390074B02857036
:102E17007B017A0679DB7D17900B441285E6900BD0
:102E270047EDF0E4FE900B47E0FD14F0ED602590D0
:102E37000B44124E2D1280F66EFEE4FFEFC394088A
:102E470050E3EE30E007C313648CFE8004EEC31337
:102E5700FE0F80E8AF0622F090074B0284D390065E
:102E6700EDE0900A6DF09006E9229006E3E0900A03
:102E77006DF09006DF22E49006DEF09006E8F09011
:102E87000AF222F09006DDE0543F900AF3F0D39463
:102E970020229006D9E0900700F09006DAE090062D
:102EA700FFF022900A6CE07052900006E064017017
:102EB70021129FB8129FDF9006DF121B9D703CF115
:102EC700037D0BD11F9006E3E06F702F900A6C040F
:102ED700F022900006E064027021129FB8129FDF73
:102EE7009006E9121B9D7013F1037D0BD11F90060D
:102EF700EDE0B50706900A6C7401F0229003D80242
:102F070085DD900AF2E024FE227B017A09795922B5
:102F17007B017A09794F22F0909601E054FB2290C9
:102F27000702E0D3648094812290091BE0B4010377
:102F3700126DF022D310AF01C3C0D012BAA280FE27
:102F470012686FF167F15061F67B017A0679DC7DD3
:102F570001227D807F0C12B9467D807F0A22F17F96
:102F67001217F2E4900AF4F022F1ACF165900AD45A
:102F7700F0F15071F67F01229009AE127619900B8D
:102F8700A4EEF0A3EFF09009C1127619AD07AC06D5
:102F9700900BA4E0FEA3E0FF1239CA7B017A067901
:102FA700DD7D0161F612527912543112C7F712C84A
:102FB700187F031260239003E9127029FF7EAC1279
:102FC70061A0F17F1217F202CEB89005BFE0B405F9
:102FD70008A3E0B4AC037F01227F00229006DCE067
:102FE700FF22E4FDFF020E897D017F0512B9467DB0
:102FF700017F06221230F630E0027F019009D6EFFA
:10300700F0909901C083C082E0FFA3E04401D08221
:10301700D083CFF0A3EFF0909C06E04480F022121B
:103027002FFB909C48E05444221126700201CC12D9
:10303700764B1129600BE054BBF07F1E7E00121106
:10304700F01213D260031277961215EB7005E05455
:103057001260721215EB60111217A95004AF0680A7
:103067000011CFF09009DA800F1239BD5004AF0676
:10307700800011CFF09009E5E0900B2EF0900B2F18
:10308700743FF0900B2CE0FF900B2FE0C39F40356F
:10309700129766900B2FE014F0900B2DE0FF900B2A
:1030A7002FE0FEC39F4007EE543F909C41F0900BEA
:1030B7002EE0FFEEC39F4008A3E0543F909C42F0F0
:1030C70012140280BE02168C900B2CEFF0A3EE2296
:1030D70011F630E0027F01900BE8EFF0909901C004
:1030E70083C082E0FFA3E04401D082D0830119901E
:1030F7009901A3E07F0022900BDEEFF090090274A4
:1031070001F0126FF1EF7002FF2212C7F79008DE8D
:10311700E0FF126023900BDEE0FF7E00E4FD124A21
:10312700CBEF7002FF22318431B5EF4E7002FF22E0
:10313700318412CDA0900BDEE0FF641E6009EF64BE
:103147001D6004EFB41C08900AF37410F080069019
:103157000AF37418F07F091210199008E0E0FEA333
:10316700E0FF1261A0113012297312B9467F327E37
:1031770000128AF8123ABA12CEB87F0122900403DD
:10318700E0FEA3E0FF7D007C0222126FE1EF600307
:103197007F002212BD13EF70037F0122318431B506
:1031A700EF4E7002FF22318412CDA07F0122900BD7
:1031B7004C1269069008CC1284D39008BC5146C0C3
:1031C70006C007900B4CE0FEA3E0AA06F97B01A31B
:1031D700E0FFA3E0900A82CFF0A3EFF0D007D0067C
:1031E700124A519008CC1284DF900B4EF1CCFCFDB3
:1031F7001282B29008CC1285709008BBE0702890BC
:1032070008CC1284D3EF24FFF1C0124E5812835812
:103217009008911285709008911284D390074B51B2
:103227004690088D128570900B4EE0FEA3E0FF22BA
:103237009004531285DD900027128465900456127E
:1032470084DF0282B290096212857C00000000E4EC
:10325700900974F0900006E0B4010C12CD53EEC350
:103267001390096FF0800690096F7401F0F1A712AF
:10327700765E7002FF22F1A712766F7003EE645537
:103287006008900AB3E07002FF22E490096EF090A4
:10329700096EE0FFC394044002614AEF75F010A481
:1032A70024BEFFE5F0340EFAA9077B0190097712D7
:1032B70085E6F1E8FF6405600AEF640F6005EF64D7
:1032C700857035900974E0FF600890096EE0C39F30
:1032D70040269009621284DFC000C001C002C0030B
:1032E70012767FD003D002D001D000F1D390096EBF
:1032F700E004900974F04174900977121F711281EC
:103307000FFF64046018EF64066013EF640B600E30
:10331700EF640C6009EF64016004EFB40E1D9009BF
:10332700621284DFC000C001C002C00312767FD0E2
:1033370003D002D001D000F1D3800890096EE004D9
:10334700F0419690096EE0B4041B900974E0FFD336
:1033570094004011EF9404500C90096212857C0090
:10336700000000417490096FB1ABB1B212765E7084
:1033770002FF2290096FB1ABB1B212766F7003EE04
:1033870064556008900AB3E07002FF22900D0DE0CB
:10339700900013F0900D0EE0FEA3E0FF1297F89057
:1033A7000975EEF0A3EFF0E4FCFD90096251469039
:1033B7000014128570900D11F1B9603D1297F87CD9
:1033C700007D201285EF121FE1AB0790096FE07FA8
:1033D7000025E0FEE4FCFD1282B2124157C006C090
:1033E70007E025E07B00FAE4F9F8D007D00612835E
:1033F7005890095E128570800A90095E12857C00DC
:10340700000000900D16F1B960081297F8E4FCFD72
:103417008005900D24B1BE900966128570900D133A
:10342700F1B960081297F8E4FCFD8005900D20B112
:10343700BE90096A128570B1A8900966B1B5121FCE
:10344700E1AB07900975F1CCFCFD1282B290095EE1
:103457005146121FE1AB0790096A121EAEC00790D2
:103467000013E0FBE4FAF9F8D007128358900970CB
:10347700128570E47FF57E0FFDFC900970121B9D8D
:103487005008E4900008F07F0122E47FF57EFFFDFD
:10349700FC900970121B9D500AE4900007F0A304EA
:1034A700F0802578367C0D7D017BFF7A06796C7E6E
:1034B700007F081287A2EF9000077003F080037463
:1034C70001F09000087401F0B1A8900966B1B590B9
:1034D7000014514690095E514690001C1285709069
:1034E7000007E06009B1BB9009705146800E900952
:1034F700701284D3EF2402FFE43EF1C4900020123F
:103507008570900007E0601FB1BBEF24FEFBEE342F
:10351700FFFAED34FFF9EC34FFF8900013B1AB126A
:1035270082CD90001C800AB1A8900966B1B59000C1
:10353700145146900018128570900013E0FE900910
:103547006FE0FFEE8FF0A4900013F0A31284DFE486
:10355700FCFDFE1282CD90001412857090001C12A3
:1035670084DF90096FB1AB1282CD90001C12857079
:10357700F1A790096A5146121FE1AB0790096FB195
:10358700AB1282CD9000241285709000181284DF50
:1035970090096FB1AB1282CD9000181285707F0130
:1035A70022900D10E0FFE4FCFDFE229009621284D8
:1035B700DF0282CD900D2C1284D30298149000065E
:1035C700E064046002C1D390045AE0B4023190046D
:1035D70056C083C0821284DFC000C001C002C0038E
:1035E700D1D490001F128465D003D002D001D0003F
:1035F7001282B2D082D08312857090045AE4F09080
:10360700045AE0702B900456C083C0821284D3C042
:1036170004C005C006C007D1D4900027F1DCD0074D
:10362700D006D005D0041282BFD082D08312857015
:103637005137C004C005C006C007D1D490001FF1A0
:10364700DCD007D006D005D004C31283F85027D1A9
:10365700D4900027128465A804C004C005C006C022
:1036670007D1D490001F128465D003D002D001D0B7
:10367700001282BF80115137EC335011D1D4900022
:10368700271284651283EA900456128570D1D4E913
:103697002427F9E43AFAC003C002C0011276D3D056
:1036A70001D002D003128495D1D4E92423F9E43A56
:1036B700FAC003C002C0011276D3D001D002D003F2
:1036C700128495126FC3D080D0807F01229004535B
:1036D7000285DDF1B3900A201285E6F1A1E4C39FCC
:1036E700900A25F0603DF1AD900A25E0FF900A7938
:1036F700E4F19D123F2A900A1C1284DF900A25B13B
:10370700AB1282B2F1B3900A25E0FF7E00900A2146
:10371700EE8FF01281D7C3900A24E09FF0900A231E
:10372700E09EF0C3900A23E094014045E4900A2606
:10373700F0A3F0900A23E0FFC3900A27E09F900AC6
:1037470026E09400502BF1A1F1AD900A797401F0B5
:10375700A3E4F0123F2AF1A1E42FF1C0F1B3900ADC
:1037670021740175F0001281D7900A26123EE58078
:10377700C27E00900A23A3E0FF900A23EEF0A3EF96
:10378700F06012F1AD900A23E0FFA3E0900A79CF31
:10379700F19D123F2A22F0A3EFF0900A1C0284D376
:1037A7009009620284D3900A200285DD900A1C02E8
:1037B7008570E0FEA3E0FF4E22FFEE3401FEE43DFC
:1037C700FDE43CFC22E0FEA3E0FFE4221282B2907B
:1037D7000962028570128465AB07AA06A905A804C9
:1037E7002290000402810F900B70EFF0A37401F098
:1037F700129766909C46E054F0900B72F0E0FF90B1
:103807000B71E0FEEF4EA3F0900B70E0B4010BEEEE
:10381700B40707900B72E04408F0900B72E0909C9D
:1038270046121483900B71E004F0E0C3940840C083
:1038370022900B76EFF030E6023199900B76E0FF9D
:1038470030E7023191EF30E606909C41743FF090EB
:103857000B76E030E706909C42743FF0900B76E0E1
:10386700FF30E6023189EF30E70231811211EC9027
:103877000B76E0FF30E6023179EF30E702311C12B8
:1038870011EC9009D7E06444601A900B76E0FF30A2
:10389700E607909C48E054FBF0EF30E707909C4820
:1038A700E054BFF012148431BD5004AF068000907D
:1038B7000B77EFF0A3743FF0900B77E0FFA3E0D313
:1038C7009F403731B5FF900B78E0FEC39F400C90C7
:1038D7000B76E030E605909C41EEF031AD9F400F4E
:1038E700900B76E030E708900B78E0909C42F0125E
:1038F70011EC900B78E014F080BE900B76E0FF306F
:10390700E6033114F0EF30E70331A5F0229009E226
:10391700E0909C4122909C4FE04420F022900BC6FF
:10392700EFF0122FFB900BC6E0FF30E6023199EF64
:1039370030E7023191900BC6E030E6023189900BF7
:10394700C6E030E70231811211EC900BC6E0FF3080
:10395700E6023179EF30E702311C1211EC900BC609
:10396700E0FF30E6033114F0EF30E70331A5F00252
:10397700168C909C4FE04440F022909C49E0441004
:10398700F022909C49E04402F022909C4CE04408CD
:10399700F022909C4CE04404F022909C41F0900966
:1039A700E5E0909C42229009E5E0FFEEC3221297E2
:1039B700669009E2E0229009E5E0FF9009E2E0FE67
:1039C700C39F22900B28126906122FFB1213C2EF16
:1039D700F47002EEF460631213C2EFF47003EE6446
:1039E700FE6057900B2851A3C333CE33CED8F9FFCF
:1039F7007C007D05128182900B28EEF0FAA3EFF090
:103A0700FBA351A3C333CE33CED8F9FF7C007D058A
:103A1700128182900B2AEEF0A3EFF0D3EB94EAEA3F
:103A2700940B4005900B2851B2D3900B2BE094EAEE
:103A3700900B2AE0940B400251B2900B2851AAA395
:103A470051AA900B28E0FCA3E0FDECC454F0FBA3C3
:103A5700E04B9009E0F0AF05A3EFF0900B2AA3E04D
:103A67009009E4F0909C04EFF0909C02E0540FF072
:103A7700C083C082E0FF9009E0E0FE54F0FDEF4D07
:103A8700D082D083F09009E4E012779EE054F0F002
:103A9700E0FFEE540FFEEF4EF002168CE0FEA3E0BF
:103AA700780222E0540FF0A3E0F022740BF0A37425
:103AB700EAF022900AF3E025E02494F582E4340842
:103AC700F583127759FDAC0621CAE4FDFCFFFE2100
:103AD700CA9007F8E06421701AA3E0B40115A3E0C7
:103AE7007011A3E0B4010C900861E0B4010280DA20
:103AF70002001D9007F8E06421702BA3E0640170B9
:103B0700259007FBE06402701D9007FAE0900862B9
:103B1700B4010791049009AE800591049009C1F0A2
:103B2700A3EFF0022F7F9007F8E0B4A110A3E0B451
:103B3700820B9007FBE0B402047D0280789007F8BF
:103B4700E0B4A114A3E0B4830F9007FBE0B402082C
:103B57007D027FE77E0381009007F8E0B4A114A3FC
:103B6700E0B4840F9007FBE0B402087D027F017E7A
:103B77000081009007F8E064A17025A3E0648170DC
:103B87001F9007FBE0B402189007FAE0B401059014
:103B970009AE80039009C1E0FEA3E0FF7D028059D2
:103BA7009007F8E0B4A113A3E0B4810E9007FBE0FF
:103BB700B401077D01E4FFFE803F9007F8E0B4A160
:103BC7000CA3E0B4FE077D01E4FFFE802C9007F80C
:103BD700E0B4A113A3E0B4810E9007FBE0B40A0799
:103BE7007D01E4FFFE80129007F8E0B4800E900795
:103BF700FEE060087D01E4FFFE1266A722E0547F25
:103C0700FE900861E07C002400FFEC3E22E4900A6D
:103C1700ABF0D080D080FE7F08FD7B017A0579BFAD
:103C27001287C6B1F0A37408D10EB1E2700AB1D9F8
:103C37007006B1D97002FF2290022CE0FF900AA70C
:103C4700F0900233E0900AA6F0D3EF9400748094CA
:103C5700814003E4A3F012BDF79006A17427F0A3F7
:103C67007410F012CA15EF7002FF22B1F0900AA685
:103C7700E0900398F0D11AB1E67002FF2290023C5F
:103C8700E0900AACF0900235E0FE900234910B9080
:103C970005BFF0A3EFF0900237E0FE900236E02474
:103CA70000FFEC3E9005C1F0A3EFD10EF0A374091D
:103CB700B1F87002FF2290022EE0900AA7F0D39489
:103CC70000748094814002E4F0D11AB1F87002FFC9
:103CD7002212B007BF0107E49006ACF0FF227B0178
:103CE7007A02792C900AA81285E690022EE0242CFD
:103CF700FFE43402FAA9077B01C003C002C00190A8
:103D07000AA81285DDC3D082D083D0E0E99582EA84
:103D170095834002A1D6900AA81285DD125EB5FFF1
:103D27006404703690000512810FB40819900006DC
:103D370012810FFE64056004EEB4060A90000712B4
:103D4700810F64506007E4900AADF08006900AADD9
:103D57007401F0E4900AABF08050EF6405704B906B
:103D67000AADE0604590000312810F5403640270AE
:103D770039D10830E71A540F900367F0A37405F0A0
:103D87001237E8900369F0900AABE04401F0801A1B
:103D9700D108540F90036AF0A37406F01237E89025
:103DA700036CF0900AABE04402F0900AABE0B40376
:103DB7000F900231E0FF12CA64EF7F017013FF22F8
:103DC700900AA81247E4FF900AA91265CB81F17FF8
:103DD70000227B017A02792C9004B1F0A37408F0D9
:103DE700E4FD7F0112AA35EF22E4900396F0A3F0D9
:103DF70022F0E4FD7F0212AA35EF229005AF12856B
:103E0700DD90000202810FF07B017A02792C900489
:103E1700B1E4227B017A02792C900AA7E0FF900493
:103E2700B1E4F0A3EF22D10275F002908A791285EE
:103E3700D112775990000312810FFD7C00EF2DFFFF
:103E4700EC3ECF24FFCF34FF900B19F0A3EFF01215
:103E57008203FFAEF012C07BEF600CD102D3940255
:103E67004005900B19D1E59005AF1285DD1282034D
:103E77002444FD2403FFE433FEEF7802CEC313CEC0
:103E870013D8F9900B1DF0AF05E4FCFDFE7B6D7AAE
:103E970001F9F81282CD900B1D124FDCFE900B1A20
:103EA700E02FFF900B19E03E900B1BF0A3EFF09073
:103EB7000BA6E0B40208900BA7E064036010D1DD05
:103EC700FF12BFDB9005AF121F71EF12814ED0803A
:103ED700D080D1DDFF22900B1BE0FEA3E022E4752A
:103EE700F0010281D7900AB5EEF0A3EFF0900AB97E
:103EF7001285E6E4900AB7F0A3F0900AB51249D507
:103F0700900AB8E09F900AB7E09E5016900AB9123F
:103F170047E4FF1200E1900ABAD1E5900AB7D1E56C
:103F270080D822900A72128570900A761285E690E0
:103F37000A791237B9602FD3EF9400EE9401502617
:103F47007F06F17412400D7F02F174900A72126EAF
:103F5700E4900A79E0FEA3E0FF900A761285DDD1AE
:103F6700EC12400DF1A922F17CF1A97F06AD0712F1
:103F77006F710200E1900BDCEFF07F50F17412409B
:103F87000D7F01F174900BDCE08077900B001285B8
:103F970070E4FFF16E12400D900B04E0FFF1741214
:103FA700400D7F05F174120025900BDDEFF01240F4
:103FB7000D7F017E00128AF8900BDDE020E0E322FE
:103FC700900AFFF0900AFB1285707F06F174124089
:103FD7000D7F02F174900AFB1240FD900AFFE01278
:103FE700400980BE900A4EE475F00112052E12803A
:103FF700F6FF1200E1900A4EE475F00112052E1249
:1040070080F6FF1200E190960AE04408F022900A39
:10401700F61285707F43123F6E110D900AFAE0FF8A
:10402700123F74900AFAE064C76005900AF611FD22
:10403700110D023FA9900A4A128570900A4E128507
:10404700E6900A51E07002A3E0700201FC900A4A70
:104057001284D3EF5401FFE4FEFDFCFBFAF9F8C329
:1040670012840E6018900A4A12853B900A4E124E2F
:104077002D1280F6123FC7900A5112769B7F0612C7
:104087003F74110D7FAD123F74900A4A11FD123F24
:10409700EB3103900A52E024FEFE900A51E034FF10
:1040A700900A53F0A3CEF0D3900A54E09401900AFB
:1040B70053E0940040177FAD123F74123FEB900A14
:1040C7005374FF75F0FE1281D7310380DA7F041233
:1040D7003F74110D123FA9900A51E0FEA3E0FF3093
:1040E700E013E4FCFD900A4A1232463157900A4E1B
:1040F700F1E4123FC7221284D3026EE77F017E00EC
:10410700029001900A55128570900A591285E6E4CB
:10411700900A5EF0A3F07F0B123F74900A5511FDD1
:104127007FFF1200E1900A5C1249D5900A5FE09F79
:10413700900A5EE09E5017120025900A591285DDFD
:10414700900A5E1276F7900A5E123EE580D7010D5F
:10415700EF24FFFFEE34FFFEED34FFFDEC34FFFCF0
:1041670022110DE04401F0E04402F090960CE04487
:1041770008F0E044011257D94402F022900BB0E056
:10418700B40307900AFA31A10115900BB0E0B4010E
:1041970008900B0431A1123F922274C7F07F007E72
:1041A700007D007C0022122F1712B5E4EF7002FF8A
:1041B70022122F177F05120FCA7103900BD7EFF04A
:1041C70090094EE024FE605614700241A724036054
:1041D7000241EB900BD7E0F4701B91FAE054BF1249
:1041E7002F1EF0E054FDF0122F1012B5E4EF60021D
:1041F700D19A7F0022900BD7E0900943F0640C60BE
:1042070004E0B4150851F37FB87E0B800651F37FA5
:10421700F47E01120FCC90094E7402F041F0B119EF
:10422700EF122F1070087FD07E07FDFC800231A4AB
:1042370012B5B2B10D603AE490094EF0EE64016038
:1042470025EE24FE601314601414601624047016FF
:1042570090961CE054BFF0800D91FA800912778682
:104267008004122F1FF051FA2467F582E434098085
:104277006D51F312B5E4EF6070900943E051F3B468
:1042870024067FE87E0380047F2C7E01120FCC90EA
:10429700094E7403F051FA2468F582E43409803E2C
:1042A700B10D6013E490094EF0EE25E025E0246A95
:1042B700F582E43409802751F312B5E4EF602A90C0
:1042C7000943E051F3B424067FE87E0380047F2C82
:1042D7007E01120FCC51FA2469F582E43409F58383
:1042E700E493FF22E490094EF07F00227B017A09D4
:1042F700794422900943E025E025E02212C032EFFD
:104307006016B102900BAC7401F0E4A3F012C03E4A
:1043170090094A128570801912C01EEF600CB10215
:10432700E4900BACF0A304F08007E4900BACF0A38F
:10433700F0900BACE0FF7006A3E0700281C6EF605F
:1043470005E4900942F0900942E0C394055003E068
:1043570004F0900942E075F046A4FFAEF0E4FCFDDE
:104367007B017A09795412B5B290094BE0FF9009A5
:104377004AE02FFFE433FEEFF44E600281BE90095E
:104387004CE0647F707BA3E064807075900941F016
:1043970091EC941C400281BEEF25E024D6F582E41F
:1043A7003408F583E493FE740191F36E7003A3E080
:1043B7006F704A900AF2E0640C7039B119EF6034FB
:1043C700900941E024FE601314601914601F24044F
:1043D700702290961CE04440F0801990961CE044AF
:1043E70020F08010909601E04402F080079096013B
:1043F700E04404F0909601E04440F081D291E580DA
:104407008F90094CE0F4701FA3E0701B900941F0F6
:1044170091EC941C400281BEEF90090E91F3B50711
:104427000281D291E580E990094CE0FE64BF703EBD
:10443700A3E0703A900941F091EC940C500FEF9083
:10444700092A91F3B5070281D291E580EB900941E2
:10445700740CF091EC941C505EEF90092A91F3B51F
:104467000708900941E02409804591E580E5EE645D
:10447700FD704490094DE06402703C900941F09151
:10448700EC940C500FEF90094691F3B50702803B6F
:1044970091E580EB900941740CF091EC9421501751
:1044A700EF90094691F3B5070A900941E02412F00D
:1044B700E0FF2291E580E390094174FFF0FF227B42
:1044C700017A09795412B5E4EF7006900941E0FFCB
:1044D7002290094A12857C000000007FFF22900984
:1044E70041E004F022900941E0FFC32293FF9009C5
:1044F7004AE02290961CE054DFF022900AAF740144
:10450700F0A374F4F022900BD7E0FF900943E0FE8C
:104517006F22900A13E0FF22900AC3EFF0BF5822E0
:10452700900A10E0C394024002E4F0900A10E004FD
:10453700F0E0B4010D7B017A0A79C47FF47E0112A1
:104547000FCCB1A7700E900A10E0B40107E4900AEF
:10455700C3F08046B1A77014900A10E0B4020D9022
:104567000AC37467F0E4900A10F0802EB1A7602A9E
:10457700900A10E064017022900AC37458F0E49026
:104587000A10F0B119EF6012E4FD7F1ED192B40C4E
:1045970009121931EF70031217F2900AC3E0FF22D4
:1045A7007B017A0A79C412B5E4EF22E4900BD5F0C7
:1045B7006002C18C31AD900BD5EFF0900AF2E0B4F8
:1045C7000C0C900BD5E0FFB11F900BD5EFF0900AC4
:1045D70013E0FF700A900BD5E064646002E4F0908A
:1045E7000BD5E064647026EF6007E4900A13F0804F
:1045F70006900A137401F0D19A12777F900AF4E0BB
:104607006004E4FD80027D017F1D120A09900BD52D
:10461700E0FF64646065EF60626412605EEF6413DC
:104627006059EFB41410E4FD7F1E120A09E4FD7F00
:1046370001120FD78045900AF2E0B40C1C900BD5FD
:10464700E0FF64126025EF64136020EF6459601B7C
:10465700EF64586016E4FD800D900BD5E0B40104BB
:10466700E4FD80027D017F1E120A09900AF2E0B480
:104677000C09121931EF70031217F2900BD5E0B441
:104687005A037459F0900BD5E0FF22120A09900AD9
:10469700F2E022909601E054BFF022122636EF7026
:1046A70004D1C5801612B839315790078112857029
:1046B7007B017A0779817D081227DD0226B27F8187
:1046C700D1F77F0A7E00128AF81227247F0122126F
:1046D7002636EF7004D1C5801412B83990079712A7
:1046E70085707B017A0779937D0C1227DD0226B24C
:1046F700900BE0EFF0540FF1DC900BE0E07026F147
:104707008FC006F188D0E04F1227D37F13F1817F46
:1047170000FEC007C006F188D0E0FED0E0EE4401FD
:10472700FD7F138045900BE0E030E743F17F4408BD
:104737001227D3F18FC006F188D0E04F441012271B
:10474700D37F13F1817F00FEC007C006F17FFDD044
:10475700E0FED0E04D4410EEFD12547C1249C2F148
:104767007F54CFF1774440FD7F127EA3128F8022C2
:10477700FD7F127EA3128F807F127EA3128C84EF9F
:10478700227F127EA3028C847F137EA3128C847EE9
:1047970000227D04F1DD7DC07F1412542912776158
:1047A7007F17F191C006F1D3D0E04FFD1253667F1A
:1047B70017F1817F00FEC007C006F1D3D0E0FED01D
:1047C700E0EE4440FD7F177EA3028F807F167EA315
:1047D700028C84F0E4FD7F0E7EA3028F801285DDBC
:1047E7000280F6AE07122FFBEE543FFEED543FFD5D
:1047F7001215EB600A9009D9EEF0A3EDF0800F12C5
:1048070013CB602E9009E2EEF09009E5EDF0909C55
:1048170048E020E20B909C41E0543F6E6002EEF0CE
:10482700909C48E020E60B909C42E0543F6D60026C
:10483700EDF002168CEF909C50B40105E054FCF0AB
:1048470022E04402F0E054FEF022122FFB9009D838
:10485700E05412702E909C49E030E10211AB909C1D
:1048670049E030E40211A31211EC909C49E030E1D9
:1048770004E054FDF0909C49E030E404E054EFF08C
:104887001211EC909C4CE030E204E054FBF0909C59
:104897004CE030E304E054F7F002168C909C4FE0B4
:1048A70054DFF022909C4FE054BFF022122FFB9070
:1048B7009C00E4F011EB74A3F0909C007480F090DE
:1048C70096417420F07D037F1D12B9467D037F1E3C
:1048D70012B9887D047F1D12B9887D047F1E12B925
:1048E7004602168C909C057442F0A322907FDFE469
:1048F70093543FFF900B9EE4F0A3EFF0900B9E3193
:10490700D59424EE94004009D3EF942CEE94004004
:1049170009900B9EE4F0A37428F0E4FDFF12B01594
:104927007E007C0C7D1C1285EFC006C007900B9E95
:10493700E0FEA3E0FBAA06E4F9F8D007D00612834D
:1049470058C3EF94B8EE940B50067E0B7FB8800DDA
:10495700D3EF94F8EE941140047E117FF82231A62C
:10496700120FC87B017A097990120FC8900980E06D
:104977007002A3E060241276989009821284DFC047
:1049870000C001C002C00311F3E4FCFDD003D00254
:10499700D001D00031C931C280D27F01021A1F7BFA
:1049A700017A09797B2231A612B5E4EF600C31A6B2
:1049B7007F32120FCAE4FF121A1F227F057E000200
:1049C7008AF81282B2900982028570900A11E0FE7D
:1049D700A3E0FFC322AB0731D294E8EE9403501152
:1049E7007C007D0A128170EB2FFFEC3E900A11804C
:1049F70006AF03900A11E4F0A3EFF022900A3F12EA
:104A07008570900A431285E6E4900A48F0A3F07F88
:104A17000B123F74900A3F126EE47FFF1200E19081
:104A27000A4631D5900A49E09F900A48E09E501700
:104A3700120025900A431285DD900A481276F790F6
:104A47000A48123EE580D802400D900A7B12857015
:104A5700900A7F1285E6900A7FB176604D900A82B0
:104A67001237B96045900A7F1285DDC3EA940F407B
:104A7700167E00EF5403FF600E74049FFFE49E90C0
:104A87000A828FF01281D7900BB0E0B4030B51BDAF
:104A9700900A4651B251038011900BB0E0B4010A5D
:104AA70051BD900A5C51B212410A22CFF0A3EFF038
:104AB700900A7B0284D3900A7F1285DD900A82E0F8
:104AC700FFA3E022AB07AA06900B8BEDF0A3E4F05F
:104AD700A304F0EDD3940240037F0022900B8BE0F8
:104AE700F9701B9008A3913B40037F00229008A513
:104AF700E02BFEE43A900B8CF0A3CEF08038E9640B
:104B07000170219008A4913B40037F00229008A5E3
:104B1700E02BFFE43AFE9008A3F1DC900B8CF0A3A6
:104B2700EFF080129008A5913B40037F0022900B85
:104B37008CEAF0A3EBF09008BAEBF0A3E9F0900849
:104B4700CC12857C00000000900B8D9152FF900BDA
:104B57008C914A2410FFE43EFEE4FCFD7A0879BC00
:104B67007B01900A82F0A37410F05151900B8BE0F7
:104B77006002813874FFFFFEFDFC9008C0121B9D88
:104B8700700D9008C012857C000000007F00227E17
:104B9700007F2F7D00915A1287C67E007F047D30EB
:104BA7007B017A0879791287C6787D7C087D017B3D
:104BB700017A0879C47E007F041280D078817C084E
:104BC7007D017B017A0879C97E007F031280D0912D
:104BD700449008951285709144EF24FF1237C0D195
:104BE700581283589008891285709008A29152FF35
:104BF7009008A1914A2420FFE43EFEAB07FAE4F9AE
:104C0700F89008BC121EAEE4FB7A02F812835890A3
:104C170008851285709008851284D390088D1285B7
:104C27007090089112857C00000000900884740140
:104C3700F07F0122E0FFD3EB9FEA9400229008C0A7
:104C47000284D3E0C454F048FEEF22E0C4F8540FC6
:104C5700C868227B017A08796A22900ACB12857C80
:104C67000000000012B8F1124183915A12DB79EF6C
:104C7700704D915A90047F125E80FD7C0F12A02A1E
:104C8700900AC9F1CE700280367B017A0F790090C5
:104C97000AC9E0FFA3E0900A8BCFF0A3EFF0900AD8
:104CA700CB1284D391C9900ACB1284DF900AC91220
:104CB70037CCFCFD1282B2A3128570F1D580AB020E
:104CC700B8CC900A84128570900A881285E6900BFA
:104CD700B0E0B4030AB103900A5191F802403C9046
:104CE7000BB0E0B4010AB103900A2391F81236DA47
:104CF70022CFF0A3EFF0900A840284D3900A88129F
:104D070085DD900A8BE0FFA3E0227E007F377D00E0
:104D1700B16D900BB0E07002FF227A0879997B01A0
:104D2700900A82E4F0A374201241A351517FFE7EC2
:104D3700017DAA7C55900899121B9D70079008B9B0
:104D470004F0800BE49008B9F0FE7F20FDB16D9070
:104D570008A1E0FFA3E090002CCFF0A3EFF09007AD
:104D67004A7401F0FF227B017A0879990287C612FB
:104D770085DDE94A4B22900AE81285E6900AE7D1D9
:104D870034EFD394955007900AE8B17670037F000B
:104D970022900AEBE0FF900AE7D147400774969DFF
:104DA700900AEBF0E4900BA0F0900AEBD13D50187D
:104DB700900AE7E02EFFA3D12D1280F6FD12BA0666
:104DC700900BA0E004F080E1E4900BA1F07F0122BA
:104DD700900AED1285E6900AECD134EFD394955002
:104DE70007900AEDB17670037F0022900AF0E0FF8A
:104DF700900AECD147400774969D900AF0F0E49032
:104E07000BA0F0900AF0D13D501A900AECE02EFF6B
:104E170012BFF4900AEDD12DEF12813C900BA0E068
:104E270004F080DF80A2E475F00102052EEFF09018
:104E37000BA17401F022E0FF900BA0E0FEC39F22BC
:104E4700E0FD2FFFE433FED3EF9496EE6480948069
:104E570022E4FB7A02F9F822900AE1D1CA900431E0
:104E6700E07011900AE11284D3D1581282CD900AD2
:104E7700E1128570900AE5E0FEA3E0FF12B6B2905A
:104E87000AE11284D39005351285707F1212B1BBE7
:104E9700EF7002800D909733E0541EFFC313640434
:104EA7006005F1127F0022D1CD7F107E27909720D9
:104EB700E020E50CEF1FAC0670011E4C70EFFF22DF
:104EC7007F0122128570909721E054EFF090972090
:104ED700E0547FF022909720E030E202F110900535
:104EE7003512857C000000007F0C12B1BBEF700209
:104EF700FF22D1CD909728E0C330E101D350F59040
:104F07009721E04410F07F0122D1B0909720E05420
:104F1700FBF022D1B0EF7002FF22F112900535129B
:104F2700857C000000007F0C02B1BBAB07AA06908E
:104F37009720E030E202F110909728E0C330E101BA
:104F4700D350F5AE02AF0312B6DF7F01229007B14F
:104F57001284D3F1A412667FFED3E5F09400EE9499
:104F670000401EF18F30E0027E0D7F00F199125351
:104F77006DF19230E0027E0D7F00F1321221E78061
:104F8700D4D1DCE4FF0226B21297669007B7E07E21
:104F97000F22AA06A9077B017D007C0222900B64E1
:104FA700D1CA900431E06008900B641284D3800C5E
:104FB700E4FF7E02FDFC900B641235B590053512B7
:104FC70085707F1902B1BBEEF0A3EFF04E227F0A86
:104FD7007E00029001E07C002FFFEC3E22909801BA
:104FE700E0FDEF543FFCED5CF0EF30E50C122BB722
:104FF70090B100E054BE122BE72212BA95122BB7DC
:1050070090B100E04441022BE7122BB7A3E054FB19
:10501700F090B100E054BE022BE790B004E030E01E
:1050270016900B79E004F0E0B40A06900B7B74014C
:10503700F0E4900B7AF022900B7AE004F0E0B40AE7
:1050470003E4A3F0E4900B79F022900BB2E0700236
:10505700115E11210227F39096457403F05155EF25
:1050670060189006A0E064076010900AA4740BF023
:10507700A374B8F09006A07407F09006A0E0FE7045
:105087002B31E5EF600C5137EF7007900A9FF0A3C3
:10509700F022510FFCC3E5F09464EC940050022118
:1050A700E4512C7402F0900A9E14F022EEB401260B
:1050B70031E5EF700221E25137EF600221E2900AF9
:1050C7009F5113FED3E5F09464EE9400500221E45F
:1050D700E49006A0F0229006A0E06402703D31FC47
:1050E70031E5EF600A5137EF7005512D04F02212B8
:1050F70007F8EF6401700221E4900AA25112FEC37F
:10510700E5F094D0EE9407500221E4E4900AA2F06F
:10511700A3F051669006A07403F0229006A0E0FE6B
:105127006403701E31E5EF7015F19E31E5EF6008FD
:105137005119512C7404F022511931FC21E231FC30
:1051470021E2EEB4041A31E5EF600431FC21E251AB
:105157000FFED3E5F094F4EE9401500221E4800DA4
:105167009006A0E0FEB4051D31E5EF70079006A09C
:105177007406F022510FFCD3E5F09432EC94004012
:105187005C31FC8056EEB40614127199EF6002513F
:105197004E31E5EF60479006A07405F0229006A017
:1051A700E0FEB407215155EF70069006A07406F093
:1051B700D3900AA5E09400900AA4E09400401E74DE
:1051C700FFF5F00281D7EEB4080F5119516631E5AA
:1051D700EF600A511931FC800231FC514E22900ACE
:1051E700F2E0B40408909612E05402FF2290A62839
:1051F700E05404FF22D310AF01C3C0D0909644E01F
:105207004460F0D0D092AF22900A9FE475F001027B
:1052170081EDD310AF01C3C0D0909644E054FCF0A9
:10522700D0D092AF22E4900A9FF0A3F09006A0227C
:10523700900AF2E0B40408909612E05401FF22901D
:10524700A628E05402FF229006A07402F02290964E
:1052570044E05403FFBF03047F0180027F0022D391
:1052670010AF01C3C0D0909644E0549FF0D0D092C5
:10527700AF2212C8CB90A6227409F0909883E4F06D
:105287005166511912777FF19E127778E4FDFF91ED
:10529700721247814440FD7F01917212478154DFAA
:1052A700FD7F017EA3128F80E4FF12717F51BCE462
:1052B700900AA1F0227F8151C27F02900BE1EFF0AB
:1052C700547F1247DC900BE1E030E73F12477F54F1
:1052D700DF12477744401227D312478FC006124781
:1052E70088D0E04F1227D37F131247817F00FEC07B
:1052F70007C006124788D0E0FED0E0EE4420FD91BB
:105307007C7D407F1091297F11804F7F1612478146
:1053170054BFFD71667F161247814480FD71661286
:10532700478FC006124788D0E04F1227D37F13124A
:1053370047817F00FEC007C006124788D0E0FED035
:10534700E0EE54DFFD917C7D407F14912912776157
:105357007F161247814410FD7F167EA3028F807F40
:10536700167EA3028F80900ADB1285E6900ADEEC98
:10537700F0A3EDF07D021247DDC3900ADEE0940250
:1053870050547F1612478120E004E4FEFF22E4FD1B
:105397007F02B177EF7003FEFF22126678900AE072
:1053A700EFF0FDC2AF900ADB1285DD7F287EA312E6
:1053B7008A06D2AF900AE0E0700A7F16124781543E
:1053C700FEFD71667F1612478154FEFD7166900AD5
:1053D700E0E0FF7E0022900ADB1276EB900ADB12F8
:1053E70076DF900ADE12770F900ADE127738F1E83F
:1053F700EF7003FEFF227D0171667DA0916B7D2D0D
:105407009164F1B1E4FD91647D017F169129916B5F
:10541700900ADEE0FEA3E0FF227EA3128F807D10BC
:105427007F087EA3128F80E4FD22125E927F011215
:10543700CD82E4FD7F0691297F0791207F0991297D
:1054470012671E124799D310AF01C3C0D09004034F
:105457007420F0A3E4F0F1E2D0D092AF227F047E73
:10546700A5028F807F177EA3028F807EA3128F8075
:105477007F01227D207F137EA3028F80900B141261
:1054870085E6900B17ECF0A3EDF07D031247DD7F67
:105497000E124781640360057D031247DD900B17E9
:1054A700A3E0FD900B141285DD7F2C127770122775
:1054B700D4917A900BB6E4F0A37432F0E4FD7F0345
:1054C700B177EF70047D088002E4FD1227D480A332
:1054D700900BDFEF91ED7C009183E4900BDF91ED72
:1054E700FC91837F0122F07B017A0B79DF7D01221A
:1054F700D310AF01C3C0D09006A0E0FF6406600ED2
:10550700EF64056009EF640760047F008052900A2A
:10551700F2E0B40416909901C083C082E0FFA3E0D3
:105527004404D082D083CFF0A3EFF0B16CE06F607A
:105537000C900AA4124505B16CEFF08021900AA4E3
:10554700E07002A3E07017900AA404F0A374F4F0CB
:10555700511951669006A07408F07F0080027F0100
:10556700D0D092AF227F0C7EA3128C84900AA12206
:10557700900A96EFF0A3EDF07B017A0A7998900BE9
:10558700B61237CCFCFD12B5B2900BB67403F0A37C
:1055970074E8F0129766900A96E0FF64016005EFE1
:1055A7006403701E900A97E06009D10AEF30E04467
:1055B7007F0122124788900A9DEFF0540370357FD0
:1055C7000122900A96E064027018A3E06009D10AEC
:1055D700EF30E0207F01227F1612478130E0157FF0
:1055E7000122900A96E0700912477F20E1067F01A9
:1055F700227F00227B017A0A799812B5E4EF609343
:105607007F00227F007EA5028C84D080D0807B0122
:105617007A0A79289006A11237CCFCFD12B5B27B25
:10562700017A0A792D7F64120FCA90057AE0640324
:10563700703E1247D3900A32EFF030E6167F16120B
:1056470047814480FD71667F16124781549FFD7F15
:1056570016807E90057BE0600BD10AEF20E002E127
:10566700277F0122900A32E020E002E1277F012212
:1056770090057AE064047035124788900A32EFF09B
:1056870030E50F12477F448012477754DEFD7F12C3
:10569700803F90057BE0600BD10AEF20E002E12715
:1056A7007F0122900A32E020E0767F012290057A7E
:1056B700E060046402702F12478FC006124788D03B
:1056C700E04F900A32F030E21312477F54D9FD7F42
:1056D700127EA3128F8012935E7F0022900A32E01F
:1056E70020E13D7F012290057AE06401702F7F134E
:1056F7001247817F00FEC007C00612477FFDD0E03A
:10570700FED0E04DFF900A32EEF0A3EFF030E20357
:105717007F0022900A33E030E0067F01227F0022DB
:105727007F60124781645D60037F00227B017A0AF4
:10573700792812B5E4EF7006129758EF703A1247BE
:10574700D3900A32EFF054DF4401FD716690057A79
:10575700E064037015A3E070117F32FE1290017FA1
:105767001612478130E0037F012212477F54D61279
:1057770027D31227D27F00221297667B017A0A79F4
:105787002D12B5E4EF7002C1317F0112AFF6EF645D
:10579700016002C131FF22D310AF01C3C0D0909680
:1057A70044E04403F0D0D092AF22F1D3900BE3EF63
:1057B700F0D10AEF30E0037F0122F1D3900BE3E051
:1057C700FEC3EF9ED3946440E87F00229006110247
:1057D70084D3F0E054FBF0E02280BC90951CE0F00D
:1057E70022F1D3900BE4EFF07F1612478130E003EC
:1057F7007F0122F1D3900BE4E0FEC3EF9ED39464C4
:1058070040E67F0022D310AF01C3C0D0124E36123C
:10581700BA06E4900BA1F0D0D092AF22D310AF011B
:10582700C3C0D0124E3612BFF4E4900BA1F0D0D013
:1058370092AF22909904E054FEF090980DE054FE48
:10584700F0E0440EF022900BE5EFF012C8DB12C82F
:10585700BB90988CE04401F0113A900BE5E0FF0211
:10586700B905122812D16BE4FF121019E4FF1216C2
:105877003BD1647F0180CF900AF2E0900BCDF0E43A
:10588700FFB1959009CCEFF064576004E0B4420291
:105897001169519CEF602D900AF2E0FF64076024C4
:1058A700EF6408601F900006E0B4030A900AF2E074
:1058B700B40D03122436120FD37F967E00128AF896
:1058C7007F02313E51FAEF60047F03313E711CEFD6
:1058D70060047F07313EB12B601E24FD24FD50215B
:1058E700240770339006D2E06007316EEF7028808E
:1058F7000C51BEEF7021800571F3EF701A7F0180A4
:1059070014120807EF70107F907E01128AF8711C3D
:10591700EF70047F0251249009CCE0B41418900072
:1059270006E0B4030A900AF2E0B40D03122436909D
:105937000AF2E0FF31C722900AF2E0900BCCF03177
:1059470057EF700B900BCC510E70047F0131C722BB
:10595700EF24FD600C24FC600C24FB6006240A8005
:105967000661AE613F61D0E4900BCAF0900A3DE05A
:10597700B40109120FD3900BCA7401F051BEEF7036
:1059870006900A3DF0FF221209ED1224361200207C
:10599700900BCAE07003120FD312B24FEF7002FFE1
:1059A700227F0271537F09121019E4FD7F0D120A3D
:1059B700097F02B1E4EF7002FF221223687F012200
:1059C700E4900BA3F0900BA3E0FEC3940450117472
:1059D700C32E511CE06F6008900BA3E004F080E534
:1059E700E4900BA2F0129766900BA351144002E4C7
:1059F700F0900BA3E024C3511C510E7009900BA229
:105A0700511440E1B16622E0FF3157EF22E004F084
:105A1700E0C3940422F582E43409F58322900BCB8A
:105A2700EFF03157EF7007900BCBE0FF31C7227BC8
:105A3700017A0679F4120FC890963DE054FCF012F3
:105A4700B65B51F3120FC87B017A0979C77F2C7EA9
:105A570001120FCC7B017A0979C712B5E4EF700602
:105A6700519C51FA80EED15D900A37E0B40108905D
:105A77000AF27403F08012900A3DE0900AF2B40132
:105A8700057402F08003740CF0900AF2510E700452
:105A97007F0C512422900A3DE0900BCEF051BE902E
:105AA7000A3DEFF0900BCEE0700A900A3DE06004EB
:105AB7007F0180027F002251F312B5E4EF70069058
:105AC7000428E0702151F37F2C7E01120FCC900443
:105AD700287401F012B0CB900A34EFF012B83C7F73
