:100000000203600250DB4D564600220250DC000124
:1000100002032202511714565722220251657F0112
:10002000222222025166E4C3FA90960AE04401F0CB
:1000300054FEF0909609E0A2E2E492E02A23FA90BE
:10004000960AE04401F054FEF0909609E0A2E2E442
:1000500092E02A23FA90960AE04401F054FEF090D0
:100060009609E0A2E2E492E02A23FA90960AE0449C
:1000700001F054FEF0909609E0A2E2E492E02A2317
:10008000FA90960AE04401F054FEF0909609E0A23E
:10009000E2E492E02A23FA90960AE04401F054FE4A
:1000A000F0909609E0A2E2E492E02A23FA90960A00
:1000B000E04401F054FEF0909609E0A2E2E492E000
:1000C0002A23FA90960AE04401F054FEF090960933
:1000D000E0A2E2E492E02AFA90960AE04401F0EA13
:1000E000FF227808EF33FF90960AE092E154FEF089
:1000F00090960AE04401F0D8EB229008A2E0FF229B
:100100000000220000220000220000220000220045
:100110000022000022000022000022000022000035
:100120002200002200002200002200002200002203
:100130000000220000220000220000220000220015
:100140000022000022025FC70000220000220000FF
:1001500022025F890230DE0234AD0000220000225C
:1001600000002200002200002202399D000022002F
:10017000002200002200002200002200002202666D
:100180007F000022026937000022000022024AC1DB
:100190000000220000220261620000220000220012
:1001A00000220000220000220000220000220000A5
:1001B0002200002200002200002200002200002273
:1001C0000000220000220000220000220000220085
:1001D00000220000220242C302614F025B66025B02
:1001E0009B02556600002200002202611302610595
:1001F0000000220000220000220000220000220055
:100200000022000022000022000022000022000044
:100210002200002200002200002200002200002212
:10022000000022000022024C5402183F000022006D
:100230000022000022000022000022000022000014
:100240002202687E0000220000220000220000221C
:100250000000220000224109B2004109AC0042091D
:10026000AD00004209AF00004109B1004108C800DB
:100270004108C7004108D3004108C5004108DF001C
:100280004208E500004308D60C04034109D60041AA
:1002900009D7004109D5004109D4004109D30041E3
:1002A0000A9A01410A9B02410A9D004107980041B8
:1002B000079700410799004107A500440731FFFF58
:1002C000FFFF41072B004109590042095A00004233
:1002D000095C0000420956000041095800410955D7
:1002E000004109310042092A000041093200410958
:1002F000330041092900410904FF4109B901410ABC
:10030000C9014508420000000000410858004108AA
:10031000B4004108B500410AD000410AA5024107D6
:10032000A60041083F00410840004108A0004108E4
:10033000A100410AA700410AA601410AA901410AF8
:10034000A801410A9001410A8E00410A8F00410A2A
:10035000AD0041099F004209A201F441099C00003F
:10036000124789787FE4F6D8FD1250D8EFFD900649
:10037000D96003A3DFFD7F277E11C3EF9DFF5001EE
:100380001EE4F0A3DFFCDEFA75810B12471F0203A7
:10039000CC022F1FE493A3F8E493A34003F680015B
:1003A000F208DFF48029E493A3F85407240CC8C3AF
:1003B00033C4540F4420C8834004F456800146F6E9
:1003C000DFE4800B0102040810204080900256E414
:1003D0007E019360BCA3FF543F30E509541FFEE447
:1003E00093A360010ECF54C025E060A840B8E49309
:1003F000A3FAE493A3F8E493A3C8C582C8CAC5834B
:10040000CAF0A3C8C582C8CAC583CADFE9DEE780CF
:10041000BEBB0111F8E58229F582E5833AF583E058
:10042000C828F0E8225009C58229F8C58226C622CC
:10043000BBFE0DC58229F8E2C5822582F2E5822243
:10044000EA2583F583E99322BB010FF8E58229F5BC
:1004500082E5833AF583E028F0225009C58229F825
:10046000E58226F622BBFE09C58229F8E22582F242
:1004700022F8EA2583F583E9932822F8E0FBA3A379
:10048000E0F925F0F0E582158270021583E0FA3874
:10049000F022D083D082F8E4937012740193700D2F
:1004A000A3A393F8740193F5828883E47374029391
:1004B0006860EFA3A3A380DF8F828E83ED7004ECCE
:1004C000600B1CE06455F0A3DDF90204BF22464135
:1004D0005431360000000000000000000000000061
:1004E0000002FAFCFDFEFCFAFA0202FF02FFFDFA2E
:1004F000FAFAFDFF0202FFFF0002020202FDFAFA11
:10050000FF0200FF00020201FFFEFAFEFEFEFCFAFF
:10051000FE02FE02FFFFFDFAFAFAFA0202020101F0
:10052000FFFEFEFEFDFDFDFAFAFF010202020202DD
:10053000FFFD020202020202FD0202FFFAFF0202B6
:1005400002020202020000001A001F0024002A001A
:1005500031003A0043004E005B006B007D009300C9
:10056000AD00CC00F0011A014C018701CC021D0244
:100570007C02EC0370040B04C20599069607C009BF
:100580001E0ABA0C9E0ED83F3E3A3633302D2A272B
:100590002523211F1D1B1917151311100F0E0D0CEC
:1005A0000B0A0907060402013F3D3B393735333159
:1005B0002F2D2B29272523211F1E1D1C1B1A19181F
:1005C00017161514131211100F3F3E3A3633302D03
:1005D0002A272523211F1D1B19171514131211106B
:1005E0000F0E0D0C0B0A0908070614000000066523
:1005F000120007661300015B00005859590064643B
:10060000000003090E13191E2E2C2A292726242345
:10061000211F1E1C1B9006D7EFF0E01313543FFF61
:1006200012B8751230AA9006D7E01313543F25E094
:1006300025E0FF1238009009D87401F022D181EF33
:100640007002FF227F041229C0D1667F011263B2BB
:100650007F1212187274FFFFFE12B8577F08D1156F
:10066000124F927F01229008B5E024F77002D171F9
:10067000227BDF7D30E4FF122A457FC87E00028A9C
:10068000F89008B5E070031256679008B5E07F0057
:1006900060027F0122EF24FC600D24F8600724092A
:1006A0007007022952E1D380947F00229009D9E09B
:1006B000900ABCF0D195EF700E900ABCE0FFD19586
:1006C000EF70047F01D1C822E4900A99F0900A9952
:1006D000E0FEC39403501074D62EF1186F6008909A
:1006E0000A99E004F080E6E4900A98F01297669088
:1006F0000A99F1104002E4F0900A99E024D6F1182A
:10070000FFD195EF7009900A98F11040DFF19B221C
:10071000E004F0E0C3940322F582E43408F583E0BA
:10072000229009D9E0900ABDF0E4FF1240949008AD
:10073000DEEFF064576004E0B44202F18B123FDD5B
:10074000EF60047F03D1AC9009D9E024FD700A1258
:100750002977EF70047F01F1799008DEE0B4141876
:10076000900006E0B4030A9009D9E0B40D03121713
:10077000409009D9E0FFD1C822900ABBEFF0D19593
:10078000EF7007900ABBE0FFD1C822F1AEF1F1D3C0
:1007900010AF01C3C0D012BAA280FEE4FF1229C07C
:1007A000E4FF121872126B2912B9887F0122900897
:1007B00058E0B40102F1C0123FC1E0900859F022A4
:1007C000E4FD123D171217A1122FADF07F147E0029
:1007D000029001F1EA1208267F0C1229C0E4FD7F85
:1007E0000112083B124E897F012274FFFFFE02B8FE
:0B07F0003F7D01E4FF020F2E7F00227E
:0607FD00FFFFFF140108DC
:100807007F002205320007D001F4006401F400C81C
:10081700320AC350271007D014503C140A1E141272
:1008270030BD7F0112B8757F01123800E49009D8F6
:10083700F0029766900A89EDF0900A88EFF0640954
:100847006004E0B40A037F0022900AA4E07002FF6C
:10085700229009DAE0900A8AF012CECF1247EB9085
:1008670009D9E0B40402F12A1126900A88E0FF12A0
:1008770022FE122386EF600512976680F5125D3718
:10088700900A8AE09009DAF0900A89E06005125D23
:1008970043319D7F0122E4900A8CF0A3F0124F4D63
:1008A700EF60129008A2E0700C04F0FB124E7A90F1
:1008B70008A17401F0124F4DEF70199008A2E06083
:1008C70013F1E5400FE49008A2126C2D12B5B2E4C3
:1008D7009008A1F09008A2E06008124F5812B9885A
:1008E7008002319D7B017A0879A312B5E4EF602776
:1008F7009008A1E06021124F4DEF6011125F631263
:100907002E77126C21128AF812078B800AE490085E
:10091700A1126C2D12B5B27B017A0879A912B5E440
:100927007F01124094900A8BEFF024ED603B24AED8
:100937006007146034245470579009DAE0C3942098
:100947005006900A8D1240E6900A8BE0646570406D
:100957009009DAE064207038900A8DE070327D01EA
:100967007F05126C9170298025F1E54005900A8C6E
:10097700D1D3900A8BE0B466179009DAE070119032
:100987000A8CE0700B7D017F06126C917002319D1D
:1009970022F0E4FF71EB9009DAE060419009B2E0E0
:1009A700640170279009D9E0B40407E4FF71EB12E2
:1009B700571E9009D9E0B403087FC0121872122994
:1009C700379009D9E0B40C03125D4C12224FF1E5C0
:1009D7004006124F5812B946E49009B2F022900827
:1009E700BCE014700261A624FD606C240260026101
:1009F700E671FE12B5E4EF700261E6F12A7F01713C
:100A0700EBE49008B3F09008BDE0FF64016004EFE9
:100A1700B40214F1EDFF9009997401F0E4A3F07B9F
:100A2700017D387C048012F1EDFF9009997401F083
:100A3700E4A3F07B017D6B7C03122C9A9008BC74B5
:100A470004F071FE12389B9006F3E0FFA3E09008D4
:100A5700C3CFF0A3EFF02271FE12B5E4EF7002618D
:100A6700E67F0112572F900ACFEFF07002611B1239
:100A77000012900ACFE0B4030871FE7F647E006124
:100A8700E39008BDE06401600261109006F7E0FFA3
:100A9700C39432504C9006F3E0FCA3E0FDC3946B83
:100AA700EC94035013ED2408FE74F82FD11CEEF0DC
:100AB7009006F6E004F0800B124F79FF9006F7D10D
:100AC70019EFF09006F7E00431989008B37401F03D
:100AD700FB7A0879BE7FD07E0712389F1217E58010
:100AE70033126BB0E0400BD11AE024F8FEE4340275
:100AF7008009D11AE0246BFEE434039006F3F0A3D7
:100B0700CEF03199124FB680079008BC7401319826
:100B1700D12B806D9008BDE0FFB4030B1257D09026
:100B270006F3E09403401CEF640260089008BDE000
:100B370064017050C39006F4E094389006F3E09493
:100B4700044041124FB6126C7940329008BDE06400
:100B570001702A120012126BB0E0400BD11AE02488
:100B6700F8FEE434028009D11AE0246BFEE4340372
:100B77009006F3F0A3CEF0D17ED12B8002D17E3147
:100B8700990217E59008BC7402F0A3E09006F3B44D
:100B9700030674FFF5F08004E475F0010281D77154
:100BA700FE12B5E4EF60389008B3E0FFB40203E447
:100BB700F022EFB40106E49008B3F022EFB4031F6C
:100BC7001257D89008B4E0D394004005E014F080A1
:100BD70005E49008B3F071FE7F2C7E0112389F2246
:100BE700D17EE4FF9008B5E024F77005122B44800E
:100BF700037F00227F01227B017A0879BE227F01D1
:100C0700124094900ACEEFF01204920C52010CE9B4
:100C1700020C52030CE9060D0C070DFB120E05130F
:100C27000C46140E0F150D46210C99230D0C2F0C95
:100C370052300DDE3C0C46420C524300000E18D1D8
:100C470039900ACEE0FDE4FF0216FAD12470417410
:100C570004F0A37401F01256FEE4A3F0A3F0A3F08E
:100C6700FE7F32FD7B017A0679F81287C6F12AD119
:100C77007EF1EDFF9009997401F0A3F0FB7D387CBC
:100C870004122C9A7F0171EB71FE7F647E00A1F440
:100C9700C139D1246002C1189006F7E0C3943240ED
:100CA70002C118C31257D19006F3E09403500A12F9
:100CB7006B825005126C9980131257D09006F3E09F
:100CC70094034010126B82400B124F79FE74F82F79
:100CD700D11CEEF0126C397406F071FE7F2C7E0188
:100CE700A1F4126C5E5002C118D1246002C118EF42
:100CF70014FF9006F5E09F5005E004F08028E4908B
:100D070006F5F08021126C5E5002C118D1246002F2
:100D1700C1189006F5E0D394004005E014F0800672
:100D2700EF149006F5F09008B37402F0D1A9319D45
:100D370071FE7FD07E0712389FE49009DBF022D145
:100D4700246002C118124E0BD39400EE9400404564
:100D57009006F7E0FDD3EF9DEE9400503890092AF6
:100D6700E0FCA3E0FD149006F5F0A3E0FFED9FEC97
:100D770094009006F5E0500BD11AE024F8FEE43415
:100D8700028009D11AE0246BFEE434039006F3F0E5
:100D9700A3CEF08017124E0BC3946BEE9403401052
:100DA700D3EF9438EE94045007126C4CD12B801873
:100DB7001217F0F090093204F0900933F0FB7A082B
:100DC70079537FE87E03802571E71217F0F0121739
:100DD70051FFFEFDFC801AD124703612573D1217C1
:100DE700F0F0126C3904F071FE7F2C7E017D007CDF
:100DF7000002B5B2126B2912B9887F018008126B05
:100E07002912B988E4FFC1D89008BCE0B40102F107
:100E17007C22E024F8F582E43406F583229008BCAE
:100E2700E06401227B017A0679F27D3812101D7F7A
:100E370001229008BCE0D39401403BA3E06037E473
:100E47009008B3F0126C794025126BB0E0400BD1DB
:100E57001AE024F8FEE434028009D11AE0246BFE7C
:100E6700E434039006F3F0A3CEF0D17ED12B319971
:100E7700124FB61217E522F1EDFF9008C3EEF0A36B
:100E8700EFF09008B5E024F77005122B5A80037F26
:100E970000229009DBE0B40106126C671217E57FA8
:100EA7000122126B82500E74F82FD11CE024F8FE39
:100EB700E43402800C9006F5D119E0246BFEE4348B
:100EC700039006F3F0A3CEF071E7C12B7401F0E4B1
:100ED700FFEFB4010E9009DAE0C39420500CE00450
:100EE700F08007F1E54003E014F09009DAE0B42060
:100EF700127D017F05126CB8B40C081200FAEF706E
:100F070002319D9009DAE070127D017F06126CB8FC
:100F1700B40C081200FAEF7002319D1217F77F0127
:100F270002000A7D017F01900AB0EFF0ED640170C5
:100F370006124F5812B988900AB0E0B4011D121F6B
:100F4700249009D9E0B40305E4FF1218729009D977
:100F5700E0B40C0FE4FF1218728008E4FDFCFFFEFA
:100F67001227EC9009D9E0B404047F0171EB9009D2
:100F7700B27401F0229009DBE06006E4F0319D8055
:100F87000A9009DB7401F0FDFFF12E900858E0B4D8
:100F9700010312175822910531E5D124703F7B01D7
:100FA7007A0879B612B5E4EF6033E4FF122BDFEF6E
:100FB70020E50F122E409008C3E06E7003A3E06F88
:100FC70060109008BBE004F0E0D39402400971E799
:100FD7008005E49008BBF0126C5512389D229009E9
:100FE700DAE0D39400229006F3E0FEA3E022900912
:100FF700D9E024FC601224F860092409701712292B
:10100700378008125D51800312571E7B017A0679DB
:10101700DD7D01111D22900A361285E6900A39ED11
:10102700F0126BE51227704002E4F01227684002C5
:10103700E4F09006DB745AF09009D9E0FF60049061
:1010470006DCF09009DAE09006DDF0126CA89481D6
:101057004002E4F09009D9E0FBB4011790073AE0A9
:101067009006DEF0900959E09006E3126CA1900615
:10107700DF8019EBB4021890073AE09006E8F09089
:101087000959E09006ED126CA19006E912857012DD
:10109700277812354C90072AEFF0900A361285DD33
:1010A700E94A4B6033900A39E0602D7D5AE4FF121C
:1010B700BA06900A361285DDC3E994DBFF900A363B
:1010C7001285DD900A39E0900A09F01261FE900757
:1010D7002AE0FD7F4F12BA0622C374E8126BF6406E
:1010E7000FE49006E8F07B017A0679E87D01111D8F
:1010F700C374DE126BF6400FE49006DEF07B017AD4
:101107000679DE7D01111DC374DD94DBFF12BFF488
:10111700900AC1EFF09009DAE06F600A7B017A0666
:1011270079DD7D01111D227B007A007900900A6A22
:101137001285E690073AE07014F1D3D3900767E081
:101147009F900766E09E4005E4F0A304F0900A6ACA
:101157001285DD9005131285E6900766E0FFA3E090
:10116700900516126A087A077968129C6BEF700768
:10117700900A9C7405802B7B017A0779777D0B1287
:10118700354C900959EFF07B017A0679DB7D5011D8
:101197001D7B017A07796812CEE6EF7009900A9CE9
:1011A7007407F07F00229003F312857C0000000093
:1011B70090079FE0601DE4F01251679003EF1284DF
:1011C700D39003F3123472400A9003F312857C0024
:1011D7000000001248ACEF7F017001FF22E4900A83
:1011E7006DF0A3F07F01124094900736EFF090075F
:1011F70035E06406700261F1A3E012049213100651
:1012070013220712B90C124712127813130B151376
:101217005E2113342613342713482813482913341F
:101227002A13482B13102C13222D12F12F12A6303C
:10123700135E3C13C363124765127866000013F10F
:101247009009DAE0C394205006900A6E1240E690A7
:101257000736E06465600261F19009DAE0642060B6
:101267000261F1900A6EE0600261F17D017F058005
:1012770029120FE54006900A6D120ED3900736E04B
:101287006466600261F19009DAE0600261F1900A38
:101297006DE0600261F17D017F0612083B61F1900C
:1012A7000737E0B40304E4F080399007377403F09C
:1012B7008031900737E0700404F08005E490073729
:1012C700F0900737E0B4040B90073A7401F09007E9
:1012D7006A8008E490073AF0900768F1DCF0A3EF22
:1012E700F0B1AB7F0112562461F1900738E004F0AA
:1012F700E0C3940B4002E4F012493DB1AB7F011209
:10130700562A61F1120F7C61F1B19B500261F19194
:10131700C9E4FFB190600261F18022B19B50026184
:10132700F191C97F01B190600261F18024B19D50B4
:101337000261F191C97F02B190600261F17D06807F
:1013470012B19D500261F191C97F03B190600261B2
:10135700F17D07F13C61F1124E0BC390002DE09F28
:1013670090002CE09E402E126001402990073AE041
:101377007023900766E06E7003A3E06F601791C952
:1013870090092AF1DCF0A3EFF0F1F0F0312EEF70C5
:10139700047D06F13CF1D3126BD99E4011D3ED9435
:1013A70000EC94004008F1517FE87E038006F1517C
:1013B7007F007E0012389FF1F0F0802E9007A6E0A4
:1013C700B40127E4900A6FF0900735E0B4020912E0
:1013D7004801900A6F7401F0125A079007A6740229
:1013E700F0900A6FE0B4010291EB900735E06402D8
:1013F7006016900799E0701004F0FB7A07799A124B
:101407004E7E9007A57401F0900735E0B4020C906A
:101417000799E06006E4F09007A5F09007A5E06063
:10142700347B017A07799A12B5E4EF602890073583
:10143700E06402600E122E77126C21128AF81207EE
:101447008B8012E49007A5F07B017A07799AFFFE5B
:10145700FDFC12B5B2900735E014601024FE60075A
:1014670004700C91EB80081248018003124FDF9043
:10147700072BE0600D125F7DEF6007E490072BF00C
:10148700802690072BE07020125F7DEF701A90077F
:101497002B04F0900735E0B4020EB1EAEF2401FF08
:1014A700E43E1227CF125185B1EA90073112347208
:1014B700600F124AB2400AB1EA900731128570B143
:1014C700AB227B017A07796812A68F9003F3128506
:1014D7007C00000000F140E4FDFF120F2E7F647EC8
:1014E70000028AF8124AA7600612CEB0EF700F907A
:1014F7000737E0640370227F0A124AB4401B91C980
:10150700900737E064016004E4FFB1F0312EEF701B
:10151700087D067F01D1FA80427B017A0779A01204
:10152700B5E4EF60189009DBE07012900797E07060
:101537000C12099D124E149007977401F012484B34
:10154700EF701A91C9900739E0FF64026003EF70EA
:10155700047D0680027D077F01D1FAE140900736BE
:10156700E024FE600B24FE60181460152404701834
:1015770012CECF1247EB9007357403F01207F180B4
:1015870004124831F012483922B1F0E49009DBF037
:10159700312EEF22F1E5D390002DE0940190002C3D
:1015A700E09400229009D9E0FBB40107B1EA900664
:1015B700E48009EBB40208B1EA9006EE12857012D6
:1015C7006BE59009D9E0B401087B017A0679E480DC
:1015D7000D9009D9E0B4020A7B017A0679EE7D0401
:1015E700111D229003F30284D3900A2AEFF0F1D35E
:1015F700900A2BEEF0A3EFF04E7002C1F990073777
:10160700E024FE7002C1A6240224FB5002C1EE9022
:101617000A2AE0FFB4020D900A2D740AF0E4900A3A
:101627002AF08012EF900A2DB40308740AF0900A8A
:101637002A80007401F0900A2AE07032900A2DE0A7
:10164700FF7E00900767E02FFD900766E03EFCC332
:10165700900A2CE09D900A2BE09C9007665007E4C7
:10166700F0A304F0C1EEEE8FF01281D78079900AD3
:101677002AE064017071900A2DE0F9FF9007661265
:101687006BDC94005007900A2BF1DC8056E9FFC30E
:10169700ED9FFEEC9400900766F0A3CEF080489093
:1016A7000A2BE0FEA3E0FFFBAA06E4F9F890061177
:1016B7001284D3128358EB2401FFE43AFE900766A5
:1016C700E0B5060AA3E0B507050FBF00010EC390FA
:1016D7000A2CE09F900A2BE09E50047E007F019029
:1016E7000766EEF0A3EFF0900A2AE0900739F012B0
:1016F700001922900A2EED1240F812810FC39408A8
:1017070040037F0022900A2EE0FFA31285DD9000A0
:10171700017401120411FD1280F62DFD7C00ED54B9
:1017270007FD900A2F1240EDE92DF9EC3AFAEF1276
:10173700813C7F01227F01D1FA9007357401F022A5
:10174700E490085AF07D01FFF1A17B017A087953F3
:10175700229009D9E024FC602104703D123DE2701B
:101767001190085A123D2B7D01E4F14E7FE87E036C
:101777008024F1477F007E00801C123DE2701190AB
:10178700085AF0123EFFE4FDF14E7FE87E03800623
:10179700F1477F007E0012389F22900A9FEDF0905C
:1017A7000A9EEFF07010A3E07D017F01600512B97A
:1017B70088800312B946900A9EE0B4010EA3E07D2B
:1017C700207F0A600302B98812B9462290002CE0F4
:1017D700FEA3E0FF22E0FFA3E0900766CF22900878
:1017E70058E0B4010312563C22E490092AF0A322E0
:1017F700120FF59009DAE070109009B2E0700A90C4
:1018070009DBF07D01FF120F2E9009B2E0B4010948
:10181700120FE54004A37401F09009DBE0B4010561
:10182700E4F012099D229005BFE0B40508A3E0B4D7
:10183700AC037F01227F0022112D9006ACEFF0222E
:10184700124A9430E0027F019008C6EFF0909901A8
:10185700C083C082E0FFA3E04401D082D083CFF0F1
:10186700A3EFF0909C06E04480F022900AB5EFF0D9
:10187700F1D554449008C7F0900AB5E0F0FF9008FE
:10188700C8E0B50706D1B1700221E0900AB5E07053
:101897001E909C49E0540960029172D1AA6002B17E
:1018A70016909C49E05412700221D031E121D0906A
:1018B7000AB5E0FF5409603FD1AA6007EF542470CE
:1018C70002B116909C49E054126020F1DC701CEFC5
:1018D70054C070179008C8E05412600431E1800BBF
:1018E7009008C8E054C060031221BA909C49E054A4
:1018F700096409600291BDF1DC6035909C49E054B0
:10190700096007EF540970029172D1AA600A900A20
:10191700B5E054247002B116909C49E05412600B54
:10192700E05412FFD1B16F600231E1D1B1FF51999B
:10193700900AB5E0FF54246024909C49E054096064
:1019470007EF540970029172909C49E05412600BA2
:10195700F1DC7007EF54C0700231E1B15E900AB557
:10196700E0FF54C06063909C49E054096007EF545E
:101977000970029172D1AA600A900AB5E0542470E6
:1019870002B116909C49E054126006D1B170023141
:10199700E1909C49E05412FFB412047FC0800EEF1F
:1019A700B402047F408006EFB410027F80EFD39427
:1019B70000400C900AB5E054C06F60031221BA9042
:1019C7000AB5E054C0FF122035900AB5E0FF900831
:1019D700C8E06F6002EFF0F107227F01120BEBF115
:1019E700B45004AF068000900AB3EFF0909C41E03A
:1019F7009008D2F0909C42E09008D5F0900AB3E0AE
:101A0700C394405014129766900AB3126C70F09109
:101A17008B900AB3E004F080E3B109909C4FE05447
:101A27009F51745161909C4FE054E75174909C4CC6
:101A3700E054FCF07F147E005179122A1D9153EF78
:101A4700F47002EEF460129153EFF47003EE64FE4B
:101A57006007909C48E04401F022909C49E054EDD7
:101A6700F07F027E005179909C4FE054F9F07F029D
:101A77007E00900A94EEF0A3EFF0900A9474FFF5BD
:101A8700F01281ED45F06009129766918B918B807A
:101A9700E922900A61EFF0909C4E916A909C4DE08C
:101AA700543F900A63F09153EFF47002EEF4601222
:101AB7009153EFF47003EE64FE6007909C48E05486
:101AC700FEF0909C4CE04403F0909C41E4F0A3F0BE
:101AD700909C4FE044185174909C4FE0440151741E
:101AE700909C4FE044065174909C49E04412517415
:101AF7007B017A0879CB7F107E2712389F9008C523
:101B0700E0600261CB909C4BE020E058909C4BE05A
:101B170030E00261C5F1C1600261C59153EFF47015
:101B270002EEF4600B9153EFF47003EE64FE702243
:101B3700900A62E014915C909C4EE07023ED643F44
:101B4700607C900A627440F0A3E025E0F04401F065
:101B5700800E900A62E014909C4EF0916AE0605EFD
:101B6700F1CF80A8909C4BE030E053909C4BE03045
:101B7700E04CF1C170489153EFF47002EEF4600B42
:101B87009153EFF47003EE64FE701F900A62E00455
:101B9700915C909C4EE0643F7020ED6021900A625A
:101BA70074FFF0A3E0C313F08010900A62E0049082
:101BB7009C4EF0916AE0643F6004F1CF80AD9008DD
:101BC700C57401F05161909C4FE054FE5174126B43
:101BD700D0909C4FE044065174909C49E0441251C8
:101BE70074909C4FE0446051741200219008C7E044
:101BF7007003126C81B1101221AD5004AF06800042
:101C0700900A63EFF0900A62743FF0900A63E0FF76
:101C1700900A62E0D39F40281221A4900A62E0FE56
:101C2700C39F4005909C41EEF012219B4008900A0B
:101C370062E0909C42F0918B900A62E014F080CBB6
:101C47001221929008D5E0909C42F02290966BE08A
:101C5700FEA3E0FF22909C4EF0900A63E0FD909C6B
:101C67004DF0A3E0543F900A62F022909C01E044BB
:101C770003F1A5B109909C48E04422F1AC54F6F178
:101C87009D4411F012B8A0EFFD7C007E017F9012F9
:101C97008182EF2401FFE43EFE909904E020E00BEF
:101CA700EF7802CEC313CE13D8F9FFEF1FAC06703F
:101CB700011E4C70F622909C437403F0A3F1AC44D0
:101CC70009F19D54EEF19D54DDF0918B9153EFF4A2
:101CD7007002EEF460089153BEFE0ABFFF07909CA6
:101CE7004374028005909C437401F0A3F0F1E47003
:101CF70008909C48E054BBB10F126CB07F507E0037
:101D07004179909C48E04444F07F0A7E004179F194
:101D1700B45004AF068000900AB2EFF0909C41E007
:101D27009008C9F0909C42E09008CAF0900AB2E08F
:101D3700C394405013129766900AB2126C70F196D2
:101D4700900AB2E004F080E4B109909C49E054DBCA
:101D5700F07F037E004179126BD0F1AD4424F091FE
:101D67008B909C47E04403F07FF47E015179909C6F
:101D770047E054FCF0F1E47003126C81B110F1B448
:101D87005004AF068000900A96EFF0A3743FF090DE
:101D97000A96E0FFA3E0D39F40321297669008C9E6
:101DA700E0FF900A97E0FEC39F4005909C41EEF04C
:101DB7009008CAE0FFEEC39F4008900A97E0909C06
:101DC70042F0918B900A97E014F080C39008C9E025
:101DD700909C41F09008CAE0909C42F022AE079098
:101DE70008D3E0707C1147AF06D169909C00E4F0FE
:101DF700909C49E04440F0918B1230A27481F0909E
:101E07009C0014F09153EFF47002EEF460089153C4
:101E1700BEFE0DBFFF0A909C437402F0A3F0800D35
:101E2700909C437401F0A3F0909C4AE4F0909C04CA
:101E3700E4F01228DA7411F09008D2740AF09008CE
:101E4700D5F0909C41F0914AE49008C8F09008D3EF
:101E570004F0909C01E04403F07F327E005179F159
:101E67000722900AB1EFF0126C05B10F909C45E084
:101E770054FAB10F909C46E0547FB10F909C46E016
:101E870054DFB10F909C46E054EFF0900AB1E0FFA9
:101E9700126C1312389F909C4BE020E305F1C16050
:101EA700F52222909C49E0542422900AB5E054126E
:101EB70022AE071147909C46E04410F0AF06126C23
:101EC7001312389F909C4BE020E204F1C160F51299
:101ED7006C05F196909C46E04420F0918B909C45D0
:101EE700E04405F0918B909C46E0547FF196909CDE
:101EF70049E054BFF0918BE49008D3F09008C8F004
:101F07009008C6E07016124A9CC083C082E0FFA307
:101F1700E054FED082D083CFF0A3EFF022F1D55466
:101F270044FFBF44028066909C49E05409600890D2
:101F37009C01E04403F1A5D1AA7005E05412603E6C
:101F4700D1AA600AF1B45004AF06800B80091221B0
:101F5700AD5004AF068000900AB6EFF0900AB6E0E5
:101F6700C3943F5016129766900AB6E004F0E05407
:101F77003F909C41F0A3F0918B80E1126BD0909C35
:101F870048E0544464446005E04444F1A5E107F0A7
:101F97007F017E004179F0918B909C48E022F07F91
:101FA700507E004179F0918B909C49E0229008CABD
:101FB700E0FF9008C9E0FEC39F221297667B017A73
:101FC7000879CB12B5E4EF227F057E0041791147EE
:101FD700909C48E022900AB5E0FF541222918B9022
:101FE70008C7E022900A5EEFF0A37401F01297662B
:101FF700909C46E054F0900A60F0E0FF900A5FE0A2
:10200700FEEF4EA3F0900A5EE0B4010BEEB40707B3
:10201700900A60E04408F0900A60E0909C46121D28
:102027000F900A5FE004F0E0C3940840C022900AD2
:1020370064EFF030E602318A900A64E0FF30E7028D
:102047003182EF30E606909C41743FF0900A64E0DD
:1020570030E706909C42743FF0900A64E0FF30E658
:1020670002317AEF30E7023172121A75900A64E092
:10207700FF30E6023116EF30E702310E121A759083
:1020870008C7E06444601A900A64E0FF30E60790EE
:102097009C48E054FBF0EF30E707909C48E054BFC2
:1020A700F0121D1031AD5004AF068000900A65EFA5
:1020B700F0A3743FF0900A65E0FFA3E0D39F40359B
:1020C70031A4900A66E0FEC39F400C900A64E0309A
:1020D700E605909C41EEF0319B400F900A64E0309A
:1020E700E708900A66E0909C42F0121A75900A661B
:1020F700E014F080C0900A64E0FF30E6023192EF0E
:1021070030E703121C4A22909C4FE04420F02290B3
:102117009C4FE04440F022900AB7EFF01218479026
:102127000AB7E0FF30E602318AEF30E702318290EA
:102137000AB7E030E602317A900AB7E030E70231B9
:1021470072121A75900AB7E0FF30E6023116EF30C7
:10215700E702310E121A75900AB7E0FF30E6023136
:1021670092EF30E703121C4A021F07909C49E04494
:1021770010F022909C49E04402F022909C4CE044ED
:1021870008F022909C4CE04404F0229008D2E090A2
:102197009C41F0229008D5E0FFEEC39F221297667C
:1021A7009008D2E0FF229008D5E0FF9008D2E0FE29
:1021B700C39F2231AD5004AF068000900AB4EFF000
:1021C700900AB4E0D3943F502C129766909C49E054
:1021D70030E108900AB4E0909C41F0909C49E030CF
:1021E700E408900AB4E0909C42F0121A75900AB481
:1021F700E004F080CB909C49E030E107909C48E0F8
:102207004404F0909C49E030E407909C48E0444047
:10221700F0121D10909C49E030E103123062909C4F
:1022270049E030E40312305A121A75909C49E030A5
:10223700E104E054FDF0909C49E030E404E054EF01
:10224700F07F027E00021A79121FD55444700241B2
:10225700F2126BD0909C48E05444600BE054BBF002
:102267007F1E7E00121A79909C49E0540960031280
:102277006CB0121EAA7005E05412606F121EAA609D
:1022870010121FB45004AF06800051F59008CA80A1
:102297000D31AD5004AF06800051F59008D5E090A0
:1022A7000A24F0900A25743FF0900A22E0FF900A72
:1022B70025E0C39F4035129766900A25E014F090F9
:1022C7000A23E0FF900A25E0FEC39F4007EE543F34
:1022D700909C41F0900A24E0FFEEC39F4008A3E0E2
:1022E700543F909C42F0121C8B80BE021F07900A3D
:1022F70022EFF0A3EEF022900AD3EFF090083F749C
:1023070001F0125CFAEF7002FF2212C7F790081B68
:10231700E0FF126075900AD3E0FF7E00E4FD912D87
:10232700EF7002FF22717971AAEF4E7002FF2271DE
:102337007912CDA0900AD3E0FF640A6009EF64091F
:102347006004EFB408089009DA7410F08006900969
:10235700DA7418F07F0912187290081D1249C451D7
:102367004F124F5812B946F1DD124E1412CEB87FF4
:102377000122900403E0FEA3E0FF7D007C0222120D
:102387005CE7EF60037F002212BD13EF70037F014C
:1023970022717971AAEF4E7002FF22717912CDA0D6
:1023A7007F0122900A46125551EDF09008091284D8
:1023B700D39007F91284DF1282B2C006C007900AD1
:1023C70046E0FEA3E0AA06F97B01A3E0FFA3E090A5
:1023D7000980CFF0A3EFF0D007D006B1CC90080961
:1023E7001284DF900A48123F9B1282B290080912AA
:1023F70085709007F8E07025900809F1C5E4FB7A2D
:1024070002F9F81283589007CE1285709007CED143
:102417004E1284DF1282B29007CA128570900A4862
:10242700E0FEA3E0FF22AB07AA06900A85EDF0A322
:10243700E4F0A304F0EDD3940240037F0022900A56
:1024470085E0F9701B9007E0B1A340037F0022905D
:1024570007E2E02BFEE43A900A86F0A3CEF080383C
:10246700E9640170219007E1B1A340037F00229046
:1024770007E2E02BFFE43AFE9007E0F1E4900A86DA
:10248700F0A3EFF080129007E2B1A340037F002290
:10249700900A86EAF0A3EBF09007F7EBF0A3E9F0D8
:1024A70090080912857C00000000900A87B1B4905B
:1024B7000A86B1AC2410FFE43EFEE4FCFD7A0779FE
:1024C700F97B01900980F0A37410F0B1CC900A85D4
:1024D700E06002A1A074FFFFFEFDFC9007FD12342F
:1024E70072700D9007FD12857C000000007F0022AE
:1024F7007E007F2F7D007B017A0779A71287C67E32
:10250700007F047D307B017A0779B61287C678BAD7
:102517007C077D017B017A0879017E007F041280A8
:10252700D078BE7C077D017B017A0879067E007F23
:10253700031280D09007FD1284D39007D2128570C2
:102547009007FDF1C5E4FB7A02F9F812835890076A
:10255700C61285709007DFB1B49007DEB1AC2420B6
:10256700FFE43EFEAB07FAE4F9F89007F9B1C6E4D9
:10257700FB7A02F81283589007C21285709007C23F
:102587001284D39007CA1285709007CE12857C00FB
:102597000000009007C17401F07F0122E0FFD3EB38
:1025A7009FEA940022E0C454F048FEEF22E0C4F80A
:1025B700540FC868FF229008ED1284DF9008F112CB
:1025C70084D30282BF90097912857090097D1285A4
:1025D700E690097D1285DDE94A4B6051900980E05C
:1025E700FEA3E0FF4E604690097D1285DDC3EA94A5
:1025F7000F40167E00EF5403FF600E74049FFFE444
:102607009E9009808FF01281D7900AA4E0B4030C42
:10261700D14090093BD1351258248011900AA4E08B
:10262700B4010AD140900951D13512588022CFF018
:10263700A3EFF09009790284D390097D1285DD908C
:102647000980E0FFA3E0221284D390078322F17868
:1026570012354CAB079006D8E020E0669006DBE029
:10266700645A705E90072AE06B70579006D8F09016
:1026770006DCE09009D9F1A640037419F0F1704027
:1026870002E4F0F1684002E4F0F1B5F09009D9E016
:10269700FAB4010CF18DD14E1285709006E4800ECC
:1026A700EAB40212F181D14E1285709006EE1251F2
:1026B70082E490073AF0126CA894815002E167E433
:1026C700F0227E007F527D007B017A0679D912873E
:1026D700C67A0679DB7B01900A0E7450F0E4FF128C
:1026E700625EF17812354CAB079006DBE0B45A070F
:1026F70090072AE06F601E9009557401F0E4900678
:10270700D9F0A3F0A3745AF0A37401F0F199F0A3E0
:102717007419F080489009557401F0F1D79009D9E0
:10272700EFF1A640037419F0F1704002E4F0F1688C
:102737004002E4F0F199E0FBB4010C9006DEE09072
:10274700073AF0F18D800EEBB4020F9006E8E090A7
:10275700073AF0F181D14E128570F1B5F01210E011
:10276700229006DAE0C39405229006D9E0C3940BC1
:10277700227B017A0679DB7D4F229006EDE09009F6
:1027870059F09006E9229006E3E0900959F0900687
:10279700DF22E49006DEF09006E8F09009D922F0F7
:1027A7009006DDE0543F9009DAF0D394202290069A
:1027B700D9E0900738F09006DAE0900737221284C4
:1027C700D3EF24FFFFEE3401FEE43DFDE43CFC22A1
:1027D7009006DCE0FF227F327E00028AF8E07C0070
:1027E7002FFFEC3E22900A1E125551EDF0121847AA
:1027F700121C53EFF47002EEF4605F121C53EFF4F7
:102807007003EE64FE6053900A1EE0FEA3E07802B8
:10281700C333CE33CED8F911C2900A1EEEF0FAA315
:10282700EFF0FBA3E0FEA3E07802C333CE33CED8AC
:10283700F911C2900A20EEF0A3EFF0D3EB94EAEA85
:10284700940B4005900A1E11D2D3900A21E094EA16
:10285700900A20E0940B400211D2900A1E11CAA3DD
:1028670011CA900A1EE0FCA3E0FDECC454F0FBA3E0
:10287700E04B9008D0F0AF05A3EFF0900A20A3E05B
:102887009008D4F0909C04EFF0909C02E0540FF075
:10289700C083C082E0FF9008D0E0FE54F0FDEF4D0A
:1028A700D082D083F09008D4E011DAE054F0F0E061
:1028B700FFEE540FFEEF4EF0021F07FF7C007D0571
:1028C700028182E0540FF0A3E0F022740BF0A374AE
:1028D700EAF022909C03F0909C0222AE0712184760
:1028E700EE543FFEED543FFD121EAA600A9008C940
:1028F700EEF0A3EDF08012909C49E05412602E9008
:1029070008D2EEF09008D5EDF0909C48E020E20B5D
:10291700909C41E0543F6E6002EEF0909C48E020AE
:10292700E60B909C42E0543F6D6002EDF0021F07FA
:102937009009DAE0FFAE07EE90058793FDFF809BD5
:102947003137126C67124F8902101D3177EF700211
:10295700FF221207EA1208267F0331C0E4FD7F0237
:1029670012083B126B4A7FC012187231477F01224F
:1029770090960BE04410F090960EE054EFF0A3E031
:1029870054EFF090960CE054EFF0125A79909609B4
:10299700E030E40BE49009D5F09009D3F08014906F
:1029A70009D3E0C394145005E004F080069009D5DC
:1029B7007401F09009D5E0FF22900ABAEFF0900970
:1029C700D9E024FD601C24F760252408702C900AA8
:1029D700BAE064046024511D120826E4FF1263B2B2
:1029E7008018900ABAE064036010124000800B90D0
:1029F7000ABAE0640C6003125D62900ABAE09009BB
:102A0700D9F0900AA7F0120F2AE49009DBF0F1CE73
:102A1700120F920217E5120E39120F2A7F01120BBD
:102A2700EB5130126B2902B9469008B5E024F770D4
:102A370002513B227F0171447B207D30E4FF900AE5
:102A47007DEDF0A3EBF0900A7CEFF071DF900A7D4B
:102A5700E0FEF45FFFA3E05E4FFD900A7CE0FF7E9F
:102A6700008019E4FFFE51837D807F4F7E005183F4
:102A77007F4F71DFEFC313FD7F4F7E00900A3EEE5D
:102A8700F0A3EFF0A3EDF0A37408F0900A41E0146F
:102A9700F06019900A3EE0FCA3E0FD7B017A0A7919
:102AA70040900964D16B125492EF60DF7F01227D61
:102AB70081E4FFFE51837F0A7E00128AF8E4FD7FDE
:102AC70001FE51837D017F157E0051837D087F16AE
:102AD7007E0051837D5C7F177E0051837D477F5445
:102AE7007E0051837DC47F19D1187F407E005183BA
:102AF7007D9E7F337E0051837DD67F2D7E0051835F
:102B07007D107F437E0051837D397F477E0051834F
:102B17007D11E4FFFE51837DA97F1D7E0051837DDA
:102B270040517F7D0C7F347E0051837D337F357E1E
:102B37000051837D127F367E0051837F01EF600451
:102B47007D3080097FC87E00128AF87D107F4A7E1B
:102B5700004183900AA2EEF0A3EFF07D7A7F49D17E
:102B670018D10A7D527F2C7E0051837D507F457E90
:102B77000051837DCA7F417E005183D11F64A670B7
:102B870003EE64036024EF64AB7003EE6403601A22
:102B9700EF64B97003EE64036010EF64E67003EE50
:102BA70064036006BE040CBF18097F0171DFEF44A0
:102BB7004080077F0171DFEF54BFFD7F017E005129
:102BC700837F017144D11F914C7D13516A1227DD18
:102BD7007D707F497E004183900A79EFF0E4A3F08E
:102BE700A37408F0900A7BE014F06018900A79E06B
:102BF700FD7C007B017A0A797A90096DD16B1255B9
:102C070001EF60E0900A7AE0FF227D7A7F497E003B
:102C170051837D78D10A7D757F277E0051837D039F
:102C27007F387E005183E4FD7F2FFE51837BC07D7B
:102C3700C07F3A51457B147D3F7F0151457D897F98
:102C4700397E004183900AA0EEF0A3EFF0E025E083
:102C5700FF900AA0B1FCF0B1E47F08B1E07F09B1B1
:102C6700E07F077E005183900AA0E0FCA3E0FDEC23
:102C77005403FBEDAE047806CEC313CE13D8F95434
:102C87000C4BFB900AA0F1E44B4440FBFD7F0A7E0E
:102C9700004183900994125551EDF0A3EBF0900990
:102CA7009AE060029111900999E0606C900995E0B3
:102CB70025E0FF900994B1FCF0FD900997E025E02D
:102CC700FF900996B1FCF07F08B1F2D1107806CEDB
:102CD700C313CE13D8F9540C4D90099BF090099665
:102CE700A3E0FD7F09B1F2900996F1E4FFED4FFFF4
:102CF70090099BF0900998E0C4333354C04F900972
:102D07009BF0FD7F0A7E0051837B027D03E4FF5128
:102D170045E4FD7F4FFE4183D110FF914C7D11515A
:102D27006A7D12E4FFFE4183900A7FEFF0E4FF71B2
:102D3700DFEF30E10B900AD0E0D394195002A1D70E
:102D4700E4900AD0F0900A7FE06005D140126C4C05
:102D57007F0471DFEF20E3757F3C7E00128AF81253
:102D67000FEDFFC394B6EE94034009D3EF94BAEE88
:102D770094034012C3EF941FEE94044012D3EF94D0
:102D870023EE94045009B1EB941E400C7F0122B14D
:102D9700EB940A40037F0122E4900A81F0900A80B5
:102DA700F0D1777F0471DFEF7F0130E0027F009081
:102DB7000A81E02FF0E0D3940340037F0122900AB9
:102DC70080E004F0E0C3940A40D77F00227F00220E
:102DD700900AD0E004F07F03227E005183900AA07E
:102DE700A3E0FD227F0271DFEFD3227E00518390A3
:102DF700099BE0FD22E033FEEF2450FFEE34FBF0A9
:102E0700A3EF227F1B7E004183900994E0FEA3E09D
:102E1700227E0051837D7022900AA2E0FEA3E0FF8C
:102E27002251B67F6B7E03715A7F1471DFEF54C056
:102E37004407FD7F147E0041837F0A71DFEF54034F
:102E47007F00FEC006C0077F0771DFEFFDD0E02DD2
:102E5700FFD0E03400FEEF24B0FFEE3404C313FECE
:102E6700EF13FF227401F0A3F07F2022E054BFF09C
:102E77007F027E00028AF8E4900906F07B017A0956
:102E87007907FFFEFDFC12B5B27D807F1D12B98860
:102E97007D807F1E12B9887D807F2012B9887D8052
:102EA7007F2112B94690961DE054DFF0A3E044203D
:102EB700F0909620E04420F0A3E04420F090961C88
:102EC700E054EFD17690961DF1C5F0909620F1BCB5
:102ED700F090961CD173909602E054FBF0A3E04467
:102EE70004F0909605E04404F0A3E04404123F93F5
:102EF700D176909602E054FDF0A3E04402F090965C
:102F070005E04402F0A3E04402F0909601E054FD8E
:102F1700F07F027E00028AF8125DD01207EA12B82B
:102F2700CC1297661230BD12380CD2AFF1DDF1AD7D
:102F3700F0909601D17312518BF1CE123F529096B9
:102F470002F1C5F1B8F0909601E04440D176E4FD76
:102F5700FF125D7F124F5812B988E4FF123D35E426
:102F6700FF121DE41226551237AF125AF0123835E8
:102F7700129766124C821207219009D9E024FE604D
:102F87000E14601A14600D24F8600E240B701212D0
:102F970011E4800D120F9D800812089D80031240D6
:102FA7001C123FB780CA909602E04440F0A3E05459
:102FB700BFF0909605E04440F0A3E0444022E0547F
:102FC700BFF0A3E04440227E007F1E7D007B017A94
:102FD7000879600287C6C28AD2AAD2AF22E0C4F8B3
:102FE70054F0C8A3E0C4540F48543022EF909C50CB
:102FF700B40105E054FCF022E04402F0E054FEF096
:10300700221218479008C8E05412702E909C49E08D
:1030170030E1021162909C49E030E402115A121A21
:1030270075909C49E030E104E054FDF0909C49E044
:1030370030E404E054EFF0121A75909C4CE030E253
:1030470004E054FBF0909C4CE030E304E054F7F0CC
:10305700021F07909C4FE054DFF022909C4FE054F2
:10306700BFF022121847909C00E4F011A274A3F05D
:10307700909C007480F09096417420F07D037F1D32
:1030870012B9467D037F1E12B9887D047F1D12B9D0
:10309700887D047F1E12B946021F07909C05744263
:1030A700F0A322909904E054FEF090980DE054FEAE
:1030B700F0E0440EF02290B004E030E3F990980D70
:1030C700E054F1F0E04401F090981FE030E0F9900F
:1030D7009904E04401F022A2AFE433900AB8F0C2A9
:1030E700AF9005FE1284D39006111284DF1282B2CC
:1030F7009005FB1285DD1284959005FB3119E412CA
:10310700814E900AB8E024FF92AFD080D080229001
:10311700069D1285DD900004229008E8EDF0A312C9
:1031270085E69008E7EFF090053EE0FEEFD39E506E
:10313700179008E7E0C39401400E9005451285DD1E
:10314700E94A4B6003EE70037F00229008E7E01422
:103157009008ECF09008E8E0FF9005451285DD90B7
:1031670008EC914DEF12814E9008E91285DD12BFF0
:103177003F9008ED1285709008E8E0640360024113
:10318700B4A3311912810FD39406400312BE909154
:10319700319008F1128570715C78009008F1128403
:1031A700D3128358EF2402FFE43E1227CFE47B07B4
:1031B700FAF9F8128358AF039008F5EFF09008E991
:1031C700311912810FFEC39F4013EEFF9008F5E0FF
:1031D700FDEF9D9179715CF81282CD80279008E907
:1031E700311912810FFF9008F5E0C39F9179715C47
:1031F700F81282CDC374809FFF743A9EFE74099DB6
:10320700FDE49CFCC006C0077163900001D007D0A5
:10321700061284AF7163717AFAC003C002C001124B
:1032270084459008F11284DF1282B2D001D002D017
:10323700031284957156918E9008ED12857090084F
:10324700F17159780091589008ECE075F006403319
:10325700716A717AFAC003C002C001128445C004C2
:10326700C005C006C0079008F11284DF9008ED1270
:1032770025C6913DAB07D007D006D005D0041282F2
:10328700B26118716A717AFAC003C002C001128470
:1032970045C004C005C006C0071225BD913DAB0758
:1032A700D007D006D005D0041282BF80649008E80A
:1032B700E0640270677156918E9008ED1285707107
:1032C7005C780091319158400E9008F11284DF909C
:1032D70008ED1225C680131225BDC374809FFF74A5
:1032E700519EFE74019DFDE49CFCC006C0077163FE
:1032F700900001D007D0061284AF7163717AFAC0CB
:1033070003C002C00112844590B1061284DF128205
:10331700B2D001D002D00312849580259008E8E04E
:10332700B4011E91319008F11285709008ED128456
:10333700D3C006C0077163900001D007D00612847E
:10334700AF9008E7E0FF12C1CB12BA257F012290A8
:1033570008ED1284D37B807A517901229008ECE042
:1033670075F006A4FF9005451285DDE92FF9EA35CA
:10337700F0FA22E92401F9E43A22900A1512857C31
:1033870000000000E4900A14F090053EE0FF900A68
:1033970014E0FEC39F4002812EEE71679000051274
:1033A700810F64017079914412810FFBB4020F9170
:1033B70031EF2480FFEE3451FEED34018011EBB480
:1033C70003139131EF2480FFEE343AFEED3409FD0B
:1033D700E43CFC800A914412810FB40108913190BA
:1033E7000A15128570900A1471669000011284659F
:1033F700900A1591726021900A1471669182919CCE
:10340700C312840E6012900A1471669182EF24FE33
:10341700919FC312840E7007900A14E004FF229054
:103427000A14E004F061907F002290B1060284D371
:103437001284DF1282B2A804A905AA0622900545C4
:103447001285DD900A14E075F006A4F58285F083F5
:1034570022128358AC00AD01AE02AF039008F112FF
:1034670085709008F11284D39008ED1284DFC302AF
:10347700840EFFE49400FEE4FCFD22900001128517
:103487000B900A150284D37800128358AC00AD0163
:10349700AE02AF0322EF24FFFFEE34FFFEED34FF51
:1034A700FDEC34FFFC22A2AFE433900AB9F0C2AFBF
:1034B700311612810F701E128445125CCC900611D2
:1034C7001225C6E4FBFAF9F8C31283F85007311640
:1034D700740112814E900AB9E024FF92AFD080D0D8
:1034E70080311612810FFF22900958E0705090002A
:1034F70006E064017020129FB8129FDF9006DF91EB
:1035070072703BB1467D0BB14C9006E3E06F702EB5
:1035170090095804F022900006E064027020129F80
:10352700B8129FDF9006E991727013B1467D0BB117
:103537004C9006EDE0B507069009587401F022900B
:1035470003D80285DD900A3A1285E6900A3DEDF030
:10355700E4FE900A3DE0FD14F0ED6024900A3AF194
:103567008F1280F66EFEE4FFEFC3940850E4EE304E
:10357700E007C313648CFE8004EEC313FE0F80E8DC
:10358700AF062290093F1285709009431285E69095
:103597000946E07002A3E07002C14790093F128418
:1035A700D3EF5401FFE4FEFDFCFBFAF9F8C31284E4
:1035B7000E601A90093F12853B900943F18F1280E4
:1035C700F6D15690094674FFF5F01281D77F06D1E0
:1035D7004ED1B47FADD14E90093FF14FD192F15406
:1035E700900947E024FEFE900946E034FF90094821
:1035F700F0A3CEF0D3900949E09401900948E094F4
:103607000040157FADD14ED19290094874FF75F0F7
:10361700FE1281D7F15480DC7F04D14ED1B4D1752D
:10362700900946E0FEA3E0FF30E015E4FCFD9009B9
:103637003F1284DF1282B2919C900943F1D2D15696
:1036470022D1F7D1757F06AD07125AE80200E29042
:1036570009FAF09009F61285707F06D14ED1B47F32
:1036670002D14E9009F6F14F9009FAE0D1B07F05EB
:10367700D14E120026900AD2EFF0D1B47F017E001E
:10368700128AF8900AD2E020E0E422900943E47518
:10369700F00112047B1280F6FF1200E2900943E466
:1036A70075F00112047B1280F6FF1200E290960A71
:1036B700E04408F0229009FB128570E4FFD148D15D
:1036C700B49009FFE0FFD14ED1B480A29009F11266
:1036D70085707F43D148D1B49009F5E0FFD14E9072
:1036E70009F5E064C760059009F1F14FD1B4C175E0
:1036F700900AD1EFF07F50D14ED1B47F01D14E90D7
:103707000AD1E080A4F0A3EFF09009111284D390BE
:1037170009701285709009741285E6F15B4E602777
:10372700D3EF9400EE9401501E7F06D14ED1B47FA3
:1037370002D14E900970F1DFF15B9009741285DDBB
:103747001257D9D1B4D175221284D3E1E27F017E19
:1037570000029001900977E0FEA3E0FF22900AA4FF
:10376700E0B403099009F574C7F185C1D3900AA4A1
:10377700E0B401099009FF74C7F185D1BC22F07F3D
:10378700007E007D007C0022E475F00102047BD1FD
:10379700B4E04401F0E04402125619E04401F0E0BD
:1037A70054FBF0E04402F0227D087F0C12B946F189
:1037B70096E4900AA4F0125A80900AA4E0FF600AE7
:1037C700EFB401067F1CD1F7D175221285DD028087
:1037D700F6F0A3F07F0BC14E1284D3900A421285F4
:1037E70070900A43E0FF1200E2900A44E0FF1200E3
:1037F700E2900A45E0FF0200E212C94690060FE098
:10380700900610F02290061112857C00000000C27D
:10381700A9C28C5389F04389027F011100D2B9D222
:10382700A9D28C43A90222E4FD7F0802083B7B0151
:103837007A07792C7F00119D125667122A307B0177
:103847007A0879D97F2C7E01119F7B017A0879D973
:1038570012B5E4EF7004F1DD80F0112E9009D5E088
:10386700B401089009D97403F080129009D6E0904A
:1038770009D9B401057402F08003740CF09009D9DA
:10388700E0FF120695EF70057F0C120779227B0186
:103897007A0979B47F647E007D007C0002B5B27B33
:1038A700017A09790712B5E4EF7002FF227B017AEA
:1038B7000979077F0A119DD161900905EFF0A3E00F
:1038C70014603F14606414700221642403600221B1
:1038D70095900905E0FEF4701490961CE054DFF013
:1038E700E054BFF193F0E054FDF07F00229009040B
:1038F700EEF07B017A09790C7F14119D900906740B
:1039070001F07135E06F600221957B017A09790C2E
:1039170012B5E4EF607D7B017A09790C7F587E024E
:10392700119F9009067402F080697135E0FE6F609F
:103937000B91D524EAF582E43405804C7B017A09A2
:10394700790C12B5E4EF604B91C1119D9009067493
:1039570003F091B824EBF582E43405802B7135E050
:10396700FE6F600B91D524EDF582E4340580197B59
:10397700017A09790C12B5E4EF601891C1119D9194
:10398700B824ECF582E43405F583E493FF22E49050
:103997000906F07F0022D080D0807B017A09791D4B
:1039A7009006A1F19B12B5B27B017A097922119B8E
:1039B70090057AE0640370387F16712CEFF030E6DB
:1039C700137F16711D448091A77F16711D549FFDAB
:1039D7007F16415E90057BE0600A91AF20E00241CF
:1039E700AB7F0122900927E020E00241AB7F012253
:1039F70090057AE0640470327F12712CEFF030E5A5
:103A07000F711B44807124711B54DEFD7F128047A8
:103A170090057BE0600A91AF20E00241AB7F012275
:103A2700900927E020E07D7F012290057AE060047D
:103A3700640270387F137EA3128C847E00C0067FD9
:103A4700127EA3128C84D0E04F900927F030E21247
:103A5700711B54D9FD7F127EA3128F8012935E7F54
:103A67000022900927E020E13B7F012290057AE0C0
:103A77006401702D7F13711D7F00FEC007C00671A2
:103A87001BFDD0E0FED0E04DFF900927EEF0A3EF3D
:103A9700F030E2037F0022900928E030E0067F0142
:103AA700227F00227F60711D645D60037F00227B9F
:103AB700017A09791D12B5E4EF7006129758EF7075
:103AC700347F16712CEFF054DF440191A790057AEB
:103AD700E064037014A3E070107F32FE1290017F40
:103AE70016711D30E0037F0122711B54D67124E447
:103AF70071247F00221297667B017A09792212B519
:103B0700E4EF700221B77F0112AFF6EF64016002A4
:103B170021B7FF227F127EA3128C84EF22FD7F1232
:103B27007EA3028F807EA3128C849009272290099E
:103B370005E0FF900904229009B3E014602B14609C
:103B47005B24027075900A90E070069009B9F0FF47
:103B5700229009B9E07B017A0979B47FE87E0311E5
:103B67009F9009B37401F08056900A90E0700E9010
:103B770009B9F09009B3F090001693FF2291CA603B
:103B87003E11959009B37402F09009B9E0B40105AC
:103B97009000178003900018E493FF22900A90E0AA
:103BA70070069009B9F0801391CA601311959009B6
:103BB700B9E0700B90001893FF22E49009B3F07FEF
:103BC700002290085AE07002819712175112B5E44B
:103BD700EF700281A690085AE0C31330E02A12174B
:103BE700517F32119D90085AE0C41354077F00207B
:103BF700E0027F01EF5401C43354E0FF90085AE01C
:103C070054DF4FF0E0C4805E90085AE030E02A129B
:103C170017517FE87E03119F90085AE0C4540F7F25
:103C27000020E0027F01EF5401C454F0FF90085ACE
:103C3700E054EF4FF0E0C4802E1217517FF47E015D
:103C4700119F90085AE0C4131354037F0020E00229
:103C57007F01EF5401C4333354C0FF90085AE05436
:103C6700BF4FF0E0C413135401900ACDF09009D967
:103C7700E024FC6007047027E4FD8006900ACDE08D
:103C8700FDE4FF1217A1900ACDE0FD7F010217A105
:103C97009009D9E024FC6005047004803CB17822C7
:103CA700FD7F167EA3028F807F007EA5128C84EF96
:103CB70022900904E025E025E0227B017A09790CAE
:103CC7007FC8227B017A0979B412B5E4EF22E49028
:103CD7000906F0EE25E025E0229009D9E06403709B
:103CE7002EB1E27017B120E054FEF0E054EFF0E49B
:103CF700FDB11712174F7FF47E018011E4B120D177
:103D0700FF7D01E4B11712174F7F007E00119F223C
:103D1700FF1217A1E4FD7F012290085AF0E054FD3D
:103D2700F0E054DFF0E054FBF0E054BFF022900ADB
:103D3700CAEFF01217517F00119D7B017A0879496C
:103D47007F00119DF1C1E0900859F0E4A3F09008BD
:103D57004104F07E007F057D00FB7A0879421287D7
:103D6700C6F1147D01E4FF1217A19008587401F001
:103D7700229009D9E0640470619008BCE0700712D2
:103D870017487F008050120E24702790085AF0B110
:103D9700E27013FDFF1217A190085AD1FF121751B5
:103DA7007FE87E0380327D01E412174E7F007E009C
:103DB70080269008B3E0B4010BE490085AF07D0127
:103DC700FF0217A1E4FDF1A4F0E04402F0E0442073
:103DD700F01217517F327E00119F229009DBE064B9
:103DE70001229009C1EFF0BF581D900929E0C39443
:103DF700024002E4F0900929E004F0E0B40108D1A0
:103E07005A7FF47E01119FD15A12B5E4EF700E90DC
:103E17000929E0B40107E49009C1F08030D15A12B2
:103E2700B5E4EF700E900929E0B402079009C17458
:103E3700678014D15A12B5E4EF6012900929E0B4F3
:103E4700010B9009C17458F0E4900929F09009C159
:103E5700E0FF227B017A0979C2227F05900AC3EF2E
:103E6700F07D0112B0157E00C006C007D1F2D0E088
:103E77002DFFD0E03400FEC006C007D1F2D0E02D00
:103E8700FFD0E03400CF2402CF3400FE7C007D0356
:103E9700128182AB077E06E4FDEDC39E504AED908A
:103EA700060293FCEBC39C503C9009D9E0640C706C
:103EB70031ED24FE601314601914601F240370226F
:103EC700909601E04404F08019909601E04402F0D6
:103ED700801090961CE04440F0800790961CE044C8
:103EE70020F0AF05220D80B17FFF22900AC3E0FFCB
:103EF7007D0112B015EFFD22E04401F0E04410F01F
:103F070022E4FF7002713EEF700211A6227D017F4D
:103F17000512B9887D017F0612B9887D017F0212DB
:103F2700B9887D017F0312B9467D017F0112B94629
:103F37007D207F0EF1AD7D207F0B12B9887D207F1C
:103F47000C12B9467D207F0A02B9887F0112C99FEA
:103F570012C9BD9006D8EFF09006D8E030E12C7B6F
:103F6700017A0979DD7FD07E07119F7B017A097974
:103F7700DD12B5E4EF7011129766124C827F0112C1
:103F87004094BF56E6022FCE12078F22F09096017B
:103F9700E054FB22E0FEA3E0FFE4FCFD22FF121742
:103FA700A1E490085A2212B9467D207F0F02B94634
:103FB700900858E0B4010271C922900737E09008D1
:103FC70052F0900738E0900850F0900735E09008DD
:103FD70051F09009DA229009D5E0900ABEF0122933
:103FE700779009D5EFF0900ABEE0700A9009D5E006
:103FF70060047F0180027F00227D037F2712B9883A
:104007007D037F2612B9467D037F2912B9887D0378
:104017007F2A02B9887F011194900A67EFF0E4A321
:10402700F0A3F0EF14606224EE603924FE605A2496
:10403700B0600714602E245470529009DAE0C394DC
:10404700205005900A6911E6900A67E06465703CA4
:104057009009DAE064207034900A69E0702E7D01DF
:104067007F058022120FE54006900A68120ED39052
:104077000A67E0B466169009DAE07010900A68E003
:10408700700A7D017F0602083B120F7C22E4900A2A
:104097003211F812810F6041900A3311EDC003C04D
:1040A70002C001900A331237D2FF7C00D001D00240
:1040B700D00329F9EC3AFA1280F6900A32F0EF04AD
:1040C7005407FFA31285DDEF12813C900A33128556
:1040D700DD90000174FF120448900A32E0FF227459
:1040E70001F0FF020ED81285DDE92402F9E43AFA5D
:1040F70022F0EF75F00AA42460F9740835F0FA7B12
:1041070001A31285E690000122123546900008129D
:10411700810F900A26F090000912810F900A27F06C
:1041270090000A12810F900A28F0900A26E0B44DF9
:1041370010A3E0B4500BA3E0B43306A37401F080DE
:1041470005E4900A29F0900A9DE07009900A29E099
:1041570060031234EF900A29E0FF22E4900AA9F0E5
:10416700900AA8F09000181284D3E4900643F0A3B5
:1041770004F012C68612CF4F9000181284D3900312
:10418700DC128570129766129D6A900ABFEFF09055
:10419700002C123F9B7BFE7AFFF9F8C31283F8507D
:1041A7000241B89003DBE0700312D7F2900ABFE038
:1041B700147002415F24FC70024168240570C53108
:1041C70010EF604D90002CE475F0011281D790003C
:1041D7002EE475F0011281D7900958E0B4013290AE
:1041E700095AE07002A3E0702851BB90095ACFF03A
:1041F700A3EFF090002EE0FFA3E090095CCFF0A3BF
:10420700EFF0900030E0FFA3E0900956CFF0A3EF66
:10421700F0900030E07004A3E064016002218B900D
:1042270007A6E064017002218B123546E92408F9DC
:10423700E43AA801FCAD037BFF7A0079067E007F94
:10424700031287A2EF6002218B9007A604F0FB7A86
:104257000779A712983B218B900032E475F0018013
:104267004B12D90C900030E07004A3E06401700A8F
:1042770051BB900036CFF0A3EFF012DB9B12DCAC02
:10428700EF70037F0122900030E475F0011281D7AF
:10429700E4900032F0A3F090002EF0A3F012D711B3
:1042A700EF6002218B90003074FFF5F01281D72167
:1042B7008B7F012290002CE0FFA3E02231109006B3
:1042C700D3EFF022900AC0EFF07E007F327D007BB3
:1042D700017A0079061287C6900AC0E0900006F0BE
:1042E70090000B12857CFFFFFFFF90000F12857C6B
:1042F700FFFFFFFFE4900A9CF0A3F114713CEF70FD
:1043070006900A9C04800FE4900958F03162EF7020
:104317000C900A9C7402F0A304F07F002290002CFA
:10432700E07002A3E07006900A9C7403F0900A9D67
:104337007401F0FF2290088212857C00000000E4DF
:10434700900894F0900006E0B4010C12CD53EEC330
:104357001390088FF0800690088F7401F090088200
:104367001284D3F1037002FF229008821284D3D102
:10437700F564AA7003EE645560089009B1E0700215
:10438700FF22E490088EF090088EE0FFC39404406B
:10439700028158EF75F010A424BEFFE5F0340EFA41
:1043A700A9077B019008971285E690000412810FF8
:1043B700FF6405600AEF640F6005EF6485703E9047
:1043C7000894E0FF600890088EE0C39F402F900894
:1043D700821284DFC000C001C002C003D1E9129875
:1043E70014D003D002D001D0001282B290088212FA
:1043F700857090088EE004900894F06164900897A7
:1044070012311912810FFF64046018EF64066013FC
:10441700EF640B600EEF640C6009EF64016004EF5A
:10442700B40E269008821284DFC000C001C002C00B
:1044370003D1E9129814D003D002D001D000128220
:10444700B2900882128570800890088EE004F061AF
:104457008E90088EE0B4041B900894E0FFD394007C
:104467004011EF9404500C90088212857C000000E4
:10447700006164D1C0FE900882D1D5F1037002FFBC
:1044870022D1C0FE900882D1D5D1F564AA7003EE7F
:10449700645560089009B1E07002FF22900D0DE0AD
:1044A700900013F0900D0EE0FEA3E0FF1297F89036
:1044B7000895EEF0A3EFF0E4FCFD9008821284DF8C
:1044C7001282B2900014128570900D11E0FEA3E0E5
:1044D700FF4E603D1297F87C007D201285EF123465
:1044E7003DAB0790088FE07F0025E0FEE4FCFD125E
:1044F70082B212349CC006C007E025E07B00FAE4D4
:10450700F9F8D007D00612835890087E128570807C
:104517000A90087E12857C00000000900D16E0FED0
:10452700A3E0FF4E60081297F8E4FCFD8005900DAC
:1045370024D1DB900886128570900D13E0FEA3E06E
:10454700FF4E60081297F8E4FCFD8005900D20D11E
:10455700DB90088A128570D1C912343DAB079008E9
:1045670095123F9B1282B290087E123437AB0790A8
:10457700088A1225C6C007900013E0FBE4FAF9F891
:10458700D007128358900890128570E47FF57E0F4C
:10459700FDFC9008901234725008E4900008F07FF8
:1045A7000122E47FF57EFFFDFC90089012347250E3
:1045B7000AE4900007F0A304F0802578367C0D7D8F
:1045C700017BFF7A0479CE7E007F081287A2EF90E5
:1045D70000077003F080037401F09000087401F085
:1045E700D1C99000141284DF1282B290087E12841F
:1045F700DF1282B290001C128570900007E06010F5
:10460700900D2CD1DB9008901284DF1282B2800FBC
:104617009008901284D3EF2402FFE43E1227CF9034
:104627000020128570900007E06021900D2CD1DBEF
:10463700EF24FEFBEE34FFFAED34FFF9EC34FFF81C
:10464700900013E0FFE4FCFDD1E18005D1C99000A3
:10465700141284DF1282B290001812857090001332
:10466700E0FE90088FE0FFEE8FF0A4900013F0A318
:104677001284DFE4FCFDFE1282CD900014128570D7
:1046870090001CD1BDD1E11285709008821284D3AD
:1046970090088A123437AB07D1C0FE1282CD900042
:1046A70024128570900018D1BDFE1282CD9000189B
:1046B7001285707F01221284DF90088FE0FFE4FCEF
:1046C700FD22900D10E0FFE4FCFDFE9008861284A9
:1046D700DF0282CD1284D3029814FE1282CD90009D
:1046E7001C229008971285DD9000080284659000CF
:1046F7000B128570900EFEE0FEA3E0229006067472
:104707000DF0A3E4F0A304F012D177EF22F09004A8
:104717000E7402F0A3E4F022F183E490040CF11488
:104727009006A07402F09006A104F0A374E8F012BA
:104737004C41F090039512610B900042F0A3F0906A
:1047470006ACF09006ADF090042804F0E490033D29
:10475700F09006107404F0E4900436F0900429F009
:1047670090042AF0FE7F1FFD7B017A0379481287A8
:10477700C690034812857C5553424322908000E43B
:104787009322900AD57414F0F183F1D7E0700C905E
:104797000AD5E0FF14F0EF70F6F1D7909800E054D7
:1047A700FEF012634E6005EF6420701BF1CFBF046B
:1047B70004E4FF8007F1CFBF08057F01125E837F06
:1047C7000112C06B12C00E2290B009E0540CFF22F8
:1047D700909803E09006D8F02290073112857CFF6D
:1047E700FFFFFF2290073112857CFFFFFFFF22901A
:1047F700073112857CFFFFFFFF22900736E024FE7A
:10480700600B24FE601E14601B2404701C1217F733
:1048170012CEB81247F611427E2712389F900735FD
:10482700740280021131F01139221214C9E490097F
:10483700DB22900735E0900851F0227B017A077957
:104847002C7F1022900735E0B4020451A760037F44
:10485700012212BD13EF70117B017A07792C12B573
:10486700E4EF7F01603E7F002211427E2712389FCE
:104877009003E7E06401702A31A24E701290073569
:10488700F0900A9CE0640960037408F07F002290AE
:104897000403E0FEA3E0FF90040EE0FCA3E0FD129A
:1048A700CDA07F012212C7F79003E7E0FF126075E2
:1048B7009003E931C4313DE4900797F012CEB81266
:1048C70015EA12B7CA31A24E700E900A9CE064092D
:1048D70060037408F07F0022313412CD9231349096
:1048E7000404E02FFF900403E03EFE900405E0FC83
:1048F700A3E0FDC390040FE09DFD90040EE09CFC37
:1049070012CDA01247E011427E2712389F51B240C4
:1049170005E47FC88002E4FFFEFDFC7B017A07798E
:10492700A012B5B29007357402F07F0122900405FA
:10493700E0FEA3E0FF22900738E075F00AA424D731
:10494700F9740435F0FA7BFF900A4A1285E6900461
:104957000CE064017044FF900A4A1285DD8F82756E
:10496700830012810F2409900A4DF0D394804004EC
:10497700E4F0800C900A4DE0C3940D4003740CF0F2
:10498700900A4DE090060893FE740D2FF582E434EB
:1049970095F583EEF00FEFB40ABD227B017A077914
:1049A70068900403E0FCA3E0FD90040EE0FFA3E0A1
:1049B70090047FCFF0A3EFF012A02AEF22E0FEA32E
:1049C700E0FFEEFA909C0812857C01000000EAC324
:1049D700942750047B8D805DEAC3942D50047BB3EC
:1049E7008053EAC3943650047B918049EAC3944AC2
:1049F70050047B95803FEAC3945950047BB78035B8
:104A0700EAC3946D50047BB9802BEAC39494500495
:104A17007B998021EAC394B3501990966AE030E0FD
:104A27000E7B88909C0812857C001A000080067B0C
:104A3700A380027B895174909C06E06B6013909C65
:104A470000E0547FF0909C06EBF0909C00E04480DF
:104A5700F0900AD6E07015519CC083C082E0FFA396
:104A6700E054FED082D083CFF0A3EFF022519430F0
:104A7700E0027F01900AD6EFF0909901C083C082CF
:104A8700E0FFA3E04401D082D0830218659099012A
:104A9700A3E07F0022909C06E0547FF090990122CA
:104AA7007B017A07796812DB79EF22E4FFFEFDFCD0
:104AB7009003F31284DFD302840E900A597432F004
:104AC700D080D080900395E070069006D20461965E
:104AD700900530E025E090033BF0A3E4F09003401D
:104AE700E064027002A3E070026184900340E0C3B7
:104AF70013900A58F09005291284D3900A58E014AD
:104B07005F900A57F0900529C083C0821284D3C0F2
:104B170006C007900340E0C313FB7A00E4F9F8D01E
:104B270007D006128358D082D083128570900A5717
:104B3700E0FD25E0900399F0A3E4F0EDFFC3E49FC7
:104B4700FF900530E0F9FDC3EF9DFF900A58E02480
:104B5700FFFDE434FFFCEF5D25E0900346F0A3E49E
:104B6700F0E9FF900A57E02FFFE433CF2DCF3CFE4B
:104B7700A3E0FD7C00128182900530EFF0900342A4
:104B87001284D390052951BA40099006D27402F0D5
:104B97007F002271BF7018900A59E0FF14F0EF6090
:104BA7000E129758EF6008912971BF640170E89160
:104BB70041F0900A56E0FF227E007F107D007B01C6
:104BC7007A0379571287C69003577428F0900529FE
:104BD7001284D3900359128570900530E090035FDB
:104BE700F09003547480F090033FE0900355F0A3D6
:104BF700740AF090052D1285DD90033BE0FEA3E0DB
:104C0700FF90039AE02FFF900399E03EFE90034741
:104C1700E02FFD900346E03EFC12A8F4900A56EF01
:104C2700F02212BDF7913102BE2B12BD72E4900340
:104C370095F0909644E0440CF022E4900399F0A399
:104C4700F090033BF0A3F0900346F0A322F1D69037
:104C570006ADE06F601AEF64016013EF6402600E47
:104C6700EF64066009EF64076004EFB40802114BB4
:104C770091821208079006ACEFF022123F08900AC3
:104C8700C2EFF0600C7B01D17A7B017A07799AD168
:104C97007E900933E0B40105D10B12002290092A56
:104CA700E07002A3E060257B017A09792C12B5E454
:104CB700EF7007900AC2E0B42212D16F12389F90AA
:104CC7000AC27421F0E4900933F0A1F4900AC2E01B
:104CD700FFC394165002A161EFD39420507CD12BCF
:104CE7006013EF6402600EEF64046002A1E1120E2C
:104CF700246002A1E1D133900AC2E0FBB4201BD1AA
:104D07000B7C007D0A128182ED4C60041217F0F0D3
:104D1700D1659009317401F08025900931E0601167
:104D2700EB24EAFFE434FF90092A8FF01281D78041
:104D370009900AC2E024EAFFD13DE4900931F0E48A
:104D4700900AC2F07B017A09792C7FD07E07FDFC9F
:104D570012B5B2D10B120022A1F4900AC2E0FFC330
:104D67009431407DEFD3943B5077D12B600FEF64A4
:104D770002600AEF64047075120E247070D133D18B
:104D87006FFDFC12B5B2900AC2E0FFB43B04D165D7
:104D97008006EF24CFFFD13DD10B120022D12B602B
:104DA70004EFB402101217D3D390092BE09F900998
:104DB7002AE09E401D9009D9E0B4041E9008BCE08B
:104DC700B40117D390092BE0943290092AE094009C
:104DD7005008900AC2743CF08013E4900AC2F08035
:104DE7000C900AC2E060061217F0F0D134900AC2A4
:104DF700E0FD600F7F011216FA900AC2E0FDE4FFA2
:104E07001216FA2290092AE0FEA3E0FF229009DA9F
:104E1700E025E02445F582E43405F583F181FDAC16
:104E2700060227EC9009D9E0FF640122E4900933D8
:104E3700F0900932F022AB07D10BC394E8EE94034C
:104E470050117C007D0A128170EB2FFFEC3E900918
:104E57002A8006AF0390092AE4F0A3EFF022900915
:104E67002AE475F00A0281D77B017A09792C7F88B9
:104E77007E13227A0879A37FC07E277D097C0002F2
:104E8700B5B29008A87401F090089AF07D807F0C65
:104E970012B9467D807F0A12B946126B4A125D4CE1
:104EA70012099DF14DEF600C9008A27401F15712A1
:104EB700B9888009E49008A2F15712B946F14DEF7D
:104EC70060129008A2E0600C7401F0FBD17A9008A0
:104ED700A17401F0F18912101D125F5712B98812DF
:104EE7005EF912B9887D207F0F12B988126AAD1258
:104EF700B9887D017F2012B9467D017F2112B988CB
:104F07007D017F1E12B9887D017F1D12B9467D0282
:104F17007F2012B9467D027F2112B9887D027F1E4C
:104F270012B9887D027F1D12B9467D807F0212B9B2
:104F3700467D807F0312B9887D807F0512B9467D43
:104F4700807F0602B946E4FFF1BF30E7027F002207
:104F5700F07D107F2012B9467D107F2112B9887D20
:104F6700107F1D12B9887D107F1E12B9467D107FF4
:104F77001C229006F3A3E0249522E493FE74019388
:104F8700FF227B017A0679DC7D0122120BE712579B
:104F97001EF1B612099D126B2912B988F1891210F8
:104FA7001DE49008BBF0126C55FEFDFC02B5B290F3
:104FB70008BC7401F0227F1B12B9ACEF7F0122F10C
:104FC700BD30E0027F0022F1BD30E1027F002212F6
:104FD7009766900AA7E0FF22900736E024FE600359
:104FE70004700E12112EEF700590073504F012179A
:104FF700F722E490073AF011C6EF6401706F900949
:1050070058E0700C90079FF0900766F0A304805556
:1050170090095AE0FEA3E0FFD39400EE940040709D
:1050270090079F7401F090002CE0FCA3E0FDD3EF04
:105037009DEE9C400890095AE4F0A304F0900030DC
:10504700E0FEA3E0FFD3900957E09F900956E09E4A
:105057004005E4F0A304F0E490073AF090095A12EF
:1050670017DCF0A3EFF0E4900737F08023E4900714
:105077009FF090073BF0A304F0900766E4F0A304C9
:10508700F0E4900737F09003F312857C00000000EE
:10509700E4900739F090002CE07002A3E090073508
:1050A700700404F0FF227401F0E490095AF0A3F0B1
:1050B70090095CF0A3F0900956F0A3F07F012290CD
:1050C70006DBE07F00B45A027F01221214C97F0178
:1050D700227F522232C0E0C0F0C083C082C0D075A8
:1050E700D000C000C001C002C003C004C005C00694
:1050F700C00712C90BD007D006D005D004D003D003
:1051070002D001D000D0D0D082D083D0F0D0E0320E
:10511700C0E0C0F0C083C082C0D075D000C000C05E
:1051270001C002C003C004C005C006C00712B9EB26
:10513700900A70EEF0A3EFF012B9E5900A70A3E0C1
:105147005FA3F0D007D006D005D004D003D002D09B
:1051570001D000D0D0D082D083D0F0D0E03232322C
:105167009009D9E0FBB401059006E48007EBB4028F
:10517700059006EE31821227B5F0221284D39003F0
:10518700F302857031A1122E7E1217F0F07B017A9F
:1051970009792CFFFEFDFC02B5B2E49009B3F0904B
:1051A70009B904F022C2AFEFB4010E909630E04483
:1051B70002F090962FE054FDF0D2AF22900AC4EF90
:1051C700F051FC900AC4E0FF51E3900AC4E0FF31BC
:1051D700AC900AC4E0FF9102900AC4E0FF51FC9032
:1051E7000AC451F3129001900AC4E0FF9119900A82
:1051F700C4E0FFC2AFEFB4010790962EE054FDF074
:10520700D2AF229009ECB154EDF0A3EBF0A35156C5
:10521700700F7F0AFE128AF89009F05156700280CB
:10522700219009EDA3515D700280179009EFE064AA
:10523700017019A3E0FF31C39009ECE04401515E0E
:10524700700A9009F0E0FF710C7F00227F0122E0D5
:10525700FF31C39009ECE0FF9009F0E0FD5168EFE2
:1052670022900A73EFF0A3EDF0FFA37408F0910208
:10527700802C900A75E0FF14F0EF602B900A73E022
:1052870030E707A3E0FF51FC8007900A74E0FF9125
:1052970019900A73E025E0F0A351F3129001900AE8
:1052A70074E0FF31FA80CB900A74E0FF900AC8EFF0
:1052B700F031FA900AC8E0FF713B900AC851F31227
:1052C7009001900AC8E0FFB145EF7F0070027F01AF
:1052D700AE07900AC8E0FF31FAAF0622C2AFEFB4BB
:1052E700010790962EE04402F0D2AF22E0FF51E38F
:1052F7007F127E0022C2AFEFB4010790962EE044E2
:1053070001F0D2AF22900AC5EFF031AC900AC5E0A8
:10531700FF9102900AC5E0FF91197F127E0012905B
:1053270001900AC5E0FF51E3900AC5E0FF51FC90E8
:105337000AC5E0FFC2AFEFB4010E909630E054FE0D
:10534700F090962FE04401F0D2AF22900A76EFF06A
:10535700A37408F0E4A3F0713B900A77E0FF14F020
:10536700EF6027A3E025E0F0900A76E0FFB145EF74
:105377006007900A78E04401F0900A7651F31290A2
:1053870001900A76E0FF31FA80CF900A76E0FF912C
:1053970002900A78E0FF229009C71285709009CC25
:1053A7007404F09009CBE0FF9102803F9009CCE0B4
:1053B700FF14F0EF603E9009C71284D3E4FEFDECC2
:1053C7005480FC9009CB6006E0FF51FC8004E0FFAD
:1053D70091199009C71284D378011284329009C7B2
:1053E7001285709009CB51F31290019009CBE0FF21
:1053F70031FA80B89009CBE0FF41B3C2AFEFB401F7
:105407000E909630E04401F090962FE054FEF0D2D3
:10541700AF22C2AFEFB4010790962EE054FEF0D250
:10542700AF22900AC6EFF09119900AC651F3129075
:1054370001900AC6E0FF21FA900AC7EFF051FC90ED
:105447000AC751F3129001900AC7E0FF21FA9009A9
:10545700E71285E69009EAEDF09009EAE0FF14F01B
:10546700EF6025A3E0FF71529009E712378FEF1223
:10547700813C9009EAE07007A3E0FF913F80DA9052
:1054870009EBE0FF912980D17F0122900961128504
:10549700E6E4900966F0900965E09009F0F0E4FB16
:1054A700510A900966EFF0BF01189009611285DD76
:1054B700900964E0FDA3E09009E6F091D6900966B3
:1054C700EFF0900965E0FF710C900966E0FF22900C
:1054D70009E21285E69009E5EDF09009E5E0FF1491
:1054E700F0EF60139009E212378F1280F6FF9009F0
:1054F700E6516270E5FF227F012290096A1285E674
:10550700E490096FF090096EE09009F0F07B01518B
:105517000A90096FEFF0BF011890096A1285DD90B4
:10552700096DE0FDA3E09009EBF0915590096FEF4D
:10553700F090096EE0FF710C90096FE0FF22EFB465
:10554700010790962DE05401FF22EEF0A3EFF0A3A0
:10555700ECF0A322900A52B151EDF0E4FEFF22B124
:10556700D7900A4EEEF0A3EFF0900006E0B4030CDC
:1055770090047FE0FCA3E0FDB15B8013900006E0A0
:1055870064047015B1D7A3E0FCA3E0FD1223AA9031
:105597000A50EEF0A3EFF080261207F8EF640170CF
:1055A7002B900A50F0A3F012A044900A50EEF0FCA2
:1055B700A3EFF0FD900A4EE0FEA3E0FF1204B8D07F
:1055C70080D080900A50E0FEA3E0FF22E4FEFF2295
:1055D70090047DE0FEA3E0FF2290960CE04404F0E7
:1055E70090960BE054FBF090960DE04404F0A3E096
:1055F70054FBF0A3E054FBD11990960BE054F7F05D
:1056070090960DE04408F0A3E054F7F0A3E054F7B8
:10561700F022F090960CE04408F0222222900ACB68
:10562700EFF022900ACCEFF0222222900858E0B443
:105637000102D13C229009D9E024FC6005047002E4
:105647008000E4FD7F011217A17D01E4123FA4F061
:105657001217517FE87E03FDFC02B5B222222222F7
:105667009006F7E0FFD39432503B9006F5E0240113
:10567700FDE433FCD3ED9F7480F86C9840069006E8
:10568700F7E070219006F7E0FF9006F6E0D39F5011
:1056970014120FEDFF9438EE94045009C3EF946B86
:1056A700EE940350117E007F387D007B017A0679E6
:1056B700F21287C6D1FEE49008BCF0A3F09008B5BB
:1056C700F09008B3F0120E2B7D047F3012B9467D9F
:1056D700047F2F12B9887D0C7F3112B9467D0C7F6C
:1056E7003212B9887D047F2E12B946F109EF6006A0
:1056F7009008B57409F0229006F37403F0A3746B55
:10570700F0227F06122BDFEF54FCFFBF8406122E18
:10571700287F01227F00229009DAE0FFAE07EE9092
:1057270005A893FDFF0228E29008B5E024F770036F
:10573700022D2F7F0022124E0BD39432EE9400409D
:1057470002E1CFC3F1D19006F3E09403402990061C
:10575700F7E0FDFBD3EF9BEE9400400C9006F5EDD0
:10576700F09006F704F0800A90092AA3E014900647
:10577700F5F0124F79804A9006F6E0FF126BD99444
:105787000040359006F7E0FF9006F6E0FEEFD39E67
:10579700401774F72FF582E43406F583E0FB74F8BD
:1057A7002F120E1CEBF01F80DF9006F5EEF0A3E042
:1057B70004F0A3E004F08006ED149006F5F0126CF7
:1057C70099FFA3120E19EFF022D39006F4E0946B21
:1057D70022229009BAEEF0A3EFF09009BE1285E6F7
:1057E700E49009BCF0A3F09009BAE0FEA3E0FFC380
:1057F7009009BDE09F9009BCE09E50209009BE1221
:1058070037D2FF1200E29009BFE475F0011281D789
:105817009009BCE475F0011281D780CB229009343E
:105827001285709009381285E6E490093D1237D841
:105837009009341237DF7FFF1200E290093BE0FE48
:10584700A3E0FFC390093EE09F90093DE09E501AF8
:105857001200269009381285DD90093D11749009D0
:105867003DE475F0011281D780D10236B4E0FCA384
:10587700E0F5828C83EF02814E90094A1285709081
:10588700094E1285E6E49009531237D890094A1257
:10589700374F7FFF1200E2900951E0FEA3E0FFC3FC
:1058A700900954E09F900953E09E501A12002690E9
:1058B700094E1285DD9009531174900953E475F070
:1058C700011281D780D10236B4900A000285709008
:1058D70009111285709009151285E631B8C39F909A
:1058E700091AF060479009151285DD90091AE0FF43
:1058F700900977E412370C9009111284DF90091A86
:10590700E0FFE4FCFDFE1282B2900911128570904F
:10591700091AE0FF7E00900916EE8FF01281D7C3B7
:10592700900919E09FF0900918E09EF0C3900918BC
:10593700E094014055E490091BF0A3F0900918E0AA
:10594700FFC390091CE09F90091BE09400503B9017
:1059570009111284D39009151285DD900977740116
:10596700F0A3E4F012371631B82F1227CB900911A4
:10597700128570900916740175F0001281D790098D
:105987001BE475F0011281D780B27E00900918A33D
:10599700E0FF900918EEF0A3EFF0601490091512DC
:1059A70085DD900918E0FFA3E0900977CF12370C47
:1059B700229009111284D3E42290098212857090F3
:1059C70009861285E6900AA4E0B4030A31F9900922
:1059D7004631EE02358A900AA4E0B4010931F99004
:1059E700091831EE11D622CFF0A3EFF09009820209
:1059F70084D39009861285DD900989E0FFA3E02210
:105A07009009CF12857C0000000012B8F1123764AC
:105A17007B017A0779A712DB79EF70537B017A074D
:105A270079A790047F124718FD7C0F12A02A9009CE
:105A3700CDEEF0A3EFF04E700280347B017A0F7940
:105A4700009009CDE0FFA3E0900989CFF0A3EFF024
:105A57009009CF1284D331C09009CF1284DF900907
:105A6700CD123F9B1282B2A3128570517980A10299
:105A7700B8CC7F0A7E0002900151E87F9F1200E2B6
:105A8700120026900A82EFF051DA7B00EF12813C78
:105A970051DA7B00900001EF12814E1236B4E49088
:105AA7000AA4F0900A82E0FFB4EF07900AA47404F6
:105AB700F022EFB4C807900AA47401F022EFB4C231
:105AC70007900AA47402F022EFB4BF06900AA474E8
:105AD70003F022120026900A83E0FCA3E0AA04F94F
