:10000000020413E1FB4D5646002232026C630001EC
:10001000020322026C9E22227F002280ED22023DFA
:1000200062223280FDE4C3FA90960AE04401F05463
:10003000FEF0909609E0A2E2E492E02A23FA90967C
:100040000AE04401F054FEF0909609E0A2E2E49246
:10005000E02A23FA90960AE04401F054FEF09096CC
:1000600009E0A2E2E492E02A23FA90960AE0440131
:10007000F054FEF0909609E0A2E2E492E02A23FA1E
:1000800090960AE04401F054FEF0909609E0A2E256
:10009000E492E02A23FA90960AE04401F054FEF03C
:1000A000909609E0A2E2E492E02A23FA90960AE010
:1000B0004401F054FEF0909609E0A2E2E492E02AB6
:1000C00023FA90960AE04401F054FEF0909609E07D
:1000D000A2E2E492E02AFA90960AE04401F0EAFFF4
:1000E000227808EF33FF90960AE092E154FEF090F8
:1000F000960AE04401F0D8EB2290099DE0FF22220D
:100100000000220000220000220000220000220045
:100110000022000022000022000022000022000035
:100120002200002200002200002200002200002203
:100130000000220000220000220000220000220015
:1001400000220000220270F30000220000220000C2
:1001500022023844024813024FEB00002200002222
:10016000000022000022000022023B5F000022006B
:100170000022000022000022000022000022024D86
:10018000C70000220272EA0000220000220273E58A
:1001900000002200002202720E0000220000220055
:1001A00000220000220000220000220000220000A5
:1001B0002200002200002200002200002200002273
:1001C0000000220000220000220000220000220085
:1001D00000220000220247950271FB02705F024B71
:1001E000D30267E60000220000220266A30267B184
:1001F0000000220000220000220000220000220055
:100200000022000022000022000022000022000044
:100210002200002200002200002200002200002212
:10022000000022000022026BDF02281D00002200D5
:100230000022000022000022000022000022000014
:10024000220265BB000022000022000022000022E2
:10025000000022000022410AB400410AAE00420A16
:10026000AF0000420AB10000410AB3004109D800C2
:100270004109D7004109E3004109D500410B7B0149
:10028000410B7900410B7A00410BA100420A0B009F
:1002900000420A090000430A0DFF0600430A06FF58
:1002A000060F430A03FF061E4109CD004209D30091
:1002B000004409C30C020307410A3D00410A3E0005
:1002C000410A3700410A3600410A3400410A35002C
:1002D0004209BC00004209BA01064209B5000042C9
:1002E00009B301084309BEFF062C4309B7FF063BCB
:1002F0004309B0FF06484209AE00634209C10063EA
:10030000410BA601410BA702410BA9004107610067
:1003100041075F0041076200410773004406F9FF8F
:10032000FFFFFF4106F30041098F014409820000ED
:100330000000420980006444098B00000000410A6B
:100340006D00420A6E0000420A700000420A6A0014
:1003500000410A6C00410A6900410A1900420A1171
:100360000000410A1A00410A1B00410A1301410A18
:100370001000410941FF41094200410943FF45097D
:1003800005000000000041091B00410BB1024108BB
:100390006900410902004109030041099B0041092C
:1003A0009C00410BB300410BB20152084C120110EA
:1003B0000100000040000002021000010203014C95
:1003C000079300000008001DC3FF03000200480758
:1003D00081001DC3FF000002004C07740B000008E1
:1003E00000020000000002004D07E0555342530890
:1003F00070BA840000000000420BB603E8410AA175
:1004000000420AA401F4410A9E00410BB901410BCC
:10041000B80100126742787FE4F6D8FD126C3DEF18
:10042000FD9006D96003A3DFFD7F277E11C3EF9DFA
:10043000FF50011EE4F0A3DFFCDEFA75810B1266AB
:10044000DE02047F021B43E493A3F8E493A340037A
:10045000F68001F208DFF48029E493A3F85407241E
:100460000CC8C333C4540F4420C8834004F45680DE
:100470000146F6DFE4800B01020408102040809062
:100480000256E47E019360BCA3FF543F30E509545B
:100490001FFEE493A360010ECF54C025E060A84086
:1004A000B8E493A3FAE493A3F8E493A3C8C582C87D
:1004B000CAC583CAF0A3C8C582C8CAC583CADFE952
:1004C000DEE780BEBB0111F8E58229F582E5833ABB
:1004D000F583E0C828F0E8225009C58229F8C582D2
:1004E00026C622BBFE0DC58229F8E2C5822582F20E
:1004F000E58222EA2583F583E99322BB010FF8E523
:100500008229F582E5833AF583E028F0225009C577
:100510008229F8E58226F622BBFE09C58229F8E287
:100520002582F222F8EA2583F583E9932822F8E070
:10053000FBA3A3E0F925F0F0E58215827002158394
:10054000E0FA38F022D083D082F8E493701274017C
:1005500093700DA3A393F8740193F5828883E473D9
:100560007402936860EFA3A3A380DF555342430056
:10057000008002021F0000004D5653490000000099
:10058000436172642052656164657200000000007E
:1005900056312E3003000000700002000000000AF7
:1005A000000000003A00000000007000050000009C
:1005B000000A00000000240000000000ED030354C6
:1005C0003FFD8E838F82E090A621E0F88E838F829C
:1005D000E090A621E0FB8E838F82E090A621E0FCD4
:1005E0008E838F82E090A621E08A838982C8F0A35F
:1005F000EBF0A3ECF0A3E8F0A3AA83A982DDC32269
:100600004D5653494C49434F4E2E494E432E004DB3
:100610005620434152442052454144455200323015
:100620003131303930313132333435004D56534960
:100630004C49434F4E2E494E432E004D56205553A4
:100640004220415544494F00323031313039303148
:100650003132333435008F828E83ED7004EC600BC1
:100660001CE06455F0A3DDF902065D2246415431D9
:10067000360000000004030904090287000301009A
:1006800080FA0904000000010100000924010001B2
:10069000280001010C2402010101000203000000F6
:1006A0000A240602010101020200092403030103D6
:1006B0000002000904010000010200000904010118
:1006C0000101020000072401010101000B240201C5
:1006D0000202100144AC0009050409C00001000039
:1006E00007250101000000090402000103000000C9
:1006F00009210102000122210007058303400001B6
:100700000902200001010080FA0904000002080625
:100710005000070581024000010705020240000168
:1007200009029E0004010080FA0904000002080684
:100730005000070581024000010705020240000148
:100740000904010000010100000924010001280042
:1007500001020C24020101010002030000000A242E
:100760000602010101020200092403030103000241
:100770000009040200000102000009040201010155
:10078000020000072401010101000B240201020202
:10079000100144AC0009050409C000010000072550
:1007A0000101000000090403000103000000092109
:1007B0000102000122210007058303400001050C0E
:1007C0000901A1011500250109E909EA09B509B6E0
:1007D00009E209B309CD09B7750195088142C02E18
:1007E0002C2A2927262423211F1E1C1B12C94690B0
:1007F000060FE0900610F0220250303222FFFFFF79
:03080000140108D8
:1008070002504505320007D001F4006401F400C826
:10081700320AC350271007D014503C140A1E140084
:1008270000000000000000000002FAFCFDFEFCFAD8
:10083700FA0202FF02FFFDFAFAFAFDFF0202FFFFCA
:100847000002020202FDFAFAFF0200FF00020201A3
:10085700FFFEFAFEFEFEFCFAFE02FE02FFFFFDFAB5
:10086700FAFAFA0202020101FFFEFEFEFDFDFDFAA1
:10087700FAFF010202020202FFFD02020202020265
:10088700FD0202FFFAFF020202020202020000005A
:100897001A001F0024002A0031003A0043004E00CE
:1008A7005B006B007D009300AD00CC00F0011A01E6
:1008B7004C018701CC021D027C02EC0370040B047F
:1008C700C20599069607C0091E0ABA0C9E0ED85A89
:1008D700A55FA05EA15DA25CA359A65BA400000072
:1008E7000000000000000000000000000000000001
:1008F70000000000000000000000000000000000F1
:1009070000000000000000EAF6E9F3E7A1F7E3A51D
:10091700BDADB5BAB9BBE6B8F2F8BFBC0000000080
:10092700000000E9EDEFFBFAF9F7F6F5F3F2F1FF56
:10093700FDFEEEE7E6E5EBEA00000000000000FA46
:10094700F9F7F3F2F1EFEEEDEBEAE9E1E5FFE7FEA8
:10095700FDFBF6F501020304E100000000000000C2
:100967000100000014640000585A590007000000F5
:100977000600000065651200666613003F3E3A36C2
:1009870033302D2A272523211F1D1B191715131156
:10099700100F0E0D0C0B0A0907060402013F3E3A21
:1009A7003633302D2A272523211F1D1B1917151410
:1009B700131211100F0E0D0C0B0A090807069006EB
:1009C700D7EFF0E01313543FFF12B8751247DF90CB
:1009D70006D7E01313543F25E025E0FF1207EC90FC
:1009E7000AF17401F02274FFFFFE12B83F1247F2BA
:1009F7007F0112B8757F011207ECE4900AF1F0024B
:100A07009766900B8FEDF0900B8EEFF06409600402
:100A1700E0B40A037F0022900BB0E07002FF22903F
:100A27000AF3E0900B90F012CECF126C27900AF2E7
:100A3700E0B4040291E431F4900B8EE0FF125EAC57
:100A4700125F3EEF600512976680F5127097900B64
:100A570090E0900AF3F0900B8FE060051270A3917D
:100A6700567F0122E4900BD5F0600261591220EE07
:100A7700900BD5EFF0900AF2E0B40C0D900BD5E097
:100A8700FF122469900BD5EFF0900A13E0701390D2
:100A97000BD5E06464600B7D017F0D5109E4900B79
:100AA700D5F0900BD5E064647034900A13E06012BF
:100AB700E4F0900AF4E06004E4FD80027D017F0C1D
:100AC7008014900A137401F0900AF4E06004E4FDC6
:100AD70080027D017F0B510912775F127775900BAA
:100AE700D5E0FF64646061EF605E6412605AEF6492
:100AF700136055EFB4140EE4FD7F0A5109E4FD7F3E
:100B07000191E88043900AF2E0B40C1C900BD5E009
:100B1700FF64126024EF6413601FEF6459601AEFDB
:100B270064586015E4FD800D900BD5E0B40104E432
:100B3700FD80027D017F0A5109900AF2E0B40C089A
:100B47001200F9EF70029156900BD5E0B45A037476
:100B570059F0900BD5E0FF22E4900B92F0A3F0122E
:100B6700538BEF601290099DE0700C04F0FB122686
:100B7700C190099C7401F012538BEF701A90099D74
:100B8700E06014121831400FE490099D1277131298
:100B970020E0E490099CF090099DE06008125397CB
:100BA70012B9888002915612771412B5E4EF602BC0
:100BB70090099CE0602512538BEF60151276831223
:100BC700B9881220D9E4FD7F0712768F126D028053
:100BD7000AE490099C1277131220E07B017A0979C5
:100BE700A412B5E47F011218C1900B91EFF024ED28
:100BF700603424AE600714602D2454705112769926
:100C07005006900B931276EC900B91E06465703E62
:100C17001277437039900B93E070337D017F051293
:100C2700777C702A80261218314005900B9291909C
:100C3700900B91E0B46617900AF3E07011900B9255
:100C4700E0700B7D017F0612777C7002915622902F
:100C57000AF3E06033900AB4E064017018900AF276
:100C6700E0B403077FC0B1291264BB900AF2E0B475
:100C77000C031270AC1228D6121831400612539783
:100C870012B946E4900AB4F0227401F0E4FFEFB41D
:100C9700010A127699500DE004F0800812183140CD
:100CA70003E014F0900AF3E0B420127D017F0512EF
:100CB70024FCB40C081200F9EF70029156900AF365
:100CC700E070127D017F061224FCB40C081200F9B3
:100CD700EF700291561217FC7F010200097D017F18
:100CE70001900BBEEFF0ED6401700612539712B935
:100CF70088900BBEE0B4011B122859900AF2E0B4A9
:100D07000304E4FFB129900AF2E0B40C0EE4FFB14A
:100D1700298008E4FDFCFFFE122CF4900AB474014C
:100D2700F022900BC4EFF01228509009D7F0900BE7
:100D3700C4E0F0FF9009D8E0B507071276E5700226
:100D4700C17C900BC4E07018F1076002F10E122904
:100D57006F6003123082F1007002C16BD17DC16BED
:100D6700900BC4E0FF5409603A12296F6008EF54F2
:100D7700247003123082F100602112770B701CEF90
:100D870054C070179009D8E054126004D17D800BCD
:100D97009009D8E054C06003123253F10764096028
:100DA70002F18B12770B6032F1076007EF5409707D
:100DB70002F10E12296F600B900BC4E054247003EC
:100DC700123082F100600CE05412FF1276E56F607A
:100DD70002D17D1276E5FF122B13900BC4E0FF546E
:100DE70024601EF1076007EF54097002F10EF1004D
:100DF700600C12770B7007EF54C07002D17D122F71
:100E0700EE900BC4E0FF54C0605AF1076007EF543F
:100E1700097002F10E12296F600B900BC4E0542485
:100E27007003123082F10060071276E57002D17DFF
:100E3700F100FFB412047FC0800EEFB402047F40BC
:100E47008006EFB410027F80EFD39400400C900B24
:100E5700C4E054C06F6003123253900BC4E054C017
:100E6700FF1230D7900BC4E0FF9009D8E06F600203
:100E7700EFF01228B9227F01121FF0122FB750048A
:100E8700AF068000900BC2EFF0909C41E09009E222
:100E9700F0909C42E09009E5F0900BC2E0C39440CB
:100EA7005013129766900BC21230CDF125900BC2EA
:100EB700E004F080E4122A7C909C4FE0549FF16A92
:100EC700F157909C4FE054E7F16A909C4CE054FC3A
:100ED700F07F147E00F16F120017122B0AEFF470E7
:100EE70002EEF46013122B0AEFF47003EE64FE6057
:100EF70007909C48E04401F022909C49E05412225C
:100F0700909C49E054092212297E122A7C909C4821
:100F1700E044221276B854F61276AF4411F012B8B4
:100F2700A0EFFD7C007E017F90128182EF2401FFFC
:100F3700E43EFE909904E020E00BEF7802CEC31365
:100F4700CE13D8F9FFEF1FAC0670011E4C70F622C6
:100F5700909C49E054EDF07F027E00F16F909C4F2A
:100F6700E054F9F07F027E00900B9AEEF0A3EFF0C9
:100F7700900B9A125AC045F06009129766F125F155
:100F87002580ED22909C437403F0A31276B84409A0
:100F97001276AF54EE1276AF54DDF0F125122B0A1C
:100FA700EFF47002EEF46009122B0ABEFE0ABFFFCF
:100FB70007909C4374028005909C437401F0A3F052
:100FC70012307A7006122FE0122A8212779B7F5016
:100FD7007E008094900AF4E06006E4F09156800A5F
:100FE700900AF47401F0FDFF91E890091BE0B40149
:100FF7000312165322125749600D24F7600E240A74
:101007007017125F7180081264BB80031270B17B86
:10101700017A0679DD7D01112122900B401285E6C8
:10102700900B43EDF0126D871241A84002E4F012D5
:1010370041A04002E4F09006DB745AF0900AF2E017
:10104700FF60049006DCF0900AF3E09006DDF012F2
:10105700479D4002E4F0900AF2E0FBB401179007C5
:1010670002E09006DEF0900A6DE09006E3127784C6
:101077009006DF8019EBB40218900702E09006E8AB
:10108700F0900A6DE09006ED1277849006E91285DC
:10109700701241F59006F2EFF0900B4012456A602E
:1010A70033900B43E0602D7D5AE4FF12BA06900B94
:1010B700401285DDC3E994DBFF900B401285DD907C
:1010C7000B43E0900AEBF0123FE99006F2E0FD7F58
:1010D7001712BA0622C374E83125D39401400FE4EE
:1010E7009006E8F07B017A0679E87D011121C37447
:1010F700DE3125D39401400FE49006DEF07B017AC0
:101107000679DE7D011121C374DD3125900AF3E0F4
:101117006F600A7B017A0679DD7D0111212294DB5C
:10112700FF12BFF4900BD4EFF0227B007A00790016
:10113700900B7F1285E6E4900760F0900702E0705D
:10114700141226F890072FE09F90072EE09E400587
:10115700E4F0A304F0900B7F1285DD900513128550
:10116700E690072EE0FFA3E0900516CFF0A3EFF07F
:10117700F1B2129C6BEF7007900BA8740580277B68
:10118700017A07793F7D0B1241FD900A6DEFF07BE5
:10119700017A0679DB7D181121F1B212CEE6EF70E4
:1011A70009900BA87407F07F00229003F312857C47
:1011B70000000000900768E0601DE4F0124595907C
:1011C70003EF1284D39003F3121CBF400A9003F37A
:1011D70012857C000000001268F6EF7F017001FFA6
:1011E70022E4900B82F0A3F07F011218C19006FE53
:1011F700EFF0900760E060299006FEE070237B0126
:101207007A07796E12B5E4EF60173131EF700D9000
:101217000701E07D06B401027D07D10DE490076068
:10122700F09006FDE064067002813BA3E0120545DD
:10123700133C0613480712E50C127A1212A4131373
:10124700371513A6211369261369271384281384D6
:101257002913692A13842B133C2C13482D131C2F95
:1012670012D23013A63C140E63127A6512A46600DC
:1012770000143B1276995006900B831276EC900679
:10128700FEE064656002813B1277436002813B9018
:101297000B83E06002813B7D017F058029121831B5
:1012A7004006900B82120C909006FEE06466600286
:1012B700813B900AF3E06002813B900B82E0600281
:1012C700813B7D017F06120A09813B9006FFE0B44E
:1012D7000304E4F080389006FF7403F08030900632
:1012E700FFE0700404F08005E49006FFF09006FF2D
:1012F700E0B4040B9007027401F09007328008E411
:10130700900702F090073012659FF0126D467F013B
:10131700126E39813B900700E004F0E0C3940B4064
:1013270002E4F012698D126D467F01126E3F813B18
:10133700120FDB813BD1185002813BB107E4FF80DC
:101347000AD1185002813BB1077F0112626F7B01FE
:101357007A07796E7FE87E03FDFC12B5B2900760CD
:101367008038D11B5002813BB1077F0212626F3177
:1013770031EF6002813BB1CA9006FD801DD11B5041
:1013870002813BB1077F0312626F3131EF60028147
:101397003B7D077F01B1CE9006FD7401F0813B12C2
:1013A700470D90002DE09F90002CE09E402C12717D
:1013B7002C4027900702E0702190072EE06E700303
:1013C700A3E06F6015B107900A1112659FF012260E
:1013D700AF3131EF70047D06D10D1265ABFF900A76
:1013E700111264CC9FEC9E4011D3ED9400EC940055
:1013F7004008D14C7FE87E038006D14C7F007E00F9
:10140700F1BD1226AF802D900869E0B40126E49063
:101417000B84F09006FDE0B40208F1C4900B8474CD
:1014270001F01262BE9008697402F0900B84E0B478
:101437000102B12512774A6016900762E070100426
:10144700F0FB7A0779631226C59007737401F09051
:1014570006FDE0B4020C900762E06006E4F0900736
:1014670073F0900773E0602812775112B5E4EF60CC
:101477001F12774A600F1220D9E4FD7F0712768F7B
:10148700126D02800BE4900773F01277511220E07F
:101497009006FDE014600F24FE600704700BB12571
:1014A7008007F1C480031218399006F3E0600D122B
:1014B70070E7EF6007E49006F3F080269006F3E00C
:1014C70070201270E7EF701A9006F304F09006FD93
:1014D700E0B4020EF1ACEF2401FFE43E1247AB1279
:1014E70045B0F1AC9006F9121CBF6013126ABC122A
:1014F7003564400BF1AC9006F9128570126D4622E7
:10150700F1B212A68F9003F312857C00000000D180
:1015170011E4FDFF120CE87F647E00028AF8F1B245
:1015270012DB79EF600612CEB0EF70129006FFE083
:10153700640370227F0A126ABE1235644018B1072D
:101547009006FFE064016005E4FF12615F3131EF4F
:101557007004B1CA80427B017A07796912B5E4EF5A
:101567006018900AF4E0701290075FE0700C120C9C
:1015770056125F7190075F7401F0126AD0EF701A0C
:10158700B107900701E0FF64026003EF70047D0676
:1015970080027D077F01B1CE8070127758600B24DF
:1015A700FE60181460152404701812CECF126C2731
:1015B7009006FD7403F0126D398004127793F012D0
:1015C7006E45227D067F01900B38ED127655C39448
:1015D7000840037F0022900B38E0FFA31285DD90BF
:1015E700000174011204C4FD1280F62DFD7C00ED8C
:1015F7005407FD900B39127725E92DF9EC3AFAEFEC
:1016070012813C7F01227F01B1CE9006FD7401F06B
:10161700221250B1D390002DE0940190002CE09459
:101627000022E054FDF0E054DFF0E054FBF0E0541A
:10163700BFF0E04401F0E04410F0E4FDFFD1CBE45B
:10164700FD7F01D1CB7B017A09791622126F636086
:101657000D14602724FD24FD504424087060F18A8E
:1016670090091D7008D1297FE87E03804FF194D13E
:10167700C67D01D1487F007E008041F18A701490B9
:10168700091DF1F554BFF07D01E4FFD14A7FE87EE3
:10169700038009126FC9D14A7F007E00801EF18A3C
:1016A700701190091D126FD2E4FDFFD14A7FE87EC9
:1016B700038009126FC9D14A7F007E00F1BD22F075
:1016C7007D01E4FF900BAFEDF0900BAEEFF07010E3
:1016D700A3E07D017F01600512B988800312B94636
:1016E700900BAEE0B4010EA3E07D207F0A600302F9
:1016F700B98812B946221226956005EF640270492F
:1017070012774A700B90091DD1297FF47E0180372B
:101717009006FDE0FF64016005EF6403700FF1912F
:10172700F0F1F07D01D1487F007E00801A9006FD20
:10173700E0600464067012F191D1C67D017F01D18A
:10174700CBD14C7F007E00F1BD22900AF2E064030A
:101757007030F18A700E90091DF0F194D1407FF43A
:101767007E01801CE490091DF0E054FDF0E054DF99
:10177700F1F554BF126FD27D01E4D1437F007E00A3
:10178700F1BD22900AF4E064012290091DE054FDA6
:10179700F0E054DFF0E054FBF0E054BFF0E054FE1B
:1017A700F0E054EF229003F30284D37B017A0779A8
:1017B70030227F007E007D007C0002B5B212775890
:1017C700600B24FE601B1460182404701BF1FC12CC
:1017D700CEB8126C32126AC5F1BD9006FD74028054
:1017E70003127793F0126E4522E4FDFFC1CBF0E0C0
:1017F70054FBF0E022120FFC900AF3E07010900AFD
:10180700B4E0700A900AF4F07D01FF120CE8900A28
:10181700B4E0B4010811314004A37401F0900AF454
:10182700E0B40105E4F0120C5622900AF3E0D394D9
:101837000022127758600304700E121131EF700501
:101847009006FD04F01217FC227F0111C1900B7C5A
:10185700EFF0E4A3F0A3F0EF14605B24EE60332411
:10186700FE605324B060071460282454704B12762E
:10187700995006900B7E1276EC900B7CE0646570B5
:10188700381277437033900B7EE0702D7D017F0512
:10189700802111314006900B7D120C90900B7CE05B
:1018A700B46616900AF3E07010900B7DE0700A7D25
:1018B700017F06020A09120FDB22E4900B3C127625
:1018C700556042900B3D127725C003C002C00190BE
:1018D7000B3D1237E7FF7C00D001D002D00329F976
:1018E700EC3AFA1280F6900B3CF0EF045407FFA392
:1018F7001285DDEF12813C900B3D1285DD900001D2
:1019070074FF1204FB900B3CE0FF22900AF2E09078
:101917000BCDF0E4FF11C19009CCEFF064576004E0
:10192700E0B44203126D02125D04EF602D900AF2DB
:10193700E0FF64076024EF6408601F900006E0B4CE
:10194700030A900AF2E0B40D03121611120CE47F99
:10195700967E00128AF87F0231DA125DECEF60049E
:101967007F0331DA1256FAEF60047F0731DA125734
:1019770049601F24FD24FD5023240770369006D2AA
:10198700E06007510DEF702B800E125C1AEF702389
:101997008006125788EF701B7F018015125678EF6B
:1019A70070117F907E01128AF81256FAEF70047F49
:1019B7000251C79009CCE0B41418900006E0B403B4
:1019C7000A900AF2E0B40D03121611900AF2E0FF32
:1019D700516922900AF2E0900BCCF031F3EF700BD3
:1019E700900BCC51B170047F01516922EF24FD6047
:1019F7000C24FC600E24FB6007240A80090250CEE9
:101A07000250BB0255ADE4900BCAF0900A3DE0B41A
:101A17000109120CE4900BCA7401F0125C1AEF7002
:101A270006900A3DF0FF221209ED1216111200125C
:101A3700900BCAE07003120CE412B24FEF7002FF72
:101A4700227F0212505D7F09120D29E4FD7F0312E8
:101A57000A097F02126877EF7002FF221264D37FB0
:101A67000122E4900BA3F0900BA3E0FEC394045073
:101A77001174C32E51BFE06F6008900BA3E004F010
:101A870080E5E4900BA2F0129766900BA351B74044
:101A970002E4F0900BA3E024C351BF51B1700A9048
:101AA7000BA251B740E1125DB522E0FF31F3EF22FF
:101AB700E004F0E0C3940422F582E43409F58322BC
:101AC700900BCBEFF031F3EF7007900BCBE0FF51AA
:101AD70069227B017A0679F41217B990963DE05492
:101AE700FCF012B65B125C4F1217B97B017A0979C9
:101AF700C77F2C7E011217BD7B017A0979C712B502
:101B0700E4EF7008125D04125DEC80EC125DE59065
:101B17000A37E0B40108900AF27403F08012900AC1
:101B27003DE0900AF2B401057402F08003740CF0F2
:101B3700900AF251B170047F0C51C722122DD5744F
:101B4700FFFFFE12B83F12B8CC129766E4900BB2B3
:101B5700F01247F2126C40D2AF126CEC1276FF1201
:101B6700203E9096011220D5122537126CF371E3AF
:101B770012778BA3E0444012203E909601E0444048
:101B87001220D8E4FDFF122F3C12539712B988E4B4
:101B9700FF126D9812356BE4FF122A8A12409A12CF
:101BA70037C412472351D91297661235B212254C02
:101BB7003112126F63600F14601624FC601624FB49
:101BC7006009240B70111211E8800C120B5F80075B
:101BD700115080031257E5126E6880CB9006D8E04B
:101BE700FF64086007EF6420600281A47B017A0A22
:101BF70079607FAC7E0D1217BD7B017A0A7960127E
:101C0700B5E4EF707B129766127236900A651285FB
:101C1700707F807E7F7DA57C5A900A6591BF605A50
:101C27007F807E7F7DA07C5F900A6591BF604B7F40
:101C3700807E7F7DA17C5E900A6591BF603C7F803E
:101C47007E7F7DA27C5D900A6591BF602D7F807E3F
:101C57007F7DA37C5C900A6591BF601E7F807E7F3D
:101C67007DA67C59900A6591BF600F7F807E7F7D3E
:101C7700A47C5B900A6591BF7006126CF302778BA8
:101C8700126D327F0912B9ACEF20E60C7F0A7E0095
:101C9700128AF812976680EB7F01126D1522128364
:101CA70058AC00AD01AE02AF039009F012857090F9
:101CB70009F01284D39009EC1284DFC302840E90DA
:101CC70009E7EDF0A31285E69009E6EFF090053EEF
:101CD700E0FEEFD39E50149009E6E0C39401400B59
:101CE70090054512456A6003EE70037F0022900954
:101CF700E6E0149009EBF09009E7E0FF9005451244
:101D070085DD9009EB127678EF12814E9009E81283
:101D170085DD12BF3FF1D19009E7E064036002C19E
:101D270045A3F1DA12810FD39406400312BE90F156
:101D3700B49009F0128570D1DE78009009F0128412
:101D4700D3128358EF2402FFE43E1247ABE47B072C
:101D5700FAF9F8128358AF039009F4EFF09009E805
:101D6700F1DA12810FFEC39F4014EEFF9009F4E0F1
:101D7700FDEF9DF1E8FDD1DEF81282CD80289009B4
:101D8700E8F1DA12810FFF9009F4E0C39FF1E8FD53
:101D9700D1DEF81282CDC374809FFF743A9EFE7421
:101DA700099DFDE49CFCC006C007D1E5900001D069
:101DB70007D0061284AFD1E5F1BAC003C002C00153
:101DC7001284459009F0124857D001D002D003126F
:101DD7008495D1D81276A1F1D19009F0D1DB7800A2
:101DE70091A59009EBE075F006402BD1ECF1BAC054
:101DF70003C002C001128445C004C005C006C00765
:101E0700127730F1CBF1E1AB07D007D006D005D080
:101E1700041282B2807DD1ECF1BAC003C002C001C6
:101E2700128445C004C005C006C007F1C2F1E1AB8A
:101E370007D007D006D005D0041282BF805590097D
:101E4700E7E064027058D1D81276A1F1D1D1DE78DB
:101E570000F1B491A54007127730F1CB8012F1C29F
:101E6700C374809FFF74519EFE74019DFDE49CFC2A
:101E7700C006C007D1E5900001D007D0061284AF95
:101E8700D1E5F1BAC003C002C00112844590B10682
:101E9700124857D001D002D00312849580259009AB
:101EA700E7E0B4011EF1B49009F01285709009ECD7
:101EB7001284D3C006C007D1E5900001D007D00631
:101EC7001284AF9009E6E0FF12C1CB12BA257F0159
:101ED700229009EC1284D37B807A517901229009F0
:101EE700EBE075F006A4FF9005451285DDE92FF9B3
:101EF700EA35F0FA22900B1F12857C00000000E4FF
:101F0700900B1EF090053EE0FF900B1EE0FEC39F76
:101F17004002E1B1EED1E990000512810F64016042
:101F270002E1A912766F12810FFBB4020FF1B4EF31
:101F37002480FFEE3451FEED34018011EBB403131E
:101F4700F1B4EF2480FFEE343AFEED3409FDE43CB2
:101F5700FC800B12766F12810FB40108F1B4900B5D
:101F67001F128570900B1ED1E890000112846590B6
:101F77000B1F91BF6025900B1ED1E81276C1125A34
:101F8700D2C312840E6014900B1ED1E81276C1EFF3
:101F970024FE125AD5C312840E7007900B1EE0045C
:101FA700FF22900B1EE004F0E10B7F002290B106A8
:101FB7000284D3E92401F9E43AFA229009EC128465
:101FC700DF9009F01284D30282BF9009EC0285707A
:101FD70090069D1285DD90000422A804A905AA0693
:101FE70022FFE49400FEE4FC22900BBFEFF07F0198
:101FF70022900B7BE0701B900BA1E07015111A1259
:10200700539712B988900AF2E0B40C03122F811289
:1020170038082290091BE0B401021128126E19F04A
:10202700221217F0E4FD7F011216CB1276FF113E44
:102037007F147E00029001F0909605E04440F0A3E3
:10204700E04440F022E490094EF0513511E011E7E9
:102057001217B9E4FF122EABE4FF12C06B12C00EC9
:1020670090961DE054DFF0A3E04420F0909620E026
:102077004420F0A3E04420F090961CE054EF11D8E0
:1020870090961DE054BF1145909620114290961CE2
:1020970011D5909602E054FBF0A3E04404F090962B
:1020A70005E04404F0A3E04404513C11D8909602A3
:1020B700E054FDF0A3E04402F0909605E04402F0FE
:1020C700A3E04402F0B1047F027E00028AF8E054E4
:1020D700BFF07F027E00028AF8FFFEFDFC02B5B268
:1020E7007B017A09795922513512B5E4EF7002FF65
:1020F7002251357F051217BB514D900BD7EFF0904A
:10210700094EE024FE605514700221E224036002A8
:102117004126900BD7E0F4701A9144E054BF513C2C
:10212700F0E054FDF011E712B5E4EF600312775FBA
:102137007F0022900BD7E0900943F0640C6004E025
:10214700B41508512E7FB87E0B8006512E7FF47E82
:10215700011217BD90094E7402F0412B9163EF11E4
:10216700E770087FD07E07FDFC8002B10F12B5B281
:1021770091576038E490094EF0EE64016023EE2435
:10218700FE60131460141460152404701490961CD8
:10219700E054BFF0800B91448007B1048003513DA8
:1021A700F051442467F582E43409806D512E12B54D
:1021B700E4EF6070900943E0512EB424067FE87E77
:1021C7000380047F2C7E011217BD90094E7403F023
:1021D70051442468F582E43409803E91576013E442
:1021E70090094EF0EE25E025E0246AF582E43409F3
:1021F7008027512E12B5E4EF602A900943E0512E53
:10220700B424067FE87E0380047F2C7E011217BD6D
:1022170051442469F582E43409F583E493FF22E409
:1022270090094EF07F00227B017A097944227B01D5
:102237007A09794F22F0909601E054FB22900943E6
:10224700E025E025E02212C032EF6016914C900B9A
:10225700AC7401F0E4A3F012C03E90094A128570F5
:10226700801912C01EEF600C914CE4900BACF0A3E8
:1022770004F08007E4900BACF0A3F0900BACE0FF08
:102287007006A3E070028110EF6005E4900942F048
:10229700900942E0C394055003E004F0900942E03E
:1022A70075F046A4FFAEF0E4FCFD7B017A09795492
:1022B70012B5B290094BE0FF90094AE02FFFE433D3
:1022C700FEEFF44E6002810890094CE0647F707B5A
:1022D700A3E064807075900941F09136941C400228
:1022E7008108EF25E024D6F582E43408F583E493EA
:1022F700FE7401913D6E7003A3E06F704A900AF27D
:10230700E0640C70399163EF6034900941E024FE7A
:10231700601314601914601F2404702290961CE047
:102327004440F0801990961CE04420F0801090966D
:1023370001E04402F08007909601E04404F0909693
:1023470001E04440F0811C912F808F90094CE0F40C
:10235700701FA3E0701B900941F09136941C400256
:102367008108EF90090E913DB50702811C912F80DE
:10237700E990094CE0FE64BF703EA3E0703A900913
:1023870041F09136940C500FEF90092A913DB50713
:1023970002811C912F80EB900941740CF0913694C7
:1023A7001C505EEF90092A913DB50708900941E05E
:1023B70024098045912F80E5EE64FD704490094D16
:1023C700E06402703C900941F09136940C500FEF95
:1023D700900946913DB50702803B912F80EB90090C
:1023E70041740CF0913694215017EF900946913DB6
:1023F700B5070A900941E02412F0E0FF22912F80EF
:10240700E390094174FFF0FF227B017A09795412A6
:10241700B5E4EF7006900941E0FF2290094A128562
:102427007C000000007FFF22900941E004F0229029
:102437000941E0FFC32293FF90094AE02290961CCE
:10244700E054DFF022900AAF7401F0A374F4F02295
:10245700900BD7E0FF900943E0FE6F22900A13E04C
:10246700FF22900AC3EFF0BF5822900A10E0C394EE
:10247700024002E4F0900A10E004F0E0B4010D7BA2
:10248700017A0A79C47FF47E011217BD91F1700EAB
:10249700900A10E0B40107E4900AC3F0804691F176
:1024A7007014900A10E0B4020D900AC37467F0E448
:1024B700900A10F0802E91F1602A900A10E06401D2
:1024C7007022900AC37458F0E4900A10F09163EFF9
:1024D7006012E4FD7F0A91FCB40C091200F9EF7059
:1024E70003120C56900AC3E0FF227B017A0A79C4D3
:1024F70012B5E4EF22120A09900AF2E0229096013F
:10250700E054FDF02274C7F07F007E007D007C0060
:1025170022900BB0E0B40308900AFAB10C02371C02
:10252700900BB0E0B40108900B04B10C12370522F0
:10253700114CD1AFB145FFFEFDFC02B5B2F07B01F6
:102547007A0A791422120A6B900BD6EFF060097B96
:1025570001D1C1127751D1C5900A1BE0B40102D154
:102567009D900A11E07002A3E06025B14512B5E421
:10257700EF7007900BD6E0B42216B1457F887E1323
:102587001217BD900BD67421F0E4900A1BF0C17EA0
:10259700900BD6E0FFC394164073EFD39420506D91
:1025A700D1956007EF64026002C16CD1A6F0900B71
:1025B700D6E0FBB4201F900A11E0FEA3E0FF7C00E9
:1025C7007D0A128182ED4C6002D1AFD1B7900A1912
:1025D7007401F08025900A19E06011EB24EAFFE40A
:1025E70034FF900A118FF01281D78009900BD6E043
:1025F70024EAFFD1D0E4900A19F0E4900BD6B14455
:102607007FD07E07FDFC12B5B2D19D806A900BD6B4
:10261700E0FFC394314055EFD3943B504FD19560C1
:1026270005EF64027051D1A6B1447F887E13FDFC8B
:1026370012B5B2900BD6E0FFB43B04D1B78006EFDA
:1026470024CFFFD1D0D19DD1956004EFB40216D12C
:10265700F8900A12E09F900A11E09E5008900BD65E
:10266700743CF08012E4900BD6F0800B900BD6E010
:102677006005D1AFD1A7F0900BD6E0FD600F7F01C9
:102687001215CE900BD6E0FDE4FF1215CE22900A6C
:10269700F2E0FF640122900A11E0FEA3E0FF22E4CA
:1026A700900A1BF0900A1A22E4900A11F0A3F02274
:1026B700900A11E475F00A0281D77A09799E7FC0E2
:1026C7007E277D097C0002B5B2AB0712470D94E85F
:1026D700EE940350117C007D0A128170EB2FFFEC02
:1026E7003E900A118006AF03900A11E4F0A3EFF0C1
:1026F7002290002CE0FEA3E0FFD322900AD512859A
:10270700E6900AD8ECF0A3EDF07D01F1B9C3900A89
:10271700D8E094025060900AD8D1FB9440EE940020
:102727004006A37440F08005900ADAEFF0900ADAC9
:10273700E0FDFFC3900AD9E09FF0900AD8E094002B
:10274700F0900AD51285DD7F24126675F1A67D20EB
:102757007F13F1C97F01123F0CEF6040F1A4F1AD87
:10276700900ADAE0FF900AD6124FDE900AD8E0709E
:1027770002A3E070A122F1A47DB4F1AF900AD512B3
:1027870076D9900AD51276CD900AD812771B900A7F
:10279700D812773A7D1F123FC412627722E4FD7F79
:1027A700127EA3028F807D207F137EA3028F80F08D
:1027B700E4FD7F0E7EA3028F807EA3128F807D10A3
:1027C7007F087EA3128F80E4FD22126CF37F011233
:1027D700CD82E4FD7F06F1C97F07F1C07F09F1C90A
:1027E700125D82123ECCD310AF01C3C0D090040358
:1027F7007420F0A3E4F0122805D0D092AF22909570
:102807001CE0F0229005BFE0B40508A3E0B4AC03D8
:102817007F01227F0022110B9006ACEFF022126A93
:10282700B430E0027F019009D6EFF0909901C083A0
:10283700C082E0FFA3E04401D082D083CFF0A3EFB2
:10284700F0909C06E04480F0221125909C48E054CB
:1028570044221150FFBF44028058120F0760023113
:102867007E316F7005E05412603D316F600AF1B739
:102877005004AF06800A8008D1D95004AF06800003
:10288700900BC5EFF0900BC5E0C3943F501712971C
:1028970066900BC5E004F0E0543F909C41F0A3F034
:1028A700120F2580E0D198115264446005E044443A
:1028B70031849009D6E07016126C1CC083C082E088
:1028C700FFA3E054FED082D083CFF0A3EFF0221114
:1028D700507002216DD1981152600BE054BBF07F0C
:1028E7001E7E00120F6F120F07600312779B316F66
:1028F7007005E05412606F316F6010F1B75004AF8C
:102907000680003176F09009DA800ED1D95004AFF5
:102917000680003176F09009E5E0900B2EF0900BE1
:102927002F743FF0900B2CE0FF900B2FE0C39F40DC
:1029370035129766900B2FE014F0900B2DE0FF9067
:102947000B2FE0FEC39F4007EE543F909C41F09051
:102957000B2EE0FFEEC39F4008A3E0543F909C423C
:10296700F0120F2580BE01B9909C49E054242290B3
:102977000B2CEFF0A3EE22909C01E04403F07F5074
:102987007E00020F6FAE071125EE543FFEED543F58
:10299700FD316F600A9009D9EEF0A3EDF0800F12B8
:1029A7000F00602E9009E2EEF09009E5EDF0909CA3
:1029B70048E020E20B909C41E0543F6E6002EEF04D
:1029C700909C48E020E60B909C42E0543F6D6002EB
:1029D700EDF001B9AE071125909C46E04410F0AF29
:1029E70006D1E61217BD909C4BE020E20491E66009
:1029F700F5512F4480F07F0151314420F0120F250B
:102A0700909C45E04405F0120F25909C46E0547FCA
:102A1700F0F1E7909C49E054BFF0120F25E49009CC
:102A2700E3F09009D8F001B97F647E00120F6F9030
:102A37009C46E022900BC0EFF0512F4480518290CA
:102A47009C45E054FA5182909C46E0547F51829015
:102A57009C46E054DF5182909C46E054EFF0900B87
:102A6700C0E0FFD1E61217BD909C4BE020E3059133
:102A7700E660F52222909C48E04444F07F0A7E00FD
:102A8700020F6FAE079009E3E070771125AF06518B
:102A97003B909C00E4F0909C49E04440F0120F25E5
:102AA7001233967481F0909C0014B1CF7002EEF44B
:102AB7006008710ABEFE0DBFFF0A909C437402F0C6
:102AC700A3F0800D909C437401F0A3F0909C4AE41E
:102AD700F0909C04E4F0F1A37411F09009E2740AF9
:102AE700F09009E5F0F1ABF0E49009D8F09009E334
:102AF70004F0909C01E04403F07F327E00120F6FD8
:102B070011B92290966BE0FEA3E0FF22900B73EFC2
:102B1700F0909C4E91DE909C4DE0543F900B75B128
:102B2700CF7002EEF46012710AEFF47003EE64FEE8
:102B37006007909C48E054FEF0909C4CE04403F002
:102B4700909C41E4F0A3F0909C4FE04418120F6A68
:102B5700909C4FE04401120F6A909C4FE04406128C
:102B67000F6A909C49E04412120F6A7B017A097937
:102B7700DB7F107E271217BD9009D5E060028146E2
:102B8700909C4BE020E058909C4BE030E002814065
:102B970091E660028140710AEFF47002EEF4600B77
:102BA700710AEFF47003EE64FE7022900B74E01468
:102BB70091D0909C4EE07023ED643F607C900B7445
:102BC7007440F0A3E025E0F04401F0800E900B7410
:102BD700E014909C4EF091DEE0605ED18180A89079
:102BE7009C4BE030E053909C4BE030E04C91E6701A
:102BF70048710AEFF47002EEF4600B710AEFF4709B
:102C070003EE64FE701F900B74E00491D0909C4E0D
:102C1700E0643F7020ED6021900B7474FFF0A3E037
:102C2700C313F08010900B74E004909C4EF091DE7B
:102C3700E0643F6004D18180AD9009D57401F01242
:102C47000F57909C4FE054FE120F6AD198909C4FFB
:102C5700E04406120F6A909C49E04412120F6A90F2
:102C67009C4FE04460120F6A1200169009D7E0707B
:102C770003F1E0F05183D1D95004AF068000900BE7
:102C870075EFF0900B74743FF0900B75E0FF900BAD
:102C970074E0D39F402B12324BFF900B74E0FEC3BE
:102CA7009F4005909C41EEF01232439F4008900BE5
:102CB70074E0909C42F0120F25900B74E014F080A2
:102CC700C89009E2E0F1ABF022909C4EF0900B75B2
:102CD700E0FD909C4DF0A3E0543F900B74F022125E
:102CE70097667B017A0979DB12B5E4EF22900B280E
:102CF70012686B1125710AEFF47002EEF4606271CD
:102D07000AEFF47003EE64FE6057900B28B1C8C356
:102D170033CE33CED8F9FF7C007D05128182900B2C
:102D270028EEF0FAA3EFF0FBA3B1C8C333CE33CE3E
:102D3700D8F9FF7C007D05128182900B2AEEF0A363
:102D4700EFF0D3EB94EAEA940B4005900B28D1906F
:102D5700D3900B2BE094EA900B2AE0940B4002D11E
:102D670090900B28D188A3D188900B28E0FCA3E092
:102D7700FDECC454F0FBA3E04B9009E0F0AF05A3D2
:102D8700EFF0900B2AA3E09009E4F0909C04EFF099
:102D9700909C02E0540FF0C083C082E0FF9009E0EE
:102DA700E0FE54F0FDEF4DD082D083F09009E4E0CF
:102DB700F1A3E054F0F0E0FFEE540FFEEF4EF00108
:102DC700B9E0FEA3E0780222F0710AEFF4229098AE
:102DD7008AE04430F090988CE054FAF0D17A9098D9
:102DE70004E0B4170890B0077403F08009907FC01F
:102DF700E49390B007F090B000E4B1CF4E6007D1F4
:102E07007A90B008D1A17D027F0712B9887D027F31
:102E17000512B98890B009E020E157D17A90B0093E
:102E2700D1A1F50AF50B050BE50B7002050A640A3B
:102E3700450A70F2E4F50AF50B90B004E030E01FA4
:102E470090B004E030E1028011050BE50B7002053C
:102E57000AD39440E50A941F40DFE4FF02BA9A9030
:102E6700B004E020E0DAE020E1D6E4FF12BA9A12DB
:102E770038082290B00074FFF0227F057E00020F11
:102E87006FE0540FF0A3E0F022740BF0A374EAF0A4
:102E970022909C41743FF0A3F022E04402F090B0EE
:102EA70000E4F022900BE6EFF012B957900BE6E042
:102EB700FF7009D17AD1D1E04404800BEFB4010946
:102EC700D17AD1D1E04408D1A42290B009E054F3DB
:102ED700F0229009E5E0FF9009E2E0FEC39F22D1CE
:102EE700F37B017A0979DB7FB87E0B22900B70EFB9
:102EF700F0A37401F0129766909C46E054F0900B93
:102F070072F0E0FF900B71E0FEEF4EA3F0900B70B4
:102F1700E0B4010BEEB40707900B72E04408F090A1
:102F27000B72E0909C465182900B71E004F0E0C375
:102F3700940840C122D17AEF700F90B204F090B29A
:102F470003F17A90B205F08024EFB4010E90B20439
:102F5700E4F0A3F17A90B203F08012EFB4020E907E
:102F6700B203E4F090B205F17A90B204F090B000A9
:102F7700E4F022F0ED90000E9322120CE41159E4D4
:102F8700FF120D2912768312B9881276F312B94609
:102F97001275F6126E0F12757A02B988909C03F0BB
:102FA700909C0222909C41F09009E5E0909C42227F
:102FB7009009DAE0FF9009D9E0FEC39F2212BA9583
:102FC700D17A90B100E04441C1A4D17AA3E054FB87
:102FD700F090B100E054BEC1A4909C48E054BB22DD
:102FE7007F017E00020F6FD1981276B94424F01248
:102FF7000F25909C47E04403F07FF47E01120F6F8A
:10300700909C47E054FCF0117A7004122FE0F01204
:103017002A83122FB75004AF068000900B9CEFF065
:10302700A3743FF0900B9CE0FFA3E0D39F403312C3
:1030370097669009D9E0FF900B9DE0FEC39F40057E
:10304700909C41EEF09009DAE0FFEEC39F400890B4
:103057000B9DE0909C42F0120F25900B9DE014F021
:1030670080C29009D9E0909C41F09009DAE0909CE9
:1030770042F022120F259009D7E022122FB75004F1
:10308700AF068000900BC1EFF0909C41E09009D90A
:10309700F0909C42E09009DAF0900BC1E0C39440B5
:1030A7005013129766900BC111CD122FE7900BC1E9
:1030B700E004F080E4122A7C909C49E054DBF07F26
:1030C700037E00020F6FE0FF909C41F0A3EFF02218
:1030D700900B76EFF030E602513B900B76E0FF3035
:1030E700E7025133EF30E606909C41743FF0900BB6
:1030F70076E030E706909C42743FF0900B76E0FF55
:1031070030E602512BEF30E7025123120F6B900B81
:1031170076E0FF30E602511BEF30E70231BD120FB8
:103127006B9009D7E06444601A900B76E0FF30E6B5
:1031370007909C48E054FBF0EF30E707909C48E08D
:1031470054BFF0122A83122ED95004AF0680009084
:103157000B77EFF0A3743FF0900B77E0FFA3E0D37A
:103167009F4037514BFF900B78E0FEC39F400C9078
:103177000B76E030E605909C41EEF051439F400FFF
:10318700900B76E030E708900B78E0909C42F012C5
:103197000F6B900B78E014F080BE900B76E0FF3059
:1031A700E60331B5F0EF30E704122FAFF0229009B4
:1031B700E2E0909C4122909C4FE04420F022900B4B
:1031C700C6EFF0122825900BC6E0FF30E602513B10
:1031D700EF30E7025133900BC6E030E602512B90F7
:1031E7000BC6E030E7025123120F6B900BC6E0FFCE
:1031F70030E602511BEF30E70231BD120F6B900B27
:10320700C6E0FF30E60331B5F0EF30E704122FAF29
:10321700F00228B9909C4FE04440F022909C49E08E
:103227004410F022909C49E04402F022909C4CE02C
:103237004408F022909C4CE04404F0229009E5E019
:10324700FFEEC3221297669009E2E022122ED950B0
:1032570004AF068000900BC3EFF0900BC3E0D3944C
:103267003F502C129766909C49E030E108900BC3C1
:10327700E0909C41F0909C49E030E408900BC3E05B
:10328700909C42F0120F6B900BC3E004F080CB9040
:103297009C49E030E107909C48E04404F0909C4949
:1032A700E030E407909C48E04440F0122A83909C69
:1032B70049E030E10251EF909C49E030E40251E7E8
:1032C700120F6B909C49E030E104E054FDF0909CB4
:1032D70049E030E404E054EFF07F027E00020F6F14
:1032E700909C4FE054DFF022909C4FE054BFF022B7
:1032F7001228259009D8E05412702E909C49E0308E
:10330700E10251EF909C49E030E40251E7120F6B64
:10331700909C49E030E104E054FDF0909C49E03096
:10332700E404E054EFF0120F6B909C4CE030E204A1
:10333700E054FBF0909C4CE030E304E054F7F002DB
:1033470028B9EF909C50B40105E054FCF022E0440A
:1033570002F0E054FEF022122825909C00E4F07160
:103367009674A3F0909C007480F09096417420F0BE
:103377007D037F1D12B9467D037F1E12B9887D0428
:103387007F1D12B9887D047F1E12B9460228B990A5
:103397009C057442F0A322907FDFE493543FFF9093
:1033A7000B9EE4F0A3EFF0900B9E1247109424EECF
:1033B70094004009D3EF942CEE94004009900B9EA3
:1033C700E4F0A37428F0E4FDFF12B0157E007C0C36
:1033D7007D1C1285EFC006C007900B9EE0FEA3E0A0
:1033E700FBAA06E4F9F8D007D006128358C3EF9476
:1033F700B8EE940B50067E0B7FB8800DD3EF94F890
:10340700EE941140047E117FF822900BAAEFF0E4AE
:10341700A3F0D3900981E09400900980E0940040E4
:103427001F9009821284DFC000C001C002C003716F
:103437009EE4FCFDD003D002D001D000B1C6B1CFCD
:10344700900980E07002A3E06002A13A7B64FAF978
:10345700F89009821284D312835890098B128570D1
:10346700900980E4F0A37464F0A312857C00000047
:1034770000E47F107E0EB15F400890097A7402F075
:103487008019E47FACB15D400890097A7404F0803C
:103497000AB15A400690097A7405F0B15A4015E40A
:1034A7007FAC7E0DFDFC90098B121CBF5006900966
:1034B7007A7405F0900BAAE0B4010AB15A5006904D
:1034C7000BAB7401F0900BAAE0700AB15B50069049
:1034D7000BAB7401F0900BABE06401705690097A66
:1034E7007406F012001D12976690098FE0602EE4B3
:1034F700F07B017A0979867F107E27FDFC12B5B231
:103507007D017F04120A0912776E900AF2E0640CBB
:1035170070211200F9EF701B120C5680167B017A8E
:1035270009798612B5E4EF600AE4FD7F0412768F0D
:10353700126D0202001D909801E0FDEF543FFCED73
:103547005CF0EF30E50C122E7A90B100E054BE1219
:103557002EA422E47F487E0DFDFC90098B1284DFA8
:10356700D302840EB1AB1217B97B017A0979901295
:1035770017B9900980E07002A3E06024B1CF9009E9
:10358700821284DFC000C001C002C003719EE4FC48
:10359700FDD003D002D001D000B1C612776780D228
:1035A7007F0181117B017A09797B22B1AB12B5E4E6
:1035B700EF600BB1AB7F321217BBE4FF9111221200
:1035C70082B290098202857090098074FFF5F0023B
:1035D70081D7900A4A128570900A4E1285E6900AA2
:1035E70051E07002A3E07002C190900A4A1284D39E
:1035F700EF5401FFE4FEFDFCFBFAF9F8C312840E59
:103607006016900A4A12853B900A4E12423B12807E
:10361700F6D19F900A51B1D27F06D197D1FD7FADE8
:10362700D197900A4AF197D1DBF19C900A52E02496
:10363700FEFE900A51E034FF900A53F0A3CEF0D378
:10364700900A54E09401900A53E0940040157FAD2E
:10365700D197D1DB900A5374FF75F0FE1281D7F131
:103667009C80DC7F04D197D1FDD1BE900A51E0FE4A
:10367700A3E0FF30E013E4FCFD900A4A124857121A
:103687005AD2900A4EF1E7D19F22F140D1BE7F0670
:10369700AD0712704C0200E1900AFFF0900AFB128E
:1036A70085707F06D197D1FD7F02D197900AFBF1F4
:1036B70097900AFFE0D1F97F05D197120025900B6B
:1036C700DDEFF0D1FD7F017E00128AF8900BDDE07F
:1036D70020E0E422900A4EE475F00112052E1280D4
:1036E700F6FF1200E1900A4EE475F00112052E1262
:1036F70080F6FF1200E190960AE04408F022900B52
:1037070000128570E4FFD191D1FD900B04E0FFD149
:1037170097D1FD80A2900AF61285707F43D191D18F
:10372700FD900AFAE0FFD197900AFAE064C76005B6
:10373700900AF6F197D1FDC1BE900BDCEFF07F50F8
:10374700D197D1FD7F01D197900BDCE080A4900A3F
:1037570072128570900A761285E6900A7912478E62
:10376700602DD3EF9400EE940150247F06D197D1BA
:10377700FD7F02D197900A72F1A3900A79E0FEA328
:10378700E0FF900A761285DD1244DDD1FDD1BE221D
:103797001284D3800A7F017E000290011284D390A5
:1037A7000B48128570900B49E0FF1200E1900B4A1D
:1037B700E0FF1200E1900B4BE0FF0200E17D087F84
:1037C7000C12B946F1EDE4900BB0F0126FE3900BD9
:1037D700B0E0FF600AEFB401067F1CF140D1BE22C2
:1037E7001285DD0280F6D1FDE04401F0E04402F0ED
:1037F70090960CE04408F0E044011217F54402F0FB
:1038070022D310AF01C3C0D012BAA280FE90B00479
:10381700E030E016900B79E004F0E0B40A06900B74
:103827007B7401F0E4900B7AF022900B7AE004F0BD
:10383700E0B40A03E4A3F0E4900B79F022900BB212
:10384700E0700211511114021FF89096457403F0AD
:103857005149EF60189006A0E064076010900AA431
:10386700740BF0A374B8F09006A07407F09006A04C
:10387700E0FE702B31D9EF600C512BEF7007900AE7
:103887009FF0A3F0225103FCC3E5F09464EC94008D
:10389700500221D851207402F0900A9E14F022EEB3
:1038A700B4012631D9EF700221D6512BEF600221E6
:1038B700D6900A9F5107FED3E5F09464EE9400502A
:1038C7000221D8E49006A0F0229006A0E0640270DE
:1038D7003D31F031D9EF600A512BEF7005512104CA
:1038E700F022120018EF6401700221D8900AA25149
:1038F70006FEC3E5F094D0EE9407500221D8E49079
:103907000AA2F0A3F0515A9006A07403F022900681
:10391700A0E0FE6403701F31D9EF70161271D93120
:10392700D9EF6008510D51207404F022510D31F088
:1039370021D631F021D6EEB4041A31D9EF60043123
:10394700F021D65103FED3E5F094F4EE9401500232
:1039570021D8800D9006A0E0FEB4051D31D9EF7087
:10396700079006A07406F0225103FCD3E5F09432C9
:10397700EC9400405C31F08056EEB406141271F3FB
:10398700EF6002514231D9EF60479006A07405F00D
:10399700229006A0E0FEB407215149EF7006900679
:1039A700A07406F0D3900AA5E09400900AA4E094CE
:1039B70000401E74FFF5F00281D7EEB4080F510DD9
:1039C700515A31D9EF600A510D31F0800231F0516F
:1039D7004222900AF2E0B40408909612E05402FFE3
:1039E7002290A628E05404FF22D310AF01C3C0D011
:1039F700909644E04460F0D0D092AF22900A9FE4C2
:103A070075F0010281EDD310AF01C3C0D090964489
:103A1700E054FCF0D0D092AF22E4900A9FF0A3F0DC
:103A27009006A022900AF2E0B40408909612E0549F
:103A370001FF2290A628E05402FF229006A07402FC
:103A4700F022909644E05403FFBF03047F018002F5
:103A57007F0022D310AF01C3C0D0909644E0549F9B
:103A6700F0D0D092AF2212C8CB90A6227409F09062
:103A77009883E4F0515A510D1277751271D9127764
:103A87006EE4FDFFF1A271584440FD7F01F1A27180
:103A97005854DFFD7F017EA3128F80E4FFF1AA5106
:103AA700AEE4900AA1F0227F8151B47F02900BE12E
:103AB700EFF0547F1227B8900BE1E030E73B7156E7
:103AC70054DF714E44401227A5D108C00691DAD0C1
:103AD700E04F1227A57F1371587F00FEC007C0066D
:103AE70091DAD0E0FED0E0EE4420FD1227AF7D4012
:103AF7007F101227C97F1180497F16715854BFFD67
:103B0700D1127F1671584480FDD112D108C0069199
:103B1700DAD0E04F1227A57F1371587F00FEC00748
:103B2700C00691DAD0E0FED0E0EE54DFFD1227AFF9
:103B37007D407F141227C9F1CB7F1671584410FDC1
:103B47007F167EA3028F80FD7F127EA3128F807F58
:103B5700127EA3128C84EF22D080D0807B017A0A58
:103B670079289006A1F1BDFCFD12B5B27B017A0A56
:103B7700792D7F641217BB90057AE06403703BF1DF
:103B870005900A32EFF030E6147F1671584480FD35
:103B9700D1127F167158549FFD7F16807690057B52
:103BA700E0600BF19BEF20E00281677F0122900A22
:103BB70032E020E00281677F012290057AE0640409
:103BC700703091DA900A32EFF030E50D715644808B
:103BD700714E54DEFD7F12803A90057BE06009F15B
:103BE7009BEF30E07B7F0122900A32E020E0717F7B
:103BF700012290057AE060046402702CD108C006A7
:103C070091DAD0E04F900A32F030E212715654D96F
:103C1700FD7F127EA3128F8012935E7F0022900A8F
:103C270032E020E13B7F012290057AE06401702DAC
:103C37007F1371587F00FEC007C0067156FDD0E0A4
:103C4700FED0E04DFF900A32EEF0A3EFF030E20332
:103C57007F0022900A33E030E0067F01227F0022B6
:103C67007F607158645D60037F00227B017A0A7967
:103C77002812B5E4EF7006129758EF7037F10590E8
:103C87000A32EFF054DF4401FDD11290057AE06467
:103C9700037014A3E070107F32FE1290017F16713B
:103CA7005830E0037F0122715654D61227A51227F8
:103CB700A47F00221297667B017A0A792D12B5E458
:103CC700EF7002617E7F0112AFF6EF64016002615F
:103CD7007EFF227F127EA3028C84900BE0EFF054CC
:103CE7000F1227B8900BE0E07026D108C00691DAD2
:103CF700D0E04F1227A57F1371587F00FEC007C081
:103D07000691DAD0E0FED0E0EE4401FD7F13804556
:103D1700900BE0E030E743715644081227A5D1081D
:103D2700C00691DAD0E04F44101227A57F137158CF
:103D37007F00FEC007C0067156FDD0E0FED0E04D03
:103D47004410EEFD1227AF127767715654CF714EAC
:103D57004440FD7F127EA3128F80221271ECEF3058
:103D6700E20EE4FFF1AA7F0451B47F8151B4D1CCB4
:103D77007B017A0779F87D08125CB5EF7002C107FD
:103D87009007F8E020E7119007FEE0600B7B017ACF
:103D97000879617D08125C569007F8E05460704915
:103DA700A3E01205453DCB003E07013DCD033DD3C2
:103DB700053DDC063DDF083DE1093DEA0A3E070B0C
:103DC70000003DEC801F9007FCE0801A9007FAE0A6
:103DD700547FFFE1AA02542F801B51AE7F8351B459
:103DE700025E0F8010E4FF81E19007F8E0B4A10DB7
:103DF700A3E0B4FE087D01E4FFFE0253B812515858
:103E0700227F137EA3128C847E00227F167EA3025C
:103E17008F80900ADB1285E6900ADEECF0A3EDF0C6
:103E27007D021227B9C3900ADEE0940250517F1633
:103E3700715820E004E4FEFF22E4FD7F02F10CEF5D
:103E47007003FEFF22125CAE900AE0EFF0FDC2AFF6
:103E5700900ADB1285DD7F287EA3128A06D2AF90F7
:103E67000AE0E070097F16715854FEFDD1127F16E3
:103E7700715854FEFDD112900AE0E0FF7E002290B7
:103E87000ADB1276D9900ADB1276CD900ADE12771A
:103E97001B900ADE12773A12629AEF7003FEFF2236
:103EA7007D01D1127DA0F1D27D2DF1C4126277E49C
:103EB700FDF1C47D017F161227C9F1D2900ADEE019
:103EC700FEA3E0FF227D041227B97DC07F141227CD
:103ED700C9F1CB7F17D10AC006F105D0E04FFDD15C
:103EE700127F1771587F00FEC007C006F105D0E0AA
:103EF700FED0E0EE4440FD7F177EA3028F807F1641
:103F07007EA3028C84900A96EFF0A3EDF07B017AF2
:103F17000A7998900BB6F1BDFCFD12B5B2900BB6BD
:103F27007403F0A374E8F0129766900A96E0FF64B2
:103F3700016005EF6403701D900A97E06009F19B2B
:103F4700EF30E0417F012291DA900A9DEFF05403B0
:103F570070337F0122900A96E064027017A3E06035
:103F670009F19BEF30E01E7F01227F16715830E088
:103F7700147F0122900A96E07008715620E1067FAF
:103F870001227F00227B017A0A799812B5E4EF605B
:103F9700967F00227F007EA5028C847EA3128F80ED
:103FA7007F0122900BE2EF1220D8900BE2E0FD7F19
:103FB700007EA3028F80E0FEA3E0FFE4227F047E61
:103FC700A5028F807F157EA3028F807F177EA302B5
:103FD7008F807F8191E17F0A7E00128AF8B1627F2C
:103FE7000122900AE81285E6900AE7124571EFD39D
:103FF70094955007900AE8B16A70037F0022900AEF
:10400700EBE0FF900AE7B184400774969D900AEBB6
:10401700F0E4900BA0F0900AEBB17A5018900AE701
:10402700E02EFFA3513B1280F6FD12BA06900BA0BB
:10403700E004F080E1E4900BA1F07F0122900AED0B
:104047001285E6900AECB171EFD394955007900A68
:10405700EDB16A70037F0022900AF0E0FF900AEC4E
:10406700B184400774969D900AF0F0E4900BA0F09D
:10407700900AF0B17A501A900AECE02EFF12BFF4C2
:10408700900AED513BEF12813C900BA0E004F080C9
:10409700DF80A231F5AB079006D8E020E05B900601
:1040A700DBE0645A70539006F2E06B704C9006D8D0
:1040B700F09006DCE0900AF231D540037419F03134
:1040C700A84002E4F031A04002E4F031E4900AF2A3
:1040D700E0FAB4010931BC31979006E4800BEAB4E9
:1040E700020E31B031979006EEB1ADE4900702F0C1
:1040F700F19D50022196E4F0227E007F1A7D007B1D
:10410700017A0679D91287C67A0679DB7B01900A8C
:10411700F07418F0E4FF114431F5AB079006DBE0CB
:10412700B45A079006F2E06F601E900A697401F0B6
:10413700E49006D9F0A3F0A3745AF0A37401F03108
:10414700C8F0A37419F08044900A697401F0F188EB
:10415700900AF2EF31D540037419F031A84002E418
:10416700F031A04002E4F031C8E0FBB4010C900646
:10417700DEE0900702F031BC800EEBB4020C900633
:10418700E8E0900702F031B0319731E41210DC22F9
:104197001284D390074B0285709006DAE0C394052A
:1041A700229006D9E0C3940B229006EDE0900A6DA9
:1041B700F09006E9229006E3E0900A6DF09006DFA2
:1041C70022E49006DEF09006E8F0900AF222F090E2
:1041D70006DDE0543F900AF3F0D39420229006D9ED
:1041E700E0900700F09006DAE09006FFF0227B01EE
:1041F7007A0679DB7D17900B441285E6900B47ED25
:10420700F0E4FE900B47E0FD14F0ED6024900B44C2
:10421700513B1280F66EFEE4FFEFC3940850E4EEC4
:1042270030E007C313648CFE8004EEC313FE0F80D7
:10423700E8AF0622E475F00102052E900A6CE070E3
:1042470052900006E064017021129FB8129FDF9020
:1042570006DF121CBF703C519B7D0B31FD9006E3BE
:10426700E06F702F900A6C04F022900006E0640261
:104277007021129FB8129FDF9006E9121CBF7013BE
:10428700519B7D0B31FD9006EDE0B50706900A6C5A
:104297007401F0229003D80285DDE4900BB9F09009
:1042A7000BB8F09000181284D3E4900643F0A304EF
:1042B700F012C68612CF4F9000181284D39003DCF9
:1042C700128570129766129D6A900BD2EFF09000DC
:1042D7002C123FBDFCFD7BFE7AFFF9F8C31283F871
:1042E700500261E99003DBE0700312D7F2900BD222
:1042F700E0147002619524FC7002619E240570C36E
:10430700B11AEF604390002C71EC90002E71EC9085
:104317000A6CE0B40132900A6EE07002A3E07028E4
:1043270091D5900A6ECFF0A3EFF090002EE0FFA397
:10433700E0900A70CFF0A3EFF0900030E0FFA3E029
:10434700900A6ACFF0A3EFF0900030E07004A3E08A
:104357006401600241CA900869E06401700241CAC1
:10436700519BE92408F9E43AA801FCAD037BFF7AE5
:104377000079057E007F031287A2EF600241CA9091
:10438700086904F0FB7A08796A12983B41CA9000E1
:1043970032E475F001804612D90C900030E07004C9
:1043A700A3E06401700A91D5900036CFF0A3EFF037
:1043B70012DB9B12DCACEF70037F0122900030719F
:1043C700ECE4900032F0A3F090002EF0A3F012D7A7
:1043D70011EF600241CA90003074FFF5F01281D7E7
:1043E70041CA7F0122E475F0010281D791CF900A7B
:1043F700201285E691B9E4C39F900A25F0603D91AC
:10440700C9900A25E0FF900A79E491B512375590D3
:104417000A1C1284DF900A2591C21282B291CF90B2
:104427000A25E0FF7E00900A21EE8FF01281D7C3A4
:10443700900A24E09FF0900A23E09EF0C3900A239D
:10444700E094014044E4900A26F0A3F0900A23E0A8
:10445700FFC3900A27E09F900A26E09400502A9114
:10446700B991C9900A797401F0A3E4F01237559114
:10447700B9E42FF1A791CF900A21740175F00012CA
:1044870081D7900A2671EC80C37E00900A23A3E0AF
:10449700FF900A23EEF0A3EFF0601291C9900A2370
:1044A700E0FFA3E0900A79CF91B512375522F0A328
:1044B700EFF0900A1C0284D3900D10E0FFE4FCFD9E
:1044C700FE22900A200285DD900A1C02857090006A
:1044D7002CE0FFA3E022900AB5EEF0A3EFF0900ADC
:1044E700B91285E6E4900AB7F0A3F0900AB5F11087
:1044F700900AB8E09F900AB7E09E5016900AB9124A
:1045070037E7FF1200E1900ABA71EC900AB771EC35
:1045170080D922519B90000812810F900B30F090A8
:10452700000912810F900B31F090000A12810F9051
:104537000B32F0900B30E0B44D10A3E0B4500BA356
:10454700E0B43306A37401F08005E4900B33F090D8
:104557000BA9E07008900B33E060025142900B33D7
:10456700E0FF221285DDE94A4B22EFF0900BA174A0
:1045770001F022E0FF900BA0E0FEC39F22E0FD2F99
:10458700FFE433FED3EF9496EE6480948022900A82
:10459700F2E0FBB401059006E48007EBB402059056
:1045A70006EEB1AD21E41284D39003F30285709037
:1045B7000A84128570900A881285E6900BB0E0B4E1
:1045C700030AB1EF900A51B1E40235D9900BB0E07C
:1045D700B40109B1EF900A23B1E471F322CFF0A33C
:1045E700EFF0900A840284D3900A881285DD900A3E
:1045F7008BE0FFA3E022900A3F128570900A4312D6
:1046070085E6E4900A48F0A3F07F0B123697900AEC
:104617003F1237A37FFF1200E1900A46F110900A7C
:1046270049E09F900A48E09E5015120025900A43E2
:104637001285DD900A48F117900A4871EC80DA027A
:1046470036FD900A7B128570900A7F1285E6900AE4
:104657007FB16A604B900A82F18E6044900A7F12A4
:1046670085DDC3EA940F40167E00EF5403FF600E0A
:1046770074049FFFE49E900A828FF01281D7900BFB
:10468700B0E0B4030BD1B3900A46D1A8B1FD8010B6
:10469700900BB0E0B40109D1B3900A5CD1A8D1C1A5
:1046A70022CFF0A3EFF0900A7B0284D3900A7F1207
:1046B70085DD900A82E0FFA3E022900A55128570FB
:1046C700900A591285E6E4900A5EF0A3F07F0B1278
:1046D7003697900A551237977FFF1200E1900A5CD0
:1046E700F110900A5FE09F900A5EE09E501512005D
:1046F70025900A591285DD900A5EF117900A5E71BE
:10470700EC80DA0236FD900A11E0FEA3E0FFC32237
:10471700E0FCA3E0F5828C83EF02814E7E007F37B9
:104727007D00F17F900BB0E07002FF227A08799943
:104737007B01900A82E4F0A3742012250ED1497FF1
:10474700FE7E017DAA7C55900899121CBF700790C8
:1047570008B904F0800BE49008B9F0FE7F20FDF162
:104767007F9008A1E0FFA3E090002CCFF0A3EFF02B
:1047770090074A7401F0FF227B017A087999028732
:10478700C69006DCE0FF22E0FEA3E0FF4E22B11A4E
:104797009006D3EFF022900702E0D3648094812241
:1047A700FFEE3401FEE43DFDE43CFC22D310AF01F3
:1047B700C3C0D0B17312BA06E4900BA1F0D0D09267
:1047C700AF22D310AF01C3C0D0B17312BFF4E490CE
:1047D7000BA1F0D0D092AF22909904E054FEF09054
:1047E700980DE054FEF0E0440EF02290B004E03063
:1047F700E3F990980DE054F1F0E04401F090981F30
:10480700E030E0F9909904E04401F022A2AFE433EC
:10481700900BC7F0C2AF9005FE1284D3900611111A
:10482700579005FB1285DD1284959005FB121FDA60
:10483700E412814E900BC7E024FF92AFD080D08066
:10484700229004531285DD90002712846590045648
:104857001284DF0282B290096212857C0000000098
:10486700E4900974F0900006E0B4010C12CD53EE09
:10487700C31390096FF0800690096F7401F091E7F8
:10488700B12D7002FF2291E7B11D7003EE645560F0
:1048970008900AB3E07002FF22E490096EF09009D5
:1048A7006EE0FFC3940440022157EF75F010A42473
:1048B700BEFFE5F0340EFAA9077B01900977128550
:1048C700E6B1C1FF6405600AEF640F6005EF648518
:1048D7007034900974E0FF600890096EE0C39F4050
:1048E700259009621284DFC000C001C002C003B175
:1048F7000ED003D002D001D00091ED90096EE004F4
:10490700900974F00185900977121FDA12810FFF61
:1049170064046018EF64066013EF640B600EEF64C5
:104927000C6009EF64016004EFB40E1C9009621279
:1049370084DFC000C001C002C003B10ED003D002A3
:10494700D001D00091ED800890096EE004F001A538
:1049570090096EE0B4041B900974E0FFD394004003
:1049670011EF9404500C90096212857C000000003E
:10497700018590096F1244C271C1B12D7002FF22E7
:1049870090096F1244C271C1B11D7003EE64556086
:1049970008900AB3E07002FF22900D0DE09000131B
:1049A700F0900D0EE0FEA3E0FF1297F8900975EE68
:1049B700F0A3EFF0E4FCFD90096211579000141288
:1049C7008570900D1112478E603D1297F87C007D1F
:1049D700201285EF121FE1AB0790096FE07F0025DA
:1049E700E0FEE4FCFD1282B2125AD2C006C007E014
:1049F70025E07B00FAE4F9F8D007D0061283589037
:104A0700095E128570800A90095E12857C0000009D
:104A170000900D1612478E60081297F8E4FCFD808F
:104A270005900D2471CD900966128570900D1312B3
:104A3700478E60081297F8E4FCFD8005900D207101
:104A4700CD90096A1285701244BF90096671C4122D
:104A57001FE1AB07900975123FBDFCFD1282B290B2
:104A6700095E1157121FE1AB0790096A121FCBC0ED
:104A770007900013E0FBE4FAF9F8D0071283589087
:104A87000970128570E47FF57E0FFDFC90097012A6
:104A97001CBF5008E4900008F07F0122E47FF57EF8
:104AA700FFFDFC900970121CBF500AE4900007F04C
:104AB700A304F0802578367C0D7D017BFF7A06798B
:104AC7006C7E007F081287A2EF9000077003F080CA
:104AD700037401F09000087401F01244BF90096656
:104AE70071C4900014115790095E115790001C1261
:104AF7008570900007E0600971CA900970115780AE
:104B07000F9009701284D3EF2402FFE43E1247ABE3
:104B1700900020128570900007E0602071CAEF2492
:104B2700FEFBEE34FFFAED34FFF9EC34FFF89000AA
:104B3700131244C21282CD90001C800B1244BF9006
:104B4700096671C49000141157900018128570906F
:104B57000013E0FE90096FE0FFEE8FF0A4900013C2
:104B6700F0A31284DFE4FCFDFE1282CD9000141244
:104B7700857090001C1284DF90096F1244C2128264
:104B8700CD90001C12857091E790096A1157121F8A
:104B9700E1AB0790096F1244C21282CD9000241234
:104BA70085709000181284DF90096F1244C2128238
:104BB700CD9000181285707F01229009621284DF60
:104BC7000282CD900D2C1284D3029814900006E037
:104BD7006404600281E090045AE0B4023190045604
:104BE700C083C0821284DFC000C001C002C003912D
:104BF700E190001F128465D003D002D001D00012CB
:104C070082B2D082D08312857090045AE4F0900467
:104C17005AE0702B900456C083C0821284D3C0041C
:104C2700C005C006C00791E190002791F6D007D0D4
:104C370006D005D0041282BFD082D08312857011AE
:104C470048C004C005C006C00791E190001F91F657
:104C5700D007D006D005D004C31283F8502791E1BE
:104C6700900027128465A804C004C005C006C007C9
:104C770091E190001F128465D003D002D001D000CB
:104C87001282BF80111148EC33501191E190002737
:104C97001284651283EA90045612857091E1E92423
:104CA70027F9E43AFAC003C002C001B102D001D02B
:104CB70002D00312849591E1E92423F9E43AFAC07A
:104CC70003C002C001B102D001D002D00312849503
:104CD700127079D080D0807F01229004530285DD45
:104CE7009009620284D31282B2900962028570121F
:104CF7008465AB07AA06A905A804221284EB9004D1
:104D0700561284D30282B29009771285DD9000088B
:104D170012846502981490000B128570900EFEE0C5
:104D2700FEA3E064AA22900606740DF0A3E4F0A3A4
:104D370004F012D177EF22900B4C12686B9008CCDD
:104D47001284D39008BC1157C006C007900B4CE0E3
:104D5700FEA3E0AA06F97B01A3E0FFA3E0900A8285
:104D6700CFF0A3EFF0D007D0061246499008CC1237
:104D770084DF900B4E123FBDFCFD1282B29008CC2F
:104D87001285709008BBE070289008CC1284D3EF8E
:104D970024FF1247A7F1E4128358900891128570F7
:104DA7009008911284D390074B115790088D128564
:104DB70070900B4EE0FEA3E0FF2290000402810FEB
:104DC700E4900AABF0D080D080FE7F08FD7B017AAB
:104DD7000579BF1287C6F1A1A37408F1BFF19370DB
:104DE7000AF18A7006F18A7002FF2290022CE0FF16
:104DF700900AA7F0900233E0900AA6F0D3EF940050
:104E0700748094814003E4A3F012BDF79006A17467
:104E170027F0A37410F012CA15EF7002FF22F1A158
:104E2700900AA6E0900398F0F1CBF1977002FF2269
:104E370090023CE0900AACF0900235E0FE9002341C
:104E47001252889005BFF0A3EFF0900237E0FE9072
:104E57000236E02400FFEC3E9005C1F0A3EFF1BF5E
:104E6700F0A37409F1A97002FF2290022EE0900AC4
:104E7700A7F0D39400748094814002E4F0F1CBF161
:104E8700A97002FF2212B007BF0107E49006ACF039
:104E9700FF227B017A02792C900AA81285E69002FC
:104EA7002EE0242CFFE43402FAA9077B01C003C0DB
:104EB70002C001900AA81285DDC3D082D083D0E05A
:104EC700E99582EA95834002E187900AA81285DD79
:104ED700127669FF6404703690000512810FB408DA
:104EE7001990000612810FFE64056004EEB4060AED
:104EF70090000712810F64506007E4900AADF080BC
:104F070006900AAD7401F0E4900AABF0804EEF64AE
:104F1700057049900AADE0604390000312810F5479
:104F27000364027037F1B930E719540F900367F043
:104F3700A37405F0B1C1900369F0900AABE0440196
:104F4700F08019F1B9540F90036AF0A37406F0B119
:104F5700C190036CF0900AABE04402F0900AABE01A
:104F6700B4030F900231E0FF12CA64EF7F017012A1
:104F7700FF22900AA81237E7FF900AA9F1DEC1A520
:104F87007F00227B017A02792C9004B1F0A3740888
:104F9700F0E4FD7F0112AA35EF22E4900396F0A317
:104FA700F022F0E4FD7F0212AA35EF229005AF123E
:104FB70085DD90000202810FF07B017A02792C9047
:104FC70004B1E4227B017A02792C900AA7E0FF90D2
:104FD70004B1E4F0A3EF22E48FF00281D7E4FB7A77
:104FE70002F9F822A2AFE433900BC8F0C2AF121F48
:104FF700D712810F701F128445124CF990061112B7
:105007001FCBE4FBFAF9F8C31283F85008121FD735
:10501700740112814E900BC8E024FF92AFD080D06C
:1050270080121FD712810FFF22123A6DE49007ED0D
:10503700F0900780F09007EFF090079FF022123A68
:105047000D90966AE4F0900AD4F090079FF0221131
:10505700457F0202B9CE900BC9EFF0F149601224E7
:10506700FD24FD502624FD6015240A7023F1D0800D
:105077001F900BC9E0640360171267C78012900B7B
:10508700C9E0640C600A122F8180051156120807C7
:10509700900BC9E0900AF2F0900BB3F0120CE4E425
:1050A700900AF4F0126CF3120FF190091BE0B401AF
:1050B70002F11C221209ED7F0C115DE4FD7F011244
:1050C7000A0951CF7F0122F188EF7002FF221209EE
:1050D700ED7F03115DE4FD7F02120A09F1507FC0E5
:1050E700120D2911EF7F01221264BB11FB51C60279
:1050F70010213106120C56E4900AF4F02280F39046
:1051070009AE3132900BA4EEF0A3EFF09009C13154
:1051170032AD07AC06900BA4E0FEA3E0FF122CF41F
:105127007B017A0679DD7D01021021E0FEA3E0FF15
:10513700900AF3E075F0029008941285D1E493FC8D
:10514700740193FD1285EFE47BE77A03F9F8028394
:10515700589007F8E064217019A3E0B40114A3E0A4
:105167007010A3E0B4010B900861E0B40102E1DD27
:10517700808B9007F8E06421702AA3E06401702413
:105187009007FBE06402701C9007FAE0900862B495
:10519700010751819009AE800551819009C1F0A3A3
:1051A700EFF021069007F8E0B4A110A3E0B4820B5A
:1051B7009007FBE0B402047D0280789007F8E0B422
:1051C700A114A3E0B4830F9007FBE0B402087D02AB
:1051D7007FE77E03417E9007F8E0B4A114A3E0B413
:1051E700840F9007FBE0B402087D027F017E004137
:1051F7007E9007F8E064A17025A3E06481701F909A
:1052070007FBE0B402189007FAE0B401059009AE75
:1052170080039009C1E0FEA3E0FF7D02805990075B
:10522700F8E0B4A113A3E0B4810E9007FBE0B4014A
:10523700077D01E4FFFE803F9007F8E0B4A10CA3CF
:10524700E0B4FE077D01E4FFFE802C9007F8E0B490
:10525700A113A3E0B4810E9007FBE0B40A077D0118
:10526700E4FFFE80129007F8E0B4800D9007FEE09F
:1052770060077D01E4FFFE71B822E0547FFE9008CD
:1052870061E07C002400FFEC3E2251A111F9900A55
:10529700D4F051C61210217F0122123A6D1227D184
:1052A70012C7F712C8187F03125E219003E9125F35
:1052B700CEFF7EAC1269E93106120C5602CEB87BDE
:1052C700017A0679DC7D01229009A37401F0900927
:1052D70095F012768312B946F1501270AC120C5643
:1052E700718BEF600C90099D7401719612B98880DB
:1052F70009E490099D719612B946718BEF6013907E
:10530700099DE0600D7401F0FB1226C190099C74A1
:1053170001F051C61210211276F312B9881275F6F0
:1053270012B9887D207F0F12B98812757A12B98851
:105337007D017F2012B9467D017F2112B9887D0149
:105347007F1E12B9887D017F1D12B9467D027F201D
:1053570012B9467D027F2112B9887D027F1E12B9DC
:10536700887D027F1D12B9467D807F0212B9467D76
:10537700807F0312B9887D807F0512B9467D807FC3
:105387000602B946E4FF1270CC30E7027F0022F034
:105397007D107F2012B9467D107F2112B9887D10BC
:1053A7007F1D12B9887D107F1E12B9467D107F1CA4
:1053B70022900B50EEF0A3EFF0E0A3F0900B50E03B
:1053C700900B53F07B017A0B7952900B0A1285E60A
:1053D700900B0DED1227B6129766900B0DE0FFD3D9
:1053E70094404006A37440F08005900B0EEFF090B8
:1053F7000B0EE0FDC3EF9D900B0DF0900B0A125CB6
:10540700FC12897A123B5644021227A5E4FDFF12CB
:105417003F0CEF6012900B0EE0FF900B0B124FDE6C
:10542700900B0DE070B122229007FBE024FE60494B
:1054370014604F147002A10B147002A11A24E370B8
:1054470002A14A24216002A160900848E090085414
:10545700F0900847E0900855F0900846E09008560D
:10546700F0900845E0900857F07B017A08794CB135
:10547700A0900B577412F0A165B19AB194900002F5
:10548700A1159007FAE0FF700D7BFF7A067975B1D9
:10549700A01280F6A142EFB40105900849800F9051
:1054A70007FAE0B4020590080080039007F512851B
:1054B700DDB1A0E4900B57F0900B57E0FFC39420A9
:1054C700502B900B54126C11FF6022B1A62405F5E6
:1054D70082E43408F583EFF0B1A62406F582E434BC
:1054E70008F583E4F0900B57E004F080CBB1A624D5
:1054F70002F0900803F0A37403F07B017A087903A4
:10550700B1A0805AB19AE9240AB19090000A128199
:105517000F80289007FAE0FFB4810FB19AE92412AF
:10552700B19090001212810F8011EFB40213B19A5B
:10553700E92419B19090001912810F900B57F08050
:105547001D80167BFF7A0779BEB1A0900B57742197
:10555700F0900AD47401F08005E4FF023CE1900763
:10556700FFE0FE9007FEE0FD7A002400FFEA3EFE22
:10557700900B57E0D39FEA9E4002EDF0900B541238
:1055870085DD900B57E0FD61D1F9E43AFA900B54B1
:105597001285E690085E0285DD900B540285E69041
:1055A7000B57E025E022D178EF7002FF22120CE4BE
:1055B7001200121209ED7F07115D7F09120D297F75
:1055C70002B1D01207F87F0122EFB401129009BC93
:1055D700D1439009BAD150D1377A067979804BEF08
:1055E700B40237900A0BD143900A09E0FFA3E09079
:1055F7000845CFF0A3EFF0900A0D1285DD9008491A
:105607001285E6900A061285DD9008001285E6905D
:105617000A03D1377A07790080109009B5D14390F2
:1056270009B3D150D1377A07792090085E0285E611
:105637001285DD9007F51285E67BFF22E0FFA3E0E8
:10564700900847CFF0A3EFF022E0FFA3E0900845D2
:10565700CFF0A3EFF09009BE1285DD9008491285BF
:10566700E69009B71285DD9008001285E69009B02B
:1056770022D310AF01C3C0D09006A0E0FF6406603C
:105687000EEF64056009EF640760047F00805490A3
:105697000AF2E0B40416909901C083C082E0FFA328
:1056A700E04404D082D083CFF0A3EFF0D1EFE06FD6
:1056B700600C900AA412244FD1EFEFF08023900AD8
:1056C700A4E07002A3E07019900AA404F0A374F494
:1056D700F0123A0D123A5A9006A07408F07F008033
:1056E700027F01D0D092AF227F0C7EA3128C8490D0
:1056F7000AA122900A36E0900BD0F0D178900A36B2
:10570700EFF0900BD0E0700A900A36E060047F015A
:1057170080027F0022F149600E24FD24FD500824F9
:105727000770047D018002E4FD7F011216CB12167B
:10573700C7E490091DF012164C7FE87E03FDFC02BA
:10574700B5B2900AF2E024FD227D017F2612B988C6
:105757007D017F2712B9887D017F2912B9887D01D4
:105767007F2A12B9467D027F2612B9887D027F27DC
:1057770012B9887D027F2912B9887D027F2A02B972
:105787004690960BE04410F090960EE054EFF0A38D
:10579700E054EFF090960CE054EFF0F1D6909609B4
:1057A700E030E40BE4900A37F0900A35F08014906B
:1057B7000A35E0C394145005E004F08006900A37D8
:1057C7007401F0900A37E0FF221215077F01227F4C
:1057D7000A7E00029001E4FDFCFFFE022CF4123D5C
:1057E700627B017A0779A07D1F7C00123E19EF6466
:1057F7001F4E600302593878A07C077D017BFF7A32
:1058070005796B7E007F041287A2EF600221389032
:1058170007A4E09007E4F09007A5E09007E5F09073
:1058270007A6E09007E6F09007A7E09007E7F0905B
:1058370007AFE012054558A70058D9035862125818
:10584700BA1A59001B58BE1E587923587D2558810E
:105857002858852A58FC2F0000590C7BFF7A0579B8
:10586700707D247C0012270251C712270290079FE0
:1058770021073162211031812110514E800F510BC8
:105887007B017A0779F07FD07E071217BD90079FBB
:105897007402F07B017A07798E7F0A1217BB806941
:1058A7003139EF70069007EDF0805A9007EDE06010
:1058B70041805231A280529007B3E0700C3139EF2A
:1058C7006007E49007EEF0802D9007EE7401F0E496
:1058D70080243139EF60069007EDE060087BFF7A9E
:1058E70005799880067BFF7A0579AA7D127C0012DC
:1058F7002702E48001E4FF800EE4FF31589007EDB2
:105907007401F080047F0131587B017A07798E1288
:10591700B5E4EF600A90079FE0B402037401F090CA
:1059270007807401F0FB7A0779897FB07E0412172C
:10593700BD22911AEF70069007EFF0800E9007EFE7
:10594700E0700812B24F9007EFEFF09007EFE0FF1B
:10595700229007ECEFF051C70227023139EF7005AB
:10596700123FD9801312B8399007971285707B01BF
:105977007A0779937D0C510380D73139EF7005127F
:105987003FD9801512B83951D29007811285707BA3
:10599700017A0779817D08510380B63139EF7005A7
:1059A700123FD9805312B839900778128570900743
:1059B700B1E024C1601C242370307BFF7A05799401
:1059C7009007B3E0FFC39404500280027F045101A3
:1059D70080267B017A0779749007B3E0FFC3940CA4
:1059E700500280027F0C5101800E7B007A00790003
:1059F700E4FDFC122702E4FF2158EFFD7C0012278B
:105A070002E4FF229007B11284D371F051BDFED397
:105A1700E5F09400EE9400401E514430E0027E0D04
:105A27007F0051B2123E19514730E0027E0D7F00D0
:105A370071CE12254C80D57134E4FF215812976638
:105A47009007B7E07E0F229007B11284D39007B773
:105A5700E07A0F30E0027A0D7B00900AE5EAF0A3C6
:105A6700EBF0716851BDFED3E5F09401EE94004070
:105A770022514430E0027E0D7F0051E39007B7E0EA
:105A87007E0D30E0027E0F7F0051B21227021225F1
:105A97004C80D151F89007B7E07E0D30E0027E0FC1
:105AA7007F0051B2122702E4FF2158AA06A9077BFB
:105AB700017D007C02229007B674FFF5F00281EDAC
:105AC7007B017A0779E07D0D7C0022EF24FFFFEE52
:105AD70034FFFEED34FFFDEC34FFFC22AB07AA06D2
