:10000000020417E1FC4D56460022320263E700016C
:1000100002032202642222022CE92280ED023290A5
:1000200022223280FDE4C3FA90960AE04401F054A3
:10003000FEF0909609E0A2E2E492E02A23FA90967C
:100040000AE04401F054FEF0909609E0A2E2E49246
:10005000E02A23FA90960AE04401F054FEF09096CC
:1000600009E0A2E2E492E02A23FA90960AE0440131
:10007000F054FEF0909609E0A2E2E492E02A23FA1E
:1000800090960AE04401F054FEF0909609E0A2E256
:10009000E492E02A23FA90960AE04401F054FEF03C
:1000A000909609E0A2E2E492E02A23FA90960AE010
:1000B0004401F054FEF0909609E0A2E2E492E02AB6
:1000C00023FA90960AE04401F054FEF0909609E07D
:1000D000A2E2E492E02AFA90960AE04401F0EAFFF4
:1000E000227808EF33FF90960AE092E154FEF090F8
:1000F000960AE04401F0D8EB229003F30284D32265
:100100000000220000220000220000220000220045
:100110000022000022000022000022000022000035
:100120002200002200002200002200002200002203
:100130000000220000220000220000220000220015
:100140000022000022026A49000022000022000072
:1001500022026A3A0250D40227A70000220000229D
:100160000000220000220000220235AE0000220022
:100170000022000022000022000022000022027063
:100180003A00002202731F00002200002202741AAB
:10019000000022000022026FA400002200002200C2
:1001A00000220000220000220000220000220000A5
:1001B0002200002200002200002200002200002273
:1001C0000000220000220000220000220000220085
:1001D000002200002202634B026F910269BC0226DA
:1001E0005B02626B000022000022026F55026EC4A7
:1001F0000000220000220000220000220000220055
:100200000022000022000022000022000022000044
:100210002200002200002200002200002200002212
:10022000000022000022025CFD02380100002200D2
:100230000022000022000022000022000022000014
:100240002202725800002200002200002200002238
:10025000000022000022410ABA00410AB400420A0A
:10026000B50000420AB70000410AB9004109DD00AB
:100270004109DC004109E8004109DA00410B810134
:10028000410B7F00410B8000410BA700420A100088
:1002900000420A0E0000430A12FF0604430A0BFF45
:1002A0000613430A08FF06224109B8004209C300A9
:1002B000004409AE0C020307410A1E00410A200057
:1002C000410A1800410A1700410A1F01410A15009E
:1002D000410A16004209D300004209D10106420931
:1002E000CC00004209CA01084309D5FF0630430982
:1002F000CEFF063F4309C7FF064C4209C5006342D3
:1003000009D80063410BAC01410BAD02410BAF00BA
:100310004107610041075F00410762004107730028
:100320004406F9FFFFFFFF4106F30041098F014436
:10033000098200000000420980006444098B00002B
:100340000000410A7300420A740000420A7600006D
:10035000420A700000410A7200410A6F00410A2AF5
:1003600000420A220000410A2B00410A2C00410AE7
:100370002401410A2100410941FF4109420041098C
:1003800043FF450905000000000041091B00410B27
:10039000B70241086900410902004109030041090F
:1003A0009B0041099C00410BB900410BB801520868
:1003B0004C12011001000000400000020210000178
:1003C0000203014C079300000008001DC3FF030057
:1003D0000200480781001DC3FF000002004C0774A3
:1003E0000B00000800020000000002004D07E0556D
:1003F0005342530870BA840000000000420BBC0353
:10040000E8410AA700420AAA01F4410AA400410BEC
:10041000BF01410BBE01001231D8787FE4F6D8FD50
:100420001263C1EFFD9006D96003A3DFFD7F277E35
:1004300011C3EF9DFF50011EE4F0A3DFFCDEFA754F
:10044000810B126ED2020483021EC4E493A3F8E46B
:1004500093A34003F68001F208DFF48029E493A31C
:10046000F85407240CC8C333C4540F4420C8834035
:1004700004F456800146F6DFE4800B010204081004
:10048000204080900256E47E019360BCA3FF543F5D
:1004900030E509541FFEE493A360010ECF54C0253C
:1004A000E060A840B8E493A3FAE493A3F8E493A32C
:1004B000C8C582C8CAC583CAF0A3C8C582C8CAC590
:1004C00083CADFE9DEE780BEBB0111F8E58229F5CA
:1004D00082E5833AF583E0C828F0E8225009C58216
:1004E00029F8C58226C622BBFE0DC58229F8E2C5C1
:1004F000822582F2E58222EA2583F583E99322BBF5
:10050000010FF8E58229F582E5833AF583E028F0CA
:10051000225009C58229F8E58226F622BBFE09C5CC
:100520008229F8E22582F222F8EA2583F583E9930D
:100530002822F8E0FBA3A3E0F925F0F0E58215827C
:1005400070021583E0FA38F022D083D082F8E49369
:100550007012740193700DA3A393F8740193F58244
:100560008883E4737402936860EFA3A3A380DF55CC
:1005700053424300008002021F0000004D565349C1
:10058000000000004361726420526561646572007E
:100590000000000056312E30030000007000020001
:1005A0000000000A000000003A0000000000700097
:1005B00005000000000A0000000024000000000008
:1005C000ED0303543FFD8E838F82E090A621E0F877
:1005D0008E838F82E090A621E0FB8E838F82E09055
:1005E000A621E0FC8E838F82E090A621E08A838999
:1005F00082C8F0A3EBF0A3ECF0A3E8F0A3AA83A9D0
:1006000082DDC3224D5653494C49434F4E2E494E2D
:10061000432E004D5620434152442052454144450B
:1006200052003230313130393031313233343500EB
:100630004D5653494C49434F4E2E494E432E004D83
:10064000562055534220415544494F0032303131F4
:10065000303930313132333435008F828E83ED7052
:1006600004EC600B1CE06455F0A3DDF90206612286
:100670004641543136000000000403090409028792
:100680000003010080FA09040000000101000009D4
:1006900024010001280001010C24020101010002D3
:1006A000030000000A2406020101010202000924DD
:1006B000030301030002000904010000010200001D
:1006C00009040101010102000007240101010100E8
:1006D0000B2402010202100144AC0009050409C008
:1006E00000010000072501010000000904020001CB
:1006F00003000000092101020001222100070583F7
:10070000034000010902200001010080FA090400F1
:10071000000208065000070581024000010705029B
:100720000240000109029E0004010080FA09040051
:10073000000208065000070581024000010705027B
:100740000240000109040100000101000009240128
:100750000001280001020C24020101010002030033
:1007600000000A2406020101010202000924030319
:100770000103000200090402000001020000090454
:1007800002010101020000072401010101000B2404
:1007900002010202100144AC0009050409C0000175
:1007A0000000072501010000000904030001030007
:1007B00000000921010200012221000705830340F6
:1007C0000001050C0901A1011500250109E909EA4B
:1007D00009B509B609E209B309CD09B7750195084C
:1007E0008142C02E2C2A2927262423211F1E1C1BB0
:1007F00012C94690060FE0900610F02232FFFFFF6C
:03080000140108D8
:100807007F002205320007D001F4006401F400C81C
:10081700320AC350271007D014503C140A1E140084
:1008270000000000000000000002FAFCFDFEFCFAD8
:10083700FA0202FF02FFFDFAFAFAFDFF0202FFFFCA
:100847000002020202FDFAFAFF0200FF00020201A3
:10085700FFFEFAFEFEFEFCFAFE02FE02FFFFFDFAB5
:10086700FAFAFA0202020101FFFEFEFEFDFDFDFAA1
:10087700FAFF010202020202FFFD02020202020265
:10088700FD0202FFFAFF020202020202020000005A
:100897001A001F0024002A0031003A0043004E00CE
:1008A7005B006B007D009300AD00CC00F0011A01E6
:1008B7004C018701CC021D027C02EC0370040B047F
:1008C700C20599069607C0091E0ABA0C9E0ED85A89
:1008D700A55FA05EA15DA25CA359A65BA400000072
:1008E7000000000000000000000000000000000001
:1008F70000000000000000000000000000000000F1
:1009070000000000000000EAF6E9F3E7A1F7E3A51D
:10091700BDADB5BAB9BBE6B8F2F8BFBC0000000080
:10092700000000E9EDEFFBFAF9F7F6F5F3F2F1FF56
:10093700FDFEEEE7E6E5EBEA00000000000000FA46
:10094700F9F7F3F2F1EFEEEDEBEAE9E1E5FFE7FEA8
:10095700FDFBF6F501020304E100000000000000C2
:100967000100000014640000585A590007000000F5
:100977000600000065651200666613003F3E3A36C2
:1009870033302D2A272523211F1D1B191715131156
:10099700100F0E0D0C0B0A0907060402013F3E3A21
:1009A7003633302D2A272523211F1D1B1917151410
:1009B700131211100F0E0D0C0B0A090807069006EB
:1009C700D7EFF0E01313543FFF12B8751250A09001
:1009D70006D7E01313543F25E025E0FF1207F090F8
:1009E7000AF77401F02274FFFFFE12B83F1250B3EA
:1009F7007F0112B8757F011207F0E4900AF7F00241
:100A07009766900B95EDF0900B94EFF0641D6004E2
:100A1700E0B41E037F0022900BB6E07002FF229025
:100A27000AF9E0900B96F012CECF1263B0900AF855
:100A3700E0B40402F1C131F4900B94E0FF123BB92A
:100A4700123C4FEF600512976680F51269F4900B20
:100A570096E0900AF9F0900B95E06006126A001292
:100A670017F47F0122E4900B88F0A3F07F01126551
:100A7700659006FEEFF0900760E0602B9006FEE0C1
:100A870070257B017A07796E12B5E4EF6019122899
:100A97003FEF700E900701E07D06B401027D07125B
:100AA7002C38E4900760F09006FDE0640670028140
:100AB700E5A3E01205490BDE060BEA070B6A0C0BF0
:100AC70000120B2A130BBC150C4C210C0B260C0B1C
:100AD700270C28280C28290C0B2A0C282B0BDE2C7A
:100AE7000BEA2D0BA12F0B57300C4C3C0CB6630BAC
:100AF70000650B2A6600000CE5121B995006900B47
:100B070089121B939006FEE06465600281E5127707
:100B1700A9600281E5900B89E0600281E57D017F94
:100B27001580291218314006900B88121949900632
:100B3700FEE06466600281E5900AF9E0600281E503
:100B4700900B88E0600281E57D017F16510981E500
:100B57009006FFE0B40304E4F080389006FF7403C6
:100B6700F080309006FFE0700404F08005E4900602
:100B7700FFF09006FFE0B4040B9007027401F090B9
:100B870007328008E4900702F090073012769DF054
:100B970012660D7F011267A281E5900700E004F05D
:100BA700E0C3940B4002E4F0125AAE12660D7F01C7
:100BB7001267A881E5900AFAE060119006FDE0B49B
:100BC70002047D018002E4FD7F1B8004E4FD7F1A9F
:100BD700510912199981E5B1D7500281E5B1B8E4FD
:100BE700FF800AB1D7500281E5B1B87F011261EEEB
:100BF7007B017A07796E7FE87E03FDFC12B5B29020
:100C07000760803CB1DA500281E5B1B87F0212611A
:100C1700EE12283FEF600281E51229A39006FD80BE
:100C27001FB1DA500281E5B1B87F031261EE1228D5
:100C37003FEF600281E57D077F011229A79006FD3E
:100C47007401F081E512415990002DE09F90002C2E
:100C5700E09E402E126A824029900702E07023909E
:100C6700072EE06E7003A3E06F6017B1B8900A22F9
:100C770012769DF0122B5C12283FEF70057D06124D
:100C87002C38126260FF900A221262599FEC9E4034
:100C970011D3ED9400EC94004008D10B7FE87E035C
:100CA7008006D10B7F007E00F15E122B5C802F90B7
:100CB7000869E0B40128E4900B8AF09006FDE0B4DF
:100CC7000209125BFC900B8A7401F0123F6E9008C8
:100CD700697402F0900B8AE0B401031228FD1277C1
:100CE700B06019900762E0701304F0FB7A0779632C
:100CF7007F887E13F15E9007737401F09006FDE024
:100D0700B4020C900762E06006E4F0900773F0907D
:100D17000773E0602712777312B5E4EF601E12774E
:100D2700B0600F121F63E4FD7F1B1276A9121CB17E
:100D3700800AE490077312777212572C9006FDE031
:100D470014601124FE600804700D1228FD8008123B
:100D57005BFC800312282A9006F3E0600D126A2ECE
:100D6700EF6007E49006F3F080279006F3E0702128
:100D7700126A2EEF701B9006F304F09006FDE0B4A4
:100D8700020F1200F9EF2401FFE43E1227EC12666E
:100D9700071200F99006F91227976014125BDD120B
:100DA7001B8C400C1200F99006F912857012660D23
:100DB700221228F612A68F9003F312857C000000FA
:100DC70000122C3CE4FDFFF1C57F647E00028AF827
:100DD700123285D390002DE0940190002CE094000E
:100DE70022E054FDF0E054DFF0E054FBF0E054BFA4
:100DF700F0E04401F0E04410F0E4FDFFD18FE4FDA2
:100E07007F01D18F7B017A09791622126938600D2B
:100E170014602924FD24FD5048240870651237E822
:100E270090091D7008B1E87FE87E03805312767938
:100E3700D18A7D01D1077F007E0080441237E87098
:100E47001590091D12777A54BFF07D01E4FFD1098F
:100E57007FE87E03800912770ED1097F007E00802C
:100E67001F1237E8701190091D1276F6E4FDFFD1C5
:100E7700097FE87E03800912770ED1097F007E0083
:100E8700F15E22F07D01E4FF900BB5EDF0900BB41D
:100E9700EFF07010A3E07D017F01600512B9888033
:100EA7000312B946900BB4E0B4010EA3E07D207F96
:100EB7000A600302B98812B94622122B426005EF75
:100EC7006402704C1277B0700B90091DB1E87FF483
:100ED7007E01803A9006FDE0FF64016005EF640340
:100EE7007011127676F012693F7D01D1077F007E7F
:100EF70000801B9006FDE06004640670131276768E
:100F0700D18A7D017F01D18FD10B7F007E00F15EF9
:100F170022900AF8E0640370331237E8700F9009E3
:100F27001DF0127679B1FF7FF47E01801DE49009F0
:100F37001DF0E054FDF0E054DF12777A54BF1276CB
:100F4700F67D01E4D1027F007E00F15E227B017A0B
:100F570009799E7F007E007D007C0002B5B2900A71
:100F6700F8E0FF6406600AEF64076005EF64087045
:100F770048900ADAE0B4010B12770ED1097F007EA0
:100F8700008034900ADAE06402702EFDFFD18FE40E
:100F970090091DF0900AFAE090091DB4010B127632
:100FA700F7D10B7FE87E03800EE04404F0E0444075
:100FB700F0D10B7FF47E01F15E227D017F01900B62
:100FC700C4EFF0ED64017006121CE312B988900BB0
:100FD700C4E0B4011D123A8D900AF8E0B40305E4A9
:100FE700FF121370900AF8E0B40C0EE4FF121370AE
:100FF7008007E4FDFCFFFE1107900ABA7401F02296
:10100700900B2E1262EEF1C911FDEFF47002EEF4AF
:10101700606611FDEFF47003EE64FE605B900B2ECB
:10102700126071C333CE33CED8F9FF7C007D051231
:101037008182900B2EEEF0FAA3EFF0FBA312607102
:10104700C333CE33CED8F9FF7C007D051281829061
:101057000B30EEF0A3EFF0D3EB94EAEA940B4006E3
:10106700900B2E1277EED3900B31E094EA900B3071
:10107700E0940B40031277EE900B2E1277E6A31243
:1010870077E6900B2EE0FCA3E0FDECC454F0FBA345
:10109700E04B9009E5F0AF05A3EFF0900B30A3E02C
:1010A7009009E9F0909C04EFF0909C02E0540FF057
:1010B700C083C082E0FF9009E5E0FE54F0FDEF4DEC
:1010C700D082D083F09009E9E0123A68E054F0F05A
:1010D700E0FFEE540FFEEF4EF09009DBE0701612C2
:1010E7005F32C083C082E0FFA3E054FED082D0838A
:1010F700CFF0A3EFF02290966BE0FEA3E0FF2290E3
:101107000B79EFF0909C4E91CC909C4DE0543F9022
:101117000B7B123A597002EEF4601211FDEFF47076
:1011270003EE64FE6007909C48E054FEF0909C4CF0
:10113700E04403F0909C41E4F0A3F0909C4FE0441E
:101147001851D0909C4FE0440151D0909C4FE044FF
:101157000651D0909C49E0441251D07B017A09791D
:10116700E07F107E27120F5E9009DAE060024136B9
:10117700909C4BE020E058909C4BE030E0024130DF
:10118700F18C6002413011FDEFF47002EEF4600B58
:1011970011FDEFF47003EE64FE7022900B7AE014F9
:1011A70091BE909C4EE07023ED643F607C900B7A7B
:1011B7007440F0A3E025E0F04401F0800E900B7A34
:1011C700E014909C4EF091CCE0605EF1A780A8906F
:1011D7009C4BE030E053909C4BE030E04CF18C703E
:1011E7004811FDEFF47002EEF4600B11FDEFF4709F
:1011F70003EE64FE701F900B7AE00491BE909C4E44
:10120700E0643F7020ED6021900B7A74FFF0A3E05B
:10121700C313F08010900B7AE004909C4EF091CCB1
:10122700E0643F6004F1A780AD9009DA7401F051E2
:10123700BD909C4FE054FE51D0123BB0909C4FE0C4
:10124700440651D0909C49E0441251D0909C4FE005
:10125700446051D01200099009DCE07003F19AF064
:10126700B169123A805004AF068000900B7BEFF013
:10127700900B7A743FF0900B7BE0FF900B7AE0D3F2
:101287009F402A123A78FF900B7AE0FEC39F4005F1
:10129700909C41EEF0123A709F4008900B7AE090D4
:1012A7009C42F091E8900B7AE014F080C99009E72E
:1012B700E01239CAF022909C49E054EDF07F027E9B
:1012C7000051D5909C4FE054F9F07F027E00900BBF
:1012D700A0EEF0A3EFF0900BA0126DE045F06009CF
:1012E70012976691E891E880ED227F01122FEAF1CB
:1012F700BC5004AF068000900BC8EFF0909C41E013
:101307009009E7F0909C42E09009EAF0900BC8E062
:10131700C394405013129766900BC81277BE91E89A
:10132700900BC8E004F080E4B162909C4FE0549FBA
:1013370051D051BD909C4FE054E751D0909C4CE068
:1013470054FCF07F147E0051D512001A11FDEFF402
:101357007002EEF4601211FDEFF47003EE64FE60AC
:1013670007909C48E04401F022900BCAEFF0123A34
:10137700F39009DCF0900BCAE0F0FF9009DDE0B5CF
:101387000706F128700281AF900BCAE0701691B77B
:10139700600291D4F1216002B16F91B07002819F18
:1013A70051F1819F900BCAE0FF54096036F121602B
:1013B70007EF54247002B16F91B0601FF1AD701B3D
:1013C700EF54C070169009DDE05412600451F180AB
:1013D7000A9009DDE054C06002D18F91B7640960BB
:1013E70002B11AF1AD602D91B76007EF5409700291
:1013F70091D4F121600A900BCAE054247002B16FB6
:1014070091B0600BE05412FFF1286F600251F1F1C7
:1014170028FF3106900BCAE0FF5424601C91B76087
:1014270007EF5409700291D491B0600BF1AD7007CA
:10143700EF54C0700251F1B1B7900BCAE0FF54C02E
:10144700605691B76007EF5409700291D4F121609B
:101457000A900BCAE054247002B16F91B06006F194
:1014670028700251F191B0FFB412047FC0800EEFD3
:10147700B402047F408006EFB410027F80EFD3945C
:1014870000400B900BCAE054C06F6002D18F900BE5
:10149700CAE054C0FF123861900BCAE0FF9009DD23
:1014A700E06F6002EFF011E022909C49E0541222B5
:1014B700909C49E0540922909C4EF0900B7BE0FDF4
:1014C700909C4DF0A3E0543F900B7AF022123BA280
:1014D700B162909C48E04422F18454F6F1714411C2
:1014E700F012B8A0EFFD7C007E017F90128182EFA1
:1014F7002401FFE43EFE909904E020E00BEF780220
:10150700CEC313CE13D8F9FFEF1FAC0670011E4CE4
:1015170070F622909C437403F0A3F1844409F1719F
:1015270054EEF17154DDF091E811FDEFF47002EE25
:10153700F4600811FDBEFE0ABFFF07909C437402CA
:101547008005909C437401F0A3F0F1B57004F19A03
:10155700B1681277DE7F507E0041D5909C48E04409
:1015670044F07F0A7E0041D5F1BC5004AF068000ED
:10157700900BC7EFF0909C41E09009DEF0909C4201
:10158700E09009DFF0900BC7E0C394405013129727
:1015970066900BC71277BEF1A1900BC7E004F080ED
:1015A700E4B162909C49E054DBF07F037E0041D5B3
:1015B700123BB0F1854424F091E8909C47E0440346
:1015C700F07FF47E0151D5909C47E054FCF0F1B5D3
:1015D7007003F19AF0B169F1BC5004AF0680009036
:1015E7000BA2EFF0A3743FF0900BA2E0FFA3E0D3B0
:1015F7009F40321297669009DEE0FF900BA3E0FE52
:10160700C39F4005909C41EEF09009DFE0FFEEC3D9
:101617009F4008900BA3E0909C42F091E8900BA3A9
:10162700E014F080C39009DEE0909C41F09009DF60
:10163700E0909C42F022AE07F1C9909C46E044102E
:10164700F0AF06123854120F5E909C4BE020E20474
:10165700F18C60F5F1794480F07F01F17B4420F053
:1016670091E8909C45E04405F091E8909C46E05451
:101677007FF0F1A1909C49E054BFF091E8E4900914
:10168700E8F09009DDF001E0123A805004AF0680DF
:1016970000900BC9EFF0900BC9E0D3943F502B1289
:1016A7009766909C49E030E108900BC9E0909C4117
:1016B700F0909C49E030E408900BC9E0909C42F020
:1016C70051D1900BC9E004F080CC909C49E030E107
:1016D70007909C48E04404F0909C49E030E4079070
:1016E7009C48E04440F0B169909C49E030E1031226
:1016F7004055909C49E030E40312404D51D1909CF5
:1017070049E030E104E054FDF0909C49E030E40406
:10171700E054EFF07F027E0041D5909C49E05424CD
:1017270022900BCAE0541222900BC6EFF0F17944D5
:1017370080B168909C45E054FAB168909C46E054AB
:101747007FB168909C46E054DFB168909C46E054B6
:10175700EFF0900BC6E0FF123854120F5E909C4BCF
:10176700E020E305F18C60F52222F091E8909C4897
:10177700E0227F647E0051D5909C46E022F091E8FC
:10178700909C49E0221297667B017A0979E012B5AD
:10179700E4EF22909C48E054BB227F017E0041D5B4
:1017A7007F057E0041D5900BCAE0FF54122291E8D5
:1017B7009009DCE0229009DFE0FF9009DEE0FEC33C
:1017C7009F22125BD530E0027F019009DBEFF0909A
:1017D7009901C083C082E0FFA3E04401D082D08397
:1017E700CFF0A3EFF0909C06E04480F022900AF936
:1017F700E06036900ABAE064017017900AF8E0B426
:1018070003077FC0121370913C900AF8E0B40C02F2
:10181700919C123AFD1131400B900A1FE07005911F
:10182700E312B946E4900ABAF022900AF9E0D39499
:101837000022E4900B98F0A3F03138EF601A90097A
:101847009DE0701404F0FB7A09799E7F887E13125D
:101857000F5E90099C7401F03138EF701C90099D60
:10186700E0601611314012900A1FE0700490099D44
:10187700F0120F54E490099CF090099DE0600791E5
:10188700E312B98880031217F47B017A09799E1253
:10189700B5E4EF602C90099CE060263138EF6013C7
:1018A70012769112B988F163E4FD7F1B1276A99134
:1018B700B1800EE490099CF07B017A09799E12575A
:1018C7002C7B017A0979A412B5E47F011265659032
:1018D7000B97EFF024ED603124AE600714602A24E3
:1018E70054704D71995005900B997193900B97E037
:1018F7006465703C1277A97037900B99E070317D61
:10190700017F1531BC7029802411314005900B9857
:101917003149900B97E0B46617900AF9E07011907F
:101927000B98E0700B7D017F1631BC70031217F422
:1019370022E4FF126A1330E7027F002290099DE03C
:10194700FF227401F0E4FFEFB401097199500CE034
:1019570004F0800711314003E014F0900AF9E0B475
:1019670020117D017F1571A1B40C083143EF70037D
:101977001217F4900AF9E070117D017F1671A1B476
:101987000C083143EF70031217F41227F47F01029A
:101997000012900AFAE06007E4F01217F4800B9047
:1019A7000AFA7401F0FDFF120FC590091BE0B4019C
:1019B70003120E1222120A093143EF227F01126528
:1019C70065900B82EFF0E4A3F0A3F0EF14605824C6
:1019D700EE603124FE605024B06007146026245462
:1019E700704771995005900B847193900B82E06456
:1019F7006570361277A97031900B84E0702B7D01EA
:101A07007F15802011314005900B833149900B825F
:101A1700E0B46615900AF9E0700F900B83E0700947
:101A27007D017F16020A09319922900BB0EFF0E48D
:101A3700A3F0D3900981E09400900980E0940040DE
:101A4700229009821284DFC000C001C002C00312C5
:101A57004096E4FCFDD003D002D001D000124150E3
:101A6700124798900980E07002A3E06002615B7BF7
:101A770064FAF9F89009821284D312835890098B7B
:101A8700128570900980E4F0A37464F0A312857C3A
:101A970000000000E47F107E0E7187400890097AED
:101AA7007402F08019E47FAC7185400890097A745C
:101AB70004F0800A7182400690097A7405F07182F9
:101AC7004015E47FAC7E0DFDFC90098B12279750E3
:101AD7000690097A7405F0900BB0E0B4010A7182A0
:101AE7005006900BB17401F0900BB0E0700A71834F
:101AF7005006900BB17401F0900BB1E06401705483
:101B070090097A7406F012001612976690098FE012
:101B1700602DE4F07B017A0979867F107E27FDFC32
:101B270012B5B27D017F0F120A091277D0900AF819
:101B3700E0640C701F3143EF701A1217F480157BA5
:101B4700017A09798612B5E4EF6009E4FD7F0F1287
:101B570076A991B102001612683F600D24F7600D57
:101B6700240A7016123F1D8006913C800291A17BCA
:101B7700017A0679DD7D0112487222E47F487E0DE5
:101B8700FDFC90098B1284DFD302840E7401F0FFF1
:101B9700214E900AF9E0C3942022120A09900AF80C
:101BA700E022900AC9EFF0BF5822900A21E0C394BF
:101BB700024002E4F0900A21E004F0E0B4010D7B5A
:101BC700017A0A79CA7FF47E01120F5E9131700E95
:101BD700900A21E0B40107E4900AC9F080469131E8
:101BE7007014900A21E0B4020D900AC97467F0E4FA
:101BF700900A21F0802E9131602A900A21E0640139
:101C07007022900AC97458F0E4900A21F0125675B0
:101C1700EF6011E4FD7F1E71A1B40C083143EF7032
:101C2700031217F4900AC9E0FF227B017A0A79CAE6
:101C370012B5E4EF22900AF9E0FFAE07EE900983B0
:101C470093FDFFAE071217C9EE543FFEED543FFD5B
:101C5700121721600A9009DEEEF0A3EDF0800F1253
:101C670014B0602E9009E7EEF09009EAEDF0909C31
:101C770048E020E20B909C41E0543F6E6002EEF09A
:101C8700909C48E020E60B909C42E0543F6D600238
:101C9700EDF00210E07F24121370900AF9E0FFAE16
:101CA70007EE9009A493FDFF80991230121277D79F
:101CB700E4FF121370E4FF12163D12654E7F019088
:101CC7000BECEFF012C8DB12C8BB90988CE0440114
:101CD700F01250A0900BECE0FF02B9057D107F20B9
:101CE70012B9467D107F2112B9887D107F1D12B968
:101CF700887D107F1E12B9467D107F1C229009A394
:101D07007401F0900995F012769112B946125802B3
:101D1700919C1217F43138EF600D90099D7401F012
:101D270091E312B988800F900A1FE0700490099D13
:101D3700F091E312B946124DEF12487212773B1237
:101D4700B98812761712B9887D207F0F12B98812C9
:101D5700759B12B9887D017F2012B9467D017F21CD
:101D670012B9887D017F1E12B9887D017F1D12B9C6
:101D7700467D027F2012B9467D027F2112B9887DF8
:101D8700027F1E12B9887D027F1D12B9467D807FB2
:101D97000212B9467D807F0312B9887D807F0512C4
:101DA700B9467D807F0602B946900AF8E0900BD3CA
:101DB700F0E4FF1265659009B7EFF064576004E03F
:101DC700B4420291B112588BEF602D900AF8E0FFF0
:101DD70064076024EF6408601F900006E0B4030AFC
:101DE700900AF8E0B40D03122C3C120FC17F967EC7
:101DF70000128AF87F02D1A91258FCEF60047F0312
:101E0700D1A9125683EF60047F07D1A91277B712C1
:101E1700B5E4EF60261277B77F64120F5C12595949
:101E2700EF600791E312B9888011900A1FE0700BE9
:101E3700900ABAE0700591E312B94612683F601F35
:101E470024FD24FD5023240770379006D2E0600755
:101E5700F1ADEF702C800E12584FEF7024800612F0
:101E670058ADEF701C7F0180151251EAEF70127F99
:101E7700907E01128AF8125683EF70057F0212577F
:101E8700519009B7E0B41419900006E0B4030A9022
:101E97000AF8E0B40D03122C3C900AF8E0FF125642
:101EA700D522900AF8E0900BD2F0F193EF700D90E5
:101EB7000BD212573370057F011256D5221230A666
:101EC70074FFFFFE12B83F12B8CC129766E4900B6E
:101ED700B8F01250B31263C4D2AF126470127747CE
:101EE700F16A909601F15F12574212647712648685
:101EF70012655DA3E04440F16A909601E04440F129
:101F070062E4FDFF12305A91E312B988E4FF1267C9
:101F170049124108E4FF1239D612498212469C122F
:101F2700694B125764129766F1781229E6B1B0121D
:101F37006938600F14601524FC601524FB600924C0
:101F47000B7010120A6C800B1139800731C38003A4
:101F57001200171267BE80CDE054BFF07F027E00EB
:101F6700028AF8F0909605E04440F0A3E04440F080
:101F770022F18C12B5E4EF600BF18C7F32120F5C0B
:101F8700E4FF5131227B017A09797B22EF24FD603E
:101F97000C24FC600E24FB6007240A80090257DD2D
:101FA70002583A02511FE4900BD0F0900A1EE0B499
:101FB7000109120FC1900BD07401F012584FEF7046
:101FC70006900A1EF0FF221209ED122C3C12002087
:101FD700900BD0E07003120FC112B24FEF7002FFE7
:101FE700227F021232307F09121370E4FD7F0D1237
:101FF7000A097F02122009EF7002FF22122B6E7F5F
:102007000122900BDAEFF07E007F327D007B017AB0
:102017000079061287C6900BDAE0900006F0900070
:102027000B12857CFFFFFFFF90000F12857CFFFFDF
:10203700FFFFE4900BAEF0A3126F36117CEF700632
:10204700900BAE048010E4900A72F01244F7EF7020
:102057000C900BAE7402F0A304F07F002290002CCA
:10206700E07002A3E07006900BAE7403F0900BAF24
:102077007401F0FF2290096212857C00000000E4E1
:10208700900974F0900006E0B4010C12CD53EEC332
:102097001390096FF0800690096F7401F012779121
:1020A7001276B37002FF221277911276D77003EE81
:1020B70064556008900AB9E07002FF22E490096E47
:1020C700F090096EE0FFC394044002217EEF75F0A3
:1020D70010A424BEFFE5F0340EFAA9077B0190098E
:1020E700771285E6127215FF6405600AEF640F60C8
:1020F70005EF64857036900974E0FF600890096EFB
:10210700E0C39F40279009621284DFC000C001C06E
:1021170002C0031276E7D003D002D001D0001277B5
:102127009790096EE004900974F001A4900977F183
:102137007612810FFF64046018EF64066013EF6482
:102147000B600EEF640C6009EF64016004EFB40EDE
:102157001E9009621284DFC000C001C002C00312D2
:1021670076E7D003D002D001D0001277978008908D
:10217700096EE004F001C890096EE0B4041B9009F1
:1021870074E0FFD394004011EF9404500C9009625F
:1021970012857C0000000001A490096F71DD71F9C0
:1021A7001276B37002FF2290096F71DD71F9127612
:1021B700D77003EE64556008900AB9E07002FF22F9
:1021C700900D0DE0900013F0900D0EE0FEA3E0FFE0
:1021D7001297F8900975EEF0A3EFF0E4FCFD900973
:1021E7006271F3900014128570900D111276D06011
:1021F7003C1297F87C007D201285EF9102AB079087
:10220700096FE07F0025E0FEE4FCFD1282B2126B4D
:102217006EC006C007E025E07B00FAE4F9F8D007B6
:10222700D00612835890095E128570800A90095E65
:1022370012857C00000000900D161276D0600812FF
:1022470097F8E4FCFD8005900D24F1A19009661232
:102257008570900D131276D060081297F8E4FCFD94
:102267008005900D20F1A190096A12857071DA90AE
:10227700096671FC9102AB07900975123FD8FCFD06
:102287001282B290095E71F39102AB0790096AD18D
:102297004DC007900013E0FBE4FAF9F8D00712836A
:1022A70058900970128570E47FF57E0FFDFC900948
:1022B70070F1975008E4900008F07F0122E47FF561
:1022C7007EFFFDFC900970F197500AE4900007F03B
:1022D700A304F0802578367C0D7D017BFF7A067993
:1022E700707E007F081287A2EF9000077003F080CE
:1022F700037401F09000087401F071DA90096671B7
:10230700FC90001471F390095E71F390001C128524
:1023170070900007E06009F19E90097071F3800EDC
:102327009009701284D3EF2402FFE43EF1EC900091
:1023370020128570900007E0601FF19EEF24FEFBDE
:10234700EE34FFFAED34FFF9EC34FFF89000137127
:10235700DD1282CD90001C800A71DA90096671FC4B
:1023670090001471F3900018128570900013E0FE2E
:1023770090096FE0FFEE8FF0A4900013F0A3128492
:10238700DFE4FCFDFE1282CD9000141285709000F0
:102397001C1284DF90096F71DD1282CD90001C1230
:1023A700857012779190096A71F39102AB079009D2
:1023B7006F71DD1282CD9000241285709000181283
:1023C70084DF90096F71DD1282CD9000181285703D
:1023D7007F0122900D10E0FFE4FCFDFE22900453E4
:1023E7001285DD9000271284659004561284DF025F
:1023F70082B29009621284DF0282CDA804A905AADD
:1024070006229009ECEDF0A31285E69009EBEFF0B8
:1024170090053EE0FEEFD39E50149009EBE0C39485
:1024270001400B900545123FDF6003EE70037F000C
:10243700229009EBE0149009F0F09009ECE0FF908E
:1024470005451285DD9009F0126C4FEF12814E9011
:1024570009ED1285DD12BF3F12778B9009ECE0641E
:10246700036002A18BA3F17612810FD39406400378
:1024770012BE90126C349009F5128570D12678003F
:102487009009F51284D3128358EF2402FFE43EF13A
:10249700ECE47B07FAF9F8128358AF039009F9EFD8
:1024A700F09009EDF17612810FFEC39F4015EEFF04
:1024B7009009F9E0FDEF9D1277C8FDD126F8128249
:1024C700CD80299009EDF17612810FFF9009F9E08F
:1024D700C39F1277C8FDD126F81282CDC374809F9F
:1024E700FF743A9EFE74099DFDE49CFCC006C0077C
:1024F700D12D900001D007D0061284AFD12DD15332
:10250700C003C002C0011284459009F571F3D001E0
:10251700D002D003128495D12012770012778B90C6
:1025270009F5D1237800F17D9009F0E075F00640B8
:102537002BD134D153C003C002C001128445C0045B
:10254700C005C006C007127781D14D9102AB07D0F5
:1025570007D006D005D0041282B2807ED134D15381
:10256700C003C002C001128445C004C005C006C034
:1025770007D1449102AB07D007D006D005D004128B
:1025870082BF80569009ECE064027059D12012771F
:102597000012778BD1267800126C34F17D40071238
:1025A7007781D14D8012D144C374809FFF74519EAF
:1025B700FE74019DFDE49CFCC006C007D12D900070
:1025C70001D007D0061284AFD12DD153C003C0026A
:1025D700C00112844590B10671F3D001D002D00337
:1025E70012849580269009ECE0B4011F126C349098
:1025F70009F51285709009F11284D3C006C007D17E
:102607002D900001D007D0061284AF9009EBE0FFB0
:1026170012C1CB12BA257F01229009F11284D37B14
:10262700807A517901229009F0E075F006A4FF90B5
:1026370005451285DDE92FF9EA35F0FA229009F10F
:102647001284DF9009F51284D30282BFE92401F9CD
:10265700E43AFA22900006E064046002E16C900418
:102667005AE0B40231900456C083C0821284DFC09E
:1026770000C001C002C003F16D90001F128465D035
:1026870003D002D001D0001282B2D082D08312854B
:102697007090045AE4F090045AE0702C900456C0ED
:1026A70083C0821284D3C004C005C006C007F16D81
:1026B7009000271276C4D007D006D005D004128226
:1026C700BFD082D08312857071E4C004C005C006F4
:1026D700C007F16D90001F1276C4D007D006D00551
:1026E700D004C31283F85027F16D90002712846538
:1026F700A804C004C005C006C007F16D90001F12F2
:102707008465D003D002D001D0001282BF8011713E
:10271700E4EC335011F16D9000271284651283EABF
:10272700900456128570F16DE92427F9E43AFAC04E
:1027370003C002C001127717D001D002D003128460
:1027470095F16DE92423F9E43AFAC003C002C00108
:10275700127717D001D002D0031284951269D6D010
:1027670080D0807F01229004530285DD90069D1260
:1027770085DD90000422128358AC00AD01AE02AF94
:10278700039009F51285709009F51284D39009F129
:102797001284DFC302840E900D2C1284D302981486
:1027A700A2AFE433900BCEF0C2AFF17312810F707A
:1027B7001D1284451276C7900611D14DE4FBFAF934
:1027C700F8C31283F85007F173740112814E900B0E
:1027D700CEE024FF92AFD080D080F17312810FFF3B
:1027E70022FFEE3401FEE43DFDE43CFC22121B5EB9
:1027F700900AF9E07010900ABAE0700A900AFAF0AD
:102807007D01FF120FC5900ABAE0B4010912183111
:102817004004A37401F0900AFAE0B40105E4F01251
:1028270017F422F1E3600304700D113FEF70059078
:1028370006FD04F01227F4227B007A007900900B42
:10284700851285E6E4900760F0900702E070137147
:102857006490072FE09F90072EE09E4005E4F0A3C9
:1028670004F0900B851285DD9005131285E690071D
:102877002EE0FFA3E0900516CFF0A3EFF011F612BC
:102887009C6BEF7007900BAE740580287B017A076D
:10289700793F7D0B124AA0900A73EFF07B017A060D
:1028A70079DB7D1812487211F612CEE6EF700990A7
:1028B7000BAE7407F07F00229003F312857C0000B3
:1028C7000000900768E0601DE4F01265EB9003EFED
:1028D7001284D39003F3122797400A9003F31285CB
:1028E7007C00000000125A18EF7F017001FF227B65
:1028F700017A0779302211F612DB79EF600612CEE2
:10290700B0EF70129006FFE0640370237F0A125B3A
:10291700DF121B8C4019120DB89006FFE0640160AE
:1029270005E4FF1260DE113FEF700431A380437BA3
:10293700017A07796912B5E4EF6018900AFAE07036
:102947001290075FE0700C1217F4123F1D90075F9B
:102957007401F0125C26EF701B120DB8900701E0AE
:10296700FF64026003EF70047D0680027D077F012C
:1029770031A7813CF1E3600B24FE60181460152435
:1029870004701812CECF1263B09006FD7403F012D4
:1029970077D78004125D2FF0125F3D227D067F01FD
:1029A700900B3EED1265BFC3940840037F00229051
:1029B7000B3EE0FFA31285DD90000174011204C8ED
:1029C700FD1280F62DFD7C00ED5407FD900B3F12A4
:1029D70065B4E92DF9EC3AFAEF12813C7F01221236
:1029E700665F900BDDEFF06012120F54E490099CC4
:1029F70012777212572CE4900773F0900A2CE0B408
:102A07000102714A900A22E07002A3E06025713B3F
:102A170012B5E4EF7007900BDDE0B42216713B7F2F
:102A2700887E13120F5E900BDD7421F0E4900A2C60
:102A3700F06125900BDDE0FFC394164075EFD3944A
:102A470020506F71426007EF640260026113715397
:102A5700F0900BDDE0FBB42020900A22E0FEA3E01B
:102A6700FF7C007D0A128182ED4C6002715C127757
:102A770068900A2A7401F08026900A2AE06011EB18
:102A870024EAFFE434FF900A228FF01281D7800AEC
:102A9700900BDDE024EAFF124163E4900A2AF0E498
:102AA700900BDD713A7FD07E07FDFC12B5B2714AFB
:102AB700806C900BDDE0FFC394314057EFD3943B1C
:102AC700505171426005EF640270537153713A7F40
:102AD700887E13FDFC12B5B2900BDDE0FFB43B0519
:102AE7001277688007EF24CFFF124163714A714262
:102AF7006004EFB402167164900A23E09F900A22E3
:102B0700E09E5008900BDD743CF08012E4900BDDE2
:102B1700F0800B900BDDE06005715C7154F0900B59
:102B2700DDE0FD600D7F0131A7900BDDE0FDE4FFE7
:102B370031A722F07B017A0A792522900AF8E0FF73
:102B4700640122900A22E0FEA3E0FF22E4900A2C0F
:102B5700F0900A2B22E4900A22F0A3F02290002C96
:102B6700E0FEA3E0FFD322E4900702F0900760F0B5
:102B77001265DFEF64017061900A72E0700C9007D4
:102B870068F090072EF0A3048047900A7471679449
:102B970000EE940040669007687401F090002C12D4
:102BA7006259EF9DEE9C4008900A74E4F0A304F08C
:102BB7009000307167900A71E09F900A70E09E4024
:102BC70005E4F0A304F0E4900702F0900A7412768B
:102BD7009DF0E49006FFF08023E4900768F09007EB
:102BE70003F0A304F090072EE4F0A304F0E49006AA
:102BF700FFF09003F312857C00000000E4900701CA
:102C0700F090002CE07002A3E070079006FD04F03E
:102C1700FF22913C113FEF700231A3E4900A74F058
:102C2700A3F0900A76F0A3F0900A70F0A3F07F016A
:102C3700227F0131A79006FD7401F022900ADB1272
:102C470085E6900ADEECF0A3EDF07D01124DFBC3A3
:102C5700900ADEE094025062900ADE71679440EEBB
:102C670094004006A37440F08005900AE0EFF090CE
:102C77000AE0E0FDFFC3900ADFE09FF0900ADEE084
:102C87009400F0900ADB1285DD7F24124FCDF1DC32
:102C97007D207F13124C497F01124FDDEF6042F117
:102CA700DA1237C2900AE0E0FF900ADC125F249044
:102CB7000ADEE07002A3E0709F22F1DA7DB41237DA
:102CC700C4900ADB12772F900ADB127723900ADE73
:102CD700127753900ADE1277A07D1F124F8C126174
:102CE700F622F12C7B017A0779A07D1F7C00124E1A
:102CF700CFEF641F4E6002C13B78A07C077D017B4C
:102D0700FF7A05796F7E007F041287A2EF6002C108
:102D17003B9007A4E09007E4F09007A5E09007E553
:102D2700F09007A6E09007E6F09007A7E09007E786
:102D3700F09007AFE01205492DAB002DDD032D64A0
:102D4700122DBE1A2E031B2DC21E2D7A232D7F2571
:102D57002D84282D882A2DFF2F00002E0F7BFF7A28
:102D67000579747D247C00914312775D9143900728
:102D77009FC10A126B22C113126B4CC113D1C480BD
:102D870010126C6C7B017A0779F07FD07E07120FE7
:102D97005E90079F7402F07B017A07798E7F0A1293
:102DA7000F5C8068D13CEF70069007EDF08059907A
:102DB70007EDE060408051D15C80519007B3E0702F
:102DC7000CD13CEF6007E49007EEF0802C9007EE03
:102DD7007401F0E48023D13CEF60069007EDE060DA
:102DE700087BFF7A05799C80067BFF7A0579AE7DA3
:102DF700127C009143E48001E4FF800EE4FFD1BA26
:102E07009007ED7401F080047F01D1BA7B017A0746
:102E1700798E12B5E4EF600A90079FE0B40203745D
:102E270001F09007807401F0FB7A0779897FB07E03
:102E370004120F5E2212584FEF70069007EFF080D2
:102E47000E9007EFE0700812B24F9007EFEFF09087
:102E570007EFE0FF22D13CEF7005126C5A80541245
:102E6700B8399007781285709007B1E024C1601DCA
:102E7700242370327BFF7A0579989007B3E0FFC36C
:102E87009404500280027F04126B4280267B017AF1
:102E97000779749007B3E0FFC3940C500280027F58
:102EA7000C126B42800D7B007A007900E4FDFC91E7
:102EB70043E4FF9007ECEFF012775D81439007B191
:102EC7001284D39007B7E07A0F30E0027A0D7B00C7
:102ED700900AEBEAF0A3EBF0126D35126DDDFED32D
:102EE700E5F09401EE94004023126CA630E0027ED8
:102EF7000D7F00126DE79007B7E07E0D30E0027E90
:102F07000F7F00126CB0914331E680CF126D9B901A
:102F170007B7E07E0D30E0027E0F7F00126CB091A4
:102F270043E4FF808E126EB5EF30E212E4FF126EBB
:102F3700A27F041235047F81123504124C777B017E
:102F47007A0779F87D08125F6BEF7002E1D9900775
:102F5700F8E020E7119007FEE0600B7B017A087923
:102F6700617D08126DFC9007F8E05460704DA3E096
:102F77001205492F99002FD9012F9B032FA1052F48
:102F8700AB062FAE082FB0092FBB0A2FD90B0000B5
:102F97002FBD80229007FCE0801D9007FAE0547F48
:102FA700FF026EA2025D4D801E1234FE7F83123532
:102FB7000402597B8011E4FF0237319007F8E0B42F
:102FC700A10DA3E0B4FE087D01E4FFFE025F5012ED
:102FD7004CB522E4FD7F127EA3028F809006FEE0AF
:102FE70024FE22900BC5EFF07F0122900B81E07049
:102FF70019900BA7E070131112121CE312B98890F5
:103007000AF8E0B40C02113731832290091BE0B4AF
:1030170001021120126782F02212693FE4FD7F014D
:10302700120E8F127747121F6A7F147E00029001DB
:10303700120FC1123A8DE4FF12137012769112B972
:103047008812773B12B94612761712680812759BD9
:1030570002B988119FEF700F90B204F090B203117C
:103067009890B205F08024EFB4010E90B204E4F01A
:10307700A3119890B203F08012EFB4020E90B2033E
:10308700E4F090B205119890B204F090B000E4F02B
:1030970022F0ED90000E932290B00074FFF0229082
:1030A700988AE04430F090988CE054FAF0119F90A1
:1030B7009804E0B4170890B0077403F08009907F74
:1030C700C0E49390B007F090B000E4123A594E6014
:1030D70007119F90B008314B7D027F0712B9887D99
:1030E700027F0512B98890B009E020E156119F9040
:1030F700B009314BF50AF50B050BE50B7002050A14
:10310700640A450A70F2E4F50AF50B90B004E03062
:10311700E01F90B004E030E1028011050BE50B7071
:1031270002050AD39440E50A941F40DFE4FF02BA80
:103137009A90B004E020E0DAE020E1D6E4FF12BA8A
:103147009A318322E04402F090B000E4F022900B21
:10315700EDEFF012B957900BEDE0FF7009119F31B9
:103167007BE04404800BEFB40109119F317BE044FD
:1031770008314E2290B009E054F3F022D310AF018A
:10318700C3C0D012BAA280FE12BA95119F90B100A7
:10319700E0444180B2119FA3E054FBF090B100E0FE
:1031A70054BE80A390B009E020E00A119F90B009B7
:1031B700E04401314E22909801E0FDEF543FFCEDD1
:1031C7005CF0EF30E50A119F90B100E054BE314E3C
:1031D70022900BEE7414F0126F305128F0E0700D4E
:1031E700900BEEE0FF14F0EF70F65128F090980086
:1031F700E054FEF01265556005EF6420701A512007
:10320700BF0404E4FF80075120BF08047F01315544
:103217007F0112C06B12C00E2290B009E0540CFF60
:1032270022909803E09006D822900BCFEFF0126817
:103237003F601324FD24FD502624FD6016240A70E8
:10324700231263BB801E900BCFE0640360161262EB
:103257003D8011900BCFE0640C600911378005F1B8
:10326700D912001D900BCFE0900AF8F0900BB9F03F
:10327700120FC1E4900AFAF01264771219B190099B
:103287001BE0B401031268122251A090966AE4F081
:10329700900ADAF090079FF022D310AF01C3C0D095
:1032A700909644E054FCF0D0D092AF2290964574AB
:1032B70003F09198EF60189006A0E0640760109003
:1032C7000AAA740BF0A374B8F09006A07407F090E4
:1032D70006A0E0FE702B913BEF600C917AEF700730
:1032E700900AA5F0A3F0229165FCC3E5F09464EC85
:1032F70094005002813A916F7402F0900AA414F07E
:1033070022EEB40126913BEF70028138917AEF608B
:10331700028138900AA59169FED3E5F09464EE9492
:10332700005002813AE49006A0F0229006A0E064E3
:1033370002703D9152913BEF600A917AEF700591CF
:103347007004F022120807EF64017002813A900AB4
:10335700A89168FEC3E5F094D0EE94075002813A35
:10336700E4900AA8F0A3F091A99006A07403F022B4
:103377009006A0E0FE6403701F913BEF7016126E7B
:103387008F913BEF600851A0916F7404F02251A018
:103397009152813891528138EEB4041A913BEF6013
:1033A70004915281389165FED3E5F094F4EE9401CF
:1033B7005002813A800D9006A0E0FEB4051D913BB6
:1033C700EF70079006A07406F0229165FCD3E5F034
:1033D7009432EC9400405C91528056EEB40614127D
:1033E7006EBCEF60029191913BEF60479006A0742D
:1033F70005F0229006A0E0FEB407219198EF700631
:103407009006A07406F0D3900AABE09400900AAA45
:10341700E09400401E74FFF5F00281D7EEB4080F68
:1034270051A091A9913BEF600A51A091528002915E
:1034370052919122900AF8E0B40408909612E05451
:1034470002FF2290A628E05404FF22D310AF01C345
:10345700C0D0909644E04460F0D0D092AF22900A5A
:10346700A5E475F0010281EDE4900AA5F0A3F090C0
:1034770006A022900AF8E0B40408909612E05401DE
:10348700FF2290A628E05402FF229006A07402F0C3
:1034970022909644E05403FFBF03047F0180027F1C
:1034A7000022D310AF01C3C0D0909644E0549FF0E0
:1034B700D0D092AF2212C8CB90A6227409F0909870
:1034C70083E4F091A951A0126741126E8F1277D051
:1034D700E4FDFFF1E0B1A74440FD7F01F1E0B1A7B2
:1034E70054DFFD7F017EA3128F80E4FF126EA2914D
:1034F700FEE4900AA7F0227F81B1047F02900BE8D7
:10350700EFF0547F124DFA900BE8E030E73AB1A59F
:1035170054DFB19D4440122FDBF1B1C006F12AD030
:10352700E04F122FDB7F13B1A77F00FEC007C00655
:10353700F12AD0E0FED0E0EE4420FDF1C47D407FCB
:1035470010124C497F1180497F16B1A754BFFDF176
:10355700BB7F16B1A74480FDF1BBF1B1C006F12ACC
:10356700D0E04F122FDB7F13B1A77F00FEC007C04B
:1035770006F12AD0E0FED0E0EE54DFFDF1C47D4035
:103587007F14124C49124FBE7F16B1A74410FD7F1E
:10359700167EA3028F80FD7F127EA3128F807F127B
:1035A7007EA3128C84EF22D080D0807B017A0A79A7
:1035B700399006A1123FD8FCFD12B5B27B017A0AF9
:1035C700793E7F64120F5C90057AE06403703BF1EB
:1035D700D2900A43EFF030E6147F16B1A74480FD7E
:1035E700F1BB7F16B1A7549FFD7F16807690057BB0
:1035F700E0600BF1CBEF20E002C1B77F0122900A18
:1036070043E020E002C1B77F012290057AE064041D
:103617007030F12A900A43EFF030E50DB1A54480F0
:10362700B19D54DEFD7F12803A90057BE06009F181
:10363700CBEF30E07B7F0122900A43E020E0717FEF
:10364700012290057AE060046402702CF1B1C00693
:10365700F12AD0E04F900A43F030E212B1A554D9D5
:10366700FD7F127EA3128F8012935E7F0022900A45
:1036770043E020E13B7F012290057AE06401702D51
:103687007F13B1A77F00FEC007C006B1A5FDD0E03C
:10369700FED0E04DFF900A43EEF0A3EFF030E203D7
:1036A7007F0022900A44E030E0067F01227F00225B
:1036B7007F60B1A7645D60037F00227B017A0A798E
:1036C7003912B5E4EF7006129758EF7037F1D290C0
:1036D7000A43EFF054DF4401FDF1BB90057AE06443
:1036E700037014A3E070107F32FE1290017F16B1B1
:1036F700A730E0037F0122B1A554D6122FDB122F8A
:10370700DA7F00221297667B017A0A793E12B5E4C6
:10371700EF7002A1CE7F0112AFF6EF64016002A144
:10372700CEFF227F127EA3028C84900BE7EFF0542A
:103737000F124DFA900BE7E07026F1B1C006F12A9F
:10374700D0E04F122FDB7F13B1A77F00FEC007C069
:1037570006F12AD0E0FED0E0EE4401FD7F1380445D
:10376700900BE7E030E742B1A54408122FDBF1B137
:10377700C006F12AD0E04F4410122FDB7F13B1A708
:103787007F00FEC007C006B1A5FDD0E0FED0E04D2A
:103797004410EEFDF1C4124149B1A554CFB19D4487
:1037A70040FD7F127EA3128F80227F137EA3128C8F
:1037B700847E00227F167EA3028F807D207F137E6A
:1037C700A3028F807F007EA5028C847F167EA302D2
:1037D7008C8451907F0202B9CE7EA3128F807F0125
:1037E70022900AFAE06401229005BFE0B40508A31D
:1037F700E0B4AC037F01227F00221237EF9006ACC2
:10380700EFF022900B76EFF0A37401F01297669019
:103817009C46E054F0900B78F0E0FF900B77E0FEC9
:10382700EF4EA3F0900B76E0B4010BEEB4070790D0
:103837000B78E04408F0900B78E0909C46121568EE
:10384700900B77E004F0E0C3940840C022110A7B94
:10385700017A0979E07FB87E0B22900B7CEFF0307C
:10386700E60231C2900B7CE0FF30E70231BAEF305D
:10387700E606909C41743FF0900B7CE030E70690A1
:103887009C42743FF0900B7CE0FF30E60231B2EFD0
:1038970030E70231AA1212D1900B7CE0FF30E6022A
:1038A70031A2EF30E70231451212D19009DCE06412
:1038B70044601A900B7CE0FF30E607909C48E05488
:1038C700FBF0EF30E707909C48E054BFF012156912
:1038D70051805004AF068000900B7DEFF0A3743F3A
:1038E700F0900B7DE0FFA3E0D39F40375178FF9026
:1038F7000B7EE0FEC39F400C900B7CE030E605900A
:103907009C41EEF051709F400F900B7CE030E70830
:10391700900B7EE0909C42F01212D1900B7EE01447
:10392700F080BE900B7CE0FF30E603313DF0EF30D6
:10393700E70331CEF0229009E7E0909C4122909C6A
:103947004FE04420F022900BCCEFF01217C9900BF8
:10395700CCE0FF30E60231C2EF30E70231BA900B1C
:10396700CCE030E60231B2900BCCE030E70231AA6E
:103977001212D1900BCCE0FF30E60231A2EF30E714
:103987000231451212D1900BCCE0FF30E603313DF6
:10399700F0EF30E70331CEF00210E0909C4FE044A7
:1039A70040F022909C49E04410F022909C49E0446A
:1039B70002F022909C4CE04408F022909C4CE0449A
:1039C70004F022909C41F09009EAE0909C4222AEDC
:1039D700079009E8E0707A1217C9AF0612172F90FF
:1039E7009C00E4F0909C49E04440F01214E85160D8
:1039F7007481F0909C001451597002EEF460091222
:103A070010FDBEFE0DBFFF0A909C437402F0A3F0A9
:103A1700800D909C437401F0A3F0909C4AE4F090D1
:103A27009C04E4F051687411F09009E7740AF0906F
:103A370009EAF031CAF0E49009DDF09009E804F0F2
:103A4700909C01E04403F07F327E001212D51210E1
:103A5700E022F01210FDEFF422909C057442F0A3CF
:103A670022909C03F0909C02229009EAE0FFEEC3AB
:103A7700221297669009E7E0229009EAE0FF900991
:103A8700E7E0FEC39F2251F3FFBF4402805B12149D
:103A9700B7600271A21217217005E05412603F123D
:103AA7001721600B1217BC5004AF06800A8008511B
:103AB700805004AF068000900BCBEFF0900BCBE06B
:103AC700C3943F5017129766900BCBE004F0E05475
:103AD7003F909C41F0A3F01214E880E071B051F6DA
:103AE70064446005E0444471A80210E01217C990CD
:103AF7009C48E054442251F37002619771B051F62B
:103B0700600BE054BBF07F1E7E001212D51214B773
:103B170060031277DE1217217005E05412607112EC
:103B2700172160111217BC5004AF068000719AF07C
:103B37009009DF800E51805004AF068000719AF023
:103B47009009EAE0900B34F0900B35743FF0900B3E
:103B570032E0FF900B35E0C39F4035129766900B1C
:103B670035E014F0900B33E0FF900B35E0FEC39F78
:103B77004007EE543F909C41F0900B34E0FFEEC3BA
:103B87009F4008A3E0543F909C42F01214E880BE87
:103B97000210E0900B32EFF0A3EE22909C01E0447C
:103BA70003F07F507E000212D5909C41743FF0A332
:103BB700F022900BE5EFF09009027401F0F135EF78
:103BC7007002FF2212C7F79008DEE0FF12598D90AE
:103BD7000BE5E0FF7E00E4FD91F5EF7002FF229117
:103BE700429172EF4E7002FF22914212CDA0900BCC
:103BF700E5E0FF641E6009EF641D6004EFB41C0874
:103C0700900AF97410F08006900AF97418F07F0989
:103C17001213709008E0E0FEA3E0FF125B0A51FD6B
:103C2700900A1FE07006121CE312B9467F327E002D
:103C3700128AF8F11D12CEB87F0122900403E0FE2C
:103C4700A3E0FF7D007C0222F10EEF60037F0022DC
:103C570012BD13EF70037F012291429172EF4E70F4
:103C670002FF22914212CDA07F0122900B521262D5
:103C7700EE9008CC1284D39008BC1223F3C006C080
:103C870007900B52E0FEA3E0AA06F97B01A3E0FF31
:103C9700A3E0900A88CFF0A3EFF0D007D006D18534
:103CA7009008CC1284DF900B54F1D8FCFD1282B23D
:103CB7009008CC1285709008BBE070299008CC1250
:103CC70084D3EF24FF1227E8F1001283589008915C
:103CD7001285709008911284D390074B1223F390AA
:103CE700088D128570900B54E0FEA3E0FF22AB070E
:103CF700AA06900B91EDF0A3E4F0A304F0EDD394A2
:103D07000240037F0022900B91E0F9701B9008A3FB
:103D1700D16640037F00229008A5E02BFEE43A908D
:103D27000B92F0A3CEF08039E9640170229008A4C9
:103D3700D16640037F00229008A5E02BFFE43AFEFE
:103D47009008A3127317900B92F0A3EFF0801290D4
:103D570008A5D16640037F0022900B92EAF0A3EBFF
:103D6700F09008BAEBF0A3E9F09008CC12857C003C
:103D7700000000900B93D17DFF900B92D17524101A
:103D8700FFE43EFEE4FCFD7A0879BC7B01900A88DB
:103D9700F0A37410F0D185900B91E06002C16374B9
:103DA700FFFFFEFDFC9008C0122797700D9008C01A
:103DB70012857C000000007F00227E007F2F7D009F
:103DC700F1071287C67E007F047D307B017A087970
:103DD700791287C6787D7C087D017B017A0879C4D2
:103DE7007E007F041280D078817C087D017B017A78
:103DF7000879C97E007F031280D0D16F9008951291
:103E07008570D16FEF24FF1227E8F10012835890D5
:103E170008891285709008A2D17DFF9008A1D175FD
:103E27002420FFE43EFEAB07FAE4F9F89008BC1241
:103E3700264DE4FB7A02F8128358900885128570A4
:103E47009008851284D390088D128570900891127E
:103E5700857C000000009008847401F07F0122E057
:103E6700FFD3EB9FEA9400229008C00284D3E0C4FA
:103E770054F048FEEF22E0C4F8540FC86822900AB5
:103E870081128570900A851285E6900A85F1DF60B8
:103E97004E900A881276D06046900A851285DDC357
:103EA700EA940F40167E00EF5403FF600E74049FE0
:103EB700FFE49E900A888FF01281D7900BB6E0B48A
:103EC700030CD1F2900A4CD1E71244608011900B99
:103ED700B6E0B4010AD1F2900A62D1E71244A922EE
:103EE700CFF0A3EFF0900A810284D3900A85128560
:103EF700DD900A88E0FFA3E022E4FB7A02F9F822CA
:103F07007B017A08796A22D16F9008CC1227977FB4
:103F17000040027F0122900AF9E025E02494F5820F
:103F2700E43408F58312730FFDAC060210079008FE
:103F3700D812857C000000009008DC7401F090081E
:103F4700DFF0E49008FEF0A37403F0A37401F0908F
:103F570008E212857C0002EE009008E0124FD5902F
:103F670008DE7401F0FF22900AD112857C00000060
:103F77000012B8F1124673F10712DB79EF704FF1B7
:103F87000790047F126F3AFD7C0F12A02A900ACF88
:103F97001260D7700280377B017A0F7900900ACFC1
:103FA700E0FFA3E0900A91CFF0A3EFF0900AD112BF
:103FB70084D31246D9900AD11284DF900ACFF1D860
:103FC700FCFD1282B2A31285701258F580A902B8BF
:103FD700CCE0FEA3E0FFE4221285DDE94A4B22EFA5
:103FE700909C50B40105E054FCF022E04402F0E05C
:103FF70054FEF0221217C99009DDE05412702E907A
:104007009C49E030E1021155909C49E030E40211EF
:104017004D1212D1909C49E030E104E054FDF0903C
:104027009C49E030E404E054EFF01212D1909C4C2C
:10403700E030E204E054FBF0909C4CE030E304E015
:1040470054F7F00210E0909C4FE054DFF022909C70
:104057004FE054BFF0221217C9909C00E4F0123AC7
:104067006074A3F0909C007480F09096417420F0E7
:104077007D037F1D12B9467D037F1E12B9887D041B
:104087007F1D12B9887D047F1E12B9460210E09089
:104097007FDFE493543FFF900BA4E4F0A3EFF0908D
:1040A7000BA4315C9424EE94004009D3EF942CEEDA
:1040B70094004009900BA4E4F0A37428F0E4FDFFFA
:1040C70012B0157E007C0C7D1C1285EFC006C00760
:1040D700900BA4E0FEA3E0FBAA06E4F9F8D007D012
:1040E70006128358C3EF94B8EE940B50067E0B7FED
:1040F700B8800DD3EF94F8EE941140047E117FF849
:1041070022121F8C120F5A7B017A097990120F5ACB
:10411700900980E07002A3E06023F1989009821271
:1041270084DFC000C001C002C0031196E4FCFDD0CB
:1041370003D002D001D0003150314980D37F010232
:104147001A317F057E00028AF81282B29009820234
:104157008570900A22E0FEA3E0FFC322AB07315926
:1041670094E8EE940350117C007D0A128170EB2FC6
:10417700FFEC3E900A228006AF03900A22E4F0A3E8
:10418700EFF022900ABBEEF0A3EFF0900ABF128582
:10419700E6E4900ABDF0A3F0900ABB315C900ABE3A
:1041A700E09F900ABDE09E5015900ABFF184FF1270
:1041B70000E1900AC031C6900ABD31C680DA22E418
:1041C70075F0010281D751DF900A311285E65192CD
:1041D700E4C39F900A36F0603D51D9900A36E0FF5C
:1041E700900A7FE4518E5198900A2D1284DF900A2D
:1041F700361223DD1282B251DF900A36E0FF7E00CD
:10420700900A32EE8FF01281D7C3900A35E09FF003
:10421700900A34E09EF0C3900A34E094014044E4ED
:10422700900A37F0A3F0900A34E0FFC3900A38E011
:104237009F900A37E09400502A519251D9900A7FF3
:104247007401F0A3E4F051985192E42F1227E8513A
:10425700DF900A32740175F0001281D7900A373166
:10426700C680C37E00900A34A3E0FF900A34EEF0C4
:10427700A3EFF0601151D9900A34E0FFA3E0900A50
:104287007FCF518E519822F0A3EFF0900A2D028430
:10429700D3900A78128570900A7C1285E6900A7F7F
:1042A7001276D0602CD3EF9400EE940150237F0652
:1042B70051EB71CC7F0251EB900A78D152900A7F73
:1042C700E0FEA3E0FF900A7C1285DD318A71CC7194
:1042D700F322900A310285DD900A2D028570914BF9
:1042E70071F37F06AD07F1900200E1900A50128545
:1042F70070900A541285E6900A57E07002A3E070A6
:104307000261A9900A501284D3EF5401FFE4FEFD25
:10431700FCFBFAF9F8C312840E6016900A50128556
:104327003B900A54124B7A1280F671D4900A57F1D7
:104337009B7F0651EB71CC7FAD51EB900A5091F208
:1043470071AAD143900A58E024FEFE900A57E03440
:10435700FF900A59F0A3CEF0D3900A5AE094019047
:104367000A59E0940040157FAD51EB71AA900A59A4
:1043770074FF75F0FE1281D7D14380DC7F0451EBC7
:1043870071CC71F3900A57E0FEA3E0FF30E013E42D
:10439700FCFD900A501223F3126B6E900A54F184BD
:1043A70071D422900A54E475F0011205321280F696
:1043B700FF1200E1900A54E475F0011205321280F1
:1043C700F6FF1200E190960AE04408F022900B05F0
:1043D700F0900B011285707F0651EB71CC7F025173
:1043E700EB900B0191F2900B05E071C87F0551EB43
:1043F700120025900BE4EFF071CC7F017E00128A4A
:10440700F8900BE4E020E0E422900B06128570E4BC
:10441700FF51E571CC900B0AE0FF51EB71CC80CCDA
:10442700900AFC1285707F4351E571CC900B00E038
:10443700FF51EB900B00E064C76005900AFC91F216
:1044470071CC80A8900BE3EFF07F5051EB71CC7FDC
:104457000151EB900BE3E061C8900A45128570901B
:104467000A491285E6E4900A4EF0A3F07F0B51EB60
:10447700900A45D1527FFF1200E1900A4C315C90BF
:104487000A4FE09F900A4EE09E5015120025900AB1
:10449700491285DD900A4EF1A2900A4E31C680DAA4
:1044A70061CC900A5B128570900A5F1285E6E490F2
:1044B7000A64F0A3F07F0B51EB900A5B91F27FFF48
:1044C7001200E1900A62315C900A65E09F900A64ED
:1044D700E09E5015120025900A5F1285DD900A6450
:1044E700F1A2900A6431C680DA61CC1284D3C15537
:1044F700E4900BBFF0900BBEF09000181284D3E449
:10450700900643F0A304F012C68612CF4F9000180E
:104517001284D39003DC128570129766129D6A90FD
:104527000BD9EFF090002C123FD8FCFD7BFE7AFFF1
:10453700F9F8C31283F85002C1409003DBE070031F
:1045470012D7F2900BD9E0147002A1EC24FC700290
:10455700A1F5240570C31262FAEF604390002C3175
:10456700C690002E31C6900A72E0B40132900A74E8
:10457700E07002A3E07028D14A900A74CFF0A3EF4D
:10458700F090002EE0FFA3E0900A76CFF0A3EFF0C3
:10459700900030E0FFA3E0900A70CFF0A3EFF09017
:1045A7000030E07004A3E064016002A12090086974
:1045B700E064017002A120F18AE92408F9E43AA82D
:1045C70001FCAD037BFF7A0079057E007F0312872C
:1045D700A2EF6002A12090086904F0FB7A08796ACB
:1045E70012983BA120900032E475F001804612D961
:1045F7000C900030E07004A3E06401700AD14A9087
:104607000036CFF0A3EFF012DB9B12DCACEF7003A8
:104617007F012290003031C6E4900032F0A3F09081
:10462700002EF0A3F012D711EF6002A12090003006
:1046370074FFF5F01281D7A1207F01227F017E0050
:1046470002900190002CE0FFA3E0221284D3900B8C
:104657004E128570900B4FE0FF1200E1900B50E077
:10466700FF1200E1900B51E0FF0200E1900BB6E072
:10467700B40307900B00D1908127900BB6E0B401EB
:1046870007900B0AD19091102274C7F07F007E002B
:104697007D007C00227D087F0C12B946D1BEE490D4
:1046A7000BB6F0F11F900BB6E0FF600AEFB40106FE
:1046B7007F1C914B71F32271CCE04401F0E044027E
:1046C700F090960CE04408F0E0440112777A440237
:1046D700F022900A8A128570900A8E1285E6900B56
:1046E700B6E0B40309F111900A57F10641F2900BB5
:1046F700B6E0B40109F111900A34F10631CD22CFA9
:10470700F0A3EFF0900A8A0284D3900A8E1285DD17
:10471700900A91E0FFA3E022F1907F9F1200E1123F
:104727000025900B8EEFF0F174EF12813CF174903D
:104737000001EF12814E71CCE4900BB6F0900B8E16
:10474700E0FFB4EF07900BB67404F022EFB4C8078C
:10475700900BB67401F022EFB4C207900BB6740247
:10476700F022EFB4BF06900BB67403F022120025B7
:10477700900B8FE0FCA3E0AA04F97B00221285DDF1
:104787000280F69003D80285DD90960AE054F7F090
:104797002290098074FFF5F00281D7E0FCA3E0F5D1
:1047A700828C83EF02814E900B9D1285E67FFF7E00
:1047B700B07DB77CE190B106121B8C401A125CEEFB
:1047C70012B5E4EF700512976680F2D193125CEB95
:1047D7007F2C7E01120F5E900B9D1285DD02AFD2FA
:1047E70090B004E030E016900B7FE004F0E0B40AEC
:1047F70006900B817401F0E4900B80F022900B80FF
:10480700E004F0E0B40A03E4A3F0E4900B7FF022A5
:10481700900AEE1285E6900AED7181EFD3949550D8
:1048270008900AEE123FDF70037F0022900AF1E042
:10483700FF900AEDF1A1400774969D900AF1F0E40C
:10484700900BA6F0900AF171945018900AEDE02EA3
:10485700FFA3717A1280F6FD12BA06900BA6E00448
:10486700F080E1E4900BA7F07F0122900B461285C0
:10487700E6900B49EDF012664E51874002E4F05185
:104887007F4002E4F09006DB745AF0900AF8E0FFEC
:1048970060049006DCF0900AF9E09006DDF0718A7A
:1048A7004002E4F0900AF8E0FBB40116900702E03A
:1048B7009006DEF0900A73E09006E3317B9006DF06
:1048C7008018EBB40217900702E09006E8F0900A10
:1048D70073E09006ED317B9006E912857051989050
:1048E70006F2EFF0900B46123FDF6032900B49E083
:1048F700602C7D5AE4FF12BA06900B461285DDC381
:10490700E994DBFF900B461285DD900B49E0900A96
:10491700F1F011179006F2E0FD7F1712BA0622C3D5
:1049270074E8316FD39401400FE49006E8F07B01FF
:104937007A0679E87D011172C374DE316FD3940171
:10494700400FE49006DEF07B017A0679DE7D0111E7
:1049570072C374DD316F900AF9E06F600A7B017AE8
:104967000679DD7D0111722294DBFF12BFF4900BF3
:10497700DBEFF022F090074B0284D35198AB0790FE
:1049870006D8E020E05C9006DBE0645A705490069D
:10499700F2E06B704D9006D8F09006DCE0900AF8D4
:1049A700710340037419F051874002E4F0517F40CE
:1049B70002E4F07112900AF8E0FAB4010951EA51E1
:1049C7008F9006E4800BEAB4020F51DE518F9006F8
:1049D700EE126604E4900702F0718A5002417EE409
:1049E700F0227E007F1A7D007B017A0679D9128733
:1049F700C67A0679DB7B01900AF67418F0E4FF713A
:104A0700235198AB079006DBE0B45A079006F2E013
:104A17006F601E900A6F7401F0E49006D9F0A3F05E
:104A2700A3745AF0A37401F051F6F0A37419F0803F
:104A370044900A6F7401F0F1B2900AF8EF710340E5
:104A4700037419F051874002E4F0517F4002E4F00B
:104A570051F6E0FBB4010C9006DEE0900702F0513E
:104A6700EA800EEBB4020C9006E8E0900702F051E2
:104A7700DE518F71123126229006DAE0C3940522A7
:104A87009006D9E0C3940B221284D390074B02857A
:104A9700707B017A0679DB7D17900B4A1285E690C9
:104AA7000B4DEDF0E4FE900B4DE0FD14F0ED6024AE
:104AB700900B4A717A1280F66EFEE4FFEFC39408FA
:104AC70050E4EE30E007C313648CFE8004EEC3139A
:104AD700FE0F80E8AF06229006EDE0900A73F09093
:104AE70006E9229006E3E0900A73F09006DF22E4DD
:104AF7009006DEF09006E8F0900AF822F09006DDC6
:104B0700E0543F900AF9F0D39420229006D9E09020
:104B17000700F09006DAE09006FFF022900AF31201
:104B270085E6900AF27181EFD394955008900AF3C5
:104B3700123FDF70037F0022900AF6E0FF900AF22F
:104B4700F1A1400774969D900AF6F0E4900BA6F049
:104B5700900AF67194501A900AF2E02EFF12BFF4F1
:104B6700900AF3717AEF12813C900BA6E004F08073
:104B7700DF016AE475F001020532EFF0900BA774CC
:104B870001F022900702E0D36480948122E0FF9035
:104B97000BA6E0FEC39F22121C3C71A9B1EF017264
:104BA70071B21217F4E4900AFAF0229009C59151F4
:104BB700900BAAEEF0A3EFF09009D89151AD07AC96
:104BC70006900BAAE0FEA3E0FF1210077B017A060E
:104BD70079DD7D01017271EC71A7900ADAF0B1EF0E
:104BE70011727F01221234BC910F12C7F712C81835
:104BF7007F0312598D9003E9F1D5FF7EAC125B0A52
:104C070071B21217F402CEB81264777F0112CD8207
:104C1700E4FD7F0691497F0791407F099149F19310
:104C27009177D310AF01C3C0D09004037420F0A3D1
:104C3700E4F0F1B8D0D092AF227EA3128F807D101E
:104C47007F087EA3128F80E4FD22E0FEA3E0FF90A1
:104C57000AF9E075F0029008941285D1E493FC7488
:104C67000193FD1285EFE47BE77A03F9F802835895
:104C77007D04B1FB7DC07F149149F1BE7F171237C8
:104C8700B3C0061237D2D0E04FFD1237BB7F1712E1
:104C970035A77F00FEC007C0061237D2D0E0FED08E
:104CA700E0EE4440FD7F177EA3028F8061A7900747
:104CB700F8E064217019A3E0B40114A3E07010A315
:104CC700E0B4010B900861E0B40102E1C580DD901A
:104CD70007F8E06421702AA3E0640170249007FBC1
:104CE700E06402701C9007FAE0900862B40107B113
:104CF700DF9009C58005B1DF9009D8F0A3EFF06117
:104D0700B29007F8E0B4A110A3E0B4820B9007FBC0
:104D1700E0B402047D0280789007F8E0B4A114A300
:104D2700E0B4830F9007FBE0B402087D027FE77EC3
:104D370003A1DB9007F8E0B4A114A3E0B4840F90BB
:104D470007FBE0B402087D027F017E00A1DB90072C
:104D5700F8E064A17025A3E06481701F9007FBE071
:104D6700B402189007FAE0B401059009C5800390D2
:104D770009D8E0FEA3E0FF7D0280599007F8E0B470
:104D8700A113A3E0B4810E9007FBE0B401077D01F6
:104D9700E4FFFE803F9007F8E0B4A10CA3E0B4FE67
:104DA700077D01E4FFFE802C9007F8E0B4A113A370
:104DB700E0B4810E9007FBE0B40A077D01E4FFFE33
:104DC70080129007F8E0B4800E9007FEE060087D3F
:104DD70001E4FFFE125F5022E0547FFE900861E07D
:104DE7007C002400FFEC3E227B017A0679DC7D0102
:104DF70022F0E4FD7F0E7EA3028F80900B1A1285AE
:104E0700E6900B1DECF0A3EDF07D03B1FB7F0E12D6
:104E170035A7640360047D03B1FB900B1DA3E0FD80
:104E2700900B1A1285DD7F2CF1CD122FDC1237C2C1
:104E3700900BBCE4F0A37432F0E4FD7F03F1DDEFE7
:104E470070047D088002E4FD122FDC0237C2900B4C
:104E5700E6EFD16B7C00D102E4900BE6D16BFCD17D
:104E6700027F0122F07B017A0B79E67D0122E4FDC6
:104E77007F069140F1937F027EA3128C84900B9B57
:104E8700EFF07F041235A7603E7F0E7EA3128C845D
:104E9700900B9AEFF07D04B1FBF185900B9CEFF03E
:104EA700FD7B017A2079007F307EA31205C0900B2D
:104EB7009CE0FD7C007F007E20126AF67DA0123701
:104EC700BB900B9AE0B1FA22900AE11285E6900AAC
:104ED700E4ECF0A3EDF07D02B1FBC3900AE4E094AB
:104EE7000250557F161235A720E004E4FEFF22E4A6
:104EF700FD7F02F1DDEF7003FEFF22F185900AE6E8
:104F0700EFF0FDC2AF900AE11285DD7F287EA31284
:104F17008A06D2AF900AE6E0700B7F161235A754C7
:104F2700FEFD1237BB7F161235A754FEFD1237BBA5
:104F3700900AE6E0FF7E0022900AE112772F900A9E
:104F4700E1127723900AE4127753900AE41277A0CC
:104F5700126219EF7003FEFF227D011237BB7DA09D
:104F6700F19A7D2DF18C1261F6E4FDF18C7D017FC4
:104F7700169149F19A900AE4E0FEA3E0FF227F1818
:104F87007EA3028C847F047EA5028F807F0B7EA385
:104F9700028F807F177EA3028F80E0FD2FFFE4330F
:104FA700FED3EF9496EE64809480229006DCE0FFB7
:104FB7002290951CE0F0227F157EA3028F80E4FDEE
:104FC700FCFFFE0210077EA312897A7D012274ACD2
:104FD700F0A37444F022900A9CEFF0A3EDF07B015C
:104FE7007A0A799E900BBC123FD8FCFD12B5B2909D
:104FF7000BBC7403F0A374E8F0129766900A9CE068
:10500700FF64016005EF6403701F900A9DE0600A6A
:105017001237CBEF30E0457F012212372A900AA3DF
:10502700EFF0540370367F0122900A9CE06402700F
:1050370019A3E0600A1237CBEF30E0207F01227F0F
:10504700161235A730E0157F0122900A9CE07009FF
:105057001235A520E1067F01227F00227B017A0A13
:10506700799E12B5E4EF60917F0022D310AF01C3A0
:10507700C0D0124B8312BA06E4900BA7F0D0D0929F
:10508700AF22D310AF01C3C0D0124B8312BFF4E4D9
:10509700900BA7F0D0D092AF22909904E054FEF085
:1050A70090980DE054FEF0E0440EF02290B004E03A
:1050B70030E3F990980DE054F1F0E04401F0909856
:1050C7001FE030E0F9909904E04401F022A2AFE438
:1050D70033900BCDF0C2AF9005FE1284D39006112A
:1050E7001223F39005FB1285DD1284959005FB12C0
:1050F7002776E412814E900BCDE024FF92AFD0804B
:10510700D080221234BCE49007EDF0900780F09035
:1051170007EFF090079FF02231EAEF7002FF2212AB
:105127000FC11200201209ED7F071232307F0912DA
:1051370013707F023142310A7F0122EFB4011290CE
:1051470009D331B59009D131C231A97A06797D8069
:105157004BEFB40237900A1031B5900A0EE0FFA367
:10516700E0900845CFF0A3EFF0900A121285DD908A
:1051770008491285E6900A0B1285DD900800128512
:10518700E6900A0831A97A07790480109009CC3192
:10519700B59009CA31C231A97A07792490085E020D
:1051A70085E61285DD9007F51285E67BFF22E0FF95
:1051B700A3E0900847CFF0A3EFF022E0FFA3E09031
:1051C7000845CFF0A3EFF09009D51285DD90084987
:1051D7001285E69009CE1285DD9008001285E690CB
:1051E70009C722D310AF01C3C0D09006A0E0FF6467
:1051F70006600EEF64056009EF640760047F0080B6
:1052070053900AF8E0B40416909901C083C082E075
:10521700FFA3E04404D082D083CFF0A3EFF0516026
:10522700E06F600B900AAA516E5160EFF0802390F7
:105237000AAAE07002A3E07019900AAA04F0A37406
:10524700F4F01232A01234A99006A07408F07F007F
:1052570080027F01D0D092AF227F0C7EA3128C8474
:10526700900AA722900AB57401F0A374F4F02212F1
:10527700C032EF6016516B900BB27401F0E4A3F0EB
:1052870012C03E90094A128570801912C01EEF6045
:105297000C516BE4900BB2F0A304F08007E4900B81
:1052A700B2F0A3F0900BB2E0FF7006A3E0700281AA
:1052B70039EF6005E4900942F0900942E0C3940594
:1052C7005003E004F0900942E075F046A4FFAEF009
:1052D700E4FCFD7B017A09795412B5B290094BE0E1
:1052E700FF90094AE02FFFE433FEEFF44E6002819E
:1052F7003190094CE0647F707BA3E0648070759007
:105307000941F0915F941C40028131EF25E024D6DA
:10531700F582E43408F583E493FE740191666E70B8
:1053270003A3E06F704A900AF8E0640C7039D175F6
:10533700EF6034900941E024FE6013146019146093
:105347001F2404702290961CE04440F08019909628
:105357001CE04420F08010909601E04402F08007A2
:10536700909601E04404F0909601E04440F08145B6
:105377009158808F90094CE0F4701FA3E0701B9048
:105387000941F0915F941C40028131EF90090E9121
:1053970066B507028145915880E990094CE0FE64A3
:1053A700BF703EA3E0703A900941F0915F940C50B2
:1053B7000FEF90092A9166B507028145915880EB56
:1053C700900941740CF0915F941C505EEF90092A8C
:1053D7009166B50708900941E024098045915880F6
:1053E700E5EE64FD704490094DE06402703C90095D
:1053F70041F0915F940C500FEF9009469166B50705
:1054070002803B915880EB900941740CF0915F94B6
:10541700215017EF9009469166B5070A900941E0B8
:105427002412F0E0FF22915880E390094174FFF0C5
:10543700FF227B017A09795412B5E4EF70069009CF
:1054470041E0FF2290094A12857C000000007FFF9F
:1054570022900941E004F022900941E0FFC3229322
:10546700FF90094AE022B1C412B5E4EF7002FF22AF
:10547700B1C47F05120F5C5176900BDEEFF09009F7
:105487004EE024FE6054147002A16124036002A15F
:10549700A5900BDEE0F47019D161E054BFB1CBF0F9
:1054A700E054FDF0B1BD12B5E4EF6002F13A7F00C0
:1054B70022900BDEE0900943F0640C6004E0B41521
:1054C70008B1AD7FB87E0B8006B1AD7FF47E0112C7
:1054D7000F5E90094E7402F0A1AAD175EFB1BD70AD
:1054E700087FD07E07FDFC800312469312B5B2D128
:1054F700696038E490094EF0EE64016023EE24FE03
:1055070060131460141460152404701490961CE042
:1055170054BFF0800BD1618007D17B8003B1CCF001
:10552700B1B42467F582E43409806DB1AD12B5E4F6
:10553700EF6070900943E0B1ADB424067FE87E03C5
:1055470080047F2C7E01120F5E90094E7403F0B128
:10555700B42468F582E43409803ED1696013E4908D
:10556700094EF0EE25E025E0246AF582E43409804F
:1055770027B1AD12B5E4EF602A900943E0B1ADB4AD
:1055870024067FE87E0380047F2C7E01120F5EB124
:10559700B42469F582E43409F583E493FF22E490A7
:1055A700094EF07F00227B017A0979442290094352
:1055B700E025E025E0227B017A097959227B017AEF
:1055C70009794F22F0909601E054FB22E490094EAE
:1055D700F0B1C4F12CB1BD120F5AE4FF123155E4FA
:1055E700FF12C06B12C00E90961DE054DFF0A3E0CF
:1055F7004420F0909620E04420F0A3E04420F0906F
:10560700961CE054EF121F6290961DE054BF121FC4
:1056170071909620121F6E90961C121F5F90960233
:10562700E054FBF0A3E04404F0909605E04404F056
:10563700A3E04404B1CB121F62909602E054FDF040
:10564700A3E04402F0909605E04402F0A3E0440290
:10565700F0D17B7F027E00028AF890961CE054DF2F
:10566700F022900BDEE0FF900943E0FE6F22900AE4
:1056770024E0FF22909601E054FDF022900A17E003
:10568700900BD6F031EA900A17EFF0900BD6E07046
:105697000A900A17E060047F0180027F0022E4FF7E
:1056A700123230E4FF1213707D087F2012B9467D55
:1056B700087F2112B9887D087F1D12B9887D087F70
:1056C7001E12B9467D087F1C12B9887F0122E4901B
:1056D7000BA9F0900BA9E0FEC39404501174AE2EF1
:1056E700F124E06F6008900BA9E004F080E5E490F6
:1056F7000BA8F0129766900BA9F11C4002E4F090FA
:105707000BA9E024AEF124F1337009900BA8F11C2A
:1057170040E1D1A522E004F0E0C3940422F582E43D
:105727003409F58322FFFEFDFC02B5B2E0FF121F2C
:1057370093EF22909601E054BFF022B1D3122B5C75
:10574700122B3BFFFEFDFC02B5B2900BD1EFF0121E
:105757001F93EF7007900BD1E0FFD1D5227B017A21
:105767000679F4120F5A1277B7120F5A90963DE046
:1057770054FCF012B65B125884120F5A7B017A0957
:1057870079B27F2C7E01120F5E7B017A0979B21202
:10579700B5E4EF700812588B1258FC80EC12595977
:1057A700F1D6900A18E0B40108900AF87403F08063
:1057B70012900A1EE0900AF8B401057402F0800303
:1057C700740CF0900AF8F13370047F0CF15122E465
:1057D700FD7F1C020A091258ADEF7002FF22120961
:1057E700ED7F03123230E4FD7F0C120A09125802D2
:1057F7007FC0121370124B9E7F01227D017F2612FC
:10580700B9887D017F2712B9887D017F2912B98860
:105817007D017F2A12B9467D027F2612B9887D0253
:105827007F2712B9887D027F2912B9887D027F2AD6
:1058370002B9461209ED7F0C123230E4FD7F0B12DC
:105847000A09121D047F0122118412B5E4EF7006C4
:10585700900428E0702111847F2C7E01120F5E9046
:1058670004287401F012B0CB900A15EFF012B83C7F
:105877007F147E00128AF8900A15E0FF227B017AD6
:105887000A791922900A1EE0900BD4F0114F900A62
:105897001EEFF0900BD4E0700A900A1EE060047FC0
:1058A7000180027F002290960BE04410F090960E44
:1058B700E054EFF0A3E054EFF090960CE054EFF0D3
:1058C70011F5909609E030E40BE4900A18F0900A7D
:1058D70016F08014900A16E0C394145005E004F003
:1058E7008006900A187401F0900A18E0FF227F0AD8
:1058F7007E00029001900A18E0900BD5F011AD9050
:105907000A18EFF0900BD5E0700A900A18E06004CF
:105917007F0180027F0022909629E054FBF0A3E0EC
:1059270054FBF0909627E054FBF0909626E0440451
:10593700F07F027E00129001909624E030E207E4A7
:10594700900A1FF08006900A1F7401F0900A1FE06A
:10595700FF22900A1FE0900BD7F0311E900A1FEF2D
:10596700F0900BD7E0700A900A1FE060047F018077
:10597700027F0022124C0F31857F0202B9BC90963C
:105987006AE0440DF02290040CEFF0E490040AF072
:10599700909901C083C082E0FFA3E04402D082D087
:1059A70083CFF0A3EFF012C818909509E054E0F008
:1059B700909500E04408F090040CE024FE60251464
:1059C70060292402704890966AE054F2F090951B83
:1059D7007401F0A374C0F09095187403F090040359
:1059E700740F802390951DE04402F0318590950057
:1059F700E04404F090951BE4F0A37480F0A3E04426
:105A070001F09004037420F0A3E4F07F01227F00EB
:105A17002212C7F79003E7E0FF318D9003E9E0FE1C
:105A2700A3E0FF710A51AEE490075FF012CEB812FF
:105A370000F912B7CA918A4E700E900BAEE0640956
:105A470060037408F07F002251A6FF12CD9251A681
:105A5700FF900404E02FFF900403E03EFE9004054E
:105A6700E0FCA3E0FDC390040FE09DFD90040EE071
:105A77009CFC12CDA071E671F1120F5E71DD121B55
:105A87008C4005E47FC88002E4FFFEFDFC7B017AC1
:105A970007796912B5B29006FD7402F07F01229072
:105AA7000405E0FEA3E022900700E075F00AA424B5
:105AB70026F9740835F0FA7BFF900B5E1285E690A5
:105AC700040CE06401703BFF900B5EB14224099027
:105AD7000B61F0D394804004E4F0800C900B61E0FC
