:10000000020360801B4D5646002232024951000116
:1000100002032202498C145657222280ED7F0122CE
:1000200032322280FCE4C3FA90960AE04401F05494
:10003000FEF0909609E0A2E2E492E02A23FA90967C
:100040000AE04401F054FEF0909609E0A2E2E49246
:10005000E02A23FA90960AE04401F054FEF09096CC
:1000600009E0A2E2E492E02A23FA90960AE0440131
:10007000F054FEF0909609E0A2E2E492E02A23FA1E
:1000800090960AE04401F054FEF0909609E0A2E256
:10009000E492E02A23FA90960AE04401F054FEF03C
:1000A000909609E0A2E2E492E02A23FA90960AE010
:1000B0004401F054FEF0909609E0A2E2E492E02AB6
:1000C00023FA90960AE04401F054FEF0909609E07D
:1000D000A2E2E492E02AFA90960AE04401F0EAFFF4
:1000E000227808EF33FF90960AE092E154FEF090F8
:1000F000960AE04401F0D8EB229003F30284D32265
:100100000000220000220000220000220000220045
:100110000022000022000022000022000022000035
:100120002200002200002200002200002200002203
:100130000000220000220000220000220000220015
:100140000022000022025D7E00002200002200004A
:1001500022025A7E02329902361400002200002246
:100160000000220000220000220264480000220059
:10017000002200002200002200002200002202656E
:10018000F30000220267E60000220000220268DB82
:100190000000220000220260B100002200002200C4
:1001A00000220000220000220000220000220000A5
:1001B0002200002200002200002200002200002273
:1001C0000000220000220000220000220000220085
:1001D0000022000022025EBB02609E02587002589C
:1001E000A5026018000022000022025FD9025EC44E
:1001F0000000220000220000220000220000220055
:100200000022000022000022000022000022000044
:100210002200002200002200002200002200002212
:10022000000022000022024DD0025D750000220075
:100230000022000022000022000022000022000014
:1002400022026A5D0000220000220000220000223B
:100250000000220000224109AD004109A700420927
:10026000A800004209AA00004109AC004108C300EF
:100270004108C2004108CE004108C0004108DA0030
:100280004208E000004308D10C04034109D10041B9
:1002900009D2004109D0004109CF004109CE0041F7
:1002A0000A9201410A9302410A95004107980041D0
:1002B000079700410799004107A500440731FFFF58
:1002C000FFFF41072B00410954004209550000423D
:1002D00009570000420951000041095300410950EB
:1002E0000041092C00420925000041092D00410967
:1002F0002E00410924004108FFFF4109B401410AD1
:10030000C3014508420000000000410858004108B0
:10031000AF004108B000410ACA00410A9D024107EE
:10032000A60041083F00410840004108A0004108E4
:10033000A100410AA100410AA001410AA301410A0A
:10034000A201410A8801410A8600410A8700410A48
:10035000A70041099A0042099D01F4410997000054
:10036000125F3B787FE4F6D8FD12492BEFFD900633
:10037000D96003A3DFFD7F277E11C3EF9DFF5001EE
:100380001EE4F0A3DFFCDEFA75810B125ED20203DD
:10039000CC0222CFE493A3F8E493A34003F68001B8
:1003A000F208DFF48029E493A3F85407240CC8C3AF
:1003B00033C4540F4420C8834004F456800146F6E9
:1003C000DFE4800B0102040810204080900256E414
:1003D0007E019360BCA3FF543F30E509541FFEE447
:1003E00093A360010ECF54C025E060A840B8E49309
:1003F000A3FAE493A3F8E493A3C8C582C8CAC5834B
:10040000CAF0A3C8C582C8CAC583CADFE9DEE780CF
:10041000BEBB0111F8E58229F582E5833AF583E058
:10042000C828F0E8225009C58229F8C58226C622CC
:10043000BBFE0DC58229F8E2C5822582F2E5822243
:10044000EA2583F583E99322BB010FF8E58229F5BC
:1004500082E5833AF583E028F0225009C58229F825
:10046000E58226F622BBFE09C58229F8E22582F242
:1004700022F8EA2583F583E9932822F8E0FBA3A379
:10048000E0F925F0F0E582158270021583E0FA3874
:10049000F022D083D082F8E4937012740193700D2F
:1004A000A3A393F8740193F5828883E47374029391
:1004B0006860EFA3A3A380DF8F828E83ED7004ECCE
:1004C000600B1CE06455F0A3DDF90204BF22464135
:1004D0005431360000000000000000000000000061
:1004E0000002FAFCFDFEFCFAFA0202FF02FFFDFA2E
:1004F000FAFAFDFF0202FFFF0002020202FDFAFA11
:10050000FF0200FF00020201FFFEFAFEFEFEFCFAFF
:10051000FE02FE02FFFFFDFAFAFAFA0202020101F0
:10052000FFFEFEFEFDFDFDFAFAFF010202020202DD
:10053000FFFD020202020202FD0202FFFAFF0202B6
:1005400002020202020000001A001F0024002A001A
:1005500031003A0043004E005B006B007D009300C9
:10056000AD00CC00F0011A014C018701CC021D0244
:100570007C02EC0370040B04C20599069607C009BF
:100580001E0ABA0C9E0ED83F3E3A3633302D2A272B
:100590002523211F1D1B1917151311100F0E0D0CEC
:1005A0000B0A0907060402013F3D3B393735333159
:1005B0002F2D2B29272523211F1E1D1C1B1A19181F
:1005C00017161514131211100F3F3E3A3633302D03
:1005D0002A272523211F1D1B19171514131211106B
:1005E0000F0E0D0C0B0A0908070606000000121278
:1005F0001200131313000700000001140000030988
:100600000E13192E2C2A2927262423211F1E1C1BDA
:100610009006D7EFF0E01313543FFF12B875123273
:10062000659006D7E01313543F25E025E0FF12370D
:10063000E99009D37401F022D17CEF7002FF227F90
:10064000041237F5D1617F01123F827F12120896A2
:1006500074FFFFFE12B8577F08D110123A1E7F01B7
:10066000229008B0E024F77002D16C227BDF7D304D
:10067000E4FF12387D7FC87E00028AF89008B0E05F
:100680007003123B389008B0E07F0060027F0122C7
:10069000EF24FC600D24F860072409700702083B72
:1006A000E1D580947F00229009D4E0900AB6F0D181
:1006B00090EF700E900AB6E0FFD190EF70047F01CA
:1006C000D1C322E4900A91F0900A91E0FEC3940312
:1006D000501074D12EF1136F6008900A91E004F06D
:1006E00080E6E4900A90F0129766900A91F10B4030
:1006F00002E4F0900A91E024D1F113FFD190EF7061
:1007000009900A90F10B40DFF19D22E004F0E0C374
:10071000940322F582E43408F583E0229009D4E0C2
:10072000900AB7F0E4FF124BAA9008D9EFF0645793
:100730006004E0B44202F186123ACEEF60047F0317
:10074000D1A79009D4E024FD700A123AF0EF7004AA
:100750007F01F1749008D9E0B41418900006E0B459
:10076000030A9009D4E0B40D03121FD89009D4E015
:10077000FFD1C322900AB5EFF0D190EF7007900A35
:10078000B5E0FFD1C322F1B0F196D310AF01C3C0E1
:10079000D012BAA280FE7D01E4FF020EA6E4FF1291
:1007A00037F5E4FF1208961239FD12B9887F01224D
:1007B000900858E0B40102F1C2125507E0900859C0
:1007C000F022E4FD126B8E121871122401F07F14D6
:1007D0007E00029001F1EC1208267F0C1237F5E43E
:1007E000FD7F011226A11220D67F012274FFFFFE99
:0B07F00002B83F909C49E054242222F4
:0607FD00FFFFFF140108DC
:100807007F002205320007D001F4006401F400C81C
:10081700320AC350271007D014503C140A1E141272
:1008270032787F0112B8757F011237E9E49009D356
:10083700F0029766123AF0EF7002FF221207EC11EE
:10084700267F031237F5E4FD7F021226A17D017F83
:100857002612B9887D017F2712B9887D017F291269
:10086700B9887D017F2A12B9467D027F2612B98891
:100877007D027F2712B9887D027F2912B9887D0200
:100887007F2A12B9467FC011961227B07F012290A6
:100897000AAFEFF0122A3A54449008C2F0900AAF18
:1008A700E0F0FF9008C3E0B50706D1F370024108F6
:1008B700900AAFE0701F909C49E054096002919C38
:1008C7001207F36002B141909C49E0541270022173
:1008D700F7510921F7900AAFE0FF5409603F12076B
:1008E700F36007EF54247002B141909C49E0541221
:1008F700601FF1DB701BEF54C070169008C3E05403
:100907001260045109800A9008C3E054C06002D104
:1009170010909C49E054096409600291E8F1DB609A
:1009270036909C49E054096007EF54097002919C86
:100937001207F3600A900AAFE054247002B14190A5
:100947009C49E05412600BE05412FFD1F36F600230
:100957005109D1F3FF51C1900AAFE0FF542460243D
:10096700909C49E054096007EF54097002919C90EC
:100977009C49E05412600BF1DB7007EF54C0700222
:100987005109B18A900AAFE0FF54C06063909C4957
:10099700E054096007EF54097002919C1207F36055
:1009A7000A900AAFE054247002B141909C49E05488
:1009B700126006D1F370025109909C49E05412FF6E
:1009C700B412047FC0800EEFB402047F408006EFAC
:1009D700B410027F80EFD39400400B900AAFE0542D
:1009E700C06F6002D110900AAFE054C0FF123035DB
:1009F700900AAFE0FF9008C3E06F6002EFF01228A3
:100A0700A5227F0112104AF1EA5004AF0680009038
:100A17000AADEFF0909C41E09008CDF0909C42E049
:100A27009008D0F0900AADE0C39440501412976636
:100A3700900AAD126C18F091B6900AADE004F08000
:100A4700E3B134909C4FE0549F519C5189909C4F47
:100A5700E054E7519C909C4CE054FCF07F147E00DE
:100A670051A1123856917DEFF47002EEF4601291A5
:100A77007DEFF47003EE64FE6007909C48E044014C
:100A8700F022909C49E054EDF07F027E0051A19046
:100A97009C4FE054F9F07F027E00900A8CEEF0A3A1
:100AA700EFF0900A8C74FFF5F01281ED45F06009C4
:100AB70012976691B691B680E922900A5CEFF090A2
:100AC7009C4E9194909C4DE0543F900A5EF0917D2E
:100AD700EFF47002EEF46012917DEFF47003EE64B0
:100AE700FE6007909C48E054FEF0909C4CE0440365
:100AF700F0909C41E4F0A3F0909C4FE04418519C87
:100B0700909C4FE04401519C909C4FE04406519CBF
:100B1700909C49E04412519C7B017A0879C67F106A
:100B27007E2712153F9008C0E0600261F5909C4B4C
:100B3700E020E059909C4BE030E00261EF122B4B34
:100B4700600261EF917DEFF47002EEF4600B917D2E
:100B5700EFF47003EE64FE7022900A5DE014918654
:100B6700909C4EE07023ED643F607D900A5D744079
:100B7700F0A3E025E0F04401F0800E900A5DE01458
:100B8700909C4EF09194E0605FF1D580A7909C4BCC
:100B9700E030E054909C4BE030E04D122B4B704816
:100BA700917DEFF47002EEF4600B917DEFF470032A
:100BB700EE64FE701F900A5DE0049186909C4EE003
:100BC700643F7020ED6021900A5D74FFF0A3E0C3DD
:100BD70013F08010900A5DE004909C4EF09194E031
:100BE700643F6004F1D580AC9008C07401F051896E
:100BF700909C4FE054FE519C122B35909C4FE04443
:100C070006519C909C49E04412519C909C4FE044B3
:100C170060519C1200099008C2E07003123FD7B1DF
:100C27003B122B3E5004AF068000900A5EEFF09017
:100C37000A5D743FF0900A5EE0FF900A5DE0D39F83
:100C470040281231A5900A5DE0FEC39F4005909CA5
:100C570041EEF012319C4008900A5DE0909C42F012
:100C670091B6900A5DE014F080CB1231939008D0D2
:100C7700E0909C42F02290966BE0FEA3E0FF22906A
:100C87009C4EF0900A5EE0FD909C4DF0A3E0543F2F
:100C9700900A5DF022909C01E04403122990B13440
:100CA700909C48E04422F1CD54F6F1C54411F0126E
:100CB700B8A0EFFD7C007E017F90128182EF2401B6
:100CC700FFE43EFE909904E020E00BEF7802CEC3EC
:100CD70013CE13D8F9FFEF1FAC0670011E4C70F648
:100CE70022909C437403F0A3F1CD4409F1C554EE5F
:100CF700F1C554DDF091B6917DEFF47002EEF4602A
:100D070008917DBEFE0ABFFF07909C4374028005D1
:100D1700909C437401F0A3F0F1E37008909C48E0C5
:100D270054BBB13A122FDB7F507E0041A1909C4803
:100D3700E04444F07F0A7E0041A1F1EA5004AF0687
:100D47008000900AACEFF0909C41E09008C4F090CE
:100D57009C42E09008C5F0900AACE0C39440501460
:100D6700129766900AAC126C18122914900AACE01C
:100D770004F080E3B134909C49E054DBF07F037EBC
:100D87000041A1122B35F1CE4424F091B6909C4737
:100D9700E04403F07FF47E0151A1909C47E054FCAE
:100DA700F0F1E37003123FD7B13BF1EA5004AF060D
:100DB7008000900A8EEFF0A3743FF0900A8EE0FF58
:100DC700A3E0D39F40321297669008C4E0FF900AD1
:100DD7008FE0FEC39F4005909C41EEF09008C5E070
:100DE700FFEEC39F4008900A8FE0909C42F091B6B7
:100DF700900A8FE014F080C39008C4E0909C41F003
:100E07009008C5E0909C42F022122B3E5004AF069A
:100E17008000900AAEEFF0900AAEE0D3943F502BDB
:100E2700129766909C49E030E108900AAEE0909CEA
:100E370041F0909C49E030E408900AAEE0909C4273
:100E4700F0519D900AAEE004F080CC909C49E030D0
:100E5700E107909C48E04404F0909C49E030E407A7
:100E6700909C48E04440F0B13B909C49E030E1035E
:100E770012321D909C49E030E403123215519D90C7
:100E87009C49E030E104E054FDF0909C49E030E4F7
:100E970004E054EFF07F027E0041A17D017F0190C5
:100EA7000AAAEFF0ED6401700612225012B9889079
:100EB7000AAAE0B4011B12291C9009D4E0B4030468
:100EC700E4FF11969009D4E0B40C0EE4FF1196806C
:100ED70008E4FDFCFFFE122A4A9009D4E0B4040599
:100EE7007F0112104A9009AD7401F022900AAFE019
:100EF700541222900AABEFF0126BA9B13A909C45BD
:100F0700E054FAB13A909C46E0547FB13A909C463F
:100F1700E054DFB13A909C46E054EFF0900AABE022
:100F2700FF122B5912153F909C4BE020E306122B22
:100F37004B60F42222AE079008CEE06002E1C412B3
:100F47002803AF06D1FA909C00E4F0909C49E04456
:100F570040F091B612325D7481F0909C0014F091CC
:100F67007DEFF47002EEF46008917DBEFE0DBFFFC9
:100F77000A909C437402F0A3F0800D909C43740187
:100F8700F0A3F0909C4AE4F0909C04E4F0122FE365
:100F97007411F09008CD740AF09008D0F0909C413D
:100FA700F09174E49008C3F09008CE04F0909C018F
:100FB700E04403F07F327E0051A11228A522F09170
:100FC700B6909C48E022F091B6909C49E0227F05BC
:100FD7007E0041A1900AAFE0FF54122291B690081B
:100FE700C2E0229008C5E0FF9008C4E0FEC39F223C
:100FF700F0E4FF12104A9009D5E060429009ADE095
:10100700640170279009D4E0B40407E4FF114A1281
:101017003F719009D4E0B403087FC0120896123FCD
:10102700C69009D4E0B40C03125A3A122998122038
:101037002B400612225012B946E49009ADF02291D6
:101047009BE4FF9008B0E024F77005123C9D8003F5
:101057007F00227F01229008B7E01470024121240B
:10106700FD606C240260024160516112B5E4EF70CB
:10107700024160120EA27F01114AE49008AEF0907F
:1010870008B8E0FF64016004EFB40214F1E8FF90D0
:1010970009947401F0E4A3F07B017D387C0480128D
:1010A700F1E8FF9009947401F0E4A3F07B017D6BF4
:1010B7007C031238E49008B77404F05161B13B9097
:1010C70006F3E0FFA3E09008BECFF0A3EFF02251B4
:1010D7006112B5E4EF700241607F01125586900AF4
:1010E700C9EFF070022195120012900AC9E0B4030B
:1010F7000851617F647E00415E9008B8E06401603A
:101107000221899006F7E0FFC39432504C9006F312
:10111700E0FCA3E0FDC3946BEC94035013ED2408AB
:10112700FE74F82F917EEEF09006F6E004F0800B47
:10113700124DABFF9006F7917BEFF09006F7E004B6
:10114700120FF79008AE7401F0FB7A0879B97FD0D7
:101157007E07B13F12384C8035126B65E0400B912A
:101167007CE024F8FEE434028009917CE0246BFEE5
:10117700E434039006F3F0A3CEF0120FF8123A40CE
:1011870080089008B77401120FF7918D806E900850
:10119700B8E0FFB4030B124D0A9006F3E094034046
:1011A7001CEF640260089008B8E064017051C390B6
:1011B70006F4E094389006F3E094044042123A4073
:1011C700126C2140329008B8E06401702A120012B4
:1011D700126B65E0400B917CE024F8FEE43402805A
:1011E70009917CE0246BFEE434039006F3F0A3CE70
:1011F700F0919B918D8002919B120FF802384C90D1
:1012070008B77402F0A3E09006F3B4030674FFF581
:10121700F08004E475F0010281D7516112B5E4EF63
:1012270060379008AEE0FFB40203E4F022EFB401A8
:1012370006E49008AEF022EFB4031E12568590081C
:10124700AFE0D394004005E014F08005E49008AEC9
:10125700F051617F2C7E01B13F227B017A0879B979
:10126700227F01124BAA900AC8EFF012049212B51E
:1012770001134D0212B503134D06137007145C12C8
:1012870014661312A91414711513AA2112FD23133E
:10129700702F12B53014403C12A94212B54300001A
:1012A700147A91C5900AC8E0FDE4FF0249DA9186F5
:1012B70070427404F0A37401F0123F16E4A3F0A384
:1012C700F0A3F0FE7F32FD7B017A0679F81287C61C
:1012D700120EA2919BF1E8FF9009947401F0A3F01C
:1012E700FB7D387C041238E47F01114A51617F6429
:1012F7007E00815581C591866002817A9006F7E06C
:10130700C394324002817AC3124D0B9006F3E094E6
:1013170003500A126B225005124DB38013124D0A67
:101327009006F3E094034010126B22400B124DAB72
:10133700FE74F82F917EEEF0126BC47406F05161C3
:101347007F2C7E018155126BF45002817A91866061
:1013570002817AEF14FF9006F5E09F5005E004F054
:101367008028E49006F5F08021126BF45002817A10
:1013770091866002817A9006F5E0D394004005E0FB
:1013870014F08006EF149006F5F09008AE7402F0A2
:10139700B10B120FFD51617FD07E07B13FE4900979
:1013A700D6F02291866002817A124BA1D39400EE87
:1013B700940040459006F7E0FDD3EF9DEE94005072
:1013C70038900925E0FCA3E0FD149006F5F0A3E0B2
:1013D700FFED9FEC94009006F5E0500B917CE02424
:1013E700F8FEE434028009917CE0246BFEE43403C8
:1013F7009006F3F0A3CEF08017124BA1C3946BEEC7
:1014070094034010D3EF9438EE9404500712564FCC
:10141700918D8017F1F0F090092D04F090092EF0CE
:10142700FB7A0879537FE87E0380231146F1F0F0B9
:1014370012186AFFFEFDFC801991867036124C7BEC
:10144700F1F0F0126BC404F051617F2C7E017D0036
:101457007C0002B5B21239FD12B9887F01800812EB
:1014670039FD12B988E4FF0226219008B7E0B401DC
:1014770002F1F722E024F8F582E43406F58322909E
:1014870008B7E06401227B017A0679F27D381221E0
:10149700797F0122F1E8FF9008BEEEF0A3EFF0900C
:1014A70008B0E024F77004D1CF80037F00229009B1
:1014B700D6E0B40106126BFD12384C7F012290086A
:1014C700B7E0D39401403CA3E06038E49008AEF065
:1014D700126C214025126B65E0400B917CE024F8EB
:1014E700FEE434028009917CE0246BFEE43403902F
:1014F70006F3F0A3CEF0919B918D120FF8123A40AC
:1015070012384C22126B22500E74F82F917EE02471
:10151700F8FEE43402800C9006F5917BE0246BFE24
:10152700E434039006F3F0A3CEF01146818D7B01DE
:101537007A0979AF7F647E007D007C0002B5B251E5
:1015470068115D9186703D7B017A0879B112B5E427
:10155700EF6031E4FFF1A7EF20E50F12565890082E
:10156700BEE06E7003A3E06F60109008B6E004F071
:10157700E0D39402400911468005E49008B6F012C2
:101587003EEFB13D227B017A09790212B5E4EF7093
:1015970002FF227B017A0979027F0AB13D12501DB1
:1015A700900900EFF0A3E014603F14606714700225
:1015B700C18B24036002C1C7900900E0FEF47014D8
:1015C70090961CE054DFF0E054BF126C0FE054FD1E
:1015D700F07F00229008FFEEF07B017A0979077F00
:1015E70014B13D9009017401F0126BA0E06F600225
:1015F700C1C77B017A09790712B5E4EF7002C1CC44
:101607007B017A0979077F587E02B13F90090174FF
:1016170002F0C1CC126BA0E0FE6F6045E4900901B7
:10162700F09009D4E0640C702CEE1460121460186A
:1016370014601A14601C2404701B90960180039098
:10164700961CE054FBF0800D125005800812500DD7
:101657008003125015126B9724EAF582E434058053
:10166700597B017A09790712B5E4EF6058126C06C5
:10167700B13D9009017403F0126B9724EBF582E4F6
:1016870034058036126BA0E0FE6F6013E490090109
:10169700F0EE25E025E024EDF582E43405801B7BA0
:1016A700017A09790712B5E4EF601A126C06B13DA9
:1016B700126B9724ECF582E43405F583E493FF225B
:1016C700E4900901F07F0022900A9AEEF0A3EFF070
:1016D7007D7A7F49123EDE123ED77D527F2C7E00F7
:1016E700F1737D507F457E00F1737DCA7F417E0097
:1016F700F173126BEB64A67003EE64036024EF646E
:10170700AB7003EE6403601AEF64B97003EE640311
:101717006010EF64E67003EE64036006BE040CBF5E
:1017270018097F01F1A7EF444080077F01F1A7EF78
:1017370054BFFD7F017E00F1737F01123C9D126B48
:10174700EB1239927D13F15A122FC47D707F497EB7
:10175700008019E4FFFEF1737D807F4F7E00F173F7
:101767007F4FF1A7EFC313FD7F4F7E00900A39EE3D
:10177700F0A3EFF0A3EDF0A37408F0900A3CE01497
:10178700F0601A900A39E0FCA3E0FD7B017A0A7940
:101797003B90095F126C31125314EF60DE7F012218
:1017A700900A74EFF0E4A3F0A37408F0900A76E0CF
:1017B70014F06019900A74E0FD7C007B017A0A79C5
:1017C70075900968126C31125383EF60DF900A75C8
:1017D700E0FF221239927D11F15A7D12E4FFFE805B
:1017E7008B9006F3E0FEA3E022E4900925F0A32204
:1017F7009009D6E06007E4F0120FFD800B9009D640
:101807007401F0FDFF120EA6900858E0B401021112
:1018170019229009D4E024FC602004703B51207009
:101827001190085A126B5B7D01E411677FE87E0314
:10183700802311607F007E00801B5120701190086B
:101847005AF0126B85E4FD11677FE87E038006116D
:10185700607F007E0012153F22E490085AF07D0158
:10186700FF11717B017A08795322900A97EDF09066
:101877000A96EFF07010A3E07D017F01600512B9B1
:1018870088800312B946900A96E0B4010EA3E07D62
:10189700207F0A600302B98812B946229009D4E072
:1018A7006404705E9008B7E0700611617F00804D98
:1018B700121486702590085AF051207012FDFF11FE
:1018C7007190085A126B85116A7FE87E0380307D1C
:1018D70001E411677F007E0080259008AEE0B40127
:1018E7000AE490085AF07D01FF0171E4FD123EF809
:1018F700F0E04402F0E04420F0116A7F327E0012EB
:10190700153F2290085AE0700221D5116A12B5E4FA
:10191700EF700221E490085AE0C31330E02A116AFD
:101927007F3212153D90085AE0C41354077F0020F8
:10193700E0027F01EF5401C43354E0FF90085AE0FE
:1019470054DF4FF0E0C4805E90085AE030E02A117F
:101957006A7FE87E0312153F90085AE0C4540F7F50
:101967000020E0027F01EF5401C454F0FF90085AB1
:10197700E054EF4FF0E0C4802E116A7FF47E01122D
:10198700153F90085AE0C4131354037F0020E00268
:101997007F01EF5401C4333354C0FF90085AE05419
:1019A700BF4FF0E0C413135401900AC7F09009D455
:1019B700E024FC6007047025E4FD8006900AC7E078
:1019C700FDE4FF1171900AC7E0FD7F0101719009E5
:1019D700D4E024FC6005047004800311A32290095D
:1019E700D4E06403703251207018126B50E054FE3B
:1019F700F0E054EFF0E4FD126B8E11687FF47E0186
:101A07008013E4126B50126B857D01E4126B8E110B
:101A1700687F007E0012153F229009D6E0640122FC
:101A2700E4900A68F0A3F07F01124BAA900736EF03
:101A3700F0900735E0640670028137A3E012049244
:101A47001B52061B64071AF80C1A8A121AB7131BC3
:101A57004D151BA0211B76261B76271B8A281B8A60
:101A6700291B762A1B8A2B1B522C1B642D1B322FFA
:101A77001AE5301BA03C1C09631A8A651AB7660071
:101A8700001C371227975006900A69122791900772
:101A970036E06465600281379009D5E06420600212
:101AA7008137900A69E0600281377D017F058029CF
:101AB70012202B4006900A6812261C900736E06415
:101AC70066600281379009D5E060028137900A6825
:101AD700E0600281377D017F061226A181379007DA
:101AE70037E0B40304E4F0803B9007377403F080D9
:101AF70033900737E0700404F08005E4900737F06F
:101B0700900737E0B4040B90073A7401F090076A26
:101B17008008E490073AF0900768124910F0A3EFA5
:101B2700F0124EAE7F011255698137900738E004F5
:101B3700F0E0C3940B4002E4F01246D8124EAE7F99
:101B47000112556F81371217F78137F1DF50028184
:101B570037B113E4FFD193600281378022F1DF5060
:101B6700028137B1137F01D193600281378024F15D
:101B7700E250028137B1137F02D193600281377D32
:101B8700068012F1E250028137B1137F03D19360CF
:101B97000281377D07F1D38137124BA1C390002D06
:101BA700E09F90002CE09E4030125DB7402B9007DD
:101BB7003AE07025900766E06E7003A3E06F601946
:101BC700B113900925124910F0A3EFF01217F0F0A6
:101BD700B135EF70047D06F1D3124DBB124DC49E93
:101BE7004011D3ED9400EC94004008116A7FE87E21
:101BF700038006116A7F007E0012153F1217F0F06E
:101C0700802E9007A6E0B40127E4900A6AF09007B7
:101C170035E0B402091247EF900A6A7401F0123CEA
:101C2700BB9007A67402F0900A6AE0B40102B1ED16
:101C3700900735E064026016900799E0701004F091
:101C4700FB7A07799A1225CD9007A57401F09007C2
:101C570035E0B4020C900799E06006E4F09007A520
:101C6700F09007A5E060347B017A07799A12B5E412
:101C7700EF6028900735E06402600E1222C8122731
:101C8700C3128AF81207868012E49007A5F07B0139
:101C97007A07799AFFFEFDFC12B5B2900735E0147A
:101CA700601024FE600704700CB1ED80081247EF46
:101CB700800312482A90072BE0600D125A72EF60DA
:101CC70007E490072BF0802790072BE07021125A2A
:101CD70072EF701B90072B04F0900735E0B4020FEA
:101CE7001200F9EF2401FFE43E122F89124EA812C9
:101CF70000F9900731122FBD6011124746400C12B0
:101D070000F9900731128570124EAE227B017A07D7
:101D1700796812A68F9003F312857C00000000F10A
:101D2700D8E4FDFF120EA67F647E00028AF87B00CE
:101D37007A007900900A651285E690073AE07015F7
:101D4700124DBBD3900767E09F900766E09E400562
:101D5700E4F0A304F0900A651285DD90051312855F
:101D6700E6900766E0FFA3E09005161268B77A07CA
:101D77007968129C6BEF7007900A947405802C7B2E
:101D8700017A0779777D0B122548900954EFF07B8C
:101D9700017A0679DB7D501221797B017A07796810
:101DA70012CEE6EF7009900A947407F07F00229034
:101DB70003F312857C0000000090079FE0601DE49C
:101DC700F0124E8A9003EF1284D39003F3122FBDC3
:101DD700400A9003F312857C00000000124647EF8B
:101DE7007F017001FF22126BCF600612CEB0EF7039
:101DF7000F900737E0640370237F0A124748401C9F
:101E0700B113900737E064016004E4FFD19EB13558
:101E1700EF70097D067F011249DA80437B017A075B
:101E270079A012B5E4EF60189009D6E07012900718
:101E370097E0700C120FFD122B669007977401F054
:101E4700124777EF701BB113900739E0FF64026008
:101E570003EF70047D0680027D077F011249DAE1F6
:101E6700D8900736E024FE600B24FE601814601536
:101E77002404701712CECF1247D99007357403F098
:101E87001207968003F1F0F012482122D19EE490C8
:101E970009D6F0B135EF22900A25EFF0124DBB902D
:101EA7000A26EEF0A3EFF04E7002E1A9900737E0A3
:101EB70024FE7002E156240224FB5002E19E900AA0
:101EC70025E0FFB4020D900A28740AF0E4900A2571
:101ED700F08012EF900A28B40308740AF0900A25DC
:101EE70080007401F0900A25E07032900A28E0FF24
:101EF7007E00900767E02FFD900766E03EFCC390E9
:101F07000A27E09D900A26E09C9007665007E4F0B8
:101F1700A304F0E19EEE8FF01281D7807A900A2514
:101F2700E064017072900A28E0F9FF900766124D8D
:101F3700C794005008900A261249108056E9FFC33B
:101F4700ED9FFEEC9400900766F0A3CEF0804890DA
:101F57000A26E0FEA3E0FFFBAA06E4F9F8900611C3
:101F67001284D3128358EB2401FFE43AFE900766EC
:101F7700E0B5060AA3E0B507050FBF00010EC39041
:101F87000A27E09F900A26E09E50047E007F01907A
:101F97000766EEF0A3EFF0900A25E0900739F012FC
:101FA7000019229009D4E024FC601224F860092467
:101FB700097018123FC68008125A3F8003123F71FA
:101FC7007B017A0679DD7D01122179227F01124991
:101FD700DA9007357401F02212384CD390002DE0C7
:101FE700940190002CE0940022B113E49009D622CA
:101FF700F1AA9009D5E070109009ADE0700A900938
:10200700D6F07D01FF120EA69009ADE0B4010811CC
:102017002B4004A37401F09009D6E0B40105E4F065
:10202700120FFD229009D5E0D3940022E4900A9E76
:10203700F0A3F011C8EF60119008A2E0700B04F054
:10204700FBB1C99008A17401F011C8EF701890088E
:10205700A2E06012112B400EE49008A2B19812B5CD
:10206700B2E49008A1F09008A2E06007515012B9BD
:10207700888003120FFD7B017A0879A312B5E4EF7C
:1020870060299008A1E0602311C8EF6015F18A7DEF
:10209700807F0A12B98851C8F1C3128AF8120786DD
:1020A7008009E49008A1B19812B5B27F01124BAA3A
:1020B700EF24ED60070470087F018002E4FFD1215F
:1020C70022E4FF12B9ACEF7F0130E7027F002290D4
:1020D70008A87401F090089AF07D807F0212B94633
:1020E7007D807F0312B9887D807F0512B9467D8088
:1020F7007F0612B9467D017F2012B9467D017F21F7
:1021070012B9887D017F1E12B9887D0151357D0284
:1021170051357D027F1C12B9467D027F1D12B98899
:10212700513A7D027F1C12B9467D027F1D12B98884
:10213700F18A7D807F0A12B946125A3A120FFD11B1
:10214700C8EF600C9008A27401514F12B98880093A
:10215700E49008A2514F12B94611C8EF60129008D7
:10216700A2E0600C7401F0FBB1C99008A17401F002
:10217700F1BA900A311285E6900A34EDF0124EEF6B
:10218700B1374002E4F0B12F4002E4F09006DB746F
:102197005AF09009D4E0FF60049006DCF09009D56E
:1021A700E09006DDF0F19F94814002E4F09009D4BD
:1021B700E0FBB4011690073AE09006DEF090095470
:1021C700E09006E351BD9006DF8018EBB40217904C
:1021D700073AE09006E8F0900954E09006ED51BD0B
:1021E7009006E9128570B13FB14890072AEFF09049
:1021F7000A311285DDE94A4B6033900A34E0602DDD
:102207007D5AE4FF12BA06900A311285DDC3E994BC
:10221700DBFF900A311285DD900A34E0900A04F062
:1022270012625090072AE0FD7F4F12BA06227F1DE7
:1022370012B9467D027F2012B9467D027F2112B96D
:10224700887D027F1E02B988F07D107F2012B94673
:102257007D107F2112B9887D107F1D12B9887D10EE
:102267007F1E12B9467D107F1C22C374E8B1E74078
:102277000FE49006E8F07B017A0679E87D01317971
:10228700C374DEB1E7400FE49006DEF07B017A0607
:1022970079DE7D013179C374DD94DBFF12BFF490E1
:1022A7000ABBEFF09009D5E06F600A7B017A0679E7
:1022B700DD7D01317922F09007830284D3E054BF9A
:1022C700F07F027E00028AF81261731207EC12B8DF
:1022D700CC12976612327812492ED2AFF1DA9101F9
:1022E700F090960151C4D106123F21123F309096CB
:1022F70002F1A7910CF0909601E0444051C7E4FD2C
:10230700FF12635B515012B988E4FF1254C2E4FF15
:10231700120F3C911912542E1257FA123A6D129756
:1023270066124A1A12071C9009D4E024FE600E14A4
:10233700601914600D24F8600E240B7010121A2710
:10234700800B121546800611338002F10512557A6B
:1023570080CCE4900901F07B017A097902FFFEFD48
:10236700FC12B5B27D807F1D12B9887D807F1E1259
:10237700B9887D807F2012B9887D807F2112B94678
:1023870090961DB18FF0909620B186F090961CE044
:1023970054FB51C790961DE054EFF0A3E04410F0B2
:1023A700909620E04410F0A3E04410F090961CE0D3
:1023B70054EF51C790961DF1A7F09096209110F019
:1023C70090961C51C4909602E054FDF0A3E044029D
:1023D700F0909605E04402F0A3E04402F0909601E5
:1023E700E054FD51C7909602B18FF0909605B186E3
:1023F700126C0F7F027E00028AF8909602E044403A
:10240700F0A3E054BFF0909605E04440F0A3E04409
:102417004022B13FB148AB079006D8E020E0659075
:1024270006DBE0645A705D90072AE06B70569006F1
:10243700D8F09006DCE09009D4B1D840037419F0C5
:10244700B1374002E4F0B12F4002E4F0B1F6F0906A
:1024570009D4E0FAB4010CB1B0B128128570900626
:10246700E4800EEAB40212B1A4B128128570900676
:10247700EE124EA5E490073AF0F19F94815002A125
:1024870027E4F0227E007F527D007B017A0679D90E
:102497001287C67A0679DB7B01900A097450F0E44B
:1024A700FF1262B0B13FB148AB079006DBE0B45A08
:1024B7000790072AE06F601E9009507401F0E490BE
:1024C70006D9F0A3F0A3745AF0A37401F0B1BCF0DD
:1024D700A37419F080489009507401F0F1CE900967
:1024E700D4EFB1D840037419F0B1374002E4F0B12A
:1024F7002F4002E4F0B1BCE0FBB4010C9006DEE033
:1025070090073AF0B1B0800EEBB4020F9006E8E006
:1025170090073AF0B1A4B128128570B1F6F0517165
:10252700221284D3900783229006DAE0C39405220F
:102537009006D9E0C3940B227B017A0679DB7D4FA5
:1025470022900A351285E6900A38EDF0E4FE900AEB
:1025570038E0FD14F0ED6024900A35F1E11280F6C1
:102567006EFEE4FFEFC3940850E4EE30E007C313B8
:10257700648CFE8004EEC313FE0F80E8AF0622E0F2
:102587004404F0A3E0440422E054FBF0A3E0440435
:1025970022F07B017A0879A3FFFEFDFC229006ED6D
:1025A700E0900954F09006E9229006E3E090095480
:1025B700F09006DF22E49006DEF09006E8F090093E
:1025C700D4227A0879A37FC07E277D097C0002B5D3
:1025D700B2F09006DDE0543F9009D5F0D394202265
:1025E70094DBFF12BFF4900ABBEFF0D39401229063
:1025F70006D9E0900738F09006DAE0900737221204
:10260700502271591217F0F07B017A097927FFFEE2
:10261700FDFC02B5B27401F0E4FFEFB40109F197D4
:10262700500CE004F08007112B4003E014F09009F0
:10263700D5E0B420117D017F05F176B40C08F17D5A
:10264700EF7003120FFD9009D5E070117D017F0631
:10265700F176B40C08F17DEF7003120FFD121FF72E
:102667007F0102001AF1837D027F1C30E10512B958
:1026770046800312B988F1837D027F1C30E0051282
:10268700B946800312B988E4FF12B9ACEF30E70707
:102697007D01E4FF020EA6020FFD900A84EDF09083
:1026A7000A83EFF064096004E0B40A037F00229014
:1026B7000A9CE07002FF229009D5E0900A85F0128B
:1026C700CECF1247D99009D4E0B40403120EA21258
:1026D7000826900A83E0FF122B7C122C02EF60057C
:1026E70012976680F5125A2E900A85E09009D5F068
:1026F700900A84E06005F1E8120FFD7F01227F0157
:10270700124BAA900A62EFF0E4A3F0A3F0EF146073
:102717005A24EE603424FE605224B0600714602906
:102727002454704AF1975005900A64F191900A6217
:10273700E0646570399009D5E064207031900A64CF
:10274700E0702B7D017F058020112B4005900A63E7
:10275700D11C900A62E0B466159009D5E0700F901D
:102767000A63E070097D017F06C1A11217F722D124
:10277700A19009D4E0229008A2E0FF227F1B12B9A2
:10278700ACEF227D807F0C02B9467401F0FFC121B6
:102797009009D5E0C394202290073AE0D3648022C1
:1027A700E054BFF0A3E0444022123FC6126BFDF194
:1027B700BA21797B017A0679DC7D0122E4FD7F0766
:1027C700D1A17FE87E03229006DCE0FF22E4FD7FB3
:1027D70008C1A1C28AD2AAD2AF22E475F0010204CD
:1027E7007B90079F7401F0021D359005BFE0B4058B
:1027F70008A3E0B4AC037F01227F0022114C30E034
:10280700027F019008C1EFF0909901C083C082E078
:10281700FFA3E04401D082D083CFF0A3EFF0909CD8
:1028270006E04480F022114C30E0027F01900AD08C
:10283700EFF0909901C083C082E0FFA3E04401D08C
:1028470082D08380D4909901A3E07F0022AE071144
:1028570003EE543FFEED543FFD1207F3600A900864
:10286700C4EEF0A3EDF08012909C49E05412602E64
:102877009008CDEEF09008D0EDF0909C48E020E273
:102887000B909C41E0543F6E6002EEF0909C48E054
:1028970020E60B909C42E0543F6D6002EDF09008FB
:1028A700C1E07015F174C083C082E0FFA3E054FE5D
:1028B700D082D083CFF0A3EFF022AE071103909C14
:1028C70046E04410F0AF06715912153F909C4BE05B
:1028D70020E204714B60F5126BA93114909C46E01D
:1028E7004420F0120CB6909C45E04405F0120CB65B
:1028F700909C46E0547F3114909C49E054BFF012FD
:102907000CB6E49008CEF09008C3F08091F07F01F8
:102917007E00020AA1513A5444FFBF4402806890E6
:102927009C49E054096008909C01E04403319012EF
:1029370007F37005E05412603F1207F3600B120FA4
:10294700EA5004AF06800A8008713E5004AF068043
:1029570000900AB0EFF0900AB0E0C3943F5017120E
:102967009766900AB0E004F0E0543F909C41F0A3D2
:10297700F0120CB680E07135909C48E054446444F2
:102987006005E04444319001A5F07F507E00020AC3
:10299700A1513A5444700241387135909C48E05433
:1029A70044600BE054BBF07F1E7E00120AA1909C8E
:1029B70049E054096002F1DB1207F37005E0541295
:1029C700606F1207F36010120FEA5004AF06800021
:1029D70051419008C5800D713E5004AF06800051EB
:1029E700419008D0E0900A1FF0900A20743FF090C1
:1029F7000A1DE0FF900A20E0C39F403512976690BA
:102A07000A20E014F0900A1EE0FF900A20E0FEC3BF
:102A17009F4007EE543F909C41F0900A1FE0FFEE65
:102A2700C39F4008A3E0543F909C42F0120CB6802D
:102A3700BE01A51103909C48E022900A1DEFF0A368
:102A4700EEF022900A19F16AEDF01103120C7DEFF6
:102A5700F47002EEF4605F120C7DEFF47003EE6425
:102A6700FE6053900A19E0FEA3E07802C333CE3329
:102A7700CED8F9711D900A19EEF0FAA3EFF0FBA377
:102A8700E0FEA3E07802C333CE33CED8F9711D90B0
:102A97000A1BEEF0A3EFF0D3EB94EAEA940B4005A0
:102AA700900A19712DD3900A1CE094EA900A1BE052
:102AB700940B4002712D900A197125A37125900A74
:102AC70019E0FCA3E0FDECC454F0FBA3E04B900835
:102AD700CBF0AF05A3EFF0900A1BA3E09008CFF06F
:102AE700909C04EFF0909C02E0540FF0C083C082EA
:102AF700E0FF9008CBE0FE54F0FDEF4DD082D0838D
:102B0700F09008CFE0F1E3E054F0F0E0FFEE540F6F
:102B1700FEEF4EF001A5FF7C007D05028182E054A7
:102B27000FF0A3E0F022740BF0A374EAF022909C5C
:102B370041743FF0A3F0229008D0E0FF9008CDE069
:102B4700FEC39F221297667B017A0879C612B5E405
:102B5700EF22F1EB7B017A0879C67FB87E0B2290D2
:102B670009D5E025E02445F582E43405F583F1D362
:102B7700FDAC06414A900ACDEFF090083F7401F092
:102B87001259F1EF7002FF2212C7F790081BE0FFFE
:102B9700125E2B900ACDE0FF7E00E4FDB158EF7086
:102BA70002FF2271F59125EF4E7002FF2271F51297
:102BB700CDA0900ACDE0FF640A6009EF64096004C4
:102BC700EFB408089009D57410F080069009D57401
:102BD70018F07F0912089690081D91A831981222C3
:102BE7005012B946F1C4716612CEB87F0122900423
:102BF70003E0FEA3E0FF7D007C0222F191EF60037A
:102C07007F002212BD13EF70037F012271F591251A
:102C1700EF4E7002FF2271F512CDA07F0122900ABC
:102C270041F16AEDF09008091284D39007F91284F4
:102C3700DF1282B2C006C007900A41E0FEA3E0AAF5
:102C470006F97B01A3E0FFA3E090097BCFF0A3EF98
:102C5700F0D007D006D1E89008091284DF900A4324
:102C6700123EE61282B29008091285709007F8E0CA
:102C77007026900809F17FE4FB7A02F9F81283586D
:102C87009007CE1285709007CE1225281284DF1286
:102C970082B29007CA128570900A43E0FEA3E0FF54
:102CA70022E0FEA3E0FFEEFA909C0812857C01006B
:102CB7000000EAC3942750047B8D805DEAC3942DFE
:102CC70050047BB38053EAC3943650047B91804908
:102CD700EAC3944A50047B95803FEAC39459500451
:102CE7007BB78035EAC3946D50047BB9802BEAC368
:102CF700949450047B998021EAC394B35019909619
:102D07006AE030E00E7B88909C0812857C001A00F0
:102D17000080067BA380027B89112D909C06E06BC7
:102D27006013909C00E0547FF0909C06EBF0909C21
:102D370000E04480F0900AD0E07015F174C083C0C1
:102D470082E0FFA3E054FED082D083CFF0A3EFF060
:102D570022AB07AA06900A80EDF0A3E4F0A304F0E3
:102D6700EDD3940240037F0022900A80E0F9701BA4
:102D77009007E0D1CE40037F00229007E2E02BFED0
:102D8700E43A900A81F0A3CEF08038E9640170211B
:102D97009007E1D1CE40037F00229007E2E02BFFAE
:102DA700E43AFE9007E0F1CB900A81F0A3EFF080C0
:102DB700129007E2D1CE40037F0022900A81EAF009
:102DC700A3EBF09007F7EBF0A3E9F0900809128561
:102DD7007C00000000900A82D1DF900A81D1D724BD
:102DE70010FFE43EFEE4FCFD7A0779F97B019009C8
:102DF7007BF0A37410F0D1E8900A80E06002C1CBA9
:102E070074FFFFFEFDFC9007FDF1BD700D9007FDFF
:102E170012857C000000007F00227E007F2F7D004E
:102E27007B017A0779A71287C67E007F047D307BF6
:102E3700017A0779B61287C678BA7C077D017B01CC
:102E47007A0879017E007F041280D078BE7C077DE6
:102E5700017B017A0879067E007F031280D09007F4
:102E6700FD1284D39007D21285709007FDF17FE49D
:102E7700FB7A02F9F81283589007C61285709007FB
:102E8700DFD1DF9007DED1D72420FFE43EFEAB077A
:102E9700FAE4F9F89007F9123543E4FB7A02F812DD
:102EA70083589007C21285709007C21284D3900787
:102EB700CA1285709007CE12857C0000000090072B
:102EC700C17401F07F0122E0FFD3EB9FEA94002257
:102ED700E0C454F048FEEF22E0C4F8540FC868FF7E
:102EE700229009741285709009781285E690097806
:102EF7001285DDE94A4B605190097BE0FEA3E0FFB4
:102F07004E60469009781285DDC3EA940F40167E1D
:102F170000EF5403FF600E74049FFFE49E90097B4B
:102F27008FF01281D7900A9CE0B4030CF15C9009F2
:102F370036F1511256F28011900A9CE0B4010AF161
:102F47005C90094CF15112574822CFF0A3EFF09053
:102F570009740284D39009781285DD90097BE0FF1C
:102F6700A3E022EEF0A3EFF0A3ECF0A322909C06DF
:102F7700E0547FF0909901221284D3EF24FFFFEEF3
:102F87003401FEE43DFDE43CFC229007FD1284D3AE
:102F9700900809F1BD7F0040027F0122128358ACDF
:102FA70000AD01AE02AF039008EC1285709008ECFB
:102FB7001284D39008E81284DFC302840E7F327E26
:102FC70000028AF8E07C002FFFEC3E22E493FE74B7
:102FD7000193FF22909C01E054FCF022909C03F0A7
:102FE700909C0222900A59EFF0A37401F0129766A1
:102FF700909C46E054F0900A5BF0E0FF900A5AE09C
:10300700FEEF4EA3F0900A59E0B4010BEEB40707A8
:10301700900A5BE04408F0900A5BE0909C46120D32
:103027003A900A5AE004F0E0C3940840C022900A9C
:103037005FEFF030E602318B900A5FE0FF30E70286
:103047003183EF30E606909C41743FF0900A5FE0D1
:1030570030E706909C42743FF0900A5FE0FF30E64D
:1030670002317BEF30E7023173120A9D900A5FE06D
:10307700FF30E6023117EF30E702310F120A9D9059
:1030870008C2E06444601A900A5FE0FF30E60790E8
:103097009C48E054FBF0EF30E707909C48E054BFB2
:1030A700F0120D3B122B3E5004AF068000900A60D1
:1030B700EFF0A3743FF0900A60E0FFA3E0D39F40D6
:1030C7003531A5900A61E0FEC39F400C900A5FE08E
:1030D70030E605909C41EEF0319C400F900A5FE08E
:1030E70030E708900A61E0909C42F0120A9D900A2E
:1030F70061E014F080C0900A5FE0FF30E602319390
:10310700EF30E703120C7422909C4FE04420F0222A
:10311700909C4FE04440F022900AB1EFF012280350
:10312700900AB1E0FF30E602318BEF30E7023183DE
:10313700900AB1E030E602317B900AB1E030E70255
:103147003173120A9D900AB1E0FF30E6023117EFA2
:1031570030E702310F120A9D900AB1E0FF30E60214
:103167003193EF30E703120C740228A5909C49E0D5
:103177004410F022909C49E04402F022909C4CE0DD
:103187004408F022909C4CE04404F0229008CDE0E3
:10319700909C41F0229008D0E0FFEEC39F22129747
:1031A700669008CDE0FF22EF909C50B40105E054F3
:1031B700FCF022E04402F0E054FEF02212280390D3
:1031C70008C3E05412702E909C49E030E102511D73
:1031D700909C49E030E4025115120A9D909C49E009
:1031E70030E104E054FDF0909C49E030E404E05401
:1031F700EFF0120A9D909C4CE030E204E054FBF0A3
:10320700909C4CE030E304E054F7F00228A5909C32
:103217004FE054DFF022909C4FE054BFF022122879
:1032270003909C00E4F0515D74A3F0909C007480BF
:10323700F09096417420F07D037F1D12B9467D03FF
:103247007F1E12B9887D047F1D12B9887D047F1EF9
:1032570012B9460228A5909C057442F0A3229099C2
:1032670004E054FEF090980DE054FEF0E0440EF0B8
:103277002290B004E030E3F990980DE054F1F0E0CB
:103287004401F090981FE030E0F9909904E0440180
:10329700F022A2AFE433900AB2F0C2AF9005FE125B
:1032A70084D39006111284DF1282B29005FB128537
:1032B700DD1284959005FB51D4E412814E900AB239
:1032C700E024FF92AFD080D0802290069D1285DD4A
:1032D700900004229008E3EDF0A31285E69008E23F
:1032E700EFF090053EE0FEEFD39E50179008E2E026
:1032F700C39401400E9005451285DDE94A4B6003F2
:10330700EE70037F00229008E2E0149008E7F09047
:1033170008E3E0FF9005451285DD9008E7D109EF46
:1033270012814E9008E41285DD12BF3F9008E81223
:1033370085709008E3E064036002816EA351D412A4
:10334700810FD39406400312BE90B1FA9008EC1295
:103357008570B11578009008EC1284D3128358EF6A
:103367002402FFE43E122F89E47B07FAF9F812835F
:1033770058AF039008F0EFF09008E451D412810F92
:10338700FEC39F4013EEFF9008F0E0FDEF9DD1557F
:10339700B115F81282CD80279008E451D412810F1D
:1033A700FF9008F0E0C39FD155B115F81282CDC345
:1033B70074809FFF743A9EFE74099DFDE49CFCC0D7
:1033C70006C007B11C900001D007D0061284AFB128
:1033D7001CB133FAC003C002C0011284459008EC47
:1033E7001284DF1282B2D001D002D003128495B1C9
:1033F7000FD16A9008E81285709008ECB112780036
:10340700122FA39008E7E075F0064032B123B133DD
:10341700FAC003C002C001128445C004C005C0063B
:10342700C0079008EC1284DF9008E8B143F1DCABE9
:1034370007D007D006D005D0041282B281D1B123BC
:10344700B133FAC003C002C001128445C004C005ED
:10345700C006C007B13AF1DCAB07D007D006D005EC
:10346700D0041282BF80639008E3E064027066B103
:103477000FD16A9008E8128570B1157800B1FA1279
:103487002FA3400D9008EC1284DF9008E8B1438029
:1034970012B13AC374809FFF74519EFE74019DFD63
:1034A700E49CFCC006C007B11C900001D007D00601
:1034B7001284AFB11CB133FAC003C002C001128439
:1034C7004590B1061284DF1282B2D001D002D00338
:1034D70012849580259008E3E0B4011EB1FA9008A4
:1034E700EC1285709008E81284D3C006C007B11C9F
:1034F700900001D007D0061284AF9008E2E0FF12D7
:10350700C1CB12BA257F01229008E81284D37B80B1
:103517007A517901229008E7E075F006A4FF90053B
:10352700451285DDE92FF9EA35F0FA22E92401F998
:10353700E43A229008E81284DF9008EC1284D30260
:1035470082BF900A1012857C00000000E4900A0FE9
:10355700F090053EE0FF900A0FE0FEC39F4002A1F6
:10356700F7EEB12090000512810F6401707AD10047
:1035770012810FFBB4020FB1FAEF2480FFEE345132
:10358700FEED34018011EBB40313B1FAEF2480FF91
:10359700EE343AFEED3409FDE43CFC800AD100121A
:1035A700810FB40108B1FA900A10128570900A0FC2
:1035B700B11F900001128465900A10122FBD60217F
:1035C700900A0FB11FD15ED178C312840E6012909A
:1035D7000A0FB11FD15EEF24FED17BC312840E7098
:1035E70007900A0FE004FF22900A0FE004F0A158A9
:1035F7007F002290B1060284D39005451285DD90A5
:103607000A0FE075F006A4F58285F08322A2AFE4E5
:1036170033900AB3F0C2AF51D112810F701D1284DB
:10362700451259D6900611B143E4FBFAF9F8C312D3
:1036370083F8500751D1740112814E900AB3E024E8
:10364700FF92AFD080D08051D112810FFF22FFE4CB
:103657009400FEE4FCFD2290000112850B900A10F5
:103667000284D37800128358AC00AD01AE02AF03D9
:1036770022EF24FFFFEE34FFFEED34FFFDEC34FFB5
:10368700FC2290093A12857090093E1285E690094E
:1036970041E07002A3E07002E14990093A1284D335
:1036A700EF5401FFE4FEFDFCFBFAF9F8C312840EA8
:1036B700601C90093A12853B90093E1227E112805F
:1036C700F61257CD90094174FFF5F01281D77F06A6
:1036D700F150F18F7FADF15090093AF1C9F16DF1D9
:1036E700CF900942E024FEFE900941E034FF9009A3
:1036F70043F0A3CEF0D3900944E09401900943E04E
:10370700940040157FADF150F16D90094374FF753A
:10371700F0FE1281D7F1CF80DC7F04F150F18FF1F9
:10372700AC900941E0FEA3E0FF30E016E4FCFD9019
:10373700093A1284DF1282B2D17890093EF1E3127E
:1037470057CD22F158F1AC7F06AD071254BA0200EB
:10375700E1900ACBEFF07F50F150F18F7F01F150EC
:10376700900ACBE0801E90093EE475F00112047BBD
:103777001280F6FF1200E190093EE475F001120491
:103787007B1280F6FF1200E190960AE04408F022CF
:103797009009F6128570E4FFF14AF18F9009FAE07B
:1037A700FFF150F18F7F05F150120025900ACCEF01
:1037B700F0F18F7F017E00128AF8900ACCE020E0BA
:1037C700E4221284D30256D47F017E0002900112B4
:1037D70084DF1282B2A804A905AA06221285DD0297
:1037E70080F612C94690060FE0900610F022900A64
:1037F700B4EFF09009D4E024FD601B24F760232484
:10380700087029900AB4E064046021115612082652
:10381700E4FFF1828016900AB4E06403600EF1AA17
:10382700800A900AB4E0640C6002F195900AB4E053
:103837009009D4F0900AA1F0120EA2E49009D6F0F4
:10384700F12112180F900858E0B4010251472212D3
:1038570014C5120EA27F0112104A116831FD02B978
:10386700469008B0E024F770021173227F01919D02
:103877007B207D30E4FF900A78EDF0A3EBF0900A0F
:1038870077EFF01217A7900A78E0FEF45FFFA3E046
:103897005E4FFD900A77E0FF7E000217737D7A7F07
:1038A700497E001217737D78D1D77D757F277E00FB
:1038B7001217737D037F387E00121773E4FD7F2F85
:1038C700FE1217737BC07DC07F3A117D7B147D3F4D
:1038D7007F01117D7D897F397E0002177390098FE3
:1038E700122F6AEDF0A3EBF0900995E0600211A4A6
:1038F700900994E0606E900990E025E0FF90098FB1
:103907003184F0FD900992E025E0FF900991318420
:10391700F07F08317931717806CEC313CE13D8F909
:10392700540C4D900996F0900991A3E0FD7F093161
:103937007990099131EEFFED4FFF900996F09009CC
:1039470093E0C4333354C04F900996F0FD7F0A7E4D
:10395700001217737B027D03E4FF117DE4FD7F4FA7
:10396700FE0217733171FF0217DA90098FE0FEA389
:10397700E0227E00121773900996E0FD22E033FEE5
:10398700EF2450FFEE34FBF0A3EF22900A98EEF0FD
:10399700A3EFF0E025E0FF900A983184F031E77F4C
:1039A7000831E27F0931E27F077E00121773900A20
:1039B70098E0FCA3E0FDEC5403FBEDAE047806CEE3
:1039C700C313CE13D8F9540C4BFB900A9831EE4B26
:1039D7004440FBFD7F0A7E000217737E00121773B7
:1039E700900A98A3E0FD22E0C4F854F0C8A3E0C40D
:1039F700540F485430227D087F2012B9467D087F36
:103A07002112B9887D087F1D12B9887D087F1E1293
:103A1700B9467D087F1C22121046F1715140120FE2
:103A2700FD31FD12B9881227BA122179E49008B640
:103A3700F0D1EFFEFDFC02B5B29008B77401F02299
:103A47009009D4E024FC60050470028000E4FD7F47
:103A5700011218717D01E4D1F8F012186A7FE87E2F
:103A670003FDFC02B5B27B017A07792C7F001215A2
:103A77003D713811687B017A0879D47F2C7E011259
:103A8700153F7B017A0879D412B5E4EF700451CE63
:103A970080F01227D49009D0E0B401089009D474BB
:103AA70003F080129009D1E09009D4B401057402A3
:103AB700F08003740CF09009D4E0FF120690EF70C9
:103AC700057F0C120774229009D0E0900AB8F051D4
:103AD700F09009D0EFF0900AB8E0700A9009D0E0B2
:103AE70060047F0180027F002290960BE04410F073
:103AF70090960EE054EFF0A3E054EFF090960CE0B0
:103B070054EFF091B4909609E030E40BE49009D0BB
:103B1700F09009CEF080149009CEE0C394145005BC
:103B2700E004F080069009D07401F09009D0E0FF1E
:103B3700229006F7E0FFD39432503B9006F5E0243D
:103B470001FDE433FCD3ED9F7480F86C9840069038
:103B570006F7E070219006F7E0FF9006F6E0D39FA6
:103B670050141217E8FF9438EE94045009C3EF94E9
:103B77006BEE940350117E007F387D007B017A063F
:103B870079F21287C6F116E49008B7F0A3F090080F
:103B9700B0F09008AEF012148D7D047F3012B94654
:103BA7007D047F2F12B9887D0C7F3112B9467D0CB9
:103BB7007F3212B9887D047F2E12B94671CFEF602C
:103BC700069008B07409F0227F061217A7EF54FC7D
:103BD700FFBF840571E37F01227F002271FE7F6BA7
:103BE7007E031216CF7F141217A7EF54C04407FDA8
:103BF7007F147E000217737D81E4FFFE1217737F27
:103C07000A7E00128AF8E4FD7F01FE1217737D0118
:103C17007F157E001217737D087F167E00121773BB
:103C27007D5C7F177E001217737D477F547E0012DD
:103C370017737DC47F19D1DE7F407E001217737D15
:103C47009E7F337E001217737DD67F2D7E0012175D
:103C5700737D107F437E001217737D397F477E0087
:103C67001217737D11E4FFFE1217737DA97F1D7E66
:103C7700001217737D4012176F7D0C7F347E001280
:103C870017737D337F357E001217737D127F367E63
:103C9700001217737F01EF60047D3080097FC87EB3
:103CA70000128AF87D107F4A7E000217737F0A7E12
:103CB700000290019009CA12857C0000000012B82A
:103CC700F1B12A7B017A0779A712DB79EF70517B73
:103CD700017A0779A790047FF10FFD7C0F12A02AC4
:103CE7009009C8EEF0A3EFF04E700280337B017AA3
:103CF7000F79009009C8E0FFA3E0900984CFF0A3F3
:103D0700EFF09009CA1284D3B1579009CA1284DF21
:103D17009009C8D1E61282B2A312857091B480A32C
:103D270002B8CC900A9CE0B4030A9009F074C7B1BA
:103D37004D0257A3900A9CE0B4010A9009FA74C790
:103D4700B14D12379722F07F007E007D007C002264
:103D570090097D1285709009811285E6900A9CE092
:103D6700B4030AB190900941B185023689900A9C43
:103D7700E0B40109B190900913B185B19E22CFF04B
:103D8700A3EFF090097D0284D39009811285DD901D
:103D97000984E0FFA3E02290090C128570900910B6
:103DA7001285E6D1C6C39F900915F06046900910A9
:103DB7001285DD900915E0FF900972E4D17D900925
:103DC7000C1284DF900915E0FFE4FCFDFE1282B2BD
:103DD70090090C128570900915E0FF7E009009117B
:103DE700EE8FF01281D7C3900914E09FF09009136A
:103DF700E09EF0C3900913E094014054E490091643
:103E0700F0A3F0900913E0FFC3900917E09F900912
:103E170016E09400503A90090C1284D390091012BE
:103E270085DD9009727401F0A3E4F0D187D1C62F24
:103E3700122F8590090C128570900911740175F085
:103E4700001281D7900916E475F0011281D780B36B
:103E57007E00900913A3E0FF900913EEF0A3EFF0A3
:103E670060139009101285DD900913E0FFA3E0901D
:103E77000972CFD17D22F0A3EFF090090C1284D301
:103E870090096B12857090096F1285E6D1CE4E604E
:103E97002DD3EF9400EE940150247F061237501271
:103EA700378F7F0212375090096B1256D1D1CE90BF
:103EB700096F1285DD12568612378F1237AC2290A2
:103EC700090C1284D3E422900972E0FEA3E0FF22DA
:103ED7007F1B7E000217737E001217737D7022E02E
:103EE700FEA3E0FFE4FCFD227B017A0879B17FFAAB
:103EF70022FF121871E490085A22900858E0B40182
:103F070002514722F090040E7402F0A3E4F02290CD
:103F170006F37403F0A3746BF0227E007F1E7D000E
:103F27007B017A0879600287C67F0112C99F12C98F
:103F3700BD9006D8EFF09006D8E030E12C7B017AEF
:103F47000979D87FD07E0712153F7B017A0979D886
:103F570012B5E4EF7010129766124A1A7F01124BDE
:103F6700AABF56E680B412078A229009D5E0FFAEB1
:103F770007EE9005A893FDFF022854EFB4010790C0
:103F87009C4A7402F022EF7004909C4AF022120EB1
:103F9700A212291CE4FF12089612278A7D807F0A45
:103FA70002B9887D037F2712B9887D037F2612B95E
:103FB700467D037F2912B9887D037F2A02B988903D
:103FC70009D5E0FFAE07EE90058793FDFF02285461
:103FD700909C48E054BBF02212408B90000812815D
:103FE7000F900A21F090000912810F900A22F09099
:103FF700000A12810F900A23F0900A21E0B44D10B5
:10400700A3E0B4500BA3E0B43306A37401F080051A
:10401700E4900A24F0900A95E07008900A24E06082
:10402700021130900A24E0FF22900953E070549067
:104037000006E064017022129FB8129FDF9006DF2E
:10404700122FBD703E118B7D0B1225489006E3E0C1
:104057006F703090095304F022900006E0640270FC
:1040670022129FB8129FDF9006E9122FBD7014111C
:104077008B7D0B1225489006EDE0B5070690095396
:104087007401F0229003D80285DDE4900AA3F09032
:104097000AA2F09000181284D3E4900643F0A30418
:1040A700F012C68612CF4F9000181284D39003DC0B
:1040B700128570129766129D6A900AB9EFF0900008
:1040C7002C123EE67BFE7AFFF9F8C31283F8500202
:1040D70021E79003DBE0700312D7F2900AB9E014EE
:1040E7007002218E24FC70022197240570C5123FAF
:1040F700DFEF604D90002CE475F0011281D790003E
:104107002EE475F0011281D7900953E0B401329083
:104117000955E07002A3E0702831EA900955CFF005
:10412700A3EFF090002EE0FFA3E0900957CFF0A394
:10413700EFF0900030E0FFA3E0900951CFF0A3EF3C
:10414700F0900030E07004A3E06401600201BA90CF
:1041570007A6E06401700201BA118BE92408F9E4AB
:104167003AA801FCAD037BFF7A0079057E007F0347
:104177001287A2EF600201BA9007A604F0FB7A0744
:1041870079A712983B01BA900032E475F001804B91
:1041970012D90C900030E07004A3E06401700A317A
:1041A700EA900036CFF0A3EFF012DB9B12DCACEF06
:1041B70070037F0122900030E475F0011281D7E48B
:1041C700900032F0A3F090002EF0A3F012D711EF79
:1041D700600201BA90003074FFF5F01281D701BA7E
:1041E7007F012290002CE0FFA3E022900ABAEFF0B3
:1041F7007E007F327D007B017A0079061287C690A8
:104207000ABAE0900006F090000B12857CFFFFFFD2
:10421700FF90000F12857CFFFFFFFFE4900A94F0E8
:10422700A3123F0B5164EF7006900A9404800FE4C9
:10423700900953F01191EF700C900A947402F0A357
:1042470004F07F002290002CE07002A3E07006903B
:104257000A947403F0900A957401F0FF2290088283
:1042670012857C00000000E4900894F0900006E0BE
:10427700B4010C12CD53EEC31390088FF080069053
:10428700088F7401F09008821284D3D12B7002FF3B
:10429700229008821284D3D11D64AA7003EE64555C
:1042A70060089009ACE07002FF22E490088EF0905D
:1042B700088EE0FFC3940440026180EF75F010A4FC
:1042C70024BEFFE5F0340EFAA9077B019008971288
:1042D70085E690000412810FFF6405600AEF640F02
:1042E7006005EF6485703E900894E0FF60089008D1
:1042F7008EE0C39F402F9008821284DFC000C00168
:10430700C002C003D111129814D003D002D001D03B
:10431700001282B290088212857090088EE0049095
:104327000894F0418C9008971232D412810FFF64E1
:10433700046018EF64066013EF640B600EEF640C03
:104347006009EF64016004EFB40E269008821284BE
:10435700DFC000C001C002C003D111129814D003FE
:10436700D002D001D0001282B290088212857080EC
:104377000890088EE004F041B690088EE0B4041B64
:10438700900894E0FFD394004011EF9404500C90F0
:10439700088212857C00000000418CB1E8FE90087D
:1043A70082B1FDD12B7002FF22B1E8FE900882B1E5
:1043B700FDD11D64AA7003EE645560089009ACE056
:1043C7007002FF22900D0DE0900013F0900D0EE0AB
:1043D700FEA3E0FF1297F8900895EEF0A3EFF0E444
:1043E700FCFD9008821284DF1282B29000141285BD
:1043F70070900D11E0FEA3E0FF4E603D1297F87C30
:10440700007D201285EF1237DCAB0790088FE07F25
:104417000025E0FEE4FCFD1282B2123678C006C029
:1044270007E025E07B00FAE4F9F8D007D00612830D
:104437005890087E128570800A90087E12857C004D
:10444700000000900D16E0FEA3E0FF4E60081297F3
:10445700F8E4FCFD8005900D24D1039008861285B1
:1044670070900D13E0FEA3E0FF4E60081297F8E48A
:10447700FCFD8005900D20D10390088A128570B14C
:10448700F11237DCAB07900895123EE61282B29024
:10449700087E1237D6AB0790088A123543C00790BB
:1044A7000013E0FBE4FAF9F8D0071283589008905C
:1044B700128570E47FF57E0FFDFC900890122FBDEA
:1044C7005008E4900008F07F0122E47FF57EFFFDAD
:1044D700FC900890122FBD500AE4900007F0A30447
:1044E700F0802578367C0D7D017BFF7A0479CE7EBE
:1044F700007F081287A2EF9000077003F080037413
:1045070001F09000087401F0B1F19000141284DFFB
:104517001282B290087E1284DF1282B290001C12BF
:104527008570900007E06010900D2CD103900890E3
:104537001284DF1282B2800F9008901284D3EF2486
:1045470002FFE43E122F8990002012857090000729
:10455700E06021900D2CD103EF24FEFBEE34FFFA2F
:10456700ED34FFF9EC34FFF8900013E0FFE4FCFDB5
:10457700D1098005B1F19000141284DF1282B29044
:104587000018128570900013E0FE90088FE0FFEE90
:104597008FF0A4900013F0A31284DFE4FCFDFE1259
:1045A70082CD90001412857090001CB1E5D10912DC
:1045B70085709008821284D390088A1237D6AB0789
:1045C700B1E8FE1282CD900024128570900018B1D8
:1045D700E5FE1282CD9000181285707F01221284A9
:1045E700DF90088FE0FFE4FCFD22900D10E0FFE470
:1045F700FCFDFE9008861284DF0282CD1284D3026E
:104607009814FE1282CD90001C229008971285DD27
:1046170090000802846590000B128570900EFEE0F2
:10462700FEA3E022900606740DF0A3E4F0A304F0C5
:1046370012D177EF2290073112857CFFFFFFFF220F
:1046470012C7F79003E7E0FF125E2B9003E9122CE5
:10465700A8D1D8E4900797F012CEB81200F912B794
:10466700CAF1554E700E900A94E06409600374080D
:10467700F07F0022D1CF12CD92D1CF900404E02F4A
:10468700FF900403E03EFE900405E0FCA3E0FDC3B9
:1046970090040FE09DFD90040EE09CFC12CDA0D18C
:1046A7003CF13D7E2712153FF1464005E47FC88067
:1046B70002E4FFFEFDFC7B017A0779A012B5B290F8
:1046C70007357402F07F0122900405E0FEA3E0FFA6
:1046D70022900738E075F00AA424D7F9740435F05E
:1046E700FA7BFF900A451285E690040CE06401709E
:1046F70044FF900A451285DD8F8275830012810F72
:104707002409900A48F0D394804004E4F0800C9088
:104717000A48E0C3940D4003740CF0900A48E090F7
:10472700060393FE740D2FF582E43495F583EEF0BE
:104737000FEFB40ABD227B017A07792C7F1022E4A0
:10474700FFFEFDFC9003F31284DFD302840E7B018E
:104757007A077968900403E0FCA3E0FD90040EE07B
:10476700FFA3E090047FCFF0A3EFF012A02AEF227F
:10477700900735E0B40205126BCF60037F01221268
:10478700BD13EF70117B017A07792C12B5E4EF7F27
:1047970001603E7F0022F13D7E2712153F9003E71F
:1047A700E06401702AF1554E7012900735F0900AB7
:1047B70094E0640960037408F07F0022900403E02A
:1047C700FEA3E0FF90040EE0FCA3E0FD12CDA07F66
:1047D700012290073112857CFFFFFFFF22900731EE
:1047E70012857CFFFFFFFF22900736E024FE600B57
:1047F70024FE601F14601C2404701E121FF712CEC3
:10480700B81247E412473D7E2712153F90073574CB
:10481700028003121FF0F0112122900735E0900863
:1048270051F022900736E024FE600304700E121D3B
:1048370035EF700590073504F0121FF722E4900753
:104847003AF03119EF6401706E900953E0700C90E3
:10485700079FF0900766F0A3048054900955E0FE87
:10486700A3E0FFD39400EE9400406F90079F74017C
:10487700F090002CE0FCA3E0FDD3EF9DEE9C4008F8
:10488700900955E4F0A304F0900030E0FEA3E0FFA8
:10489700D3900952E09F900951E09E4005E4F0A3B0
:1048A70004F0E490073AF09009553110F0A3EFF0C7
:1048B700E4900737F08023E490079FF090073BF0E0
:1048C700A304F0900766E4F0A304F0E4900737F040
:1048D7009003F312857C00000000E4900739F09004
:1048E700002CE07002A3E0900735700404F0FF226B
:1048F7007401F0E4900955F0A3F0900957F0A3F084
:10490700900951F0A3F07F0122E0FFA3E090076632
:10491700CF229006DBE07F00B45A027F0122121DEE
:10492700137F01227F522290061112857C0000001E
:1049370000C2A9C28C5389F04389027F011237E96B
:10494700D2B9D2A9D28C43A90222C0E0C0F0C08359
:10495700C082C0D075D000C000C001C002C003C073
:1049670004C005C006C00712C90BD007D006D00582
:10497700D004D003D002D001D000D0D0D082D083D1
:10498700D0F0D0E032C0E0C0F0C083C082C0D075A4
:10499700D000C000C001C002C003C004C005C006EB
:1049A700C00712B9EB900A6BEEF0A3EFF012B9E56E
:1049B700900A6BA3E05FA3F0D007D006D005D00420
:1049C700D003D002D001D000D0D0D082D083D0F095
:1049D700D0E032900A29ED916312810FC394084009
:1049E700037F0022900A29E0FFA31285DD900001D2
:1049F7007401120411FD1280F62DFD7C00ED5407A1
:104A0700FD900A2A914BE92DF9EC3AFAEF12813C15
:104A17007F01229156900ABCEFF0600E7B011225B0
:104A2700C97B017A07799A1225CD90092EE0B40146
:104A37000571A1120022900925E07002A3E060250C
:104A47007B017A09792712B5E4EF7007900ABCE079
:104A5700B42212914012153F900ABC7421F0E490E1
:104A6700092EF0618C900ABCE0FFC39416500241F6
:104A7700FAEFD39420507C71FC6013EF6402600E50
:104A8700EF6404600261791214866002617991040F
:104A9700900ABCE0FBB4201B71A17C007D0A128147
:104AA70082ED4C60041217F0F0913690092C7401D6
:104AB700F0802590092CE06011EB24EAFFE434FF35
:104AC7009009258FF01281D78009900ABCE024EA6B
:104AD700FF910EE490092CF0E4900ABCF07B017A78
:104AE7000979277FD07E07FDFC12B5B271A11200AC
:104AF70022618C900ABCE0FFC39431407CEFD394D1
:104B07003B507671FC600FEF6402600AEF6404703B
:104B170074121486706F91049140FDFC12B5B29027
:104B27000ABCE0FFB43B0491368006EF24CFFF9127
:104B37000E71A112002271FC6004EFB4020FB1BB29
:104B4700D3900926E09F900925E09E401D9009D447
:104B5700E0B4041E9008B7E0B40117D3900926E02B
:104B67009432900925E094005008900ABC743CF0F8
:104B77008013E4900ABCF0800C900ABCE060061237
:104B870017F0F09105900ABCE0FD600D7F0131DA66
:104B9700900ABCE0FDE4FF31DA22900925E0FEA38C
:104BA700E0FF22E4900A2D916312810F6041900A81
:104BB7002E914BC003C002C001900A2E1237E3FFAB
:104BC7007C00D001D002D00329F9EC3AFA1280F622
:104BD700900A2DF0EF045407FFA31285DDEF128131
:104BE7003C900A2E1285DD90000174FF1204489054
:104BF7000A2DE0FF229009D4E0FF640122E4900926
:104C07002EF090092DF022AB0771A1C394E8EE9422
:104C17000350117C007D0A128170EB2FFFEC3E9050
:104C270009258006AF03900925E4F0A3EFF0229051
:104C37000925E475F00A0281D77B017A0979277F74
:104C4700887E13221285DDE92402F9E43AFA22E488
:104C5700FF7002B112EF700312158C22F0EF75F09E
:104C67000AA42460F9740835F0FA7B01A31285E6DB
:104C77009000012271A1D39432EE94004002A10961
:104C8700C3B10B9006F3E0940340289006F7E0FDCC
:104C9700FBD3EF9BEE9400400C9006F5EDF09006E9
:104CA700F704F0800A900925A3E0149006F5F0B107
:104CB700AB80489006F6E0FFB1C4940040359006FB
:104CC700F7E0FF9006F6E0FEEFD39E401774F72F4C
:104CD700F582E43406F583E0FB74F82F12147EEBBB
:104CE700F01F80DF9006F5EEF0A3E004F0A3E004E8
:104CF700F08006ED149006F5F0B1B3FFA312147B14
:104D0700EFF022D39006F4E0946B229009AEE01402
:104D1700602C14605D24027078900A88E070069019
:104D270009B4F0FF229009B4E07B017A0979AF7FDB
:104D3700E87E0312153F9009AE7401F08058900A7F
:104D470088E0700E9009B4F09009AEF090001693C9
:104D5700FF22B1A060401215359009AE7402F090A1
:104D670009B4E0B401059000178003900018E4939C
:104D7700FF22900A88E070069009B4F08014B1A071
:104D870060141215359009B4E0700B90001893FF6A
:104D970022E49009AEF07F00227B017A0979AF12F5
:104DA700B5E4EF229006F3A3E02495229006F3A33F
:104DB700E024082290002CE0FEA3E0FF22900925C2
:104DC700E0FCA3E0FDD39FEC22D1019006ADE06F9C
:104DD700601BEF64016013EF6402600EEF6406600E
:104DE70009EF64076004EFB40803124777511AB15B
:104DF700FE9006ACEFF0227F0022129766900AA180
:104E0700E0FF2212BF3F900A55128570D1417019F9
:104E1700D1016401600EEF64026009EF640660046B
:104E2700EFB408E812477780E3900A551284D3D18C
:104E37004C12153F12A6C102BA257B017A0A7914D2
:104E470012B5E4EF2212B7087B017A0A79147F2C96
:104E57007E0122900A891285E67FFF7EB07DB77CAE
:104E6700E190B10612474E4011D141700512976685
:104E770080F7123D4ED14C12153F900A891285DDFD
:104E870002AFD29009D4E0FBB401059006E4800795
:104E9700EBB402059006EED1A51225F6F022128496
:104EA700D39003F30285709009D4E0FBB401081294
:104EB70000F99006E4800AEBB402091200F99006A3
:104EC700EE128570D1EF9009D4E0B401087B017A26
:104ED7000679E4800D9009D4E0B4020B7B017A06D1
:104EE70079EE7D0412217922900738E09006D9F0F7
:104EF700900737E09006DAF0229009BCEFF0BF5830
:104F07001E900924E0C394024002E4F0900924E0D3
:104F170004F0E0B40109F1727FF47E0112153FF14C
:104F27007212B5E4EF700E900924E0B40107E49023
:104F370009BCF08030F17212B5E4EF700E900924CD
:104F4700E0B402079009BC74678014F17212B5E4EB
:104F5700EF6012900924E0B4010B9009BC7458F07B
:104F6700E4900924F09009BCE0FF227B017A0979DB
:104F7700BD22900ABDEFF07D0112B0157E00C0067C
:104F8700C007126BB7D0E02DFFD0E03400FEC0069B
:104F9700C007126BB7D0E02DFFD0E03400CF24025A
:104FA700CF3400FE7C007D03128182AB077E05E4CF
:104FB700FDEDC39E5045ED9005FE93FCEBC39C5061
:104FC700379009D4E0640C702CED1460121460184B
:104FD70014601A14601C2404701B909601800390BF
:104FE700961CE054FBF0800D125005800812500DFE
:104FF7008003125015AF05220D80B67FFF229096D1
:105007001CE054BFF022909601E054FDF0229096E8
:105017001CE054EFF0227F05024F79E49009AEF0CF
:105027009009B404F022C2AFEFB4010E909630E0BD
:105037004402F090962FE054FDF0D2AF22900ABEC2
:10504700EFF0317E900ABEE0FF3165900ABEE0FFC7
:10505700112D900ABEE0FF5184900ABEE0FF317E19
:10506700900ABE3175129001900ABEE0FF519B90E5
:105077000ABEE0FFC2AFEFB4010790962EE054FDE1
:10508700F0D2AF229009E7122F6DEDF0A3EBF0A35A
:1050970011D8700F7F0AFE128AF89009EB11D870A9
:1050A7000280219009E8A311DF700280179009EAB6
:1050B700E064017019A3E0FF11449009E7E044019F
:1050C70011E0700A9009EBE0FF318E7F00227F012B
:1050D70022E0FF11449009E7E0FF9009EBE0FD11A2
:1050E700EAEF22900A6EEFF0A3EDF0FFA37408F049
:1050F7005184802C900A70E0FF14F0EF602B900A27
:105107006EE030E707A3E0FF317E8007900A6FE08B
:10511700FF519B900A6EE025E0F0A33175129001D4
:10512700900A6FE0FF117B80CB900A6FE0FF900A37
:10513700C2EFF0117B900AC2E0FF31BD900AC23185
:1051470075129001900AC2E0FF71C7EF7F007002ED
:105157007F01AE07900AC2E0FF117BAF0622C2AF04
:10516700EFB4010790962EE04402F0D2AF22E0FFA1
:1051770031657F127E0022C2AFEFB4010790962EF1
:10518700E04401F0D2AF22900ABFEFF0112D900A50
:10519700BFE0FF5184900ABFE0FF519B7F127E0062
:1051A700129001900ABFE0FF3165900ABFE0FF311E
:1051B7007E900ABFE0FFC2AFEFB4010E909630E0D9
:1051C70054FEF090962FE04401F0D2AF22900A717E
:1051D700EFF0A37408F0E4A3F031BD900A72E0FF8A
:1051E70014F0EF6027A3E025E0F0900A71E0FF716B
:1051F700C7EF6007900A73E04401F0900A713175B8
:10520700129001900A71E0FF117B80CF900A71E044
:10521700FF5184900A73E0FF229009C212857090B3
:1052270009C77404F09009C6E0FF5184803F9009D4
:10523700C7E0FF14F0EF603E9009C21284D3E4FE8A
:10524700FDEC5480FC9009C66006E0FF317E8004C7
:10525700E0FF519B9009C21284D3780112843290E7
:1052670009C21285709009C631751290019009C65E
:10527700E0FF117B80B89009C6E0FF2135C2AFEF90
:10528700B4010E909630E04401F090962FE054FE62
:10529700F0D2AF22C2AFEFB4010790962EE054FED2
:1052A700F0D2AF22900AC0EFF0519B900AC031753F
:1052B700129001900AC0E0FF017B900AC1EFF03124
:1052C7007E900AC13175129001900AC1E0FF017BFF
:1052D7009009E21285E69009E5EDF09009E5E0FF17
:1052E70014F0EF6025A3E0FF31D49009E21227E123
:1052F700EF12813C9009E5E07007A3E0FF51C18000
:10530700DA9009E6E0FF51AB80D17F012290095C7A
:105317001285E6E4900961F0900960E09009EBF0EE
:10532700E4FB118B900961EFF0BF011890095C1243
:1053370085DD90095FE0FDA3E09009E1F0715890E9
:105347000961EFF0900960E0FF318E900961E0FF9D
:10535700229009DD1285E69009E0EDF09009E0E082
:10536700FF14F0EF60139009DD1227E11280F6FFBA
:105377009009E111E470E5FF227F0122900965128F
:1053870085E6E490096AF0900969E09009EBF07B03
:1053970001118B90096AEFF0BF011890096512851A
:1053A700DD900968E0FDA3E09009E6F051D7900988
:1053B7006AEFF0900969E0FF318E90096AE0FF22F9
:1053C700EFB4010790962DE05401FF2290960CE070
:1053D7004404F090960BE054FBF090960DE04404E3
:1053E700F0A3E054FBF0A3E054FB910C90960BE084
:1053F70054F7F090960DE04408F0A3E054F7F0A3BB
:10540700E054F7F022F090960CE04408F0221237AF
:105417008FE04401F0E04402910CE04401F0E054D5
:10542700FBF0E04402F0227D087F0C12B94691158B
:10543700E4900A9CF09152900A9CE0FF600CEFB454
:1054470001087F1C1237581237AC2291BA7F9F127E
:1054570000E1120025900A7DEFF091AC7B00EF127E
:10546700813C91AC7B00900001EF12814E12378F87
:10547700E4900A9CF0900A7DE0FFB4EF07900A9C45
:105487007404F022EFB4C807900A9C7401F022EF6D
:10549700B4C207900A9C7402F022EFB4BF06900AC8
:1054A7009C7403F022120025900A7EE0FCA3E0AA78
:1054B70004F92290960AE054F7F022900AC4EFF01C
:1054C70012186A7F0012153D7B017A0879497F001F
:1054D70012153DB107E0900859F0E4A3F090084198
:1054E70004F07E007F057D00FB7A0879421287C6AB
:1054F700B1237D01E4FF1218719008587401F0225E
:10550700900737E0900852F0900738E0900850F085
:10551700900735E0900851F09009D5227D017F056D
:1055270012B9887D017F0612B9887D017F0212B901
:10553700887D017F0312B9467D017F0112B9467D3F
:10554700207F0E12B9467D207F0F12B9467D207F3E
:105557000B12B9887D207F0C12B9467D207F0A0285
:10556700B988900AC5EFF022900AC6EFF0222222EE
:10557700222222900858E0B4010312190A2222902D
:1055870008B0E024F7700280037F0022900A7AEFC8
:10559700F0E4FF1217A7EF30E10B900ACAE0D394AB
:1055A700195002C13EE4900ACAF0900A7AE06004FA
:1055B700D158D14F7F041217A7EF20E3777F3C7EA6
:1055C70000128AF81217E8FFC394B6EE9403400955
:1055D700D3EF94BAEE94034012C3EF941FEE9404F2
:1055E7004012D3EF9423EE94045009D147941E4000
:1055F7000C7F0122D147940A40037F0122E4900ADD
:105607007CF0900A7BF01222C87F041217A7EF7F65
:105617000130E0027F00900A7CE02FF0E0D3940392
:1056270040037F0122900A7BE004F0E0C3940A4024
:10563700D57F00227F0022900ACAE004F07F032270
:105647007F021217A7EFD3229006F3EEF0A3EFF035
:10565700227F0A1217A7EF54037F00FEC006C00778
:105667007F071217A7EFFDD0E02DFFD0E03400FE33
:10567700EF24B0FFEE3404C313FEEF13FF22229092
:1056870009B5EEF0A3EFF09009B91285E6E49009A9
:10569700B7F0A3F09009B5E0FEA3E0FFC39009B807
:1056A700E09F9009B7E09E50209009B91237E3FFB9
:1056B7001200E19009BAE475F0011281D79009B799
:1056C700E475F0011281D780CB221284D3900A3D72
:1056D700128570900A3EE0FF1200E1900A3FE0FF5A
:1056E7001200E1900A40E0FF0200E190092F1285C5
:1056F700709009331285E6E4900938F14090092F3C
:10570700D1D17FFF1200E1900936E0FEA3E0FFC38D
:10571700900939E09F900938E09E501A12002590B1
:1057270009331285DD900938F197900938E475F04F
:10573700011281D780D102378FF0A3F07F0B023798
:10574700509009451285709009491285E6E4900941
:105757004EF1409009451237C97FFF1200E19009C9
:105767004CE0FEA3E0FFC390094FE09F90094EE095
:105777009E501A1200259009491285DD90094EF1B5
:105787009790094EE475F0011281D780D102378FC7
:10579700E0FCA3E0F5828C83EF02814E9009EC12C6
:1057A70085707F4312374A12378F9009F0E0FF1256
:1057B70037509009F0E064C760069009EC1237C9CA
:1057C70012378F0237AC9009F5F09009F112857006
:1057D7007F0612375012378F7F021237509009F128
:1057E7001237C99009F5E012378B0237AC9009FBE5
:1057F7000285707E007F377D007B017A0779D6129C
:1058070087C6900A9CE07002FF227A0779D67B014F
:1058170090097BE4F0A37420123D4D122EE87FFE21
:105827007E017DAA7C559007D6122FBD7007900781
:10583700F604F08012E49007F6F0FE7F20FD7B016E
:105847007A0779D61287C69007DEE0FFA3E09000BB
:105857002CCFF0A3EFF09007827401F0FF2290089D
:105867000912857C0000000022900006E0B40304C2
:1058770011898009900006E0B404061165D080D034
:105887008022229007C21284DF9007CA123543E4B0
:10589700FB7A02F9F81282CD900809028570900010
:1058A70006E06404600221C190045AE0B402359016
:1058B7000456C083C0821284DFC000C001C002C08A
:1058C700039004531285DD90001F128465D003D026
:1058D70002D001D0001282B2D082D083128570909C
:1058E700045AE4F090045AE07028900456C083C02C
:1058F700821284D3C004C005C006C00731C231D6A6
:10590700D007D006D005D0041282BFD082D0831230
:10591700857031C29004561284DF1282B2C004C06F
:1059270005C006C0079004531285DD90001F12843E
:105937006531D6D007D006D005D004C31283F850FE
:105947002531C2A804C004C005C006C0079004538F
:105957001285DD90001F128465D003D002D001D0DC
:10596700001282BF801431C29004561284DF128263
:10597700B2EC33500B31C21283EA90045612857091
:1059870031CE2427F9E43AFAC003C002C00131DF5F
:10599700D001D002D00312849531CE2423F9E43A02
:1059A700FAC003C002C00131DFD001D002D0031218
:1059B7008495118AD080D0807F012290045312856C
:1059C700DD9000270284659004531285DDE922AB40
:1059D70007AA06A905A804221284EB90045612848C
:1059E700D30282B290083FE0FF2290081512857C0F
:1059F700000000009008197401F090081CF0E49072
:105A0700083BF0A37403F0A37401F090081F1285FC
:105A17007C0002EE0090081D74ACF0A37444F09073
:105A2700081B7401F0FF22E490083FF07D017F011D
:105A3700020EA67F241208969009D5E0FFAE07EE66
:105A47009005C993FDFF0228541227837F0130E098
:105A5700027F00221227837F0130E1027F0022129A
:105A670080001207FD12010002DFFE90B100E07F07
:105A77000030E5027F0122900AA0E07002518BB14D
:105A87004502266C9096457403F09182EF6018905A
:105A970006A0E06407601090099D740BF0A374B82A
:105AA700F09006A07407F09006A0E0FE702B911905
:105AB700EF600C916BEF7007900998F0A3F02291BB
:105AC70043FCC3E5F09464EC9400500281189160A4
:105AD7007402F090099714F022EEB401269119EFA1
