:100000000204170268884D564600220268890001E2
:100010000203220268C402187622220269127F00BB
:10002000222222026913E4C3FA90960AE04401F006
:1000300054FEF0909609E0A2E2E492E02A23FA90BE
:10004000960AE04401F054FEF0909609E0A2E2E442
:1000500092E02A23FA90960AE04401F054FEF090D0
:100060009609E0A2E2E492E02A23FA90960AE0449C
:1000700001F054FEF0909609E0A2E2E492E02A2317
:10008000FA90960AE04401F054FEF0909609E0A23E
:10009000E2E492E02A23FA90960AE04401F054FE4A
:1000A000F0909609E0A2E2E492E02A23FA90960A00
:1000B000E04401F054FEF0909609E0A2E2E492E000
:1000C0002A23FA90960AE04401F054FEF090960933
:1000D000E0A2E2E492E02AFA90960AE04401F0EA13
:1000E000FF227808EF33FF90960AE092E154FEF089
:1000F00090960AE04401F0D8EB229003F30284D3F7
:100100000000220000220000220000220000220045
:100110000022000022000022000022000022000035
:100120002200002200002200002200002200002203
:100130000000220000220000220000220000220015
:100140000022000022026CB6000022000022000003
:1001500022026C7802480202379F0000220000222F
:10016000000022000022000022021B90000022005A
:100170000022000022000022000022000022024A89
:100180006B000022027287000022000022027382AC
:10019000000022000022026F250000220000220041
:1001A00000220000220000220000220000220000A5
:1001B0002200002200002200002200002200002273
:1001C0000000220000220000220000220000220085
:1001D0000022000022026E79026F12026BA9022D2A
:1001E000ED026E820000220000220256DC0267D17E
:1001F0000000220000220000220000220000220055
:100200000022000022000022000022000022000044
:100210002200002200002200002200002200002212
:10022000000022000022026C3D0238000000220083
:100230000022000022000022000022000022000014
:1002400022024C870000220000220000220000222F
:10025000000022000022410ABA00410AB400420A0A
:10026000B50000420AB70000410AB9004109DD00AB
:100270004109DC004109E8004109DA00420A1000A6
:1002800000420A0E0000430A12FF0604430A0BFF55
:100290000613430A08FF06224109B8004209C300B9
:1002A000004409AE0C020307410A1E00410A200067
:1002B000410A1800410A1700410A1F01410A1500AE
:1002C000410A16004209D300004209D10106420941
:1002D000CC00004209CA01084309D5FF0630430992
:1002E000CEFF063F4309C7FF064C4209C5006342E3
:1002F00009D80063410BA801410BA902410BAB00D7
:100300004107610041075F00410762004107730038
:100310004406F9FFFFFFFF4106F30041098F014446
:10032000098200000000420980006444098B00003B
:100330000000410A7300420A740000420A7600007D
:10034000420A700000410A7200410A6F00410A2A05
:1003500000420A220000410A2B00410A2C00410AF7
:100360002401410A2100410941FF4109420041099C
:1003700043FF450905000000000041091B00410B37
:10038000B302410869004109020041090300410923
:100390009B0041099C00410BB500410BB401520880
:1003A0004C12011001000000400000020210000188
:1003B0000203014C079300000008001DC3FF030067
:1003C0000200480781001DC3FF000002004C0774B3
:1003D0000B00000800020000000002004D07E0557D
:1003E0005342530870BA840000000000420BB80367
:1003F000E8410AA700420AAA01F4410AA400410BFD
:10040000BB01410BBA01410BBF00410B9C01410BE9
:100410009A00410B9B0000126762787FE4F6D8FDDA
:10042000126862EFFD9006D96003A3DFFD7F277E8F
:1004300011C3EF9DFF50011EE4F0A3DFFCDEFA754F
:10044000810B1266FD0204830228C4E493A3F8E43E
:1004500093A34003F68001F208DFF48029E493A31C
:10046000F85407240CC8C333C4540F4420C8834035
:1004700004F456800146F6DFE4800B010204081004
:10048000204080900256E47E019360BCA3FF543F5D
:1004900030E509541FFEE493A360010ECF54C0253C
:1004A000E060A840B8E493A3FAE493A3F8E493A32C
:1004B000C8C582C8CAC583CAF0A3C8C582C8CAC590
:1004C00083CADFE9DEE780BEBB0111F8E58229F5CA
:1004D00082E5833AF583E0C828F0E8225009C58216
:1004E00029F8C58226C622BBFE0DC58229F8E2C5C1
:1004F000822582F2E58222EA2583F583E99322BBF5
:10050000010FF8E58229F582E5833AF583E028F0CA
:10051000225009C58229F8E58226F622BBFE09C5CC
:100520008229F8E22582F222F8EA2583F583E9930D
:100530002822F8E0FBA3A3E0F925F0F0E58215827C
:1005400070021583E0FA38F022D083D082F8E49369
:100550007012740193700DA3A393F8740193F58244
:100560008883E4737402936860EFA3A3A380DF55CC
:1005700053424300008002021F0000004D565349C1
:10058000000000004361726420526561646572007E
:100590000000000056312E30030000007000020001
:1005A0000000000A000000003A0000000000700097
:1005B00005000000000A0000000024000000000008
:1005C000ED0303543FFD8E838F82E090A621E0F877
:1005D0008E838F82E090A621E0FB8E838F82E09055
:1005E000A621E0FC8E838F82E090A621E08A838999
:1005F00082C8F0A3EBF0A3ECF0A3E8F0A3AA83A9D0
:1006000082DDC3224D5653494C49434F4E2E494E2D
:10061000432E004D5620434152442052454144450B
:1006200052003230313130393031313233343500EB
:100630004D5653494C49434F4E2E494E432E004D83
:10064000562055534220415544494F0032303131F4
:10065000303930313132333435008F828E83ED7052
:1006600004EC600B1CE06455F0A3DDF90206612286
:100670004641543136000000000403090409028792
:100680000003010080FA09040000000101000009D4
:1006900024010001280001010C24020101010002D3
:1006A000030000000A2406020101010202000924DD
:1006B000030301030002000904010000010200001D
:1006C00009040101010102000007240101010100E8
:1006D0000B2402010202100144AC0009050409C008
:1006E00000010000072501010000000904020001CB
:1006F00003000000092101020001222100070583F7
:10070000034000010902200001010080FA090400F1
:10071000000208065000070581024000010705029B
:100720000240000109029E0004010080FA09040051
:10073000000208065000070581024000010705027B
:100740000240000109040100000101000009240128
:100750000001280001020C24020101010002030033
:1007600000000A2406020101010202000924030319
:100770000103000200090402000001020000090454
:1007800002010101020000072401010101000B2404
:1007900002010202100144AC0009050409C0000175
:1007A0000000072501010000000904030001030007
:1007B00000000921010200012221000705830340F6
:1007C0000001050C0901A1011500250109E909EA4B
:1007D00009B509B609E209B309CD09B7750195084C
:1007E0008142C02E2C2A2927262423211F1E1C1BB0
:1007F00012C94690060FE0900610F02222FFFFFF7C
:03080000140108D8
:10080700022FE805320007D001F4006401F400C8A4
:10081700320AC350271007D014503C140A1E140084
:1008270000000000000000000002FAFCFDFEFCFAD8
:10083700FA0202FF02FFFDFAFAFAFDFF0202FFFFCA
:100847000002020202FDFAFAFF0200FF00020201A3
:10085700FFFEFAFEFEFEFCFAFE02FE02FFFFFDFAB5
:10086700FAFAFA0202020101FFFEFEFEFDFDFDFAA1
:10087700FAFF010202020202FFFD02020202020265
:10088700FD0202FFFAFF020202020202020000005A
:100897001A001F0024002A0031003A0043004E00CE
:1008A7005B006B007D009300AD00CC00F0011A01E6
:1008B7004C018701CC021D027C02EC0370040B047F
:1008C700C20599069607C0091E0ABA0C9E0ED85A89
:1008D700A55FA05EA15DA25CA359A65BA400000072
:1008E7000000000000000000000000000000000001
:1008F70000000000000000000000000000000000F1
:1009070000000000000000EAF6E9F3E7A1F7E3A51D
:10091700BDADB5BAB9BBE6B8F2F8BFBC0000000080
:10092700000000E9EDEFFBFAF9F7F6F5F3F2F1FF56
:10093700FDFEEEE7E6E5EBEA00000000000000FA46
:10094700F9F7F3F2F1EFEEEDEBEAE9E1E5FFE7FEA8
:10095700FDFBF6F501020304E100000000000000C2
:100967000100000014640000585A590007000000F5
:100977000600000065651200666613003F3E3A36C2
:1009870033302D2A272523211F1D1B191715131156
:10099700100F0E0D0C0B0A0907060402013F3E3A21
:1009A7003633302D2A272523211F1D1B1917151410
:1009B700131211100F0E0D0C0B0A090807069006EB
:1009C700D7EFF0E01313543FFF12B8751240B390FE
:1009D70006D7E01313543F25E025E0FF1207F090F8
:1009E7000AED7401F02274FFFFFE12B83F1247E1CF
:1009F7007F0112B8757F011207F0E4900AEDF0024B
:100A07009766900B92EDF0900B91EFF0641D6004E8
:100A1700E0B41E037F0022900BB2E07002FF229029
:100A27000AEFE0900B93F012CECF1267DE900AEE3A
:100A3700E0B40402F1BC31F4900B91E0FF1250AA2C
:100A4700125141EF600512976680F5126BE1900B2A
:100A570093E0900AEFF0900B92E06006126BED12B4
:100A670010037F0122E4900B85F0A3F07F01125859
:100A7700CD9006FEEFF0900760E0602B9006FEE059
:100A870070257B017A07796E12B5E4EF60191221A0
:100A97001BEF700E900701E07D06B401027D07127F
:100AA7002738E4900760F09006FDE0640670028145
:100AB700E6A3E01205490BDE060BEA070B6A0C0BEF
:100AC70000120B2A130BBC150C4C210C0B260C0B1C
:100AD700270C28280C28290C0B2A0C282B0BDE2C7A
:100AE7000BEA2D0BA12F0B57300C4C3C0CB7630BAB
:100AF70000650B2A6600000CE6125DD95006900BC4
:100B0700861259EA9006FEE06465600281E6125D8E
:100B1700CB600281E6900B86E0600281E67D017F73
:100B27001580291226F34006900B851225A59006FD
:100B3700FEE06466600281E6900AEFE0600281E60B
:100B4700900B85E0600281E67D017F16510981E601
:100B57009006FFE0B40304E4F080389006FF7403C6
:100B6700F080309006FFE0700404F08005E4900602
:100B7700FFF09006FFE0B4040B9007027401F090B9
:100B870007328008E4900702F0900730123468F0CB
:100B970012693C7F01126AA381E6900700E004F026
:100BA700E0C3940B4002E4F012563C12693C7F010B
:100BB700126AA981E6900AF0E060119006FDE0B4A0
:100BC70002047D018002E4FD7F1B8004E4FD7F1A9F
:100BD70051091217F381E6B1D2500281E6B1B3E4AD
:100BE700FF800AB1D2500281E6B1B37F01125B30B8
:100BF7007B017A07796E7FE87E03FDFC12B5B29020
:100C07000760803CB1D5500281E6B1B37F02125B29
:100C17003012211BEF600281E61223F09006FD805F
:100C27001FB1D5500281E6B1B37F03125B301221A9
:100C37001BEF600281E67D077F011223F49006FD1A
:100C47007401F081E6122596FFC390002DE09F9076
:100C5700002CE09E402E126CEF4029900702E070B6
:100C67002390072EE06E7003A3E06F6017B1B39077
:100C77000A22123468F01247D912211BEF70057D42
:100C870006122738125E90900A22125DD29FEC9EC0
:100C97004011D3ED9400EC94004008D1067FE87E24
:100CA700038006D1067F007E00F1591247D9802FB5
:100CB700900869E0B40128E4900B87F09006FDE006
:100CC700B402091267F4900B877401F01255B190C2
:100CD70008697402F0900B87E0B401031221DA125D
:100CE70077776016900762E0701004F0FB7A077957
:100CF700631277169007737401F09006FDE0B40253
:100D07000C900762E06006E4F0900773F0900773B9
:100D1700E0602412775412B5E4EF601B1277776016
:100D27000C12433EE4FD7F1B1240E2800AE4900769
:100D3700731277531247BC9006FDE014601124FE2E
:100D4700600804700D1221DA80081267F48003121C
:100D570068469006F3E0600D126C31EF6007E4908F
:100D670006F3F080279006F3E07021126C31EF70E4
:100D77001B9006F304F09006FDE0B4020F1200FA90
:100D8700EF2401FFE43E12562512620B1200FA907F
:100D970006F9122A54601412772D122289400C1278
:100DA70000FA9006F912857012693C221221D312BB
:100DB700A68F9003F312857C0000000012273CE405
:100DC700FDFFF1C07F647E00028AF812186BD39092
:100DD700002DE0940190002CE0940022E054FDF0F7
:100DE700E054DFF0E054FBF0E054BFF0E04401F0E2
:100DF700E04410F0E4FDFFD18AE4FD7F01D18A7B56
:100E0700017A09791622124212600D14602924FD15
:100E170024FD50482408706512770F90091D70084B
:100E2700B1E37FE87E038053127636D1857D01D109
:100E3700027F007E00804412770F701590091D1203
:100E4700653154BFF07D01E4FFD1047FE87E038064
:100E5700091276E2D1047F007E00801F12770F709F
:100E67001190091D1276CAE4FDFFD1047FE87E03C5
:100E770080091276E2D1047F007E00F15922F07DCD
:100E870001E4FF900BB1EDF0900BB0EFF07010A301
:100E9700E07D017F01600512B988800312B9469091
:100EA7000BB0E0B4010EA3E07D207F0A600302B916
:100EB7008812B946221227066005EF6402704C12A9
:100EC7007777700B90091DB1E37FF47E01803A902C
:100ED70006FDE0FF64016005EF64037011127633CD
:100EE700F012411B7D01D1027F007E00801B90061E
:100EF700FDE0600464067013127633D1857D017FAF
:100F070001D18AD1067F007E00F15922900AEEE0D6
:100F17006403703312770F700F90091DF012763645
:100F2700B1FA7FF47E01801DE490091DF0E054FDC5
:100F3700F0E054DF12653154BF1276CA7D01E4B187
:100F4700FD7F007E00F159227B017A09799E7F009F
:100F57007E007D007C0002B5B2900AEEE0FF6406D9
:100F6700600AEF64076005EF64087048900ADAE0EA
:100F7700B4010B1276E2D1047F007E008034900A20
:100F8700DAE06402702EFDFFD18AE490091DF0902B
:100F97000AF0E090091DB4010B1276CBD1067FE869
:100FA7007E03800EE04404F0E04440F0D1067FF475
:100FB7007E01F159227D017F01900BC4EFF0ED64B2
:100FC700017006123B5412B988900BC4E0B4011D9E
:100FD7001239F2900AEEE0B40305E4FF12104290D2
:100FE7000AEEE0B40C0FE4FF1210428008E4FDFCA7
:100FF700FFFE122758900ABA7401F022900AEFE018
:101007006038900ABAE064017018900AEEE0B40301
:10101700077FC01142125F73900AEEE0B40C03120F
:101027006BF6D11E1226F3400C900A1FE0700612D1
:101037003B5412B946E4900ABAF022900BCAEFF07B
:10104700F18B9009DCF0900BCAE0F0FF9009DDE02E
:10105700B50706F12770022183900BCAE07016715D
:10106700FD6002911AD117600291B671F6700221E4
:101077007331842173900BCAE0FF54096037D1178D
:101087006007EF5424700291B671F660201277362C
:10109700701BEF54C070169009DDE05412600431E4
:1010A70084800A9009DDE054C06002B18571FD6457
:1010B7000960029160127736602D71FD6007EF5469
:1010C700097002911AD117600A900BCAE054247074
:1010D7000291B671F6600BE05412FFF1276F6002C0
:1010E7003184F127FF5137900BCAE0FF5424601D6C
:1010F70071FD6007EF54097002911A71F6600C12C6
:1011070077367007EF54C07002318491FE900BCA96
:10111700E0FF54C0605671FD6007EF5409700291FB
:101127001AD117600A900BCAE05424700291B67165
:10113700F66006F1277002318471F6FFB412047F5E
:10114700C0800EEFB402047F408006EFB410027F28
:1011570080EFD39400400B900BCAE054C06F60023D
:10116700B185900BCAE054C0FF123860900BCAE0FB
:10117700FF9009DDE06F6002EFF0D1B6227F011228
:1011870037E6F1945004AF068000900BC8EFF0905B
:101197009C41E09009E7F0909C42E09009EAF090CA
:1011A7000BC8E0C394405013129766900BC8127790
:1011B7007E912E900BC8E004F080E491A9909C4F9B
:1011C700E0549F51165103909C4FE054E7511690FD
:1011D7009C4CE054FCF07F147E00511B12002171DF
:1011E700EDEFF47002EEF4601271EDEFF47003EEC0
:1011F70064FE6007909C48E04401F022909C49E01F
:1012070054EDF07F027E00511B909C4FE054F9F0A3
:101217007F027E00900BA0EEF0A3EFF0900BA012E0
:10122700345645F06009129766912E912E80ED2273
:10123700900B79EFF0909C4E9112909C4DE0543FAB
:10124700900B7BF1ED7002EEF4601271EDEFF4702C
:1012570003EE64FE6007909C48E054FEF0909C4CBF
:10126700E04403F0909C41E4F0A3F0909C4FE044ED
:10127700185116909C4FE044015116909C4FE04442
:10128700065116909C49E0441251167B017A097960
:10129700E07F107E27120F599009DAE0600261663D
:1012A700909C4BE020E058909C4BE030E00261605E
:1012B700F1A16002616071EDEFF47002EEF4600B72
:1012C70071EDEFF47003EE64FE7022900B7AE01478
:1012D7009104909C4EE07023ED643F607C900B7A04
:1012E7007440F0A3E025E0F04401F0800E900B7A03
:1012F700E014909C4EF09112E0605EF1E780A890B8
:101307009C4BE030E053909C4BE030E04CF1A170F7
:101317004871EDEFF47002EEF4600B71EDEFF470CD
:1013270003EE64FE701F900B7AE0049104909C4ECC
:10133700E0643F7020ED6021900B7A74FFF0A3E02A
:10134700C313F08010900B7AE004909C4EF091123A
:10135700E0643F6004F1E780AD9009DA7401F05171
:1013670003909C4FE054FE5116123A88909C4FE030
:1013770044065116909C49E044125116909C4FE048
:101387004460511612000A9009DCE07003F1DAF0AC
:1013970091B01239E55004AF068000900B7BEFF057
:1013A700900B7A743FF0900B7BE0FF900B7AE0D3C1
:1013B7009F402A1239DDFF900B7AE0FEC39F40055C
:1013C700909C41EEF01239D59F4008900B7AE0903F
:1013D7009C42F0912E900B7AE014F080C99009E7B7
:1013E700E01239C9F02290966BE0FEA3E0FF22904D
:1013F7009C49E0541222909C49E0540922909C4E4B
:10140700F0900B7BE0FD909C4DF0A3E0543F900BD8
:101417007AF022123A5A91A9909C48E04422F1832B
:1014270054F6F1714411F012B8A0EFFD7C007E0173
:101437007F90128182EF2401FFE43EFE909904E041
:1014470020E00BEF7802CEC313CE13D8F9FFEF1FBE
:10145700AC0670011E4C70F622909C437403F0A3F7
:10146700F1834409F17154EEF17154DDF0912E715D
:10147700EDEFF47002EEF4600871EDBEFE0ABFFFF7
:1014870007909C4374028005909C437401F0A3F07D
:101497001277F47004F1DA91AF1277DC7F507E0097
:1014A700411B909C48E04444F07F0A7E00411BF1B9
:1014B700945004AF068000900BC7EFF0909C41E07A
:1014C7009009DEF0909C42E09009DFF0900BC7E0B6
:1014D700C394405013129766900BC712777EF1E1C1
:1014E700900BC7E004F080E491A9909C49E054DB9D
:1014F700F07F037E00411B123A88F1844424F09167
:101507002E909C47E04403F07FF47E01511B909C92
:1015170047E054FCF01277F47003F1DAF091B0F180
:10152700945004AF068000900BA2EFF0A3743FF035
:10153700900BA2E0FFA3E0D39F4032129766900979
:10154700DEE0FF900BA3E0FEC39F4005909C41EEB9
:10155700F09009DFE0FFEEC39F4008900BA3E090F7
:101567009C42F0912E900BA3E014F080C39009DE0B
:10157700E0909C41F09009DFE0909C42F022123904
:10158700E55004AF068000900BC9EFF0900BC9E05F
:10159700D3943F502B129766909C49E030E1089016
:1015A7000BC9E0909C41F0909C49E030E408900B17
:1015B700C9E0909C42F05117900BC9E004F080CC31
:1015C700909C49E030E107909C48E04404F0909CEF
:1015D70049E030E407909C48E04440F091B0909C8B
:1015E70049E030E10312406B909C49E030E403127C
:1015F70040635117909C49E030E104E054FDF090BE
:101607009C49E030E404E054EFF07F027E00411B88
:10161700909C49E0542422F18B7002C1B6123A889B
:10162700F18D600AE054BBF07F1E7E00511B71FDF7
:1016370060031277DCD1177005E054126071D1177F
:101647006011F1945004AF0680001277D4F090092E
:10165700DF80101239E55004AF0680001277D4F00E
:101667009009EAE0900B34F0900B35743FF0900B43
:1016770032E0FF900B35E0C39F4034129766900B22
:1016870035E014F0900B33E0FF900B35E0FEC39F7D
:101697004007EE543F909C41F0900B34E0FFEEC3BF
:1016A7009F4008A3E0543F909C42F0912E80BF904A
:1016B70009DBE0701612773EC083C082E0FFA3E02B
:1016C70054FED082D083CFF0A3EFF022AE07F1AF64
:1016D700909C46E04410F0AF06123853120F599011
:1016E7009C4BE020E204F1A160F5F179E04480F041
:1016F7007F01F17BE04420F0912E909C45E044056A
:10170700F0912E909C46E0547FF0F1E1909C49E0E7
:1017170054BFF0912EE49009E8F09009DDF0808F36
:10172700900BCAE0541222900BC6EFF0F179E04417
:101737008091AF909C45E054FA91AF909C46E0545D
:101747007F91AF909C46E054DF91AF909C46E05468
:10175700EFF0900BC6E0FF123853120F59909C4BD5
:10176700E020E305F1A160F52222F0912E909C483C
:10177700E0227F647E00511B909C4622F0912E90C0
:101787009C49E022F1AF909C48E05444229009DF45
:10179700E0FF9009DEE0FEC39F221297667B017A85
:1017A7000979E012B5E4EF221277A730E0027F0152
:1017B7009009DBEFF0909901C083C082E0FFA3E0BE
:1017C7004401D082D083CFF0A3EFF0909C06E04491
:1017D70080F022909C48E054BB227F017E00411B91
:1017E7007F057E00411BF071EDEFF422900AF0E0D7
:1017F7006006E4F01103800B900AF07401F0FDFF1E
:10180700120FC090091BE0B40103120E0D22900BBA
:10181700CFEFF0126AE9601324FD24FD502724FD61
:101827006016240A702512685C8020900BCFE06454
:10183700036018125F848013900BCFE0640C600B79
:10184700123A6880061257DF120016900BCFE0900D
:101857000AEEF0900BB5F0120FBCE4900AF0F0120C
:10186700691B110A90091BE0B40103126ABC22111B
:101877008690966AE4F0900ADAF090079FF022D3F8
:1018870010AF01C3C0D0909644E054FCF0D0D09282
:10189700AF229096457403F0517EEF60189006A032
:1018A700E064076010900AAA740BF0A374B8F09074
:1018B70006A07407F09006A0E0FE702B5121EF60A0
:1018C7000C5160EF7007900AA5F0A3F022514BFC72
:1018D700C3E5F09464EC9400500241205155740222
:1018E700F0900AA414F022EEB401265121EF700201
:1018F700411E5160EF6002411E900AA5514FFED371
:10190700E5F09464EE940050024120E49006A0F0C4
:10191700229006A0E06402703D51385121EF600A21
:101927005160EF7005515604F02212001EEF64015A
:1019370070024120900AA8514EFEC3E5F094D0EE04
:10194700940750024120E4900AA8F0A3F0518F9029
:1019570006A07403F0229006A0E0FE6403701F51F6
:1019670021EF7016126E445121EF60081186515510
:101977007404F02211865138411E5138411EEEB4CD
:10198700041A5121EF60045138411E514BFED3E533
:10199700F094F4EE940150024120800D9006A0E0EF
:1019A700FEB4051D5121EF70079006A07406F022C2
:1019B700514BFCD3E5F09432EC9400405C513880F5
:1019C70056EEB40614126E71EF600251775121EF93
:1019D70060479006A07405F0229006A0E0FEB407C9
:1019E70021517EEF70069006A07406F0D3900AABE3
:1019F700E09400900AAAE09400401E74FFF5F002FC
:101A070081D7EEB4080F1186518F5121EF600A116B
:101A170086513880025138517722900AEEE0B4049B
:101A270008909612E05402FF2290A628E05404FF83
:101A370022D310AF01C3C0D0909644E04460F0D0E9
:101A4700D092AF22900AA5E475F0010281EDE490EF
:101A57000AA5F0A3F09006A022900AEEE0B40408CD
:101A6700909612E05401FF2290A628E05402FF222C
:101A77009006A07402F022909644E05403FFBF033F
:101A8700047F0180027F0022D310AF01C3C0D09032
:101A97009644E0549FF0D0D092AF2212C8CB90A6C4
:101AA700227409F0909883E4F0518F1186126A70BE
:101AB700126E441277C6E4FDFF1277BE7189444067
:101AC700FD7F011277BE718954DFFD7F017EA3126E
:101AD7008F80E4FF126E5751E6E4900AA7F0227F49
:101AE7008151EC7F02900BE8EFF0547FF145900BAA
:101AF700E8E030E737718754DF717F4440B18DD11B
:101B07003DC006B109D0E04FB18D7F1371897F00C9
:101B1700FEC007C006B109D0E0FED0E0EE4420FDCC
:101B2700F19D7D407F10F1AD7F1180477F16718950
:101B370054BFFDD1477F1671894480FDD147D13D00
:101B4700C006B109D0E04FB18D7F1371897F00FEC8
:101B5700C007C006B109D0E0FED0E0EE54DFFDF1CA
:101B67009D7D407F14F1AD1277907F1671894410E7
:101B7700FD7F167EA3028F80FD7F127EA3128F80CA
:101B87007F127EA3128C84EF22D080D0807B017AD3
:101B97000A79399006A1125619FD12B5B27B017A5E
:101BA7000A793E7F64120F5790057AE06403703B11
:101BB700F13C900A43EFF030E6147F1671894480B8
:101BC700FDD1477F167189549FFD7F16807690055A
:101BD7007BE0600B125B2720E00281987F01229057
:101BE7000A43E020E00281987F012290057AE064B1
:101BF700047030B109900A43EFF030E50D71874466
:101C070080717F54DEFD7F12803A90057BE060098A
:101C1700125B2730E07B7F0122900A43E020E071CE
:101C27007F012290057AE060046402702CD13DC0E8
:101C370006B109D0E04F900A43F030E212718754A1
:101C4700D9FD7F127EA3128F8012935E7F002290B0
:101C57000A43E020E13B7F012290057AE0640170AE
:101C67002D7F1371897F00FEC007C0067187FDD0E5
:101C7700E0FED0E04DFF900A43EEF0A3EFF030E234
:101C8700037F0022900A44E030E0067F01227F00B4
:101C9700227F607189645D60037F00227B017A0A7D
:101CA700793912B5E4EF7006129758EF7035F13CA9
:101CB700900A43EFF054DF4401FDD14790057AE0E5
:101CC70064037014A3E070107F32FE1290017F1638
:101CD700718930E0037F0122718754D6B18DB18CB1
:101CE7007F00221297667B017A0A793E12B5E4EFEC
:101CF700700261AF7F0112AFF6EF6401600261AF5E
:101D0700FF227F127EA3028C84900BE7EFF0540F23
:101D1700F145900BE7E07025D13DC006B109D0E051
:101D27004FB18D7F1371897F00FEC007C006B109CF
:101D3700D0E0FED0E0EE4401FD7F138042900BE738
:101D4700E030E74071874408B18DD13DC006B10945
:101D5700D0E04F4410B18D7F1371897F00FEC0071B
:101D6700C0067187FDD0E0FED0E04D4410EEFDF1D6
:101D77009D126618718754CF717F4440FD7F127E94
:101D8700A3128F8022E4FD7F127EA3028F80126E42
:101D97006AEF30E20FE4FF126E577F0451EC7F8148
:101DA70051ECF1047B017A0779F87D08125DE9EFC0
:101DB7007002C13C9007F8E020E7119007FEE06051
:101DC7000B7B017A0879617D08125E309007F8E095
:101DD7005460704AA3E01205491DFF001E3C011E16
:101DE70001031E07051E11061E14081E16091E1FD5
:101DF7000A1E3C0B00001E2180209007FCE0801B80
:101E07009007FAE0547FFF026E57025C47801B5130
:101E1700E67F8351EC024FE88010E4FFA1109007A2
:101E2700F8E0B4A10DA3E0B4FE087D01E4FFFE02D3
:101E37005EC9124931227F137EA3128C847E002251
:101E47007F167EA3028F80900AE11285E6900AE44E
:101E5700ECF0A3EDF07D02F146C3900AE4E09402B2
:101E670050527F16718920E004E4FEFF22E4FD7FD3
:101E770002125B5CEF7003FEFF22125E89900AE696
:101E8700EFF0FDC2AF900AE11285DD7F287EA31235
:101E97008A06D2AF900AE6E070097F16718954FE70
:101EA700FDD1477F16718954FEFDD147900AE6E0C0
:101EB700FF7E0022900AE1127703900AE11276F77B
:101EC700900AE4127749900AE412776E125B38EFB2
:101ED7007003FEFF227D01D1477DA01277AF7D2DD4
:101EE700123379125B06E4FD1233797D017F16F117
:101EF700AD1277AF900AE4E0FEA3E0FF227D04F184
:101F0700467DC07F14F1AD1277907F17D13FC00691
:101F1700F13CD0E04FFDD1477F1771897F00FEC0AC
:101F270007C006F13CD0E0FED0E0EE4440FD7F174D
:101F37007EA3028F807F167EA3028C84F0E4FD7F50
:101F47000E7EA3028F80900B101285E6900B13EC88
:101F5700F0A3EDF07D03F1467F0E71896403600401
:101F67007D03F146900B13A3E0FD900B101285DD66
:101F77007F2C1277B6B18EF19B900BB8E4F0A37467
:101F870032F0E4FD7F03125B5CEF70047D08800292
:101F9700E4FDB18E7D207F137EA3028F807EA31286
:101FA7008F807D107F087EA3128F80E4FD22126947
:101FB7001B7F0112CD82E4FD7F06F1AD7F07F1A4FF
:101FC7007F09F1AD125F40F104D310AF01C3C0D058
:101FD7009004037420F0A3E4F012713FD0D092AFC5
:101FE70022126AE9600D24F7600E240A701712277F
:101FF700438008125F738003126BFB7B017A0679BB
:10200700DD7D01110D22900B461285E6900B49EDFF
:10201700F012697D1261A34002E4F012619B400255
:10202700E4F09006DB745AF0900AEEE0FF6004904B
:1020370006DCF0900AEFE09006DDF0126628400219
:10204700E4F0900AEEE0FBB40116900702E0900678
:10205700DEF0900A73E09006E3F11F9006DF801828
:10206700EBB40217900702E09006E8F0900A73E0DD
:102077009006EDF11F9006E912857012604F9006E9
:10208700F2EFF0900B461257D86033900B49E0609F
:102097002D7D5AE4FF12BA06900B461285DDC3E97F
:1020A70094DBFF900B461285DD900B49E0900B19EE
:1020B700F01262759006F2E0FD7F1712BA0622C38E
:1020C70074E8310FD39401400FE49006E8F07B01E8
:1020D7007A0679E87D01110DC374DE310FD39401BF
:1020E700400FE49006DEF07B017A0679DE7D011170
:1020F7000DC374DD310F900AEFE06F600A7B017A40
:102107000679DD7D01110D2294DBFF12BFF4900BE0
:10211700DBEFF0227B007A007900900B821285E6D4
:10212700E4900760F0900702E07015125E90D3907C
:10213700072FE09F90072EE09E4005E4F0A304F0F0
:10214700900B821285DD9005131285E690072EE02D
:10215700FFA3E0900516CFF0A3EFF031D3129C6BED
:10216700EF7007900BAA740580277B017A07793FE8
:102177007D0B126057900A73EFF07B017A0679DBCB
:102187007D18110D31D312CEE6EF7009900BAA74AA
:1021970007F07F00229003F312857C000000009077
:1021A7000768E0601DE4F01261F09003EF1284D33A
:1021B7009003F3122A54400A9003F312857C00001F
:1021C7000000125291EF7F017001FF227B017A0715
:1021D70079302231D312DB79EF600612CEB0EF707F
:1021E700119006FFE0640370227F0A12772F51894E
:1021F7004019120DB39006FFE064016005E4FF1279
:1022070059F8311BEF700471F080427B017A07792E
:102217006912B5E4EF6017900AF0E0701190075F5C
:10222700E0700B121003F14390075F7401F0125531
:102237003FEF701B120DB3900701E0FF64026003CC
:10224700EF70047D0680027D077F0171F4E13C1287
:102257006824600B24FE601814601524047018129B
:10226700CECF1267DE9006FD7403F0124220800481
:1022770012682BF012683322E47F487E0DFDFC9034
:10228700098B1284DFD302840E900BACEFF0E4A32A
:10229700F0D3900981E09400900980E094004022F7
:1022A7009009821284DFC000C001C002C00312651A
:1022B700A6E4FCFDD003D002D001D00012661F12A5
:1022C7006540900980E07002A3E0600261B87B641A
:1022D700FAF9F89009821284D312835890098B1265
:1022E7008570900980E4F0A37464F0A312857C00E4
:1022F700000000E47F107E0E5184400890097A7434
:1023070002F08019E47FAC5182400890097A740486
:10231700F0800A517F400690097A7405F0517F409A
:1023270015E47FAC7E0DFDFC90098B122A545006F4
:1023370090097A7405F0900BACE0B4010A517F5014
:1023470006900BAD7401F0900BACE0700A51805011
:1023570006900BAD7401F0900BADE06401705290E4
:10236700097A7406F012001212976690098FE060DE
:102377002DE4F07B017A0979867F107E27FDFC1218
:10238700B5B27D017F0F120A091277C6900AEEE0F7
:10239700640C701DB1F0EF701812100380137B01ED
:1023A7007A09798612B5E4EF6007E4FD7F0F1240E2
:1023B700E2020012121FE8900AEFE07010900ABACA
:1023C700E0700A900AF0F07D01FF120FC0900ABA80
:1023D700E0B40108D1F34004A37401F0900AF0E0DF
:1023E700B40105E4F0121003227D067F01900B3E35
:1023F700ED125EAFC3940840037F0022900B3EE0CE
:10240700FFA31285DD90000174011204C8FD12803C
:10241700F62DFD7C00ED5407FD900B3F125EA4E9FD
:102427002DF9EC3AFAEF12813C7F012212698E9066
:102437000BDDEFF06012120F4FE490099C127753F7
:102447001247BCE4900773F0900A2CE0B40106B180
:1024570096FF120019900A22E07002A3E06025B1EE
:102467008F12B5E4EF7007900BDDE0B42216B18F41
:102477007F887E13120F59900BDD7421F0E4900AC8
:102487002CF0A17A900BDDE0FFC394164074EFD3D4
:102497009420506EF1066007EF64026002A168F1B4
:1024A70015900BDDE0FBB4201BB196FF7C007D0A85
:1024B700128182ED4C60031247D9F12E900A2A74DB
:1024C70001F08026900A2AE06011EB24EAFFE43449
:1024D700FF900A228FF01281D7800A900BDDE0244B
:1024E700EAFF126A77E4900A2AF0E4900BDDF0B174
:1024F7008F7FD07E07FDFC12B5B2B196FF1200198F
:102507008071900BDDE0FFC39431405CEFD3943BC7
:102517005056F1066005EF64027058F115B18F7FD0
:10252700887E13FDFC12B5B2900BDDE0FFB43B04CF
:10253700F12E8007EF24CFFF126A77B196FF1200C2
:1025470019F1066004EFB40218125E90D3900A23C3
:10255700E09F900A22E09E5008900BDD743CF080CB
:1025670012E4900BDDF0800B900BDDE06005124765
:10257700D9F116900BDDE0FD600D7F0171F4900B32
:10258700DDE0FDE4FF71F4227B017A0A79252290D0
:102597000A22E0FEA3E02271BB7F0102001A740148
:1025A700F0E4FFEFB4010A125DD9500CE004F080AB
:1025B70007D1F34003E014F0900AEFE0B420117D57
:1025C700017F15F126B40C08B1F0EF700312100368
:1025D700900AEFE070117D017F16F126B40C08B167
:1025E700F0EF700312100380AE90099DE0FF22E424
:1025F700900B95F0A3F0D1FBEF601690099DE0706A
:102607001004F0FB7A09799E12771690099C7401E1
:10261700F0D1FBEF701C90099DE06016D1F34012DA
:10262700900A1FE0700490099DF0120F4FE4900983
:102637009CF090099DE06008123B5412B988800312
:102647001210037B017A09799E12B5E4EF602B9093
:10265700099CE06025D1FBEF6012123A9B12B98802
:1026670012433EE4FD7F1B1240E2800EE490099C7A
:10267700F07B017A09799E1247BC7B017A0979A41C
:1026870012B5E47F011258CD900B94EFF024ED6062
:102697003324AE600714602C2454704F125DD95058
:1026A70006900B961259EA900B94E06465703C1201
:1026B7005DCB7037900B96E070317D017F15F10E81
:1026C70070298024D1F34005900B95B1A5900B9408
:1026D700E0B46617900AEFE07011900B95E0700B6D
:1026E7007D017F16F10E700312100322900AEFE0AE
:1026F700D3940022E4FF126C1630E7027F00229089
:102707000AEEE0FF640122120A09B1F0EF22E49019
:102717000A2CF0900A2BF022F090074B0284D31278
:102727000A09900AEEE022900A22E475F00A028173
:10273700D77F0171F49006FD7401F022900AEFE053
:1027470025E02494F582E43408F583127788FDACFC
:1027570006900B2E126F061217AF1213EDEFF470DF
:1027670002EEF460671213EDEFF47003EE64FE609F
:102777005B900B2E1258A4C333CE33CED8F9FF7C0F
:10278700007D05128182900B2EEEF0FAA3EFF0FB8D
:10279700A31258A4C333CE33CED8F9FF7C007D05EE
:1027A700128182900B30EEF0A3EFF0D3EB94EAEABC
:1027B700940B4006900B2E1277ECD3900B31E094DC
:1027C700EA900B30E0940B40031277EC900B2E123B
:1027D70077E4A31277E4900B2EE0FCA3E0FDECC4B2
:1027E70054F0FBA3E04B9009E5F0AF05A3EFF090A1
:1027F7000B30A3E09009E9F0909C04EFF0909C0265
:10280700E0540FF0C083C082E0FF9009E5E0FE547A
:10281700F0FDEF4DD082D083F09009E9E01136E06A
:1028270054F0F0E0FFEE540FFEEF4EF00216B690B4
:102837009C03F0909C0222AE079009E8E0707D129D
:1028470017AFAF0612172E909C00E4F0909C49E05A
:102857004440F012142E1240AB7481F0909C001487
:102867001217ED7002EEF460091213EDBEFE0DBFF4
:10287700FF0A909C437402F0A3F0800D909C437470
:1028870001F0A3F0909C4AE4F0909C04E4F0113628
:102897007411F09009E7740AF09009EAF01239C947
:1028A700F0E49009DDF09009E804F0909C01E04421
:1028B70003F07F327E0012121B1216B622126FE14E
:1028C70074FFFFFE12B83F12B8CC129766E4900B64
:1028D700B4F01247E1126865D2AF12691412428B45
:1028E700128AF81247CB12691B31B19096023161F7
:1028F700909605E044403164909601E044401243CD
:102907003DE4FDFF316B123B5412B988E4FF1242DC
:102917005112654AE4FF113E126095F1C4126B38FB
:10292700123D44129766126591122433123B7512B9
:102937004212600F14601624FC601724FB60092400
:102947000B7012120A6C800D1225F6800812597846
:10295700800312080712422780C9E054BFF0A3E0A2
:102967004440F022126F68EF700F90B204F090B2FB
:102977000331AA90B205F08024EFB4010E90B2049F
:10298700E4F0A331AA90B203F08012EFB4020E90E4
:10299700B203E4F090B20531AA90B204F090B0000F
:1029A700E4F022F0ED90000E93229006D8E0FF6449
:1029B700086005EF6420707A7B017A0A79667FAC3C
:1029C7007E0D120F597B017A0A796612B5E4EF7012
:1029D7004412976612708B900A6B1285707F007E87
:1029E700FF7D457CBA900A6B5154601E7F807E7FC5
:1029F7007DA57C5A900A6B5154600F7F007EBF7D86
:102A0700007CFF900A6B5154700B12691B90960261
:102A1700E054BFF0221242197F0912B9ACEF20E649
:102A27000C7F0A7E00128AF812976680EB7F0112EC
:102A370040C622128358AC00AD01AE02AF03900925
:102A4700F51285709009F51284D39009F11284DF8D
:102A5700C302840E90096212857C00000000E49096
:102A67000974F0900006E0B4010C12CD53EEC313C5
:102A770090096FF0800690096F7401F0F1011276EA
:102A87009A7002FF22F1011276AB7003EE64556073
:102A970008900AB9E07002FF22E490096EF09009ED
:102AA7006EE0FFC394044002615CEF75F010A4244C
:102AB700BEFFE5F0340EFAA9077B0190097712856E
:102AC700E6124C63FF6405600AEF640F6005EF646C
:102AD700857036900974E0FF600890096EE0C39F27
:102AE70040279009621284DFC000C001C002C00302
:102AF7001276BBD003D002D001D0001277659009BF
:102B07006EE004900974F0418390097712378912B7
:102B1700810FFF64046018EF64066013EF640B60B5
:102B27000EEF640C6009EF64016004EFB40E1E90B1
:102B370009621284DFC000C001C002C0031276BB65
:102B4700D003D002D001D000127765800890096EBB
:102B5700E004F041A590096EE0B4041B900974E00D
:102B6700FFD394004011EF9404500C900962128532
:102B77007C00000000418390096FB1B8B1D4127690
:102B87009A7002FF2290096FB1B8B1D41276AB7078
:102B970003EE64556008900AB9E07002FF22900DB9
:102BA7000DE0900013F0900D0EE0FEA3E0FF1297EA
:102BB700F8900975EEF0A3EFF0E4FCFD900962B11F
:102BC700CE900014128570900D11F107603C12979A
:102BD700F87C007D201285EFB1DDAB0790096FE02F
:102BE7007F0025E0FEE4FCFD1282B2123474C006B9
:102BF700C007E025E07B00FAE4F9F8D007D0061219
:102C0700835890095E128570800A90095E12857C50
:102C170000000000900D16F10760081297F8E4FC19
:102C2700FD8005900D24B1E7900966128570900D1F
:102C370013F10760081297F8E4FCFD8005900D205A
:102C4700B1E790096A128570B1B5900966B1D7B13D
:102C5700DDAB07900975125619FD1282B290095E15
:102C6700B1CEB1DDAB0790096A123799C007900062
:102C770013E0FBE4FAF9F8D00712835890097012B1
:102C87008570E47FF57E0FFDFC9009705154500864
:102C9700E4900008F07F0122E47FF57EFFFDFC90C1
:102CA70009705154500AE4900007F0A304F08025FE
:102CB70078367C0D7D017BFF7A0679707E007F0870
:102CC7001287A2EF9000077003F080037401F09061
:102CD70000087401F0B1B5900966B1D7900014B13E
:102CE700CE90095EB1CE90001C128570900007E06F
:102CF7006009B1E4900970B1CE800F900970128419
:102D0700D3EF2402FFE43E1256259000201285706F
:102D1700900007E0601FB1E4EF24FEFBEE34FFFAFA
:102D2700ED34FFF9EC34FFF8900013B1B81282CDFF
:102D370090001C800AB1B5900966B1D7900014B114
:102D4700CE900018128570900013E0FE90096FE096
:102D5700FFEE8FF0A4900013F0A31284DFE4FCFDD4
:102D6700FE1282CD90001412857090001C1284DF31
:102D770090096FB1B81282CD90001C128570F101D5
:102D870090096AB1CEB1DDAB0790096FB1B8128275
:102D9700CD9000241285709000181284DF90096F7F
:102DA700B1B81282CD9000181285707F0122900D64
:102DB70010E0FFE4FCFDFE229004531285DD900035
:102DC700271284659004561284DF0282B29009624A
:102DD7001284DF0282CDA804A905AA0622900D2C31
:102DE7001284D3029814900006E064046002C1FACA
:102DF70090045AE0B40231900456C083C082128412
:102E0700DFC000C001C002C003D1FB90001F1284C5
:102E170065D003D002D001D0001282B2D082D08315
:102E270012857090045AE4F090045AE0702B9004D5
:102E370056C083C0821284D3C004C005C006C00731
:102E4700D1FB900027F10ED007D006D005D0041291
:102E570082BFD082D083128570B1BFC004C005C0C5
:102E670006C007D1FB90001FF10ED007D006D00592
:102E7700D004C31283F85027D1FB90002712846532
:102E8700A804C004C005C006C007D1FB90001F12EC
:102E97008465D003D002D001D0001282BF8011B167
:102EA700BFEC335011D1FB9000271284651283EADF
:102EB700900456128570D1FBE92427F9E43AFAC049
:102EC70003C002C001F11AD001D002D003128495C9
:102ED700D1FBE92423F9E43AFAC003C002C001F1A7
:102EE7001AD001D002D003128495126BC3D080D0C0
:102EF700807F01229004530285DD9009620284D30A
:102F0700E0FEA3E0FF4E22128465AB07AA06A905DF
:102F1700A804221284EB9004561284D30282B29042
:102F27000A78128570900A7C1285E6900A7FF1076D
:102F37006030D3EF9400EE940150277F06F17012B2
:102F470063AA7F02F170900A7812665E900A7FE0AA
:102F5700FEA3E0FF900A7C1285DD124F6B1263AA75
:102F6700F1A622F178F1A67F06AD071265380200B7
:102F7700E2900BE3EFF07F50F1701263AA7F01F14B
:102F870070900BE3E00263A6900AFC128570E4FFE1
:102F9700F16A1263AA900B00E0FFF1701263AA7F37
:102FA70005F170120026900BE4EFF01263AA7F017F
:102FB7007E00128AF8900BE4E020E0E3227D087F90
:102FC7000C12B946126402E4900BB2F01264C69078
:102FD7000BB2E0FF600AEFB401067F1CF178F1A69F
:102FE70022121D957B017A0779A07D1F7C00121E96
:102FF7004EEF641F4E6002213778A07C077D017B6E
:10300700FF7A05796F7E007F041287A2EF600221A5
:10301700379007A4E09007E4F09007A5E09007E554
:10302700F09007A6E09007E6F09007A7E09007E783
:10303700F09007AFE012054930A70030D90330649C
:103047001230BA1A30FF1B30BE1E307923307D256F
:1030570030812830852A30FB2F0000310B7BFF7A27
:103067000579747D247C003158915D315890079F14
:1030770021065168210F518D210F51AD800F711F0E
:103087007B017A0779F07FD07E07120F5990079F4F
:103097007402F07B017A07798E7F0A120F578068D6
:1030A7003138EF70069007EDF080599007EDE0603A
:1030B700408051510080519007B3E0700C3138EFD8
:1030C7006007E49007EEF0802C9007EE7401F0E4BF
:1030D70080233138EF60069007EDE060087BFF7AC8
:1030E70005799C80067BFF7A0579AE7D127C0031DD
:1030F70058E48001E4FF800EE4FF515F9007ED7410
:1031070001F080047F01515F7B017A07798E12B548
:10311700E4EF600A90079FE0B402037401F09007A0
:10312700807401F0FB7A0779897FB07E04120F590A
:1031370022123DF3EF70069007EFF0800E9007EF35
:10314700E0700812B24F9007EFEFF09007EFE0FF43
:1031570022900ADB1285E6900ADEECF0A3EDF07D03
:1031670001121F46C3900ADEE094025064900ADE03
:1031770071809440EE94004006A37440F08005905F
:103187000AE0EFF0900AE0E0FDFFC3900ADFE09F5E
:10319700F0900ADEE09400F0900ADB1285DD7F24D0
:1031A7001277B6121D8E7D207F13121FAD7F01127D
:1031B7005B5CEF6043121D8C121F9B900AE0E0FFDF
:1031C700900ADC125DC5900ADEE07002A3E0709DF4
:1031D70022121D8C7DB4121F9D900ADB127703907B
:1031E7000ADB1276F7900ADE127749900ADE127729
:1031F7006E7D1F7179125B06223138EF700471679B
:10320700805612B8399007781285709007B1E0247C
:10321700C1601E242370347BFF7A0579989007B329
:10322700E0FFC39404500280027F04EFFD518680C3
:10323700277B017A0779749007B3E0FFC3940C509A
:103247000280027F0CEFFD5186800D7B007A0079AA
:1032570000E4FDFC3158E4FF9007ECEFF0915D21AD
:10326700583138EF70047167801312B83990079797
:103277001285707B017A0779937D0C518680D97C02
:10328700003158E4FF223138EF700471678015125E
:10329700B83991749007811285707B017A0779811B
:1032A7007D08518680B29007B11284D39007B7E0AA
:1032B7007A0F30E0027A0D7B00900AEBEAF0A3EB7D
:1032C700F01271C09153FED3E5F09401EE940040E3
:1032D70024715D30E0027E0D7F001272489007B7BF
:1032E700E07E0D30E0027E0F7F0071167C023158C0
:1032F70012243380CF12716A9007B7E07E0D30E059
:10330700027E0F7F0071167C023158E4FF415FAAED
:1033170006A9077B017D00229007B11284D31272A0
:103327005D9153FED3E5F09400EE94004021715D6A
:1033370030E0027E0D7F0071167C02121E4E716016
:1033470030E0027E0D7F0012722612243380D212E3
:10335700718CE4FF415F1297669007B7E07E0F22FA
:103367007F81121D107F0A7E00128AF8121D957F39
:1033770001227F047EA5028F80E0FEA3E0FFD32217
:10338700E4900702F0900760F0126930EF64017073
:1033970060900A72E0700C900768F090072EF0A317
:1033A700048046900A7471809400EE940040659002
:1033B70007687401F090002C125DD2EF9DEE9C40DF
:1033C70008900A74E4F0A304F09000307180900A2A
:1033D70071E09F900A70E09E4005E4F0A304F0E4DA
:1033E700900702F0900A749168F0E49006FFF0806D
:1033F70023E4900768F0900703F0A304F090072EEA
:10340700E4F0A304F0E49006FFF09003F312857C48
:1034170000000000E4900701F090002CE07002A388
:10342700E070079006FD04F0FF2212273C12211BD3
:10343700EF70031223F0E4900A74F0A3F0900A7679
:10344700F0A3F0900A70F0A3F07F01229007B67402
:10345700FFF5F00281ED7B017A0779E07D0D7C00B5
:1034670022E0FFA3E090072ECFF0A3EF22EF24FF87
:10347700FFEE34FFFEED34FFFDEC34FFFC22900B32
:103487002512857C00000000E4900B24F090053E97
:10349700E0FF900B24E0FEC39F4002A139EEB1404C
:1034A70090000512810F64016002A1311276861225
:1034B700810FFBB4020FF178EF2480FFEE3451FE49
:1034C700ED34018011EBB40313F178EF2480FFEEA4
:1034D700343AFEED3409FDE43CFC800B127686128B
:1034E700810FB40108F178900B25128570900B2499
:1034F700B13F900001128465900B25122A54602376
:10350700900B24B13F1276EB9174C312840E6013B3
:10351700900B24B13F1276EBEF24FE9177C3128410
:103527000E7007900B24E004FF22900B24E004F0B8
:1035370081947F00229009F0E075F006A4FF9005C2
:10354700451285DDE92FF9EA35F0FA229009ECED0D
:10355700F0A31285E69009EBEFF090053EE0FEEF51
:10356700D39E50149009EBE0C39401400B9005459E
:103577001257D86003EE70037F00229009EBE01426
:103587009009F0F09009ECE0FF9005451285DD9079
:1035970009F012768FEF12814E9009ED1285DD1238
:1035A700BF3FF1E09009ECE064036002C1D7A3F1EB
:1035B7008912810FD39406400312BE90F1789009C7
:1035C700F5128570F17178009009F51284D3128392
:1035D70058EF2402FFE43E125625E47B07FAF9F878
:1035E700128358AF039009F9EFF09009EDF18912B2
:1035F700810FFEC39F4015EEFF9009F9E0FDEF9D97
:10360700127797FDF171F81282CD80299009EDF1BB
:103617008912810FFF9009F9E0C39F127797FDF197
:1036270071F81282CDC374809FFF743A9EFE7409AD
:103637009DFDE49CFCC006C007B13C900001D0078B
:10364700D0061284AFB13CF17EC003C002C00112A4
:1036570084459009F5122DCED001D002D0031284F3
:1036670095F16B1276D4F1E09009F5F16E780012BE
:103677002A3A9009F0E075F006402CB143F17EC07C
:1036870003C002C001128445C004C005C006C007BC
:1036970012775BF199122DDDAB07D007D006D00565
:1036A700D0041282B2807FB143F17EC003C002C052
:1036B70001128445C004C005C006C007F190122D51
:1036C700DDAB07D007D006D005D0041282BF8056E5
:1036D7009009ECE064027059F16B1276D4F1E0F1D5
:1036E700717800F178122A3A400712775BF19980D6
:1036F70012F190C374809FFF74519EFE74019DFD6B
:10370700E49CFCC006C007B13C900001D007D0067E
:103717001284AFB13CF17EC003C002C001128445E0
:1037270090B106122DCED001D002D003128495801D
:10373700259009ECE0B4011EF1789009F512857027
:103747009009F11284D3C006C007B13C900001D0A4
:1037570007D0061284AF9009EBE0FF12C1CB12BA73
:10376700257F01229009F11284D37B807A51790158
:103777002290B1060284D3E92401F9E43AFA2290AF
:10378700069D1285DD900004229009F11284DF90D6
:1037970009F51284D30282BFA2AFE433900BCEF0B7
:1037A700C2AFF18612810F701D128445122F11903E
:1037B7000611F199E4FBFAF9F8C31283F85007F1FF
:1037C70086740112814E900BCEE024FF92AFD08019
:1037D700D080F18612810FFF229009F10285709047
:1037E7000BC5EFF07F01229005BFE0B40508A3E009
:1037F700B4AC037F01227F00221237EE9006ACEFB4
:10380700F022900B76EFF0A37401F0129766909C6C
:1038170046E054F0900B78F0E0FF900B77E0FEEF76
:103827004EA3F0900B76E0B4010BEEB40707900BB4
:1038370078E04408F0900B78E0909C461214AF9023
:103847000B77E004F0E0C3940840C02211097B0124
:103857007A0979E07FB87E0B22900B7CEFF030E697
:103867000231C1900B7CE0FF30E70231B9EF30E65F
:1038770006909C41743FF0900B7CE030E706909CEB
:1038870042743FF0900B7CE0FF30E60231B1EF303D
:10389700E70231A9121217900B7CE0FF30E60231E4
:1038A700A1EF30E70231441212179009DCE06444BB
:1038B700601A900B7CE0FF30E607909C48E054FBD1
:1038C700F0EF30E707909C48E054BFF01214B03196
:1038D700E55004AF068000900B7DEFF0A3743FF036
:1038E700900B7DE0FFA3E0D39F403731DDFF900BC6
:1038F7007EE0FEC39F400C900B7CE030E605909C79
:1039070041EEF031D59F400F900B7CE030E70890F7
:103917000B7EE0909C42F0121217900B7EE014F0A1
:1039270080BE900B7CE0FF30E603313CF0EF30E7E0
:103937000331CDF0229009E7E0909C4122909C4F03
:10394700E04420F022900BCCEFF01217AF900BCC95
:10395700E0FF30E60231C1EF30E70231B9900BCC1E
:10396700E030E60231B1900BCCE030E70231A9122A
:103977001217900BCCE0FF30E60231A1EF30E702DF
:103987003144121217900BCCE0FF30E603313CF0C4
:10399700EF30E70331CDF00216B6909C4FE044407C
:1039A700F022909C49E04410F022909C49E04402A8
:1039B700F022909C4CE04408F022909C4CE0440498
:1039C700F022909C41F09009EAE0909C42229009F5
:1039D700EAE0FFEEC3221297669009E7E02290091A
:1039E700EAE0FF9009E7E0FEC39F2212178BFFBFB3
:1039F7004402805C1213FD6002515A1216177005BB
:103A0700E05412603F121617600B1217945004AF60
:103A170006800A800831E55004AF068000900BCB82
:103A2700EFF0900BCBE0C3943F5017129766900BC3
:103A3700CBE004F0E0543F909C41F0A3F012142E29
:103A470080E0518812178D64446005E0444451605A
:103A57000216B6909C01E04403F07F507E000212EC
:103A67001B120FBC31F2E4FF121042519B12B988AE
:103A770012772112B9461275D4519112755802B9AD
:103A870088909C41743FF0A3F02212B9467D207FB5
:103A97000F02B9467D807F0C12B9467D807F0A22CE
:103AA7009009A37401F0900995F0519B12B9461241
:103AB700764E126BF61210031226FBEF600D90097B
:103AC7009D7401F0715412B988800F900A1FE0703D
:103AD7000490099DF0715412B946124FD112200D6E
:103AE70012772112B9881275D412B9887D207F0FF9
:103AF70012B98812755812B9887D017F2012B9460C
:103B07007D017F2112B9887D017F1E12B9887D0151
:103B17007F1D12B9467D027F2012B9467D027F21A3
:103B270012B9887D027F1E12B9887D027F1D12B9E6
:103B3700467D807F0212B9467D807F0312B9887D5A
:103B4700807F0512B9467D807F0602B9467D107FCA
:103B57002012B9467D107F2112B9887D107F1D1272
:103B6700B9887D107F1E12B9467D107F1C22900AEE
:103B7700EEE0900BD3F0E4FF1258CD9009B7EFF0C9
:103B870064576004E0B442031240ECB1D1EF602DFA
:103B9700900AEEE0FF64076024EF6408601F90005E
:103BA70006E0B4030A900AEEE0B40D0312273C12B4
:103BB7000FBC7F967E00128AF87F029163D12FEFA8
:103BC70060047F039163D151EF60047F0791639194
:103BD7007C12B5E4EF6024917C7F64120F57D1F516
:103BE700EF6007715412B9888011900A1FE0700BBB
:103BF700900ABAE07005715412B946126AE9601E5C
:103C070024FD24FD5021240770329006D2E060077E
:103C1700919BEF7027800CB1F3EF70208005F13D89
:103C2700EF70197F018013D173EF70107F907E01C1
:103C3700128AF8D151EF70047F02B1AF9009B7E053
:103C4700B41418900006E0B4030A900AEEE0B40D2D
:103C57000312273C900AEEE0FF91F622900AEEE06D
:103C6700900BD2F09183EF700B900BD2B13E7004A2
:103C77007F0191F6227B017A0979BE22EF24FD604C
:103C87000C24FC600D24FB6006240A8007E18602F1
:103C9700487DE118E4900BD0F0900A1EE0B40109CA
:103CA700120FBC900BD07401F0B1F3EF7006900ABD
:103CB7001EF0FF221209ED12273C1207FC900BD0D1
:103CC700E07003120FBC12B24FEF7002FF227F02A7
:103CD7001218157F09121042E4FD7F0D120A097FA1
:103CE7000212667FEF7002FF221233877F0122E400
:103CF700900BA5F0900BA5E0FEC39404501174AE91
:103D07002EB1C9E06F6008900BA5E004F080E5E4F0
:103D1700900BA4F0129766900BA5B1C14002E4F096
:103D2700900BA5E024AEB1C9B13E700A900BA4B1C7
:103D3700C140E112484D22E0FF9183EF221255382E
:103D4700120F55917C120F5590963DE054FCF012DE
:103D5700B65BD128120F557B017A0979B27F2C7E89
:103D670001120F597B017A0979B212B5E4EF700697
:103D7700B1D1D12F80EED1F5124892900A18E0B454
:103D87000108900AEE7403F08012900A1EE0900A70
:103D9700EEB401057402F08003740CF0900AEEB1E2
:103DA7003E70047F0CB1AF22900BD1EFF09183EFFF
:103DB7007007900BD1E0FF91F622E004F0E0C39486
:103DC7000422F582E43409F58322900A1EE0900B61
:103DD700D4F0B1F3900A1EEFF0900BD4E0700A9084
:103DE7000A1EE060047F0180027F0022D12812B5FD
:103DF700E4EF7006900428E07021D1287F2C7E0123
:103E0700120F599004287401F012B0CB900A15EFE5
:103E1700F012B83C7F147E00128AF8900A15E0FF72
:103E2700227B017A0A791922900A18E0900BD5F0C3
:103E3700F13D900A18EFF0900BD5E0700A900A1840
:103E4700E060047F0180027F0022900A17E0900B58
:103E5700D6F0D173900A17EFF0900BD6E0700A9066
:103E67000A17E060047F0180027F0022D310AF01B0
:103E7700C3C0D09006A0E0FF6406600EEF64056043
:103E870009EF640760047F008054900AEEE0B404F1
:103E970016909901C083C082E0FFA3E04404D0825A
:103EA700D083CFF0A3EFF0D1EAE06F600C900AAABD
:103EB7001246ACD1EAEFF08023900AAAE07002A381
:103EC700E07019900AAA04F0A374F4F0121886128D
:103ED7001A8F9006A07408F07F0080027F01D0D06F
:103EE70092AF227F0C7EA3128C84900AA722900A9D
:103EF7001FE0900BD7F0124899900A1FEFF0900B34
:103F0700D7E0700A900A1FE060047F0180027F00FB
:103F170022D173EF7002FF22120FBC1207FC1209A5
:103F2700ED7F071218157F091210427F02126D6389
:103F37001248387F012290960BE04410F090960EBD
:103F4700E054EFF0A3E054EFF090960CE054EFF05C
:103F57001277CD909609E030E40BE4900A18F090C0
:103F67000A16F08014900A16E0C394145005E00472
:103F7700F08006900A187401F0900A18E0FF22F109
:103F87003DEF7002FF221209ED7F03121815E4FDC1
:103F97007F0C120A0912764E7FC0121042124FB6DA
:103FA7007F0122AE071217AFEE543FFEED543FFDDF
:103FB700121617600A9009DEEEF0A3EDF0800F12DB
:103FC70013F6602E9009E7EEF09009EAEDF0909C69
:103FD70048E020E20B909C41E0543F6E6002EEF017
:103FE700909C48E020E60B909C42E0543F6D6002B5
:103FF700EDF00216B6EF909C50B40105E054FCF0CA
:1040070022E04402F0E054FEF0221217AF9009DDDF
:10401700E05412702E909C49E030E102116B909CA5
:1040270049E030E4021163121217909C49E030E135
:1040370004E054FDF0909C49E030E404E054EFF0D4
:10404700121217909C4CE030E204E054FBF0909C75
:104057004CE030E304E054F7F00216B6909C4FE0D2
:1040670054DFF022909C4FE054BFF0221217AF901C
:104077009C00E4F011AB74A3F0909C007480F09066
:1040870096417420F07D037F1D12B9467D037F1E84
:1040970012B9887D047F1D12B9887D047F1E12B96D
:1040A700460216B6909C057442F0A322909904E04C
:1040B70054FEF090980DE054FEF0E0440EF022908C
:1040C7000BECEFF012C8DB12C8BB90988CE04401F0
:1040D700F011B3900BECE0FF02B905120A097FE873
:1040E7007E03128AF831005120E4FF121042E4FFE8
:1040F7001216D351197F0180C690091BE0B4010243
:10410700310D5131F022311BE4FD7F01120E8A512E
:104117008B028AF8E4FDFF020E8A90091DE0700207
:1041270021F7120E0612B5E4EF7002411190091D36
:10413700E0C31330E02B120E067F32120F5790099F
:104147001DE0C41354077F0020E0027F01EF5401F4
:10415700C43354E0FF90091DE054DF4FF0E0C48002
:104167006090091DE030E02B120E067FE87E0312F7
:104177000F5990091DE0C4540F7F0020E0027F0112
:10418700EF5401C454F0FF90091DE054EF4FF0E0E5
:10419700C4802F120E067FF47E01120F5990091D5D
:1041A700E0C4131354037F0020E0027F01EF5401A2
:1041B700C4333354C0FF90091DE054BF4FF0E0C42F
:1041C70013135401900BE2F05112600D14600C248C
:1041D700FD24FD5011240870318000311B900BE243
:1041E700E0FD7F018007900BE2E0FDE4FF020E8A0D
:1041F7005112600D14600D24FD24FD500A2408702F
:1042070009020EBC020F13120F6022900AEEE0247F
:10421700FE227F017E0002BABB7D01E4FF020FC0D0
:1042270090091BE0B401023121229006FFE09009BA
:1042370015F0900700E0900913F09006FDE0900953
:1042470014F0900AEFE090091C22900BDFEFF012B8
:104257000E06120F557B017A09790C120F55513151
:10426700F0E4A3F090090404F07E007F057D00FBD5
:104277007A0979051287C6126AF2120E8690091B0F
:104287007401F022909602E04440F0A3E054BFF09E
:10429700909605E04440F0A3E04440F0909601E09A
:1042A70054BFF07F027E0022E490094EF09192F114
:1042B700BC7145120F55E4FF126F79E4FF12C06B12
:1042C70012C00E90961DE054DFF0A3E04420F0905A
:1042D7009620E04420F0A3E04420F090961CE054A0
:1042E700EF713D90961D122961909620E04440128F
:1042F700296490961C51A6128AF8909602E054FB06
:10430700F0A3E04404F0909605E04404F0A3E044F1
:10431700049199713D909602E054FDF0A3E04402A8
:10432700F0909605E04402F0A3E04402F0F15B7FD1
:10433700027E00028AF8F07F027E00028AF87B0183
:104347007A09795922919212B5E4EF7002FF22910E
:10435700927F05120F5791AA900BDEEFF090094E4E
:10436700E024FE6054147002813F240360028183BD
:10437700900BDEE0F47019D1A1E054BF9199F0E001
:1043870054FDF0714512B5E4EF6002F1C37F0022DE
:10439700900BDEE0900943F0640C6004E0B415086C
:1043A700918B7FB87E0B8006918B7FF47E01120F75
:1043B7005990094E7402F08188D1C0EF7145700899
:1043C7007FD07E07FDFC8002F16612B5B2D1B460E2
:1043D70038E490094EF0EE64016023EE24FE60138A
:1043E7001460141460152404701490961CE054BFD4
:1043F700F0800BD1A18007F15B8003919AF091A126
:104407002467F582E43409806D918B12B5E4EF607F
:1044170070900943E0918BB424067FE87E03800403
:104427007F2C7E01120F5990094E7403F091A1243D
:1044370068F582E43409803ED1B46013E490094EF4
:10444700F0EE25E025E0246AF582E434098027911F
:104457008B12B5E4EF602A900943E0918BB42406F0
:104467007FE87E0380047F2C7E01120F5991A124DF
:1044770069F582E43409F583E493FF22E490094E59
:10448700F07F00227B017A097944227B017A09793E
:104497004F22F0909601E054FB22900943E025E07B
:1044A70025E02212C032EF6016D1A9900BAE74013D
:1044B700F0E4A3F012C03E90094A128570801912E9
:1044C700C01EEF600CD1A9E4900BAEF0A304F080FE
:1044D70007E4900BAEF0A3F0900BAEE0FF7006A3DD
:1044E700E07002C16DEF6005E4900942F090094267
:1044F700E0C394055003E004F0900942E075F046EC
:10450700A4FFAEF0E4FCFD7B017A09795412B5B241
:1045170090094BE0FF90094AE02FFFE433FEEFF4E8
:104527004E6002C16590094CE0647F707BA3E06434
:10453700807075900941F0D193941C4002C165EFDA
:1045470025E024D6F582E43408F583E493FE74016C
:10455700D19A6E7003A3E06F704A900AEEE0640C84
:104567007039D1C0EF6034900941E024FE60131424
:10457700601914601F2404702290961CE04440F0D8
:10458700801990961CE04420F08010909601E0443A
:1045970002F08007909601E04404F0909601E04411
:1045A70040F0C179D18C808F90094CE0F4701FA343
:1045B700E0701B900941F0D193941C4002C165EF54
:1045C70090090ED19AB50702C179D18C80E990097B
:1045D7004CE0FE64BF703EA3E0703A900941F0D111
:1045E70093940C500FEF90092AD19AB50702C1791D
:1045F700D18C80EB900941740CF0D193941C505EE0
:10460700EF90092AD19AB50708900941E02409805B
:1046170045D18C80E5EE64FD704490094DE064025D
:10462700703C900941F0D193940C500FEF900946DC
:10463700D19AB50702803BD18C80EB900941740C6D
:10464700F0D19394215017EF900946D19AB5070AF4
:10465700900941E02412F0E0FF22D18C80E3900919
:104667004174FFF0FF227B017A09795412B5E4EF18
:104677007006900941E0FF2290094A12857C0000EC
:1046870000007FFF22900941E004F022900941E0F9
:10469700FFC32293FF90094AE02290961CE054DF63
:1046A700F022900AB57401F0A374F4F022900BDEA7
:1046B700E0FF900943E0FE6F22900A24E0FF22907A
:1046C7000AC9EFF0BF5822900A21E0C394024002C2
:1046D700E4F0900A21E004F0E0B4010D7B017A0ACE
:1046E70079CA7FF47E01120F59F152EF700E900ACA
:1046F70021E0B40107E4900AC9F08049F152EF7054
:1047070014900A21E0B4020D900AC97467F0E4908E
:104717000A21F08030F152EF602B900A21E064010A
:104727007023900AC97458F0E4900A21F0D1C0EFC1
:104737006013E4FD7F1E122726B40C091225F0EF43
:104747007003121003900AC9E0FF227B017A0A79ED
:10475700CA02B5E4909601E054FDF02274C7F07FD9
:10476700007E007D007C0022900BB2E0B40307902E
:104777000AF6F1638010900BB2E0B40108900B00C9
:10478700F163122F8F22900AF21285707F43122F46
:104797006A1263AA900AF6E0FF122F70900AF6E0F9
:1047A70064C76005900AF2F1B61263AA022FA61237
:1047B70084D3026661FFFEFDFC02B5B2909601E06C
:1047C70054BFF02251AFF1D912258FFFFEFDFC0235
:1047D700B5B2E4900A22F0A3F02290B004E030E3EF
:1047E700F990980DE054F1F0E04401F090981FE043
:1047F70030E0F9909904E04401F022A2AFE433904D
:104807000BCDF0C2AF9005FE1284D3900611122D86
:10481700CE9005FB1285DD1284959005FB12378932
:10482700E412814E900BCDE024FF92AFD080D08070
:1048370022121AA2E49007EDF0900780F09007EF9C
:10484700F090079FF022E4FF121815E4FF121042C0
:104857007D087F2012B9467D087F2112B9887D081F
:104867007F1D12B9887D087F1E12B9467D087F1CFF
:1048770012B9887F01221209ED7F0C121815E4FD89
:104887007F0B120A09123AA77F0122E4FD7F1C025F
:104897000A09909629E054FBF0A3E054FBF09096A8
:1048A70027E054FBF0909626E04404F07F027E0058
:1048B700129001909624E030E207E4900A1FF080FE
:1048C70006900A1F7401F0900A1FE0FF229009C5A5
:1048D7003100900BA6EEF0A3EFF09009D83100ADB0
:1048E70007AC06900BA6E0FEA3E0FF1227587B015A
:1048F7007A0679DD7D0102200DE0FEA3E0FF900A34
:10490700EFE075F0029008941285D1E493FC7401EE
:1049170093FD1285EFE47BE77A03F9F802835811D8
:10492700D4121003E4900AF0F0229007F8E0642113
:104937007019A3E0B40114A3E07010A3E0B4010B55
:10494700900861E0B40102E1E080D49007F8E064E8
:1049570021702AA3E0640170249007FBE0640270D1
:104967001C9007FAE0900862B40107515B9009C5F3
:104977008005515B9009D8F0A3EFF001D49007F8B8
:10498700E0B4A110A3E0B4820B9007FBE0B40204EB
:104997007D0280789007F8E0B4A114A3E0B4830FF8
:1049A7009007FBE0B402087D027FE77E0341579042
:1049B70007F8E0B4A114A3E0B4840F9007FBE0B4B8
:1049C70002087D027F017E0041579007F8E064A14D
:1049D7007025A3E06481701F9007FBE0B402189074
:1049E70007FAE0B401059009C580039009D8E0FEF5
:1049F700A3E0FF7D0280599007F8E0B4A113A3E07C
:104A0700B4810E9007FBE0B401077D01E4FFFE804F
:104A17003F9007F8E0B4A10CA3E0B4FE077D01E4E2
:104A2700FFFE802C9007F8E0B4A113A3E0B4810E39
:104A37009007FBE0B40A077D01E4FFFE80129007B0
:104A4700F8E0B4800E9007FEE060087D01E4FFFE09
:104A5700125EC922E0547FFE900861E07C002400CA
:104A6700FFEC3E22E4900AB1F0D080D080FE7F08B0
:104A7700FD7B017A0579BF1287C69169A37408F097
:104A87007B017A02792C9004B1E49143700A913A40
:104A97007006913A7002FF2290022CE0FF900AAD57
:104AA700F0900233E0900AACF0D3EF940074809456
:104AB700814003E4A3F012BDF79006A17427F0A389
:104AC7007410F012CA15EF7002FF229169900AACB8
:104AD700E0900398F09151EF91477002FF22900206
:104AE7003CE0900AB2F0900235E0FE900234516249
:104AF7009005BFF0A3EFF0900237E0FE900236E09A
:104B07002400FFEC3E9005C11273707A02792C9154
:104B17005C740991717002FF2290022EE0900AAD39
:104B2700F0D39400748094814002E4F09151EF91A6
:104B3700717002FF2212B007BF0107E49006ACF0C4
:104B4700FF227B017A02792C900AAE1285E6900249
:104B57002EE0242CFFE43402FAA9077B01C003C02E
:104B670002C001900AAE1285DDC3D082D083D0E0A7
:104B7700E99582EA958340028137900AAE1285DD76
:104B8700125EC3FF6404703690000512810FB408EB
:104B97001990000612810FFE64056004EEB4060A40
:104BA70090000712810F64506007E4900AB3F08009
:104BB70006900AB37401F0E4900AB1F0804EEF64F6
:104BC700057049900AB3E0604390000312810F54C7
:104BD7000364027037918130E719540F900367F02F
:104BE700A37405F09163900369F0900AB1E0440162
:104BF700F080199181540F90036AF0A37406F09125
:104C07006390036CF0900AB1E04402F0900AB1E0BF
:104C1700B4030F900231E0FF12CA64EF7F017012F4
:104C2700FF22900AAEF1A8FF900AAF125DC5615549
:104C37007F00227B017A02792C9004B1F0A37408DB
:104C4700F0E4FD7F0112AA35EF227B017A02792C6D
:104C5700900AADE0FF9004B1E4F0A32290000402B3
:104C6700810FE4900396F0A3F022F0E4FD7F021297
:104C7700AA35EF229005AF1285DD90000202810F61
:104C8700917B75F002908A791285D112778890000E
:104C97000312810FFD7C00EF2DFFEC3ECF24FFCFE9
:104CA70034FF900B1FF0A3EFF0128203FFAEF01258
:104CB700C07BEF600C917BD394024005900B1FB132
:104CC7003F9005AF1285DD1282032444FD2403FFC4
:104CD700E433FEEF7802CEC313CE13D8F9900B233B
:104CE700F0AF05E4FCFDFE7B6D7A01F9F81282CD89
:104CF700900B2312779FFE900B20E02FFF900B1F46
:104D0700E03E900B21F0A3EFF0900BA8E0B402086F
:104D1700900BA9E064036010B137FF12BFDB900569
:104D2700AF123789EF12814ED080D080B137FF2282
:104D3700900B21E0FEA3E022E475F0010281D7D1B8
:104D47001A900A311285E6D10EE4C39F900A36F015
:104D5700603ED114900A36E0FF900A7FE4D10A1230
:104D67002F26900A2D1284DF900A36122DB8128250
:104D7700B2D11A900A36E0FF7E00900A32EE8FF029
:104D87001281D7C3900A35E09FF0900A34E09EF075
:104D9700C3900A34E094014045E4900A37F0A3F049
:104DA700900A34E0FFC3900A38E09F900A37E094F6
:104DB70000502BD10ED114900A7F7401F0A3E4F0B8
:104DC700122F26D10EE42F125621D11A900A3274CF
:104DD7000175F0001281D7900A37B13F80C27E007B
:104DE700900A34A3E0FF900A34EEF0A3EFF06012CC
:104DF700D114900A34E0FFA3E0900A7FCFD10A12C2
:104E07002F2622F0A3EFF0900A2D0284D3900A31C7
:104E17000285DD900A2D028570E4900BBBF0900BA4
:104E2700BAF09000181284D3E4900643F0A304F07C
:104E370012C68612CF4F9000181284D39003DC124B
:104E47008570129766129D6A900BD9EFF090002C2F
:104E5700125619FD7BFE7AFFF9F8C31283F8500248
:104E6700E1689003DBE0700312D7F2900BD9E014EE
:104E77007002E11424FC7002E11D240570C4125F66
:104E8700A3EF604390002CB13F90002EB13F900AF2
:104E970072E0B40132900A74E07002A3E07028F166
:104EA700AE900A74CFF0A3EFF090002EE0FFA3E0DE
:104EB700900A76CFF0A3EFF0900030E0FFA3E090E8
:104EC7000A70CFF0A3EFF0900030E07004A3E06425
:104ED700016002C149900869E064017002C149F1AB
:104EE700DAE92408F9E43AA801FCAD037BFF7A006C
:104EF70079067E007F031287A2EF6002C1499008FE
:104F07006904F0FB7A08796A12983BC1499000322C
:104F1700E475F001804612D90C900030E07004A3CC
:104F2700E06401700AF1AE900036CFF0A3EFF01203
:104F3700DB9B12DCACEF70037F0122900030B13FA6
:104F4700E4900032F0A3F090002EF0A3F012D711F6
:104F5700EF6002C14990003074FFF5F01281D7C1AC
:104F6700497F0122900ABBEEF0A3EFF0900ABF122F
:104F770085E6E4900ABDF0A3F0900ABB1264B390F3
:104F87000ABEE09F900ABDE09E5015900ABFF1A8A7
:104F9700FF1200E2900AC0B13F900ABDB13F80D92D
:104FA700221285DD0280F690002CE0FFA3E022129A
:104FB7005F733128F1D102200D1250863126900AF5
:104FC700DAF0F1D112200D7F01227B017A0679DC1C
:104FD7007D01229003D80285DDE4FDFCFFFE022758
:104FE70058121FB5F1F27F0202B9BC90966AE044ED
:104FF7000DF02290040CEFF0E490040AF090990170
:10500700C083C082E0FFA3E04402D082D083CFF008
:10501700A3EFF012C818909509E054E0F0909500BE
:10502700E04408F090040CE024FE60251460292475
:1050370002704990966AE054F2F090951B7401F063
:10504700A374C0F09095187403F0900403740F8054
:105057002490951DE04402F0124FF2909500E04431
:1050670004F090951BE4F0A37480F0A3E04401F0F2
:105077009004037420F0A3E4F07F01227F00221242
:105087001AA2121FB512C7F712C8187F03124FFAD8
:105097009003E9F18EFF7EAC31E51248D41210037C
:1050A70002CEB8900BE5EFF09009027401F0F156CB
:1050B700EF7002FF2212C7F79008DEE0FF124FFAE7
:1050C700900BE5E0FF7E00E4FD712EEF7002FF22FA
:1050D70031343164EF4E7002FF22313412CDA0908B
:1050E7000BE5E0FF641E6009EF641D6004EFB41C6C
:1050F70008900AEF7410F08006900AEF7418F07F9A
:10510700091210429008E0E0FEA3E0FF31E5121615
:105117001E900A1FE07006123B5412B9467F327E7A
:1051270000128AF812274312CEB87F012290040397
:10513700E0FEA3E0FF7D007C0222D12DEF60037F1C
:10514700002212BD13EF70037F012231343164EF67
:105157004E7002FF22313412CDA07F0122900B52F4
:10516700126F069008CC1284D39008BC122DCEC0C3
:1051770006C007900B52E0FEA3E0AA06F97B01A345
:10518700E0FFA3E0900A88CFF0A3EFF0D007D006A6
:1051970091BD9008CC1284DF900B54D119FD128277
:1051A700B29008CC1285709008BBE070289008CCAC
:1051B7001284D3EF24FFD121B1A312835890089111
:1051C7001285709008911284D390074B122DCE90C0
:1051D700088D128570900B54E0FEA3E0FF22EEFAD3
:1051E700909C0812857C01000000EAC394275004B4
:1051F7007B8D805DEAC3942D50047BB38053EAC353
:10520700943650047B918049EAC3944A50047B95B5
:10521700803FEAC3945950047BB78035EAC3946D45
:1052270050047BB9802BEAC3949450047B99802166
:10523700EAC394B3501990966AE030E00E7B8890E9
:105247009C0812857C001A000080067BA380027BE5
:1052570089D199909C06E06B6013909C00E0547F85
:10526700F0909C06EBF0909C00E04480F0900BEFF0
:10527700E0701612773EC083C082E0FFA3E054FEC1
:10528700D082D083CFF0A3EFF02212C7F79003E7C5
:10529700E0FF124FFA9003E9E0FEA3E0FF31E5D10A
:1052A7003CE490075FF012CEB81200FA12B7CAD1E9
:1052B700BA4E700E900BAAE0640960037408F07F81
:1052C70000227126FF12CD927126FF900404E02F71
:1052D700FF900403E03EFE900405E0FCA3E0FDC35D
:1052E70090040FE09DFD90040EE09CFC12CDA012EF
:1052F70067D3B1387F107E27120F5912772D1222EC
:10530700894005E47FC88002E4FFFEFDFC7B017A4B
:1053170007796912B5B29006FD7402F07F012290F9
:105327000405E0FEA3E022AB07AA06900B8EEDF082
:10533700A3E4F0A304F0EDD3940240037F0022908E
:105347000B8EE0F9701B9008A3919E40037F00220B
:105357009008A5E02BFEE43A900B8FF0A3CEF080E7
:1053670039E9640170229008A4919E40037F0022CE
:105377009008A5E02BFFE43AFE9008A312779F90D0
:105387000B8FF0A3EFF080129008A5919E40037F4A
:105397000022900B8FEAF0A3EBF09008BAEBF0A392
:1053A700E9F09008CC12857C00000000900B9091EA
:1053B700B5FF900B8F91AD2410FFE43EFEE4FCFD9A
:1053C7007A0879BC7B01900A88F0A37410F091BD2C
:1053D700900B8EE06002819B74FFFFFEFDFC90083E
:1053E700C0122A54700D9008C012857C000000007E
:1053F7007F00227E007F2F7D00B1AA1287C67E0024
:105407007F047D307B017A0879791287C6787D7CA5
:10541700087D017B017A0879C47E007F041280D061
:1054270078817C087D017B017A0879C97E007F033A
:105437001280D091A790089512857091A7EF24FF4D
:10544700D121B1A31283589008891285709008A2C0
:1054570091B5FF9008A191AD2420FFE43EFEAB0774
:10546700FAE4F9F89008BC123799E4FB7A02F812CB
:1054770083589008851285709008851284D3900808
:105487008D12857090089112857C000000009008AD
:10549700847401F07F0122E0FFD3EB9FEA9400229E
:1054A7009008C00284D3E0C454F048FEEF22E0C461
:1054B700F8540FC86822900A81128570900A8512E5
:1054C70085E6900A85F1D8604E900A88122F07600A
:1054D70046900A851285DDC3EA940F40167E00EFD9
:1054E7005403FF600E74049FFFE49E900A888FF0B8
:1054F7001281D7900BB2E0B4030CB12A900A4CB1D9
:105507001F12641C8011900BB2E0B4010AB12A90FB
:105517000A62B11F12646722CFF0A3EFF0900A81ED
:105527000284D3900A851285DD900A88E0FFA3E004
:10553700227B017A0679F4229006FDE0B402091273
:1055470021D312DB79EF60037F012212BD13EF70C5
:105557000DB13812B5E4EF7F0160407F0022B1380A
:105567007F107E27120F599003E7E06401702AD15C
:10557700BA4E70129006FDF0900BAAE06409600322
:105587007408F07F0022900403E0FEA3E0FF90047C
:105597000EE0FCA3E0FD12CDA07F0122E4FB7A021E
:1055A700F9F8227B017A08796A22900AD112857C60
:1055B7000000000012B8F112476FB1AA12DB79EFB1
:1055C700704DB1AA90047F1266F6FD7C0F12A02AD7
:1055D700900ACF1259F1700280357B017A0F79005A
:1055E700900ACFE0FFA3E0900A91CFF0A3EFF090ED
:1055F7000AD11284D3F10E900AD11284DF900ACF18
:10560700D119FD1282B2A31285701277CD80AB0239
:10561700B8CCE0FEA3E0FFE4FC22FFEE3401FEE499
:105627003DFDE43CFC2291A79008CC122A547F0050
:1056370040027F0122900700E075F00AA42426F9B2
:10564700740835F0FA7BFF900B5E1285E690040C28
:10565700E06401703CFF900B5E125E992409900B89
:1056670061F0D394804004E4F0800C900B61E0C3B8
:10567700940D4003740CF0900B61E09007E393FEE8
:10568700740D2FF582E43495F583EEF00FEFB40A2D
:10569700C5221277A730E0027F01900BEFEFF09061
:1056A7009901C083C082E0FFA3E04401D082D08388
:1056B7000217CD7B017A077930900403E0FCA3E061
:1056C700FD90040EE0FFA3E090047FCFF0A3EFF07E
:1056D70012A02AEF22E4FF900006E0B4030CF106C3
:1056E700FF1271457F01D080D080900006E0B4049E
:1056F7000DF106FFE4FD712E7F01D080D08022904E
:105707000516E0FEA3E022900A8A128570900A8EA1
:105717001285E6900BB2E0B4030AF148900A57F1FC
:105727003D0262CA900BB2E0B4010AF148900A3414
:10573700F13D124D4622CFF0A3EFF0900A8A028482
:10574700D3900A8E1285DD900A91E0FFA3E02290A4
:1057570008D812857C000000009008DC7401F090E6
:1057670008DFF0E49008FEF0A37403F0A37401F0DF
:105777009008E212857C0002EE009008E0F18E901E
:1057870008DE7401F0FF2274ACF0A37444F0221217
:10579700BF3F900B7212857012755112B5E4EF700E
:1057A7001A126C70FF6401600EEF64026009EF6407
:1057B700066004EFB408E1B13F80DD900B721284FC
:1057C700D312754E7F2C7E01120F5912A6C102BA51
:1057D700251285DDE94A4B221218767F0202B9CEDF
:1057E7007F011258CD900BD8EFF0900ADAE060599C
:1057F700900BD8E0B412047F018009900BD8E0B475
:105807001307E4FF1225AA8040900BD8E0FF64013C
:105817006004EFB402047F40802D900BD8E0B405FC
:10582700047F808022900BD8E0B406047F048017A1
:10583700900BD8E0B407047F08800C900BD8E0B435
:1058470015071217F37F1011AB31E7900ADAE06002
:105857003D7B017A0A79D512B5E4EF60317B017A95
:105867000A79D57FE87E03120F591196900BB6314E
:10587700F1700B121FD0900ADA7401F08006900ABB
:10588700DA7402F0900BB6E0FEA3E0FF311C229021
:10589700950511A4C333CE33CED8F9FF22E0FEA37A
:1058A700E0780222900BE6EF11C37C00121F4DE453
:1058B700900BE611C3FC121F4D7F0122F07B017A8A
:1058C7000B79E67D0122E4900B42D1AF6041900B4A
:1058D70043D1A4C003C002C001900B43124FA8FFDD
:1058E7007C00D001D002D00329F9EC3AFA1280F6F5
:1058F700900B42F0EF045407FFA31285DDEF1281EE
:105907003C900B431285DD90000174FF1204FF9059
:105917000B42E0FF22EF7802CEC313CE13D8F9FF74
:10592700C394F4EE94015017C374F49FFF74019E5F
:10593700316E2FFFE43EFEE4341AFDEC338020D3B2
:10594700EF94F4EE9401401EEF240CFFEE34FE3189
:105957006EC39FFFE49EFE741A9400FDE49400FC5E
:10596700909C0812857022FE7C007D14128170E4E1
:10597700227F0111CD900B7FEFF0E4A3F0A3F0EFAE
:1059870014605924EE603024FE605124B06007147F
:10599700602524547049B1D95005900B8131EA90A4
:1059A7000B7FE064657038B1CB7034900B81E07089
:1059B7002E7D017F1580221226F34006900B801260
:1059C70025A5900B7FE0B46616900AEFE070109063
:1059D7000B80E0700A7D017F16020A091217F32275
:1059E700021D957401F0FF0225AAEEF0A3EFF04E19
:1059F70022900B3AEFF0D190900B3B31F1700241BE
:105A0700FF9006FFE024FE700241B1240224FB5000
:105A17000241F5900B3AE0FFB4020D900B3D740A7A
:105A2700F0E4900B3AF08012EF900B3DB40308744A
:105A37000AF0900B3A80007401F0900B3AE0703254
:105A4700900B3DE0FF7E0090072FE02FFD90072E83
:105A5700E03EFCC3900B3CE09D900B3BE09C900725
:105A67002E5007E4F0A304F041F5EE8FF01281D732
:105A7700807C900B3AE064017074900B3DE0F9FF75
:105A870090072EB1D29FEC9400500D900B3BE0FF96
:105A9700A3E090072ECF8052E9FFC3ED9FFEEC9461
:105AA7000090072EF0A3CEF08044900B3BE0FEA3BE
:105AB700E0FFFBAA06E4F9F87100128358EB240112
:105AC700FFE43AFE90072EE0B5060AA3E0B5070506
:105AD7000FBF00010EC3900B3CE09F900B3BE09E75
