:10000000020417E1FC4D56460022320269D8000175
:10001000020322026A13021876222280ED7F002258
:1000200022223280FDE4C3FA90960AE04401F054A3
:10003000FEF0909609E0A2E2E492E02A23FA90967C
:100040000AE04401F054FEF0909609E0A2E2E49246
:10005000E02A23FA90960AE04401F054FEF09096CC
:1000600009E0A2E2E492E02A23FA90960AE0440131
:10007000F054FEF0909609E0A2E2E492E02A23FA1E
:1000800090960AE04401F054FEF0909609E0A2E256
:10009000E492E02A23FA90960AE04401F054FEF03C
:1000A000909609E0A2E2E492E02A23FA90960AE010
:1000B0004401F054FEF0909609E0A2E2E492E02AB6
:1000C00023FA90960AE04401F054FEF0909609E07D
:1000D000A2E2E492E02AFA90960AE04401F0EAFFF4
:1000E000227808EF33FF90960AE092E154FEF090F8
:1000F000960AE04401F0D8EB229003F30284D32265
:100100000000220000220000220000220000220045
:100110000022000022000022000022000022000035
:100120002200002200002200002200002200002203
:100130000000220000220000220000220000220015
:100140000022000022026CE60000220000220000D3
:10015000220235C9025019023F730000220000221A
:10016000000022000022000022021B90000022005A
:100170000022000022000022000022000022025C77
:100180004A0000220272D70000220000220273D22D
:1001900000002200002202719A00002200002200CA
:1001A00000220000220000220000220000220000A5
:1001B0002200002200002200002200002200002273
:1001C0000000220000220000220000220000220085
:1001D0000022000022024F9C027187026C39023D0E
:1001E000960266AA00002200002202714B0237EA42
:1001F0000000220000220000220000220000220055
:100200000022000022000022000022000022000044
:100210002200002200002200002200002200002212
:10022000000022000022024F6A026CDD0000220062
:100230000022000022000022000022000022000014
:1002400022025E670000220000220000220000223D
:10025000000022000022410ABA00410AB400420A0A
:10026000B50000420AB70000410AB9004109DD00AB
:100270004109DC004109E8004109DA00410B810134
:10028000410B7F00410B8000410BA700420A100088
:1002900000420A0E0000430A12FF0604430A0BFF45
:1002A0000613430A08FF06224109B8004209C300A9
:1002B000004409AE0C020307410A1E00410A200057
:1002C000410A1800410A1700410A1F01410A15009E
:1002D000410A16004209D300004209D10106420931
:1002E000CC00004209CA01084309D5FF0630430982
:1002F000CEFF063F4309C7FF064C4209C5006342D3
:1003000009D80063410BAC01410BAD02410BAF00BA
:100310004107610041075F00410762004107730028
:100320004406F9FFFFFFFF4106F30041098F014436
:10033000098200000000420980006444098B00002B
:100340000000410A7300420A740000420A7600006D
:10035000420A700000410A7200410A6F00410A2AF5
:1003600000420A220000410A2B00410A2C00410AE7
:100370002401410A2100410941FF4109420041098C
:1003800043FF450905000000000041091B00410B27
:10039000B70241086900410902004109030041090F
:1003A0009B0041099C00410BB900410BB801520868
:1003B0004C12011001000000400000020210000178
:1003C0000203014C079300000008001DC3FF030057
:1003D0000200480781001DC3FF000002004C0774A3
:1003E0000B00000800020000000002004D07E0556D
:1003F0005342530870BA840000000000420BBC0353
:10040000E8410AA700420AAA01F4410AA400410BEC
:10041000BF01410BBE010012331B787FE4F6D8FD0B
:100420001269B2EFFD9006D96003A3DFFD7F277E3E
:1004300011C3EF9DFF50011EE4F0A3DFFCDEFA754F
:10044000810B12377A020483022AC2E493A3F8E4F0
:1004500093A34003F68001F208DFF48029E493A31C
:10046000F85407240CC8C333C4540F4420C8834035
:1004700004F456800146F6DFE4800B010204081004
:10048000204080900256E47E019360BCA3FF543F5D
:1004900030E509541FFEE493A360010ECF54C0253C
:1004A000E060A840B8E493A3FAE493A3F8E493A32C
:1004B000C8C582C8CAC583CAF0A3C8C582C8CAC590
:1004C00083CADFE9DEE780BEBB0111F8E58229F5CA
:1004D00082E5833AF583E0C828F0E8225009C58216
:1004E00029F8C58226C622BBFE0DC58229F8E2C5C1
:1004F000822582F2E58222EA2583F583E99322BBF5
:10050000010FF8E58229F582E5833AF583E028F0CA
:10051000225009C58229F8E58226F622BBFE09C5CC
:100520008229F8E22582F222F8EA2583F583E9930D
:100530002822F8E0FBA3A3E0F925F0F0E58215827C
:1005400070021583E0FA38F022D083D082F8E49369
:100550007012740193700DA3A393F8740193F58244
:100560008883E4737402936860EFA3A3A380DF55CC
:1005700053424300008002021F0000004D565349C1
:10058000000000004361726420526561646572007E
:100590000000000056312E30030000007000020001
:1005A0000000000A000000003A0000000000700097
:1005B00005000000000A0000000024000000000008
:1005C000ED0303543FFD8E838F82E090A621E0F877
:1005D0008E838F82E090A621E0FB8E838F82E09055
:1005E000A621E0FC8E838F82E090A621E08A838999
:1005F00082C8F0A3EBF0A3ECF0A3E8F0A3AA83A9D0
:1006000082DDC3224D5653494C49434F4E2E494E2D
:10061000432E004D5620434152442052454144450B
:1006200052003230313130393031313233343500EB
:100630004D5653494C49434F4E2E494E432E004D83
:10064000562055534220415544494F0032303131F4
:10065000303930313132333435008F828E83ED7052
:1006600004EC600B1CE06455F0A3DDF90206612286
:100670004641543136000000000403090409028792
:100680000003010080FA09040000000101000009D4
:1006900024010001280001010C24020101010002D3
:1006A000030000000A2406020101010202000924DD
:1006B000030301030002000904010000010200001D
:1006C00009040101010102000007240101010100E8
:1006D0000B2402010202100144AC0009050409C008
:1006E00000010000072501010000000904020001CB
:1006F00003000000092101020001222100070583F7
:10070000034000010902200001010080FA090400F1
:10071000000208065000070581024000010705029B
:100720000240000109029E0004010080FA09040051
:10073000000208065000070581024000010705027B
:100740000240000109040100000101000009240128
:100750000001280001020C24020101010002030033
:1007600000000A2406020101010202000924030319
:100770000103000200090402000001020000090454
:1007800002010101020000072401010101000B2404
:1007900002010202100144AC0009050409C0000175
:1007A0000000072501010000000904030001030007
:1007B00000000921010200012221000705830340F6
:1007C0000001050C0901A1011500250109E909EA4B
:1007D00009B509B609E209B309CD09B7750195084C
:1007E0008142C02E2C2A2927262423211F1E1C1BB0
:1007F00012C94690060FE0900610F02232FFFFFF6C
:03080000140108D8
:100807000227E405320007D001F4006401F400C8B0
:10081700320AC350271007D014503C140A1E140084
:1008270000000000000000000002FAFCFDFEFCFAD8
:10083700FA0202FF02FFFDFAFAFAFDFF0202FFFFCA
:100847000002020202FDFAFAFF0200FF00020201A3
:10085700FFFEFAFEFEFEFCFAFE02FE02FFFFFDFAB5
:10086700FAFAFA0202020101FFFEFEFEFDFDFDFAA1
:10087700FAFF010202020202FFFD02020202020265
:10088700FD0202FFFAFF020202020202020000005A
:100897001A001F0024002A0031003A0043004E00CE
:1008A7005B006B007D009300AD00CC00F0011A01E6
:1008B7004C018701CC021D027C02EC0370040B047F
:1008C700C20599069607C0091E0ABA0C9E0ED85A89
:1008D700A55FA05EA15DA25CA359A65BA400000072
:1008E7000000000000000000000000000000000001
:1008F70000000000000000000000000000000000F1
:1009070000000000000000EAF6E9F3E7A1F7E3A51D
:10091700BDADB5BAB9BBE6B8F2F8BFBC0000000080
:10092700000000E9EDEFFBFAF9F7F6F5F3F2F1FF56
:10093700FDFEEEE7E6E5EBEA00000000000000FA46
:10094700F9F7F3F2F1EFEEEDEBEAE9E1E5FFE7FEA8
:10095700FDFBF6F501020304E100000000000000C2
:100967000100000014640000585A590007000000F5
:100977000600000065651200666613003F3E3A36C2
:1009870033302D2A272523211F1D1B191715131156
:10099700100F0E0D0C0B0A0907060402013F3E3A21
:1009A7003633302D2A272523211F1D1B1917151410
:1009B700131211100F0E0D0C0B0A090807069006EB
:1009C700D7EFF0E01313543FFF12B875124FE590BD
:1009D70006D7E01313543F25E025E0FF1207F090F8
:1009E7000AF77401F02274FFFFFE12B83F124FF8A6
:1009F7007F0112B8757F011207F0E4900AF7F00241
:100A07009766900B95EDF0900B94EFF0641D6004E2
:100A1700E0B41E037F0022900BB6E07002FF229025
:100A27000AF9E0900B96F012CECF126934900AF8CB
:100A3700E0B40402F1BE31F4900B94E0FF12636955
:100A4700126400EF600512976680F5126C81900BB7
:100A570096E0900AF9F0900B95E06006126C8D1203
:100A670010057F0122E4900B88F0A3F07F01122A82
:100A7700719006FEEFF0900760E0602B9006FEE0B5
:100A870070257B017A07796E12B5E4EF60191221A0
:100A97001EEF700E900701E07D06B401027D07127C
:100AA7002690E4900760F09006FDE06406700281EE
:100AB700E5A3E01205490BDE060BEA070B6A0C0BF0
:100AC70000120B2A130BBC150C4C210C0B260C0B1C
:100AD700270C28280C28290C0B2A0C282B0BDE2C7A
:100AE7000BEA2D0BA12F0B57300C4C3C0CB6630BAC
:100AF70000650B2A6600000CE5122A695006900B68
:100B070089122A629006FEE06465600281E5122F71
:100B1700E1600281E5900B89E0600281E57D017F5C
:100B270015802912294A4006900B881227F690064D
:100B3700FEE06466600281E5900AF9E0600281E503
:100B4700900B88E0600281E57D017F16510981E500
:100B57009006FFE0B40304E4F080389006FF7403C6
:100B6700F080309006FFE0700404F08005E4900602
:100B7700FFF09006FFE0B4040B9007027401F090B9
:100B870007328008E4900702F0900730127697F05A
:100B9700126A897F01126ADC81E5900700E004F0A0
:100BA700E0C3940B4002E4F01265ED126A897F01FD
:100BB700126AE281E5900AFAE060119006FDE0B45E
:100BC70002047D018002E4FD7F1B8004E4FD7F1A9F
:100BD70051091217F381E5B1D4500281E5B1B5E4AB
:100BE700FF800AB1D4500281E5B1B57F01125A3FA7
:100BF7007B017A07796E7FE87E03FDFC12B5B29020
:100C07000760803CB1D7500281E5B1B57F02125A27
:100C17003F12211EEF600281E51223F69006FD8048
:100C27001FB1D7500281E5B1B57F03125A3F122198
:100C37001EEF600281E57D077F011223FA9006FD12
:100C47007401F081E512414990002DE09F90002C3E
:100C5700E09E402E126D1F4029900702E0702390FE
:100C6700072EE06E7003A3E06F6017B1B5900A22FC
:100C7700127697F01225B412211EEF70057D061229
:100C87002690125FB4FF900A22125F9D9FEC9E4050
:100C970011D3ED9400EC94004008D1087FE87E035F
:100CA7008006D1087F007E00F15B1225B4802F906B
:100CB7000869E0B40128E4900B8AF09006FDE0B4DF
:100CC700020912694A900B8A7401F01239359008AB
:100CD700697402F0900B8AE0B401031221DB1277EA
:100CE700956016900762E0701004F0FB7A0779634D
:100CF7001277409007737401F09006FDE0B4020C80
:100D0700900762E06006E4F0900773F0900773E0E5
:100D1700602712776A12B5E4EF601E127795600FAD
:100D2700122B60E4FD7F1B1276A3122E2A800AE4A1
:100D3700900773127769122FDA9006FDE01460119D
:100D470024FE600804700D1221DB800812694A80B6
:100D5700031269969006F3E0600D126CD1EF6007FD
:100D6700E49006F3F080279006F3E07021126CD12F
:100D7700EF701B9006F304F09006FDE0B4020F122B
:100D870000F9EF2401FFE43E123FEC124AF1120092
:100D9700F99006F9122EF960141267D112228A40CF
:100DA7000C1200F99006F9128570126A8922122135
:100DB700D412A68F9003F312857C00000000122640
:100DC70094E4FDFFF1C27F647E00028AF812186B7B
:100DD700D390002DE0940190002CE0940022E05481
:100DE700FDF0E054DFF0E054FBF0E054BFF0E044E6
:100DF70001F0E04410F0E4FDFFD18CE4FD7F01D168
:100E07008C7B017A097916221231BE600D14602994
:100E170024FD24FD50482408706512772E90091D83
:100E27007008B1E57FE87E0380531275E5D1877DB1
:100E370001D1047F007E00804412772E701590093F
:100E47001D126BD154BFF07D01E4FFD1067FE87E10
:100E57000380091276F5D1067F007E00801F127786
:100E67002E701190091D1276DDE4FDFFD1067FE893
:100E77007E0380091276F5D1067F007E00F15B22A2
:100E8700F07D01E4FF900BB5EDF0900BB4EFF0703F
:100E970010A3E07D017F01600512B988800312B9B4
:100EA70046900BB4E0B4010EA3E07D207F0A6003F7
:100EB70002B98812B946221225936005EF640270C1
:100EC7004C127795700B90091DB1E57FF47E018078
:100ED7003A9006FDE0FF64016005EF6403701112AC
:100EE70075E2F01230C77D01D1047F007E00801BC0
:100EF7009006FDE06004640670131275E2D1877DE9
:100F0700017F01D18CD1087F007E00F15B22900A1E
:100F1700F8E06403703312772E700F90091DF012FA
:100F270075E5B1FC7FF47E01801DE490091DF0E0BA
:100F370054FDF0E054DF126BD154BF1276DD7D0112
:100F4700E4B1FF7F007E00F15B227B017A09799E85
:100F57007F007E007D007C0002B5B2900AF8E0FFBA
:100F67006406600AEF64076005EF64087048900A3A
:100F7700DAE0B4010B1276F5D1067F007E008034EB
:100F8700900ADAE06402702EFDFFD18CE490091D0F
:100F9700F0900AFAE090091DB4010B1276DED10831
:100FA7007FE87E03800EE04404F0E04440F0D1087F
:100FB7007FF47E01F15B227D017F01900BC4EFF08E
:100FC700ED64017006122D0F12B988900BC4E0B4BE
:100FD700011D123051900AF8E0B40305E4FF121026
:100FE70044900AF8E0B40C0FE4FF1210448008E4C0
:100FF700FDFCFFFE1226C8900ABA7401F022900A7F
:10100700F9E06038900ABAE064017018900AF8E0D5
:10101700B403077FC011441238A8900AF8E0B40C53
:1010270003126C96D12012294A400C900A1FE070D7
:1010370006122D0F12B946E4900ABAF022900BCA95
:10104700EFF0F18B9009DCF0900BCAE0F0FF90090C
:10105700DDE0B50706F12770022185900BCAE07025
:101067001671FF6002911CD119600291B871F87076
:1010770002217531862175900BCAE0FF540960374C
:10108700D1196007EF5424700291B871F8602012EB
:10109700774B701BEF54C070169009DDE054126057
:1010A700043186800A9009DDE054C06002B187717F
:1010B700FF64096002916212774B602D71FF600730
:1010C700EF54097002911CD119600A900BCAE054C1
:1010D70024700291B871F8600BE05412FFF1276F8A
:1010E70060023186F127FF5139900BCAE0FF542483
:1010F700601D71FF6007EF54097002911C71F86061
:101107000C12774B7007EF54C070023186B1009014
:101117000BCAE0FF54C0605671FF6007EF540970B7
:1011270002911CD119600A900BCAE05424700291F5
:10113700B871F86006F1277002318671F8FFB412B2
:10114700047FC0800EEFB402047F408006EFB41026
:10115700027F80EFD39400400B900BCAE054C06F1E
:101167006002B187900BCAE054C0FF1233B0900BF6
:10117700CAE0FF9009DDE06F6002EFF0D1B8227F8F
:1011870001122FE8F1945004AF068000900BC8EFCE
:10119700F0909C41E09009E7F0909C42E09009EACA
:1011A700F0900BC8E0C394405013129766900BC899
:1011B70012779C9130900BC8E004F080E491AB90DB
:1011C7009C4FE0549F51185105909C4FE054E751B4
:1011D70018909C4CE054FCF07F147E00511D1200C7
:1011E7002071EFEFF47002EEF4601271EFEFF4701C
:1011F70003EE64FE6007909C48E04401F022909C57
:1012070049E054EDF07F027E00511D909C4FE05461
:10121700F9F07F027E00900BA0EEF0A3EFF0900BA9
:10122700A0126E8545F06009129766913091308063
:10123700ED22900B79EFF0909C4E9114909C4DE02D
:10124700543F900B7BF1ED7002EEF4601271EFEFFB
:10125700F47003EE64FE6007909C48E054FEF09043
:101267009C4CE04403F0909C41E4F0A3F0909C4F29
:10127700E044185118909C4FE044015118909C4F3E
:10128700E044065118909C49E0441251187B017ABA
:101297000979E07F107E27120F5B9009DAE0600280
:1012A7006168909C4BE020E058909C4BE030E00256
:1012B7006162F1A16002616271EFEFF47002EEF416
:1012C700600B71EFEFF47003EE64FE7022900B7AFF
:1012D700E0149106909C4EE07023ED643F607C9093
:1012E7000B7A7440F0A3E025E0F04401F0800E9003
:1012F7000B7AE014909C4EF09114E0605EF1E78069
:10130700A8909C4BE030E053909C4BE030E04CF1D0
:10131700A1704871EFEFF47002EEF4600B71EFEF1C
:10132700F47003EE64FE701F900B7AE00491069050
:101337009C4EE0643F7020ED6021900B7A74FFF0C3
:10134700A3E0C313F08010900B7AE004909C4EF05A
:101357009114E0643F6004F1E780AD9009DA74010D
:10136700F05105909C4FE054FE51181231C5909CE6
:101377004FE044065118909C49E044125118909C44
:101387004FE0446051181200099009DCE07003F146
:10139700DAF091B21233A35004AF068000900B7BB2
:1013A700EFF0900B7A743FF0900B7BE0FF900B7A95
:1013B700E0D39F402A1235C1FF900B7AE0FEC39F0E
:1013C7004005909C41EEF01235B99F4008900B7A8A
:1013D700E0909C42F09130900B7AE014F080C99035
:1013E70009E7E0123519F02290966BE0FEA3E0FFC3
:1013F70022909C49E0541222909C49E05409229083
:101407009C4EF0900B7BE0FD909C4DF0A3E0543F89
:10141700900B7AF0221230B991AB909C48E04422AD
:10142700F18354F6F1704411F012B8A0EFFD7C007F
:101437007E017F90128182EF2401FFE43EFE9099A6
:1014470004E020E00BEF7802CEC313CE13D8F9FFE8
:10145700EF1FAC0670011E4C70F622909C4374037C
:10146700F0A3F1834409F17054EEF17054DDF0916B
:101477003071EFEFF47002EEF4600871EFBEFE0A10
:10148700BFFF07909C4374028005909C437401F052
:10149700A3F01278007004F1DA91B11277F87F5057
:1014A7007E00411D909C48E04444F07F0A7E004145
:1014B7001DF1945004AF068000900BC7EFF0909C8D
:1014C70041E09009DEF0909C42E09009DFF0900B3C
:1014D700C7E0C394405013129766900BC712779CCE
:1014E700F1E1900BC7E004F080E491AB909C49E0F8
:1014F70054DBF07F037E00411D1231C5F184442483
:10150700F09130909C47E04403F07FF47E01511D39
:10151700909C47E054FCF01278007003F1DAF091E8
:10152700B2F1945004AF068000900BA2EFF0A374C1
:101537003FF0900BA2E0FFA3E0D39F4032129766E3
:101547009009DEE0FF900BA3E0FEC39F4005909C4F
:1015570041EEF09009DFE0FFEEC39F4008900BA338
:10156700E0909C42F09130900BA3E014F080C39080
:1015770009DEE0909C41F09009DFE0909C42F02268
:101587001233A35004AF068000900BC9EFF0900B05
:10159700C9E0D3943F502B129766909C49E030E105
:1015A70008900BC9E0909C41F0909C49E030E4081A
:1015B700900BC9E0909C42F05119900BC9E004F0E0
:1015C70080CC909C49E030E107909C48E04404F0CF
:1015D700909C49E030E407909C48E04440F091B289
:1015E700909C49E030E103124063909C49E030E46D
:1015F7000312405B5119909C49E030E104E054FD2F
:10160700F0909C49E030E404E054EFF07F027E0064
:10161700411D909C49E0542422F18B7002C1B812FD
:1016270031C5F18D600AE054BBF07F1E7E00511D6D
:1016370071FF60031277F8D1197005E054126071D9
:10164700D1196011F1945004AF0680001277F0F0C1
:101657009009DF80101233A35004AF068000127781
:10166700F0F09009EAE0900B34F0900B35743FF0FE
:10167700900B32E0FF900B35E0C39F403412976622
:10168700900B35E014F0900B33E0FF900B35E0FE44
:10169700C39F4007EE543F909C41F0900B34E0FF0E
:1016A700EEC39F4008A3E0543F909C42F0913080E6
:1016B700BF9009DBE07016127753C083C082E0FF4A
:1016C700A3E054FED082D083CFF0A3EFF022AE0781
:1016D700F1AF909C46E04410F0AF06123848120F65
:1016E7005B909C4BE020E204F1A160F5F178448027
:1016F700F07F01F17A4420F09130909C45E0440559
:10170700F09130909C46E0547FF0F1E1909C49E0E5
:1017170054BFF09130E49009E8F09009DDF0809132
:10172700900BCAE0541222900BC6EFF0F178448078
:1017370091B1909C45E054FA91B1909C46E0547F5A
:1017470091B1909C46E054DF91B1909C46E054EFF4
:10175700F0900BC6E0FF123848120F5B909C4BE0ED
:1017670020E305F1A160F52222F09130909C48E03A
:10177700227F647E00511D909C46E022F0913090BC
:101787009C49E022F1AF909C48E05444229009DF45
:10179700E0FF9009DEE0FEC39F221297667B017A85
:1017A7000979E012B5E4EF221267C930E0027F0140
:1017B7009009DBEFF0909901C083C082E0FFA3E0BE
:1017C7004401D082D083CFF0A3EFF0909C06E04491
:1017D70080F022909C48E054BB227F017E00411D8F
:1017E7007F057E00411DF071EFEFF422900AFAE0C9
:1017F7006006E4F01105800B900AFA7401F0FDFF12
:10180700120FC290091BE0B40103120E0F22900BB6
:10181700CFEFF0126B22601324FD24FD502724FD27
:101827006016240A70251269AC8020900BCFE06403
:1018370003601812688F8013900BCFE0640C600B65
:1018470012303380061267F4120016900BCFE09027
:101857000AF8F0900BB9F0120FBEE4900AFAF012F2
:101867006A68110A90091BE0B40103126AF5221194
:101877008690966AE4F0900ADAF090079FF022D3F8
:1018870010AF01C3C0D0909644E054FCF0D0D09282
:10189700AF229096457403F0517EEF60189006A032
:1018A700E064076010900AAA740BF0A374B8F09074
:1018B70006A07407F09006A0E0FE702B5121EF60A0
:1018C7000C5160EF7007900AA5F0A3F022514BFC72
:1018D700C3E5F09464EC9400500241205155740222
:1018E700F0900AA414F022EEB401265121EF700201
:1018F700411E5160EF6002411E900AA5514FFED371
:10190700E5F09464EE940050024120E49006A0F0C4
:10191700229006A0E06402703D51385121EF600A21
:101927005160EF7005515604F02212001DEF64015B
:1019370070024120900AA8514EFEC3E5F094D0EE04
:10194700940750024120E4900AA8F0A3F0518F9029
:1019570006A07403F0229006A0E0FE6403701F51F6
:1019670021EF70161270CD5121EF60081186515585
:101977007404F02211865138411E5138411EEEB4CD
:10198700041A5121EF60045138411E514BFED3E533
:10199700F094F4EE940150024120800D9006A0E0EF
:1019A700FEB4051D5121EF70079006A07406F022C2
:1019B700514BFCD3E5F09432EC9400405C513880F5
:1019C70056EEB40614127143EF600251775121EFBE
:1019D70060479006A07405F0229006A0E0FEB407C9
:1019E70021517EEF70069006A07406F0D3900AABE3
:1019F700E09400900AAAE09400401E74FFF5F002FC
:101A070081D7EEB4080F1186518F5121EF600A116B
:101A170086513880025138517722900AF8E0B40491
:101A270008909612E05402FF2290A628E05404FF83
:101A370022D310AF01C3C0D0909644E04460F0D0E9
:101A4700D092AF22900AA5E475F0010281EDE490EF
:101A57000AA5F0A3F09006A022900AF8E0B40408C3
:101A6700909612E05401FF2290A628E05402FF222C
:101A77009006A07402F022909644E05403FFBF033F
:101A8700047F0180027F0022D310AF01C3C0D09032
:101A97009644E0549FF0D0D092AF2212C8CB90A6C4
:101AA700227409F0909883E4F0518F118612563C06
:101AB7001270CD1277BCE4FDFF1277B471894440F0
:101AC700FD7F011277B4718954DFFD7F017EA31278
:101AD7008F80E4FF1270E051E6E4900AA7F0227FBE
:101AE7008151EC7F02900BE8EFF0547FF148900BA7
:101AF700E8E030E737718754DF717F4440B190D118
:101B070040C006B10CD0E04FB1907F1371897F00C0
:101B1700FEC007C006B10CD0E0FED0E0EE4420FDC9
:101B2700F1A07D407F10F1B07F1180477F1671894A
:101B370054BFFDD14A7F1671894480FDD14AD140F7
:101B4700C006B10CD0E04FB1907F1371897F00FEC2
:101B5700C007C006B10CD0E0FED0E0EE54DFFDF1C7
:101B6700A07D407F14F1B01277A67F1671894410CB
:101B7700FD7F167EA3028F80FD7F127EA3128F80CA
:101B87007F127EA3128C84EF22D080D0807B017AD3
:101B97000A79399006A1124F5BFCFD12B5B27B01A1
:101BA7007A0A793E7F64120F5990057AE0640370D0
:101BB7003CF13F900A43EFF030E6147F16718944F9
:101BC70080FDD14A7F167189549FFD7F16807890DA
:101BD700057BE0600C1259A5EF20E002819B7F0195
:101BE70022900A43E020E002819B7F012290057A40
:101BF700E064047031B10C900A43EFF030E50D71E9
:101C0700874480717F54DEFD7F12803B90057BE027
:101C1700600A1259A5EF30E07B7F0122900A43E06A
:101C270020E0717F012290057AE060046402702C45
:101C3700D140C006B10CD0E04F900A43F030E21219
:101C4700718754D9FD7F127EA3128F8012935E7F16
:101C57000022900A43E020E13B7F012290057AE0D1
:101C67006401702D7F1371897F00FEC007C0067164
:101C770087FDD0E0FED0E04DFF900A43EEF0A3EFE2
:101C8700F030E2037F0022900A44E030E0067F0153
:101C9700227F00227F607189645D60037F00227B61
:101CA700017A0A793912B5E4EF7006129758EF7086
:101CB70035F13F900A43EFF054DF4401FDD14A90DC
:101CC700057AE064037014A3E070107F32FE12906F
:101CD700017F16718930E0037F0122718754D6B1E5
:101CE70090B18F7F00221297667B017A0A793E12A4
:101CF700B5E4EF700261B07F0112AFF6EF640160E7
:101D07000261B0FF227F127EA3028C84900BE7EF63
:101D1700F0540FF148900BE7E07025D140C006B1B1
:101D27000CD0E04FB1907F1371897F00FEC007C0D0
:101D370006B10CD0E0FED0E0EE4401FD7F138042F7
:101D4700900BE7E030E74071874408B190D140C07D
:101D570006B10CD0E04F4410B1907F1371897F001A
:101D6700FEC007C0067187FDD0E0FED0E04D4410ED
:101D7700EEFDF1A0124139718754CF717F4440FDC8
:101D87007F127EA3128F8022E4FD7F127EA3028F33
:101D9700801270F3EF30E20FE4FF1270E07F04511E
:101DA700EC7F8151ECF1077B017A0779F87D081206
:101DB70070FAEF7002C13F9007F8E020E711900733
:101DC700FEE0600B7B017A0879617D08126E229034
:101DD70007F8E05460704AA3E01205491E02001E8E
:101DE7003F011E04031E0A051E14061E17081E19AE
:101DF700091E220A1E3F0B00001E2480209007FCAC
:101E0700E0801B9007FAE0547FFF0270E0025AC699
:101E1700801B51E67F8351EC0262A98010E4FFA189
:101E2700139007F8E0B4A10DA3E0B4FE087D01E428
:101E3700FFFE02628D126152227F137EA3128C84F1
:101E47007E00227F167EA3028F80900AE11285E62C
:101E5700900AE4ECF0A3EDF07D02F149C3900AE4A7
:101E6700E0940250527F16718920E004E4FEFF22BD
:101E7700E4FD7F021259ACEF7003FEFF22126E1BC6
:101E8700900AE6EFF0FDC2AF900AE11285DD7F28E8
:101E97007EA3128A06D2AF900AE6E070097F167118
:101EA7008954FEFDD14A7F16718954FEFDD14A90AF
:101EB7000AE6E0FF7E0022900AE1127722900AE10B
:101EC700127716900AE4125FD5900AE4125FCC12DB
:101ED7005A47EF7003FEFF227D01D14A7DA012779A
:101EE700AD7D2D12586C125873E4FD12586C7D01AC
:101EF7007F16F1B01277AD900AE4E0FEA3E0FF226F
:101F07007D04F1497DC07F14F1B01277A67F17D108
:101F170042C006F13FD0E04FFDD14A7F1771897F5C
:101F270000FEC007C006F13FD0E0FED0E0EE44401F
:101F3700FD7F177EA3028F807F167EA3028C84F01D
:101F4700E4FD7F0E7EA3028F80900B1A1285E69028
:101F57000B1DECF0A3EDF07D03F1497F0E71896451
:101F67000360047D03F149900B1DA3E0FD900B1A5C
:101F77001285DD7F2C125FC4B191F19E900BBCE4FA
:101F8700F0A37432F0E4FD7F031259ACEF70047DC7
:101F9700088002E4FDB1917D207F137EA3028F802C
:101FA7007EA3128F807D107F087EA3128F80E4FDB1
:101FB70022126A687F0112CD82E4FD7F06F1B07FAD
:101FC70007F1A77F09F1B0126E7BF107D310AF01BC
:101FD700C3C0D09004037420F0A3E4F012728CD035
:101FE700D092AF22126B22600D24F7600E240A7084
:101FF700171226B380081238A88003126C9B7B0146
:102007007A0679DD7D01111022900B461285E69044
:102017000B49EDF0126ACA1249B24002E4F01249C4
:10202700AA4002E4F09006DB745AF0900AF8E0FF49
:1020370060049006DCF0900AF9E09006DDF0124F9C
:10204700A44002E4F0900AF8E0FBB40116900702FE
:10205700E09006DEF0900A73E09006E3B1AD9006DB
:10206700DF8018EBB40217900702E09006E8F090C3
:102077000A73E09006EDB1AD9006E912857012493A
:10208700FF9006F2EFF0900B46124AAB6033900BCD
:1020970049E0602D7D5AE4FF12BA06900B4612857F
:1020A700DDC3E994DBFF900B461285DD900B49E019
:1020B700900AF1F01247F39006F2E0FD7F1712BA8B
:1020C7000622C374E83112D39401400FE49006E866
:1020D700F07B017A0679E87D011110C374DE3112B5
:1020E700D39401400FE49006DEF07B017A0679DE97
:1020F7007D011110C374DD3112900AF9E06F600A97
:102107007B017A0679DD7D0111102294DBFF12BF76
:10211700F4900BDBEFF0227B007A007900900B85BF
:102127001285E6E4900760F0900702E07013B1BCF7
:1021370090072FE09F90072EE09E4005E4F0A30450
:10214700F0900B851285DD9005131285E690072E1A
:10215700E0FFA3E0900516CFF0A3EFF031D4129C77
:102167006BEF7007900BAE740580277B017A0779B8
:102177003F7D0B124A07900A73EFF07B017A0679CD
:10218700DB7D18111031D412CEE6EF7009900BAE3B
:102197007407F07F00229003F312857C0000000093
:1021A700900768E0601DE4F0124AD69003EF1284AE
:1021B700D39003F3122EF9400A9003F312857C00A3
:1021C700000000126554EF7F017001FF227B017A46
:1021D7000779302231D412DB79EF600612CEB0EFE7
:1021E70070119006FFE0640370227F0A1267D351D3
:1021F7008A4019120DB59006FFE064016005E4FFFF
:1022070012589B311EEF700471F680427B017A07EA
:10221700796912B5E4EF6017900AFAE07011900738
:102227005FE0700B121005D1B390075F7401F012D5
:102237004EF0EF701B120DB5900701E0FF640260CE
:1022470003EF70047D0680027D077F0171FAC19458
:10225700126974600B24FE6018146015240470184A
:1022670012CECF1269349006FD7403F01277D18035
:102277000412697BF012698322E47F487E0DFDFC1E
:1022870090098B1284DFD302840E900BB0EFF0E439
:10229700A3F0D3900981E09400900980E094004076
:1022A700229009821284DFC000C001C002C003125D
:1022B700406BE4FCFDD003D002D001D000124140B6
:1022C7001247E9900980E07002A3E0600261BD7BDC
:1022D70064FAF9F89009821284D312835890098B13
:1022E700128570900980E4F0A37464F0A312857CD2
:1022F70000000000E47F107E0E5185400890097AA7
:102307007402F08019E47FAC5183400890097A7415
:1023170004F0800A5180400690097A7405F05180D4
:102327004015E47FAC7E0DFDFC90098B122EF95011
:102337000690097A7405F0900BB0E0B4010A518059
:102347005006900BB17401F0900BB0E0700A518108
:102357005006900BB17401F0900BB1E06401705618
:1023670090097A7406F012001212976690098FE0AE
:10237700602EE4F07B017A0979867F107E27FDFCC9
:1023870012B5B27D017F0F120A091277BC900AF8C5
:10239700E0640C7021122840EF701B1210058016A4
:1023A7007B017A09798612B5E4EF600AE4FD7F0FB5
:1023B7001276A3122E2A020012121FEB900AF9E0DE
:1023C7007010900ABAE0700A900AFAF07D01FF12C5
:1023D7000FC2900ABAE0B4010912294A4004A37453
:1023E70001F0900AFAE0B40105E4F0121005227D2D
:1023F700067F01900B3EED12767DC3940840037F64
:102407000022900B3EE0FFA31285DD9000017401CE
:102417001204C8FD1280F62DFD7C00ED5407FD90D7
:102427000B3F127771E92DF9EC3AFAEF12813C7FF5
:102437000122125554900BDDEFF06012120F51E498
:1024470090099C127769122FDAE4900773F0900ACB
:102457002CE0B40102B19B900A22E07002A3E06075
:1024670025B18C12B5E4EF7007900BDDE0B42216AE
:10247700B18C7F887E13120F5B900BDD7421F0E423
:10248700900A2CF0A176900BDDE0FFC39416407400
:10249700EFD39420506EB1936007EF64026002A1FE
:1024A70064B1A4F0900BDDE0FBB4201F900A22E09A
:1024B700FEA3E0FF7C007D0A128182ED4C6002B131
:1024C700B4D19B900A2A7401F08026900A2AE06012
:1024D70011EB24EAFFE434FF900A228FF01281D730
:1024E700800A900BDDE024EAFF124153E4900A2AA8
:1024F700F0E4900BDDB18B7FD07E07FDFC12B5B207
:10250700B19B806B900BDDE0FFC394314056EFD356
:10251700943B5050B1936005EF64027052B1A4B17F
:102527008B7F887E13FDFC12B5B2900BDDE0FFB404
:102537003B04D19B8007EF24CFFF124153B19BB1DE
:10254700936004EFB40216B1BC900A23E09F900A8F
:1025570022E09E5008900BDD743CF08012E4900B53
:10256700DDF0800B900BDDE06005B1B4B1A5F09014
:102577000BDDE0FD600D7F0171FA900BDDE0FDE4FE
:10258700FF71FA22F07B017A0A792522900AF8E096
:10259700FF640122900A22E0FEA3E0FF22E4900AF2
:1025A7002CF0900A2B22F090074B0284D3E4900A78
:1025B70022F0A3F02290002CE0FEA3E0FFD322E458
:1025C700900702F0900760F0126A7DEF6401706176
:1025D700900A72E0700C900768F090072EF0A30441
:1025E7008047900A74B1BF9400EE9400406690074C
:1025F700687401F090002C125F9DEF9DEE9C4008DF
:10260700900A74E4F0A304F0900030B1BF900A710F
:10261700E09F900A70E09E4005E4F0A304F0E49088
:102627000702F0900A74127697F0E49006FFF080A4
:1026370023E4900768F0900703F0A304F090072EB7
:10264700E4F0A304F0E49006FFF09003F312857C16
:1026570000000000E4900701F090002CE07002A356
:10266700E070079006FD04F0FF22D194311EEF7051
:102677000271F6E4900A74F0A3F0900A76F0A3F0E2
:10268700900A70F0A3F07F01227F0171FA9006FD96
:102697007401F022900A22E475F00A0281D7122B06
:1026A70067B1B4B18CFFFEFDFC02B5B2900AF9E048
:1026B70025E02494F582E43408F583125FACFDAC81
:1026C70006900B2E12672C1217AF1213EFEFF47050
:1026D70002EEF460631213EFEFF47003EE64FE6032
:1026E70057900B2EF1CDC333CE33CED8F9FF7C00F4
:1026F7007D05128182900B2EEEF0FAA3EFF0FBA37B
:10270700F1CDC333CE33CED8F9FF7C007D051281DE
:1027170082900B30EEF0A3EFF0D3EB94EAEA940B40
:102727004005900B2EF1DCD3900B31E094EA900B2F
:1027370030E0940B4002F1DC900B2EF1D4A3F1D4DE
:10274700900B2EE0FCA3E0FDECC454F0FBA3E04BA0
:102757009009E5F0AF05A3EFF0900B30A3E09009E7
:10276700E9F0909C04EFF0909C02E0540FF0C083D6
:10277700C082E0FF9009E5E0FE54F0FDEF4DD08206
:10278700D083F09009E9E01235B1E054F0F0E0FFB2
:10279700EE540FFEEF4EF00216B89009C5127635CB
:1027A700900BAAEEF0A3EFF09009D8127635AD079B
:1027B700AC06900BAAE0FEA3E0FFD1C87B017A0626
:1027C70079DD7D010110E0FEA3E0780222E0540FDD
:1027D700F0A3E0F022740BF0A374EAF022F1A11247
:1027E7001005E4900AFAF02271C07F010200197403
:1027F70001F0E4FFEFB401095169500CE004F080E7
:1028070007314A4003E014F0900AF9E0B420117D43
:10281700017F153159B40C081140EF7003121005F0
:10282700900AF9E070117D017F163159B40C081137
:1028370040EF700312100580AF90099DE0FF22E47E
:10284700900B98F0A3F0313FEF601690099DE07070
:102857001004F0FB7A09799E12774090099C740165
:10286700F0313FEF701C90099DE06016314A40122D
:10287700900A1FE0700490099DF0120F51E490092F
:102887009CF090099DE06007B10F12B98880031290
:1028970010057B017A09799E12B5E4EF602B900948
:1028A7009CE06025313FEF601312337F12B98871C6
:1028B70060E4FD7F1B1276A3D12A800DE490099C6A
:1028C700F07B017A09799EF1DA7B017A0979A41202
:1028D700B5E47F015171900B97EFF024ED60302440
:1028E700AE60071460292454704D51695005900B50
:1028F700995162900B97E06465703CF1E1703890F4
:102907000B99E070327D017F153152702A80253195
:102917004A4006900B981227F6900B97E0B466177B
:10292700900AF9E07011900B98E0700B7D017F160B
:102937003152700312100522E4FF126CB630E70221
:102947007F0022900AF9E0D3940022120A0911406D
:10295700EF22120A09900AF8E022900AC9EFF0BFA5
:102967005822900A21E0C394024002E4F0900A2121
:10297700E004F0E0B4010D7B017A0A79CA7FF47EA6
:1029870001120F5B31E9700E900A21E0B40107E4F0
:10299700900AC9F0804631E97014900A21E0B40228
:1029A7000D900AC97467F0E4900A21F0802E31E98E
:1029B700602A900A21E064017022900AC97458F0D5
:1029C700E4900A21F012552CEF6011E4FD7F1E31CF
:1029D70059B40C081140EF7003121005900AC9E0B2
:1029E700FF227B017A0A79CA12B5E4EF227F0151EF
:1029F70071900B82EFF0E4A3F0A3F0EF146058247A
:102A0700EE603024FE605024B06007146025245423
:102A1700704851695005900B845162900B82E064B5
:102A2700657037F1E17033900B84E0702D7D017F85
:102A3700158021314A4006900B831227F6900B82AE
:102A4700E0B46616900AF9E07010900B83E0700A04
:102A57007D017F16020A091217F3227401F0FF02A3
:102A670027FB900AF9E0C3942022E4900B421276E8
:102A77007D6042900B43127771C003C002C0019082
:102A87000B431247E3FF7C00D001D002D00329F9A2
:102A9700EC3AFA1280F6900B42F0EF045407FFA3CA
:102AA7001285DDEF12813C900B431285DD9000010A
:102AB70074FF1204FF900B42E0FF221231EE74FF05
:102AC700FFFE12B83F12B8CC129766E4900BB8F02D
:102AD700124FF81269B5D2AF126A6112339771F4C7
:102AE700909601715C1226A5126A68D15C1277D89C
:102AF700A3E0444071F4909601E04440715FE4FD27
:102B0700FFB1DDB10F12B988E4FF1235F71240DDCE
:102B1700E4FF1235251248A4126B47124DE1125FEC
:102B2700FB12976612412412243991021231BE60BA
:102B37000F14601524FC601524FB6009240B70102A
:102B4700120A6C800B1146800731F4800312564B32
:102B57001231D880CCE054BFF07F027E00028AF8A1
:102B6700E490094EF0125509F1DA125502120F5787
:102B7700E4FF1232A4E4FF12C06B12C00E90961D40
:102B8700E054DFF0A3E04420F0909620E04420F0EA
:102B9700A3E04420F090961CE054EF715F90961DDF
:102BA700E054BF71FB90962071F890961C715C9071
:102BB7009602E054FBF0A3E04404F0909605E0444D
:102BC70004F0A3E04404125510715F909602E0549C
:102BD700FDF0A3E04402F0909605E04402F0A3E084
:102BE7004402F01256437F027E00028AF8F0909664
:102BF70005E04440F0A3E04440F022900AF8E0905A
:102C07000BD3F0E4FF51719009B7EFF064576004FC
:102C1700E0B44202D12A126073EF602D900AF8E007
:102C2700FF64076024EF6408601F900006E0B403A8
:102C37000A900AF8E0B40D03122694120FBE7F968D
:102C47007E00128AF87F0291F61260ECEF60047F33
:102C57000391F6125532EF60047F0791F6D12312E4
:102C6700B5E4EF6025D1237F64120F591260CAEFD4
:102C77006007B10F12B9888011900A1FE0700B909E
:102C87000ABAE07005B10F12B946126B22601F2411
:102C9700FD24FD5023240770369006D2E06007F12B
:102CA7001AEF702B800E126095EF70238006123892
:102CB700E6EF701B7F01801512512FEF70117F9087
:102CC7007E01128AF8125532EF70047F02F1C89024
:102CD70009B7E0B41418900006E0B4030A900AF8A4
:102CE700E0B40D03122694900AF8E0FFF1762290E3
:102CF7000AF8E0900BD2F0F100EF700B900BD2F1D5
:102D0700C270047F01F176227D107F2012B9467DC3
:102D1700107F2112B9887D107F1D12B9887D107F21
:102D27001E12B9467D107F1C229009A37401F090F2
:102D37000995F012337F12B9461275FD126C96127F
:102D47001005313FEF600D90099D7401F0B10F122E
:102D5700B988800F900A1FE0700490099DF0B10FA9
:102D670012B9461267EB12201012338B12B9881270
:102D7700371B12B9887D207F0F12B988127566122A
:102D8700B9887D017F2012B9467D017F2112B9885C
:102D97007D017F1E12B9887D017F1D12B9467D0214
:102DA7007F2012B9467D027F2112B9887D027F1EDE
:102DB70012B9887D027F1D12B9467D807F0212B944
:102DC700467D807F0312B9887D807F0512B9467DD5
:102DD700807F0602B946123293EF700F90B204F06B
:102DE70090B203D11C90B205F08024EFB4010E908D
:102DF700B204E4F0A3D11C90B203F08012EFB40246
:102E07000E90B203E4F090B205D11C90B204F0909A
:102E1700B000E4F022F0ED90000E93227B017A09D6
:102E270079BE221230111277D1E4FF121044E4FF69
:102E37001216D51277CA7F01900BECEFF012C8DBA0
:102E470012C8BB90988CE04401F0124FE5900BEC50
:102E5700E0FF02B9059006D8E0FF64086005EF645B
:102E67002070747B017A0A79667FAC7E0D120F5B46
:102E77007B017A0A796612B5E4EF703F1297661202
:102E870036D6900A6B1285707F007EFF7D457CBA2F
:102E9700900A6BD1F9601E7F807E7F7DA57C5A905A
:102EA7000A6BD1F9600F7F007EBF7D007CFF900A1F
:102EB7006BD1F97006126A680277D81277CA7F0950
:102EC70012B9ACEF20E60C7F0A7E00128AF812973F
:102ED7006680EB7F01D13F22128358AC00AD01AE73
:102EE70002AF039009F51285709009F51284D3900B
:102EF70009F11284DFC302840EEF24FD600C24FC69
:102F0700600E24FB6007240A80090238C3025FDFD2
:102F1700025064E4900BD0F0900A1EE0B40109124D
:102F27000FBE900BD07401F0126095EF7006900AF7
:102F37001EF0FF221209ED12269412001A900BD0F0
:102F4700E07003120FBE12B24FEF7002FF227F0232
:102F57001218157F09121044E4FD7F0D120A097F2C
:102F6700021268ABEF7002FF221225C67F0122E42E
:102F7700900BA9F0900BA9E0FEC39404501274AE15
:102F87002E1277E8E06F6008900BA9E004F080E468
:102F9700E4900BA8F0129766900BA91277E0400215
:102FA700E4F0900BA9E024AE1277E8F1C2700B9021
:102FB7000BA81277E040DE125F1E22E0FFF100EF60
:102FC70022900BD1EFF0F100EF7007900BD1E0FFEB
:102FD700F17622FFFEFDFC02B5B2900AF9E064200B
:102FE70022900BC5EFF07F0122900B81E0701A90C1
:102FF7000BA7E07014123011122D0F12B988900A26
:10300700F8E0B40C02113331E22290091BE0B4015D
:1030170002111EB1D7F02211C7E4FD7F01120E8CF9
:103027007197122BF47F147E00029001120FBE11CC
:1030370051E4FF121044717F12B988718B12B9469F
:10304700F11B31CE12756602B98812178BFFBF4488
:1030570002805C1213FF600211B91216197005E0A5
:103067005412603F121619600B1217945004AF06E2
:10307700800A800871A35004AF068000900BCBEF45
:10308700F0900BCBE0C3943F5017129766900BCB91
:10309700E004F0E0543F909C41F0A3F0121430801C
:1030A700E031C512178D64446005E0444411BF0246
:1030B70016B8909C01E04403F07F507E0002121D79
:1030C700E4FDFF020E8C90091DE0700221A3120E91
:1030D7000812B5E4EF700221BD90091DE0C313305B
:1030E700E02B120E087F32120F5990091DE0C4130E
:1030F70054077F0020E0027F01EF5401C43354E0FE
:10310700FF90091DE054DF4FF0E0C4806090091D77
:10311700E030E02B120E087FE87E03120F5B900968
:103127001DE0C4540F7F0020E0027F01EF5401C46B
:1031370054F0FF90091DE054EF4FF0E0C4802F12C8
:103147000E087FF47E01120F5B90091DE0C4131374
:1031570054037F0020E0027F01EF5401C43333544E
:10316700C0FF90091DE054BF4FF0E0C41313540192
:10317700900BE2F031BE600D14600C24FD24FD506D
:103187001124087031800011C7900BE2E0FD7F0128
:103197008007900BE2E0FDE4FF020E8C31BE600D6C
:1031A70014600D24FD24FD500A24087009020EBE88
:1031B700020F15120F6222900AF8E024FE22909C5B
:1031C70041743FF0A3F02212B9467D207F0F02B968
:1031D7004690091BE0B4010211CD22D310AF01C301
:1031E700C0D012BAA280FE90988AE04430F090983E
:1031F7008CE054FAF05193909804E0B4170890B01B
:10320700077403F08009907FC0E49390B007F090B3
:10321700B000E41217ED4E6007519390B008519A31
:103227007D027F0712B9887D027F0512B98890B0A9
:1032370009E020E156519390B009519AF50AF50B30
:10324700050BE50B7002050A640A450A70F2E4F5FE
:103257000AF50B90B004E030E01F90B004E030E1D5
:10326700028011050BE50B7002050AD39440E50AAD
:10327700941F40DFE4FF02BA9A90B004E020E0DA3E
:10328700E020E1D6E4FF12BA9A31E22290B000744E
:10329700FFF022E04402F090B000E4F022900BED42
:1032A700EFF012B957900BEDE0FF7009519351CA37
:1032B700E04404800BEFB40109519351CAE044087C
:1032C700519D2290B009E054F3F02212BA95519320
:1032D70090B100E0444180BE5193A3E054FBF090CD
:1032E700B100E054BE80AF90B009E020E00A5193EE
:1032F70090B009E04401519D22909801E0FDEF5400
:103307003FFCED5CF0EF30E50A519390B100E054DB
:10331700BE519D22900BEE7414F071717169F0E04B
:10332700700D900BEEE0FF14F0EF70F67169F090FE
:103337009800E054FEF071776005EF6420701A7111
:1033470061BF0404E4FF80077161BF08047F015176
:10335700A47F0112C06B12C00E2290B009E0540C7A
:10336700FF22909803E09006D822908000E49322F1
:103377009006D8E0FF6408227D807F0C12B9467D55
:10338700807F0A227D017F0512B9467D017F0622D3
:10339700909602E04440F0A3E054BF229009EAE08F
:1033A700FF9009E7E0FEC39F22900B7CEFF030E629
:1033B70002B111900B7CE0FF30E702B109EF30E674
:1033C70006909C41743FF0900B7CE030E706909CA0
:1033D70042743FF0900B7CE0FF30E602B101EF3022
:1033E700E70291F9121219900B7CE0FF30E6029187
:1033F700F1EF30E70291941212199009DCE064446E
:10340700601A900B7CE0FF30E607909C48E054FB85
:10341700F0EF30E707909C48E054BFF01214B27108
:10342700A35004AF068000900B7DEFF0A3743FF02C
:10343700900B7DE0FFA3E0D39F4037B1C1FF900B16
:103447007EE0FEC39F400C900B7CE030E605909C2D
:1034570041EEF0B1B99F400F900B7CE030E7089048
:103467000B7EE0909C42F0121219900B7EE014F054
:1034770080BE900B7CE0FF30E603918CF0EF30E7E5
:1034870003B11DF0229009E7E0909C4122909C4FE8
:10349700E04420F022900BCCEFF01217AF900BCC4A
:1034A700E0FF30E602B111EF30E702B109900BCC33
:1034B700E030E602B101900BCCE030E70291F9125F
:1034C7001219900BCCE0FF30E60291F1EF30E702E2
:1034D7009194121219900BCCE0FF30E603918CF017
:1034E700EF30E703B11DF00216B8909C4FE044405F
:1034F700F022909C49E04410F022909C49E044025D
:10350700F022909C4CE04408F022909C4CE044044C
:10351700F022909C41F09009EAE0909C4222AE078D
:103527009009E8E0707B1217AFAF0612172E909C38
:1035370000E4F0909C49E04440F0121430B1A974C3
:1035470081F0909C00141217ED7002EEF4600912DE
:1035570013EFBEFE0DBFFF0A909C437402F0A3F069
:10356700800D909C437401F0A3F0909C4AE4F09086
:103577009C04E4F0B1B17411F09009E7740AF0907B
:1035870009EAF0B119F0E49009DDF09009E804F0D8
:10359700909C01E04403F07F327E0012121D121648
:1035A700B822909C057442F0A322909C03F0909C53
:1035B70002229009EAE0FFEEC3221297669009E71C
:1035C700E022900BB8E07003121899D16E022FF029
:1035D7009006FFE0900915F0900700E0900913F0BE
:1035E7009006FDE0900914F0900AF9E090091C227A
:1035F700900BDFEFF0120E08120F577B017A097953
:103607000C120F57B1D7F0E4A3F090090404F07E31
:10361700007F057D00FB7A0979051287C6D1301234
:103627000E8890091B7401F0227D017F0512B9886D
:103637007D017F0612B9887D017F0212B9887D015D
:103647007F0312B9467D017F0112B9467D207F0EA7
:1036570031CE7D207F0B12B9887D207F0C12B946B1
:103667007D207F0A02B98890B004E030E016900B05
:103677007FE004F0E0B40A06900B817401F0E49057
:103687000B80F022900B80E004F0E0B40A03E4A37F
:10369700F0E4900B7FF0221217AF909C00E4F0B19A
:1036A700A974A3F0909C007480F09096417420F068
:1036B7007D037F1D12B9467D037F1E12B9887D04E5
:1036C7007F1D12B9887D047F1E12B9460216B89075
:1036D7000A9312857C0000000071776005EF642073
:1036E700702C7B017A0A79977FE87E03120F5B9033
:1036F7009A06E020E00F1297667B017A0A79971203
:10370700B5E4EF60EA12C03E900A93128570900A02
:10371700930284D37D017F0212B9887D017F031252
:10372700B9467D027F0512B9467D027F0612B9466A
:103737007D027F0212B9887D027F0312B9467D029E
:103747007F0112B988E4FDFF122DDD7D047F05128C
:10375700B9467D047F0612B9467D047F0212B988F7
:103767007D047F0312B9467D047F0112B9887D204D
:103777007F0E227171E490040C12691E121A779061
:1037870006A104F0A374E8F0127552900395F1DADC
:10379700900042F0A3F09006ACF09006ADF09004D4
:1037A7002804F0E490033DF09006107404F0E490D0
:1037B7000436F0900429F090042AF0FE7F1FFD7B69
:1037C700017A0379481287C690034812857C5553BE
:1037D700424322F0900000F0A3F022E4900042F070
:1037E700A380F080F69005BFE0B40508A3E0B4AC71
:1037F700037F01227F0022900B76EFF0A37401F084
:10380700129766909C46E054F0900B78F0E0FF909A
:103817000B77E0FEEF4EA3F0900B76E0B4010BEED2
:10382700B40707900B78E04408F0900B78E0909C81
:10383700461214B1900B77E004F0E0C3940840C03F
:10384700221237FE7B017A0979E07FB87E0B22AE20
:10385700071217AFEE543FFEED543FFD12161960E5
:103867000A9009DEEEF0A3EDF0800F1213F8602E38
:103877009009E7EEF09009EAEDF0909C48E020E22D
:103887000B909C41E0543F6E6002EEF0909C48E044
:1038970020E60B909C42E0543F6D6002EDF002166B
:1038A700B8900AF9E0FFAE07EE90098393FDFF8019
:1038B7009E11A81227E61267EB02201011E6EF709F
:1038C70002FF221209ED7F03121815E4FD7F0C1287
:1038D7000A091275FD7FC012104411B87F012290AA
:1038E700960BE04410F090960EE054EFF0A3E054EE
:1038F700EFF090960CE054EFF0312E909609E030FF
:10390700E40BE4900A18F0900A16F08014900A1657
:10391700E0C394145005E004F08006900A1874017F
:10392700F0900A18E0FF227F0A7E00029001900AB9
:10393700D112857C0000000012B8F1124E51319F60
:1039470012DB79EF704F319F90047F126922FD7C63
:103957000F12A02A900ACF125F4E700280377B01A8
:103967007A0F7900900ACFE0FFA3E0900A91CFF099
:10397700A3EFF0900AD11284D3126BE6900AD1120A
:1039870084DF900ACF124F5BFCFD1282B2A312852F
:1039970070312E80A902B8CC7B017A08796A22ABF4
:1039A70007AA06900B91EDF0A3E4F0A304F0EDD382
:1039B700940240037F0022900B91E0F9701B90085E
:1039C700A3711740037F00229008A5E02BFEE43A7D
:1039D700900B92F0A3CEF08039E964017022900831
:1039E700A4711740037F00229008A5E02BFFE43A5B
:1039F700FE9008A3125FBC900B92F0A3EFF0801229
:103A07009008A5711740037F0022900B92EAF0A35C
:103A1700EBF09008BAEBF0A3E9F09008CC12857CA4
:103A270000000000900B93712EFF900B92712624DB
:103A370010FFE43EFEE4FCFD7A0879BC7B01900AA6
:103A470088F0A37410F0124C9C900B91E060026117
:103A57001474FFFFFEFDFC9008C0122EF9700D9044
:103A670008C012857C000000007F00227E007F2FA7
:103A77007D00319F1287C67E007F047D307B017AEF
:103A87000879791287C6787D7C087D017B017A08E1
:103A970079C47E007F041280D078817C087D017B09
:103AA700017A0879C97E007F031280D071209008BF
:103AB700951285707120EF24FFF1E812673B12839E
:103AC700589008891285709008A2712EFF9008A15E
:103AD70071262420FFE43EFEAB07FAE4F9F89008CC
:103AE700BC713FE4FB7A02F812835890088512856F
:103AF700709008851284D390088D12857090089174
:103B070012857C000000009008847401F07F012278
:103B1700E0FFD3EB9FEA9400229008C00284D3E031
:103B2700C454F048FEEF22E0C4F8540FC86822904E
:103B370009F11284DF9009F51284D30282BF90093C
:103B4700ECEDF0A31285E69009EBEFF090053EE06F
:103B5700FEEFD39E50149009EBE0C39401400B9005
:103B67000545124AAB6003EE70037F00229009EB14
:103B7700E0149009F0F09009ECE0FF9005451285FC
:103B8700DD9009F0F1CEEF12814E9009ED1285DD3F
:103B970012BF3FF1B39009ECE06403600281C2A356
:103BA700F16C12810FD39406400312BE90F163901B
:103BB70009F5128570B15B78009009F51284D3126C
:103BC7008358EF2402FFE43EF1ECE47B07FAF9F8AF
:103BD700128358AF039009F9EFF09009EDF16C12D9
:103BE700810FFEC39F4014EEFF9009F9E0FDEF9DA2
:103BF700F1E0FDB15BF81282CD80289009EDF16C00
:103C070012810FFF9009F9E0C39FF1E0FDB15BF866
:103C17001282CDC374809FFF743A9EFE74099DFD86
:103C2700E49CFCC006C007B162900001D007D00633
:103C37001284AFB162B179C003C002C001128445DA
:103C47009009F5B190D001D002D003128495B155F7
:103C57001276E7F1B39009F5B1587800122EDF908C
:103C670009F0E075F006402BB169B179C003C002D5
:103C7700C001128445C004C005C006C00712777C86
:103C8700713FF1D9AB07D007D006D005D004128217
:103C9700B2807DB169B179C003C002C00112844509
:103CA700C004C005C006C0077136F1D9AB07D007FD
:103CB700D006D005D0041282BF80559009ECE0648D
:103CC700027058B1551276E7F1B3B15B7800F16332
:103CD700122EDF400712777C713F80127136C37452
:103CE700809FFF74519EFE74019DFDE49CFCC006FD
:103CF700C007B162900001D007D0061284AFB1624D
:103D0700B179C003C002C00112844590B106B190D9
:103D1700D001D002D00312849580259009ECE0B43D
:103D2700011EF1639009F51285709009F11284D391
:103D3700C006C007B162900001D007D0061284AF59
:103D47009009EBE0FF12C1CB12BA257F012290093F
:103D5700F11284D37B807A517901229009F0E075C2
:103D6700F006A4FF9005451285DDE92FF9EA35F045
:103D7700FA22E92401F9E43AFA229004531285DD84
:103D87009000271284659004561284DF0282B29055
:103D97000006E064046002C1A590045AE0B4023151
:103DA700900456C083C0821284DFC000C001C002E5
:103DB700C003D1A690001F128465D003D002D001A2
:103DC700D0001282B2D082D08312857090045AE458
:103DD700F090045AE0702B900456C083C08212847E
:103DE700D3C004C005C006C007D1A6900027F1B90B
:103DF700D007D006D005D0041282BFD082D083125C
:103E07008570B181C004C005C006C007D1A6900067
:103E17001FF1B9D007D006D005D004C31283F850DC
:103E270027D1A6900027128465A804C004C005C046
:103E370006C007D1A690001F128465D003D002D018
:103E470001D0001282BF8011B181EC335011D1A68D
:103E57009000271284651283EA900456128570D168
:103E6700A6E92427F9E43AFAC003C002C001127791
:103E77000AD001D002D003128495D1A6E92423F9F0
:103E8700E43AFAC003C002C00112770AD001D00297
:103E9700D003128495126C53D080D0807F0122907A
:103EA70004530285DD900B2512857C00000000E499
:103EB700900B24F090053EE0FF900B24E0FEC39F9B
:103EC7004002E160EEB16690000512810F64016067
:103ED70002E158F1C512810FFBB4020FF163EF2421
:103EE70080FFEE3451FEED34018011EBB40313F182
:103EF70063EF2480FFEE343AFEED3409FDE43CFC29
:103F0700800AF1C512810FB40108F163900B2512E5
:103F17008570900B24B165900001128465900B2584
:103F2700122EF96025900B24B1651276FE1270717E
:103F3700C312840E6014900B24B1651276FEEF2431
:103F4700FE127074C312840E7007900B24E004FFF6
:103F570022900B24E004F0C1BB7F002290B106023F
:103F670084D390069D1285DD90000422A2AFE4332E
:103F7700900BCEF0C2AFF16912810F701C1284450D
:103F8700F1BC900611713FE4FBFAF9F8C31283F80C
:103F97005007F169740112814E900BCEE024FF9215
:103FA700AFD080D080F16912810FFF229009F10212
:103FB7008570128465AB07AA06A905A80422900597
:103FC700451285DD900B24E075F006A4F58285F097
:103FD7008322A804A905AA0622FFE49400FEE4FCB4
:103FE70022FFEE3401FEE43DFDE43CFC22EF909C11
:103FF70050B40105E054FCF022E04402F0E054FE26
:10400700F0221217AF9009DDE05412702E909C49F0
:10401700E030E1021163909C49E030E402115B1249
:104027001219909C49E030E104E054FDF0909C495E
:10403700E030E404E054EFF0121219909C4CE030A9
:10404700E204E054FBF0909C4CE030E304E054F7CA
:10405700F00216B8909C4FE054DFF022909C4FE09E
:1040670054BFF022907FDFE493543FFF900BA4E40A
:10407700F0A3EFF0900BA4314C9424EE9400400988
:10408700D3EF942CEE94004009900BA4E4F0A374B2
:1040970028F0E4FDFF12B0157E007C0C7D1C128514
:1040A700EFC006C007900BA4E0FEA3E0FBAA06E45E
:1040B700F9F8D007D006128358C3EF94B8EE940BE3
:1040C70050067E0B7FB8800DD3EF94F8EE94114025
:1040D700047E117FF822311D120F577B017A09796F
:1040E70090120F57900980E07002A3E06023F1E976
:1040F7009009821284DFC000C001C002C003116BA7
:10410700E4FCFDD003D002D001D00031403139802A
:10411700D37F010222917B017A09797B22311D121B
:10412700B5E4EF600C311D7F32120F59E4FF122204
:1041370091227F057E00028AF81282B290098202DC
:104147008570900A22E0FEA3E0FFC322AB07314946
:1041570094E8EE940350117C007D0A128170EB2FD6
:10416700FFEC3E900A228006AF03900A22E4F0A3F8
:10417700EFF022900ABBEEF0A3EFF0900ABF128592
:10418700E6E4900ABDF0A3F0900ABB314C900ABE5A
:10419700E09F900ABDE09E5015900ABFF1E3FF1221
:1041A70000E1900AC031B6900ABD31B680DA22E448
:1041B70075F0010281D7D14C900A311285E6518101
:1041C700E4C39F900A36F0603CD146900A36E0FF80
:1041D700900A7FE4517D5187900A2D1284DF900A5F
:1041E7003651CB1282B2D14C900A36E0FF7E009056
:1041F7000A32EE8FF01281D7C3900A35E09FF09014
:104207000A34E09EF0C3900A34E094014044E490FD
:104217000A37F0A3F0900A34E0FFC3900A38E09F12
:10422700900A37E09400502A5181D146900A7F7452
:1042370001F0A3E4F051875181E42F123FE8D14CFC
:10424700900A32740175F0001281D7900A3731B69F
:1042570080C37E00900A34A3E0FF900A34EEF0A3F7
:10426700EFF06011D146900A34E0FFA3E0900A7F97
:10427700CF517D518722F0A3EFF0900A2D0284D30E
:10428700900A78128570900A7C1285E6900A7FD191
:1042970052602DD3EF9400EE940150247F06D1682D
:1042A700F14D7F02D168900A78124DC0900A7FE0E5
:1042B700FEA3E0FF900A7C1285DD317AF14DF1759E
:1042C70022900D10E0FFE4FCFDFE229009621285AA
:1042D7007C00000000E4900974F0900006E0B4014F
:1042E7000C12CD53EEC31390096FF0800690096F3F
:1042F7007401F01277861276AD7002FF221277866C
:104307001276BE7003EE64556008900AB9E0700239
:10431700FF22E490096EF090096EE0FFC394044019
:104327000261D5EF75F010A424BEFFE5F0340EFA54
:10433700A9077B019009771285E6125E24FF6405C1
:10434700600AEF640F6005EF64857036900974E0CA
:10435700FF600890096EE0C39F40279009621284AE
:10436700DFC000C001C002C0031276CED003D00266
:10437700D001D00012778C90096EE004900974F098
:1043870041FA900977123F6C12810FFF640460189D
:10439700EF64066013EF640B600EEF640C6009EFC7
:1043A70064016004EFB40E1E9009621284DFC0003E
:1043B700C001C002C0031276CED003D002D001D014
:1043C7000012778C800890096EE004F0611E900956
:1043D7006EE0B4041B900974E0FFD394004011EF22
:1043E7009404500C90096212857C0000000041FA89
:1043F70090096F51CBD13D1276AD7002FF22900923
:104407006F51CBD13D1276BE7003EE6455600890B4
:104417000AB9E07002FF22900D0DE0900013F090B2
:104427000D0EE0FEA3E0FF1297F8900975EEF0A3DA
:10443700EFF0E4FCFD900962123D909000141285A4
:1044470070900D11D152603D1297F87C007D2012BB
:1044570085EF123FD9AB0790096FE07F0025E0FE9B
:10446700E4FCFD1282B2127071C006C007E025E0BD
:104477007B00FAE4F9F8D007D00612835890095E5A
:10448700128570800A90095E12857C0000000090FA
:104497000D16D15260081297F8E4FCFD8005900DC7
:1044A70024D15C900966128570900D13D152600873
:1044B7001297F8E4FCFD8005900D20D15C90096A05
:1044C70012857051C8900966D140123FD9AB079049
:1044D7000975124F5BFCFD1282B290095E123D9086
:1044E700123FD9AB0790096A123B3FC007900013F0
:1044F700E0FBE4FAF9F8D0071283589009701285A7
:1045070070E47FF57E0FFDFC900970122EF95008BC
:10451700E4900008F07F0122E47FF57EFFFDFC9028
:104527000970122EF9500AE4900007F0A304F080F6
:104537002578367C0D7D017BFF7A0679707E007FBA
:10454700081287A2EF9000077003F080037401F050
:104557009000087401F051C8900966D1409000148A
:10456700123D9090095E123D9090001C128570904C
:104577000007E0600AD159900970123D90800F90B2
:1045870009701284D3EF2402FFE43E123FEC90003F
:1045970020128570900007E0601FD159EF24FEFBC1
:1045A700EE34FFFAED34FFF9EC34FFF890001351C5
:1045B700CB1282CD90001C800A51C8900966D14069
:1045C700900014123D90900018128570900013E02F
:1045D700FE90096FE0FFEE8FF0A4900013F0A31296
:1045E70084DFE4FCFDFE1282CD90001412857090EA
:1045F700001C1284DF90096F51CB1282CD90001CF2
:1046070012857012778690096A123D90123FD9ABD6
:104617000790096F51CB1282CD90002412857090BC
:1046270000181284DF90096F51CB1282CD900018C9
:104637001285707F01229009621284DF0282CD9079
:104647000A310285DD900A2D028570E0FEA3E0FFA6
:104657004E22900D2C1284D3029814F1CEF1757F5F
:1046670006AD07126BD80200E1900A5012857090D0
:104677000A541285E6900A57E07002A3E07002E13F
:104687002A900A501284D3EF5401FFE4FEFDFCFB8D
:10469700FAF9F8C312840E6016900A5012853B90FF
:1046A7000A54124A451280F6F155900A57F1EC7FE9
:1046B70006D168F14D7FADD168900A50124DAFF128
:1046C7002B1277C3900A58E024FEFE900A57E03475
:1046D700FF900A59F0A3CEF0D3900A5AE0940190C4
:1046E7000A59E0940040167FADD168F12B900A5922
:1046F70074FF75F0FE1281D71277C380DB7F04D178
:1047070068F14DF175900A57E0FEA3E0FF30E01322
:10471700E4FCFD900A50123D90127071900A54F11A
:10472700E3F15522900A54E475F001120532128024
:10473700F6FF1200E1900A54E475F00112053212F7
:1047470080F6FF1200E190960AE04408F022900BF1
:1047570005F0900B011285707F06D168F14D7F023D
:10476700D168900B01124DAF900B05E0F1497F0521
:10477700D168120025900BE4EFF0F14D7F017E0028
:10478700128AF8900BE4E020E0E422900B061285F1
:1047970070E4FFD162F14D900B0AE0FFD168F14D53
:1047A70080CC900AFC1285707F43D162F14D900B4B
:1047B70000E0FFD168900B00E064C76006900AFC38
:1047C700124DAFF14D80A7900BE3EFF07F50D1680A
:1047D700F14D7F01D168900BE3E0E1491285DD02DD
:1047E70080F690098074FFF5F00281D7900AEE12E7
:1047F70085E6900AED124AB2EFD394955007900AD6
:10480700EE51AB70037F0022900AF1E0FF900AEDB2
:1048170051C5400774969D900AF1F0E4900BA6F0FD
:10482700900AF151BB5018900AEDE02EFFA35145B5
:104837001280F6FD12BA06900BA6E004F080E1E4C0
:10484700900BA7F07F0122900AF31285E6900AF2F7
:1048570051B2EFD394955007900AF351AB70037F91
:104867000022900AF6E0FF900AF251C540077496BD
:104877009D900AF6F0E4900BA6F0900AF651BB5013
:104887001A900AF2E02EFF12BFF4900AF35145EF97
:1048970012813C900BA6E004F080DF80A231FFABD1
:1048A700079006D8E020E05B9006DBE0645A70537F
:1048B7009006F2E06B704C9006D8F09006DCE09022
:1048C7000AF831DF40037419F031B24002E4F031E5
:1048D700AA4002E4F031EE900AF8E0FAB401093197
:1048E700C631A19006E4800BEAB4020E31BA31A1B9
:1048F7009006EE51EEE4900702F0F1A4500221A0D9
:10490700E4F0227E007F1A7D007B017A0679D912B6
:1049170087C67A0679DB7B01900AF67418F0E4FF04
:10492700114E31FFAB079006DBE0B45A079006F251
:10493700E06F601E900A6F7401F0E49006D9F0A34F
:10494700F0A3745AF0A37401F031D2F0A37419F0F4
:104957008044900A6F7401F0F155900AF8EF31DF47
:1049670040037419F031B24002E4F031AA4002E486
:10497700F031D2E0FBB4010C9006DEE0900702F0C4
:1049870031C6800EEBB4020C9006E8E0900702F007
:1049970031BA31A131EE1220C9221284D390074BCC
:1049A7000285709006DAE0C39405229006D9E0C329
:1049B700940B229006EDE0900A73F09006E922909E
:1049C70006E3E0900A73F09006DF22E49006DEF03B
:1049D7009006E8F0900AF822F09006DDE0543F9048
:1049E7000AF9F0D39420229006D9E0900700F090BE
:1049F70006DAE09006FFF0227B017A0679DB7D1765
:104A0700900B4A1285E6900B4DEDF0E4FE900B4DAE
:104A1700E0FD14F0ED6024900B4A51451280F66ECC
:104A2700FEE4FFEFC3940850E4EE30E007C31364DD
:104A37008CFE8004EEC313FE0F80E8AF0622E475F8
:104A4700F001020532900A72E07052900006E064AD
:104A5700017021129FB8129FDF9006DF122EF970A6
:104A67003C51A57D0B51079006E3E06F702F900A2C
:104A77007204F022900006E064027021129FB812BF
:104A87009FDF9006E9122EF9701351A57D0B510790
:104A97009006EDE0B50706900A727401F0229003C4
:104AA700D80285DD1285DDE94A4B22EFF0900BA78E
:104AB7007401F022E0FF900BA6E0FEC39F22E0FD09
:104AC7002FFFE433FED3EF9496EE64809480229018
:104AD7000AF8E0FBB401059006E48007EBB4020591
:104AE7009006EE51EE21EE1284D39003F302857007
:104AF70051A590000812810F900B36F09000091213
:104B0700810F900B37F090000A12810F900B38F04D
:104B1700900B36E0B44D10A3E0B4500BA3E0B433D0
:104B270006A37401F08005E4900B39F0900BAFE019
:104B37007008900B39E06002514C900B39E0FF226E
:104B4700E4900BBFF0900BBEF09000181284D3E4F2
:104B5700900643F0A304F012C68612CF4F900018B8
:104B67001284D39003DC128570129766129D6A90A7
:104B77000BD9EFF090002CF15BFCFD7BFE7AFFF97F
:104B8700F8C31283F8500281919003DBE07003129F
:104B9700D7F2900BD9E0147002813C24FC7002819B
:104BA70045240570C451F7EF604590002C1241B6BB
:104BB70090002E1241B6900A72E0B40132900A7446
:104BC700E07002A3E070289194900A74CFF0A3EFED
:104BD700F090002EE0FFA3E0900A76CFF0A3EFF06D
:104BE700900030E0FFA3E0900A70CFF0A3EFF090C1
:104BF7000030E07004A3E06401600261709008690E
:104C0700E064017002617051A5E92408F9E43AA84B
:104C170001FCAD037BFF7A0079057E007F031287D5
:104C2700A2EF6002617090086904F0FB7A08796A64
:104C370012983B6170900032E475F001804712D9F9
:104C47000C900030E07004A3E06401700A91949026
:104C57000036CFF0A3EFF012DB9B12DCACEF700352
:104C67007F01229000301241B6E4900032F0A3F0A9
:104C770090002EF0A3F012D711EF60026170900040
:104C87003074FFF5F01281D761707F012290002CFC
:104C9700E0FFA3E022900A81128570900A851285B1
:104CA700E6900A8551AB604C900A881246526044E0
:104CB700900A851285DDC3EA940F40167E00EF54F3
:104CC70003FF600E74049FFFE49E900A888FF01222
:104CD70081D7900BB6E0B4030BB107900A4C91FC57
:104CE700B1158010900BB6E0B40109B107900A62C4
:104CF70091FCB16222CFF0A3EFF0900A810284D336
:104D0700900A851285DD900A88E0FFA3E022900AC9
:104D170045128570900A491285E6E4900A4EF0A381
:104D2700F07F0B124668900A45B1C07FFF1200E181
:104D3700900A4C12414C900A4FE09F900A4EE09E19
:104D47005016120025900A491285DD900A4EB1B41B
:104D5700900A4E1241B680D802474D900A5B1285E1
:104D670070900A5F1285E6E4900A64F0A3F07F0B67
:104D7700124668900A5BB1AF7FFF1200E1900A62AA
:104D870012414C900A65E09F900A64E09E5016120B
:104D97000025900A5F1285DD900A64B1B4900A6419
:104DA7001241B680D802474D1284D3800FE0FCA38E
:104DB700E0F5828C83EF02814E1284D3900B4E1262
:104DC7008570900B4FE0FF1200E1900B50E0FF124F
:104DD70000E1900B51E0FF0200E17E007F377D008C
:104DE700D13C900BB6E07002FF227A0879997B01DB
:104DF700900A88E4F0A37420D147919C7FFE7E013E
:104E07007DAA7C55900899122EF970079008B9046D
:104E1700F0800BE49008B9F0FE7F20FDD13C9008AC
:104E2700A1E0FFA3E090002CCFF0A3EFF090074A9A
:104E37007401F0FF227B017A0879990287C674C74B
:104E4700F07F007E007D007C0022900BB6E0B4036B
:104E570008900B00D1450247A9900BB6E0B40108B2
:104E6700900B0AD14512479222900B9D1285E67F3F
:104E7700FF7EB07DB77CE190B10612228A4018D13F
:104E8700AA12B5E4EF700512976680F3D148D1A74F
:104E97007F2C7E01120F5B900B9D1285DD02AFD236
:104EA70012B7087B017A0B79292212BF3F900B7248
:104EB700128570D1AA12B5E4EF7019F162FF64018F
:104EC700600EEF64026009EF64066004EFB408E364
:104ED700D1F080DF900B721284D3D1A77F2C7E0193
:104EE700120F5B12A6C102BA259006FDE0B40209B3
:104EF7001221D412DB79EF60037F012212BD13EF79
:104F070070117B017A0679F412B5E4EF7F01603DF9
:104F17007F0022F1AE120F5B9003E7E06401702B74
:104F270012765B4E70129006FDF0900BAEE06409AE
:104F370060037408F07F0022900403E0FEA3E0FF03
:104F470090040EE0FCA3E0FD12CDA07F01229006A5
:104F5700DCE0FF22E0FEA3E0FFE422129766900B5D
:104F6700B9E022F162FF9006ADE06F601AEF6401CD
:104F77006013EF6402600EEF64066009EF64076078
:104F870004EFB40802D1F0122439F1999006ACEF7E
:104F9700F0227F002251F79006D3EFF0229007020C
:104FA700E0D364809481227B017A0679F47F107EB6
:104FB7002722D310AF01C3C0D051B412BA06E49070
:104FC7000BA7F0D0D092AF22D310AF01C3C0D051FE
:104FD700B412BFF4E4900BA7F0D0D092AF2290990F
:104FE70004E054FEF090980DE054FEF0E0440EF01B
:104FF7002290B004E030E3F990980DE054F1F0E02E
:105007004401F090981FE030E0F9909904E04401E2
:10501700F022A2AFE433900BCDF0C2AF9005FE12A1
:1050270084D3900611123D909005FB1285DD128402
:10503700959005FB123F6CE412814E900BCDE02456
:10504700FF92AFD080D08022121AA2E49007EDF031
:10505700900780F09007EFF090079FF022312FEF35
:105067007002FF22120FBE12001A1209ED7F0712FB
:1050770018157F091210447F021187114F7F0122F3
:10508700EFB401129009D311FA9009D1310711EE4B
:105097007A06797D804BEFB40237900A1011FA90A7
:1050A7000A0EE0FFA3E0900845CFF0A3EFF0900AC7
:1050B700121285DD9008491285E6900A0B1285DDEC
:1050C7009008001285E6900A0811EE7A07790480A5
:1050D700109009CC11FA9009CA310711EE7A0779B5
:1050E7002490085E0285E61285DD9007F51285E6B5
:1050F7007BFF22E0FFA3E0900847CFF0A3EFF02269
:10510700E0FFA3E0900845CFF0A3EFF09009D51298
:1051170085DD9008491285E69009CE1285DD900855
:10512700001285E69009C722D310AF01C3C0D09003
:1051370006A0E0FF6406600EEF64056009EF6407F0
:1051470060047F008053900AF8E0B4041690990138
:10515700C083C082E0FFA3E04404D082D083CFF0B5
:10516700A3EFF031A5E06F600B900AAA31B331A528
:10517700EFF08023900AAAE07002A3E07019900A6A
:10518700AA04F0A374F4F0121886121A8F9006A0DE
:105197007408F07F0080027F01D0D092AF227F0C8D
:1051A7007EA3128C84900AA722900AB57401F0A3FB
:1051B70074F4F02212C032EF601631B0900BB27463
:1051C70001F0E4A3F012C03E90094A1285708019DD
:1051D70012C01EEF600C31B0E4900BB2F0A304F0E4
:1051E7008007E4900BB2F0A3F0900BB2E0FF7006DB
:1051F700A3E07002617EEF6005E4900942F0900938
:1052070042E0C394055003E004F0900942E075F0D2
:1052170046A4FFAEF0E4FCFD7B017A09795412B590
:10522700B290094BE0FF90094AE02FFFE433FEEF0D
:10523700F44E6002617690094CE0647F707BA3E0D6
:1052470064807075900941F071A4941C40026176E6
:10525700EF25E024D6F582E43408F583E493FE7461
:105267000171AB6E7003A3E06F704A900AF8E064B7
:105277000C7039B12CEF6034900941E024FE6013C3
:1052870014601914601F2404702290961CE0444097
:10529700F0801990961CE04420F08010909601E071
:1052A7004402F08007909601E04404F0909601E0F4
:1052B7004440F0618A719D808F90094CE0F4701F23
:1052C700A3E0701B900941F071A4941C4002617621
:1052D700EF90090E71ABB50702618A719D80E99065
:1052E700094CE0FE64BF703EA3E0703A900941F0BC
:1052F70071A4940C500FEF90092A71ABB5070261A6
:105307008A719D80EB900941740CF071A4941C5034
:105317005EEF90092A71ABB50708900941E02409AF
:105327008045719D80E5EE64FD704490094DE06411
:1053370002703C900941F071A4940C500FEF900952
:105347004671ABB50702803B719D80EB90094174B4
:105357000CF071A494215017EF90094671ABB50773
:105367000A900941E02412F0E0FF22719D80E3904A
:10537700094174FFF0FF227B017A09795412B5E4E1
:10538700EF7006900941E0FF2290094A12857C00E0
:105397000000007FFF22900941E004F022900941BC
:1053A700E0FFC32293FF90094AE022B10912B5E456
:1053B700EF7002FF22B1097F05120F5931BB900B25
:1053C700DEEFF090094EE024FE605414700281A6CF
:1053D7002403600281EA900BDEE0F47019B118E053
:1053E70054BFB110F0E054FDF0B10212B5E4EF6024
:1053F70002D1347F0022900BDEE0900943F0640C69
:105407006004E0B4150891F27FB87E0B800691F234
:105417007FF47E01120F5B90094E7402F081EFB1A9
:105427002CEFB10270087FD07E07FDFC8003124E7F
:105437004812B5B2B1206038E490094EF0EE64012D
:105447006023EE24FE6013146014146015240470A6
:105457001490961CE054BFF0800BB1188007D1431D
:105467008003B111F091F92467F582E43409806D66
:1054770091F212B5E4EF6070900943E091F2B42421
:10548700067FE87E0380047F2C7E01120F5B900964
:105497004E7403F091F92468F582E43409803EB133
:1054A700206013E490094EF0EE25E025E0246AF52C
:1054B70082E43409802791F212B5E4EF602A90095B
:1054C70043E091F2B424067FE87E0380047F2C7EBC
:1054D70001120F5B91F92469F582E43409F583E43D
:1054E70093FF22E490094EF07F00227B017A09792D
:1054F7004422900943E025E025E0227B017A0979DF
:1055070059227B017A09794F22F0909601E054FBEA
:105517002290961CE054DFF022900BDEE0FF90090A
:1055270043E0FE6F22900A24E0FF22900A17E090E2
:105537000BD6F0312F900A17EFF0900BD6E0700AD8
:10554700900A17E060047F0180027F0022E4900B3D
:10555700DCF06002C12E71B2900BDCEFF0900AF81C
:10556700E0B40C0D900BDCE0FF122961900BDCEF2F
:10557700F0900A24E0FF700A900BDCE0646460029C
:10558700E4F0900BDCE064647025EF6007E4900AB8
:1055970024F08006900A247401F0D134D13C900A9B
:1055A700FAE06004E4FD80027D017F1D120A099084
:1055B7000BDCE0FF64646065EF60626412605EEFBD
:1055C70064136059EFB41410E4FD7F1E120A09E456
:1055D700FD7F01120FC28045900AF8E0B40C1C90C1
:1055E7000BDCE0FF64126025EF64136020EF645961
:1055F700601BEF64586016E4FD800D900BDCE0B48F
:105607000104E4FD80027D017F1E120A09900AF859
:10561700E0B40C09122840EF7003121005900BDC60
:10562700E0B45A037459F0900BDCE0FF2290960126
:10563700E054BFF0227FF47E01028AF8909601E0E1
:1056470054FDF022121D987B017A0779A07D1F7CFB
:1056570000121E51EF641F4E6002E1A078A07C0784
:105667007D017BFF7A05796F7E007F041287A2EFA9
:105677006002E1A09007A4E09007E4F09007A5E09E
:105687009007E5F09007A6E09007E6F09007A7E0FF
:105697009007E7F09007AFE0120549570F00574210
:1056A7000356C71257221A57681B57271E56DD2362
:1056B70056E22556E72856EC2A57642F0000577400
:1056C7007BFF7A0579747D247C00F1C912775EF13E
:1056D700C990079FE16F126FC0E17812704EE178B1
:1056E700126EDC8010126E8C7B017A0779F07FD006
:1056F7007E07120F5B90079F7402F07B017A077990
:105707008E7F0A120F598069F1A1EF70069007ED9D
:10571700F0805A9007EDE060418052126FEB8051A4
:105727009007B3E0700CF1A1EF6007E49007EEF08B
:10573700802C9007EE7401F0E48023F1A1EF60065E
:105747009007EDE060087BFF7A05799C80067BFF78
:105757007A0579AE7D127C00F1C9E48001E4FF800F
:105767000EE4FFF1C19007ED7401F080047F01F1B1
:10577700C17B017A07798E12B5E4EF600A90079F23
:10578700E0B402037401F09007807401F0FB7A071C
:1057970079897FB07E04120F5B22126095EF700645
:1057A7009007EFF0800E9007EFE0700812B24F906D
:1057B70007EFEFF09007EFE0FF229007ECEFF01212
:1057C700775E900ADB1285E6900ADEECF0A3EDF037
:1057D7007D01121F49C3900ADEE094025062900ACD
:1057E700DE1225BF9440EE94004006A37440F0807B
:1057F70005900AE0EFF0900AE0E0FDFFC3900ADFB2
:10580700E09FF0900ADEE09400F0900ADB1285DD5D
:105817007F24F1C4121D917D207F13121FB07F01D9
:1058270031ACEF603F121D8F121F9E900AE0E0FF20
:10583700900ADC9144900ADEE07002A3E0709F2298
:10584700121D8F7DB4121FA0900ADB127722900AD7
:10585700DB127716900ADEF1D5900ADEF1CC7D1FB8
:10586700116C1173227F047EA5028F801195900B16
:10587700EAEFF031A5EF30E0037F01221195900B9D
:10588700EAE0FEC3EF9ED3946440E87F00229006CF
:10589700110284D3900B3AEFF0F1B4FF900B3BF178
:1058A7004E700221A49006FFE024FE7002215524C9
:1058B7000224FB50022199900B3AE0FFB4020D90AD
:1058C7000B3D740AF0E4900B3AF08012EF900B3D19
:1058D700B40308740AF0900B3A80007401F0900B3F
:1058E7003AE07032900B3DE0FF7E0090072FE02FEB
:1058F700FD90072EE03EFCC3900B3CE09D900B3BD8
:10590700E09C90072E5007E4F0A304F02199EE8F56
:10591700F01281D7807C900B3AE064017074900B91
:105927003DE0F9FF90072EF19D9FEC9400500D90FC
:105937000B3BE0FFA3E090072ECF8052E9FFC3EDBA
:105947009FFEEC940090072EF0A3CEF08044900BBE
:105957003BE0FEA3E0FFFBAA06E4F9F811951283EA
:1059670058EB2401FFE43AFE90072EE0B5060AA3A0
:10597700E0B507050FBF00010EC3900B3CE09F90F9
:105987000B3BE09E50047E007F0190072EEEF0A3B4
:10599700EFF0900B3AE0900701F0120021227F0010
:1059A7007EA5028C84900A9CEFF0A3EDF07B017A30
:1059B7000A799E900BBC124F5BFCFD12B5B2900B9F
:1059C700BC7403F0A374E8F0129766900A9CE0FF9A
:1059D70064016005EF6403701E900A9DE060093161
:1059E700A5EF30E0447F0122121D0C900AA3EFF0CF
:1059F700540370357F0122900A9CE064027018A35B
:105A0700E0600931A5EF30E0207F01227F16121BED
:105A17008930E0157F0122900A9CE07009121B87EC
:105A270020E1067F01227F00227B017A0A799E12FC
:105A3700B5E4EF60937F0022119BE4900AFAF0220D
:105A47001195900BEBEFF07F16121B8930E0037F67
:105A570001221195900BEBE0FEC3EF9ED3946440B7
:105A6700E67F0022900B101285E6900B13ED121FB4
:105A770046129766900B13E0FFD394404006A37439
:105A870040F08005900B14EFF0900B14E0FDC3EF8E
:105A97009D900B13F0900B10F1A412897A121B87BB
:105AA7004402121D90E4FDFF31ACEF6011900B141E
:105AB700E0FF900B119144900B13E070B4222290F9
:105AC70007FBE024FE604914604F14700261A214C2
:105AD700700261B124E3700261E12421600261F781
