:1000000002041702699D4D5646002202699E0001B6
:100010000203220269D90218762222026A277F008F
:10002000222222026A28E4C3FA90960AE04401F0F0
:1000300054FEF0909609E0A2E2E492E02A23FA90BE
:10004000960AE04401F054FEF0909609E0A2E2E442
:1000500092E02A23FA90960AE04401F054FEF090D0
:100060009609E0A2E2E492E02A23FA90960AE0449C
:1000700001F054FEF0909609E0A2E2E492E02A2317
:10008000FA90960AE04401F054FEF0909609E0A23E
:10009000E2E492E02A23FA90960AE04401F054FE4A
:1000A000F0909609E0A2E2E492E02A23FA90960A00
:1000B000E04401F054FEF0909609E0A2E2E492E000
:1000C0002A23FA90960AE04401F054FEF090960933
:1000D000E0A2E2E492E02AFA90960AE04401F0EA13
:1000E000FF227808EF33FF90960AE092E154FEF089
:1000F00090960AE04401F0D8EB229003F30284D3F7
:100100000000220000220000220000220000220045
:100110000022000022000022000022000022000035
:100120002200002200002200002200002200002203
:100130000000220000220000220000220000220015
:100140000022000022026F1800002200002200009E
:1001500022026F0002583C02379F0000220000225A
:10016000000022000022000022021B90000022005A
:100170000022000022000022000022000022025A79
:1001800020000022025CFA0000220000220274D546
:100190000000220000220272B100002200002200B2
:1001A00000220000220000220000220000220000A5
:1001B0002200002200002200002200002200002273
:1001C0000000220000220000220000220000220085
:1001D000002200002202728C02729E026E05022D25
:1001E000ED0262220000220000220256B302729544
:1001F0000000220000220000220000220000220055
:100200000022000022000022000022000022000044
:100210002200002200002200002200002200002212
:10022000000022000022026E83026F0F00002200F5
:100230000022000022000022000022000022000014
:1002400022025C3A0000220000220000220000226C
:10025000000022000022410ABA00410AB400420A0A
:10026000B50000420AB70000410AB9004109DD00AB
:100270004109DC004109E8004109DA00410B810134
:10028000410B7F00410B8000410BA700420A100088
:1002900000420A0E0000430A12FF0604430A0BFF45
:1002A0000613430A08FF06224109B8004209C300A9
:1002B000004409AE0C020307410A1E00410A200057
:1002C000410A1800410A1700410A1F01410A15009E
:1002D000410A16004209D300004209D10106420931
:1002E000CC00004209CA01084309D5FF0630430982
:1002F000CEFF063F4309C7FF064C4209C5006342D3
:1003000009D80063410BAC01410BAD02410BAF00BA
:100310004107610041075F00410762004107730028
:100320004406F9FFFFFFFF4106F30041098F014436
:10033000098200000000420980006444098B00002B
:100340000000410A7300420A740000420A7600006D
:10035000420A700000410A7200410A6F00410A2AF5
:1003600000420A220000410A2B00410A2C00410AE7
:100370002401410A2100410941FF4109420041098C
:1003800043FF450905000000000041091B00410B27
:10039000B70241086900410902004109030041090F
:1003A0009B0041099C00410BB900410BB801520868
:1003B0004C12011001000000400000020210000178
:1003C0000203014C079300000008001DC3FF030057
:1003D0000200480781001DC3FF000002004C0774A3
:1003E0000B00000800020000000002004D07E0556D
:1003F0005342530870BA840000000000420BBC0353
:10040000E8410AA700420AAA01F4410AA400410BEC
:10041000BF01410BBE0100124926787FE4F6D8FDEA
:10042000126977EFFD9006D96003A3DFFD7F277E79
:1004300011C3EF9DFF50011EE4F0A3DFFCDEFA754F
:10044000810B1267690204830228C4E493A3F8E4D1
:1004500093A34003F68001F208DFF48029E493A31C
:10046000F85407240CC8C333C4540F4420C8834035
:1004700004F456800146F6DFE4800B010204081004
:10048000204080900256E47E019360BCA3FF543F5D
:1004900030E509541FFEE493A360010ECF54C0253C
:1004A000E060A840B8E493A3FAE493A3F8E493A32C
:1004B000C8C582C8CAC583CAF0A3C8C582C8CAC590
:1004C00083CADFE9DEE780BEBB0111F8E58229F5CA
:1004D00082E5833AF583E0C828F0E8225009C58216
:1004E00029F8C58226C622BBFE0DC58229F8E2C5C1
:1004F000822582F2E58222EA2583F583E99322BBF5
:10050000010FF8E58229F582E5833AF583E028F0CA
:10051000225009C58229F8E58226F622BBFE09C5CC
:100520008229F8E22582F222F8EA2583F583E9930D
:100530002822F8E0FBA3A3E0F925F0F0E58215827C
:1005400070021583E0FA38F022D083D082F8E49369
:100550007012740193700DA3A393F8740193F58244
:100560008883E4737402936860EFA3A3A380DF55CC
:1005700053424300008002021F0000004D565349C1
:10058000000000004361726420526561646572007E
:100590000000000056312E30030000007000020001
:1005A0000000000A000000003A0000000000700097
:1005B00005000000000A0000000024000000000008
:1005C000ED0303543FFD8E838F82E090A621E0F877
:1005D0008E838F82E090A621E0FB8E838F82E09055
:1005E000A621E0FC8E838F82E090A621E08A838999
:1005F00082C8F0A3EBF0A3ECF0A3E8F0A3AA83A9D0
:1006000082DDC3224D5653494C49434F4E2E494E2D
:10061000432E004D5620434152442052454144450B
:1006200052003230313130393031313233343500EB
:100630004D5653494C49434F4E2E494E432E004D83
:10064000562055534220415544494F0032303131F4
:10065000303930313132333435008F828E83ED7052
:1006600004EC600B1CE06455F0A3DDF90206612286
:100670004641543136000000000403090409028792
:100680000003010080FA09040000000101000009D4
:1006900024010001280001010C24020101010002D3
:1006A000030000000A2406020101010202000924DD
:1006B000030301030002000904010000010200001D
:1006C00009040101010102000007240101010100E8
:1006D0000B2402010202100144AC0009050409C008
:1006E00000010000072501010000000904020001CB
:1006F00003000000092101020001222100070583F7
:10070000034000010902200001010080FA090400F1
:10071000000208065000070581024000010705029B
:100720000240000109029E0004010080FA09040051
:10073000000208065000070581024000010705027B
:100740000240000109040100000101000009240128
:100750000001280001020C24020101010002030033
:1007600000000A2406020101010202000924030319
:100770000103000200090402000001020000090454
:1007800002010101020000072401010101000B2404
:1007900002010202100144AC0009050409C0000175
:1007A0000000072501010000000904030001030007
:1007B00000000921010200012221000705830340F6
:1007C0000001050C0901A1011500250109E909EA4B
:1007D00009B509B609E209B309CD09B7750195084C
:1007E0008142C02E2C2A2927262423211F1E1C1BB0
:1007F00012C94690060FE0900610F02222FFFFFF7C
:03080000140108D8
:10080700022FE805320007D001F4006401F400C8A4
:10081700320AC350271007D014503C140A1E140084
:1008270000000000000000000002FAFCFDFEFCFAD8
:10083700FA0202FF02FFFDFAFAFAFDFF0202FFFFCA
:100847000002020202FDFAFAFF0200FF00020201A3
:10085700FFFEFAFEFEFEFCFAFE02FE02FFFFFDFAB5
:10086700FAFAFA0202020101FFFEFEFEFDFDFDFAA1
:10087700FAFF010202020202FFFD02020202020265
:10088700FD0202FFFAFF020202020202020000005A
:100897001A001F0024002A0031003A0043004E00CE
:1008A7005B006B007D009300AD00CC00F0011A01E6
:1008B7004C018701CC021D027C02EC0370040B047F
:1008C700C20599069607C0091E0ABA0C9E0ED85A89
:1008D700A55FA05EA15DA25CA359A65BA400000072
:1008E7000000000000000000000000000000000001
:1008F70000000000000000000000000000000000F1
:1009070000000000000000EAF6E9F3E7A1F7E3A51D
:10091700BDADB5BAB9BBE6B8F2F8BFBC0000000080
:10092700000000E9EDEFFBFAF9F7F6F5F3F2F1FF56
:10093700FDFEEEE7E6E5EBEA00000000000000FA46
:10094700F9F7F3F2F1EFEEEDEBEAE9E1E5FFE7FEA8
:10095700FDFBF6F501020304E100000000000000C2
:100967000100000014640000585A590007000000F5
:100977000600000065651200666613003F3E3A36C2
:1009870033302D2A272523211F1D1B191715131156
:10099700100F0E0D0C0B0A0907060402013F3E3A21
:1009A7003633302D2A272523211F1D1B1917151410
:1009B700131211100F0E0D0C0B0A090807069006EB
:1009C700D7EFF0E01313543FFF12B8751258089091
:1009D70006D7E01313543F25E025E0FF1207F090F8
:1009E7000AF77401F02274FFFFFE12B83F12581B7A
:1009F7007F0112B8757F011207F0E4900AF7F00241
:100A07009766900B95EDF0900B94EFF0641D6004E2
:100A1700E0B41E037F0022900BB6E07002FF229025
:100A27000AF9E0900B96F012CECF1267D1900AF830
:100A3700E0B40402F1BC31F4900B94E0FF1263635D
:100A4700126333EF600512976680F5126E3D900BC7
:100A570096E0900AF9F0900B95E06006126E491245
:100A670010037F0122E4900B88F0A3F07F0112604E
:100A7700C49006FEEFF0900760E0602B9006FEE062
:100A870070257B017A07796E12B5E4EF60191221A0
:100A97001BEF700E900701E07D06B401027D07127F
:100AA7002738E4900760F09006FDE0640670028145
:100AB700E6A3E01205490BDE060BEA070B6A0C0BEF
:100AC70000120B2A130BBC150C4C210C0B260C0B1C
:100AD700270C28280C28290C0B2A0C282B0BDE2C7A
:100AE7000BEA2D0BA12F0B57300C4C3C0CB7630BAB
:100AF70000650B2A6600000CE61261F05006900BA9
:100B0700891261E29006FEE06465600281E6126187
:100B1700E9600281E6900B89E0600281E67D017F52
:100B27001580291226F34006900B881225A59006FA
:100B3700FEE06466600281E6900AF9E0600281E601
:100B4700900B88E0600281E67D017F16510981E6FE
:100B57009006FFE0B40304E4F080389006FF7403C6
:100B6700F080309006FFE0700404F08005E4900602
:100B7700FFF09006FFE0B4040B9007027401F090B9
:100B870007328008E4900702F0900730123468F0CB
:100B9700126A517F01126ACF81E6900700E004F0E4
:100BA700E0C3940B4002E4F012658B126A517F0197
:100BB700126AD581E6900AFAE060119006FDE0B46A
:100BC70002047D018002E4FD7F1B8004E4FD7F1A9F
:100BD70051091217F381E6B1D2500281E6B1B3E4AD
:100BE700FF800AB1D2500281E6B1B37F0112695981
:100BF7007B017A07796E7FE87E03FDFC12B5B29020
:100C07000760803CB1D5500281E6B1B37F0212691B
:100C17005912211BEF600281E61223F09006FD8036
:100C27001FB1D5500281E6B1B37F03126959122172
:100C37001BEF600281E67D077F011223F49006FD1A
:100C47007401F081E6122596FFC390002DE09F9076
:100C5700002CE09E402E126F514029900702E07051
:100C67002390072EE06E7003A3E06F6017B1B39077
:100C77000A22123468F0124FAE12211BEF70057D65
:100C87000612273812696E900A221269679FEC9E36
:100C97004011D3ED9400EC94004008D1067FE87E24
:100CA700038006D1067F007E00F159124FAE802FD8
:100CB700900869E0B40128E4900B8AF09006FDE003
:100CC700B402091267E7900B8A7401F012574A9031
:100CD70008697402F0900B8AE0B401031221DA125A
:100CE70077796016900762E0701004F0FB7A077955
:100CF700631277389007737401F09006FDE0B40231
:100D07000C900762E06006E4F0900773F0900773B9
:100D1700E0602412775612B5E4EF601B1277796012
:100D27000C124A0BE4FD7F1B123A9D800AE49007E0
:100D370073127755124FA09006FDE014601124FE40
:100D4700600804700D1221DA80081267E780031229
:100D570068389006F3E0600D126E77EF6007E49055
:100D670006F3F080279006F3E07021126E77EF709C
:100D77001B9006F304F09006FDE0B4020F1200FA90
:100D8700EF2401FFE43E1266B11252F81200FA9006
:100D970006F9122A546014126683122289400C1233
:100DA70000FA9006F9128570126A51221221D312A5
:100DB700A68F9003F312857C0000000012273CE405
:100DC700FDFFF1C07F647E00028AF812186BD39092
:100DD700002DE0940190002CE0940022E054FDF0F7
:100DE700E054DFF0E054FBF0E054BFF0E04401F0E2
:100DF700E04410F0E4FDFFD18AE4FD7F01D18A7B56
:100E0700017A09791622126C1A600D14602924FDE3
:100E170024FD50482408706512773190091D700829
:100E2700B1E37FE87E03805312766CD1857D01D1D3
:100E3700027F007E008044127731701590091D12E1
:100E47006C3D54BFF07D01E4FFD1047FE87E038051
:100E570009127704D1047F007E00801F127731705A
:100E67001190091D1276ECE4FDFFD1047FE87E03A3
:100E77008009127704D1047F007E00F15922F07DAA
:100E870001E4FF900BB5EDF0900BB4EFF07010A3F9
:100E9700E07D017F01600512B988800312B9469091
:100EA7000BB4E0B4010EA3E07D207F0A600302B912
:100EB7008812B946221227066005EF6402704C12A9
:100EC7007779700B90091DB1E37FF47E01803A902A
:100ED70006FDE0FF64016005EF6403701112766997
:100EE700F0123FCC7D01D1027F007E00801B90066F
:100EF700FDE0600464067013127669D1857D017F79
:100F070001D18AD1067F007E00F15922900AF8E0CC
:100F170064037033127731700F90091DF012766CED
:100F2700B1FA7FF47E01801DE490091DF0E054FDC5
:100F3700F0E054DF126C3D54BF1276EC7D01E4B152
:100F4700FD7F007E00F159227B017A09799E7F009F
:100F57007E007D007C0002B5B2900AF8E0FF6406CF
:100F6700600AEF64076005EF64087048900ADAE0EA
:100F7700B4010B127704D1047F007E008034900AFD
:100F8700DAE06402702EFDFFD18AE490091DF0902B
:100F97000AFAE090091DB4010B1276EDD1067FE83D
:100FA7007E03800EE04404F0E04440F0D1067FF475
:100FB7007E01F159227D017F01900BC4EFF0ED64B2
:100FC70001700612382412B988900BC4E0B4011DD1
:100FD7001241FA900AF8E0B40305E4FF12104290B8
:100FE7000AF8E0B40C0FE4FF1210428008E4FDFC9D
:100FF700FFFE122758900ABA7401F022900AF9E00E
:101007006038900ABAE064017018900AF8E0B403F7
:10101700077FC01142123F43900AF8E0B40C031255
:101027003FB7D11E1226F3400C900A1FE07006123C
:10103700382412B946E4900ABAF022900BCAEFF0AE
:10104700F18B9009DCF0900BCAE0F0FF9009DDE02E
:10105700B50706F12770022183900BCAE07016715D
:10106700FD6002911AD117600291B671F6700221E4
:101077007331842173900BCAE0FF54096037D1178D
:101087006007EF5424700291B671F660201277431F
:10109700701BEF54C070169009DDE05412600431E4
:1010A70084800A9009DDE054C06002B18571FD6457
:1010B7000960029160127743602D71FD6007EF545C
:1010C700097002911AD117600A900BCAE054247074
:1010D7000291B671F6600BE05412FFF1276F6002C0
:1010E7003184F127FF5137900BCAE0FF5424601D6C
:1010F70071FD6007EF54097002911A71F6600C12C6
:1011070077437007EF54C07002318491FE900BCA89
:10111700E0FF54C0605671FD6007EF5409700291FB
:101127001AD117600A900BCAE05424700291B67165
:10113700F66006F1277002318471F6FFB412047F5E
:10114700C0800EEFB402047F408006EFB410027F28
:1011570080EFD39400400B900BCAE054C06F60023D
:10116700B185900BCAE054C0FF124068900BCAE0EB
:10117700FF9009DDE06F6002EFF0D1B6227F011228
:1011870037E6F1945004AF068000900BC8EFF0905B
:101197009C41E09009E7F0909C42E09009EAF090CA
:1011A7000BC8E0C394405013129766900BC8127790
:1011B70093912E900BC8E004F080E491A9909C4F86
:1011C700E0549F51165103909C4FE054E7511690FD
:1011D7009C4CE054FCF07F147E00511B12002171DF
:1011E700EDEFF47002EEF4601271EDEFF47003EEC0
:1011F70064FE6007909C48E04401F022909C49E01F
:1012070054EDF07F027E00511B909C4FE054F9F0A3
:101217007F027E00900BA0EEF0A3EFF0900BA012E0
:10122700345645F06009129766912E912E80ED2273
:10123700900B79EFF0909C4E9112909C4DE0543FAB
:10124700900B7BF1ED7002EEF4601271EDEFF4702C
:1012570003EE64FE6007909C48E054FEF0909C4CBF
:10126700E04403F0909C41E4F0A3F0909C4FE044ED
:10127700185116909C4FE044015116909C4FE04442
:10128700065116909C49E0441251167B017A097960
:10129700E07F107E27120F599009DAE0600261663D
:1012A700909C4BE020E058909C4BE030E00261605E
:1012B700F1A16002616071EDEFF47002EEF4600B72
:1012C70071EDEFF47003EE64FE7022900B7AE01478
:1012D7009104909C4EE07023ED643F607C900B7A04
:1012E7007440F0A3E025E0F04401F0800E900B7A03
:1012F700E014909C4EF09112E0605EF1E780A890B8
:101307009C4BE030E053909C4BE030E04CF1A170F7
:101317004871EDEFF47002EEF4600B71EDEFF470CD
:1013270003EE64FE701F900B7AE0049104909C4ECC
:10133700E0643F7020ED6021900B7A74FFF0A3E02A
:10134700C313F08010900B7AE004909C4EF091123A
:10135700E0643F6004F1E780AD9009DA7401F05171
:1013670003909C4FE054FE511612428D909C4FE023
:1013770044065116909C49E044125116909C4FE048
:101387004460511612000A9009DCE07003F1DAF0AC
:1013970091B01241ED5004AF068000900B7BEFF047
:1013A700900B7A743FF0900B7BE0FF900B7AE0D3C1
:1013B7009F402A1241E5FF900B7AE0FEC39F40054C
:1013C700909C41EEF01241DD9F4008900B7AE0902F
:1013D7009C42F0912E900B7AE014F080C99009E7B7
:1013E700E01241D1F02290966BE0FEA3E0FF22903D
:1013F7009C49E0541222909C49E0540922909C4E4B
:10140700F0900B7BE0FD909C4DF0A3E0543F900BD8
:101417007AF02212426291A9909C48E04422F1831B
:1014270054F6F1714411F012B8A0EFFD7C007E0173
:101437007F90128182EF2401FFE43EFE909904E041
:1014470020E00BEF7802CEC313CE13D8F9FFEF1FBE
:10145700AC0670011E4C70F622909C437403F0A3F7
:10146700F1834409F17154EEF17154DDF0912E715D
:10147700EDEFF47002EEF4600871EDBEFE0ABFFFF7
:1014870007909C4374028005909C437401F0A3F07D
:101497001277F87004F1DA91AF1277E07F507E008F
:1014A700411B909C48E04444F07F0A7E00411BF1B9
:1014B700945004AF068000900BC7EFF0909C41E07A
:1014C7009009DEF0909C42E09009DFF0900BC7E0B6
:1014D700C394405013129766900BC7127793F1E1AC
:1014E700900BC7E004F080E491A9909C49E054DB9D
:1014F700F07F037E00411B12428DF1844424F0915A
:101507002E909C47E04403F07FF47E01511B909C92
:1015170047E054FCF01277F87003F1DAF091B0F17C
:10152700945004AF068000900BA2EFF0A3743FF035
:10153700900BA2E0FFA3E0D39F4032129766900979
:10154700DEE0FF900BA3E0FEC39F4005909C41EEB9
:10155700F09009DFE0FFEEC39F4008900BA3E090F7
:101567009C42F0912E900BA3E014F080C39009DE0B
:10157700E0909C41F09009DFE0909C42F0221241FC
:10158700ED5004AF068000900BC9EFF0900BC9E057
:10159700D3943F502B129766909C49E030E1089016
:1015A7000BC9E0909C41F0909C49E030E408900B17
:1015B700C9E0909C42F05117900BC9E004F080CC31
:1015C700909C49E030E107909C48E04404F0909CEF
:1015D70049E030E407909C48E04440F091B0909C8B
:1015E70049E030E103124499909C49E030E403124A
:1015F70044915117909C49E030E104E054FDF0908C
:101607009C49E030E404E054EFF07F027E00411B88
:10161700909C49E0542422F18B7002C1B612428D8E
:10162700F18D600AE054BBF07F1E7E00511B71FDF7
:1016370060031277E0D1177005E054126071D1177B
:101647006011F1945004AF0680001277D8F090092A
:10165700DF80101241ED5004AF0680001277D8F0FA
:101667009009EAE0900B34F0900B35743FF0900B43
:1016770032E0FF900B35E0C39F4034129766900B22
:1016870035E014F0900B33E0FF900B35E0FEC39F7D
:101697004007EE543F909C41F0900B34E0FFEEC3BF
:1016A7009F4008A3E0543F909C42F0912E80BF904A
:1016B70009DBE070161266A2C083C082E0FFA3E0D8
:1016C70054FED082D083CFF0A3EFF022AE07F1AF64
:1016D700909C46E04410F0AF0612405B120F599001
:1016E7009C4BE020E204F1A160F5F179E04480F041
:1016F7007F01F17BE04420F0912E909C45E044056A
:10170700F0912E909C46E0547FF0F1E1909C49E0E7
:1017170054BFF0912EE49009E8F09009DDF0808F36
:10172700900BCAE0541222900BC6EFF0F179E04417
:101737008091AF909C45E054FA91AF909C46E0545D
:101747007F91AF909C46E054DF91AF909C46E05468
:10175700EFF0900BC6E0FF12405B120F59909C4BC5
:10176700E020E305F1A160F52222F0912E909C483C
:10177700E0227F647E00511B909C4622F0912E90C0
:101787009C49E022F1AF909C48E05444229009DF45
:10179700E0FF9009DEE0FEC39F221297667B017A85
:1017A7000979E012B5E4EF2212667330E0027F0197
:1017B7009009DBEFF0909901C083C082E0FFA3E0BE
:1017C7004401D082D083CFF0A3EFF0909C06E04491
:1017D70080F022909C48E054BB227F017E00411B91
:1017E7007F057E00411BF071EDEFF422900AFAE0CD
:1017F7006006E4F01103800B900AFA7401F0FDFF14
:10180700120FC090091BE0B40103120E0D22900BBA
:10181700CFEFF0126B15601324FD24FD502724FD34
:101827006016240A70251269618020900BCFE0644E
:101837000360181262038013900BCFE0640C600BF7
:101847001242708006125FD5120016900BCFE090FF
:101857000AF8F0900BB9F0120FBCE4900AFAF012F4
:101867006A30110A90091BE0B40103126AE82211D9
:101877008690966AE4F0900ADAF090079FF022D3F8
:1018870010AF01C3C0D0909644E054FCF0D0D09282
:10189700AF229096457403F0517EEF60189006A032
:1018A700E064076010900AAA740BF0A374B8F09074
:1018B70006A07407F09006A0E0FE702B5121EF60A0
:1018C7000C5160EF7007900AA5F0A3F022514BFC72
:1018D700C3E5F09464EC9400500241205155740222
:1018E700F0900AA414F022EEB401265121EF700201
:1018F700411E5160EF6002411E900AA5514FFED371
:10190700E5F09464EE940050024120E49006A0F0C4
:10191700229006A0E06402703D51385121EF600A21
:101927005160EF7005515604F02212001EEF64015A
:1019370070024120900AA8514EFEC3E5F094D0EE04
:10194700940750024120E4900AA8F0A3F0518F9029
:1019570006A07403F0229006A0E0FE6403701F51F6
:1019670021EF701612720F5121EF60081186515541
:101977007404F02211865138411E5138411EEEB4CD
:10198700041A5121EF60045138411E514BFED3E533
:10199700F094F4EE940150024120800D9006A0E0EF
:1019A700FEB4051D5121EF70079006A07406F022C2
:1019B700514BFCD3E5F09432EC9400405C513880F5
:1019C70056EEB40614127284EF600251775121EF7C
:1019D70060479006A07405F0229006A0E0FEB407C9
:1019E70021517EEF70069006A07406F0D3900AABE3
:1019F700E09400900AAAE09400401E74FFF5F002FC
:101A070081D7EEB4080F1186518F5121EF600A116B
:101A170086513880025138517722900AF8E0B40491
:101A270008909612E05402FF2290A628E05404FF83
:101A370022D310AF01C3C0D0909644E04460F0D0E9
:101A4700D092AF22900AA5E475F0010281EDE490EF
:101A57000AA5F0A3F09006A022900AF8E0B40408C3
:101A6700909612E05401FF2290A628E05402FF222C
:101A77009006A07402F022909644E05403FFBF033F
:101A8700047F0180027F0022D310AF01C3C0D09032
:101A97009644E0549FF0D0D092AF2212C8CB90A6C4
:101AA700227409F0909883E4F0518F1186124FA7A2
:101AB70012720F1277C3E4FDFF1277BB718944409E
:101AC700FD7F011277BB718954DFFD7F017EA31271
:101AD7008F80E4FF124F2851E6E4900AA7F0227F97
:101AE7008151EC7F02900BE8EFF0547FF145900BAA
:101AF700E8E030E737718754DF717F4440B18DD11B
:101B07003DC006B109D0E04FB18D7F1371897F00C9
:101B1700FEC007C006B109D0E0FED0E0EE4420FDCC
:101B2700F19D7D407F10F1AD7F1180477F16718950
:101B370054BFFDD1477F1671894480FDD147D13D00
:101B4700C006B109D0E04FB18D7F1371897F00FEC8
:101B5700C007C006B109D0E0FED0E0EE54DFFDF1CA
:101B67009D7D407F14F1AD12779D7F1671894410DA
:101B7700FD7F167EA3028F80FD7F127EA3128F80CA
:101B87007F127EA3128C84EF22D080D0807B017AD3
:101B97000A79399006A11257B1FD12B5B27B017AC5
:101BA7000A793E7F64120F5790057AE06403703B11
:101BB700F13C900A43EFF030E6147F1671894480B8
:101BC700FDD1477F167189549FFD7F16807690055A
:101BD7007BE0600B125EF720E00281987F01229084
:101BE7000A43E020E00281987F012290057AE064B1
:101BF700047030B109900A43EFF030E50D71874466
:101C070080717F54DEFD7F12803A90057BE060098A
:101C1700125EF730E07B7F0122900A43E020E071FB
:101C27007F012290057AE060046402702CD13DC0E8
:101C370006B109D0E04F900A43F030E212718754A1
:101C4700D9FD7F127EA3128F8012935E7F002290B0
:101C57000A43E020E13B7F012290057AE0640170AE
:101C67002D7F1371897F00FEC007C0067187FDD0E5
:101C7700E0FED0E04DFF900A43EEF0A3EFF030E234
:101C8700037F0022900A44E030E0067F01227F00B4
:101C9700227F607189645D60037F00227B017A0A7D
:101CA700793912B5E4EF7006129758EF7035F13CA9
:101CB700900A43EFF054DF4401FDD14790057AE0E5
:101CC70064037014A3E070107F32FE1290017F1638
:101CD700718930E0037F0122718754D6B18DB18CB1
:101CE7007F00221297667B017A0A793E12B5E4EFEC
:101CF700700261AF7F0112AFF6EF6401600261AF5E
:101D0700FF227F127EA3028C84900BE7EFF0540F23
:101D1700F145900BE7E07025D13DC006B109D0E051
:101D27004FB18D7F1371897F00FEC007C006B109CF
:101D3700D0E0FED0E0EE4401FD7F138042900BE738
:101D4700E030E74071874408B18DD13DC006B10945
:101D5700D0E04F4410B18D7F1371897F00FEC0071B
:101D6700C0067187FDD0E0FED0E04D4410EEFDF1D6
:101D77009D1247D1718754CF717F4440FD7F127EFA
:101D8700A3128F8022E4FD7F127EA3028F8012723E
:101D970022EF30E20FE4FF124F287F0451EC7F81DE
:101DA70051ECF1047B017A0779F87D08125F75EF32
:101DB7007002C13C9007F8E020E7119007FEE06051
:101DC7000B7B017A0879617D081272299007F8E088
:101DD7005460704AA3E01205491DFF001E3C011E16
:101DE70001031E07051E11061E14081E16091E1FD5
:101DF7000A1E3C0B00001E2180209007FCE0801B80
:101E07009007FAE0547FFF024F28027057801B515A
:101E1700E67F8351EC025FC38010E4FFA1109007B7
:101E2700F8E0B4A10DA3E0B4FE087D01E4FFFE02D3
:101E37005DED1258E5227F137EA3128C847E00226B
:101E47007F167EA3028F80900AE11285E6900AE44E
:101E5700ECF0A3EDF07D02F146C3900AE4E09402B2
:101E670050527F16718920E004E4FEFF22E4FD7FD3
:101E770002125E67EF7003FEFF22125FBC900AE654
:101E8700EFF0FDC2AF900AE11285DD7F287EA31235
:101E97008A06D2AF900AE6E070097F16718954FE70
:101EA700FDD1477F16718954FEFDD147900AE6E0C0
:101EB700FF7E0022900AE1127725900AE112771936
:101EC700900AE412774B900AE4127770125F27EFBB
:101ED7007003FEFF227D01D1477DA01277AC7D2DD7
:101EE700123379125F00E4FD1233797D017F16F119
:101EF700AD1277AC900AE4E0FEA3E0FF227D04F187
:101F0700467DC07F14F1AD12779D7F17D13FC00684
:101F1700F13CD0E04FFDD1477F1771897F00FEC0AC
:101F270007C006F13CD0E0FED0E0EE4440FD7F174D
:101F37007EA3028F807F167EA3028C84F0E4FD7F50
:101F47000E7EA3028F80900B1A1285E6900B1DEC74
:101F5700F0A3EDF07D03F1467F0E71896403600401
:101F67007D03F146900B1DA3E0FD900B1A1285DD52
:101F77007F2C1277B3B18EF19B900BBCE4F0A37466
:101F870032F0E4FD7F03125E67EF70047D08800284
:101F9700E4FDB18E7D207F137EA3028F807EA31286
:101FA7008F807D107F087EA3128F80E4FD22126A46
:101FB700307F0112CD82E4FD7F06F1AD7F07F1A4EA
:101FC7007F09F1AD127050F104D310AF01C3C0D037
:101FD7009004037420F0A3E4F012738DD0D092AF75
:101FE70022126B15600D24F7600E240A7017122752
:101FF700438008123F438003123FBC7B017A067976
:10200700DD7D01110D22900B461285E6900B49EDFF
:10201700F0126A921251B94002E4F01251B1400233
:10202700E4F09006DB745AF0900AF8E0FF60049041
:1020370006DCF0900AF9E09006DDF01277804002A6
:10204700E4F0900AF8E0FBB40116900702E090066E
:10205700DEF0900A73E09006E3F11F9006DF801828
:10206700EBB40217900702E09006E8F0900A73E0DD
:102077009006EDF11F9006E9128570125206900640
:10208700F2EFF0900B461252B26033900B49E060CA
:102097002D7D5AE4FF12BA06900B461285DDC3E97F
:1020A70094DBFF900B461285DD900B49E0900AF117
:1020B700F0124FFA9006F2E0FD7F1712BA0622C31C
:1020C70074E8310FD39401400FE49006E8F07B01E8
:1020D7007A0679E87D01110DC374DE310FD39401BF
:1020E700400FE49006DEF07B017A0679DE7D011170
:1020F7000DC374DD310F900AF9E06F600A7B017A36
:102107000679DD7D01110D2294DBFF12BFF4900BE0
:10211700DBEFF0227B007A007900900B851285E6D1
:10212700E4900760F0900702E0701512696ED39093
:10213700072FE09F90072EE09E4005E4F0A304F0F0
:10214700900B851285DD9005131285E690072EE02A
:10215700FFA3E0900516CFF0A3EFF031D3129C6BED
:10216700EF7007900BAE740580277B017A07793FE4
:102177007D0B12520E900A73EFF07B017A0679DB22
:102187007D18110D31D312CEE6EF7009900BAE74A6
:1021970007F07F00229003F312857C000000009077
:1021A7000768E0601DE4F01252DD9003EF1284D35C
:1021B7009003F3122A54400A9003F312857C00001F
:1021C70000001264F0EF7F017001FF227B017A07A4
:1021D70079302231D312DB79EF600612CEB0EF707F
:1021E700119006FFE0640370227F0A126685518909
:1021F7004019120DB39006FFE064016005E4FF1279
:10220700684E311BEF700471F080427B017A0779C9
:102217006912B5E4EF6017900AFAE0701190075F52
:10222700E0700B121003F14390075F7401F0123E48
:102237002DEF701B120DB3900701E0FF64026003DE
:10224700EF70047D0680027D077F0171F4E13C1287
:102257006816600B24FE60181460152404701812A9
:10226700CECF1267D19006FD7403F01277D18004A8
:1022770012681DF012682522E47F487E0DFDFC9050
:10228700098B1284DFD302840E900BB0EFF0E4A326
:10229700F0D3900981E09400900980E094004022F7
:1022A7009009821284DFC000C001C002C00312443B
:1022B700E1E4FCFDD003D002D001D00012778A12EE
:1022C7006D7C900980E07002A3E0600261B87B64D6
:1022D700FAF9F89009821284D312835890098B1265
:1022E7008570900980E4F0A37464F0A312857C00E4
:1022F700000000E47F107E0E5184400890097A7434
:1023070002F08019E47FAC5182400890097A740486
:10231700F0800A517F400690097A7405F0517F409A
:1023270015E47FAC7E0DFDFC90098B122A545006F4
:1023370090097A7405F0900BB0E0B4010A517F5010
:1023470006900BB17401F0900BB0E0700A51805009
:1023570006900BB17401F0900BB1E06401705290DC
:10236700097A7406F012001212976690098FE060DE
:102377002DE4F07B017A0979867F107E27FDFC1218
:10238700B5B27D017F0F120A091277C3900AF8E0F0
:10239700640C701DB1F0EF701812100380137B01ED
:1023A7007A09798612B5E4EF6007E4FD7F0F123AE8
:1023B7009D020012121FE8900AF9E07010900ABA05
:1023C700E0700A900AFAF07D01FF120FC0900ABA76
:1023D700E0B40108D1F34004A37401F0900AFAE0D5
:1023E700B40105E4F0121003227D067F01900B3E35
:1023F700ED125F5BC3940840037F0022900B3EE021
:10240700FFA31285DD90000174011204C8FD12803C
:10241700F62DFD7C00ED5407FD900B3F1261F8E9A6
:102427002DF9EC3AFAEF12813C7F0122124E1F90F0
:102437000BDDEFF06012120F4FE490099C127755F5
:10244700124FA0E4900773F0900A2CE0B40106B194
:1024570096FF120019900A22E07002A3E06025B1EE
:102467008F12B5E4EF7007900BDDE0B42216B18F41
:102477007F887E13120F59900BDD7421F0E4900AC8
:102487002CF0A17A900BDDE0FFC394164074EFD3D4
:102497009420506EF1066007EF64026002A168F1B4
:1024A70015900BDDE0FBB4201BB196FF7C007D0A85
:1024B700128182ED4C6003124FAEF12E900A2A74FE
:1024C70001F08026900A2AE06011EB24EAFFE43449
:1024D700FF900A228FF01281D7800A900BDDE0244B
:1024E700EAFF126AA3E4900A2AF0E4900BDDF0B148
:1024F7008F7FD07E07FDFC12B5B2B196FF1200198F
:102507008071900BDDE0FFC39431405CEFD3943BC7
:102517005056F1066005EF64027058F115B18F7FD0
:10252700887E13FDFC12B5B2900BDDE0FFB43B04CF
:10253700F12E8007EF24CFFF126AA3B196FF120096
:1025470019F1066004EFB4021812696ED3900A23DA
:10255700E09F900A22E09E5008900BDD743CF080CB
:1025670012E4900BDDF0800B900BDDE06005124F5D
:10257700AEF116900BDDE0FD600D7F0171F4900B5D
:10258700DDE0FDE4FF71F4227B017A0A79252290D0
:102597000A22E0FEA3E02271BB7F0102001A740148
:1025A700F0E4FFEFB4010A1261F0500CE004F08090
:1025B70007D1F34003E014F0900AF9E0B420117D4D
:1025C700017F15F126B40C08B1F0EF700312100368
:1025D700900AF9E070117D017F16F126B40C08B15D
:1025E700F0EF700312100380AE90099DE0FF22E424
:1025F700900B98F0A3F0D1FBEF601690099DE07067
:102607001004F0FB7A09799E12773890099C7401BF
:10261700F0D1FBEF701C90099DE06016D1F34012DA
:10262700900A1FE0700490099DF0120F4FE4900983
:102637009CF090099DE0600812382412B988800345
:102647001210037B017A09799E12B5E4EF602B9093
:10265700099CE06025D1FBEF60121242A012B988F5
:10266700124A0BE4FD7F1B123A9D800EE490099CF1
:10267700F07B017A09799E124FA07B017A0979A430
:1026870012B5E47F011260C4900B97EFF024ED6060
:102697003324AE600714602C2454704F1261F0503D
:1026A70006900B991261E2900B97E06465703C12FB
:1026B70061E97037900B99E070317D017F15F10E5C
:1026C70070298024D1F34005900B98B1A5900B9702
:1026D700E0B46617900AF9E07011900B98E0700B60
:1026E7007D017F16F10E700312100322900AF9E0A4
:1026F700D3940022E4FF126E5C30E7027F00229041
:102707000AF8E0FF640122120A09B1F0EF22E4900F
:102717000A2CF0900A2BF022F090074B0284D31278
:102727000A09900AF8E022900A22E475F00A028169
:10273700D77F0171F49006FD7401F022900AF9E049
:1027470025E02494F582E43408F583125F53FDAC49
:1027570006900B2E1263271217AF1213EDEFF470CA
:1027670002EEF460671213EDEFF47003EE64FE609F
:102777005B900B2E12609BC333CE33CED8F9FF7C10
:10278700007D05128182900B2EEEF0FAA3EFF0FB8D
:10279700A312609BC333CE33CED8F9FF7C007D05EF
:1027A700128182900B30EEF0A3EFF0D3EB94EAEABC
:1027B700940B4006900B2E1277F0D3900B31E094D8
:1027C700EA900B30E0940B40031277F0900B2E1237
:1027D70077E8A31277E8900B2EE0FCA3E0FDECC4AA
:1027E70054F0FBA3E04B9009E5F0AF05A3EFF090A1
:1027F7000B30A3E09009E9F0909C04EFF0909C0265
:10280700E0540FF0C083C082E0FF9009E5E0FE547A
:10281700F0FDEF4DD082D083F09009E9E01136E06A
:1028270054F0F0E0FFEE540FFEEF4EF00216B690B4
:102837009C03F0909C0222AE079009E8E0707D129D
:1028470017AFAF0612172E909C00E4F0909C49E05A
:102857004440F012142E1244D97481F0909C001455
:102867001217ED7002EEF460091213EDBEFE0DBFF4
:10287700FF0A909C437402F0A3F0800D909C437470
:1028870001F0A3F0909C4AE4F0909C04E4F0113628
:102897007411F09009E7740AF09009EAF01241D137
:1028A700F0E49009DDF09009E804F0909C01E04421
:1028B70003F07F327E0012121B1216B62212481B3B
:1028C70074FFFFFE12B83F12B8CC129766E4900B64
:1028D700B8F012581B12697AD2AF126A291276849D
:1028E700128AF8124F1A126A3031B190960231618A
:1028F700909605E044403164909601E04440124AC6
:102907000AE4FDFF316B12382412B988E4FF124242
:10291700F6124553E4FF113E1250AAF1C41256E5D0
:10292700123A1212976612459C1224331238451236
:102937006C1A600F14601624FC601724FB600924CE
:102947000B7012120A6C800D1225F6800812617046
:102957008003120807126B1E80C9E054BFF0A3E082
:102967004440F022124814EF700F90B204F090B276
:102977000331AA90B205F08024EFB4010E90B2049F
:10298700E4F0A331AA90B203F08012EFB4020E90E4
:10299700B203E4F090B20531AA90B204F090B0000F
:1029A700E4F022F0ED90000E93229006D8E0FF6449
:1029B700086005EF6420707A7B017A0A79667FAC3C
:1029C7007E0D120F597B017A0A796612B5E4EF7012
:1029D700441297661272D9900A6B1285707F007E37
:1029E700FF7D457CBA900A6B5154601E7F807E7FC5
:1029F7007DA57C5A900A6B5154600F7F007EBF7D86
:102A0700007CFF900A6B5154700B126A309096024B
:102A1700E054BFF0221277CA7F0912B9ACEF20E663
:102A27000C7F0A7E00128AF812976680EB7F0112EC
:102A37003ABB22128358AC00AD01AE02AF03900936
:102A4700F51285709009F51284D39009F11284DF8D
:102A5700C302840E90096212857C00000000E49096
:102A67000974F0900006E0B4010C12CD53EEC313C5
:102A770090096FF0800690096F7401F0F1011276EA
:102A8700BC7002FF22F1011276CD7003EE6455602F
:102A970008900AB9E07002FF22E490096EF09009ED
:102AA7006EE0FFC394044002615CEF75F010A4244C
:102AB700BEFFE5F0340EFAA9077B0190097712856E
:102AC700E6125C16FF6405600AEF640F6005EF64A9
:102AD700857036900974E0FF600890096EE0C39F27
:102AE70040279009621284DFC000C001C002C00302
:102AF7001276DDD003D002D001D00012776790099B
:102B07006EE004900974F0418390097712378912B7
:102B1700810FFF64046018EF64066013EF640B60B5
:102B27000EEF640C6009EF64016004EFB40E1E90B1
:102B370009621284DFC000C001C002C0031276DD43
:102B4700D003D002D001D000127767800890096EB9
:102B5700E004F041A590096EE0B4041B900974E00D
:102B6700FFD394004011EF9404500C900962128532
:102B77007C00000000418390096FB1B8B1D4127690
:102B8700BC7002FF2290096FB1B8B1D41276CD7034
:102B970003EE64556008900AB9E07002FF22900DB9
:102BA7000DE0900013F0900D0EE0FEA3E0FF1297EA
:102BB700F8900975EEF0A3EFF0E4FCFD900962B11F
:102BC700CE900014128570900D11F107603C12979A
:102BD700F87C007D201285EFB1DDAB0790096FE02F
:102BE7007F0025E0FEE4FCFD1282B2123474C006B9
:102BF700C007E025E07B00FAE4F9F8D007D0061219
:102C0700835890095E128570800A90095E12857C50
:102C170000000000900D16F10760081297F8E4FC19
:102C2700FD8005900D24B1E7900966128570900D1F
:102C370013F10760081297F8E4FCFD8005900D205A
:102C4700B1E790096A128570B1B5900966B1D7B13D
:102C5700DDAB079009751257B1FD1282B290095E7C
:102C6700B1CEB1DDAB0790096A123799C007900062
:102C770013E0FBE4FAF9F8D00712835890097012B1
:102C87008570E47FF57E0FFDFC9009705154500864
:102C9700E4900008F07F0122E47FF57EFFFDFC90C1
:102CA70009705154500AE4900007F0A304F08025FE
:102CB70078367C0D7D017BFF7A0679707E007F0870
:102CC7001287A2EF9000077003F080037401F09061
:102CD70000087401F0B1B5900966B1D7900014B13E
:102CE700CE90095EB1CE90001C128570900007E06F
:102CF7006009B1E4900970B1CE800F900970128419
:102D0700D3EF2402FFE43E1266B1900020128570D3
:102D1700900007E0601FB1E4EF24FEFBEE34FFFAFA
:102D2700ED34FFF9EC34FFF8900013B1B81282CDFF
:102D370090001C800AB1B5900966B1D7900014B114
:102D4700CE900018128570900013E0FE90096FE096
:102D5700FFEE8FF0A4900013F0A31284DFE4FCFDD4
:102D6700FE1282CD90001412857090001C1284DF31
:102D770090096FB1B81282CD90001C128570F101D5
:102D870090096AB1CEB1DDAB0790096FB1B8128275
:102D9700CD9000241285709000181284DF90096F7F
:102DA700B1B81282CD9000181285707F0122900D64
:102DB70010E0FFE4FCFDFE229004531285DD900035
:102DC700271284659004561284DF0282B29009624A
:102DD7001284DF0282CDA804A905AA0622900D2C31
:102DE7001284D3029814900006E064046002C1FACA
:102DF70090045AE0B40231900456C083C082128412
:102E0700DFC000C001C002C003D1FB90001F1284C5
:102E170065D003D002D001D0001282B2D082D08315
:102E270012857090045AE4F090045AE0702B9004D5
:102E370056C083C0821284D3C004C005C006C00731
:102E4700D1FB900027F10ED007D006D005D0041291
:102E570082BFD082D083128570B1BFC004C005C0C5
:102E670006C007D1FB90001FF10ED007D006D00592
:102E7700D004C31283F85027D1FB90002712846532
:102E8700A804C004C005C006C007D1FB90001F12EC
:102E97008465D003D002D001D0001282BF8011B167
:102EA700BFEC335011D1FB9000271284651283EADF
:102EB700900456128570D1FBE92427F9E43AFAC049
:102EC70003C002C001F11AD001D002D003128495C9
:102ED700D1FBE92423F9E43AFAC003C002C001F1A7
:102EE7001AD001D002D003128495126E1FD080D061
:102EF700807F01229004530285DD9009620284D30A
:102F0700E0FEA3E0FF4E22128465AB07AA06A905DF
:102F1700A804221284EB9004561284D30282B29042
:102F27000A78128570900A7C1285E6900A7FF1076D
:102F37006030D3EF9400EE940150277F06F17012B2
:102F470047417F02F170900A781247D8900A7FE0D4
:102F5700FEA3E0FF900A7C1285DD1245B8124741B7
:102F6700F1A622F178F1A67F06AD07126DF20200F5
:102F7700E2900BE3EFF07F50F1701247417F01F1D0
:102F870070900BE3E002473D900B06128570E4FF5B
:102F9700F16A124741900B0AE0FFF1701247417F37
:102FA70005F170120026900BE4EFF01247417F0104
:102FB7007E00128AF8900BE4E020E0E3227D087F90
:102FC7000C12B946126C22E4900BB6F0126D8C907D
:102FD7000BB6E0FF600AEFB401067F1CF178F1A69B
:102FE70022121D957B017A0779A07D1F7C00121E96
:102FF7004EEF641F4E6002213778A07C077D017B6E
:10300700FF7A05796F7E007F041287A2EF600221A5
:10301700379007A4E09007E4F09007A5E09007E554
:10302700F09007A6E09007E6F09007A7E09007E783
:10303700F09007AFE012054930A70030D90330649C
:103047001230BA1A30FF1B30BE1E307923307D256F
:1030570030812830852A30FB2F0000310B7BFF7A27
:103067000579747D247C003158915D315890079F14
:1030770021065168210F518D210F51AD800F711F0E
:103087007B017A0779F07FD07E07120F5990079F4F
:103097007402F07B017A07798E7F0A120F578068D6
:1030A7003138EF70069007EDF080599007EDE0603A
:1030B700408051510080519007B3E0700C3138EFD8
:1030C7006007E49007EEF0802C9007EE7401F0E4BF
:1030D70080233138EF60069007EDE060087BFF7AC8
:1030E70005799C80067BFF7A0579AE7D127C0031DD
:1030F70058E48001E4FF800EE4FF515F9007ED7410
:1031070001F080047F01515F7B017A07798E12B548
:10311700E4EF600A90079FE0B402037401F09007A0
:10312700807401F0FB7A0779897FB07E04120F590A
:1031370022123AFAEF70069007EFF0800E9007EF31
:10314700E0700812B24F9007EFEFF09007EFE0FF43
:1031570022900ADB1285E6900ADEECF0A3EDF07D03
:1031670001121F46C3900ADEE094025064900ADE03
:1031770071809440EE94004006A37440F08005905F
:103187000AE0EFF0900AE0E0FDFFC3900ADFE09F5E
:10319700F0900ADEE09400F0900ADB1285DD7F24D0
:1031A7001277B3121D8E7D207F13121FAD7F011280
:1031B7005E67EF6043121D8C121F9B900AE0E0FFD1
:1031C700900ADC125E61900ADEE07002A3E0709D57
:1031D70022121D8C7DB4121F9D900ADB1277259059
:1031E7000ADB127719900ADE12774B900ADE127704
:1031F700707D1F7179125F00223138EF700471679B
:10320700805612B8399007781285709007B1E0247C
:10321700C1601E242370347BFF7A0579989007B329
:10322700E0FFC39404500280027F04EFFD518680C3
:10323700277B017A0779749007B3E0FFC3940C509A
:103247000280027F0CEFFD5186800D7B007A0079AA
:1032570000E4FDFC3158E4FF9007ECEFF0915D21AD
:10326700583138EF70047167801312B83990079797
:103277001285707B017A0779937D0C518680D97C02
:10328700003158E4FF223138EF700471678015125E
:10329700B83991749007811285707B017A0779811B
:1032A7007D08518680B29007B11284D39007B7E0AA
:1032B7007A0F30E0027A0D7B00900AEBEAF0A3EB7D
:1032C700F012740E9153FED3E5F09401EE94004092
:1032D70024715D30E0027E0D7F001274969007B76F
:1032E700E07E0D30E0027E0F7F0071167C023158C0
:1032F70012243380CF1273B89007B7E07E0D30E009
:10330700027E0F7F0071167C023158E4FF415FAAED
:1033170006A9077B017D00229007B11284D312749E
:10332700AB9153FED3E5F09400EE94004021715D1C
:1033370030E0027E0D7F0071167C02121E4E716016
:1033470030E0027E0D7F0012747412243380D21293
:1033570073DAE4FF415F1297669007B7E07E0F22AA
:103367007F81121D107F0A7E00128AF8121D957F39
:1033770001227F047EA5028F80E0FEA3E0FFD32217
:10338700E4900702F0900760F0126A45EF6401705D
:1033970060900A72E0700C900768F090072EF0A317
:1033A700048046900A7471809400EE940040659002
:1033B70007687401F090002C126967EF9DEE9C403E
:1033C70008900A74E4F0A304F09000307180900A2A
:1033D70071E09F900A70E09E4005E4F0A304F0E4DA
:1033E700900702F0900A749168F0E49006FFF0806D
:1033F70023E4900768F0900703F0A304F090072EEA
:10340700E4F0A304F0E49006FFF09003F312857C48
:1034170000000000E4900701F090002CE07002A388
:10342700E070079006FD04F0FF2212273C12211BD3
:10343700EF70031223F0E4900A74F0A3F0900A7679
:10344700F0A3F0900A70F0A3F07F01229007B67402
:10345700FFF5F00281ED7B017A0779E07D0D7C00B5
:1034670022E0FFA3E090072ECFF0A3EF22EF24FF87
:10347700FFEE34FFFEED34FFFDEC34FFFC22900B32
:103487002512857C00000000E4900B24F090053E97
:10349700E0FF900B24E0FEC39F4002A139EEB1404C
:1034A70090000512810F64016002A1311276A81203
:1034B700810FFBB4020FF178EF2480FFEE3451FE49
:1034C700ED34018011EBB40313F178EF2480FFEEA4
:1034D700343AFEED3409FDE43CFC800B1276A81269
:1034E700810FB40108F178900B25128570900B2499
:1034F700B13F900001128465900B25122A54602376
:10350700900B24B13F12770D9174C312840E601390
:10351700900B24B13F12770DEF24FE9177C31284ED
:103527000E7007900B24E004FF22900B24E004F0B8
:1035370081947F00229009F0E075F006A4FF9005C2
:10354700451285DDE92FF9EA35F0FA229009ECED0D
:10355700F0A31285E69009EBEFF090053EE0FEEF51
:10356700D39E50149009EBE0C39401400B9005459E
:103577001252B26003EE70037F00229009EBE01451
:103587009009F0F09009ECE0FF9005451285DD9079
:1035970009F01276B1EF12814E9009ED1285DD1216
:1035A700BF3FF1E09009ECE064036002C1D7A3F1EB
:1035B7008912810FD39406400312BE90F1789009C7
:1035C700F5128570F17178009009F51284D3128392
:1035D70058EF2402FFE43E1266B1E47B07FAF9F8DC
:1035E700128358AF039009F9EFF09009EDF18912B2
:1035F700810FFEC39F4015EEFF9009F9E0FDEF9D97
:103607001277A4FDF171F81282CD80299009EDF1AE
:103617008912810FFF9009F9E0C39F1277A4FDF18A
:1036270071F81282CDC374809FFF743A9EFE7409AD
:103637009DFDE49CFCC006C007B13C900001D0078B
:10364700D0061284AFB13CF17EC003C002C00112A4
:1036570084459009F5122DCED001D002D0031284F3
:1036670095F16B1276F6F1E09009F5F16E7800129C
:103677002A3A9009F0E075F006402CB143F17EC07C
:1036870003C002C001128445C004C005C006C007BC
:1036970012775DF199122DDDAB07D007D006D00563
:1036A700D0041282B2807FB143F17EC003C002C052
:1036B70001128445C004C005C006C007F190122D51
:1036C700DDAB07D007D006D005D0041282BF8056E5
:1036D7009009ECE064027059F16B1276F6F1E0F1B3
:1036E700717800F178122A3A400712775DF19980D4
:1036F70012F190C374809FFF74519EFE74019DFD6B
:10370700E49CFCC006C007B13C900001D007D0067E
:103717001284AFB13CF17EC003C002C001128445E0
:1037270090B106122DCED001D002D003128495801D
:10373700259009ECE0B4011EF1789009F512857027
:103747009009F11284D3C006C007B13C900001D0A4
:1037570007D0061284AF9009EBE0FF12C1CB12BA73
:10376700257F01229009F11284D37B807A51790158
:103777002290B1060284D3E92401F9E43AFA2290AF
:10378700069D1285DD900004229009F11284DF90D6
:1037970009F51284D30282BFA2AFE433900BCEF0B7
:1037A700C2AFF18612810F701D128445122F11903E
:1037B7000611F199E4FBFAF9F8C31283F85007F1FF
:1037C70086740112814E900BCEE024FF92AFD08019
:1037D700D080F18612810FFF229009F10285709047
:1037E7000BC5EFF07F0122900B81E07012900BA7C1
:1037F700E0700C12380712382412B988124FBE2213
:1038070090091BE0B40102111512432FF022F1CCED
:10381700E4FD7F01120E8A127684028AF87D107FFA
:103827002012B9467D107F2112B9887D107F1D12A5
:10383700B9887D107F1E12B9467D107F1C22900A21
:10384700F8E0900BD3F0E4FF1260C49009B7EFF0F3
:1038570064576004E0B4420251A751D8EF602D903D
:103867000AF8E0FF64076024EF6408601F90000611
:10387700E0B4030A900AF8E0B40D0312273C120FD4
:10388700BC7F967E00128AF87F0231327136EF6074
:10389700047F0331327158EF60047F073132314BB7
:1038A70012B5E4EF6024314B7F64120F5771FBEFC1
:1038B7006007112412B9888011900A1FE0700B90DD
:1038C7000ABAE07005112412B946126B15601E245E
:1038D700FD24FD5021240770329006D2E0600731A5
:1038E70069EF7027800C51FAEF702080059141EF46
:1038F70070197F018013717AEF70107F907E01122B
:103907008AF87158EF70047F02517B9009B7E0B4D1
:103917001418900006E0B4030A900AF8E0B40D0307
:1039270012273C900AF8E0FF31C422900AF8E09091
:103937000BD2F03152EF700B900BD2510C70047F09
:103947000131C4227B017A0979BE22EF24FD600C84
:1039570024FC600C24FB6006240A8006818AE1A30C
:10396700811EE4900BD0F0900A1EE0B40109120FFB
:10397700BC900BD07401F051FAEF7006900A1EF05C
:10398700FF221209ED12273C120022900BD0E070A3
:1039970003120FBC12B24FEF7002FF227F02121800
:1039A700157F09121042E4FD7F0D120A097F0212EA
:1039B70066EBEF7002FF221233877F0122E4900B40
:1039C700A9F0900BA9E0FEC39404501174AE2E51D8
:1039D70095E06F6008900BA9E004F080E5E4900B98
:1039E700A8F0129766900BA9518D4002E4F0900B56
:1039F700A9E024AE5195510C700A900BA8518D4047
:103A0700E112587222E0FF3152EF22D126120F55F0
:103A1700314B120F5590963DE054FCF012B65B7196
:103A27002F120F557B017A0979B27F2C7E01120F75
:103A3700597B017A0979B212B5E4EF700651D87152
:103A47003680EE71FBF1D2900A18E0B40108900AB3
:103A5700F87403F08012900A1EE0900AF8B401058A
:103A67007402F08003740CF0900AF8510C70047F14
:103A77000C517B22900BD1EFF03152EF7007900B76
:103A8700D1E0FF31C422E004F0E0C3940422F582C0
:103A9700E43409F58322120A097FE87E03128AF8C3
:103AA70011071277D1E4FF121042E4FF1216D31266
:103AB70077CA7F01900BECEFF012C8DB12C8BB90FE
:103AC700988CE04401F0125808900BECE0FF02B923
:103AD70005900A1EE0900BD4F051FA900A1EEFF001
:103AE700900BD4E0700A900A1EE060047F01800208
:103AF7007F0022712F12B5E4EF7006900428E07062
:103B070021712F7F2C7E01120F599004287401F028
:103B170012B0CB900A15EFF012B83C7F147E00125A
:103B27008AF8900A15E0FF227B017A0A7919229018
:103B37000A18E0900BD5F09141900A18EFF0900B1E
:103B4700D5E0700A900A18E060047F0180027F00C8
:103B570022900A17E0900BD6F0717A900A17EFF0CF
:103B6700900BD6E0700A900A17E060047F0180028C
:103B77007F0022D310AF01C3C0D09006A0E0FF643E
:103B870006600EEF64056009EF640760047F00803C
:103B970053900AF8E0B40416909901C083C082E0FC
:103BA700FFA3E04404D082D083CFF0A3EFF071F0FD
:103BB700E06F600B900AAAD19571F0EFF080239027
:103BC7000AAAE07002A3E07019900AAA04F0A3748D
:103BD700F4F0121886121A8F9006A07408F07F006E
:103BE70080027F01D0D092AF227F0C7EA3128C84FB
:103BF700900AA722900A1FE0900BD7F01258A290C4
:103C07000A1FEFF0900BD7E0700A900A1FE06004DC
:103C17007F0180027F0022717AEF7002FF22120F6C
:103C2700BC1200221209ED7F071218157F09121026
:103C3700427F0291ACD1117F012290960BE0441094
:103C4700F090960EE054EFF0A3E054EFF090960C4E
:103C5700E054EFF01257CD909609E030E40BE49072
:103C67000A18F0900A16F08014900A16E0C394140C
:103C77005005E004F08006900A187401F0900A18C5
:103C8700E0FF229141EF7002FF221209ED7F03123C
:103C97001815E4FD7F0C120A09F1D97FC0121042F2
:103CA700D19D7F0122EFB401129009D3B11F900972
:103CB700D1B12CB1137A06797D804BEFB4023790DE
:103CC7000A10B11F900A0EE0FFA3E0900845CFF05D
:103CD700A3EFF0900A121285DD9008491285E6904D
:103CE7000A0B1285DD9008001285E6900A08B113C9
:103CF7007A07790480109009CCB11F9009CAB12CBA
:103D0700B1137A07792490085E0285E61285DD9063
:103D170007F51285E67BFF22E0FFA3E0900847CF77
:103D2700F0A3EFF022E0FFA3E0900845CFF0A3EF68
:103D3700F09009D51285DD9008491285E69009CEE5
:103D47001285DD9008001285E69009C7229009A325
:103D57007401F0900995F01242A012B946F1D9F119
:103D6700B71210031226FBEF600D90099D7401F046
:103D7700112412B988800F900A1FE0700490099DE2
:103D8700F0112412B946D1A612200D1242AC12B975
:103D97008812434F12B9887D207F0F12B9881243CA
:103DA700AE12B9887D017F2012B9467D017F2112AD
:103DB700B9887D017F1E12B9887D017F1D12B94622
:103DC7007D027F2012B9467D027F2112B9887D02CC
:103DD7007F1E12B9887D027F1D12B9467D807F0242
:103DE70012B9467D807F0312B9887D807F0512B99D
:103DF700467D807F0602B9469005BFE0B40508A35B
:103E0700E0B4AC037F01227F0022121AA2E49007DC
:103E1700EDF0900780F09007EFF090079FF0227B7E
:103E2700017A0679F4229006FDE0B402091221D343
:103E370012DB79EF60037F012212BD13EF700DD102
:103E47002612B5E4EF7F0160417F0022D1267F1063
:103E57007E27120F599003E7E06401702B1266C9A1
:103E67004E70129006FDF0900BAEE064096003748B
:103E770008F07F0022900403E0FEA3E0FF90040E09
:103E8700E0FCA3E0FD12CDA07F0122900AB57401EA
:103E9700F0A374F4F022F143D1B1D1A602200D7B37
:103EA700017A0679DC7D0122D1BC121003E4900A65
:103EB700FAF02280F39009C5F11D900BAAEEF0A34A
:103EC700EFF09009D8F11DAD07AC06900BAAE0FE04
:103ED700A3E0FF1227587B017A0679DD7D010220D6
:103EE7000DD1F8D1AF900ADAF0D1A612200D7F01DB
:103EF70022121AA2121FB512C7F712C8187F03128F
:103F070065E79003E912667BFF7EAC126425D1BC9E
:103F170012100302CEB8E0FEA3E0FF900AF9E075A5
:103F2700F0029008941285D1E493FC740193FD127A
:103F370085EFE47BE77A03F9F8028358900AF9E002
:103F4700FFAE07EE90098393FDFFAE071217AFEEA2
:103F5700543FFEED543FFD121617600A9009DEEE3E
:103F6700F0A3EDF0800F1213F6602E9009E7EEF044
:103F77009009EAEDF0909C48E020E20B909C41E02C
:103F8700543F6E6002EEF0909C48E020E60B909C58
:103F970042E0543F6D6002EDF00216B61209ED7F64
:103FA7000C121815E4FD7F0B120A09B1547F012288
:103FB7007F24121042900AF9E0FFAE07EE9009A4A1
:103FC70093FDFF8085E4FDFF020E8AE4FD7F1C025E
:103FD7000A097D017F2612B9887D017F2712B988DA
:103FE7007D017F2912B9887D017F2A12B9467D029A
:103FF7007F2612B9887D027F2712B9887D027F2923
:1040070012B9887D027F2A02B946900B76EFF0A39A
:104017007401F0129766909C46E054F0900B78F08C
:10402700E0FF900B77E0FEEF4EA3F0900B76E0B445
:10403700010BEEB40707900B78E04408F0900B787B
:10404700E0909C461214AF900B77E004F0E0C39425
:104057000840C02211117B017A0979E07FB87E0BF5
:1040670022900B7CEFF030E60231C9900B7CE0FF29
:1040770030E70231C1EF30E606909C41743FF09083
:104087000B7CE030E706909C42743FF0900B7CE09D
:10409700FF30E60231B9EF30E70231B11212179063
:1040A7000B7CE0FF30E60231A9EF30E702314C121A
:1040B70012179009DCE06444601A900B7CE0FF3033
:1040C700E607909C48E054FBF0EF30E707909C48E8
:1040D700E054BFF01214B031ED5004AF06800090E9
:1040E7000B7DEFF0A3743FF0900B7DE0FFA3E0D3CF
:1040F7009F403731E5FF900B7EE0FEC39F400C9059
:104107000B7CE030E605909C41EEF031DD9F400FDF
:10411700900B7CE030E708900B7EE0909C42F01219
:104127001217900B7EE014F080BE900B7CE0FF30FE
:10413700E6033144F0EF30E70331D5F0229009E789
:10414700E0909C4122909C4FE04420F022900BCCC1
:10415700EFF01217AF900BCCE0FF30E60231C9EF5A
:1041670030E70231C1900BCCE030E60231B9900B59
:10417700CCE030E70231B1121217900BCCE0FF30E0
:10418700E60231A9EF30E702314C121217900BCC3F
:10419700E0FF30E6033144F0EF30E70331D5F002BA
:1041A70016B6909C4FE04440F022909C49E04410A2
:1041B700F022909C49E04402F022909C4CE0440895
:1041C700F022909C4CE04404F022909C41F090092E
:1041D700EAE0909C42229009EAE0FFEEC3221297A0
:1041E700669009E7E0229009EAE0FF9009E7E0FE20
:1041F700C39F2212178BFFBF4402805C1213FD601E
:104207000251621216177005E05412603F1216171A
:10421700600B1217945004AF06800A800831ED50E6
:1042270004AF068000900BCBEFF0900BCBE0C3946C
:104237003F5017129766900BCBE004F0E0543F9085
:104247009C41F0A3F012142E80E0518D12178D645B
:10425700446005E0444451680216B6909C01E0446E
:1042670003F07F507E0002121B120FBC31FAE4FFED
:1042770012104251A012B98851AC12B946714F5170
:104287009671AE02B988909C41743FF0A3F0221258
:10429700B9467D207F0F02B9467D807F0C12B94653
:1042A7007D807F0A227D017F0512B9467D017F0649
:1042B700227D017F0512B9887D017F0612B9887DAD
:1042C700017F0212B9887D017F0312B9467D017F04
:1042D7000112B9467D207F0E51967D207F0B12B9C2
:1042E700887D207F0C12B9467D207F0A02B988900D
:1042F7000BDFEFF0120E06120F557B017A09790CCE
:10430700120F55712FF0E4A3F090090404F07E001A
:104317007F057D00FB7A0979051287C651B8120E11
:104327008690091B7401F0229006FFE0900915F0B2
:10433700900700E0900913F09006FDE0900914F053
:10434700900AF9E090091C227D017F0212B9887D4D
:10435700017F0312B9467D027F0512B9467D027FB0
:104367000612B9467D027F0212B9887D027F0312C9
:10437700B9467D027F0112B988E4FDFF12296B7DE2
:10438700047F0512B9467D047F0612B9467D047F76
:104397000212B9887D047F0312B9467D047F01129A
:1043A700B9887D207F0E227D207F0B12B9887D2062
:1043B7007F0C12B9467D207F0A12B9467D047F2003
:1043C70012B9467D047F2112B9467D047F1D12B9BB
:1043D700887D047F1E12B9467D047F1C12B9887D33
:1043E700207F2012B9467D207F2112B9467D207F8C
:1043F7001D12B9887D207F1E12B9467D207F1C12B1
:10440700B9887D407F2012B9467D407F2112B94689
:104417007D407F1D12B9887D407F1E12B9467D40C1
:104427007F1C22EF909C50B40105E054FCF022E081
:104437004402F0E054FEF0221217AF9009DDE05479
:1044470012702E909C49E030E1029199909C49E0CE
:1044570030E4029191121217909C49E030E104E098
:1044670054FDF0909C49E030E404E054EFF0121260
:1044770017909C4CE030E204E054FBF0909C4CE039
:1044870030E304E054F7F00216B6909C4FE054DF97
:10449700F022909C4FE054BFF0221217AF909C007F
:1044A700E4F091D974A3F0909C007480F090964149
:1044B7007420F07D037F1D12B9467D037F1E12B95C
:1044C700887D047F1D12B9887D047F1E12B94602BC
:1044D70016B6909C057442F0A322907FDFE49354B4
:1044E7003FFF900BA4E4F0A3EFF0900BA4B1B194BD
:1044F70024EE94004009D3EF942CEE9400400990E9
:104507000BA4E4F0A37428F0E4FDFF12B0157E00BD
:104517007C0C7D1C1285EFC006C007900BA4E0FE43
:10452700A3E0FBAA06E4F9F8D007D006128358C324
:10453700EF94B8EE940B50067E0B7FB8800DD3EF47
:1045470094F8EE941140047E117FF822B195120F72
:10455700557B017A097990120F55900980E0700216
:10456700A3E06025126D7C9009821284DFC000C031
:1045770001C002C00391E1E4FCFDD003D002D001E9
:10458700D00012778AF1D180D17F010222907B017E
:104597007A09797B22B19512B5E4EF600CB1957F6A
:1045A70032120F57E4FF12229022E0FEA3E0FFC36E
:1045B70022900ABBEEF0A3EFF0900ABF1285E6E463
:1045C700900ABDF0A3F0900ABBB1B1900ABEE09F7C
:1045D700900ABDE09E5015900ABFF1CBFF1200E292
:1045E700900AC0B1F4900ABDB1F480DA22E475F004
:1045F700010281D7D1CF900A311285E6D1C3E4C336
:104607009F900A36F0603ED1C9900A36E0FF900AC3
:104617007FE4D1BF122F26900A2D1284DF900A362D
:10462700122DB81282B2D1CF900A36E0FF7E0090E9
:104637000A32EE8FF01281D7C3900A35E09FF090CF
:104647000A34E09EF0C3900A34E094014045E490B8
:104657000A37F0A3F0900A34E0FFC3900A38E09FCE
:10466700900A37E09400502BD1C3D1C9900A7F74C8
:1046770001F0A3E4F0122F26D1C3E42F1266ADD1C7
:10468700CF900A32740175F0001281D7900A37B1C2
:10469700F480C27E00900A34A3E0FF900A34EEF063
:1046A700A3EFF06012D1C9900A34E0FFA3E0900AAB
:1046B7007FCFD1BF122F2622F0A3EFF0900A2D0251
:1046C70084D3900A310285DD900A2D028570900A05
:1046D70045128570900A491285E6E4900A4EF0A3C8
:1046E700F07F0B122F70900A45F1D87FFF1200E27E
:1046F700900A4CB1B1900A4FE09F900A4EE09E504D
:1047070015120026900A491285DD900A4EF1BF90D6
:104717000A4EB1F480DA8022900A54E475F001124F
:1047270005321280F6FF1200E2900A54E475F00198
:104737001205321280F6FF1200E290960AE0440852
:10474700F022900A5B128570900A5F1285E6E4906A
:104757000A64F0A3F07F0B122F70900A5BF1BA7F07
:10476700FF1200E2900A62B1B1900A65E09F900AD9
:1047770064E09E5015120026900A5F1285DD900AAC
:1047870064F1BF900A64B1F480DA80AE900AFC123B
:1047970085707F43122F6AF141900B00E0FF122FC3
:1047A70070900B00E064C76005900AFCF1BAF14114
:1047B700022FA61284D3801CE0FCA3E0F5828C8331
:1047C700EF02814E1285DD0280F67F057E00028AA8
:1047D700F81284D3900B4E128570900B4FE0FF12A6
:1047E70000E2900B50E0FF1200E2900B51E0FF0255
:1047F70000E2909801E0FDEF543FFCED5CF0EF30F4
:10480700E50A111490B100E054BE11C32290B00024
:1048170074FFF02290988AE04430F090988CE0542E
:10482700FAF01114909804E0B4170890B0077403D5
:10483700F08009907FC0E49390B007F090B000E457
:104847001217ED4E6007111490B00811C07D027F5A
:104857000712B9887D027F0512B98890B009E02058
:10486700E156111490B00911C0F50AF50B050BE5D7
:104877000B7002050A640A450A70F2E4F50AF50BA3
:1048870090B004E030E01F90B004E030E102801106
:10489700050BE50B7002050AD39440E50A941F4007
:1048A700DFE4FF02BA9A90B004E020E0DAE020E10A
:1048B700D6E4FF12BA9AF1BE22E04402F090B000AB
:1048C700E4F022900BEDEFF012B957900BEDE0FFFB
:1048D7007009111411F0E04404800BEFB4010911C1
:1048E7001411F0E0440811C32290B009E054F3F02A
:1048F7002212BA95111490B100E0444180BE111400
:10490700A3E054FBF090B100E054BE80AF90B00933
:10491700E020E00A111490B009E0440111C322908D
:104927000BEE7414F0F19A3174F0E0700D900BEE09
:10493700E0FF14F0EF70F63174F0909800E054FE49
:10494700F0F1B66005EF6420701A316CBF0404E41F
:10495700FF8007316CBF08047F0111CA7F0112C0B5
:104967006B12C00E2290B009E0540CFF22909803FE
:10497700E09006D822E490094EF0715FF1A0511241
:10498700120F55E4FF11CAE4FF12C06B12C00E905C
:10499700961DE054DFF0A3E04420F0909620E04419
:1049A70020F0A3E04420F090961CE054EF510A90C9
:1049B700961D122961909620E04440122964909632
:1049C7001C12769F128AF8909602E054FBF0A3E03F
:1049D7004404F0909605E04404F0A3E044047166B3
:1049E700510A909602E054FDF0A3E04402F090963D
:1049F70005E04402F0A3E04402F0F1067F027E00E6
:104A0700028AF8F07F027E00028AF87B017A097930
:104A17005922715F12B5E4EF7002FF22715F7F05C3
:104A2700120F577177900BDEEFF090094EE024FEDE
:104A37006054147002610C240360026150900BDE15
:104A4700E0F47019B170E054BF7166F0E054FDF006
:104A5700511212B5E4EF6002D1FE7F0022900BDE07
:104A6700E0900943F0640C6004E0B4150871587FC6
:104A7700B87E0B800671587FF47E01120F5990099A
:104A87004E7402F06155B184EF511270087FD07EE9
:104A970007FDFC8002F11112B5B2B1786038E490DD
:104AA700094EF0EE64016023EE24FE6013146014D7
:104AB7001460152404701490961CE054BFF0800B0A
:104AC700B1708007F10680037167F0716E2467F596
:104AD70082E43409806D715812B5E4EF6070900973
:104AE70043E07158B424067FE87E0380047F2C7E60
:104AF70001120F5990094E7403F0716E2468F58204
:104B0700E43409803EB1786013E490094EF0EE2555
:104B1700E025E0246AF582E434098027715812B54C
:104B2700E4EF602A900943E07158B424067FE87ED9
:104B37000380047F2C7E01120F59716E2469F58260
:104B4700E43409F583E493FF22E490094EF07F00F3
:104B5700227B017A097944227B017A09794F22F075
:104B6700909601E054FB22900943E025E025E022DE
:104B770012C032EF6017123E92900BB27401F0E44C
:104B8700A3F012C03E90094A128570801A12C01E07
:104B9700EF600D123E92E4900BB2F0A304F0800791
:104BA700E4900BB2F0A3F0900BB2E0FF7006A3E025
:104BB7007002A13CEF6005E4900942F0900942E0E1
:104BC700C394055003E004F0900942E075F046A451
:104BD700FFAEF0E4FCFD7B017A09795412B5B2907F
:104BE700094BE0FF90094AE02FFFE433FEEFF44E54
:104BF7006002A13490094CE0647F707BA3E064807D
:104C07007075900941F0B162941C4002A134EF2500
:104C1700E024D6F582E43408F583E493FE7401B109
:104C2700696E7003A3E06F704A900AF8E0640C7035
:104C370039B184EF6034900941E024FE60131460B9
:104C47001914601F2404702290961CE04440F080E1
:104C57001990961CE04420F08010909601E04402E1
:104C6700F08007909601E04404F0909601E04440FC
:104C7700F0A148B15B808F90094CE0F4701FA3E06E
:104C8700701B900941F0B162941C4002A134EF906F
:104C9700090EB169B50702A148B15B80E990094CDB
:104CA700E0FE64BF703EA3E0703A900941F0B16244
:104CB700940C500FEF90092AB169B50702A148B1CA
:104CC7005B80EB900941740CF0B162941C505EEF6D
:104CD70090092AB169B50708900941E02409804580
:104CE700B15B80E5EE64FD704490094DE0640270AD
:104CF7003C900941F0B162940C500FEF900946B116
:104D070069B50702803BB15B80EB900941740CF0F9
:104D1700B16294215017EF900946B169B5070A901F
:104D27000941E02412F0E0FF22B15B80E3900941E2
:104D370074FFF0FF227B017A09795412B5E4EF7012
:104D470006900941E0FF2290094A12857C00000085
:104D5700007FFF22900941E004F022900941E0FF23
:104D6700C32293FF90094AE02290961CE054DFF09B
:104D770022900BDEE0FF900943E0FE6F22900A24A9
:104D8700E0FF22900AC9EFF0BF5822900A21E0C342
:104D970094024002E4F0900A21E004F0E0B4010D2F
:104DA7007B017A0A79CA7FF47E01120F59D116EF77
:104DB700700E900A21E0B40107E4900AC9F0804917
:104DC700D116EF7014900A21E0B4020D900AC9744D
:104DD70067F0E4900A21F08030D116EF602B900A3B
:104DE70021E064017023900AC97458F0E4900A2105
:104DF700F0B184EF6013E4FD7F1E122726B40C097F
:104E07001225F0EF7003121003900AC9E0FF227B0E
:104E1700017A0A79CA02B5E4E4900BDCF06002C1BA
:104E2700F85119900BDCEFF0900AF8E0B40C0C90F5
:104E37000BDCE0FFB18A900BDCEFF0900A24E0FF77
:104E4700700A900BDCE064646002E4F0900BDCE035
:104E570064647025EF6007E4900A24F08006900AE6
:104E6700247401F0D1FEF1A7900AFAE06004E4FD92
:104E770080027D017F1D120A09900BDCE0FF64644C
:104E87006065EF60626412605EEF64136059EFB4AF
:104E97001410E4FD7F1E120A09E4FD7F01120FC002
:104EA7008045900AF8E0B40C1C900BDCE0FF64121C
:104EB7006025EF64136020EF6459601BEF6458604E
:104EC70016E4FD800D900BDCE0B40104E4FD8002E4
:104ED7007D017F1E120A09900AF8E0B40C09122519
:104EE700F0EF7003121003900BDCE0B45A0374590F
:104EF700F0900BDCE0FF22909601E054BFF0229087
:104F07009601E054FDF02274C7F07F007E007D001B
:104F17007C0022317CF1AE12258FFFFEFDFC02B52D
:104F2700B2900BE9EF510A900BE9E0FD7F007EA3F9
:104F3700028F80900BB6E0B40308900B00F10E02CD
:104F47004793900BB6E0B40108900B0AF10E122FAD
:104F57008F22900B9D1285E67FFF7EB07DB77CE1A7
:104F670090B1061222894018F19312B5E4EF70054B
:104F770012976680F3F111F1907F2C7E01120F5981
:104F8700900B9D1285DD02AFD212B7087B017A0B19
:104F9700792922908000E49322FFFEFDFC02B5B23E
:104FA7007FF47E01028AF8E4900A22F0A3F02290AF
:104FB70006D8E0FF640822D310AF01C3C0D012BAED
:104FC700A280FE90B004E030E016900B7FE004F082
:104FD700E0B40A06900B817401F0E4900B80F02294
:104FE700900B80E004F0E0B40A03E4A3F0E4900B34
:104FF7007FF022900AEE1285E6900AED51B9EFD3C1
:1050070094955007900AEE51B270037F0022900AE0
:10501700F1E0FF900AED51CC400774969D900AF19C
:10502700F0E4900BA6F0900AF151C25018900AEDE7
:10503700E02EFFA3514C1280F6FD12BA06900BA684
:10504700E004F080E1E4900BA7F07F0122900AF3DF
:105057001285E6900AF251B9EFD394955007900A5A
:10506700F351B270037F0022900AF6E0FF900AF234
:1050770051CC400774969D900AF6F0E4900BA6F089
:10508700900AF651C2501A900AF2E02EFF12BFF4AE
:10509700900AF3514CEF12813C900BA6E004F0808C
:1050A700DF80A25106AB079006D8E020E05C9006AF
:1050B700DBE0645A70549006F2E06B704D9006D8AE
:1050C700F09006DCE0900AF831E640037419F031FD
:1050D700B94002E4F031B14002E4F031F5900AF84A
:1050E700E0FAB4010931CD31A89006E4800BEAB4A7
:1050F700020E31C131A89006EE51F5E4900702F097
:10510700127780500221A7E4F0227E007F1A7D00EB
:105117007B017A0679D91287C67A0679DB7B0190FB
:105127000AF67418F0E4FF11545106AB079006DB3A
:10513700E0B45A079006F2E06F601E900A6F7401A0
:10514700F0E49006D9F0A3F0A3745AF0A37401F029
:1051570031D9F0A37419F08044900A6F7401F0F10B
:10516700B9900AF8EF31E640037419F031B94002FB
:10517700E4F031B14002E4F031D9E0FBB4010C9026
:1051870006DEE0900702F031CD800EEBB4020C9002
:1051970006E8E0900702F031C131A831F51220C6C8
:1051A700221284D390074B0285709006DAE0C394ED
:1051B70005229006D9E0C3940B229006EDE0900AF1
:1051C70073F09006E9229006E3E0900A73F09006E8
:1051D700DF22E49006DEF09006E8F0900AF822F06D
:1051E7009006DDE0543F900AF9F0D3942022900610
:1051F700D9E0900700F09006DAE09006FFF0227BF6
:10520700017A0679DB7D17900B4A1285E6900B4DE4
:10521700EDF0E4FE900B4DE0FD14F0ED6024900BF3
:105227004A514C1280F66EFEE4FFEFC3940850E437
:10523700EE30E007C313648CFE8004EEC313FE0F49
:1052470080E8AF0622E475F001020532900A72E0A9
:105257007052900006E064017021129FB8129FDF20
:105267009006DF122A54703C51AC7D0B510E90060C
:10527700E3E06F702F900A7204F022900006E0645A
:10528700027021129FB8129FDF9006E9122A54700C
:105297001351AC7D0B510E9006EDE0B50706900A51
:1052A700727401F0229003D80285DD1285DDE94A88
:1052B7004B22EFF0900BA77401F022E0FF900BA6B2
:1052C700E0FEC39F22E0FD2FFFE433FED3EF949669
:1052D700EE6480948022900AF8E0FBB40105900602
:1052E700E48007EBB402059006EE51F521F5128430
:1052F700D39003F302857051AC90000812810F9090
:105307000B36F090000912810F900B37F090000ACE
:1053170012810F900B38F0900B36E0B44D10A3E0DC
:10532700B4500BA3E0B43306A37401F08005E490F6
:105337000B39F0900BAFE07008900B39E060025129
:1053470053900B39E0FF22E4900BBFF0900BBEF0B7
:105357009000181284D3E4900643F0A304F012C619
:105367008612CF4F9000181284D39003DC128570F9
:10537700129766129D6A900BD9EFF090002CF1B14D
:10538700FD7BFE7AFFF9F8C31283F85002819790EC
:1053970003DBE0700312D7F2900BD9E0147002819F
:1053A7004224FC7002814B240570C551FEEF604515
:1053B70090002C1245F490002E1245F4900A72E0EA
:1053C700B40132900A74E07002A3E07028919A90B9
:1053D7000A74CFF0A3EFF090002EE0FFA3E0900A4D
:1053E70076CFF0A3EFF0900030E0FFA3E0900A70D3
:1053F700CFF0A3EFF0900030E07004A3E064016009
:10540700026177900869E064017002617751ACE945
:105417002408F9E43AA801FCAD037BFF7A0079067A
:105427007E007F031287A2EF60026177900869040C
:10543700F0FB7A08796A12983B6177900032E4753D
:10544700F001804712D90C900030E07004A3E064AB
:1054570001700A919A900036CFF0A3EFF012DB9B10
:1054670012DCACEF70037F01229000301245F4E4A8
:10547700900032F0A3F090002EF0A3F012D711EFB6
:105487006002617790003074FFF5F01281D7617781
:105497007F012290002CE0FFA3E022900A81128571
:1054A70070900A851285E6900A8551B2604E900A7F
:1054B70088122F076046900A851285DDC3EA940F8C
:1054C70040167E00EF5403FF600E74049FFFE49EB6
:1054D700900A888FF01281D7900BB6E0B4030CB115
:1054E7000F900A4CB1041246D58011900BB6E0B468
:1054F700010AB10F900A62B10412474922CFF0A303
:10550700EFF0900A810284D3900A851285DD900A14
:1055170088E0FFA3E022AB07AA06900B91EDF0A36A
:10552700E4F0A304F0EDD3940240037F0022900B34
:1055370091E0F9701B9008A3D18D40037F00229062
:1055470008A5E02BFEE43A900B92F0A3CEF080384A
:10555700E9640170219008A4D18D40037F00229057
:1055670008A5E02BFFE43AFE9008A3F1D4900B9234
:10557700F0A3EFF080129008A5D18D40037F0022A1
:10558700900B92EAF0A3EBF09008BAEBF0A3E9F0E6
:105597009008CC12857C00000000900B93D1A4FFEB
:1055A700900B92D19C2410FFE43EFEE4FCFD7A08A8
:1055B70079BC7B01900A88F0A37410F091A2900B3C
:1055C70091E06002C18A74FFFFFEFDFC9008C012E3
:1055D7002A54700D9008C012857C000000007F00DF
:1055E700227E007F2F7D00D1AC1287C67E007F040C
:1055F7007D307B017A0879791287C6787D7C087DB2
:10560700017B017A0879C47E007F041280D07881FB
:105617007C087D017B017A0879C97E007F031280AF
:10562700D0D196900895128570D196EF24FF126617
:10563700ADF1BF1283589008891285709008A2D1E6
:10564700A4FF9008A1D19C2420FFE43EFEAB07FAFB
:10565700E4F9F89008BC123799E4FB7A02F8128350
:10566700589008851285709008851284D390088D0C
:1056770012857090089112857C00000000900884C4
:105687007401F07F0122E0FFD3EB9FEA94002290A0
:1056970008C00284D3E0C454F048FEEF22E0C4F807
:1056A700540FC868227B017A08796A22E4FF9000C8
:1056B70006E0B4030CD1DDFF1273937F01D080D0D5
:1056C70080900006E0B4040DD1DDFFE4FDB11D7F3D
:1056D70001D080D08022900516E0FEA3E0227E0054
:1056E7007F377D00F141900BB6E07002FF227A0808
:1056F70079997B01900A88E4F0A37420124F1091E6
:10570700A27FFE7E017DAA7C55900899122A5470CB
:10571700079008B904F0800BE49008B9F0FE7F20E9
:10572700FDF1419008A1E0FFA3E090002CCFF0A38A
:10573700EFF090074A7401F0FF227B017A0879990C
:105747000287C6900AD112857C0000000012B8F1CA
:10575700124F3AD1AC12DB79EF704CD1AC90047F89
:10576700126762FD7C0F12A02A900ACFF1C6700261
:1057770080357B017A0F7900900ACFE0FFA3E09094
:105787000A91CFF0A3EFF0900AD11284D3126D35AE
:10579700900AD11284DF900ACFF1B1FD1282B2A331
:1057A700128570F1CD80AC02B8CCE0FEA3E0FFE437
:1057B700FC229006DCE0FF22E4FB7A02F9F822EEF5
:1057C700F0A3EFF04E227F0A7E00029001E07C00FA
:1057D7002FFFEC3E22D310AF01C3C0D051BB12BA8A
:1057E70006E4900BA7F0D0D092AF22D310AF01C33D
:1057F700C0D051BB12BFF4E4900BA7F0D0D092AF4A
:1058070022909904E054FEF090980DE054FEF0E0E9
:10581700440EF02290B004E030E3F990980DE05484
:10582700F1F0E04401F090981FE030E0F99099041E
:10583700E04401F022A2AFE433900BCDF0C2AF9069
:1058470005FE1284D3900611122DCE9005FB12850A
:10585700DD1284959005FB123789E412814E900B77
:10586700CDE024FF92AFD080D08022E4FF1218153C
:10587700E4FF1210427D087F2012B9467D087F2180
:1058870012B9887D087F1D12B9887D087F1E12B95D
:10589700467D087F1C12B9887F0122909629E05423
:1058A700FBF0A3E054FBF0909627E054FBF09096B2
:1058B70026E04404F07F027E00129001909624E0D7
:1058C70030E207E4900A1FF08006900A1F7401F087
:1058D700900A1FE0FF22E4FDFCFFFE022758900715
:1058E700F8E06421701AA3E0B40115A3E07011A3D6
:1058F700E0B4010C900861E0B4010280D9023EBA1D
:105907009007F8E06421702BA3E0640170259007ED
:10591700FBE06402701D9007FAE0900862B401078B
:1059270051109009C5800551109009D8F0A3EFF0E8
:10593700023EBC9007F8E0B4A110A3E0B4820B903C
:1059470007FBE0B402047D0280789007F8E0B4A179
:1059570014A3E0B4830F9007FBE0B402087D027F35
:10596700E77E03410D9007F8E0B4A114A3E0B484E7
:105977000F9007FBE0B402087D027F017E00410D16
:105987009007F8E064A17025A3E06481701F900779
:10599700FBE0B402189007FAE0B401059009C5804E
:1059A700039009D8E0FEA3E0FF7D0280599007F835
:1059B700E0B4A113A3E0B4810E9007FBE0B40107A4
:1059C7007D01E4FFFE803F9007F8E0B4A10CA3E05F
:1059D700B4FE077D01E4FFFE802C9007F8E0B4A138
:1059E70013A3E0B4810E9007FBE0B40A077D01E43E
:1059F700FFFE80129007F8E0B4800D9007FEE0608C
:105A0700077D01E4FFFEB1ED22E0547FFE900861BF
:105A1700E07C002400FFEC3E22E4900AB1F0D08045
:105A2700D080FE7F08FD7B017A0579BF1287C6917A
:105A37001CA37408F07B017A02792C9004B1E471FD
:105A4700F6700A71ED700671ED7002FF2290022C5C
:105A5700E0FF900AADF0900233E0900AACF0D3EF8C
:105A67009400748094814003E4A3F012BDF790067C
:105A7700A17427F0A37410F012CA15EF7002FF2269
:105A8700911C900AACE0900398F09104EF71FA70C2
:105A970002FF2290023CE0900AB2F0900235E0FE4D
:105AA70090023451179005BFF0A3EFF0900237E052
:105AB700FE900236E02400FFEC3E9005C191F37A98
:105AC70002792C910F740991247002FF2290022E03
:105AD700E0900AADF0D39400748094814002E4F022
