:10000000020413E1FB4D564600223202677F0001D5
:100010000203220267BA22021FF02280ED02255F4E
:1000200022223280FDE4C3FA90960AE04401F054A3
:10003000FEF0909609E0A2E2E492E02A23FA90967C
:100040000AE04401F054FEF0909609E0A2E2E49246
:10005000E02A23FA90960AE04401F054FEF09096CC
:1000600009E0A2E2E492E02A23FA90960AE0440131
:10007000F054FEF0909609E0A2E2E492E02A23FA1E
:1000800090960AE04401F054FEF0909609E0A2E256
:10009000E492E02A23FA90960AE04401F054FEF03C
:1000A000909609E0A2E2E492E02A23FA90960AE010
:1000B0004401F054FEF0909609E0A2E2E492E02AB6
:1000C00023FA90960AE04401F054FEF0909609E07D
:1000D000A2E2E492E02AFA90960AE04401F0EAFFF4
:1000E000227808EF33FF90960AE092E154FEF090F8
:1000F000960AE04401F0D8EB229003F30284D32265
:100100000000220000220000220000220000220045
:100110000022000022000022000022000022000035
:100120002200002200002200002200002200002203
:100130000000220000220000220000220000220015
:100140000022000022026D45000022000022000073
:100150002202553D02581C02585B0000220000227A
:100160000000220000220000220223D5000022000D
:100170000022000022000022000022000022025A79
:100180008B00002202739B00002200002202556EA9
:10019000000022000022027215000022000022004E
:1001A00000220000220000220000220000220000A5
:1001B0002200002200002200002200002200002273
:1001C0000000220000220000220000220000220085
:1001D0000022000022024F8B027202026CA602581B
:1001E000A80261FC0000220000220271C602522C0B
:1001F0000000220000220000220000220000220055
:100200000022000022000022000022000022000044
:100210002200002200002200002200002200002212
:10022000000022000022026551023002000022007C
:100230000022000022000022000022000022000014
:10024000220259C9000022000022000022000022E0
:10025000000022000022410AB400410AAE00420A16
:10026000AF0000420AB10000410AB3004109D800C2
:100270004109D7004109E3004109D500410B7B0149
:10028000410B7900410B7A00410BA100420A0B009F
:1002900000420A090000430A0DFF0600430A06FF58
:1002A000060F430A03FF061E4109CD004209D30091
:1002B000004409C30C020307410A3D00410A3E0005
:1002C000410A3700410A3600410A3400410A35002C
:1002D0004209BC00004209BA01064209B5000042C9
:1002E00009B301084309BEFF062C4309B7FF063BCB
:1002F0004309B0FF06484209AE00634209C10063EA
:10030000410BA601410BA702410BA9004107610067
:1003100041075F0041076200410773004406F9FF8F
:10032000FFFFFF4106F30041098F014409820000ED
:100330000000420980006444098B00000000410A6B
:100340006D00420A6E0000420A700000420A6A0014
:1003500000410A6C00410A6900410A1900420A1171
:100360000000410A1A00410A1B00410A1301410A18
:100370001000410941FF41094200410943FF45097D
:1003800005000000000041091B00410BB1024108BB
:100390006900410902004109030041099B0041092C
:1003A0009C00410BB300410BB20152084C120110EA
:1003B0000100000040000002021000010203014C95
:1003C000079300000008001DC3FF03000200480758
:1003D00081001DC3FF000002004C07740B000008E1
:1003E00000020000000002004D07E0555342530890
:1003F00070BA840000000000420BB603E8410AA175
:1004000000420AA401F4410A9E00410BB901410BCC
:10041000B80100125109787FE4F6D8FD126759EF50
:10042000FD9006D96003A3DFFD7F277E11C3EF9DFA
:10043000FF50011EE4F0A3DFFCDEFA75810B1251C0
:10044000BE02047F021D79E493A3F8E493A3400362
:10045000F68001F208DFF48029E493A3F85407241E
:100460000CC8C333C4540F4420C8834004F45680DE
:100470000146F6DFE4800B01020408102040809062
:100480000256E47E019360BCA3FF543F30E509545B
:100490001FFEE493A360010ECF54C025E060A84086
:1004A000B8E493A3FAE493A3F8E493A3C8C582C87D
:1004B000CAC583CAF0A3C8C582C8CAC583CADFE952
:1004C000DEE780BEBB0111F8E58229F582E5833ABB
:1004D000F583E0C828F0E8225009C58229F8C582D2
:1004E00026C622BBFE0DC58229F8E2C5822582F20E
:1004F000E58222EA2583F583E99322BB010FF8E523
:100500008229F582E5833AF583E028F0225009C577
:100510008229F8E58226F622BBFE09C58229F8E287
:100520002582F222F8EA2583F583E9932822F8E070
:10053000FBA3A3E0F925F0F0E58215827002158394
:10054000E0FA38F022D083D082F8E493701274017C
:1005500093700DA3A393F8740193F5828883E473D9
:100560007402936860EFA3A3A380DF555342430056
:10057000008002021F0000004D5653490000000099
:10058000436172642052656164657200000000007E
:1005900056312E3003000000700002000000000AF7
:1005A000000000003A00000000007000050000009C
:1005B000000A00000000240000000000ED030354C6
:1005C0003FFD8E838F82E090A621E0F88E838F829C
:1005D000E090A621E0FB8E838F82E090A621E0FCD4
:1005E0008E838F82E090A621E08A838982C8F0A35F
:1005F000EBF0A3ECF0A3E8F0A3AA83A982DDC32269
:100600004D5653494C49434F4E2E494E432E004DB3
:100610005620434152442052454144455200323015
:100620003131303930313132333435004D56534960
:100630004C49434F4E2E494E432E004D56205553A4
:100640004220415544494F00323031313039303148
:100650003132333435008F828E83ED7004EC600BC1
:100660001CE06455F0A3DDF902065D2246415431D9
:10067000360000000004030904090287000301009A
:1006800080FA0904000000010100000924010001B2
:10069000280001010C2402010101000203000000F6
:1006A0000A240602010101020200092403030103D6
:1006B0000002000904010000010200000904010118
:1006C0000101020000072401010101000B240201C5
:1006D0000202100144AC0009050409C00001000039
:1006E00007250101000000090402000103000000C9
:1006F00009210102000122210007058303400001B6
:100700000902200001010080FA0904000002080625
:100710005000070581024000010705020240000168
:1007200009029E0004010080FA0904000002080684
:100730005000070581024000010705020240000148
:100740000904010000010100000924010001280042
:1007500001020C24020101010002030000000A242E
:100760000602010101020200092403030103000241
:100770000009040200000102000009040201010155
:10078000020000072401010101000B240201020202
:10079000100144AC0009050409C000010000072550
:1007A0000101000000090403000103000000092109
:1007B0000102000122210007058303400001050C0E
:1007C0000901A1011500250109E909EA09B509B6E0
:1007D00009E209B309CD09B7750195088142C02E18
:1007E0002C2A2927262423211F1E1C1B12C94690B0
:1007F000060FE0900610F0227F00223222FFFFFF5A
:03080000140108D8
:1008070002407E05320007D001F4006401F400C8FD
:10081700320AC350271007D014503C140A1E140084
:1008270000000000000000000002FAFCFDFEFCFAD8
:10083700FA0202FF02FFFDFAFAFAFDFF0202FFFFCA
:100847000002020202FDFAFAFF0200FF00020201A3
:10085700FFFEFAFEFEFEFCFAFE02FE02FFFFFDFAB5
:10086700FAFAFA0202020101FFFEFEFEFDFDFDFAA1
:10087700FAFF010202020202FFFD02020202020265
:10088700FD0202FFFAFF020202020202020000005A
:100897001A001F0024002A0031003A0043004E00CE
:1008A7005B006B007D009300AD00CC00F0011A01E6
:1008B7004C018701CC021D027C02EC0370040B047F
:1008C700C20599069607C0091E0ABA0C9E0ED85A89
:1008D700A55FA05EA15DA25CA359A65BA400000072
:1008E7000000000000000000000000000000000001
:1008F70000000000000000000000000000000000F1
:1009070000000000000000EAF6E9F3E7A1F7E3A51D
:10091700BDADB5BAB9BBE6B8F2F8BFBC0000000080
:10092700000000E9EDEFFBFAF9F7F6F5F3F2F1FF56
:10093700FDFEEEE7E6E5EBEA00000000000000FA46
:10094700F9F7F3F2F1EFEEEDEBEAE9E1E5FFE7FEA8
:10095700FDFBF6F501020304E100000000000000C2
:100967000100000014640000585A590007000000F5
:100977000600000065651200666613003F3E3A36C2
:1009870033302D2A272523211F1D1B191715131156
:10099700100F0E0D0C0B0A0907060402013F3E3A21
:1009A7003633302D2A272523211F1D1B1917151410
:1009B700131211100F0E0D0C0B0A090807069006EB
:1009C700D7EFF0E01313543FFF12B8751257E890B2
:1009D70006D7E01313543F25E025E0FF1207EC90FC
:1009E7000AF17401F02274FFFFFE12B83F1257FBA1
:1009F7007F0112B8757F011207ECE4900AF1F0024B
:100A07009766900B8FEDF0900B8EEFF0641D6004EE
:100A1700E0B41E037F0022900BB0E07002FF22902B
:100A27000AF3E0900B90F012CECF126748900AF2CB
:100A3700E0B40402F1D331F4900B8EE0FF12310CD5
:100A470012319DEF600512976680F5126CFF900BCF
:100A570090E0900AF3F0900B8FE06006126D0B1296
:100A670017F27F0122E4900B82F0A3F07F0112615D
:100A7700829006FEEFF0900760E0602B9006FEE0A4
:100A870070257B017A07796E12B5E4EF6019123B86
:100A9700B2EF700E900701E07D06B401027D0712E8
:100AA7003EBBE4900760F09006FDE06406700281AB
:100AB700E5A3E01205450BDE060BEA070B6A0C0BF4
:100AC70000120B2A130BBC150C4C210C0B260C0B1C
:100AD700270C28280C28290C0B2A0C282B0BDE2C7A
:100AE7000BEA2D0BA12F0B57300C4C3C0CB6630BAC
:100AF70000650B2A6600000CE5121B855006900B5B
:100B070083121B7F9006FEE06465600281E5121F79
:100B1700C3600281E5900B83E0600281E57D017F80
:100B27001580291218294006900B82121930900659
:100B3700FEE06466600281E5900AF3E0600281E509
:100B4700900B82E0600281E57D017F16510981E506
:100B57009006FFE0B40304E4F080389006FF7403C6
:100B6700F080309006FFE0700404F08005E4900602
:100B7700FFF09006FFE0B4040B9007027401F090B9
:100B870007328008E4900702F09007301275DDF015
:100B97001268307F01126A2381E5900700E004F0B4
:100BA700E0C3940B4002E4F01263A21268307F01A5
:100BB700126A2981E5900AF4E060119006FDE0B41D
:100BC70002047D018002E4FD7F1B8004E4FD7F1A9F
:100BD700510912198081E5B1D5500281E5B1B6E41A
:100BE700FF800AB1D5500281E5B1B67F01125406E4
:100BF7007B017A07796E7FE87E03FDFC12B5B29020
:100C07000760803CB1D8500281E5B1B67F0212542B
:100C170006123BB2EF600281E5123B6F9006FD8042
:100C27001FB1D8500281E5B1B67F03125406123BBB
:100C3700B2EF600281E57D077F01123B739006FDED
:100C47007401F081E512496490002DE09F90002C1B
:100C5700E09E402E126D7E4029900702E07023909F
:100C6700072EE06E7003A3E06F6017B1B6900A110C
:100C77001275DDF0123DDF123BB2EF70057D0612F3
:100C87003EBB125535FF900A111255279FEC9E4027
:100C970011D3ED9400EC94004008D1097FE87E035E
:100CA7008006D1097F007E00F1CC123DDF802F90B6
:100CB7000869E0B40128E4900B84F09006FDE0B4E5
:100CC7000209126412900B847401F01252399008D1
:100CD700697402F0900B84E0B40103123AC91276EA
:100CE700D96016900762E0701004F0FB7A07796309
:100CF7001275BE9007737401F09006FDE0B4020C04
:100D0700900762E06006E4F0900773F0900773E0E5
:100D170060281276E012B5E4EF601F1276D9600FF3
:100D2700121E19E4FD7F1B121FDA12286F800BE4D5
:100D3700900773F01276E0121B789006FDE01460BE
:100D47001124FE600804700D123AC980081264125B
:100D570080031267329006F3E0600D126D39EF6081
:100D670007E49006F3F080279006F3E07021126DF8
:100D770039EF701B9006F304F09006FDE0B4020F04
:100D87001200F9EF2401FFE43E1237A0124E901231
:100D970000F99006F912293B60141263FE121B71C9
:100DA700400C1200F99006F9128570126830221271
:100DB7003C6912A68F9003F312857C000000001295
:100DC7003EBFE4FDFFF1D77F647E00028AF8124040
:100DD70073D390002DE0940190002CE0940022E062
:100DE70054FDF0E054DFF0E054FBF0E054BFF0E0D6
:100DF7004401F0E04410F0E4FDFFD189E4FD7F01F8
:100E0700D1897B017A09791622126B6D600D146006
:100E17002724FD24FD504524087061F14A90091DDF
:100E27007008B1E67FE87E038050F154D1847D01DC
:100E3700D1057F007E008042F14A701590091D128E
:100E47006C2054BFF07D01E4FFD1077FE87E03806B
:100E570009127643D1077F007E00801EF14A701188
:100E670090091D12762BE4FDFFD1077FE87E0380F2
:100E770009127643D1077F007E00F1CC22F07D0175
:100E8700E4FF900BAFEDF0900BAEEFF07010A3E026
:100E97007D017F01600512B988800312B946900B66
:100EA700AEE0B4010EA3E07D207F0A600302B9889B
:100EB70012B94622123DC56005EF6402704A1276E8
:100EC700D9700B90091DB1E67FF47E01803890063A
:100ED700FDE0FF64016005EF64037010F151F0124B
:100EE7006B747D01D1057F007E00801A9006FDE0BE
:100EF700600464067012F151D1847D017F01D189AC
:100F0700D1097F007E00F1CC22900AF2E0640370E1
:100F170031F14A700E90091DF0F154B1FD7FF47E56
:100F270001801DE490091DF0E054FDF0E054DF124C
:100F37006C2054BF12762B7D01E4D1007F007E0028
:100F4700F1CC22900AF4E064012290091DE054FDDF
:100F5700F0E054DFF0E054FBF0E054BFF0E054FE63
:100F6700F0E054EF22900AF2E0FF6406600AEF64B3
:100F7700076005EF64087048900AD4E0B4010B12CB
:100F87007643D1077F007E008034900AD4E0640264
:100F9700702EFDFFD189E490091DF0900AF4E090CE
:100FA700091DB4010B12762CD1097FE87E03800E50
:100FB700E04404F0E04440F0D1097FF47E01F1CC35
:100FC700227F007E007D007C0002B5B27D017F019B
:100FD700900BBEEFF0ED64017006121D5812B98830
:100FE700900BBEE0B4011C12172A900AF2E0B4037A
:100FF70005E4FF121019900AF2E0B40C0EE4FF1199
:10100700198008E4FDFCFFFE1239C2900AB474018E
:10101700F022900BC4EFF01230359009D7F0900B07
:10102700C4E0F0FF9009D8E0B50706B1F2700221DD
:1010370058900BC4E0701671D2600271EFB1EB608B
:1010470002918A71CB7002214831592148900BC413
:10105700E0FF54096036B1EB6007EF54247002914A
:101067008A71CB601FF1EA701BEF54C070169009AC
:10107700D8E0541260043159800A9009D8E054C06E
:101087006002B15971D2640960029134F1EA602DAE
:1010970071D26007EF5409700271EFB1EB600A90EB
:1010A7000BC4E054247002918A71CB600BE0541298
:1010B700FFB1F26F60023159B1F2FF510C900BC4CE
:1010C700E0FF5424601C71D26007EF54097002716D
:1010D700EF71CB600BF1EA7007EF54C07002315922
:1010E70091D2900BC4E0FF54C0605671D26007EFF5
:1010F7005409700271EFB1EB600A900BC4E05424FD
:101107007002918A71CB6006B1F27002315971CBCE
:10111700FFB412047FC0800EEFB402047F40800644
:10112700EFB410027F80EFD39400400B900BC4E024
:1011370054C06F6002B159900BC4E054C0FF12381D
:1011470030900BC4E0FF9009D8E06F6002EFF0D158
:101157008C227F01122820F1A95004AF068000904D
:101167000BC2EFF0909C41E09009E2F0909C42E0C6
:101177009009E5F0900BC2E0C394405013129766B4
:10118700900BC21276E79102900BC2E004F080E464
:10119700917D909C4FE0549F31EB31D8909C4FE06C
:1011A70054E731EB909C4CE054FCF07F147E003107
:1011B700F012001A71C2EFF47002EEF4601271C2FD
:1011C700EFF47003EE64FE6007909C48E04401F082
:1011D70022909C49E054EDF07F027E0031F0909C14
:1011E7004FE054F9F07F027E00900B9AEEF0A3EFE8
:1011F700F0900B9A126EE445F0600912976691021F
:10120700910280ED22900B73EFF0909C4E71E79066
:101217009C4DE0543F900B75F1D17002EEF46012D3
:1012270071C2EFF47003EE64FE6007909C48E054CF
:10123700FEF0909C4CE04403F0909C41E4F0A3F056
:10124700909C4FE0441831EB909C4FE0440131EB08
:10125700909C4FE0440631EB909C49E0441231EBFF
:101267007B017A0979DB7F107E27120FCC9009D595
:10127700E06002613B909C4BE020E058909C4BE083
:1012870030E0026135F1B66002613571C2EFF4708A
:1012970002EEF4600B71C2EFF47003EE64FE70228D
:1012A700900B74E01471D9909C4EE07023ED643F6D
:1012B700607C900B747440F0A3E025E0F04401F0EB
:1012C700800E900B74E014909C4EF071E7E0605E26
:1012D700F1E480A8909C4BE030E053909C4BE030C9
:1012E700E04CF1B6704871C2EFF47002EEF4600B97
:1012F70071C2EFF47003EE64FE701F900B74E0048C
:1013070071D9909C4EE0643F7020ED6021900B7482
:1013170074FFF0A3E0C313F08010900B74E0049007
:101327009C4EF071E7E0643F6004F1E480AD900902
:10133700D57401F031D8909C4FE054FE31EB127513
:10134700E9909C4FE0440631EB909C49E044123110
:10135700EB909C4FE0446031EB1200099009D7E015
:101367007003F1D7F091841239B55004AF068000AD
:10137700900B75EFF0900B74743FF0900B75E0FFD6
:10138700900B74E0D39F402A1239ADFF900B74E0A5
:10139700FEC39F4005909C41EEF01239A59F40087F
:1013A700900B74E0909C42F09102900B74E014F063
:1013B70080C99009E2E0123999F02290966BE0FE1D
:1013C700A3E0FF22909C49E0541222909C49E054EC
:1013D7000922909C4EF0900B75E0FD909C4DF0A378
:1013E700E0543F900B74F022F1C4917D909C48E04B
:1013F7004422F1A154F6F18E4411F012B8A0EFFD8A
:101407007C007E017F90128182EF2401FFE43EFE83
:10141700909904E020E00BEF7802CEC313CE13D8E7
:10142700F9FFEF1FAC0670011E4C70F622909C432B
:101437007403F0A3F1A14409F18E54EEF18E54DD4B
:10144700F0910271C2EFF47002EEF4600871C2BE4F
:10145700FE0ABFFF07909C4374028005909C43746B
:1014670001F0A3F01277277004F1D7918312771751
:101477007F507E0021F0909C48E04444F07F0A7E34
:101487000021F0F1A95004AF068000900BC1EFF0E6
:10149700909C41E09009D9F0909C42E09009DAF0E5
:1014A700900BC1E0C394405013129766900BC11282
:1014B70076E7F1DE900BC1E004F080E4917D909C2B
:1014C70049E054DBF07F037E0021F01275E9F1A2B9
:1014D7004424F09102909C47E04403F07FF47E019E
:1014E70031F0909C47E054FCF01277277003F1D756
:1014F700F09184F1A95004AF068000900B9CEFF0A7
:10150700A3743FF0900B9CE0FFA3E0D39F403212FF
:1015170097669009D9E0FF900B9DE0FEC39F4005B9
:10152700909C41EEF09009DAE0FFEEC39F400890EF
:101537000B9DE0909C42F09102900B9DE014F0808F
:10154700C39009D9E0909C41F09009DAE0909C4261
:10155700F0221239B55004AF068000900BC3EFF0AC
:10156700900BC3E0D3943F502B129766909C49E0B1
:1015770030E108900BC3E0909C41F0909C49E0302B
:10158700E408900BC3E0909C42F031EC900BC3E071
:1015970004F080CC909C49E030E107909C48E044FF
:1015A70004F0909C49E030E407909C48E04440F008
:1015B7009184909C49E030E10312483E909C49E0B9
:1015C70030E40312483631EC909C49E030E104E006
:1015D70054FDF0909C49E030E404E054EFF07F02C2
:1015E7007E0021F0909C49E0542422900BC4E054E3
:1015F7001222900BC0EFF0F19644809183909C45A6
:10160700E054FA9183909C46E0547F9183909C46E6
:10161700E054DF9183909C46E054EFF0900BC0E0DC
:10162700FF12764C120FCC909C4BE020E305F1B6ED
:1016370060F52222AE0712300B909C46E04410F072
:10164700AF0612764C120FCC909C4BE020E204F1CF
:10165700B660F5F1964480F07F01F1984420F0914F
:1016670002909C45E04405F09102909C46E0547F2F
:10167700F0F1DE909C49E054BFF09102E49009E359
:10168700F09009D8F09009D6E07016127696C083CC
:10169700C082E0FFA3E054FED082D083CFF0A3EF57
:1016A700F022AE079009E3E0707812300BAF06B175
:1016B700F9909C00E4F0909C49E04440F0910212BC
:1016C700487E7481F0909C0014F1D17002EEF460B2
:1016D7000871C2BEFE0DBFFF0A909C437402F0A3BF
:1016E700F0800D909C437401F0A3F0909C4AE4F0C5
:1016F700909C04E4F012771F7411F09009E2740AC9
:10170700F09009E5F0123999F0E49009D8F09009C2
:10171700E304F0909C01E04403F07F327E0031F057
:10172700D18C22123035FFBF4402805971D260023A
:10173700F1C4B1EB7005E05412603EB1EB600AF101
:10174700A95004AF06800B80091239B55004AF06C3
:101757008000900BC5EFF0900BC5E0C3943F501687
:10176700129766900BC5E004F0E0543F909C41F05F
:10177700A3F0910280E11275E912303764446005E5
:10178700E04444F1CAC18CF09102909C48E0227F6A
:10179700647E0031F0909C46E022F09102909C49D3
:1017A700E0229009DAE0FF9009D9E0FEC39F2212F8
:1017B70097667B017A0979DB12B5E4EF22909C01E9
:1017C700E04403F07F507E0021F0F071C2EFF42275
:1017D700909C48E054BB227F017E0021F07F057E6C
:1017E7000021F0900BC4E0FF541222900AF3E0604E
:1017F70030900AB4E064017017900AF2E0B403076E
:101807007FC01210199128900AF2E0B40C02918857
:1018170012303E11294005B15812B946E4900AB476
:10182700F022900AF3E0D3940022E4900B92F0A305
:10183700F03117EF601290099DE0700C04F0FB1275
:1018470075BA90099C7401F03117EF701790099DD4
:10185700E060111129400DE490099D31227178E46F
:1018670090099CF090099DE06007B15812B98880F3
:10187700031217F2312312B5E4EF602590099CE0BB
:10188700601F3117EF6012F1E412B988D119E4FD36
:101897007F1BF1DA12286F8008E490099C312271CE
:1018A700787B017A0979A412B5E47F0112618290ED
:1018B7000B91EFF024ED603024AE6007146029240B
:1018C70054704C71855005900B93717F900B91E08C
:1018D7006465703BF1C37037900B93E070317D0105
:1018E7007F1531A37029802411294005900B92316F
:1018F70030900B91E0B46617900AF3E07011900BEB
:1019070092E0700B7D017F1631A370031217F2224C
:10191700E4FF126D1E30E7027F0022F07B017A0997
:10192700799E2290099DE0FF227401F0E4FFEFB455
:1019370001097185500CE004F0800711294003E08C
:1019470014F0900AF3E0B420117D017F15718DB476
:101957000C08312AEF70031217F2900AF3E07011A6
:101967007D017F16718DB40C08312AEF70031217B1
:10197700F21227EA7F01020012900AF4E06007E4FE
:10198700F01217F2800B900AF47401F0FDFF120FAA
:10199700D790091BE0B40103120E1022120A093175
:1019A7002AEF227F01126182900B7CEFF0E4A3F013
:1019B700A3F0EF14605724EE603024FE604F24B08C
:1019C70060071460252454704671855005900B7E7E
:1019D700717F900B7CE064657035F1C37031900BBB
:1019E7007EE0702B7D017F15802011294005900B2B
:1019F7007D3130900B7CE0B46615900AF3E0700FF0
:101A0700900B7DE070097D017F16020A0931802263
:101A1700900BAAEFF0E4A3F0D3900981E094009033
:101A27000980E0940040229009821284DFC000C040
:101A370001C002C003124886E4FCFDD003D002D0E7
:101A470001D00012495B124F93900980E07002A306
:101A5700E0600261417B64FAF9F89009821284D34D
:101A670012835890098B128570900980E4F0A37453
:101A770064F0A312857C00000000E47F107E0E71E5
:101A87006C400890097A7402F08019E47FAC716A9F
:101A9700400890097A7404F0800A7167400690093B
:101AA7007A7405F071674015E47FAC7E0DFDFC90FC
:101AB700098B12293B500690097A7405F0900BAAFE
:101AC700E0B4010A71675006900BAB7401F0900BFC
:101AD700AAE0700A71685006900BAB7401F0900B86
:101AE700ABE06401705490097A7406F01200161284
:101AF700976690098FE0602DE4F07B017A0979867B
:101B07007F107E27FDFC12B5B27D017F0F120A09F7
:101B17001276F9900AF2E0640C701F312AEF701AFE
:101B27001217F280157B017A09798612B5E4EF6006
:101B370009E4FD7F0FF1DA12286F020016126A69B5
:101B4700600D24F7600D240A7015123AB2800691D1
:101B5700288002918D7B017A0679DD7D01F10122D2
:101B6700E47F487E0DFDFC90098B1284DFD302844D
:101B77000EFFFEFDFC02B5B27401F0FF2135900A9D
:101B8700F3E0C3942022120A09900AF2E022900A95
:101B9700C3EFF0BF5822900A10E0C394024002E45A
:101BA700F0900A10E004F0E0B4010D7B017A0A79A5
:101BB700C47FF47E01120FCC911D700E900A10E0C5
:101BC700B40107E4900AC3F08046911D7014900A8F
:101BD70010E0B4020D900AC37467F0E4900A10F0A5
:101BE700802E911D602A900A10E064017022900AED
:101BF700C37458F0E4900A10F01246F7EF6011E44E
:101C0700FD7F1E718DB40C08312AEF70031217F295
:101C1700900AC3E0FF227B017A0A79C412B5E4EF88
:101C270022900AF3E0FFAE07EE90098393FDFFAE23
:101C37000712300BEE543FFEED543FFD1215EB60DB
:101C47000A9009D9EEF0A3EDF0800F1213CB602EA6
:101C57009009E2EEF09009E5EDF0909C48E020E273
:101C67000B909C41E0543F6E6002EEF0909C48E080
:101C770020E60B909C42E0543F6D6002EDF00216A7
:101C87008C7F24121019900AF3E0FFAE07EE90093B
:101C9700A493FDFF80999009A37401F0900995F032
:101CA700F1E412B94612757191881217F23117EFE4
:101CB700600C90099D7401B15712B9888009E490AE
:101CC700099DB15712B9463117EF601390099DE08E
:101CD700600D7401F0FB1275BA90099C7401F0F164
:101CE700D1F10112767E12B98812751212B9887D68
:101CF700207F0F12B98812749612B9887D017F2050
:101D070012B9467D017F2112B9887D017F1E12B964
:101D1700887D017F1D12B9467D027F2012B9467D5D
:101D2700027F2112B9887D027F1E12B9887D027F4A
:101D37001D12B9467D807F0212B9467D807F03124E
:101D4700B9887D807F0512B9467D807F0602B94636
:101D5700F07D107F2012B9467D107F2112B9887D52
:101D6700107F1D12B9887D107F1E12B9467D107F26
:101D77001C22124FF674FFFFFE12B83F12B8CC12A6
:101D87009766E4900BB2F01257FB12675CD2AF1262
:101D9700680812768AD1AD909601D1151269721230
:101DA700680F12289F12770FA3E04440D1AD909699
:101DB70001E04440D118E4FDFFD1BBB15812B98806
:101DC700E4FF1269821248F8E4FF1216A9124CB711
:101DD700126B96126C3512575812976612493F12BA
:101DE7003C70123EC6126B6D600F14601524FC60C8
:101DF7001524FB6009240B7010120A6C800B11313B
:101E0700800731AA8003120017126A7280CBE05450
:101E1700BFF07F027E00028AF8E490094EF0124676
:101E2700D471781246CD120FC8E4FF1250A8E4FF10
:101E370012C06B12C00E90961DE054DFF0A3E04471
:101E470020F0909620E04420F0A3E04420F0909604
:101E57001CE054EFD11890961DE054BFD1B4909672
:101E670020D1B190961CD115909602E054FBF0A3B7
:101E7700E04404F0909605E04404F0A3E044041223
:101E870046DBD118909602E054FDF0A3E04402F03F
:101E9700909605E04402F0A3E04402F01277007F39
:101EA700027E00028AF8F0909605E04440F0A3E035
:101EB7004440F022124FEFEF700F90B204F090B24F
:101EC70003D1FA90B205F08024EFB4010E90B2046A
:101ED700E4F0A3D1FA90B203F08012EFB4020E90AF
:101EE700B203E4F090B205D1FA90B204F090B000DA
:101EF700E4F022F0ED90000E9322900B401285E65D
:101F0700900B43EDF0126871124DC44002E4F012D9
:101F17004DBC4002E4F09006DB745AF0900AF2E000
:101F2700FF60049006DCF0900AF3E09006DDF01203
:101F37004F9D4002E4F0900AF2E0FBB401169007CF
:101F470002E09006DEF0900A6DE09006E3F1CA9099
:101F570006DF8018EBB40217900702E09006E8F05E
:101F6700900A6DE09006EDF1CA9006E912857012AD
:101F77004C719006F2EFF0900B40124F4D6033908A
:101F87000B43E0602D7D5AE4FF12BA06900B401216
:101F970085DDC3E994DBFF900B401285DD900B4391
:101FA700E0900AEBF0124EF99006F2E0FD7F17126F
:101FB700BA06229128125DD5F1D1E101900AF3E02A
:101FC700642022F090074B0284D37B017A0679DCE8
:101FD7007D0122120A097FE87E03028AF87D807F4D
:101FE7000C12B9467D807F0A2212255F7B017A0792
:101FF70079A07D1F7C00122669EF641F4E600221C5
:102007004278A07C077D017BFF7A05796B7E007F94
:10201700041287A2EF600221429007A4E09007E430
:10202700F09007A5E09007E5F09007A6E09007E697
:10203700F09007A7E09007E7F09007AFE01205459B
:1020470020B20020E403206C1220C51A210A1B20AD
:10205700C91E208223208625208A28208F2A210630
:102067002F000021167BFF7A0579707D247C0031D3
:10207700431276AB314390079F21115168211A51C2
:102087008F211A126F3D8010126EEB7B017A077950
:10209700F07FD07E07120FCC90079F7402F07B0170
:1020A7007A07798E7F0A120FCA806831E3EF7006CC
:1020B7009007EDF080599007EDE0604080515103A3
:1020C70080519007B3E0700C31E3EF6007E49007AD
:1020D700EEF0802C9007EE7401F0E4802331E3EFFB
:1020E70060069007EDE060087BFF7A057998800627
:1020F7007BFF7A0579AA7D127C003143E48001E4F5
:10210700FF800EE4FF515E9007ED7401F080047FBD
:1021170001515E7B017A07798E12B5E4EF600A9070
:10212700079FE0B402037401F09007807401F0FB8D
:102137007A0779897FB07E04120FCC22900AD512D4
:1021470085E6900AD8ECF0A3EDF07D01D162C3904B
:102157000AD8E094025060900AD8123DEA9440EE03
:1021670094004006A37440F08005900ADAEFF090DF
:102177000ADAE0FDFFC3900AD9E09FF0900AD8E0A1
:102187009400F0900AD51285DD7F24F1D9B1517DF5
:10219700207F13F16B7F011270D9EF603EB14FD1F1
:1021A70007900ADAE0FF900AD6125ED9900AD8E0C3
:1021B7007002A3E070A122B14F7DB4D109900AD576
:1021C700127672900AD5127666900AD81276A19086
:1021D7000AD8F1E17D1FF1BD12540E22126076EF8D
:1021E70070069007EFF0800E9007EFE0700812B2CC
:1021F7004F9007EFEFF09007EFE0FF2231E3EF702A
:1022070004F17A805212B8399007781285709007D6
:10221700B1E024C1601C242370307BFF7A057994D8
:102227009007B3E0FFC39404500280027F045186F5
:1022370080257B017A0779749007B3E0FFC3940C7C
:10224700500280027F0C5186800D7B007A00790056
:10225700E4FDFC3143E4FF9007ECEFF01276AB218D
:102267004331E3EF7004F17A801312B8399007977E
:102277001285707B017A0779937D0C518880D8EF9E
:10228700FD7C003143E4FF2231E3EF7004F17A80F3
:102297001612B8391275A99007811285707B017AD9
:1022A7000779817D08518880AE900BE0EFF0540FDD
:1022B700D161900BE0E07025F121C006B158D0E064
:1022C7004FB1507F1371367F00FEC007C006B1586B
:1022D700D0E0FED0E0EE4401FD7F138042900BE09A
:1022E700E030E74071344408B150F121C006B158DD
:1022F700D0E04F4410B1507F1371367F00FEC00706
:10230700C0067134FDD0E0FED0E04D4410EEFDD1A3
:1023170009124954713454CF712C4440FD7F127E09
:10232700A3128F8022FD7F127EA3128F807F127EE1
:10233700A3128C84EF227F8171437F02900BE1EF20
:10234700F0547FD161900BE1E030E737713454DF0F
:10235700712C4440B150F121C006B158D0E04FB1C3
:10236700507F1371367F00FEC007C006B158D0E01A
:10237700FED0E0EE4420FDD1097D407F10F16B7F58
:102387001180467F16713654BFFDF11A7F167136DC
:102397004480FDF11AF121C006B158D0E04FB15089
:1023A7007F1371367F00FEC007C006B158D0E0FE2C
:1023B700D0E0EE54DFFDD1097D407F14F16BF1CB06
:1023C7007F1671364410FD7F167EA3028F80D08062
:1023D700D0807B017A0A79289006A1124F84FCFDF0
:1023E70012B5B27B017A0A792D7F64120FCA900564
:1023F7007AE06403703BF173900A32EFF030E61431
:102407007F1671364480FDF11A7F167136549FFD91
:102417007F16807690057BE0600BF1C4EF20E00229
:1024270081DE7F0122900A32E020E00281DE7F0117
:102437002290057AE064047030B158900A32EFF0C8
:1024470030E50D71344480712C54DEFD7F12803AE3
:1024570090057BE06009F1C4EF30E07B7F012290BB
:102467000A32E020E0717F012290057AE06004647F
:1024770002702CF121C006B158D0E04F900A32F01B
:1024870030E212713454D9FD7F127EA3128F80126D
:10249700935E7F0022900A32E020E13B7F01229089
:1024A700057AE06401702D7F1371367F00FEC00747
:1024B700C0067134FDD0E0FED0E04DFF900A32EE49
:1024C700F0A3EFF030E2037F0022900A33E030E020
:1024D700067F01227F00227F607136645D60037F83
:1024E70000227B017A0A792812B5E4EF7006129769
:1024F70058EF7035F173900A32EFF054DF4401FD65
:10250700F11A90057AE064037014A3E070107F322B
:10251700FE1290017F16713630E0037F012271347D
:1025270054D6B150B14F7F00221297667B017A0AC9
:10253700792D12B5E4EF700261F57F0112AFF6EF66
:102547006401600261F5FF22E4FD7F127EA3028F22
:10255700807F127EA3028C8412716EEF30E20FE44B
:10256700FF1247097F0471437F817143F12B7B0180
:102577007A0779F87D08127175EF7002C106900726
:10258700F8E020E7119007FEE0600B7B017A0879FD
:10259700617D08126E819007F8E05460704AA3E0ED
:1025A70012054525C90026060125CB0325D105259A
:1025B700DB0625DE0825E00925E90A26060B0000CB
:1025C70025EB80209007FCE0801B9007FAE0547F02
:1025D700FF0247090265A1801B713D7F837143029A
:1025E7005F9C8010E4FF41B09007F8E0B4A10DA311
:1025F700E0B4FE087D01E4FFFE025E64125CAA22DD
:102607007D207F137EA3028F80900B141285E690A6
:102617000B17ECF0A3EDF07D03D1627F0E713664EA
:102627000360047D03D162900B17A3E0FD900B14A8
:102637001285DD7F2CF1D9B151D107900BB6E4F0AB
:10264700A37432F0E4FD7F031270D9EF70047D08A4
:102657008002E4FDB15180A8F0E4FD7F0E7EA30265
:102667008F80900ADB1285E6900ADEECF0A3EDF08E
:102677007D02D162C3900ADEE0940250527F167148
:102687003620E004E4FEFF22E4FD7F021270D9EF5A
:102697007003FEFF22126E7A900AE0EFF0FDC2AFE0
:1026A700900ADB1285DD7F287EA3128A06D2AF90BF
:1026B7000AE0E070097F16713654FEFDF11A7F16A5
:1026C700713654FEFDF11A900AE0E0FF7E00229079
:1026D7000ADB127672900ADB127666900ADE1276B1
:1026E700A1900ADEF1E1125431EF7003FEFF227D63
:1026F70001F11A7DA0F1D27D2DF1BD12540EE4FD3A
:10270700F1BD7D017F16F16BF1D2900ADEE0FEA3E9
:10271700E0FF227F167EA3028F807F137EA3128C99
:10272700847E00227D04D1627DC07F14F16BF1CBE2
:102737007F17F123C006F173D0E04FFDF11A7F1721
:1027470071367F00FEC007C006F173D0E0FED0E00F
:10275700EE4440FD7F177EA3028F807EA3128F80F9
:102767007D107F087EA3128F80E4FD227F167EA353
:10277700028C847F8151B07F0A7E00128AF8B15F94
:102787007F012212680F7F0112CD82E4FD7F06F1DF
:102797006B7F07F1627F09F16B126EDAF12BD310B1
:1027A700AF01C3C0D09004037420F0A3E4F0127209
:1027B700ABD0D092AF227F047EA5028F807F007EB0
:1027C700A5028C847F157EA3028F807F177EA302CC
:1027D7008F807EA312897A7D0122E0FD7F0D7EA581
:1027E700028F80121B44900AF3E07010900AB4E045
:1027F700700A900AF4F07D01FF120FD7900AB4E037
:10280700B401091218294004A37401F0900AF4E0F6
:10281700B40105E4F01217F222900BBFEFF07F012D
:1028270022900B7BE0701B900BA1E07015114A12F0
:102837001D5812B988900AF2E0B40C0312474E12E1
:10284700516D2290091BE0B401021158126A03F07E
:1028570022126B74E4FD7F01120E8912768A121E12
:10286700AD7F147E00029001114A127708E4FF122F
:102877001019E4FF12163BF1E97F01900BE5EFF029
:1028870012C8DB12C8BB90988CE04401F01257E8DD
:10289700900BE5E0FF02B9059006D8E0FF640860F9
:1028A70005EF642070737B017A0A79607FAC7E0D37
:1028B700120FCC7B017A0A796012B5E4EF703F12F0
:1028C7009766125179900A651285707F007EFF7DA9
:1028D700457CBA900A65313B601E7F807E7F7DA56F
:1028E7007C5A900A65313B600F7F007EBF7D007C7C
:1028F700FF900A65313B700612680F02770FF1E906
:102907007F0912B9ACEF20E60C7F0A7E00128AF825
:1029170012976680EB7F01118222128358AC00ADBB
:1029270001AE02AF039009F01285709009F012848E
:10293700D39009EC1284DFC302840E9009621285DA
:102947007C00000000E4900974F0900006E0B401F8
:102957000C12CD53EEC31390096FF0800690096FE8
:102967007401F01276CA1275F27002FF221276CA4B
:1029770012760C7003EE64556008900AB3E070029B
:10298700FF22E490096EF090096EE0FFC3940440C3
:10299700024145EF75F010A424BEFFE5F0340EFAAE
:1029A700A9077B019009771285E6125C63FF64052E
:1029B700600AEF640F6005EF64857036900974E074
:1029C700FF600890096EE0C39F4027900962128458
:1029D700DFC000C001C002C00312761CD003D002C2
:1029E700D001D0001276D090096EE004900974F0FF
:1029F700216A90097712585412810FFF64046018F6
:102A0700EF64066013EF640B600EEF640C6009EF70
:102A170064016004EFB40E1E9009621284DFC000E7
:102A2700C001C002C00312761CD003D002D001D06F
:102A3700001276D0800890096EE004F0218E90098C
:102A47006EE0B4041B900974E0FFD394004011EFCB
:102A57009404500C90096212857C00000000216AE2
:102A670090096F91A991C51275F27002FF22900922
:102A77006F91A991C512760C7003EE6455600890AA
:102A87000AB3E07002FF22900D0DE0900013F09062
:102A97000D0EE0FEA3E0FF1297F8900975EEF0A384
:102AA700EFF0E4FCFD90096291BF9000141285706D
:102AB700900D111234FA603C1297F87C007D2012B9
:102AC70085EFF107AB0790096FE07F0025E0FEE493
:102AD700FCFD1282B21275A9C006C007E025E07B93
:102AE70000FAE4F9F8D007D00612835890095E126D
:102AF7008570800A90095E12857C00000000900DA9
:102B0700161234FA60081297F8E4FCFD8006900D5F
:102B170024127606900966128570900D131234FA06
:102B270060081297F8E4FCFD8006900D20127606E7
:102B370090096A12857091A690096691C8F107AB52
:102B470007900975124F84FCFD1282B290095E91BD
:102B5700BFF107AB0790096AF1D5C007900013E0F2
:102B6700FBE4FAF9F8D007128358900970128570C0
:102B7700E47FF57E0FFDFC900970313B5008E4902F
:102B87000008F07F0122E47FF57EFFFDFC900970CD
:102B9700313B500AE4900007F0A304F08025783613
:102BA7007C0D7D017BFF7A06796C7E007F0812879A
:102BB700A2EF9000077003F080037401F090000803
:102BC7007401F091A690096691C890001491BF9086
:102BD700095E91BF90001C128570900007E0600AA3
:102BE70012760390097091BF800F9009701284D3F9
:102BF700EF2402FFE43E1237A09000201285709068
:102C07000007E06020127603EF24FEFBEE34FFFAA4
:102C1700ED34FFF9EC34FFF890001391A91282CD3F
:102C270090001C800A91A690096691C890001491A3
:102C3700BF900018128570900013E0FE90096FE0B6
:102C4700FFEE8FF0A4900013F0A31284DFE4FCFDE5
:102C5700FE1282CD90001412857090001C1284DF42
:102C670090096F91A91282CD90001C12857012767F
:102C7700CA90096A91BFF107AB0790096F91A91232
:102C870082CD9000241285709000181284DF90097D
:102C97006F91A91282CD9000181285707F01229042
:102CA7000D10E0FFE4FCFDFE229004531285DD9039
:102CB70000271284659004561284DF0282B29009BD
:102CC700621284DF0282CD9009E7EDF0A31285E658
:102CD7009009E6EFF090053EE0FEEFD39E5014908A
:102CE70009E6E0C39401400B900545124F4D600380
:102CF700EE70037F00229009E6E0149009EBF09054
:102D070009E7E0FF9005451285DD9009EB1275D2C2
:102D1700EF12814E9009E81285DD12BF3FF1E39073
:102D270009E7E064036002C151A312585412810FEE
:102D3700D39406400312BE90F1C69009F012857035
:102D4700D1E978009009F01284D3128358EF240256
:102D5700FFE43E1237A0E47B07FAF9F8128358AF75
:102D6700039009F4EFF09009E812585412810FFE0E
:102D7700C39F4015EEFF9009F4E0FDEF9D1276F139
:102D8700FDD1E9F81282CD802A9009E81258541231
:102D9700810FFF9009F4E0C39F1276F1FDD1E9F8A6
:102DA7001282CDC374809FFF743A9EFE74099DFD05
:102DB700E49CFCC006C007D1F0900001D007D00604
:102DC7001284AFD1F0F1DBC003C002C00112844509
:102DD7009009F091BFD001D002D003128495D1E3BE
:102DE700127635F1E39009F0D1E6780031219009A8
:102DF700EBE075F006402BD1F7F1DBC003C002C052
:102E070001128445C004C005C006C0071276C0F190
:102E1700D5F107AB07D007D006D005D0041282B290
:102E2700807CD1F7F1DBC003C002C001128445C02A
:102E370004C005C006C007F1CCF107AB07D007D027
:102E470006D005D0041282BF80549009E7E06402DF
:102E57007057D1E3127635F1E3D1E97800F1C63145
:102E67002140071276C0F1D58012F1CCC374809F40
:102E7700FF74519EFE74019DFDE49CFCC006C007D3
:102E8700D1F0900001D007D0061284AFD1F0F1DB6A
:102E9700C003C002C00112844590B10691BFD001A2
:102EA700D002D00312849580259009E7E0B4011E73
:102EB700F1C69009F01285709009EC1284D3C00610
:102EC700C007D1F0900001D007D0061284AF900957
:102ED700E6E0FF12C1CB12BA257F01229009EC125E
:102EE70084D37B807A517901229009EBE075F00653
:102EF700A4FF9005451285DDE92FF9EA35F0FA229E
:102F0700A804A905AA0622900B1F12857C000000C1
:102F170000E4900B1EF090053EE0FF900B1EE0FED4
:102F2700C39F4002E1C3EED1F490000512810F6404
:102F3700016002E1BB1275C912810FFBB4020FF1E8
:102F4700C6EF2480FFEE3451FEED34018011EBB45F
:102F57000313F1C6EF2480FFEE343AFEED3409FD8A
:102F6700E43CFC800B1275C912810FB40108F1C64D
:102F7700900B1F128570900B1ED1F39000011284E5
:102F870065900B1F313B6025900B1ED1F312765ACB
:102F97001275A9C312840E6014900B1ED1F312761A
:102FA7005AEF24FE1275ACC312840E7007900B1EE5
:102FB700E004FF22900B1EE004F0E11D7F00229049
:102FC700B1060284D39009EC1284DF9009F01284D1
:102FD700D30282BFE92401F9E43AFA229009EC020C
:102FE70085707F017E0002BABB9005BFE0B405087B
:102FF700A3E0B4AC037F01227F0022122FF09006DA
:10300700ACEFF022310430E0027F019009D6EFF0F7
:10301700909901C083C082E0FFA3E04401D082D031
:1030270083CFF0A3EFF0909C06E04480F022110BD1
:10303700909C48E05444221135700201DA1275E978
:103047001137600BE054BBF07F1E7E001211F012A7
:1030570013D260031277171215EB7005E054126054
:10306700721215EB60111217A95004AF06800011F8
:10307700DDF09009DA800F1239B55004AF068000F1
:1030870011DDF09009E5E0900B2EF0900B2F743FC7
:10309700F0900B2CE0FF900B2FE0C39F4035129769
:1030A70066900B2FE014F0900B2DE0FF900B2FE0B4
:1030B700FEC39F4007EE543F909C41F0900B2EE0DB
:1030C700FFEEC39F4008A3E0543F909C42F01214C8
:1030D7000280BE02168C900B2CEFF0A3EE22310477
:1030E70030E0027F01900BE8EFF0909901C083C0B8
:1030F70082E0FFA3E04401D082D0830128909901A8
:10310700A3E07F0022900BDEEFF09009027401F03C
:10311700126CC6EF7002FF2212C7F79008DEE0FFBD
:10312700125EDF900BDEE0FF7E00E4FD51EFEF70F3
:1031370002FF22319031C0EF4E7002FF2231901210
:10314700CDA0900BDEE0FF641E6009EF641D6004F4
:10315700EFB41C08900AF37410F08006900AF37419
:1031670018F07F091210199008E0E0FEA3E0FF5164
:1031770043113E121D5812B9467F327E00128AF85B
:10318700123AB212CEB87F0122900403E0FEA3E008
:10319700FF7D007C0222F1B6EF60037F002212BDA3
:1031A70013EF70037F0122319031C0EF4E7002FFA1
:1031B70022319012CDA07F0122900B4C12627F909A
:1031C70008CC1284D39008BC122CBFC006C007904D
:1031D7000B4CE0FEA3E0AA06F97B01A3E0FFA3E006
:1031E700900A82CFF0A3EFF0D007D006917F900826
:1031F700CC1284DF900B4E124F84FCFD1282B290EA
:1032070008CC1285709008BBE070289008CC128417
:10321700D3EF24FFF19CF1A81283589008911285EF
:10322700709008911284D390074B122CBF90088D91
:10323700128570900B4EE0FEA3E0FF22EEFA909C01
:103247000812857C01000000EAC3942750047B8D97
:10325700805DEAC3942D50047BB38053EAC3943650
:1032670050047B918049EAC3944A50047B95803F80
:10327700EAC3945950047BB78035EAC3946D500470
:103287007BB9802BEAC3949450047B998021EAC3CD
:1032970094B3501990966AE030E00E7B88909C08B2
:1032A70012857C001A000080067BA380027B8911AF
:1032B700E5909C06E06B6013909C00E0547FF090D3
:1032C7009C06EBF0909C00E04480F0900BE8E070E7
:1032D70016127696C083C082E0FFA3E054FED08228
:1032E700D083CFF0A3EFF022AB07AA06900B8BEDAC
:1032F700F0A3E4F0A304F0EDD3940240037F00228F
:10330700900B8BE0F9701B9008A3916040037F003E
:10331700229008A5E02BFEE43A900B8CF0A3CEF0A8
:103327008039E9640170229008A4916040037F000E
:10333700229008A5E02BFFE43AFE9008A3125F82D3
:10334700900B8CF0A3EFF080129008A591604003DA
:103357007F0022900B8CEAF0A3EBF09008BAEBF019
:10336700A3E9F09008CC12857C00000000900B8D3B
:103377009177FF900B8C916F2410FFE43EFEE4FCE5
:10338700FD7A0879BC7B01900A82F0A37410F09152
:103397007F900B8BE06002815D74FFFFFEFDFC9068
:1033A70008C012293B700D9008C012857C000000F0
:1033B700007F00227E007F2F7D001252A01287C659
:1033C7007E007F047D307B017A0879791287C67881
:1033D7007D7C087D017B017A0879C47E007F041219
:1033E70080D078817C087D017B017A0879C97E00CD
:1033F7007F031280D091699008951285709169EFCB
:1034070024FFF19CF1A812835890088912857090C7
:1034170008A29177FF9008A1916F2420FFE43EFE58
:10342700AB07FAE4F9F89008BC122FD5E4FB7A024F
:10343700F81283589008851285709008851284D3F6
:1034470090088D12857090089112857C000000000D
:103457009008847401F07F0122E0FFD3EB9FEA9488
:1034670000229008C00284D3E0C454F048FEEF2243
:10347700E0C4F8540FC86822900A7B128570900A3E
:103487007F1285E6900A7F124F4D604D900A829118
:10349700FA6046900A7F1285DDC3EA940F40167ED4
:1034A70000EF5403FF600E74049FFFE49E900A82AE
:1034B7008FF01281D7900BB0E0B4030C91EC900A17
:1034C7004691E1124B2A8011900BB0E0B4010A91AA
:1034D700EC900A5C91E1124B7622CFF0A3EFF090CB
:1034E7000A7B0284D3900A7F1285DD900A82E0FF6F
:1034F700A3E022E0FEA3E0FF4E22900A721285703D
:10350700900A761285E6900A7991FA602DD3EF94A6
:1035170000EE940150247F06D11FF1037F02D11FD3
:10352700900A72F1C5900A79E0FEA3E0FF900A764F
:103537001285DD124995F103F12A22D113900A2051
:103547001285E6D107E4C39F900A25F0603DD10DAF
:10355700900A25E0FF900A79E4D103B101900A1C93
:103567001284DF900A25122CA91282B2D113900A75
:1035770025E0FF7E00900A21EE8FF01281D7C390DD
:103587000A24E09FF0900A23E09EF0C3900A23E00C
:1035970094014044E4900A26F0A3F0900A23E0FF48
:1035A700C3900A27E09F900A26E09400502AD1078B
:1035B700D10D900A797401F0A3E4F0B101D107E4C9
:1035C7002FF19CD113900A21740175F0001281D755
:1035D700900A261249D180C37E00900A23A3E0FFF8
:1035E700900A23EEF0A3EFF06011D10D900A23E0CB
:1035F700FFA3E0900A79CFD103B10122F0A3EFF046
:10360700900A1C0284D3900A200285DD900A1C02CE
:103617008570F182F12A7F06AD07126C270200E15F
:10362700900A4A128570900A4E1285E6900A51E078
:103637007002A3E07002C1E0900A4A1284D3EF54EB
:1036470001FFE4FEFDFCFBFAF9F8C312840E6017D4
:10365700900A4A12853B900A4E124EF21280F6F1FA
:103667000B900A51124F967F06D11FF1037FADD100
:103677001F900A4AF197D1E1F1AF900A52E024FE78
:10368700FE900A51E034FF900A53F0A3CEF0D39096
:103697000A54E09401900A53E0940040157FADD19D
:1036A7001FD1E1900A5374FF75F0FE1281D7F1AF75
:1036B70080DC7F04D11FF103F12A900A51E0FEA3B9
:1036C700E0FF30E014E4FCFD900A4A122CBF1275AB
:1036D700A9900A4E124F7EF10B22900A4EE475F024
:1036E7000112052E1280F6FF1200E1900A4EE475D2
:1036F700F00112052E1280F6FF1200E190960AE003
:103707004408F022900AFFF0900AFB1285707F06AA
:10371700D11FF1037F02D11F900AFBF197900AFF97
:10372700E0D1FF7F05D11F120025900BDDEFF0F1EF
:10373700037F017E00128AF8900BDDE020E0E4228F
:10374700900B00128570E4FFD119F103900B04E090
:10375700FFD11FF10380CC900AF61285707F43D109
:1037670019F103900AFAE0FFD11F900AFAE064C743
:103777006005900AF6F197F10380A8900BDCEFF053
:103787007F50D11FF1037F01D11F900BDCE0C1FFF8
:103797001284D3802CFFEE3401FEE43DFDE43CFCB3
:1037A70022E4FB7A02F9F8227F017E000290019160
:1037B700699008CC12293B7F0040027F01221284C6
:1037C700D3900B48128570900B49E0FF1200E190EF
:1037D7000B4AE0FF1200E1900B4BE0FF0200E19083
:1037E7000B70EFF0A37401F0129766909C46E054BB
:1037F700F0900B72F0E0FF900B71E0FEEF4EA3F03C
:10380700900B70E0B4010BEEB40707900B72E04425
:1038170008F0900B72E0909C46121483900B71E0B5
:1038270004F0E0C3940840C022900B76EFF030E636
:10383700023191900B76E0FF30E7023189EF30E6F5
:1038470006909C41743FF0900B76E030E706909C21
:1038570042743FF0900B76E0FF30E6023181EF30A3
:10386700E70231791211EC900B76E0FF30E6023176
:1038770071EF30E70231141211EC9009D7E064447C
:10388700601A900B76E0FF30E607909C48E054FB07
:10389700F0EF30E707909C48E054BFF012148431F2
:1038A700B55004AF068000900B77EFF0A3743FF09C
:1038B700900B77E0FFA3E0D39F403731ADFF900B2C
:1038C70078E0FEC39F400C900B76E030E605909CB5
:1038D70041EEF031A59F400F900B76E030E708905E
:1038E7000B78E0909C42F01211EC900B78E014F00A
:1038F70080BE900B76E0FF30E603310CF0EF30E747
:1039070003319DF0229009E2E0909C4122909C4F68
:10391700E04420F022900BC6EFF012300B900BC65C
:10392700E0FF30E6023191EF30E7023189900BC6B4
:10393700E030E6023181900BC6E030E702317912C0
:1039470011EC900BC6E0FF30E6023171EF30E70271
:1039570031141211EC900BC6E0FF30E603310CF086
:10396700EF30E703319DF002168C909C4FE0444006
:10397700F022909C49E04410F022909C49E04402D8
:10398700F022909C4CE04408F022909C4CE04404C8
:10399700F022909C41F09009E5E0909C422290092A
:1039A700E5E0FFEEC3221297669009E2E022900954
:1039B700E5E0FF9009E2E0FEC39F22900B28126228
:1039C7007F12300B1213C2EFF47002EEF460631231
:1039D70013C2EFF47003EE64FE6057900B28519BFF
:1039E700C333CE33CED8F9FF7C007D051281829098
:1039F7000B28EEF0FAA3EFF0FBA3519BC333CE33B2
:103A0700CED8F9FF7C007D05128182900B2AEEF05B
:103A1700A3EFF0D3EB94EAEA940B4005900B2851FF
:103A2700AAD3900B2BE094EA900B2AE0940B400268
:103A370051AA900B2851A2A351A2900B28E0FCA3F6
:103A4700E0FDECC454F0FBA3E04B9009E0F0AF05B8
:103A5700A3EFF0900B2AA3E09009E4F0909C04EF09
:103A6700F0909C02E0540FF0C083C082E0FF900901
:103A7700E0E0FE54F0FDEF4DD082D083F09009E4F2
:103A8700E012771FE054F0F0E0FFEE540FFEEF4E28
:103A9700F002168CE0FEA3E0780222E0540FF0A3B8
:103AA700E0F022740BF0A374EAF022900AF3E02509
:103AB700E02494F582E43408F583125F7AFDAC06BE
:103AC70021C2916912DB79EF600612CEB0EF701256
:103AD7009006FFE0640370237F0A126400121B71D3
:103AE7004019120DB69006FFE064016005E4FF126D
:103AF70052F671B2EF7004716F80427B017A0779D9
:103B07006912B5E4EF6017900AF4E0701190075F4F
:103B1700E0700B1217F251B290075F7401F0126454
:103B27003BEF701B120DB6900701E0FF64026003C4
:103B3700EF70047D0680027D077F017173C1BF129C
:103B47006542600B24FE6018146015240470181277
:103B5700CECF1267489006FD7403F01277088004F1
:103B6700126583F012671F227D067F01900B38EDE7
:103B7700125FBEC3940840037F0022900B38E0FF1A
:103B8700A31285DD90000174011204C4FD1280F6B2
:103B97002DFD7C00ED5407FD900B391261D2E92D04
:103BA700F9EC3AFAEF12813C7F01227B007A007927
:103BB70000900B7F1285E6E4900760F0900702E023
:103BC7007013B1E790072FE09F90072EE09E400506
:103BD700E4F0A304F0900B7F1285DD9005131285A6
:103BE700E690072EE0FFA3E0900516CFF0A3EFF0D5
:103BF7009169129C6BEF7007900BA8740580287B66
:103C0700017A07793F7D0B124C79900A6DEFF07BB3
:103C1700017A0679DB7D18121F01916912CEE6EF52
:103C27007009900BA87407F07F00229003F31285A8
:103C37007C00000000900768E0601DE4F0124E75FC
:103C47009003EF1284D39003F312293B400A9003A9
:103C5700F312857C0000000012630AEF7F017001F8
:103C6700FF227B017A07793022126882900BD6EF08
:103C7700F0600B7B011275BA1276E01275BE900ADE
:103C87001BE0B40102B1CD900A11E07002A3E0601D
:103C970025B1BE12B5E4EF7007900BD6E0B422163B
:103CA700B1BE7F887E13120FCC900BD67421F0E43F
:103CB700900A1BF0A1A8900BD6E0FFC3941640759D
:103CC700EFD39420506FB1C56007EF64026002A183
:103CD70096B1D6F0900BD6E0FBB42020900A11E005
:103CE700FEA3E0FF7C007D0A128182ED4C6002B1E9
:103CF700DF1276B6900A197401F08026900A19E04F
:103D07006011EB24EAFFE434FF900A118FF012816F
:103D1700D7800A900BD6E024EAFF12496EE4900A96
:103D270019F0E4900BD6B1BD7FD07E07FDFC12B52C
:103D3700B2B1CD806C900BD6E0FFC394314057EF02
:103D4700D3943B5051B1C56005EF64027053B1D6AF
:103D5700B1BD7F887E13FDFC12B5B2900BD6E0FF94
:103D6700B43B051276B68007EF24CFFF12496EB138
:103D7700CDB1C56004EFB40216B1E7900A12E09F17
:103D8700900A11E09E5008900BD6743CF08012E424
:103D9700900BD6F0800B900BD6E06005B1DFB1D762
:103DA700F0900BD6E0FD600D7F017173900BD6E0AC
:103DB700FDE4FF717322F07B017A0A791422900ADD
:103DC700F2E0FF640122900A11E0FEA3E0FF22E483
:103DD700900A1BF0900A1A22E4900A11F0A3F0222D
:103DE70090002CE0FEA3E0FFD322E4900702F090BE
:103DF7000760F0126824EF64017061900A6CE0704C
:103E07000C900768F090072EF0A3048047900A6E85
:103E1700B1EA9400EE940040669007687401F09050
:103E2700002C125527EF9DEE9C4008900A6EE4F097
:103E3700A304F0900030B1EA900A6BE09F900A6A01
:103E4700E09E4005E4F0A304F0E4900702F0900A36
:103E57006E1275DDF0E49006FFF08023E4900768AA
:103E6700F0900703F0A304F090072EE4F0A304F00A
:103E7700E49006FFF09003F312857C00000000E455
:103E8700900701F090002CE07002A3E07007900605
:103E9700FD04F0FF22D1BF71B2EF7002716FE490A1
:103EA7000A6EF0A3F0900A70F0A3F0900A6AF0A3EC
:103EB700F07F01227F0171739006FD7401F022905B
:103EC7000AF2E0900BCDF0E4FF1261829009CCEF8B
:103ED700F064576004E0B4420312286F1260ADEF3C
:103EE700602C900AF2E0FF64076023EF6408601E0D
:103EF700900006E0B40309900AF2E0B40D02D1BFC6
:103F0700120FD37F967E00128AF87F02F18F125725
:103F170036EF60047F03F18F1260CFEF60047F07F5
:103F2700F18F126A69601F24FD24FD502324077056
:103F3700379006D2E06007F1C4EF702C800E126054
:103F470076EF702480061256EEEF701C7F01801505
:103F57001247E1EF70127F907E01128AF81260CF4C
:103F6700EF70057F021257D49009CCE0B414189073
:103F77000006E0B40309900AF2E0B40D02D1BF9045
:103F87000AF2E0FF12601D22900AF2E0900BCCF0DB
:103F9700F1AAEF700D900BCC1257CD70057F01126F
:103FA700601D22EF24FD600C24FC600E24FB6007DB
:103FB700240A8009024771026008024795E4900BC2
:103FC700CAF0900A3DE0B40109120FD3900BCA74EE
:103FD70001F0126076EF7006900A3DF0FF22120999
:103FE700EDD1BF120020900BCAE07003120FD3125D
:103FF700B24FEF7002FF227F02111E7F09121019C4
:10400700E4FD7F0D120A097F0212628BEF7002FF37
:1040170022123DF17F0122900BC9EFF0126A69600D
:104027001324FD24FD502624FD6016240A70231254
:104037006753801E900BC9E0640360161261DD8030
:1040470011900BC9E0640C6009F14E800571731281
:104057000807900BC9E0900AF2F0900BB3F0120F2B
:10406700D3E4900AF4F012680F12199890091BE034
:10407700B40103126A3C22118E90966AE4F0900A0A
:10408700D4F090079FF022D310AF01C3C0D0909611
:1040970044E054FCF0D0D092AF229096457403F0E0
:1040A7005185EF60189006A0E064076010900AA49D
:1040B700740BF0A374B8F09006A07407F09006A0F4
:1040C700E0FE702B5128EF600C5167EF7007900AE4
:1040D7009FF0A3F0225152FCC3E5F09464EC9400E6
:1040E70050024127515C7402F0900A9E14F022EEB0
:1040F700B401265128EF700241255167EF60024154
:1041070025900A9F5156FED3E5F09464EE94005033
:10411700024127E49006A0F0229006A0E064027016
:104127003D513F5128EF600A5167EF7005515D041B
:10413700F0221207F8EF640170024127900AA2519A
:1041470055FEC3E5F094D0EE940750024127E49062
:104157000AA2F0A3F051969006A07403F0229006ED
:10416700A0E0FE6403701E5128EF7015F11C512862
:10417700EF6008118E515C7404F022118E513F419B
:1041870025513F4125EEB4041A5128EF6004513FF1
:1041970041255152FED3E5F094F4EE9401500241CB
:1041A70027800D9006A0E0FEB4051D5128EF70078B
:1041B7009006A07406F0225152FCD3E5F09432EC3D
:1041C7009400405C513F8056EEB406141271BEEF66
:1041D7006002517E5128EF60479006A07405F022D7
:1041E7009006A0E0FEB407215185EF70069006A067
:1041F7007406F0D3900AA5E09400900AA4E0940016
:10420700401E74FFF5F00281D7EEB4080F118E51EE
:10421700965128EF600A118E513F8002513F517E1F
:1042270022900AF2E0B40408909612E05402FF22AA
:1042370090A628E05404FF22D310AF01C3C0D0904A
:104247009644E04460F0D0D092AF22900A9FE47584
:10425700F0010281EDE4900A9FF0A3F09006A022FE
:10426700900AF2E0B40408909612E05401FF2290FD
:10427700A628E05402FF229006A07402F02290962E
:1042870044E05403FFBF03047F0180027F0022D371
:1042970010AF01C3C0D0909644E0549FF0D0D092A5
:1042A700AF2212C8CB90A6227409F0909883E4F04D
:1042B7005196118E126963F11C1276F9E4FDFF51D4
:1042C700EC1223364440FD7F0151EC12233654DFB4
:1042D700FD7F017EA3128F80E4FFF10912233DE4E5
:1042E700900AA1F0227EA3128F807F0122D310AF04
:1042F70001C3C0D09006A0E0FF6406600EEF64051E
:104307006009EF640760047F008051900AF2E0B40F
:104317000416909901C083C082E0FFA3E04404D053
:1043270082D083CFF0A3EFF07168E06F600B900A43
:10433700A4717D7168EFF08021900AA4E07002A358
:10434700E07017900AA404F0A374F4F0118E51964C
:104357009006A07408F07F0080027F01D0D092AF52
:10436700227F0C7EA3128C84900AA122117E7F02E9
:1043770002B9CE900AAF7401F0A374F4F02212C010
:1043870032EF6016717A900BAC7401F0E4A3F0126F
:10439700C03E90094A128570801912C01EEF600C4A
:1043A700717AE4900BACF0A304F08007E4900BACB7
:1043B700F0A3F0900BACE0FF7006A3E07002A148F9
:1043C700EF6005E4900942F0900942E0C39405507C
:1043D70003E004F0900942E075F046A4FFAEF0E474
:1043E700FCFD7B017A09795412B5B290094BE0FFC5
:1043F70090094AE02FFFE433FEEFF44E6002A1403C
:1044070090094CE0647F707BA3E06480707590092D
:1044170041F0B16E941C4002A140EF25E024D6F58F
:1044270082E43408F583E493FE7401B1756E70037A
:10443700A3E06F704A900AF2E0640C7039D1F7EF8D
:104447006034900941E024FE601314601914601F62
:104457002404702290961CE04440F0801990961C2A
:10446700E04420F08010909601E04402F08007902D
:104477009601E04404F0909601E04440F0A154B165
:1044870067808F90094CE0F4701FA3E0701B9009C0
:1044970041F0B16E941C4002A140EF90090EB17536
:1044A700B50702A154B16780E990094CE0FE64BFEB
:1044B700703EA3E0703A900941F0B16E940C500F32
:1044C700EF90092AB175B50702A154B16780EB9047
:1044D7000941740CF0B16E941C505EEF90092AB13B
:1044E70075B50708900941E024098045B16780E563
:1044F700EE64FD704490094DE06402703C90094100
:10450700F0B16E940C500FEF900946B175B50702E4
:10451700803BB16780EB900941740CF0B16E942138
:104527005017EF900946B175B5070A900941E02485
:1045370012F0E0FF22B16780E390094174FFF0FFBA
:10454700227B017A09795412B5E4EF70069009418C
:10455700E0FF2290094A12857C000000007FFF22BD
:10456700900941E004F022900941E0FFC32293FF44
:1045770090094AE022D1D412B5E4EF7002FF22D1AC
:10458700D47F05120FCA7185900BD7EFF090094EB3
:10459700E024FE6055147002C17124036002C1B5A6
:1045A700900BD7E0F4701AD1E3E054BFD1DBF0E011
:1045B70054FDF0D1CD12B5E4EF600312696A7F00B4
:1045C70022900BD7E0900943F0640C6004E0B41527
:1045D70008D1BD7FB87E0B8006D1BD7FF47E011266
:1045E7000FCC90094E7402F0C1BAD1F7EFD1CD705C
:1045F700087FD07E07FDFC8002F10012B5B2D1EB37
:104607006039E490094EF0EE64016024EE24FE6008
:10461700131460141460162404701590961CE0544B
:10462700BFF0800CD1E380081277008003D1DCF063
:10463700D1C42467F582E43409806DD1BD12B5E495
:10464700EF6070900943E0D1BDB424067FE87E0394
:1046570080047F2C7E01120FCC90094E7403F0D199
:10466700C42468F582E43409803ED1EB6013E490FA
:10467700094EF0EE25E025E0246AF582E43409804E
:1046870027D1BD12B5E4EF602A900943E0D1BDB44C
:1046970024067FE87E0380047F2C7E01120FCCD195
:1046A700C42469F582E43409F583E493FF22E49096
:1046B700094EF07F00227B017A0979442290094351
:1046C700E025E025E0227B017A097959227B017AEE
:1046D70009794F22F0909601E054FB2290961CE056
:1046E70054DFF022900BD7E0FF900943E0FE6F22E2
:1046F700900A13E0FF2274C7F07F007E007D007CE4
:104707000022900BE2EF121E18900BE2E0FD7F00F3
:104717007EA3028F80D310AF01C3C0D0909644E030
:104727004403F0D0D092AF22900BB0E0B4030890CE
:104737000AFAD1FD02375E900BB0E0B40108900B86
:1047470004D1FD12374722120FD312172AE4FF12A2
:104757001019121FE412B98812767E12B946127523
:10476700121269F912749602B9881256EEEF7002A6
:10477700FF221209ED7F03111EE4FD7F0C120A09C7
:104787001275717FC0121019121FBA7F0122F1E151
:10479700EF7002FF22120FD31200201209ED7F07DC
:1047A700111E7F091210197F02126FF4F1CD7F01DC
:1047B70022EF909C50B40105E054FCF022E0440243
:1047C700F0E054FEF02251A9E49007EDF090078045
:1047D700F09007EFF090079FF02241F412300B9012
:1047E70009D8E05412702F909C49E030E103124839
:1047F7003E909C49E030E40211361211EC909C493E
:10480700E030E104E054FDF0909C49E030E404E03E
:1048170054EFF01211EC909C4CE030E204E054FBB2
:10482700F0909C4CE030E304E054F7F002168C90D3
:104837009C4FE054DFF022909C4FE054BFF02212CF
:10484700300B909C00E4F0117E74A3F0909C0074F0
:1048570080F09096417420F07D037F1D12B9467D4C
:10486700037F1E12B9887D047F1D12B9887D047FDE
:104877001E12B94602168C909C057442F0A3229032
:104887007FDFE493543FFF900B9EE4F0A3EFF0909B
:104897000B9E31679424EE94004009D3EF942CEEDD
:1048A70094004009900B9EE4F0A37428F0E4FDFF08
:1048B70012B0157E007C0C7D1C1285EFC006C00768
:1048C700900B9EE0FEA3E0FBAA06E4F9F8D007D020
:1048D70006128358C3EF94B8EE940B50067E0B7FF5
:1048E700B8800DD3EF94F8EE941140047E117FF851
:1048F700223138120FC87B017A097990120FC890BC
:104907000980E07002A3E06023F19390098212848A
:10491700DFC000C001C002C0031186E4FCFDD00364
:10492700D002D001D000315B315480D37F01021A0D
:10493700177B017A09797B22313812B5E4EF600CD5
:1049470031387F32120FCAE4FF121A17227F057E11
:1049570000028AF81282B2900982028570900A11C9
:10496700E0FEA3E0FFC322AB07316494E8EE9403B3
:1049770050117C007D0A128170EB2FFFEC3E900AEC
:10498700118006AF03900A11E4F0A3EFF022900A1A
:10499700B5EEF0A3EFF0900AB91285E6E4900AB7F6
:1049A700F0A3F0900AB53167900AB8E09F900AB774
:1049B700E09E5015900AB9F17EFF1200E1900ABA05
:1049C70031D1900AB731D180DA22E475F001028142
:1049D700D7E4900BB9F0900BB8F09000181284D37D
:1049E700E4900643F0A304F012C68612CF4F90005E
:1049F700181284D39003DC128570129766129D6A91
:104A0700900BD2EFF090002CF184FCFD7BFE7AFF37
:104A1700F9F8C31283F85002611F9003DBE07003BB
:104A270012D7F2900BD2E014700241CB24FC700233
:104A370041D4240570C471C8EF604390002C31D174
:104A470090002E31D1900A6CE0B40132900A6EE0EA
:104A57007002A3E070287122900A6ECFF0A3EFF0E6
:104A670090002EE0FFA3E0900A70CFF0A3EFF09044
:104A77000030E0FFA3E0900A6ACFF0A3EFF09000C8
:104A870030E07004A3E0640160024101900869E02E
:104A970064017002410171C2E92408F9E43AA801EE
:104AA700FCAD037BFF7A0079057E007F031287A2A6
:104AB700EF6002410190086904F0FB7A08796A12F5
:104AC700983B4101900032E475F001804612D90C01
:104AD700900030E07004A3E06401700A7122900036
:104AE70036CFF0A3EFF012DB9B12DCACEF70037F45
:104AF700012290003031D1E4900032F0A3F0900011
:104B07002EF0A3F012D711EF60024101900030742C
:104B1700FFF5F01281D741017F012290002CE0FFC1
:104B2700A3E022900A3F128570900A431285E6E4BB
:104B3700900A48F0A3F07F0B12361F900A3F1237F6
:104B4700C57FFF1200E1900A463167900A49E09F4E
:104B5700900A48E09E5015120025900A431285DD01
:104B6700900A48D169900A4831D180DA0237039018
:104B77000A55128570900A591285E6E4900A5EF08C
:104B8700A3F07F0B12361F900A551237977FFF123B
:104B970000E1900A5C3167900A5FE09F900A5EE04F
:104BA7009E5015120025900A591285DD900A5ED194
:104BB70069900A5E31D180DA0237039003D8028503
:104BC700DD71C290000812810F900B30F090000940
:104BD70012810F900B31F090000A12810F900B3267
:104BE700F0900B30E0B44D10A3E0B4500BA3E0B449
:104BF7003306A37401F08005E4900B33F0900BA902
:104C0700E07008900B33E060029118900B33E0FFDF
:104C170022900A6CE07052900006E0640170211245
:104C27009FB8129FDF9006DF12293B703C71C27D4F
:104C37000B91799006E3E06F702F900A6C04F022D5
:104C4700900006E064027021129FB8129FDF900661
:104C5700E912293B701371C27D0B91799006EDE043
:104C6700B50706900A6C7401F0227B017A0679DB9E
:104C77007D17900B441285E6900B47EDF0E4FE900C
:104C87000B47E0FD14F0ED6024900B44D1F2128045
:104C9700F66EFEE4FFEFC3940850E4EE30E007C37E
:104CA70013648CFE8004EEC313FE0F80E8AF062268
:104CB7009171AB079006D8E020E05B9006DBE064DB
:104CC7005A70539006F2E06B704C9006D8F090063D
:104CD700DCE0900AF2B1F140037419F0B1C440026C
:104CE700E4F0B1BC4002E4F0D100900AF2E0FAB47B
:104CF7000109B1D8B1B39006E4800BEAB4020EB152
:104D0700CCB1B39006EED18DE4900702F0F19D503F
:104D170002A1B2E4F0227E007F1A7D007B017A06B1
:104D270079D91287C67A0679DB7B01900AF0741865
:104D3700F0E4FFD1969171AB079006DBE0B45A0718
:104D47009006F2E06F601E900A697401F0E4900625
:104D5700D9F0A3F0A3745AF0A37401F0B1E4F0A35F
:104D67007419F08044900A697401F0F178900AF29E
:104D7700EFB1F140037419F0B1C44002E4F0B1BCE3
:104D87004002E4F0B1E4E0FBB4010C9006DEE090F1
:104D97000702F0B1D8800EEBB4020C9006E8E09061
:104DA7000702F0B1CCB1B3D100D111221284D39054
:104DB700074B0285709006DAE0C39405229006D966
:104DC700E0C3940B229006EDE0900A6DF09006E99F
:104DD700229006E3E0900A6DF09006DF22E4900649
:104DE700DEF09006E8F0900AF222F09006DDE0543B
:104DF7003F900AF3F0D39420229006D9E090070061
:104E0700F09006DAE09006FFF022C374E8D15DD394
:104E170094014010E49006E8F07B017A0679E87D7A
:104E270001121F01C374DED15DD394014010E490D9
:104E370006DEF07B017A0679DE7D01121F01C3745D
:104E4700DDD15D900AF3E06F600B7B017A0679DDB7
:104E57007D01121F012294DBFF12BFF4900BD4EFE8
:104E6700F022E0FCA3E0F5828C83EF02814E900AEA
:104E7700F2E0FBB401059006E48007EBB40205906D
:104E870006EED18DC1001284D39003F30285709092
:104E97000AED1285E6900AECF154EFD3949550078A
:104EA700900AEDF14D70037F0022900AF0E0FF9029
:104EB7000AECF167400774969D900AF0F0E4900BB6
:104EC700A0F0900AF0F15D501A900AECE02EFF1264
:104ED700BFF4900AEDD1F2EF12813C900BA0E004F1
:104EE700F080DFE4900BA1F07F0122E475F001026E
:104EF700052E900AE81285E6900AE7F154EFD3945D
:104F0700955007900AE8F14D70037F0022900AEB55
:104F1700E0FF900AE7F167400774969D900AEBF06F
:104F2700E4900BA0F0900AEBF15D5018900AE7E0CF
:104F37002EFFA3D1F21280F6FD12BA06900BA0E065
:104F470004F080E1809D1285DDE94A4B22EFF09065
:104F57000BA17401F022E0FF900BA0E0FEC39F229B
:104F6700E0FD2FFFE433FED3EF9496EE6480948048
:104F7700229006DCE0FF221285DD0280F6E0FEA328
:104F8700E0FFE42271C89006D3EFF0229009807405
:104F9700FFF5F00281D7900702E0D3648094812265
:104FA700D310AF01C3C0D0F15612BA06E4900BA1DB
:104FB700F0D0D092AF22D310AF01C3C0D0F15612B8
:104FC700BFF4E4900BA1F0D0D092AF22909801E00B
:104FD700FDEF543FFCED5CF0EF30E50BF1EF90B1E6
:104FE70000E054BE1250A12290B00074FFF022904E
:104FF700988AE04430F090988CE054FAF0124FEF22
:10500700909804E0B4170890B0077403F0800990F3
:105017007FC0E49390B007F090B000E41217D14E30
:105027006008124FEF90B008119E7D027F0712B9FA
:10503700887D027F0512B98890B009E020E15712F8
:105047004FEF90B009119EF50AF50B050BE50B70B4
:1050570002050A640A450A70F2E4F50AF50B90B0F6
:1050670004E030E01F90B004E030E1028011050B4E
:10507700E50B7002050AD39440E50A941F40DFE46C
:10508700FF02BA9A90B004E020E0DAE020E1D6E42B
:10509700FF12BA9A316D22E04402F090B000E4F0BA
:1050A70022900BE6EFF012B957900BE6E0FF700A7B
:1050B700124FEF11D0E04404800CEFB4010A124FF5
:1050C700EF11D0E0440811A12290B009E054F3F0A9
:1050D7002212BA95124FEF90B100E0444180BB1203
:1050E7004FEFA3E054FBF090B100E054BE80AB90CB
:1050F700B009E020E00B124FEF90B009E044011136
:10510700A122900BE77414F0315F3157F0E0700D76
:10511700900BE7E0FF14F0EF70F63157F09098002E
:10512700E054FEF031656005EF6420701A314FBF1F
:105137000404E4FF8007314FBF08047F0111A87FF3
:105147000112C06B12C00E2290B009E0540CFF226E
:10515700909803E09006D822908000E4932290066E
:10516700D8E0FF640822D310AF01C3C0D012BAA29F
:1051770080FE900A8D12857C000000003165600575
:10518700EF6420702C7B017A0A79917FE87E031205
:105197000FCC909A06E020E00F1297667B017A0AFF
:1051A700799112B5E4EF60EA12C03E900A8D12853C
:1051B70070900A8D0284D3315FE490040C512E1253
:1051C700427E9006A104F0A374E8F0B15A900395CB
:1051D700511C900042F0A3F09006ACF09006ADF0A1
:1051E70090042804F0E490033DF09006107404F056
:1051F700E4900436F0900429F090042AF0FE7F1F13
:10520700FD7B017A0379481287C690034812857C93
:105217005553424322F0900000F0A3F022E490009F
:1052270042F0A380F080F6F090040E7402F0A3E43D
:10523700F022900ACB12857C0000000012B8F11210
:10524700472F51A012DB79EF704C51A090047F518A
:1052570032FD7C0F12A02A900AC951EF70028036E6
:105267007B017A0F7900900AC9E0FFA3E0900A8BCF
:10527700CFF0A3EFF0900ACB1284D351A7900ACBBB
:105287001284DF900AC9124F84FCFD1282B2A31266
:105297008570B12E80AC02B8CC7B017A08796A227E
:1052A700900A84128570900A881285E6900BB0E008
:1052B700B4030A51E1900A5151D6023627900BB038
:1052C700E0B4010A51E1900A2351D612354222CFA8
:1052D700F0A3EFF0900A840284D3900A881285DD48
:1052E700900A8BE0FFA3E022EEF0A3EFF04E2290AE
:1052F7000B34EFF0B135FF900B3551EF700261FFC2
:105307009006FFE024FE700261B0240224FB5002E5
:1053170061F4900B34E0FFB4020D900B37740AF080
:10532700E4900B34F08012EF900B37B40308740A43
:10533700F0900B3480007401F0900B34E0703290E1
:105347000B37E0FF7E0090072FE02FFD90072EE040
:105357003EFCC3900B36E09D900B35E09C90072EEA
:105367005007E4F0A304F061F4EE8FF01281D780C8
:105377007C900B34E064017074900B37E0F9FF9078
:10538700072EB1279FEC9400500D900B35E0FFA33B
:10539700E090072ECF8052E9FFC3ED9FFEEC94000B
:1053A70090072EF0A3CEF08044900B35E0FEA3E0EB
:1053B700FFFBAA06E4F9F89100128358EB2401FFDA
:1053C700E43AFE90072EE0B5060AA3E0B507050FFD
:1053D700BF00010EC3900B36E09F900B35E09E5047
:1053E700047E007F0190072EEEF0A3EFF0900B34C0
:1053F700E0900701F0120021229006110284D35198
:10540700F6E4900AF4F0229100900BE3EFF01227F4
:10541700C4EF30E0037F01229100900BE3E0FEC36D
:10542700EF9ED3946440E77F00229100900BE4EF56
:10543700F07F1612233630E0037F01229100900B94
:10544700E4E0FEC3EF9ED3946440E67F0022900A17
:10545700D4E0603D7B017A0A79CF12B5E4EF603181
:105467007B017A0A79CF7FE87E03120FCCB14B908C
:105477000BB451EF700B1227A5900AD47401F0807A
:1054870006900AD47402F0900BB4E0FEA3E0FF91FB
:105497009922EF7802CEC313CE13D8F9FFC394F441
:1054A700EE94015017C374F49FFF74019E91EB2F84
:1054B700FFE43EFEE4341AFDEC338020D3EF94F48E
:1054C700EE9401401EEF240CFFEE34FE91EBC39FD8
:1054D700FFE49EFE741A9400FDE49400FC909C087F
:1054E70012857022FE7C007D14128170E42290B038
:1054F70004E030E016900B79E004F0E0B40A06907F
:105507000B7B7401F0E4900B7AF022900B7AE004A5
:10551700F0E0B40A03E4A3F0E4900B79F02281559C
:10552700E0FCA3E0FDD3227F0A7E000290019000F9
:105537002CE0FEA3E022900BB2E070031240A19191
:10554700F5022828909505123A9BC333CE33CED85F
:10555700F9FF22E4900399F0A3F090033BF0A3F046
:10556700900346F0A3F022900B6B7432F0D080D0FA
:1055770080900395E070069006D204C144900530F0
:10558700E025E090033BF0A3E4F0900340E06402E1
:105597007002A3E07002C131900340E0C313900B87
:1055A7006AF09005291284D3900B6AE0145F900B80
:1055B70069F0900529C083C0821284D3C006C00752
:1055C700900340E0C313FB7A00E4F9F8D007D00654
:1055D700128358D082D083128570900B69E0FD2525
:1055E700E0900399F0A3E4F0EDFFC3E49FFF90057B
:1055F70030E0F9FDC3EF9DFF900B6AE024FFFDE467
:1056070034FFFCEF5D25E0900346F0A3E4F0E9FFEB
:10561700900B69E02FFFE433CF2DCF3CFEA3E0FDD5
:105627007C00128182900530EFF09003421284D300
:10563700900529121B7140099006D27402F07F0071
:1056470022D16C7018900B6BE0FF14F0EF600E1214
:105657009758EF6008D1D6D16C640170E8B15A90C1
:105667000B68E0FF227E007F107D007B017A0379C3
:10567700571287C69003577428F09005291284D3D0
:10568700900359128570900530E090035FF0900306
:10569700547480F090033FE0900355F0A3740AF030
:1056A70090052D1285DD90033BE0FEA3E0FF9003FC
:1056B7009AE02FFF900399E03EFE900347E02FFD0D
:1056C700900346E03EFC12A8F4900B68EFF022121C
:1056D700BDF7D1DE02BE2B12BD72E4900395F090A8
:1056E7009644E0440CF02290960BE04410F090961C
:1056F7000EE054EFF0A3E054EFF090960CE054EF77
:10570700F0B12E909609E030E40BE4900A37F09060
:105717000A35F08014900A35E0C394145005E0046C
:10572700F08006900A377401F0900A37E0FF229064
:105737000A37E0900BCFF0D1EE900A37EFF0900BDD
:10574700CFE0700A900A37E060047F0180027F0093
:10575700227B017A0679F4120FC890963DE054FC3B
:10576700F012B65BF1BF120FC87B017A0979C77FC8
:105777002C7E01120FCC7B017A0979C712B5E4EFB1
:1057870070071260ADF13680EDF1C6900A37E0B4CC
:105797000108900AF27403F08012900A3DE0900A23
:1057A700F2B401057402F08003740CF0900AF2F170
:1057B700CD70047F0CF1D4227B017A0A793822E478
:1057C700FD7F1C020A09E0FF123FAAEF22900BCBD4
:1057D700EFF0123FAAEF7008900BCBE0FF12601DAD
:1057E70022909904E054FEF090980DE054FEF0E00A
:1057F700440EF02290B004E030E3F990980DE054A5
:10580700F1F0E04401F090981FE030E0F99099043E
:10581700E04401F022A2AFE433900BC7F0C2AF908F
:1058270005FE1284D3900611122CBF9005FB12853A
:10583700DD1284959005FB1154E412814E900BC73D
:10584700E024FF92AFD080D0802290069D1285DDA4
:1058570090000422A2AFE433900BC8F0C2AF1151FD
:1058670012810F701D128445119F900611122FD5BA
:10587700E4FBFAF9F8C31283F850071151740112C7
:10588700814E900BC8E024FF92AFD080D080115199
:1058970012810FFF22128465AB07AA06A905A80487
:1058A70022900006E06404600221B690045AE0B436
:1058B7000231900456C083C0821284DFC000C00149
:1058C700C002C00331B790001F128465D003D00215
:1058D700D001D0001282B2D082D08312857090049A
:1058E7005AE4F090045AE0702B900456C083C082AB
:1058F7001284D3C004C005C006C00731B790002783
:10590700119CD007D006D005D0041282BFD082D018
:1059170083128570122CB0C004C005C006C00731C1
:10592700B790001F119CD007D006D005D004C31232
:1059370083F8502731B7900027128465A804C00464
:10594700C005C006C00731B790001F128465D00399
:10595700D002D001D0001282BF8012122CB0EC33DB
:10596700501131B79000271284651283EA900456CC
:1059770012857031B7E92427F9E43AFAC003C00267
:10598700C00131BDD001D002D00312849531B7E9EF
:105997002423F9E43AFAC003C002C00131BDD001A3
:1059A700D002D003128495F1A6D080D0807F012247
:1059B7009004530285DD1284EB9004561284D302BF
:1059C70082B2517F75F002908A791285D1F17A906F
:1059D700000312810FFD7C00EF2DFFEC3ECF24FF6B
:1059E700CF34FF900B19F0A3EFF0128203FFAEF054
:1059F70012C07BEF600D517FD394024006900B19C4
:105A07001249D19005AF1285DD1282032444FD248B
:105A170003FFE433FEEF7802CEC313CE13D8F99019
:105A27000B1DF0AF05E4FCFDFE7B6D7A01F9F81262
:105A370082CD900B1DF182FE900B1AE02FFF900B89
:105A470019E03E900B1BF0A3EFF0900BA6E0B40219
:105A570008900BA7E06403600F5177FF12BFDB903C
:105A670005AF1154EF12814ED080D0805177FF22BD
:105A7700900B1BE0FEA3E0229005AF1285DD90009E
:105A87000202810FE4900AABF0D080D080FE7F083D
:105A9700FD7B017A0579BF1287C69169A3740891C6
:105AA7007B9155700A914C7006914C7002FF2290C1
:105AB700022CE0FF900AA7F0900233E0900AA6F0CC
:105AC700D3EF9400748094814003E4A3F012BDF7F0
:105AD7009006A17427F0A37410F012CA15EF700294
