:100000000203730256594D5646002202565A000109
:10001000020322025695227F0122220256E3022F7A
:10002000AF22220256E4E4C3FA90960AE04401F0BB
:1000300054FEF0909609E0A2E2E492E02A23FA90BE
:10004000960AE04401F054FEF0909609E0A2E2E442
:1000500092E02A23FA90960AE04401F054FEF090D0
:100060009609E0A2E2E492E02A23FA90960AE0449C
:1000700001F054FEF0909609E0A2E2E492E02A2317
:10008000FA90960AE04401F054FEF0909609E0A23E
:10009000E2E492E02A23FA90960AE04401F054FE4A
:1000A000F0909609E0A2E2E492E02A23FA90960A00
:1000B000E04401F054FEF0909609E0A2E2E492E000
:1000C0002A23FA90960AE04401F054FEF090960933
:1000D000E0A2E2E492E02AFA90960AE04401F0EA13
:1000E000FF227808EF33FF90960AE092E154FEF089
:1000F00090960AE04401F0D8EB22900A540285DD84
:100100000000220000220000220000220000220045
:100110000022000022000022000022000022000035
:100120002200002200002200002200002200002203
:100130000000220000220000220000220000220015
:100140000022000022025E100000220000220000B7
:1001500022024FBB0243620246C700002200002277
:100160000000220000220000220268F600002200A7
:10017000002200002200002200002200002202646F
:10018000D4000022026AA3000022000022026B9128
:100190000000220000220260DD0000220000220098
:1001A00000220000220000220000220000220000A5
:1001B0002200002200002200002200002200002273
:1001C0000000220000220000220000220000220085
:1001D0000022000022024C92025F88025D44025F0E
:1001E0009B025EF9000022000022025EBD020807A9
:1001F0000000220000220000220000220000220055
:100200000022000022000022000022000022000044
:100210002200002200002200002200002200002212
:100220000000220000220252520220080000220098
:100230000022000022000022000022000022000014
:10024000220266F3000022000022000022000022A9
:100250000000220000224109DC004109D6004209C9
:10026000D700004209D900004109DB004108E9003C
:100270004108E8004108F4004108E600410A87010E
:10028000410A8500410A8600410AB900410900007F
:1002900042090600004308F70C0403410A03004129
:1002A0000A0400410A0200410A0100410A0000411B
:1002B0000ABC01410ABD02410ABF00410799004141
:1002C00007970041079A004107AB00440731FFFF41
:1002D000FFFF41072B004108B5014408A8000000BA
:1002E000004208A600644408B100000000410983F0
:1002F0000042098400004209860000420980000093
:100300004109820041097F004109520042094B0026
:1003100000410953004109540041094A004109259F
:10032000FF410AEB01450848000000000041085E5B
:10033000004108D5004108D600410AF200410ACB2D
:10034000024107AC0041084500410846004108C190
:10035000004108C200410ACD00410ACC01410ACF48
:1003600001410ACE014109C9004209CC01F4410909
:10037000C60000123159787FE4F6D8FD125656EFC8
:10038000FD9006D96003A3DFFD7F277E11C3EF9D9B
:10039000FF50011EE4F0A3DFFCDEFA75810B124D65
:1003A000210203DF022A0BE493A3F8E493A34003A2
:1003B000F68001F208DFF48029E493A3F8540724BF
:1003C0000CC8C333C4540F4420C8834004F456807F
:1003D0000146F6DFE4800B01020408102040809003
:1003E0000256E47E019360BCA3FF543F30E50954FC
:1003F0001FFEE493A360010ECF54C025E060A84027
:10040000B8E493A3FAE493A3F8E493A3C8C582C81D
:10041000CAC583CAF0A3C8C582C8CAC583CADFE9F2
:10042000DEE780BEBB0111F8E58229F582E5833A5B
:10043000F583E0C828F0E8225009C58229F8C58272
:1004400026C622BBFE0DC58229F8E2C5822582F2AE
:10045000E58222EA2583F583E99322BB010FF8E5C3
:100460008229F582E5833AF583E028F0225009C518
:100470008229F8E58226F622BBFE09C58229F8E228
:100480002582F222F8EA2583F583E9932822F8E011
:10049000FBA3A3E0F925F0F0E58215827002158335
:1004A000E0FA38F022D083D082F8E493701274011D
:1004B00093700DA3A393F8740193F5828883E4737A
:1004C0007402936860EFA3A3A380DF8F828E83ED15
:1004D0007004EC600B1CE06455F0A3DDF90204D25B
:1004E00022464154313600000000000000000000A8
:1004F0000000000002FAFCFDFEFCFAFA0202FF0214
:10050000FFFDFAFAFAFDFF0202FFFF0002020202FB
:10051000FDFAFAFF0200FF00020201FFFEFAFEFEF2
:10052000FEFCFAFE02FE02FFFFFDFAFAFAFA0202F0
:10053000020101FFFEFEFEFDFDFDFAFAFF010202CF
:10054000020202FFFD020202020202FD0202FFFAA3
:10055000FF020202020202020000001A001F002431
:10056000002A0031003A0043004E005B006B007D22
:10057000009300AD00CC00F0011A014C018701CCC2
:10058000021D027C02EC0370040B04C2059906965E
:1005900007C0091E0ABA0C9E0ED83F3E3A363330C9
:1005A0002D2A272523211F1D1B1917151311100F85
:1005B0000E0D0C0B0A0907060402013F3D3B3937BB
:1005C0003533312F2D2B29272523211F1E1D1C1BC1
:1005D0001A191817161514131211100F3F3E3A3638
:1005E00033302D2A272523211F1D1B1917151413FE
:1005F0001211100F0E0D0C0B0A090807061400004B
:10060000000665120007661300015B000058595987
:10061000006464000003090E13191E2E2C2A2927DA
:10062000262423211F1E1C1B9006D7EFF0E0131376
:10063000543FFF12B87512432E9006D7E01313549F
:100640003F25E025E0FF124767900A057401F0227C
:10065000D190EF7002FF227F04120826D1797F012A
:1006600012685D7F12121BD574FFFFFE12B8577F10
:1006700008D128120F697F0122F1F37002D1802284
:100680007BDF7D30E4FF122ED17FC87E00028AF826
:100690009008D6E07003125C159008D6E07F0060E9
:1006A000027F0122EF24FC600C24F860062409700C
:1006B00006E1C5E1AE80997F0022900A06E0900A2B
:1006C000DEF0D1A4EF700B900ADEF11A70047F0106
:1006D000D1D322E4900ABBF0900ABBE0FEC394039E
:1006E000501174F72EF128E06F6008900ABBE00407
:1006F000F080E5E4900ABAF0129766900ABBF12008
:100700004002E4F0900ABBE024F7F128F11A7009E6
:10071000900ABAF12040E1F19B22E0FFD1A4EF2240
:10072000E004F0E0C3940322F582E43408F5832268
:10073000900A06E0900ADFF0E4FF1256FB9008FFF3
:10074000EFF064576004E0B44203121B9612484372
:10075000EF60047F03D1BA900A06E024FD700A120C
:1007600047FAEF70047F01F1899008FFE0B4141894
:10077000900006E0B4030A900A06E0B40D031215D7
:10078000DD900A06E0FFD1D322900ADDEFF0D1A47C
:10079000EF7007900ADDE0FFD1D322E4FF120826B4
:1007A000E4FF121BD5120F9A12B9887F0122F1ECD7
:1007B000120FEC7F0C120826E4FD7F011218531271
:1007C00031AF7F01221247FAEF7002FF22F1EC12E3
:1007D0000FEC7F03120826E4FD7F02121853126DFE
:1007E000A17FC0121BD51248777F012274FFFFFE44
:1007F00002B83F9008D6E024F7227F0022FFFFFFD7
:03080000140108D8
:10080700024FAB05320007D001F4006401F400C8C1
:10081700320AC350271007D014503C140A1E1490F4
:100827000ADCEFF0900A06E024FD601B24F7602441
:100837002408702B900ADCE064046023F12FF1ECAC
:10084700E4FF12685D8018900ADCE0640360101210
:100857004892800B900ADCE0640C600312278390B7
:100867000ADCE0900A06F0900ACDF0D1DDE4900AA8
:1008770008F01256ECF15E90085EE0B40103125BDB
:1008870044229008DDE0147002412624FD606124B3
:100897000260024165516612B5E4EF70024165D10D
:1008A700DD7F019185E49008D4F09008DEE0FF64D5
:1008B700016004EFB4020ED1D5126E53F07B017DB7
:1008C700387C04800CD1D5126E53F07B017D6B7C94
:1008D70003122E0D9008DD7404F051667F64B18D0C
:1008E7009006F3E0FFA3E09008E4CFF0A3EFF02237
:1008F700516612B5E4EF700241657F01125CE99021
:100907000AF1EFF0700221AA12000A900AF1E0B48E
:10091700030851667F647E004163F1C2707A9006D6
:10092700F7E0FFC39432504A9006F3E0FCA3E0FDE2
:10093700C3946BEC94035013ED2408FE74F82F5105
:1009470070EEF09006F6E004F0800B124FB3FF90C4
:1009570006F7516DEFF09006F7E00491959008D4F3
:100967007401F0FB7A0879DF7FD07E07B18F117EA3
:100977008031F1DEE0400B516EE024F8FEE43402F2
:100987008009516EE0246BFEE434039006F3F0A374
:10099700CEF09196F18C80079008DD74019195B1A6
:1009A70053805F9008DEE0FFB40307F1C9E09403CA
:1009B7004018EF64026004F1C27049C39006F4E086
:1009C70094389006F3E09404403AF18C126E984004
:1009D7002DF1C2702912000AF1DEE0400B516EE0E2
:1009E70024F8FEE434028009516EE0246BFEE434FF
:1009F700039006F3F0A3CEF091EAB153800291EA97
:100A07009196017E9008DD7402F0A3E09006F3B49E
:100A1700030674FFF5F08004E475F0010281D751F5
:100A27006612B5E4EF60379008D4E0FFB40203E440
:100A3700F022EFB40106E49008D4F022EFB4031ECD
:100A4700125D0A9008D5E0D394004005E014F080C9
:100A570005E49008D4F051667F2C7E01B18F227B8C
:100A6700017A0879DF22E024F8F582E43406F58379
:100A7700227F011256FB900AF0EFF01204A50AC577
:100A8700010B53020AC5030B53060B78070C6412BC
:100A97000C6D130AB9140C77150BB3210B0C230B30
:100AA700782F0AC5300C493C0AB9420AC5430000F1
:100AB7000C80B111900AF0E0FDE4FF02159491E378
:100AC70070417404F0A37401F0125CAFE4A3F0A3C7
:100AD700F0A3F0FE7F32FD7B017A0679F81287C614
:100AE700D1DD91EAD1D5FF9009C37401F0A3F0FBE2
:100AF7007D387C04122E0D7F01918551667F647EBF
:100B070000815DA11191E3600281809006F7E0C347
:100B1700943240028180C3F1CAE09403500A126DF7
:100B2700D95005125565800FF1C9E09403401012A2
:100B37006DD9400B124FB3FE74F82F5170EEF0F1E0
:100B4700D47406F051667F2C7E01815D125CA894F7
:100B5700005002818091E360028180EF14FF9006CC
:100B6700F5E09F5005E004F0802AE49006F5F08058
:100B770023125CA894005002818091E36002818077
:100B87009006F5E0D394004005E014F08006EF14DA
:100B97009006F5F09008D47402F0B161919A51660D
:100BA7007FD07E07B18FE4900A08F02291E36002BC
:100BB700818012342BD39400EE940040459006F7C1
:100BC700E0FDD3EF9DEE9400503890094BE0FCA375
:100BD700E0FD149006F5F0A3E0FFED9FEC94009084
:100BE70006F5E0500B516EE024F8FEE4340280096C
:100BF700516EE0246BFEE434039006F3F0A3CEF0CD
:100C0700801712342BC3946BEE94034010D3EF94E8
:100C170038EE94045007126E74B1538017F1BBF08D
:100C270090095304F0900954F0FB7A0879597FE84A
:100C37007E0380229181F1BBF012179EFFFEFDFC1F
:100C4700801891E370331254D6F1BBF0F1D404F05D
:100C570051667F2C7E017D007C0002B5B2F19A12AD
:100C6700B9887F018007F19A12B988E4FF02180951
:100C77009008DDE0B40102F1482291EAE4FF12078F
:100C8700F37005122D1280037F00227F0122F0E40A
:100C9700FF9185900A07E060429009DCE0640170EB
:100CA70027900A06E0B40407E4FF9185125CD89008
:100CB7000A06E0B403087FC0121BD5124866900AE3
:100CC70006E0B40C03125DC912221E1219B94006C0
:100CD70012327612B946E49009DCF0229008DDE082
:100CE700640122D1D5FF9008E4EEF0A3EFF01207DC
:100CF700F37005122D2880037F0022900A08E0B4C4
:100D07000105124889117E7F01229008DDE0D39406
:100D1700014038A3E06034E49008D4F0126E9840A4
:100D270024F1DEE0400B516EE024F8FEE43402804B
:100D370009516EE0246BFEE434039006F3F0A3CE72
:100D4700F091EAB1539196F18C117E227B017A06DC
:100D570079F27D381210297F0122126DD9500E7455
:100D6700F82F5170E024F8FEE43402800C9006F569
:100D7700516DE0246BFEE434039006F3F0A3CEF04C
:100D8700918180C87F007E007D007C0002B5B25152
:100D970078118991E3703BF19312B5E4EF6033E486
:100DA700FF122C06EF20E50F122F5D9008E4E06E8E
:100DB7007003A3E06F60109008DCE004F0E0D394C8
:100DC70002400991818005E49008DCF0F1937FFAF5
:100DD700B18D22126E5D12B5E4EF7002FF22126E22
:100DE7005D7F0AB18D12588B900926EFF0A3E014AE
:100DF7006040146067147002C19924036002C1CD7A
:100E0700900926E0FEF4701590961CE054DFF0E0A0
:100E170054BF126EA8F0E054FDF07F002290092520
:100E2700EEF07B017A09792D7F14B18D9009277433
:100E370001F0F13FE06F6002C1CD7B017A09792DA6
:100E470012B5E4EF7002C1D27B017A09792D7F5880
:100E57007E02B18F9009277402F0806FF13FE0FEA8
:100E67006F600C126E4824FDF582E4340580517BD7
:100E7700017A09792D12B5E4EF6050126E86B18DB3
:100E87009009277403F0126E7D24FEF582E4340581
:100E9700802EF13FE0FE6F600C126E482400F58251
:100EA700E43406801B7B017A09792D12B5E4EF60E3
:100EB7001A126E86B18D126E7D24FFF582E4340519
:100EC700F583E493FF22E4900927F07F0022900640
:100ED700F3E0FEA3E0227D017F01900AD2EFF0ED5F
:100EE7006401700612327612B988900AD2E0B40112
:100EF7001D12212B900A06E0B40305E4FF121BD54F
:100F0700900A06E0B40C0FE4FF121BD58008E4FD3D
:100F1700FCFFFE1222D0900A06E0B404047F019180
:100F2700859009DC7401F022B111D1DD7F01918533
:100F3700125CCFF19A02B946900926E0FF90092585
:100F470022900A08E06006E4F0919A800A900A0865
:100F57007401F0FDFFD1E190085EE0B4010312597E
:100F6700DE229181125CD8F18C919AF19A12B9889C
:100F7700124880121029E49008DCF0F1937FFAFE02
:100F8700FDFC02B5B29008DD7401F0227B017A08FE
:100F970079D7227D087F2012B9467D087F2112B9B3
:100FA700887D087F1D12B9887D087F1E12B9467D8E
:100FB700087F1C22E490094BF0A3229008DEE0642E
:100FC7000122D39006F4E0946B9006F322B153907C
:100FD70008D47403F0A322E49006F5F0A3E0D394B9
:100FE700009006F5221243417F0112B8757F011266
:100FF7004767E4900A05F0029766900A06E024FC2A
:10100700601224F8600924097017124866800812D4
:101017005DCE8003125CD87B017A0679DD7D0111F4
:101027002922900A541285E6900A57EDF0126DFEB8
:10103700124AB44002E4F0124AAC4002E4F09006CF
:10104700DB745AF0900A06E0FF60049006DCF0902B
:101057000A07E09006DDF0124C9A4002E4F0900A8D
:1010670006E0FBB4011690073AE09006DEF090091F
:1010770083E09006E331609006DF8018EBB4021737
:1010870090073AE09006E8F0900983E09006ED318A
:10109700609006E9128570124ABC12495D90072AD2
:1010A700EFF01200FAE94A4B602D900A57E06027EB
:1010B7007D5AE4FF12BA061200FAC3E994DBFF1265
:1010C70000FA900A57E09009FAF012381790072AA9
:1010D700E0FD7F4F12BA06221101900A07E0701057
:1010E7009009DCE0700A900A08F07D01FF120EE11A
:1010F7009009DCE0B401091219B94004A37401F0A6
:10110700900A08E0B40105E4F0120C9A22C374E8CF
:101117003167400FE49006E8F07B017A0679E87DB5
:10112700011129C374DE3167400FE49006DEF07BBE
:10113700017A0679DE7D011129C374DD94DBFF1284
:10114700BFF4900AE3EFF0900A07E06F600A7B01B3
:101157007A0679DD7D01112922F09007830284D375
:1011670094DBFF12BFF4900AE3EFF0D394012290CF
:101177000A06E0FBB40107B1D39006E48009EBB49B
:101187000208B1D39006EE128570126DFE900A0622
:10119700E0B401087B017A0679E4800D900A06E045
:1011A700B4020A7B017A0679EE7D04112922E490C4
:1011B7000A8EF0A3F07F011256FB900736EFF090EE
:1011C7000798E06029900736E070237B017A07795A
:1011D700A612B5E4EF6017B1F5EF700D900739E08F
:1011E7007D06B401027D07B1D9E4900798F0900716
:1011F70035E0640670028105A3E01204A5130E060C
:10120700131A0712B60C1247121275131309151386
:101217006F21133A26133A27135328135329133AE6
:101227002A13532B130E2C131A2D12EF2F12A33040
:10123700136F3C13D86312476512756600001405D7
:10124700900A07E0C394205006900A8F121FDA9085
:101257000736E0646560028105121FEF60028105B1
:10126700900A8FE0600281057D017F0580291219B0
:10127700B94006900A8E121804900736E06466603B
:10128700028105900A07E060028105900A8EE060FE
:101297000281057D017F061218538105900737E00B
:1012A700B40304E4F0803A9007377403F080329077
:1012B7000737E0700404F08005E4900737F09007E3
:1012C70037E0B4040B90073A7401F090076A80087E
:1012D700E490073AF09007681254A1F0A3EFF031B9
:1012E700767F01125BFA8105900738E004F0E0C3CE
:1012F700940B4002E4F0124FFD31767F01125C003F
:101307008105120F488105B1E45002810591CFE4B0
:10131700FF800AB1E45002810591CF7F01F1D97BAB
:10132700017A0779A67FE87E03FDFC12B5B2900724
:10133700988030B1E75002810591CF7F02F1D9B192
:10134700F5EF600281057D06F1E28017B1E75002F3
:10135700810591CF7F03F1D9B1F5EF600281057D5A
:1013670007F1E27401F0810512342BC390002DE0E0
:101377009F90002CE09E4030125E49402B90073A28
:10138700E07025900766E06E7003A3E06F60199127
:10139700CF90094B1254A1F0A3EFF0120FBBF0B19D
:1013A700F5EF70047D06B1D91254C11254CA9E409C
:1013B70011D3ED9400EC94004008F19E7FE87E0382
:1013C7008006F19E7F007E00120D8F120FBBF0800A
:1013D7002D9007ACE0B40126E4900A90F090073511
:1013E700E0B40208F1A5900A907401F0123CDE9077
:1013F70007AC7402F0900A90E0B4010291F19007F3
:1014070035E06402601690079AE0701004F0FB7AEA
:1014170007799B12329B9007AB7401F0900735E078
:10142700B4020C90079AE06006E4F09007ABF090E6
:1014370007ABE06026F1EA12B5E4EF601E900735CE
:10144700E06402600C122AA2E4FD7F07121B8D8064
:101457000AE49007ABF0F1EA126DF7900735E01454
:10146700600F24FE600704700B91F18007F1A580DF
:10147700031254AA90072BE0600D125E04EF600779
:10148700E490072BF0802690072BE07020125E0473
:10149700EF701A90072B04F0900735E0B4020EB1F5
:1014A700D3EF2401FFE43E1237BB124C86B1D39031
:1014B7000731D1DB6011125233D1BA400AB1D39050
:1014C70007311285703176227B017A07796812A677
:1014D7008F9003F312857C00000000B1DDE4FDFF6F
:1014E700120EE17F647E00028AF8125247600612EC
:1014F700CEB0EF7011900737E0640370257F0A12B2
:101507005235D1BA401C91CF900737E0640160058E
:10151700E4FF12539BB1F5EF70087D067F01B1948C
:1015270080427B017A0779A112B5E4EF6018900A2F
:1015370008E07012900797E0700C120C9A12276C53
:101547009007977401F01251B0EF701A91CF90077E
:1015570039E0FF64026003EF70047D0680027D07B7
:101567007F01B1948070F1F6600B24FE601814605F
:10157700152404701712CECF124FE7900735740366
:10158700F0126EB08003F1D2F0125C0622900A4C82
:10159700ED12575B12810FC3940840037F0022901E
:1015A7000A4CE0FFA31257497401120424FD12806C
:1015B700F62DFD7C00ED5407FD900A4D125750E9BA
:1015C7002DF9EC3AFAEF12813C7F01229003F302E6
:1015D70084D37F01B1949007357401F02212087EFD
:1015E700D390002DE0940190002CE09400227B0022
:1015F7007A007900900A8B1285E6E4900798F090BC
:10160700073AE070151254C1D3900767E09F90071F
:1016170066E09E4005E4F0A304F0900A8B1285DD96
:101627009005131285E6900766E0FFA3E090051684
:101637001267AB7A077968129C6BEF7007900ABE46
:101647007405802B7B017A0779777D0B12495D90B2
:101657000983EFF07B017A0679DB7D5011297B0145
:101667007A07796812CEE6EF7009900ABE7407F020
:101677007F00229003F312857C000000009007A0F2
:10168700E0601CE4F0124C699003EF1284D39003DE
:10169700F3D1DB400A9003F312857C0000000012AF
:1016A7005062EF7F017001FF22E47F487E0DFDFC51
:1016B7009008B11284DFD302840E128358AC00ADB8
:1016C70001AE02AF039009121285709009121284BD
:1016D700D390090E1284DFC302840E9006D8E0FF70
:1016E70064086007EF64206002E1927B017A097960
:1016F700767FAC7E0D120D8F7B017A09797612B554
:10170700E4EF6002E18D1297661267BB90097B12C6
:1017170085707F807E7F7DA57C5A90097BD1DB60B9
:101727005A7F807E7F7DA07C5F90097BD1DB604BF9
:101737007F807E7F7DA17C5E90097BD1DB603C7FD3
:10174700807E7F7DA27C5D90097BD1DB602D7F80D1
:101757007E7F7DA37C5C90097BD1DB601E7F807ED2
:101767007F7DA67C5990097BD1DB600F7F807E7FD0
:101777007DA47C5B90097BD1DB700B1256EC9096B5
:1017870002E054BFF0227F01121BB822E4900860E8
:10179700F07D01FF12590C7B017A08795922F1F685
:1017A700600B24FE601E14601B2404701D11DF12E1
:1017B700CEB8124FF21251A77E27120D8F90073520
:1017C70074028002F1D2F0125C062291CFE4900AF3
:1017D700082212539BE4900A08F0227F01B19490EB
:1017E7000735227B017A07799B2291CF7F012290CF
:1017F7000736E024FE2211DF7F010200127401F098
:10180700E4FFEFB4010E900A07E0C39420500CE008
:1018170004F0800731B94003E014F0900A07E0B400
:1018270020117D017F0531C1B40C0831A2EF70038F
:10183700120C9A900A07E070117D017F0631C1B43E
:101847000C0831A2EF7003120C9A80AA900AAAED35
:10185700F0900AA9EFF064096004E0B40A037F007E
:1018670022900ACAE07002FF22900A07E0900AABB2
:10187700F012CECF124FE7900A06E0B40403120E1F
:10188700DD120FEC900AA9E0FF1234ED123575EF67
:10189700600512976680F5125DB4900AABE0900A76
:1018A70007F0900AAAE06006125DC0120C9A7F0149
:1018B70022E4900AADF0A3F031AEEF60129008C3B6
:1018C700E0700C04F0FB1232979008C27401F031FB
:1018D700AEEF70169008C3E0601031B9400CE49089
:1018E70008C3126DF0E49008C2F09008C3E06008E6
:1018F70012327612B9888003120C9A7B017A087922
:10190700C412B5E4EF60209008C2E0601A31AEEF70
:10191700600E126E0F122AA2E4FD7F07718D8007F9
:10192700E49008C2126DF07B017A0879CA12B5E417
:101937007F011256FB900AACEFF024ED603524AE20
:10194700600714602E24547051900A07E0C3942056
:101957005005900AAEF1DA900AACE06465703BF18D
:10196700EF7037900AAEE070317D017F0531A870C6
:1019770029802431B94005900AAD1104900AACE0E2
:10198700B46617900A07E07011900AADE0700B7DFE
:10199700017F0631A87003120C9A229008C3E0FF5A
:1019A70022115331A2EF22E4FF125DE930E7027FF3
:1019B7000022900A07E0D39400221153900A06E010
:1019C700227F011256FB900A88EFF0E4A3F0A3F000
:1019D700EF14605B24EE603524FE605324B060078B
:1019E70014602A2454704B900A07E0C394205005D2
:1019F700900A8AF1DA900A88E064657035F1EF7031
:101A070031900A8AE0702B7D017F05802031B94033
:101A170005900A891104900A88E0B46615900A07B0
:101A2700E0700F900A89E070097D017F060153126B
:101A37000F4822900AC0EFF0E4A3F0D39008A7E084
:101A470094009008A6E0940040229008A81284DF32
:101A5700C000C001C002C003122935E4FCFDD00359
:101A6700D002D001D000126E64126E1D9008A6E05D
:101A77007002A3E0600261677B64FAF9F89008A836
:101A870012474A9008B11285709008A6E4F0A37433
:101A970064F0A312857C00000000E47F107E0E1224
:101AA70016B540089008A07402F0801BE47FAC12C2
:101AB70016B340089008A07404F0800B1216B040CB
:101AC700069008A07405F01216B04015E47FAC7EAE
:101AD7000DFDFC9008B11216DB50069008A07405A6
:101AE700F0900AC0E0B4010B1216B05006900AC17C
:101AF7007401F0900AC0E0700B1216B15006900AFC
:101B0700C17401F0900AC1E0640170549008A07498
:101B170006F01200161297669008B5E06030E4F000
:101B27007B017A0879AC7F107E27FDFC12B5B27D68
:101B3700017F0411537F647E00128AF8900A06E041
:101B4700640C701C31A2EF7017120C9A80127B0183
:101B57007A0879AC12B5E4EF6006E4FD7F04718D75
:101B6700020016900A87E0701C900AB9E0701612FE
:101B77005B7112327612B988900A06E0B40C031230
:101B870027831234342211537FE87E03128AF81216
:101B97005B71900A06E0B40403120F2F126EB0E4D3
:101BA700FF71D5E4FF1220D07F017E0012BABB7F00
:101BB70001900AF7EFF012C8DB12C8BB90988CE0CF
:101BC7004401F012432E900AF7E0FF02B905900A8C
:101BD700D7EFF01222C054449008E8F0900AD7E0FB
:101BE700F0FF9008E9E0B50706F1CB7002A1469037
:101BF7000AD7E0701E909C49E054096002D100F1B9
:101C0700C46002D19B909C49E054127002A135B187
:101C170047A135900AD7E0FF5409603FF1C4600738
:101C2700EF54247002D19B909C49E054126020F13C
:101C3700E0701CEF54C070179008E9E0541260047C
:101C4700B147800B9008E9E054C0600312282A903E
:101C57009C49E0540964096002D149F1E06036907B
:101C67009C49E054096007EF54097002D100F1C4A0
:101C7700600A900AD7E054247002D19B909C49E0F7
:101C87005412600BE05412FFF1CB6F6002B147F1C1
:101C9700CBFF1223D4900AD7E0FF54246024909CF2
:101CA70049E054096007EF54097002D100909C493C
:101CB700E05412600BF1E07007EF54C07002B147B7
:101CC700D1F2900AD7E0FF54C06063909C49E0547A
:101CD700096007EF54097002D100F1C4600A900A45
:101CE700D7E054247002D19B909C49E054126006BF
:101CF700F1CB7002B147909C49E05412FFB4120433
:101D07007FC0800EEFB402047F408006EFB410025C
:101D17007F80EFD39400400C900AD7E054C06F60E7
:101D27000312282A900AD7E054C0FF122628900AE7
:101D3700D7E0FF9008E9E06F6002EFF01220B322CE
:101D47007F01120C851227525004AF068000900ABB
:101D5700D5EFF0909C41E09008F3F0909C42E09022
:101D670008F6F0900AD5E0C3944050141297669095
:101D77000AD5126E8FF0D117900AD5E004F080E3F0
:101D8700D1E5909C4FE0549FB1DBB1C8909C4FE0E8
:101D970054E7B1DB909C4CE054FCF07F147E00B11B
:101DA700E0120F2FD192EFF47002EEF46012D1928D
:101DB700EFF47003EE64FE6007909C48E04401F086
:101DC70022909C49E054EDF07F027E00B1E0909CA8
:101DD7004FE054F9F07F027E00900AB2EEF0A3EFD5
:101DE700F0900AB274FFF5F01281ED45F060091228
:101DF7009766D117D11780E9221223BC12219AD1F5
:101E0700E5909C48E04422F1D254F6F17A4411F06F
:101E170012B8A0EFFD7C007E017F90128182EF2433
:101E270001FFE43EFE909904E020E00BEF7802CE3C
:101E3700C313CE13D8F9FFEF1FAC0670011E4C7009
:101E4700F622909C437403F0A3F1D24409F17A542B
:101E5700EEF17A54DDF0D117D192EFF47002EEF47F
:101E67006008D192BEFE0ABFFF07909C43740280B0
:101E770005909C437401F0A3F0F1E87005126E6DB4
:101E8700D1EB126EB77F507E00A1E090966BE0FE1B
:101E9700A3E0FF221227525004AF068000900AD415
:101EA700EFF0909C41E09008EAF0909C42E09008A7
:101EB700EBF0900AD4E0C394405014129766900A4E
:101EC700D4126E8F122123900AD4E004F080E3D15C
:101ED700E5909C49E054DBF07F037E00A1E0909CF5
:101EE70048E04444F07F0A7E00A1E01223CBF1D3FF
:101EF7004424F0D117909C47E04403F07FF47E011F
:101F0700B1E0909C47E054FCF0F1E87004126E6D6C
:101F1700F0D1EC1227525004AF068000900AB4EFBC
:101F2700F0A3743FF0900AB4E0FFA3E0D39F4032E0
:101F37001297669008EAE0FF900AB5E0FEC39F405B
:101F470005909C41EEF09008EBE0FFEEC39F400840
:101F5700900AB5E0909C42F0D117900AB5E014F0D2
:101F670080C39008EAE0909C41F09008EBE0909CD9
:101F770042F022F0D117909C48E022900AD3EFF06C
:101F8700126E27D1EB909C45E054FAD1EB909C461A
:101F9700E0547FD1EB909C46E054DFD1EB909C4618
:101FA700E054EFF0900AD3E0FF12275F120D8F90F5
:101FB7009C4BE020E3061225B560F42222909C4951
:101FC700E0542422900AD7E0541222F0D117909CB3
:101FD70049E0227401F0FF0109900AD7E0FF54128B
:101FE70022D1179008E8E022900A07E064202290A7
:101FF70005BFE0B40508A3E0B4AC037F01227F006E
:1020070022121FF69006ACEFF022115A30E0027F41
:10201700019008E7EFF0909901C083C082E0FFA329
:10202700E04401D082D083CFF0A3EFF0909C06E08C
:102037004480F022115A30E0027F01900AFAEFF053
:10204700909901C083C082E0FFA3E04401D082D011
:102057008380D4909901A3E07F0022AE071111EE8F
:10206700543FFEED543FFD121FC4600A9008EAEE8C
:10207700F0A3EDF08012909C49E05412602E900876
:10208700F3EEF09008F6EDF0909C48E020E20B901C
:102097009C41E0543F6E6002EEF0909C48E020E6E1
:1020A7000B909C42E0543F6D6002EDF09008E7E032
:1020B700701612523CC083C082E0FFA3E054FED0EA
:1020C70082D083CFF0A3EFF022AE071111909C4688
:1020D700E04410F0AF06F15F120D8F909C4BE020AB
:1020E700E204B1B560F5126E273123909C46E044B7
:1020F70020F0121E17909C45E04405F0121E179021
:102107009C46E0547F3123909C49E054BFF0121E57
:1021170017E49008F4F09008E9F08090F07F017ED2
:1021270000021DE051C05444FFBF44028063909CED
:1021370049E05409600471BC319A121FC47005E06C
:102147005412603E121FC4600AF1525004AF068059
:102157000A8008B1CA5004AF068000900AD8EFF091
:10216700900AD8E0C3943F5017129766900AD8E0B8
:1021770004F0E0543F909C41F0A3F0121E1780E05A
:1021870071CB909C48E0544464446005E04444317A
:102197009A01B3F07F507E00021DE0AE079008F46D
:1021A700E070731111AF06121F82909C00E4F0904B
:1021B7009C49E04440F0121E17F1D87481F0909CBE
:1021C7000014F1007002EEF46009121E92BEFE0DBB
:1021D700BFFF0A909C437402F0A3F0800D909C43CC
:1021E7007401F0A3F0909C4AE4F0909C04E4F07131
:1021F700C37411F09008F3740AF09008F6F0B192E6
:10220700E49008E9F09008F404F071BCF07F327EA6
:1022170000121DE011B32251C05444700241BE7137
:10222700CB909C48E05444600BE054BBF07F1E7E8B
:1022370000121DE0909C49E054096003126EB7122A
:102247001FC47005E05412606E121FC4600FF15274
:102257005004AF06800051C79008EB800DB1CA50FB
:1022670004AF06800051C79008F6E0900A42F0904C
:102277000A43743FF0900A40E0FF900A43E0C39F8F
:102287004035129766900A43E014F0900A41E0FF48
:10229700900A43E0FEC39F4007EE543F909C41F0F5
:1022A700900A42E0FFEEC39F4008A3E0543F909C92
:1022B70042F0121E1780BE01B31111909C48E02214
:1022C700900A40EFF0A3EEF022900A3C125F7EEDF9
:1022D700F01111121E92EFF47002EEF4605F121EFD
:1022E70092EFF47003EE64FE6053900A3CE0FEA3A5
:1022F700E07802C333CE33CED8F971A4900A3CEE0E
:10230700F0FAA3EFF0FBA3E0FEA3E07802C333CE1D
:1023170033CED8F971A4900A3EEEF0A3EFF0D3EBD9
:1023270094EAEA940B4005900A3C71B4D3900A3FB3
:10233700E094EA900A3EE0940B400271B4900A3CA4
:1023470071ACA371AC900A3CE0FCA3E0FDECC45473
:10235700F0FBA3E04B9008F1F0AF05A3EFF0900A74
:102367003EA3E09008F5F0909C04EFF0909C02E00B
:10237700540FF0C083C082E0FF9008F1E0FE54F0F4
:10238700FDEF4DD082D083F09008F5E071C3E054A3
:10239700F0F0E0FFEE540FFEEF4EF001B3FF7C00CC
:1023A7007D05028182E0540FF0A3E0F022740BF068
:1023B700A374EAF022909C01E0440322909C03F06E
:1023C700909C0222909C41743FF0A3F022900A7FD8
:1023D700EFF0909C4EB1AD909C4DE0543F900A8138
:1023E700F1007002EEF46013121E92EFF47003EE28
:1023F70064FE6007909C48E054FEF0909C4CE044DB
:1024070003F0909C41E4F0A3F0909C4FE044181235
:102417001DDB909C4FE04401121DDB909C4FE04474
:1024270006121DDB909C49E04412121DDB7B017AEA
:102437000879EC7F107E27120D8F9008E6E0600286
:10244700A10E909C4BE020E05C909C4BE030E002BA
:10245700A108B1B56002A108121E92EFF47002EE56
:10246700F4600C121E92EFF47003EE64FE70249079
:102477000A80E014B19F909C4EE07025ED643F7098
:1024870002A108900A807440F0A3E025E0F044011F
:10249700F0800E900A80E014909C4EF0B1ADE060A1
:1024A70060B1C380A4909C4BE030E055909C4BE01A
:1024B70030E04EB1B5704A121E92EFF47002EEF49E
:1024C700600C121E92EFF47003EE64FE701F900A08
:1024D70080E004B19F909C4EE0643F7020ED602146
:1024E700900A8074FFF0A3E0C313F08010900A8075
:1024F700E004909C4EF0B1ADE0643F6004B1C3804E
:10250700AB9008E67401F0121DC8909C4FE054FE92
:10251700121DDB71CB909C4FE04406121DDB909C93
:1025270049E04412121DDB909C4FE04460121DDB12
:1025370012001A9008E8E07004126E6DF0121EEC9B
:10254700B1CA5004AF068000900A81EFF0900A806C
:10255700743FF0900A81E0FF900A80E0D39F402704
:10256700F149900A80E0FEC39F4005909C41EEF040
:10257700F1404008900A80E0909C42F0121E1790AC
:102587000A80E014F080CC9008F3E0909C41F09032
:1025970008F6E0909C42F022909C4EF0900A81E071
:1025A700FD909C4DF0A3E0543F900A80F0221297D3
:1025B700667B017A0879EC12B5E4EF227F057E008D
:1025C700021DE09008F6E0FF9008F3E0FEC39F22AB
:1025D700900AD9EFF01111900AD9E0FF30E602F125
:1025E7002FEF30E702F127900AD9E030E602F11F1A
:1025F700900AD9E030E702F117121DDC900AD9E002
:10260700FF30E602F10FEF30E702F107121DDC9011
:102617000AD9E0FF30E602F137EF30E702B1960161
:10262700B3900A82EFF030E602F12F900A82E0FFC2
:1026370030E702F127EF30E606909C41743FF090B7
:102647000A82E030E706909C42743FF0900A82E0ED
:10265700FF30E602F11FEF30E702F117121DDC90A1
:102667000A82E0FF30E602F10FEF30E702F10712CE
:102677001DDC9008E8E06444601A900A82E0FF30AD
:10268700E607909C48E054FBF0EF30E707909C4842
:10269700E054BFF0121EECB1CA5004AF06800090A0
:1026A7000A83EFF0A3743FF0900A83E0FFA3E0D31F
:1026B7009F4035F149900A84E0FEC39F400C900A81
:1026C70082E030E605909C41EEF0F140400F900A21
:1026D70082E030E708900A84E0909C42F0121DDC0B
:1026E700900A84E014F080C0900A82E0FF30E6028E
:1026F700F137EF30E702B19622F0121E92EFF42283
:10270700909C4FE04420F022909C4FE04440F02200
:10271700909C49E04410F022909C49E04402F0224A
:10272700909C4CE04408F022909C4CE04404F0223A
:102737009008F3E0909C41F0229008F6E0FFEEC38A
:102747009F221297669008F3E0FF229008EBE0FFC4
:102757009008EAE0FEC39F22F1E07B017A0879EC5A
:102767007FB87E0B22900A07E025E02458F582E423
:102777003405F5831267B3FDAC0641D0120EDD3187
:102787002BE4FF121BD5126E0F126E3C12B94612C4
:10279700348F125BDC126D2502B9881111909C00F1
:1027A700E4F0F1D874A3F0909C007480F090964107
:1027B7007420F07D037F1D12B9467D037F1E12B979
:1027C700887D047F1D12B9887D047F1E12B94601DA
:1027D700B3909C057442F0A322900A7CEFF0A37497
:1027E70001F0129766909C46E054F0900A7EF0E064
:1027F700FF900A7DE0FEEF4EA3F0900A7CE0B40163
:102807000BEEB40707900A7EE04408F0900A7EE0DA
:10281700909C46121EEB900A7DE004F0E0C39408FA
:1028270040C0221225CA5004AF068000900AD6EF96
:10283700F0900AD6E0D3943F502C129766909C49AB
:10284700E030E108900AD6E0909C41F0909C49E086
:1028570030E408900AD6E0909C42F0121DDC900A02
:10286700D6E004F080CB909C49E030E107909C488B
:10287700E04404F0909C49E030E407909C48E04431
:1028870040F0121EEC909C49E030E10211C6909C8A
:1028970049E030E40211BE121DDC909C49E030E1B2
:1028A70004E054FDF0909C49E030E404E054EFF07C
:1028B7007F027E00021DE0909C4FE054DFF02290E3
:1028C7009C4FE054BFF0221220119008E9E0541207
:1028D700702E909C49E030E10211C6909C49E0308F
:1028E700E40211BE121DDC909C49E030E104E05483
:1028F700FDF0909C49E030E404E054EFF0121DDC59
:10290700909C4CE030E204E054FBF0909C4CE030AB
:10291700E304E054F7F00220B3EF909C50B40105B4
:10292700E054FCF022E04402F0E054FEF022907FF5
:10293700DFE493543FFF900AB6E4F0A3EFF0900A68
:10294700B6123E9D9424EE94004009D3EF942CEEEA
:1029570094004009900AB6E4F0A37428F0E4FDFF60
:1029670012B0157E007C0C7D1C1285EFC006C007D7
:10297700900AB6E0FEA3E0FBAA06E4F9F8D007D078
:1029870006128358C3EF94B8EE940B50067E0B7F64
:10299700B8800DD3EF94F8EE941140047E117FF8C0
:1029A7002231EF120D8B7B017A0879B6120D8B90CD
:1029B70008A6E07002A3E0602A126E1D9008A81214
:1029C70084DFC000C001C002C0033135E4FCFDD084
:1029D70003D002D001D000126E647F057E00128AF8
:1029E700F880CC7F01021A3A7B017A0879A122315B
:1029F700EF12B5E4EF600C31EF7F32120D8DE4FF7B
:102A0700121A3A2212300A1207EC12B8CC12976641
:102A1700124341124773D2AF1256E57143F09096B5
:102A270001519EF1D41256EC1216E2909602F1A6CD
:102A3700714EF0909601E0444051A1E4FDFF123041
:102A4700E612327612B988E4FF1258CC31A8E4FFB7
:102A57001221A212499C123BAE123E3912479C1218
:102A6700976631F61232A6120730900A06E024FE66
:102A7700600E14601A14600D24F8600E240B701297
:102A87001211B5800D120D9680081218B880031226
:102A970019C8125BF080C8E054BFF07F027E0002C5
:102AA7008AF8E4900927F0126E5D126DF77D807F3A
:102AB7001D12B9887D807F1E12B9887D807F201204
:102AC700B9887D807F2112B94690961DE054DFF0CA
:102AD700A3E04420F0909620E04420F0A3E04420B7
:102AE700F090961CE054EF51A190961DF1A6F0903E
:102AF70096207152F090961C519E909602E054FBDE
:102B0700F0A3E04404F0909605E04404F0A3E04409
:102B170004126EA851A1909602E054FDF0A3E04480
:102B270002F0909605E04402F0A3E04402F090968C
:102B370001E054FDF07F027E00028AF8909602E0E1
:102B47004440F0A3E054BFF0909605E04440F0A362
:102B5700E0444022900AA0EFF0E4FF9106EF30E155
:102B67000B900AF2E0D39419500261FDE4900AF247
:102B7700F0900AA0E06005F15D126E74F10A20E39F
:102B8700727F3C7E00128AF8120ED5FFC394B6EE10
:102B970094034009D3EF94BAEE94034012C3EF9421
:102BA7001FEE94044012D3EF9423EE94045009F1DE
:102BB70010941E400C7F0122F110940A40037F01FC
:102BC70022E4900AA2F0900AA1F051A2F10A7F0133
:102BD70030E0027F00900AA2E02FF0E0D394034098
:102BE700037F0122900AA1E004F0E0C3940A40DACF
:102BF7007F00227F0022900AF2E004F07F032290F8
:102C07000A9AEFF0E4A3F0A37408F0900A9CE0148A
:102C1700F06018900A9AE0FD7C007B017A0A799BA4
:102C2700900997F19E124275EF60E0900A9BE0FFD2
:102C370022E4FFFE91517D807F4F7E0091517F4FAF
:102C47009106EFC313FD7F4F7E00900A5CEEF0A361
:102C5700EFF0A3EDF0A37408F0900A5FE014F060C2
:102C670019900A5CE0FCA3E0FD7B017A0A795E908B
:102C7700098EF19E1242BAEF60DF7F01227D81E467
:102C8700FFFE91517F0A7E00128AF8E4FD7F01FE64
:102C970091517D017F157E0091517D087F167E0041
:102CA70091517D5C7F177E0091517D477F547E0057
:102CB70091517DC47F197E0091517D707F407E00C8
:102CC70091517D9E7F337E0091517DD67F2D7E0071
:102CD70091517D107F437E0091517D397F477E0062
:102CE70091517D11E4FFFE91517DA97F1D7E0091D9
:102CF700517D40914D7D0C7F347E0091517D337F16
:102D0700357E0091517D127F36D1F8EF60047D301A
:102D170080097FC87E00128AF87D107F4A7E008175
:102D270051900AC8EEF0A3EFF0F13D7D70F12F7DD1
:102D3700527F2C7E0091517D507F457E0091517DC1
:102D4700CA7F41D1F89106EF54BFFF900AC8E0FC53
:102D5700A3E0FD64A67003EC64036024ED64AB702C
:102D670003EC6403601AED64B97003EC640360104C
:102D7700ED64E67003EC64036006BC0409BD180645
:102D8700EF4440FF8004EF54BFFFAD077F01D1F848
:102D9700B112900AC8E0FEA3E0FFB1B27D139138EB
:102DA7001237D07D707F497E008151900AC4EEF0C2
:102DB700A3EFF0E025E0FF900AC4F121F0F1037FD3
:102DC70008D1FF7F09D1FF7F077E009151900AC488
:102DD700E0FCA3E0FDEC5403FBEDAE047806CEC3A4
:102DE70013CE13D8F9540C4BFB900AC4F1C54B44CE
:102DF70040FBFD7F0A7E008151B1B27D1191387D84
:102E070012E4FFFE81519009BE125F7EEDF0A3EB45
:102E1700F0E49009C5F09009C4E06002D19C9009E4
:102E2700C3E0606C9009BFE025E0FF9009BEF12187
:102E3700F0FD9009C1E025E0FF9009C0F121F07F86
:102E470008F117F1357806CEC313CE13D8F9540C11
:102E57004D9009C5F09009C0A3E0FD7F09F11790D7
:102E670009C0F1C5FFED4FFF9009C5F09009C2E019
:102E7700C4333354C04F9009C5F0FD7F0A7E0091DB
:102E8700517B027D03E4FFD1D1E4FD7F4FFE8151E9
:102E9700F135FFC100F13D7D78F12F7D757F277EEC
:102EA7000091517D037F387E009151E4FD7F2FFE15
:102EB70091517BC07DC07F3AD1D17B147D3F7F018B
:102EC700D1D17D897F397E008151900A9EEDF0A393
:102ED700EBF0900A9DEFF09106AD07900A9EE0FF98
:102EE700F45DFDA3E05F4DFD900A9DE0FF7E00814C
:102EF700517E0091517F01227E009151900AC4A317
:102F0700E0FD227F049106EF227F029106EFD32294
:102F17007E0091519009C5E0FD22E033FEEF245079
:102F2700FFEE34FBF0A3EF227F1B7E008151900957
:102F3700BEE0FEA3E0227D7A7F497E008151918425
:102F47007F6B7E03B1287F149106EF54C04407FDC1
:102F57007F147E008151E4900AC6F0A3F07F0A91A6
:102F670006AD07ED5403FDFF900AC6E4F0A3EFF0AA
:102F77007F079106AD07900AC7E0FE7C00E42DFFAE
:102F8700EC3EFE900AC6F0A3EFF024B0FFEE340447
:102F9700C313FEEF13FF227401F0A3F07F2022E09A
:102FA70054BFF0A3E0444022F10A7F0130E0027FE2
:102FB70000227F01B1127B207D30E4FFC1D1E0C444
:102FC700F854F0C8A3E0C4540F4854302251A91252
:102FD7000FBBF07B017A09794DFFFEFDFC02B5B20C
:102FE700909801E0FDEF543FFCED5CF0EF30E50B0E
:102FF70012300390B100E054BE11B22290B00074B9
:10300700FFF02290988AE04430F090988CE054FAD0
:10301700F01103909804E0B4170890B0077403F018
:103027008009907FC0E49390B007F090B000E4125D
:1030370027004E6007110390B00811AF7D027F078C
:1030470012B9887D027F0512B98890B009E020E1A6
:1030570056110390B00911AFF50AF50B050BE50BF7
:103067007002050A640A450A70F2E4F50AF50B9046
:10307700B004E030E01F90B004E030E102801105B9
:103087000BE50B7002050AD39440E50A941F40DF55
:10309700E4FF02BA9A90B004E020E0DAE020E1D63B
:1030A700E4FF12BA9A913422E04402F090B000E4AF
:1030B700F022900AF8EFF012B957900AF8E0FF7083
:1030C70008110311DD4404800AEFB401081103114C
:1030D700DD440811B22290B009E054F3F0E0221168
:1030E70003EF700F90B204F090B203312490B20551
:1030F700F08024EFB4010E90B204E4F0A3312490E1
:10310700B203F08012EFB4020E90B203E4F090B273
:1031170005312490B204F090B000E4F022F0ED9075
:10312700000E932212BA95110390B100E0444101B9
:10313700B21103A3E054FBF090B100E054BE01B21A
:1031470090B009E020E00A110390B009E0440111B2
:10315700B222900AF97414F0F1C331A6E0700C9012
:103167000AF9E0FF14F0EF70F631A6909800E054EA
:10317700FEF0126EA06005EF6420701A319EBF0446
:1031870004E4FF8007319EBF08047F0111B97F0166
:1031970012C06B12C00E2290B009E0540CFF2290AF
:1031A7009803E09006D8F0229008C97401F09008BF
:1031B700BBF07D807F0C12B9467D807F0A12B9462D
:1031C700126DA1125DC9120C9A1219AEEF600C9024
:1031D70008C37401517512B9888009E49008C35176
:1031E7007512B9461219AEEF60129008C3E0600C71
:1031F7007401F0FB51979008C27401F012488012D5
:103207001029126E3C12B988918F12B9887D207FE0
:103217000F12B988126D2512B9887D017F2012B966
:10322700467D017F2112B9887D017F1E12B9887DF5
:10323700017F1D12B9467D027F2012B9467D027FAC
:103247002112B9887D027F1E12B9887D027F1D1267
:10325700B9467D807F0212B9467D807F0312B98807
:103267007D807F0512B9467D807F0602B946F07DD5
:10327700107F2012B9467D107F2112B9887D107FFB
:103287001D12B9887D107F1E12B9467D107F1C2242
:103297007A0879C47FC07E277D097C0002B5B2F128
:1032A700D7900AE4EFF060097B0151971217EA51B2
:1032B7009B900954E0B40105912B12002190094B12
:1032C700E07002A3E060257B017A09794D12B5E42D
:1032D700EF7007900AE4E0B422129184120D8F90E8
:1032E7000AE47421F0E4900954F08114900AE4E0B0
:1032F700FFC3941650026181EFD39420507C914014
:103307006013EF6402600EEF640460028101120C27
:10331700E3600281019148900AE4E0FBB4201B912D
:103327002B7C007D0A128182ED4C6004120FBBF0EA
:10333700917A9009527401F08025900952E060114A
:10334700EB24EAFFE434FF90094B8FF01281D7801A
:1033570009900AE4E024EAFF9152E4900952F0E46C
:10336700900AE4F07B017A09794D7FD07E07FDFC56
:1033770012B5B2912B1200218114900AE4E0FFC329
:103387009431407DEFD3943B50779140600FEF64C9
:1033970002600AEF64047075120CE3707091489133
:1033A70084FDFC12B5B2900AE4E0FFB43B04917AC5
:1033B7008006EF24CFFF9152912B1200219140609C
:1033C70004EFB402101254C1D390094CE09F900946
:1033D7004BE09E401D900A06E0B4041E9008DDE015
:1033E700B40117D390094CE0943290094BE0940054
:1033F7005008900AE4743CF08013E4900AE4F080EB
:103407000C900AE4E06006120FBBF09149900AE4C1
:10341700E0FD600F7F01121594900AE4E0FDE4FFE0
:103427001215942290094BE0FEA3E0FF22D310AFC0
:1034370001C3C0D012BAA280FE900A06E0FF640161
:1034470022E4900954F0900953F022AB07912BC363
:1034570094E8EE940350117C007D0A128170EB2FE3
:10346700FFEC3E90094B8006AF0390094BE4F0A3B5
:10347700EFF02290094BE475F00A0281D77B017ABD
:1034870009794D7F887E13227D017F0212B9887DDD
:10349700017F0312B9467D027F0512B9467D027F7F
:1034A7000612B9467D027F0212B9887D027F031298
:1034B700B9467D027F0112B988E4FDFF11E67D045C
:1034C7007F0512B9467D047F0612B9467D047F0247
:1034D70012B9887D047F0312B9467D047F0112B9B2
:1034E700887D207F0E22900AF6EFF0900845740140
:1034F700F0125D77EF7002FF2212C7F7900821E004
:10350700FF12530B900AF6E0FF7E00E4FDD119EF9E
:103517007002FF22B168B199EF4E7002FF22B168C5
:1035270012CDA0900AF6E0FF640A6009EF64096013
:1035370004EFB40808900A077410F08006900A0791
:103547007418F07F09121BD59008231250F6122227
:103557001E517612B946F1D012276C12CEB87F01F0
:1035670022900403E0FEA3E0FF7D007C0222125DAF
:1035770064EF60037F002212BD13EF70037F012207
:10358700B168B199EF4E7002FF22B16812CDA07FEA
:103597000122900A64125F7EEDF090080F1284D327
:1035A7009007FF1284DF1282B2C006C007900A6438
:1035B700E0FEA3E0AA06F97B01A3E0FFA3E09009E0
:1035C700AACFF0A3EFF0D007D006123DB990080FAD
:1035D7001284DF900A66123FCC1282B290080F1253
:1035E70085709007FEE0702190080FF1B1F19212FB
:1035F70083589007D41285709007D4F1C91284DFDD
:103607001282B29007D0128570900A66E0FEA3E09E
:10361700FF22AB07AA06900AA6EDF0A3E4F0A304E5
:10362700F0EDD3940240037F0022900AA6E0F970E0
:103637001B9007E6F18940037F00229007E8E02B03
:10364700FEE43A900AA7F0A3CEF08038E96401704F
:10365700219007E7F18940037F00229007E8E02BDC
:10366700FFE43AFE9007E6F1DF900AA7F0A3EFF038
:1036770080129007E8F18940037F0022900AA7EAA9
:10368700F0A3EBF09007FDEBF0A3E9F090080F1221
:10369700857C00000000900AA8F1A8900AA7F1A075
:1036A7002410FFE43EFEE4FCFD7A0779FF7B0190DE
:1036B70009AAF0A37410F0123DB9900AA6E06002BF
:1036C700E18674FFFFFEFDFC9008031216DB700D08
:1036D70090080312857C000000007F00227E007F97
:1036E7002F7D00F1991287C67E007F047D307B0114
:1036F7007A0779BC1287C678C07C077D017B017A7F
:103707000879077E007F041280D078C47C077D018A
:103717007B017A08790C7E007F031280D090080322
:103727001284D39007D8128570900803F1B1F192F3
:103737001283589007CC1285709007E5F1A890077F
:10374700E4F1A02420FFE43EFEAB07FAE4F9F89089
:1037570007FF1245EEE4FB7A02F81283589007C878
:103767001285709007C81284D39007D01285709085
:1037770007D412857C000000009007C77401F07F12
:103787000122E0FFD3EB9FEA940022E4FB7A02F9DF
:10379700F8227B017A0779AD22E0C454F048FEEFA6
:1037A70022E0C4F8540FC868FF221284D3EF24FF25
:1037B700FFEE3401FEE43DFDE43CFC22908000E492
:1037C70093221284D3900783227F327E00028AF8E5
:1037D700E4FF7003120DDA22E07C002FFFEC3E229B
:1037E70090B004E030E016900A85E004F0E0B40AF7
:1037F70006900A877401F0E4900A86F022900A8600
:10380700E004F0E0B40A03E4A3F0E4900A85F022B0
:103817009009F71285E69009F6D1F8EFD394955001
:103827000B9009F71285DDE94A4B70037F00229060
:1038370009FAE0FF9009F6F128400774969D900970
:10384700FAF0E4900AB8F09009FAF10150189009DB
:10385700F6E02EFFA311CF1280F6FD12BA06900AEA
:10386700B8E004F080E1E4900AB9F07F0122900902
:10387700FC1285E69009FBD1F8EFD39495500B9095
:1038870009FC1285DDE94A4B70037F00229009FF8E
:10389700E0FF9009FBF128400774969D9009FFF01F
:1038A700E4900AB8F09009FFF101501A9009FBE083
:1038B7002EFF12BFF49009FC11CFEF12813C900A42
:1038C700B8E004F080DF809EE475F00102048E907A
:1038D70009601285709009641285E6900967E070A7
:1038E70002A3E07002218F9009601284D3EF540184
:1038F700FFE4FEFDFCFBFAF9F8C312840E60169094
:10390700096012853B90096411CF1280F6319D90B2
:103917000967126E207F06319631FB7FAD31969095
:103927000960715C31D9716D900968E024FEFE90E1
:103937000967E034FF900969F0A3CEF0D390096AD4
:10394700E09401900969E0940040157FAD3196310C
:10395700D990096974FF75F0FE1281D7716D80DC0B
:103967007F04319631FB31BC900967E0FEA3E0FF8D
:1039770030E015E4FCFD9009601284DF1282B2F199
:1039870017900964D1EA319D22513E31BC7F06ADC3
:1039970007D1F00200E2900A22F0900A1E12857009
:1039A7007F06319631FB7F023196900A1E715C903B
:1039B7000A22E031F77F053196120026900AF5EFCB
:1039C700F031FB7F017E00128AF8900AF5E020E0D3
:1039D700E422900964E475F00112048E1280F6FF68
:1039E7001200E2900964E475F00112048E1280F669
:1039F700FF1200E290960AE04408F022900A231290
:103A07008570E4FF319031FB900A27E0FF31963152
:103A1700FB80A2900A191285707F43319031FB9089
:103A27000A1DE0FF3196900A1DE064C76005900A01
:103A370019715C31FB21BC900AF4EFF07F5031968D
:103A470031FB7F013196900AF4E080A4F0A3EFF0F8
:103A57009009321284D390099A12857090099E12A8
:103A670085E6717C4E6026D3EF9400EE9401501DDD
:103A77007F06319631FB7F02319690099AB1987192
:103A87007C90099E1285DDD1A431FB31BC22716780
:103A97009009361285E67174C39F90093BF0603E2A
:103AA700716190093BE0FF9009A1E45153900932FD
:103AB7001284DF90093BE0FFE4FCFDFE1282B27145
:103AC7006790093BE0FF7E00900937EE8FF0128187
:103AD700D7C390093AE09FF0900939E09EF0C39070
:103AE7000939E09401404CE490093CF0A3F09009B7
:103AF70039E0FFC390093DE09F90093CE0940050F6
:103B0700329009321284D371619009A17401F0A334
:103B1700E4F0515D71742F1237B7716790093774EC
:103B27000175F0001281D790093CE475F00112810C
:103B3700D780BB7E00900939A3E0FF900939EEF0EA
:103B4700A3EFF0600F7161900939E0FFA3E09009DE
:103B5700A1CF5153221284D3A19B9009360285DD50
:103B67009009320285707F017E0002900190093230
:103B77001284D3E4229009A1E0FEA3E0FF22900A79
:103B8700CAE0B40307900A1D71A2411A900ACAE05D
:103B9700B40107900A2771A251032274C7F07F006E
:103BA7007E007D007C00227D087F0C12B94671D013
:103BB700E4900ACAF09177900ACAE0FF600AEFB46E
:103BC70001067F1C513E31BC2231FBE04401F0E08D
:103BD7004402F1D5E04401F0E054FBF0E04402F088
:103BE700229009AC1285709009B01285E6900ACA36
:103BF700E0B403099120900967911501D6900ACA8C
:103C0700E0B4010991209009399115519522CFF01F
:103C1700A3EFF09009AC0284D39009B01285DD9030
:103C270009B3E0FFA3E02290096B12857090096F3A
:103C37001285E6E4900974B14890096B715C7FFFC7
:103C47001200E2900972D19D900975E09F90097466
:103C5700E09E501A12002690096F1285DD900974B4
:103C6700F10B900974E475F0011281D780D521FB1F
:103C7700D1F07F9F1200E2120026900AA3EFF09185
:103C8700D07B00EF12813C91D07B00900001EF12B6
:103C9700814E31FBE4900ACAF0900AA3E0FFB4EF2B
:103CA70007900ACA7404F022EFB4C807900ACA74CE
:103CB70001F022EFB4C207900ACA7402F022EFB4EF
:103CC700BF06900ACA7403F022120026900AA4E0E5
:103CD700FCA3E0AA04F9229009F212857C000000F7
:103CE7000012B8F1718512379912DB79EF704F1214
:103CF700379990047F124D1AFD7C0F12A02A900964
:103D0700F0EEF0A3EFF04E700280337B017A0F796B
:103D1700009009F0E0FFA3E09009B3CFF0A3EFF024
:103D27009009F21284D371E89009F21284DF9009A6
:103D3700F0F1CC1282B2A3128570F1C580A802B847
:103D4700CCF0A3F07F0B219690095512857090094E
:103D5700591285E6E490095EB148900955B1987FFC
:103D6700FF1200E290095CD19D90095FE09F9009E6
:103D77005EE09E501A1200269009591285DD9009BF
:103D87005EF10B90095EE475F0011281D780D521B1
:103D9700FB1284D3900A60128570900A61E0FF12CB
:103DA70000E2900A62E0FF1200E2900A63E0FF027D
:103DB70000E29009A31285709009A71285E6900981
:103DC700A71285DDE94A4B604F9009AAE0FEA3E000
:103DD700FF4E60449009A71285DDC3EA940F401691
:103DE7007E00EF5403FF600E74049FFFE49E90096A
:103DF700AA8FF01281D7900ACAE0B4030BD12B9097
:103E0700095CD120B14F8010900ACAE0B40109D1F2
:103E17002B900972D120912E22CFF0A3EFF09009B9
:103E2700A30284D39009A71285DD9009AAE0FFA316
:103E3700E0227E007F377D00D194900ACAE07002AD
:103E4700FF227A0779DC7B019009AAE4F0A37420AA
:103E570071A4B1B97FFE7E017DAA7C559007DC1263
:103E670016DB70079007FC04F0800BE49007FCF06A
:103E7700FE7F20FDD1949007E4E0FFA3E090002CA3
:103E8700CFF0A3EFF09007827401F0FF227B017A55
:103E97000779DC0287C6E0FEA3E0FFC3229009DDB5
:103EA700EEF0A3EFF09009E11285E6E49009DFF068
:103EB700A3F09009DDD19D9009E0E09F9009DFE034
:103EC7009E501F9009E1D1EAFF1200E29009E2E457
:103ED70075F0011281D79009DFE475F0011281D7DF
:103EE70080D0221285DD0280F690960AE054F7F022
:103EF70022EFF0900AB97401F022E0FF900AB8E0CF
:103F0700FEC39F22E0FCA3E0F5828C83EF02814E83
:103F1700EF24FFFFEE34FFFEED34FFFDEC34FFFC32
:103F270022E0FD2FFFE433FED3EF9496EE648094F6
:103F37008022900A0A1285E6900A0DEDF0900A0D8C
:103F4700E0FF14F0EF6012900A0A11CF1280F6FF1B
:103F5700900A0EF17070E6FF227F0122E0FF124007
:103F670083900A14E0FF900A18E0FDF1DEEF22903B
:103F77000A14125F81EDF0A3EBF0A3F163700F7FDA
:103F87000AFE128AF8900A18F16370028022900ADA
:103F970015A3F16B70028018900A17E06401701B7B
:103FA700A3E0FF124083900A14E04401F16C700B08
:103FB700900A18E0FF12416C7F00227F01227F0ADE
:103FC7007E00029001E0FEA3E0FFE4FCFD22F090FA
:103FD700960CE04408F022900A94EFF0A3EDF0FF6E
:103FE700A37408F01241FE802C900A96E0FF14F0AB
:103FF700EF602B900A94E030E707A3E0FF11BC8045
:1040070007900A95E0FF3146900A94E025E0F0A377
:10401700116A129001900A95E0FF115A80CB900A1D
:1040270095E0FF900AEAEFF0115A900AEAE0FF31B3
:104037009B900AEA116A129001900AEAE0FF515236
:10404700EF7F0070027F01AE07900AEAE0FF115A86
:10405700AF0622C2AFEFB4010790962EE054FDF0F1
:10406700D2AF22E0FF11737F127E0022C2AFEFB4FE
:10407700010790962EE04402F0D2AF22900AE6EFB5
:10408700F011BC900AE6E0FF1173900AE6E0FF51D9
:104097005E900AE6E0FF31FE900AE6E0FF11BC9071
:1040A7000AE6116A129001900AE6E0FF3146900A8B
:1040B700E6E0FF809EC2AFEFB4010790962EE04482
:1040C70001F0D2AF229009EA1285709009EF7404CB
:1040D700F09009EEE0FF31FE803F9009EFE0FF141A
:1040E700F0EF603E9009EA1284D3E4FEFDEC5480C1
:1040F700FC9009EE6006E0FF11BC8004E0FF31464A
:104107009009EA1284D378011284329009EA128561
:10411700709009EE116A1290019009EEE0FF115AB2
:1041270080B89009EEE0FF012A900AE8EFF03146E7
:10413700900AE8116A129001900AE8E0FF015AC25A
:10414700AFEFB4010790962EE054FEF0D2AF229065
:104157000AE9EFF011BC900AE9116A129001900A7E
:10416700E9E0FF015A900AE7EFF0515E900AE7E0B5
:10417700FF31FE900AE7E0FF31467F127E00129082
:1041870001900AE7E0FF1173900AE7E0FF11BC9086
:104197000AE7E0FFC2AFEFB4010E909630E054FE9D
:1041A700F090962FE04401F0D2AF22900A97EFF0FB
:1041B700A37408F0E4A3F0319B900A98E0FF14F091
:1041C700EF6027A3E025E0F0900A97E0FF5152EF58
:1041D7006007900A99E04401F0900A97116A1290DB
:1041E70001900A97E0FF115A80CF900A97E0FF31BC
:1041F700FE900A99E0FF22C2AFEFB4010E9096300D
:10420700E04401F090962FE054FEF0D2AF22900ADE
:104217000F1285E6900A12EDF0900A12E0FF14F0F3
:10422700EF6025A3E0FF31B2900A0F1238CFEF12EB
:10423700813C900A12E07007A3E0FF315680DA90C4
:104247000A13E0FF313080D17F0122EFB4010790DC
:10425700962DE05401FF22C2AFEFB4010E909630C5
:10426700E04402F090962FE054FDF0D2AF2290097F
:10427700941285E6E4900999F0900998E0900A185D
:10428700F07B01123F76900999EFF0BF0118900972
:10429700941285DD900997E0FDA3E0900A13F05191
:1042A70015900999EFF0900998E0FF316C90099902
:1042B700E0FF2290098B1285E6E4900990F09009BF
:1042C7008FE0900A18F0E4FB123F76900990EFF028
:1042D700BF011990098B1285DD90098EE0FDA3E0DF
:1042E700900A0EF0123F39900990EFF090098FE095
:1042F700FF316C900990E0FF22D310AF01C3C0D00B
:10430700123EFA12BA06E4900AB9F0D0D092AF2260
:10431700D310AF01C3C0D0123EFA12BFF4E4900A23
:10432700B9F0D0D092AF22909904E054FEF0909863
:104337000DE054FEF0E0440EF02290B004E030E3CC
:10434700F990980DE054F1F0E04401F090981FE0E7
:1043570030E0F9909904E04401F022A2AFE43390F1
:104367000ADAF0C2AF9005FE1284D39006111284C8
:10437700DF1282B29005FB1285DD1284959005FB52
:10438700719DE412814E900ADAE024FF92AFD0804B
:10439700D0802290069D1285DD90000422900909A5
:1043A700EDF0A31285E6900908EFF090053EE0FED8
:1043B700EFD39E5017900908E0C39401400E900573
:1043C700451285DDE94A4B6003EE70037F002290BA
:1043D7000908E01490090DF0900909E0FF900545E0
:1043E7001285DD90090DD1BCEF12814E90090A129A
:1043F70085DD12BF3FD1AD900909E064036002A1DA
:1044070024A3719D12810FD39406400312BE90D14D
:10441700A7900912128570B1C07800900912F14A6D
:10442700EF2402FFE43E1237BBE47B07FAF9F812E8
:104437008358AF03900916EFF090090A719D128116
:104447000FFEC39F4013EEFF900916E0FDEF9DF1AD
:104457001CB1C0F81282CD802790090A719D128184
:104467000FFF900916E0C39FF11CB1C0F81282CD6F
:10447700C374809FFF743A9EFE74099DFDE49CFC03
:10448700C006C007B1C7900001D007D0061284AF9D
:10449700B1C7B1DEFAC003C002C00112844590095A
:1044A700121284DF1282B2D001D002D00312849597
:1044B700B1BAF13CD1AD900912B1BD78001216C165
:1044C70090090DE075F006402BB1CEB1DEFAC003BE
:1044D700C002C001128445C004C005C006C007F170
:1044E70025B1EEF135AB07D007D006D005D00412C1
:1044F70082B2A17CB1CEB1DEFAC003C002C0011204
:104507008445C004C005C006C007B1E5F135AB0757
:10451700D007D006D005D0041282BF805890090971
:10452700E06402705BB1BAF13CD1ADB1C07800D1A3
:10453700A71216C14006F125B1EE8012B1E5C3748A
:10454700809FFF74519EFE74019DFDE49CFCC00694
:10455700C007B1C7900001D007D0061284AFB1C71A
:10456700B1DEFAC003C002C00112844590B1061241
:1045770084DF1282B2D001D002D003128495802545
:10458700900909E0B4011ED1A79009121285709015
:10459700090E1284D3C006C007B1C7900001D00727
:1045A700D0061284AF900908E0FF12C1CB12BA25DA
:1045B7007F012290090E1284D37B807A51790122E0
:1045C70090090DE075F006A4FF9005451285DDE919
:1045D7002FF9EA35F0FA22E92401F9E43A229009A1
:1045E7000E1284DF9009121284D30282BF900A331D
:1045F70012857C00000000E4900A32F090053EE04E
:10460700FF900A32E0FEC39F4002C1A4EEB1CB90F7
:10461700000512810F6401707CD1B312810FFBB4C6
:10462700020FD1A7EF2480FFEE3451FEED34018055
:1046370011EBB40313D1A7EF2480FFEE343AFEED5C
:104647003409FDE43CFC800AD1B312810FB40108A0
:10465700D1A7900A33128570900A32B1CA9000012F
:10466700128465900A331216DB6023900A32B1CAAE
:10467700F107123F17C312840E6013900A32B1CAB2
:10468700F107EF24FE123F1AC312840E7007900A37
:1046970032E004FF22900A32E004F0C1037F0022D7
:1046A70090B1060284D390090E02857090054512D9
:1046B70085DD900A32E075F006A4F58285F0832245
:1046C700A2AFE433900ADBF0C2AF719A12810F7088
:1046D7001C128445F113900611B1EEE4FBFAF9F8C8
:1046E700C31283F85007719A740112814E900ADB46
:1046F700E024FF92AFD080D080719A12810FFF2201
:1047070090000112850B900A330284D3AB07AA06E7
:10471700A905A80422FFE49400FEE4FCFD22900909
:10472700121284DF90090E221284DF1282B2A804CB
:10473700A905AA06227800128358AC00AD01AE0283
:10474700AF03221284D30283589007C81284DF90E4
:1047570007D0B1EE1237921282CD90080F02857002
:1047670012C94690060FE0900610F022900611122B
:10477700857C00000000C2A9C28C5389F0438902DE
:104787007F01F167D2B9D2A9D28C43A90222E4FDF5
:104797007F080218537B017A07792C120D8B125C64
:1047A70015125CCF7B017A0879FA7F2C7E01120DF6
:1047B7008F7B017A0879FA12B5E4EF700512484346
:1047C70080EFF195900A02E0B40108900A0674039D
:1047D700F08012900A03E0900A06B401057402F013
:1047E7008003740CF0900A0612071A70057F0C12EA
:1047F70007892290960BE04410F090960EE054EF54
:10480700F0A3E054EFF090960CE054EFF0123FC5A0
:10481700909609E030E40BE4900A02F0900A00F069
:104827008014900A00E0C394145005E004F0800659
:10483700900A027401F0900A02E0FF22900A02E057
:10484700900AE0F01247FA900A02EFF0900AE0E0CF
:10485700700A900A02E060047F0180027F002290C4
:104867000A07E0FFAE07EE90059A93FDFF0220626C
:104877001166118911800210297B017A0679DC7D86
:104887000122120C9AE4900A08F0227D037F271276
:10489700B9887D037F2612B9467D037F2912B9881F
:1048A7007D037F2A02B98811FE90000812810F90BC
:1048B7000A44F090000912810F900A45F090000A0F
:1048C70012810F900A46F0900A44E0B44D10A3E01D
:1048D700B4500BA3E0B43306A37401F08005E49051
:1048E7000A47F0900ABFE07008900A47E06002317B
:1048F70004900A47E0FF229003D80285DD900982E1
:10490700E07052900006E064017021129FB8129F78
:10491700DF9006DF1216DB703C11FE7D0B315D90D8
:1049270006E3E06F702F90098204F022900006E002
:1049370064027021129FB8129FDF9006E91216DBFE
:10494700701311FE7D0B315D9006EDE0B507069003
:1049570009827401F022900A581285E6900A5BEDED
:10496700F0E4FE900A5BE0FD14F0ED6025900A5834
:104977001238CF1280F66EFEE4FFEFC3940850E3BF
:10498700EE30E007C313648CFE8004EEC313FE0F02
:1049970080E8AF062251BC315DAB079006D8E02016
:1049A700E0649006DBE0645A705C90072AE06B7065
:1049B700559006D8F09006DCE0900A0651EA4003CD
:1049C7007419F051B44002E4F051AC4002E4F051E4
:1049D700F9F0900A06E0FAB4010D51D11237C91265
:1049E70085709006E4800FEAB4021251C51237C9E8
:1049F7001285709006EE9183E490073AF0919A50F1
:104A07000241ABE4F0227E007F527D007B017A06F3
:104A170079D91287C67A0679DB7B019009FF745032
:104A2700F0E4FF12387551BC315DAB079006DBE04F
:104A3700B45A0790072AE06F601E90097F7401F04F
:104A4700E49006D9F0A3F0A3745AF0A37401F051CF
:104A5700DDF0A37419F0804990097F7401F0918CFF
:104A6700900A06EF51EA40037419F051B44002E48A
:104A7700F051AC4002E4F051DDE0FBB4010C9006CC
:104A8700DEE090073AF051D1800EEBB402109006A9
:104A9700E8E090073AF051C51237C912857051F90D
:104AA700F0121114229006DAE0C39405229006D979
:104AB700E0C3940B227B017A0679DB7D4F229006B7
:104AC700EDE0900983F09006E9229006E3E0900973
:104AD70083F09006DF22E49006DEF09006E8F0907F
:104AE7000A0622F09006DDE0543F900A07F0D394BF
:104AF70020229006D9E0900738F09006DAE0900778
:104B07003722E4900ACFF0900ACEF0900018128472
:104B1700D3E4900643F0A304F012C68612CF4F9059
:104B270000181284D39003DC128570129766129DC9
:104B37006A900AE1EFF090002C123FCC7BFE7AFFDF
:104B4700F9F8C31283F85002815E9003DBE070032B
:104B570012D7F2900AE1E0147002810524FC70027A
:104B6700810E240570C511AEEF604D90002CE475E1
:104B7700F0011281D790002EE475F0011281D790D1
:104B87000982E0B40132900984E07002A3E0702842
:104B97009161900984CFF0A3EFF090002EE0FFA37E
:104BA700E0900986CFF0A3EFF0900030E0FFA3E09C
:104BB700900980CFF0A3EFF0900030E07004A3E0FD
:104BC7006401600261329007ACE0640170026132F7
:104BD70011FEE92408F9E43AA801FCAD037BFF7A4A
:104BE7000079067E007F031287A2EF600261329090
:104BF70007AC04F0FB7A0779AD12983B613290005D
:104C070032E475F001804B12D90C900030E070044B
:104C1700A3E06401700A9161900036CFF0A3EFF032
:104C270012DB9B12DCACEF70037F0122900030E4B3
:104C370075F0011281D7E4900032F0A3F090002EB6
:104C4700F0A3F012D711EF6002613290003074FFC9
:104C5700F5F01281D761327F012290002CE0FFA38B
:104C6700E022900A06E0FBB401059006E48007EB1A
:104C7700B402059006EE918351F9F0221284D39085
:104C870003F30285709006DCE0FF2211AE9006D395
:104C9700EFF02290073AE0D36480948122900AE2F1
:104CA700EFF07E007F327D007B017A007906128764
:104CB700C6900AE2E0900006F090000B12857CFF98
:104CC700FFFFFF90000F12857CFFFFFFFFE4900AB4
:104CD700BEF0A3B116126105EF7006900ABE0480FC
:104CE7000FE4900982F07109EF700C900ABE74020C
:104CF700F0A304F07F002290002CE07002A3E07084
:104D070006900ABE7403F0900ABF7401F0FF22F008
:104D170090040E7402F0A3E4F0221237C3E4900467
:104D27000CB116B1819006A104F0A374E8F0126DDE
:104D370012F0900395F1A3900042F0A3F09006AC17
:104D4700F09006ADF090042804F0E490033DF09055
:104D570006107404F0E4900436F0900429F09004EF
:104D67002AF0FE7F1FFD7B017A0379481287C690E0
:104D7700034812857C55534243229006A07402F0E3
:104D8700229096457403F0F177EF60189006A0E043
:104D9700640760109009CC740BF0A374B8F0900608
:104DA700A07407F09006A0E0FE702BF10EEF600CE8
:104DB700F160EF70079009C7F0A3F022F138FCC348
:104DC700E5F09464EC94005002E10DF1557402F0A3
:104DD7009009C614F022EEB40126F10EEF7002E13D
:104DE7000BF160EF6002E10B9009C7F13CFED3E5E0
:104DF700F09464EE94005002E10DE49006A0F022D6
:104E07009006A0E06402703DF125F10EEF600AF113
:104E170060EF7005F15604F022120017EF6401707D
:104E270002E10D9009CAF13BFEC3E5F094D0EE9480
:104E3700075002E10DE49009CAF0A3F0F18890064B
:104E4700A07403F0229006A0E0FE6403701EF10E2A
:104E5700EF7015F1C9F10EEF6008F142F1557404D6
:104E6700F022F142F125E10BF125E10BEEB4041A32
:104E7700F10EEF6004F125E10BF138FED3E5F09474
:104E8700F4EE94015002E10D800D9006A0E0FEB40F
:104E9700051DF10EEF70079006A07406F022F13899
:104EA700FCD3E5F09432EC9400405BF1258055EE9D
:104EB700B40613F19BEF6002B181F10EEF604790EA
:104EC70006A07405F0229006A0E0FEB40721F17752
:104ED700EF70069006A07406F0D39009CDE0940019
:104EE7009009CCE09400401E74FFF5F00281D7EEE4
:104EF700B4080FF142F188F10EEF600AF142F12593
:104F07008002F125B18122900A06E0B40408909648
:104F170012E05402FF2290A628E05404FF22D31087
:104F2700AF01C3C0D0909644E04460F0D0D092AFB8
:104F3700229009C7E475F0010281EDD310AF01C3D8
:104F4700C0D0909644E054FCF0D0D092AF22E490C9
:104F570009C7F0A3F09006A022900A06E0B404085F
:104F6700909612E05401FF2290A628E05402FF22F7
:104F7700909644E05403FFBF03047F0180027F0043
:104F870022D310AF01C3C0D0909644E0549FF0D015
:104F9700D092AF22909644E05440FF22F090000058
:104FA700F0A3F022E4900042F0A380F09006F3A370
:104FB700E0249522900ACCE07002B1881237E7020C
:104FC7001B6AD310AF01C3C0D0909644E04403F0EE
:104FD700D0D092AF2290073112857CFFFFFFFF22CE
:104FE70090073112857CFFFFFFFF22900731128562
:104FF7007CFFFFFFFF22900738E075F00AA424EA40
:10500700F9740435F0FA7BFF900A681285E690047C
:105017000CE064017044FF900A681285DD8F827589
:10502700830012810F2409900A6BF0D39480400407
:10503700E4F0800C900A6BE0C3940D4003740CF00D
:10504700900A6BE090061B93FE740D2FF582E434F3
:1050570095F583EEF00FEFB40ABD2212C7F7900360
:10506700E7E0FF710B9003E911F6124FFDE490079B
:1050770097F012CEB81215D312B7CA51114E700E4F
:10508700900ABEE0640960037408F07F002211ED06
:1050970012CD9211ED900404E02FFF900403E03E3F
:1050A700FE900405E0FCA3E0FDC390040FE09DFD26
:1050B70090040EE09CFC12CDA0124FDC31A77E2796
:1050C700120D8F51331216BA4005E47FC88002E4EF
:1050D700FFFEFDFC7B017A0779A112B5B290073577
:1050E7007402F07F0122900405E0FEA3E0FF22E0B6
:1050F700FEA3E0FFEEFA909C0812857C01000000F9
:10510700EAC3942750047B8D805DEAC3942D500435
:105117007BB38053EAC3943650047B918049EAC33A
:10512700944A50047B95803FEAC3945950047BB757
:105137008035EAC3946D50047BB9802BEAC39494FD
:1051470050047B998021EAC394B3501990966AE082
:1051570030E00E7B88909C0812857C001A00008046
:10516700067BA380027B8912203B909C06E06B6044
:1051770013909C00E0547FF0909C06EBF0909C000D
:10518700E04480F0900AFAE07015513CC083C08279
:10519700E0FFA3E054FED082D083CFF0A3EFF0224C
:1051A7007B017A07792C7F1022900735E0B402043F
:1051B700514760037F012212BD13EF70117B017A03
:1051C70007792C12B5E4EF7F01603E7F002231A7FB
:1051D7007E27120D8F9003E7E06401702A51114E6C
:1051E7007012900735F0900ABEE0640960037408F6
:1051F700F07F0022900403E0FEA3E0FF90040EE09E
:10520700FCA3E0FD12CDA07F01227B017A0779681C
:10521700900403E0FCA3E0FD90040EE0FFA3E09000
:10522700047FCFF0A3EFF012A02AEF22E4FFFEFDE8
:10523700FC9003F322909C06E0547FF090990122A2
:105247007B017A07796812DB79EF2251839006ADEB
:10525700E06F601AEF64016013EF6402600EEF64A1
:10526700066009EF64076004EFB4080231B0123238
:10527700A651809006ACEFF0227F0022129766902D
:105287000ACDE0FF2212BF3F900A7812857051C203
:10529700701851836401600EEF64026009EF6406C1
:1052A7006004EFB408E831B080E4900A781284D340
:1052B70051CD120D8F12A6C102BA257B017A0A7948
:1052C7003712B5E4EF2212B7087B017A0A79377FE4
:1052D7002C7E0122900AAF1285E67FFF7EB07DB754
:1052E7007CE190B1061216BA401151C270051297AF
:1052F7006680F7123BA551CD120D8F900AAF12852C
:10530700DD02AFD290040CEFF0E490040AF090991C
:1053170001C083C082E0FFA3E04402D082D083CFE4
:10532700F0A3EFF012C818909509E054E0F09095BB
:1053370000E04408F090040CE024FE602514602986
:105347002402704D90966AE054F2F090951B740118
:10535700F0A374C0F09095187403F0900403740FD1
:10536700802890951DE04402F090966AE0440DF085
:10537700909500E04404F090951BE4F0A37480F04E
:10538700A3E04401F09004037420F0A3E4F07F014C
:10539700227F0022900A48EFF091C1900A49EEF06F
:1053A700A3EFF04E700281A0900737E024FE700251
:1053B7008150240224FB50028195900A48E0FFB4F3
:1053C700020D900A4B740AF0E4900A48F08012EF3D
:1053D700900A4BB40308740AF0900A4880007401DD
:1053E700F0900A48E07032900A4BE0FF7E00900789
:1053F70067E02FFD900766E03EFCC3900A4AE09DF8
:10540700900A49E09C9007665007E4F0A304F080F7
:105417007DEE8FF01281D78075900A48E0640170A5
:105427006D900A4BE0F9FF90076691CD9400500705
:10543700900A4991A18053E9FFC3ED9FFEEC9400C8
:10544700900766F0A3CEF08045900A49E0FEA3E0FE
:10545700FFFBAA06E4F9F890061112474AEB24016C
:10546700FFE43AFE900766E0B5060AA3E0B5070534
:105477000FBF00010EC3900A4AE09F900A49E09EC1
:1054870050047E007F01900766EEF0A3EFF0900ACC
:1054970048E0900739F012002222E0FFA3E09007CE
:1054A70066CF221217F6600304700E1215F5EF701F
:1054B7000590073504F01210DF2290002CE0FEA3C0
:1054C700E0FF2290094BE0FCA3E0FDD39FEC221202
:1054D700342BD39432EE94004002A164C3120FCA56
:1054E700E0940340299006F7E0FDFBD3EF9BEE9491
:1054F70000400C9006F5EDF09006F704F0800A9056
:10550700094BA3E0149006F5F0124FB380489006BC
:10551700F6E0FF91CA940040359006F7E0FF900649
:10552700F6E0FEEFD39E401774F72FF582E43406BA
:10553700F583E0FB74F82F120A70EBF01F80DF9001
:1055470006F5EEF0A3E004F0A3E004F08006ED1406
:105557009006F5F0B165FFA3120A6DEFF0229006F1
:10556700F3A3E0240822E490073AF0900798F0D1DB
:105577004AEF6401706E900982E0700C9007A0F00A
:10558700900766F0A3048054900984E0FEA3E0FF2F
:10559700D39400EE9400406F9007A07401F0900040
:1055A7002CE0FCA3E0FDD3EF9DEE9C40089009841E
:1055B700E4F0A304F0900030E0FEA3E0FFD39009ED
:1055C70081E09F900980E09E4005E4F0A304F0E4A9
:1055D70090073AF090098491A1F0A3EFF0E49007C7
:1055E70037F08023E49007A0F090073BF0A304F086
:1055F700900766E4F0A304F0E4900737F09003F314
:1056070012857C00000000E4900739F090002CE040
:105617007002A3E0700790073504F0FF221215DD32
:105627001215F5EF70077D067F01121594E49009B6
:1056370084F0A3F0900986F0A3F0900980F0A3F01E
:105647007F01229006DBE07F00B45A027F01227FB0
:10565700522232C0E0C0F0C083C082C0D075D000F3
:10566700C000C001C002C003C004C005C006C00717
:1056770012C90BD007D006D005D004D003D002D072
:1056870001D000D0D0D082D083D0F0D0E032C0E0BB
:10569700C0F0C083C082C0D075D000C000C001C0B8
:1056A70002C003C004C005C006C00712B9EB900AC8
:1056B70091EEF0A3EFF012B9E5900A91A3E05FA392
:1056C700F0D007D006D005D004D003D002D001D047
:1056D70000D0D0D082D083D0F0D0E0323232C28A2C
:1056E700D2AAD2AF227E007F1E7D007B017A087985
:1056F700660287C6E4900A50F15B12810F603D9005
:105707000A51F150C003C002C001900A51123EEA8B
:10571700FF7C00D001D002D00329F9EC3AFA1280BD
:10572700F6900A50F0EF045407FFA31285DDEF123D
:10573700813C900A51F14974FF12045B900A50E0D2
:10574700FF221285DD900001221285DDE92402F98E
:10575700E43AFA22F0EF75F00AA42466F9740835E2
:10576700F0FA7B01A31285E6900001229008A0E0E1
:10577700FF229009E4EFF0BF581F90094AE0C39455
:10578700024002E4F090094AE004F0E0B4010A1292
:105797006E357FF47E01120D8F126E3512B5E4EF70
:1057A700700E90094AE0B40107E49009E4F08032F2
:1057B700126E3512B5E4EF700E90094AE0B4020795
:1057C7009009E474678015126E3512B5E4EF601224
:1057D70090094AE0B4010B9009E47458F0E4900989
:1057E7004AF09009E4E0FF22900AE5EFF07D01120C
:1057F700B0157E00C006C007117ED0E02DFFD0E0B7
:105807003400FEC006C007117ED0E02DFFD0E03483
:1058170000CF2402CF3400FE7C007D03128182ABCF
:10582700077E06E4FDEDC39E504AED90061593FCF6
:10583700EBC39C503C900A06E0640C7031ED24FEEB
:10584700601314601914601F24037022909601E0FE
:105857004404F08019909601E04402F0801090967D
:105867001CE04440F0800790961CE04420F0AF0510
:10587700220D80B17FFF22900AE5E0FF7D0112B083
:1058870015EFFD227F050257EF90960CE04404F0D8
:1058970090960BE054FBF090960DE04404F0A3E0E3
:1058A70054FBF0A3E054FB123FD590960BE054F75E
:1058B700F090960DE04408F0A3E054F7F0A3E0540D
:1058C700F7F0222222900AECEFF012179E120D8BAE
:1058D7007B017A08794F120D8B7182E090085FF097
:1058E700E4A3F090084704F07E007F057D00FB7A73
:1058F7000879481287C6719E7D01E4FF310C900834
:105907005E7401F022900AC3EDF0900AC2EFF070C6
:1059170010A3E07D017F01600512B988800312B9E9
:1059270046900AC2E0B4010EA3E07D207F0A60031F
:1059370002B98812B94622900A06E06404705F90A3
:1059470008DDE070071217947F00804D120CE3709A
:1059570026900860F051277012FDFF310C90086007
:10596700712A12179E7FE87E0380307D01E41217AB
:105977009A7F007E0080249008D4E0B4010AE49066
:105987000860F07D01FF210CE4FD7168E04402F03E
:10599700E04420F012179E7F327E00120D8F229076
:1059A7000A06E06403702F512770175136E054FE42
:1059B700F0E054EFF0E4FD512E12179B7FF47E01C7
:1059C7008011E45136712A7D01E4512E12179B7F15
:1059D700007E00120D8F22900A06E024FC6021044D
:1059E700703D5127701190086051417D01E41217F5
:1059F7009A7FE87E0380251217937F007E00801C24
:105A070051277011900860F0712AE4FD12179A7FF0
:105A1700E87E0380071217937F007E00120D8F2206
:105A2700900A08E0640122FF310CE4FD7F01229017
:105A37000860F0E054FDF0E054DFF0E054FBF0E0E4
:105A470054BFF022900860E07002611A12179E128C
:105A5700B5E4EF70026129900860E0C31330E02BD2
:105A670012179E7F32120D8D900860E0C413540701
:105A77007F0020E0027F01EF5401C43354E0FF9020
:105A87000860E054DF4FF0E0C48060900860E030C9
:105A9700E02B12179E7FE87E03120D8F900860E0BF
:105AA700C4540F7F0020E0027F01EF5401C454F07B
:105AB700FF900860E054EF4FF0E0C4802F12179E6C
:105AC7007FF47E01120D8F900860E0C41313540316
:105AD7007F0020E0027F01EF5401C4333354C0FF3D
