:10000000020417801B4D5646002232026321000174
:1000100002032202635C222222222280ED0227C1F7
:1000200032322280FCE4C3FA90960AE04401F05494
:10003000FEF0909609E0A2E2E492E02A23FA90967C
:100040000AE04401F054FEF0909609E0A2E2E49246
:10005000E02A23FA90960AE04401F054FEF09096CC
:1000600009E0A2E2E492E02A23FA90960AE0440131
:10007000F054FEF0909609E0A2E2E492E02A23FA1E
:1000800090960AE04401F054FEF0909609E0A2E256
:10009000E492E02A23FA90960AE04401F054FEF03C
:1000A000909609E0A2E2E492E02A23FA90960AE010
:1000B0004401F054FEF0909609E0A2E2E492E02AB6
:1000C00023FA90960AE04401F054FEF0909609E07D
:1000D000A2E2E492E02AFA90960AE04401F0EAFFF4
:1000E000227808EF33FF90960AE092E154FEF090F8
:1000F000960AE04401F0D8EB2290099DE0FF22220D
:100100000000220000220000220000220000220045
:100110000022000022000022000022000022000035
:100120002200002200002200002200002200002203
:100130000000220000220000220000220000220015
:100140000022000022026CCF0000220000220000EA
:100150002202484E0258080237980000220000226E
:10016000000022000022000022022B50000022008A
:100170000022000022000022000022000022023B98
:10018000CE00002202741900002200002202705DDD
:100190000000220000220271F00000220000220074
:1001A00000220000220000220000220000220000A5
:1001B0002200002200002200002200002200002273
:1001C0000000220000220000220000220000220085
:1001D0000022000022024D760271DD026AD0026B1D
:1001E00002026052000022000022024F91026FDAE8
:1001F0000000220000220000220000220000220055
:100200000022000022000022000022000022000044
:100210002200002200002200002200002200002212
:10022000000022000022026C8B026CC6000022003B
:100230000022000022000022000022000022000014
:1002400022023DE6000022000022000022000022DF
:10025000000022000022410AC100410ABB00420AFC
:10026000BC0000420ABE0000410AC0004109D8009B
:100270004109D7004109E3004109D500410B88013C
:10028000410B8600410B8700410BAE00420A0B0078
:1002900000420A090000430A0DFF0604430A06FF54
:1002A0000613430A03FF06224109CD004209D30089
:1002B000004409C30C020307410A4A00410A4B00EB
:1002C000410A4400410A4300410A4100410A4200F8
:1002D0004209BC00004209BA01064209B5000042C9
:1002E00009B301084309BEFF06304309B7FF063FC3
:1002F0004309B0FF064C4209AE00634209C10063E6
:10030000410BB301410BB402410BB6004107610040
:1003100041075F0041076200410773004406F9FF8F
:10032000FFFFFF4106F30041098F014409820000ED
:100330000000420980006444098B00000000410A6B
:100340007A00420A7B0000420A7D0000420A7700E0
:1003500000410A7900410A7600410A2600420A1E3D
:100360000000410A2700410A2800410A2001410AF1
:100370001D00410941FF41094200410943FF410A73
:1003800010FF450905000000000041091B00410B5A
:10039000BE02410869004109020041090300410908
:1003A0009B0041099C00410BC000410BBF0152085A
:1003B0004C12011001000000400000020210000178
:1003C0000203014C079300000008001DC3FF030057
:1003D0000200480781001DC3FF000002004C0774A3
:1003E0000B00000800020000000002004D07E0556D
:1003F0005342530870BA840000000000420BC3034C
:10040000E8410AAE00420AB101F4410AAB00410BD7
:10041000C601410BC50100125183787FE4F6D8FD77
:100420001262FBEFFD9006D96003A3DFFD7F277EFC
:1004300011C3EF9DFF50011EE4F0A3DFFCDEFA754F
:10044000810B126FE8020483022052E493A3F8E4C4
:1004500093A34003F68001F208DFF48029E493A31C
:10046000F85407240CC8C333C4540F4420C8834035
:1004700004F456800146F6DFE4800B010204081004
:10048000204080900256E47E019360BCA3FF543F5D
:1004900030E509541FFEE493A360010ECF54C0253C
:1004A000E060A840B8E493A3FAE493A3F8E493A32C
:1004B000C8C582C8CAC583CAF0A3C8C582C8CAC590
:1004C00083CADFE9DEE780BEBB0111F8E58229F5CA
:1004D00082E5833AF583E0C828F0E8225009C58216
:1004E00029F8C58226C622BBFE0DC58229F8E2C5C1
:1004F000822582F2E58222EA2583F583E99322BBF5
:10050000010FF8E58229F582E5833AF583E028F0CA
:10051000225009C58229F8E58226F622BBFE09C5CC
:100520008229F8E22582F222F8EA2583F583E9930D
:100530002822F8E0FBA3A3E0F925F0F0E58215827C
:1005400070021583E0FA38F022D083D082F8E49369
:100550007012740193700DA3A393F8740193F58244
:100560008883E4737402936860EFA3A3A380DF55CC
:1005700053424300008002021F0000004D565349C1
:10058000000000004361726420526561646572007E
:100590000000000056312E30030000007000020001
:1005A0000000000A000000003A0000000000700097
:1005B00005000000000A0000000024000000000008
:1005C000ED0303543FFD8E838F82E090A621E0F877
:1005D0008E838F82E090A621E0FB8E838F82E09055
:1005E000A621E0FC8E838F82E090A621E08A838999
:1005F00082C8F0A3EBF0A3ECF0A3E8F0A3AA83A9D0
:1006000082DDC3224D5653494C49434F4E2E494E2D
:10061000432E004D5620434152442052454144450B
:1006200052003230313130393031313233343500EB
:100630004D5653494C49434F4E2E494E432E004D83
:10064000562055534220415544494F0032303131F4
:10065000303930313132333435008F828E83ED7052
:1006600004EC600B1CE06455F0A3DDF90206612286
:100670004641543136000000000403090409028792
:100680000003010080FA09040000000101000009D4
:1006900024010001280001010C24020101010002D3
:1006A000030000000A2406020101010202000924DD
:1006B000030301030002000904010000010200001D
:1006C00009040101010102000007240101010100E8
:1006D0000B2402010202100144AC0009050409C008
:1006E00000010000072501010000000904020001CB
:1006F00003000000092101020001222100070583F7
:10070000034000010902200001010080FA090400F1
:10071000000208065000070581024000010705029B
:100720000240000109029E0004010080FA09040051
:10073000000208065000070581024000010705027B
:100740000240000109040100000101000009240128
:100750000001280001020C24020101010002030033
:1007600000000A2406020101010202000924030319
:100770000103000200090402000001020000090454
:1007800002010101020000072401010101000B2404
:1007900002010202100144AC0009050409C0000175
:1007A0000000072501010000000904030001030007
:1007B00000000921010200012221000705830340F6
:1007C0000001050C0901A1011500250109E909EA4B
:1007D00009B509B609E209B309CD09B7750195084C
:1007E0008142C02E2C2A2927262423211F1E1C1BB0
:1007F00012C94690060FE0900610F02222FFFFFF7C
:03080000140108D8
:100807007F002205320007D001F4006401F400C81C
:10081700320AC350271007D014503C140A1E140084
:1008270000000000000000000002FAFCFDFEFCFAD8
:10083700FA0202FF02FFFDFAFAFAFDFF0202FFFFCA
:100847000002020202FDFAFAFF0200FF00020201A3
:10085700FFFEFAFEFEFEFCFAFE02FE02FFFFFDFAB5
:10086700FAFAFA0202020101FFFEFEFEFDFDFDFAA1
:10087700FAFF010202020202FFFD02020202020265
:10088700FD0202FFFAFF020202020202020000005A
:100897001A001F0024002A0031003A0043004E00CE
:1008A7005B006B007D009300AD00CC00F0011A01E6
:1008B7004C018701CC021D027C02EC0370040B047F
:1008C700C20599069607C0091E0ABA0C9E0ED85A89
:1008D700A55FA05EA15DA25CA359A65BA400000072
:1008E7000000000000000000000000000000000001
:1008F70000000000000000000000000000000000F1
:1009070000000000000000EAF6E9F3E7A1F7E3A51D
:10091700BDADB5BAB9BBE6B8F2F8BFBC0000000080
:10092700000000E9EDEFFBFAF9F7F6F5F3F2F1FF56
:10093700FDFEEEE7E6E5EBEA00000000000000FA46
:10094700F9F7F3F2F1EFEEEDEBEAE9E1E5FFE7FEA8
:10095700FDFBF6F501020304E100000000000000C2
:100967000100000014640000585A590007000000F5
:100977000600000065651200666613003F3E3A36C2
:1009870033302D2A272523211F1D1B191715131156
:10099700100F0E0D0C0B0A0907060402013F3E3A21
:1009A7003633302D2A272523211F1D1B1917151410
:1009B700131211100F0E0D0C0B0A0908070614006D
:1009C70000000665120007661300015B0000585916
:1009D70059006464000003090E13191E9006D7EF2F
:1009E700F0E01313543FFF12B8751250109006D75A
:1009F700E01313543F25E025E0FF1207F0900AFEAD
:100A07007401F02274FFFFFE12B83F1257E77F010F
:100A170012B8757F011207F0E4900AFEF00297669C
:100A27007D017F0D900B9CEDF0900B9BEFF064091F
:100A37006004E0B40A037F0022900BBDE07002FF60
:100A470022900B00E0900B9DF012CECF1260E19048
:100A57000AFFE0B40402B19E5112900B9BE0FF1213
:100A670032651232F8EF600512976680F5126C4511
:100A7700900B9DE0900B00F0900B9CE06005126CD2
:100A87005191247F0122E4900BE2F0600261481249
:100A9700673D900BE2EFF0900A20E0700E911C602A
:100AA7000AEF60025127E4900BE2F0900BE2E0645A
:100AB70064702A900A20E06012E4F0900B01E06075
:100AC70004E4FD80027D017F0C800D1279C860046B
:100AD700E4FD80027D017F0B512B127937911C6059
:100AE70056EF60536412604FEF6413604AEFB4141B
:100AF700071279ACB1A2803F900AFFE0B40C18123C
:100B07007A1B6024EF6413601FEF6459601AEF6467
:100B1700586015E4FD800D900BE2E0B40104E4FD9C
:100B270080027D017F0A512B900AFFE0B40C081266
:100B370000F9EF70029124900BE2E0B45A03745964
:100B4700F0900BE2E060028116124468900BE2EF2E
:100B5700F0900AFFE0B40C0D900BE2E0FF1264097D
:100B6700900BE2EFF0900A20E0700E911C600AEF04
:100B770060025127E4900BE2F0900BE2E0646470AE
:100B87002A900A20E06012E4F0900B01E06004E490
:100B9700FD80027D017F0C800D1279C86004E4FDA1
:100BA70080027D017F0B512B127937911C6056EF24
:100BB70060536412604FEF6413604AEFB414071276
:100BC70079ACB1A2803F900AFFE0B40C18127A1BEF
:100BD7006024EF6413601FEF6459601AEF64586074
:100BE70015E4FD800D900BE2E0B40104E4FD800202
:100BF7007D017F0A512B900AFFE0B40C081200F91F
:100C0700EF70029124900BE2E0B45A037459F0900C
:100C17000BE2E0FF22900BE2E0FF646422900B00FE
:100C2700E06032900AC1E064017018900AFFE0B4F6
:100C370003077FC0B1E3124046900AFFE0B40C03FC
:100C4700124056123092F1C940061220F312B946EB
:100C5700E4900AC1F022E4900B9FF0A3F012221552
:100C6700EF601290099DE0700C04F0FB1225C49010
:100C7700099C7401F0122215EF701990099DE0602C
:100C870013F1C9400FE490099D1279C0122637E489
:100C970090099CF090099DE060081220F312B98832
:100CA700800291241279C112B5E4EF602490099C67
:100CB700E0601E122215EF600E12792B12B988120E
:100CC700230E12503F800AE490099C1279C0122625
:100CD700377B017A0979A412B5E47F01125F80900E
:100CE7000B9EEFF024ED603424AE600714602D24D2
:100CF700547050122FF05006900BA0126041900BC9
:100D07009EE06465703D1260487038900BA0E070FB
:100D1700327D017F05127A1370298025F1C94005BC
:100D2700900B9FB14B900B9EE0B46617900B00E0C1
:100D37007011900B9FE0700B7D017F06127A137084
:100D4700029124227401F0E4FFEFB4010A122FF09C
:100D5700500CE004F08007F1C94003E014F0900B59
:100D670000E0B420127D017F0512649EB40C0812C6
:100D770000F9EF70029124900B00E070127D017F63
:100D87000612649EB40C081200F9EF700291241247
:100D970017FB7F010200097D017F01900BCBEFF06C
:100DA700ED640170061220F312B988900BCBE0B402
:100DB700011B12302D900AFFE0B40304E4FFB1E3F6
:100DC700900AFFE0B40C0EE4FFB1E38008E4FDFCF9
:100DD700FFFE123932900AC17401F022900BD1EF55
:100DE700F01230239009D7F0900BD1E0F0FF900973
:100DF700D8E0B50706F1C27002E134900BD1E0707C
:100E070018F1B46002F1D1F1BB6003123167F156FA
:100E17007002E123121AADE123900BD1E0FF5409D0
:100E2700603BF1BB6008EF54247003123167F15641
:100E370060221279B8701DEF54C070189009D8E07D
:100E470054126005121AAD800B9009D8E054C060A7
:100E57000312383CF1B464096003121F281279B8F1
:100E67006030F1B46007EF54097002F1D1F1BB6053
:100E77000B900BD1E054247003123167F156600CCC
:100E8700E05412FFF1C26F6003121AADF1C2FF12F4
:100E97001B63900BD1E0FF5424601FF1B46007EF90
:100EA70054097002F1D1F156600D1279B87008EF4C
:100EB70054C07003121AAD1231B2900BD1E0FF5437
:100EC700C06059F1B46007EF54097002F1D1F1BB6A
:100ED700600B900BD1E054247003123167F1566018
:100EE70007F1C27003121AADF156FFB412047FC0A6
:100EF700800EEFB402047F408006EFB410027F80BB
:100F0700EFD39400400C900BD1E054C06F600312F4
:100F1700383C900BD1E054C0FF121E12900BD1E069
:100F2700FF9009D8E06F6002EFF0121FCE22900BFE
:100F370001E06006E4F09124800A900B017401F04F
:100F4700FDFFB1A290091BE0B401031216682290BD
:100F57009C49E0541222E4900BD7F0900A4AE0B47F
:100F67000108B19E900BD77401F0125B6FEF70060A
:100F7700900A4AF0FF22510B121626120019900B05
:100F8700D7E07002B19E12B24FEF7002FF227F02CC
:100F970012591E7F09B1E3E4FD7F03512B7F021233
:100FA7004CFEEF7002FF221262027F0122909C49E1
:100FB700E0540922909C49E0542422900BD1E0543C
:100FC7001222900B00E0D3940022123136121D41F9
:100FD700909C48E0442212799754F612798E441176
:100FE700F012B8A0EFFD7C007E017F90128182EFA6
:100FF7002401FFE43EFE909904E020E00BEF780225
:10100700CEC313CE13D8F9FFEF1FAC0670011E4CE9
:1010170070F6221259E2600D24F7600E240A701749
:10102700123A228008124046800312405B7B017A05
:101037000679DD7D01113F22900B4D1285E6900B5D
:1010470050EDF01263F8124A264002E4F0124A1EED
:101057004002E4F09006DB745AF0900AFFE0FF606C
:10106700049006DCF0900B00E09006DDF0124D7E58
:101077004002E4F0900AFFE0FBB40117900702E09A
:101087009006DEF0900A7AE09006E3127A23900643
:10109700DF8019EBB40218900702E09006E8F090A1
:1010A7000A7AE09006ED127A239006E9128570120B
:1010B7004A719006F2EFF0900B4D1247B3603390F0
:1010C7000B50E0602D7D5AE4FF12BA06900B4D12CB
:1010D70085DDC3E994DBFF900B4D1285DD900B5046
:1010E700E0900AF8F012485C9006F2E0FD7F1712D4
:1010F700BA0622C374E83143D39401400FE4900643
:10110700E8F07B017A0679E87D01113FC374DE318F
:1011170043D39401400FE49006DEF07B017A067911
:10112700DE7D01113FC374DD3143900B00E06F603A
:101137000A7B017A0679DD7D01113F2294DBFF12DC
:10114700BFF4900BE1EFF0227B007A007900900B5F
:101157008C1285E6E4900760F0900702E0701512A4
:1011670062E6D390072FE09F90072EE09E4005E4AC
:10117700F0A304F0900B8C1285DD9005131285E621
:1011870090072EE0FFA3E0900516CFF0A3EFF0F154
:10119700A6129C6BEF7007900BB5740580277B0137
:1011A7007A07793F7D0B124A79900A7AEFF07B0133
:1011B7007A0679DB7D18113FF1A612CEE6EF7009AA
:1011C700900BB57407F07F00229003F312857C0023
:1011D700000000900768E0601DE4F0124B399003AF
:1011E700EF1284D39003F3121F21400A9003F312E6
:1011F700857C00000000125D3AEF7F017001FF223D
:10120700E4900B8FF0A3F07F01125F809006FEEF52
:10121700F0900760E060299006FEE070237B017A7A
:1012270007796E12B5E4EF6017314FEF700D900735
:1012370001E07D06B401027D07D122E4900760F04A
:101247009006FDE0640670028158A3E01205491379
:101257005B0613670713040C12991212C313135674
:101267001513C22113872613872713A12813A12932
:1012770013872A13A12B135B2C13672D133B2F12F4
:10128700F13013C23C142A6312996512C366000039
:101297001458122FF05006900B901260419006FEE2
:1012A700E064656002815812604860028158900BC3
:1012B70090E0600281587D017F058029120FC940A7
:1012C70006900B8F120D4B9006FEE064666002815C
:1012D70058900B00E060028158900B8FE06002810C
:1012E700587D017F06120A2B81589006FFE0B40350
:1012F70004E4F080389006FF7403F080309006FF16
:10130700E0700404F08005E49006FFF09006FFE02B
:10131700B4040B9007027401F09007328008E49040
:101327000702F09007301262DAF01263B77F0112FA
:1013370068E08158900700E004F0E0C3940B400296
:10134700E4F0125DD41263B77F011268E681581288
:101357000F358158D12D50028158B11CE4FF800A06
:10136700D12D50028158B11C7F01F1E17B017A0731
:10137700796E7FE87E03FDFC12B5B2900760803678
:10138700D13050028158B11C7F02F1E1314FEF603B
:10139700028158B1DF9006FD801CD1305002815880
:1013A700B11C7F03F1E1314FEF600281587D077F68
:1013B70001B1E39006FD7401F08158122590C390A6
:1013C700002DE09F90002CE09E402C126D084027D6
:1013D700900702E0702190072EE06E7003A3E06F84
:1013E7006015B11C900A1E1262DAF01225AB314F5C
:1013F700EF70047D06D1221262E6900A1E1262D3B4
:101407009FEC9E4011D3ED9400EC94004008D1610D
:101417007FE87E038006D1617F007E00F1B8122548
:10142700AB802E900869E0B40127E4900B91F0900F
:1014370006FDE0B40209121846900B917401F012F0
:101447004D939008697402F0900B91E0B40102B1DA
:101457003AF1DA6016900762E0701004F0FB7A0741
:1014670079631225C89007737401F09006FDE0B404
:10147700020C900762E06006E4F0900773F09007B3
:1014870073E060201279E512B5E4EF6017F1DA60D6
:101497000812230E12503F800BE4900773F0127965
:1014A700E51226379006FDE014601024FE6007045D
:1014B700700CB13A80081218468003121830900653
:1014C700F3E0600D126C7FEF6007E49006F3F080A5
:1014D700269006F3E07020126C7FEF701A9006F3E7
:1014E70004F09006FDE0B4020EF1A0EF2401FFE442
:1014F7003E1237E3124B54F1A09006F9121F2160F8
:1015070013125E38121973400BF1A09006F9128579
:10151700701263B722F1A612A68F9003F312857C8F
:1015270000000000D126E4FDFF120DA27F647E00BB
:10153700028AF8F1A612DB79EF600612CEB0EF70DF
:10154700129006FFE0640370227F0A125E3A1219B6
:10155700734018B11C9006FFE064016005E4FF12B8
:1015670060F7314FEF7004B1DF80427B017A077972
:101577006912B5E4EF6018900B01E0701290075FF5
:10158700E0700C120C24123A2290075F7401F012DB
:10159700187DEF701AB11C900701E0FF6402600329
:1015A700EF70047D0680027D077F01B1E380701232
:1015B70018E1600B24FE60181460152404701812DB
:1015C700CECF1260E19006FD7403F01251748004CF
:1015D700127A2AF01268EC227D067F01900B45ED06
:1015E700127911C3940840037F0022900B45E0FF56
:1015F700A31285DD90000174011204C8FD1280F664
:101607002DFD7C00ED5407FD900B461279D3E92D93
:10161700F9EC3AFAEF12813C7F01227F01B1E390A6
:1016270006FD7401F022125971D390002DE0940148
:1016370090002CE0940022E054FDF0E054DFF0E04D
:1016470054FBF0E054BFF0E04401F0E04410F0E454
:10165700FDFFD1E1E4FD7F01D1E17B017A09791634
:10166700221269FE600D14602724FD24FD504424D6
:10167700087061F1AD90091D7008D13E7FE87E03C7
:101687008050F1C2D1DC7D01D15D7F007E008042B8
:10169700F1AD701490091DF1F454BFF07D01E4FF22
:1016A700D15F7FE87E038009126A64D15F7F007E85
:1016B70000801FF1AD701290091DF0126A6DE4FDF4
:1016C700FFD15F7FE87E038009126A64D15F7F00E4
:1016D7007E00F1B822F07D01E4FF900BBCEDF090A5
:1016E7000BBBEFF07010A3E07D017F01600512B91D
:1016F70088800312B946900BBBE0B4010EA3E07DCE
:10170700207F0A600302B98812B946221225B36006
:1017170005EF64027048F1DA700B90091DD13E7F26
:10172700F47E0180379006FDE0FF64016005EF64F9
:1017370003700FF1BFF0F1EA7D01D15D7F007E00FC
:10174700801A9006FDE0600464067012F1BFD1DCD8
:101757007D017F01D1E1D1617F007E00F1B8229048
:101767000AFFE064037031F1AD700E90091DF0F1CE
:10177700C2D1557FF47E01801DE490091DF0E0542D
:10178700FDF0E054DFF1F454BFF0126A6D7D01E41F
:10179700D1587F007E00F1B8229003F30284D37BF7
:1017A700017A07793022900B01E06401227F007EE5
:1017B700007D007C0002B5B290091DE054FDF0E009
:1017C70054DFF0E054FBF0E054BFF0E054FEF0E0EB
:1017D70054EF229006FDE06402221260F7E4900BBA
:1017E70001F022E4FDFFC1E1B11C7F0122F0E054CA
:1017F700FBF0E022111A900B00E07010900AC1E094
:10180700700A900B01F07D01FF120DA2900AC1E052
:10181700B40109120FC94004A37401F0900B01E051
:10182700B40105E4F0120C242211E1600304700EE8
:1018370012114FEF70059006FD04F01217FB2211ED
:10184700E1600B24FE602014601D24047020121731
:10185700FB12CEB81260EC11767F107E271217B8F4
:101867009006FD74028003127A2AF01268EC227B3C
:10187700017A0679F4229006FDE0B402091217A650
:1018870012DB79EF60037F012212BD13EF700D1198
:101897007612B5E4EF7F0160407F002211767F105A
:1018A7007E271217B89003E7E06401702A125E6280
:1018B70070129006FDF0900BB5E0640960037408A0
:1018C700F07F0022900403E0FEA3E0FF90040EE007
:1018D700FCA3E0FD12CDA07F01229006FEE024FECE
:1018E7002212BF3F900B79128570312B12B5E4EFAE
:1018F700701A126CBEFF6401600EEF64026009EF9C
:1019070064066004EFB408E2117D80DE900B791263
:1019170084D331287F2C7E011217B812A6C102BAD0
:101927002512B7087B017A0B793022900BA4128518
:10193700E67FFF7EB07DB77CE190B1063173401939
:10194700312B12B5E4EF700512976680F312445FEE
:1019570031287F2C7E011217B8900BA41285DD0267
:10196700AFD2E47F487E0DFDFC90098B1284DFD354
:1019770002840E900BB7EFF0E4A3F0D3900981E057
:101987009400900980E0940040259009821284DF3A
:10199700C000C001C002C00312414DE4FCFDD003EA
:1019A700D002D001D0001247C1900980124733906E
:1019B7000980E07002A3E0600241A27B64FAF9F8B3
:1019C7009009821284D312835890098B12857090E4
:1019D7000980E4F0A37464F0A312857C0000000082
:1019E700E47F107E0E316E400890097A7402F08011
:1019F70019E47FAC316C400890097A7404F0800ACE
:101A07003169400690097A7405F031694014E47F22
:101A1700AC7E0DFDFC90098BF121500690097A747C
:101A270005F0900BB7E0B4010A31695006900BB886
:101A37007401F0900BB7E0700A316A5006900BB84A
:101A47007401F0900BB8E06401705090097A740645
:101A5700F012001212976690098FE0602BE4F07B7A
:101A6700017A0979867F107E27FDFC12B5B27D01C8
:101A77007F04120A2B127A0C12668E701E1200F95E
:101A8700EF7018120C2480137B017A09798612B53E
:101A9700E4EF6007E4FD7F04125043020012900B4D
:101AA700CCEFF07F01227F0151A512315A5004AFCC
:101AB700068000900BCFEFF0909C41E09009E2F098
:101AC700909C42E09009E5F0900BCFE0C394405022
:101AD70014129766900BCF1279EC120FE8900BCF88
:101AE700E004F080E3B141909C4FE0549F71407156
:101AF7002D909C4FE054E77140909C4CE054FCF0D3
:101B07007F147E007145120017B122EFF47002EEC8
:101B1700F46012B122EFF47003EE64FE6007909C4C
:101B270048E04401F022909C49E054EDF07F027EAA
:101B3700007145909C4FE054F9F07F027E00900BB6
:101B4700A7EEF0A3EFF0900BA71257A545F0600B97
:101B5700129766120FE8120FE880EB22900B80EFC6
:101B6700F0909C4EB139909C4DE0543F900B82F120
:101B7700EB7002EEF46012B122EFF47003EE64FE34
:101B87006007909C48E054FEF0909C4CE04403F0C2
:101B9700909C41E4F0A3F0909C4FE0441871409072
:101BA7009C4FE044017140909C4FE0440671409087
:101BB7009C49E0441271407B017A0979DB7F107EF2
:101BC700271217B89009D5E060028192909C4BE0EC
:101BD70020E058909C4BE030E002818CD1F9600204
:101BE700818CB122EFF47002EEF4600BB122EFF4B6
:101BF7007003EE64FE7022900B81E014B12B909C71
:101C07004EE07023ED643F607C900B817440F0A33D
:101C1700E025E0F04401F0800E900B81E014909CE9
:101C27004EF0B139E0605ED1F380A8909C4BE03074
:101C3700E053909C4BE030E04CD1F97048B122EF73
:101C4700F47002EEF4600BB122EFF47003EE64FE61
:101C5700701F900B81E004B12B909C4EE0643F70A5
:101C670020ED6021900B8174FFF0A3E0C313F08097
:101C770010900B81E004909C4EF0B139E0643F6016
:101C870004D1F380AD9009D57401F0712D909C4F6C
:101C9700E054FE7140123144909C4FE0440671407D
:101CA700909C49E044127140909C4FE04460714021
:101CB7001200169009D7E07003F1F1F0B148123124
:101CC7004D5004AF068000900B82EFF0900B8174AB
:101CD7003FF0900B82E0FF900B81E0D39F402B12E7
:101CE7007A4AFF900B81E0FEC39F4005909C41EE2E
:101CF700F0127A429F4008900B81E0909C42F012CC
:101D07000FE8900B81E014F080C89009E2E0909C06
:101D170041F09009E5E0909C42F02290966BE0FE3E
:101D2700A3E0FF22909C4EF0900B82E0FD909C4D2B
:101D3700F0A3E0543F900B81F022909C48E044448C
:101D4700F07F0A7E006145900BCDEFF0127956E0E7
:101D57004480B147909C45E054FAB147909C46E0D7
:101D6700547FB147909C46E054DFB147909C46E0D2
:101D770054EFF0900BCDE0FF1279801217B8909CCA
:101D87004BE020E305D1F960F52222AE079009E385
:101D9700E07077122FF8AF06B14E909C00E4F090F8
:101DA7009C49E04440F0120FE81241457481F090DD
:101DB7009C0014F1EB7002EEF46008B122BEFE0D38
:101DC700BFFF0A909C437402F0A3F0800D909C43E0
:101DD7007401F0A3F0909C4AE4F0909C04E4F012A4
:101DE7007A3A7411F09009E2740AF09009E5F0B1BB
:101DF70015E49009D8F09009E304F0909C01E044C1
:101E070003F07F327E007145F1CE22900B83EFF015
:101E170030E603124105900B83E0FF30E7031240E1
:101E2700FDEF30E606909C41743FF0900B83E03065
:101E3700E706909C42743FF0900B83E0FF30E60387
:101E47001240F5EF30E7031240ED7141900B83E04C
:101E5700FF30E6031240E5EF30E7031240DD714142
:101E67009009D7E06444601A900B83E0FF30E607DF
:101E7700909C48E054FBF0EF30E707909C48E05413
:101E8700BFF0B14812314D5004AF068000900B846B
:101E9700EFF0A3743FF0900B84E0FFA3E0D39F40E3
:101EA70038127A4AFF900B85E0FEC39F400C900BD7
:101EB70083E030E605909C41EEF0127A429F400F96
:101EC700900B83E030E708900B85E0909C42F0711F
:101ED70041900B85E014F080BD900B83E0FF30E666
:101EE700041240D5F0EF30E702B119227F057E00DA
:101EF70061451297667B017A0979DB12B5E4EF2217
:101F0700128358AC00AD01AE02AF039009F0128501
:101F1700709009F01284D39009EC1284DFC3028415
:101F27000E909C437403F0A3127997440912798E9B
:101F370054EE12798E54DDF0120FE8B122EFF470EF
:101F470002EEF46008B122BEFE0ABFFF07909C4371
:101F570074028005909C437401F0A3F0127A5270CA
:101F670004F1F1B147127A327F507E006145AE0726
:101F7700122FF8909C46E04410F0AF0612798012B9
:101F870017B8909C4BE020E204D1F960F51279561E
:101F9700E04480F07F01127958E04420F0120FE806
:101FA700909C45E04405F0120FE8909C46E0547F72
:101FB700F01279F6909C49E054BFF0120FE8E490D4
:101FC70009E3F09009D8F09009D6E07016125E5731
:101FD700C083C082E0FFA3E054FED082D083CFF05D
:101FE700A3EFF022F0B122EFF422909C48E054BB1B
:101FF70022900B88E07019900BAEE0701311181146
:10200700F312B988900AFFE0B40C0251201248126B
:102017002290091BE0B4010211261268C0F02212B7
:1020270017EAE4FD7F011216E1113C4440F07F14EA
:102037007E00029001909602E04440F0A3E054BF76
:10204700F0909605E04440F0A3E022711574FFFF7D
:10205700FE12B83F12B8CC129766E4900BBFF0128D
:1020670057E71262FED2AF1263AA113C4440F090C8
:102077009601E054BF710D912B1251E81250621274
:1020870051E0A3E0444011474440F0909601E044FA
:1020970040710DE4FDFF311411F312B988E4FF120A
:1020A700683E1241BFE4FF121D921249141245CF38
:1020B7001246CF125AE11297661242099141D13E58
:1020C7001269FE600F14601624FC601724FB600978
:1020D700240B7012121207800D120C5D8008125F1C
:1020E700D180031257D912690380CBF07D107F206E
:1020F70012B9467D107F2112B9887D107F1D12B954
:10210700887D107F1E12B9467D107F1C2271C1EF9A
:10211700700F90B204F090B203315290B205F08084
:1021270024EFB4010E90B204E4F0A3315290B2034D
:10213700F08012EFB4020E90B203E4F090B20531D2
:102147005290B204F090B000E4F022F0ED90000E4F
:1021570093229009A37401F0900995F012792B123C
:10216700B946125A3E124056120C245115EF600C14
:1021770090099D740111F212B9888009E490099DB4
:1021870011F212B9465115EF601290099DE0600CEB
:102197007401F0FBB1C490099C7401F0123FEB127B
:1021A700103F1279A012B988514512B9887D207F56
:1021B7000F12B98812787512B9887D017F2012B97C
:1021C700467D017F2112B9887D017F1E12B9887D66
:1021D700017F1D12B9467D027F2012B9467D027F1D
:1021E7002112B9887D027F1E12B9887D027F1D12D8
:1021F700B9467D807F0212B9467D807F0312B98878
:102207007D807F0512B9467D807F0602B946E4FFCF
:10221700126C6430E7027F0022120D9E12302DE40B
:10222700FF120DE312792B12B9881279A012B94661
:1022370051451268B812B94612787502B9887D01FE
:102247007F0212B9887D017F0312B9467D027F059F
:1022570012B9467D027F0612B9467D027F0212B986
:10226700887D027F0312B9467D027F0112B988E497
:10227700FDFF31147D047F0512B9467D047F0612E8
:10228700B9467D047F0212B9887D047F0312B946DF
:102297007D047F0112B9887D207F0E2290961DE074
:1022A70054DFF0A3E04420F0909620E04420F0A310
:1022B700E04420F090961CE054EFF07F027E00127D
:1022C7008AF890961DE054BFF0A3E04440F0909642
:1022D70020E04440F0A3E04440F090961CE054BF57
:1022E700F07F027E00128AF8909602E054FBF0A37A
:1022F700E04404F0909605E04404F0A3E04404F0C1
:10230700909601E054FBF07F027E00028AF89098D5
:102317008AE04430F090988CE054FAF071C19098BC
:1023270004E0B4170890B0077403F08009907FC0E9
:10233700E49390B007F090B000E4121FEB4E600AF0
:1023470071C190B008E0440271CE7D027F0712B9D7
:10235700887D027F0512B98890B009E020E15A71A3
:10236700C190B009E0440271CEF50AF50B050BE503
:102377000B7002050A640A450A70F2E4F50AF50BC8
:1023870090B004E030E01F90B004E030E10280112B
:10239700050BE50B7002050AD39440E50A941F402C
:1023A700DFE4FF02BA9A90B004E020E0DAE020E12F
:1023B700D6E4FF12BA9A1248122290B00074FFF0C6
:1023C7002290B100E054BEF090B000E4F022900BF0
:1023D700F4EFF012B957900BF4E0FF700971C17177
:1023E700FBE04404800BEFB4010971C171FBE044C9
:1023F7000871CE2290B009E054F3F022E490094E20
:10240700F01245BCD1371245B51217B4E4FF71D5A8
:10241700E4FF12C06B12C00E51A31278F17F027E47
:1024270000028AF8D1059103B1AB913AFFFEFDFC9A
:1024370002B5B27B017A0A792122120A8D900BE349
:10244700EFF060097B01B1C41279E5B1C8900A28A1
:10245700E0B40105B190120018900A1EE07002A3C3
:10246700E06025913A12B5E4EF7007900BE3E0B412
:102477002216913A7F887E131217B8900BE37421C6
:10248700F0E4900A28F0A179900BE3E0FFC39416DB
:102497004071EFD39420506BB1B36007EF640260D3
:1024A70002A168E4B1BB900BE3E0FBB42019B19043
:1024B7007C007D0A128182ED4C6002B1ABB1FB90CA
:1024C7000A267401F08025900A26E06011EB24EAC1
:1024D700FFE434FF900A1E8FF01281D78009900B1A
:1024E700E3E024EAFFB1D3E4900A26F0E4900BE39B
:1024F700F0913A7FD07E07FDFC12B5B2B190120081
:1025070018806F900BE3E0FFC39431405BEFD394E7
:102517003B5055B1B36005EF64027056E4B1BB910F
:102527003A7F887E13FDFC12B5B2900BE3E0FFB44F
:102537003B04B1FB8006EF24CFFFB1D3B19012006B
:1025470018B1B36004EFB402181262E6D3900A1F01
:10255700E09F900A1EE09E5008900BE3743CF080C9
:1025670011E4900BE3F0800A900BE3E06004B1AB59
:10257700B1BB900BE3E0FD600F7F011215E3900BF9
:10258700E3E0FDE4FF1215E322900A1EE0FEA3E05C
:10259700FF229005BFE0B40508A3E0B4AC037F01B8
:1025A700227F0022E4900A1EF0A3F022900AFFE0A7
:1025B700FF640122900A28F0900A27F0227A09790D
:1025C7009E7FC07E277D097C0002B5B2AB07B19024
:1025D700C394E8EE940350117C007D0A128170EBDE
:1025E7002FFFEC3E900A1E8006AF03900A1EE4F010
:1025F700A3EFF022900A1EE475F00A0281D7E49057
:102607000A12F01279DED1377D807F1D12B9887DDD
:10261700807F1E12B9887D807F2012B9887D807FD8
:102627002112B94651A31278F17F027E00028AF87F
:10263700FFFEFDFC02B5B2900AFFE0900BDAF0E472
:10264700FF125F809009CCEFF064576004E0B4425A
:102657000312504D125B4DEF602D900AFFE0FF64AF
:10266700076024EF6408601F900006E0B4030A9037
:102677000AFFE0B40D03121626120D9E7F967E0008
:10268700128AF87F02F108125ABFEF60047F03F144
:1026970008125BABEF60047F07F1081259E2602074
:1026A70024FD24FD5024240770379006D2E06008EB
:1026B700120F5DEF702B800E125B6FEF7023800699
:1026C700125A76EF701B7F01801512001DEF7011F3
:1026D7007F907E01128AF8125BABEF70047F02F1E4
:1026E7009B9009CCE0B41418900006E0B4030A905C
:1026F7000AFFE0B40D03121626900AFFE0FFF13D32
:1027070022900AFFE0900BD9F0F121EF700B900BAC
:10271700D9F18570047F01F13D22EF24FD600C247F
:10272700FC600D24FB6007240A8008025993807619
:10273700025853020F5DE4900BB0F0900BB0E0FE2F
:10274700C39404501174C32EF193E06F6008900B8B
:10275700B0E004F080E5E4900BAFF0129766900BC1
:10276700B0F18B4002E4F0900BB0E024C3F193F199
:1027770085700A900BAFF18B40E11259E922E0FF17
:10278700F121EF22E004F0E0C3940422F582E4345F
:1027970009F58322900BD8EFF0F121EF7007900B2A
:1027A700D8E0FFF13D22120A0B7F0C12591EE4FDFF
:1027B7007F01120A2B31597F0122D310AF01C3C009
:1027C700D09006A0E0FF6406600EEF64056009EF95
:1027D700640760047F008054900AFFE0B4041690F9
:1027E7009901C083C082E0FFA3E04404D082D08374
:1027F700CFF0A3EFF0122838E06F600D900AB11206
:102807006687F01138EFF08021900AB1E07002A3DB
:10281700E07017900AB104F0A374F4F01143511D4E
:102827009006A07408F07F0080027F01D0D092AF9D
:10283700227F0C7EA3128C84900AAE22D310AF01A4
:10284700C3C0D0909644E054FCF0D0D092AF229011
:1028570096457403F0514EEF60189006A0E06407A8
:102867006010900AB1740BF0A374B8F09006A074CE
:1028770007F09006A0E0FE702B31DEEF600C5130C0
:10288700EF7007900AACF0A3F0225108FCC3E5F003
:102897009464EC9400500221DD51127402F0900A06
:1028A700AB14F022EEB4012631DEEF700221DB51CA
:1028B70030EF600221DB900AAC510CFED3E5F094B7
:1028C70064EE9400500221DDE49006A0F022900609
:1028D700A0E06402703D31F531DEEF600A5130EF60
:1028E7007005511304F022120807EF6401700221EA
:1028F700DD900AAF510BFEC3E5F094D0EE9407507C
:102907000221DDE4900AAFF0A3F0511D9006A074F8
:1029170003F0229006A0E0FE6403701F31DEEF7023
:1029270016126F0D31DEEF6008114351127404F077
:1029370022114331F521DB31F521DBEEB4041A31E5
:10294700DEEF600431F521DB5108FED3E5F094F4A6
:10295700EE9401500221DD800D9006A0E0FEB40543
:102967001D31DEEF70079006A07406F0225108FCB7
:10297700D3E5F09432EC9400405C31F58056EEB428
:102987000614126FD2EF6002514731DEEF604790B5
:1029970006A07405F0229006A0E0FEB40721514E70
:1029A700EF70069006A07406F0D3900AB2E0940088
:1029B700900AB1E09400401E74FFF5F00281D7EE53
:1029C700B4080F1143511D31DEEF600A114331F591
:1029D700800231F5514722900AFFE0B4040890962F
:1029E70012E05402FF2290A628E05404FF22D310DD
:1029F700AF01C3C0D0909644E04460F0D0D092AF0E
:102A070022900AACE475F0010281EDE4900AACF083
:102A1700A3F09006A022D310AF01C3C0D090964474
:102A2700E0549FF0D0D092AF22900AFFE0B40408A0
:102A3700909612E05401FF2290A628E05402FF224C
:102A47009006A07402F022909644E05403FFBF035F
:102A5700047F0180027F002212C8CB90A62274094E
:102A6700F0909883E4F0511D114312793E126F0DD7
:102A7700127A0CE4FDFF127A0471494440FD7F018C
:102A8700127A04714954DFFD7F017EA3128F80E41F
:102A9700FF126FB851A3E4900AAEF0227F8151A9CB
:102AA7007F02900BEFEFF0547F1256B0900BEFE0E0
:102AB70030E738714754DF713F4440B14FB1FFC031
:102AC7000691CAD0E04FB14F7F1371497F00FEC016
:102AD70007C00691CAD0E0FED0E0EE4420FDF1E940
:102AE7007D407F101252357F1180487F16714954FF
:102AF700BFFDF1D97F1671494480FDF1D9B1FFC0FF
:102B07000691CAD0E04FB14F7F1371497F00FEC0D5
:102B170007C00691CAD0E0FED0E0EE54DFFDF1E930
:102B27007D407F141252351279FD7F16714944108A
:102B3700FD7F167EA3028F80FD7F127EA3128F80FA
:102B47007F127EA3128C84EF22D080D0807B017A03
:102B57000A79359006A112377C12B5B27B017A0A41
:102B6700793A7F641217B690057AE06403703C12D5
:102B77005278900A3FEFF030E6147F16714944808F
:102B8700FDF1D97F167149549FFD7F168076900518
:102B97007BE0600B126FAF20E00281587F0122902B
:102BA7000A3FE020E00281587F012290057AE06425
:102BB70004703091CA900A3FEFF030E50D71474439
:102BC70080713F54DEFD7F12803A90057BE06009FB
:102BD700126FAF30E07B7F0122900A3FE020E07167
:102BE7007F012290057AE060046402702CB1FFC077
:102BF7000691CAD0E04F900A3FF030E21271475475
:102C0700D9FD7F127EA3128F8012935E7F002290E0
:102C17000A3FE020E13B7F012290057AE0640170E2
:102C27002D7F1371497F00FEC007C0067147FDD095
:102C3700E0FED0E04DFF900A3FEEF0A3EFF030E268
:102C4700037F0022900A40E030E0067F01227F00E8
:102C5700227F607149645D60037F00227B017A0AED
:102C6700793512B5E4EF7006129758EF70361252A5
:102C770078900A3FEFF054DF4401FDF1D990057ACF
:102C8700E064037014A3E070107F32FE1290017F9E
:102C970016714930E0037F0122714754D6B14FB115
:102CA7004E7F00221297667B017A0A793A12B5E4C1
:102CB700EF7002616E7F0112AFF6EF64016002618F
:102CC7006EFF227F127EA3028C84900BEEEFF054EE
:102CD7000F1256B0900BEEE07025B1FFC00691CAF7
:102CE700D0E04FB14F7F1371497F00FEC007C00688
:102CF70091CAD0E0FED0E0EE4401FD7F1380429000
:102D07000BEEE030E74071474408B14FB1FFC00612
:102D170091CAD0E04F4410B14F7F1371497F00FE35
:102D2700C007C0067147FDD0E0FED0E04D4410EE6D
:102D3700FDF1E91247BA714754CF713F4440FD7F17
:102D4700127EA3128F8022E4FD7F127EA3028F8062
:102D5700126FCBEF30E210E4FF126FB87F0451A976
:102D67007F8151A912523D7B017A0779F87D0812BC
:102D77006E10EF7002A1FE9007F8E020E7119007B0
:102D8700FEE0600B7B017A0879617D08126E57902F
:102D970007F8E054607049A3E01205492DC2002DE1
:102DA700FE012DC4032DCA052DD4062DD6082DD816
:102DB700092DE10A2DFE0B00002DE3801F9007FC73
:102DC700E0801A9007FAE0547FFF026FB8803380E3
:102DD7001B51A37F8351A9025BCE8010E4FF81D1F1
:102DE7009007F8E0B4A10DA3E0B4FE087D01E4FF6D
:102DF700FE026EB8123A94227F137EA3128C847E51
:102E070000229007FBE024FE604914604F14700213
:102E1700C1E5147002C1F424E37002E124242160A7
:102E270002E13A900848E0900854F0900847E09093
:102E37000855F0900846E0900856F0900845E09055
:102E47000857F07B017A08794CF1D3900B64741220
:102E5700F0E13EF1CDF1C7900002C1EF9007FAE033
:102E6700FF700D7BFF7A067979F1D31280F6E11CAA
:102E7700EFB40105900849800F9007FAE0B4020506
:102E870090080080039007F51285DDF1D3E4900BDD
:102E970064F0900B64E0FFC39420502B900B6112F9
:102EA7005E4CFF6022F1E02405F582E43408F583E7
:102EB700EFF0F1E02406F582E43408F583E4F090BE
:102EC7000B64E004F080CBF1E02402F0900803F0FB
:102ED700A37403F07B017A087903F1D38059F1CD0C
:102EE700E9240AF1C390000A12810F80289007FA9B
:102EF700E0FFB4810FF1CDE92412F1C39000121263
:102F0700810F8011EFB40213F1CDE92419F1C390B9
:102F1700001912810F900B64F0801C80167BFF7ADA
:102F27000779C2F1D3900B647421F0900AE1740120
:102F3700F08004E4FF81D19007FFE0FE9007FEE0F8
:102F4700FD7A002400FFEA3EFE900B64E0D39FEA7F
:102F57009E4002EDF0900B611285DD900B64E0FD61
:102F6700900B171285E6900B1AED1256AE12976664
:102F7700900B1AE0FFD394404006A37440F08005FD
:102F8700900B1BEFF0900B1BE0FDC3EF9D900B1A0E
:102F9700F0900B17126EB012897A71474402B14F45
:102FA700E4FDFF126F20EF6012900B1BE0FF900B08
:102FB700181257E1900B1AE070B32222F9E43AFA9B
:102FC700900B611285E690085E0285DD900B610229
:102FD70085E67F167EA3028F80900B64E025E022B2
:102FE7007D207F137EA3028F80900B00E0C3942087
:102FF7002212325D30E0027F019009D6EFF09099FE
:1030070001C083C082E0FFA3E04401D082D083CF18
:10301700F0A3EFF0909C06E04480F022122FF89086
:103027009C48E05444221123FFBF4402805A120FE8
:10303700B460023136120FBB7005E05412603E12C5
:103047000FBB600A315A5004AF06800A8008314D21
:103057005004AF068000900BD2EFF0900BD2E0C384
:10306700943F5017129766900BD2E004F0E0543F5C
:10307700909C41F0A3F0120FE880E03144112664E0
:10308700446005E04444313C021FCE112370022105
:103097002B31441126600BE054BBF07F1E7E0012DB
:1030A7001B45120FB46003127A32120FBB7005E092
:1030B70054126070120FBB6010315A5004AF068073
:1030C70000312EF09009DA800E314D5004AF0680A2
:1030D70000312EF09009E5E0900B3BF0900B3C742B
:1030E7003FF0900B39E0FF900B3CE0C39F40351257
:1030F7009766900B3CE014F0900B3AE0FF900B3C86
:10310700E0FEC39F4007EE543F909C41F0900B3B7D
:10311700E0FFEEC39F4008A3E0543F909C42F012AB
:103127000FE880BE021FCE900B39EFF0A3EE22907E
:103137009C01E04403F07F507E00021B45909C41B8
:10314700743FF0A3F0229009E5E0FF9009E2E0FE6A
:10315700C39F229009DAE0FF9009D9E0FEC39F22BE
:10316700315A5004AF068000900BCEEFF0909C418F
:10317700E09009D9F0909C42E09009DAF0900BCEEC
:10318700E0C394405014129766900BCE1279EC125C
:1031970079F6900BCEE004F080E3121D41909C4934
:1031A700E054DBF07F037E00021B4531441279981F
:1031B7004424F0120FE8909C47E04403F07FF47E2C
:1031C70001121B45909C47E054FCF0127A527004A0
:1031D700121FF1F0121D48315A5004AF06800090BB
:1031E7000BA9EFF0A3743FF0900BA9E0FFA3E0D386
:1031F7009F40331297669009D9E0FF900BAAE0FE33
:10320700C39F4005909C41EEF09009DAE0FFEEC3C2
:103217009F4008900BAAE0909C42F0120FE8900B99
:10322700AAE014F080C29009D9E0909C41F090097F
:10323700DAE0909C42F022515D30E0027F01900B72
:10324700F6EFF0909901C083C082E0FFA3E044014C
:10325700D082D0830116909901A3E07F0022900BC2
:10326700ECEFF09009027401F0125E85EF7002FF37
:103277002212C7F79008DEE0FF125BE0900BECE04C
:10328700FF7E00E4FD124E00EF7002FF2251EB714A
:103297001CEF4E7002FF2251EB12CDA0900BECE019
:1032A700FF640A6009EF64096004EFB40808900B33
:1032B700007410F08006900B007418F07F09120D4F
:1032C700E39008E0E0FEA3E0FF125C8E119212206B
:1032D700F312B9467F327E00128AF8123A2212CED2
:1032E700B87F0122900403E0FEA3E0FF7D007C028B
:1032F70022126C35EF60037F002212BD13EF7003BB
:103307007F012251EB711CEF4E7002FF2251EB122D
:10331700CDA07F0122900B591260D59008CC128462
:10332700D39008BC71AAC006C007900B59E0FEA352
:10333700E0AA06F97B01A3E0FFA3E0900A8FCFF094
:10334700A3EFF0D007D0061246569008CC1284DFC0
:10335700900B5BF17C1282B29008CC1285709008BA
:10336700BBE070279008CC1284D3EF24FFF1DFF184
:10337700EB1283589008911285709008911284D3AC
:1033870090074B71AA90088D128570900B5BE0FE39
:10339700A3E0FF229004531285DD90002712846575
:1033A7009004561284DF0282B290096212857C0073
:1033B700000000E4900974F0900006E0B4010C12DC
:1033C700CD53EEC31390096FF0800690096F740117
:1033D700F0F1281279457002FF22F1281279617005
:1033E70003EE64556008900AC0E07002FF22E49083
:1033F700096EF090096EE0FFC39404400281AEEFBE
:1034070075F010A424BEFFE5F0340EFAA9077B017E
:103417009009771285E6123DC2FF6405600AEF64E2
:103427000F6005EF64857035900974E0FF600890C0
:10343700096EE0C39F40269009621284DFC000C076
:1034470001C002C003127971D003D002D001D000AD
:10345700F18590096EE004900974F061D8900977BE
:10346700F19112810FFF64046018EF64066013EF97
:10347700640B600EEF640C6009EF64016004EFB445
:103487000E1D9009621284DFC000C001C002C00394
:10349700127971D003D002D001D000F18580089055
:1034A700096EE004F061FA90096EE0B4041B90091C
:1034B70074E0FFD394004011EF9404500C9009621C
:1034C70012857C0000000061D890096FF100F107B8
:1034D7001279457002FF2290096FF100F107127906
:1034E700617003EE64556008900AC0E07002FF2225
:1034F700900D0DE0900013F0900D0EE0FEA3E0FF9D
:103507001297F8900975EEF0A3EFF0E4FCFD90092F
:103517006271AA900014128570900D11F12E603A15
:103527001297F87C007D201285EFF11F90096FE05C
:103537007F0025E0FEE4FCFD1282B2124759C00667
:10354700C007E025E07B00FAE4F9F8D007D00612BF
:10355700835890095E128570800A90095E12857CF7
:1035670000000000900D16F12E60081297F8E4FC99
:10357700FD8005900D24F113900966128570900D5A
:1035870013F12E60081297F8E4FCFD8005900D20DA
:10359700F11390096A128570D1FD900966F10AF15D
:1035A7001F900975F17C1282B290095E71AAF11F12
:1035B70090096AF1D9C007900013E0FBE4FAF9F823
:1035C700D007128358900970128570E47FF57E0F3B
:1035D700FDFC900970121F215008E4900008F07F4D
:1035E7000122E47FF57EFFFDFC900970121F215038
:1035F7000AE4900007F0A304F0802578367C0D7D5F
:10360700017BFF7A0679707E007F081287A2EF9010
:1036170000077003F080037401F09000087401F054
:10362700D1FD900966F10A90001471AA90095E71A4
:10363700AA90001C128570900007E06009F11090B5
:10364700097071AA800E9009701284D3EF2402FFCB
:10365700E43EF1E3900020128570900007E0601FC0
:10366700F110EF24FEFBEE34FFFAED34FFF9EC34F2
:10367700FFF8900013F1001282CD90001C800AD150
:10368700FD900966F10A90001471AA90001812853E
:1036970070900013E0FE90096FE0FFEE8FF0A490AA
:1036A7000013F0A31284DFE4FCFDFE1282CD90002C
:1036B7001412857090001C1284DF90096FF10012BC
:1036C70082CD90001C128570F12890096A71AAF1C9
:1036D7001F90096FF1001282CD900024128570901F
:1036E70000181284DF90096FF1001282CD90001844
:1036F7001285707F0122900D10E0FFE4FCFDFE2291
:103707009009621284DF0282CD900D2C1284D302BD
:1037170098141284D31282BFA804A905AA06AB077E
:10372700229009620284D3E0FEA3E0FF4E22900AB2
:103737007F128570900A831285E6900A86F12E60C3
:1037470033D3EF9400EE9401502A7F06124275128C
:1037570043557F02124275900A7F124785900A8669
:10376700E0FEA3E0FF900A831285DD123F7E12433D
:103777005512437C22E0FEA3E0FFE4FCFD22128207
:10378700B290096202857090069D1285DD90000453
:1037970022A2AFE433900BD5F0C2AFF18E12810FA6
:1037A700701D128445126C1A900611F1D9E4FBFAC8
:1037B700F9F8C31283F85007F18E740112814E9005
:1037C7000BD5E024FF92AFD080D080F18E12810F0D
:1037D700FF221284D30282BFFFEE3401FEE43DFDD7
:1037E700E43CFC22E4FB7A02F9F822900B7DEFF02F
:1037F700A37401F0129766909C46E054F0900B7FFB
:10380700F0E0FF900B7EE0FEEF4EA3F0900B7DE023
:10381700B4010BEEB40707900B7FE04408F0900B60
:103827007FE0909C46121D47900B7EE004F0E0C3BA
:10383700940840C02212314D5004AF068000900B0F
:10384700D0EFF0900BD0E0D3943F502C12976690B6
:103857009C49E030E108900BD0E0909C41F0909CAF
:1038670049E030E408900BD0E0909C42F0121B41F5
:10387700900BD0E004F080CB909C49E030E10790BA
:103887009C48E04404F0909C49E030E407909C4851
:10389700E04440F0121D48909C49E030E10211D805
:1038A700909C49E030E40211D0121B41909C49E002
:1038B70030E104E054FDF0909C49E030E404E0542A
:1038C700EFF07F027E00021B45909C4FE054DFF033
:1038D70022909C4FE054BFF022122FF89009D8E0B5
:1038E7005412702E909C49E030E10211D8909C4907
:1038F700E030E40211D0121B41909C49E030E10412
:10390700E054FDF0909C49E030E404E054EFF012FD
:103917001B41909C4CE030E204E054FBF0909C4C3F
:10392700E030E304E054F7F0021FCE900B3512604D
:10393700D5122FF8121D22EFF47002EEF460631215
:103947001D22EFF47003EE64FE6057900B35510BA8
:10395700C333CE33CED8F9FF7C007D051281829028
:103967000B35EEF0FAA3EFF0FBA3510BC333CE33C5
:10397700CED8F9FF7C007D05128182900B37EEF0DF
:10398700A3EFF0D3EB94EAEA940B4005900B355183
:103997001AD3900B38E094EA900B37E0940B40026F
:1039A700511A900B355112A35112900B35E0FCA31D
:1039B700E0FDECC454F0FBA3E04B9009E0F0AF0549
:1039C700A3EFF0900B37A3E09009E4F0909C04EF8D
:1039D700F0909C02E0540FF0C083C082E0FF900992
:1039E700E0E0FE54F0FDEF4DD082D083F09009E483
:1039F700E0127A3AE054F0F0E0FFEE540FFEEF4E9B
:103A0700F0021FCEE0FEA3E0780222E0540FF0A3FD
:103A1700E0F022740BF0A374EAF022900B00E0258B
:103A2700E02494F582E43408F583F1C8FDAC06215F
:103A3700329009AE5163900BB1EEF0A3EFF090090D
:103A4700C15163AD07AC06900BB1E0FEA3E0FF31B7
:103A5700327B017A0679DD7D0102103FE0FEA3E0AB
:103A6700FF900B00E075F0029008941285D1E49363
:103A7700FC740193FD1285EFE47BE77A03F9F80202
:103A870083585138120C24E4900B01F0229007F868
:103A9700E064217019A3E0B40114A3E07010A3E05F
:103AA700B4010B900861E0B40102E1C180D4900732
:103AB700F8E06421702AA3E0640170249007FBE01A
:103AC7006402701C9007FAE0900862B4010771BEA7
:103AD7009009AE800571BE9009C1F0A3EFF041389F
:103AE7009007F8E0B4A110A3E0B4820B9007FBE0C5
:103AF700B402047D0280789007F8E0B4A114A3E033
:103B0700B4830F9007FBE0B402087D027FE77E03D2
:103B170061BA9007F8E0B4A114A3E0B4840F90074A
:103B2700FBE0B402087D027F017E0061BA9007F8CE
:103B3700E064A17025A3E06481701F9007FBE0B4E7
:103B470002189007FAE0B401059009AE80039009C6
:103B5700C1E0FEA3E0FF7D0280599007F8E0B4A121
:103B670013A3E0B4810E9007FBE0B401077D01E4E5
:103B7700FFFE803F9007F8E0B4A10CA3E0B4FE0776
:103B87007D01E4FFFE802C9007F8E0B4A113A3E0C9
:103B9700B4810E9007FBE0B40A077D01E4FFFE80C5
:103BA700129007F8E0B4800E9007FEE060087D01F0
:103BB700E4FFFE126EB822E0547FFE900861E07CBD
:103BC700002400FFEC3E22E4900AB8F0D080D080B9
:103BD700FE7F08FD7B017A0579BF1287C6B1C8A3AE
:103BE7007408B1A79004B1E4B199700AB190700656
:103BF700B1907002FF2290022CE0FF900AB4F0907F
:103C07000233E0900AB3F0D3EF94007480948140BC
:103C170003E4A3F012BDF79006A17427F0A3741074
:103C2700F012CA15EF7002FF22B1C8900AB3E090F4
:103C37000398F0B1AFEFB19D7002FF2290023CE014
:103C4700900AB9F0900235E0FE90023471C59005F4
:103C5700BFF0A3EFF0900237E0FE900236E02400B9
:103C6700FFEC3E9005C1F0A3EFB1A7B1BA7409B15B
:103C7700D07002FF2290022EE0900AB4F0D3940095
:103C8700748094814002E4F0B1AFEFB1D07002FFCD
:103C97002212B007BF0107E49006ACF0FF22B1A8DB
:103CA700900AB51285E690022EE0242CFFE4340238
:103CB700FAA9077B01C003C002C001900AB51285AB
:103CC700DDC3D082D083D0E0E99582EA95834002B4
:103CD700A18D900AB51285DD127925FF640470362F
:103CE70090000512810FB4081990000612810FFE8B
:103CF70064056004EEB4060A90000712810F645051
:103D07006007E4900ABAF08006900ABA7401F0E4FA
:103D1700900AB8F0804CEF64057047900ABAE060EB
:103D27004190000312810F540364027035B1E030F3
:103D3700E718540F900367F0A37405B1C1900369A6
:103D4700F0900AB8E04401F08018B1E0540F9003F6
:103D57006AF0A37406B1C190036CF0900AB8E0440E
:103D670002F0900AB8E0B4030F900231E0FF12CAE4
:103D770064EF7F017012FF22900AB5F1BBFF900A32
:103D8700B61257E181AD7F00227B017A02792C9030
:103D970004B1F0A37408F0E4FD7F0112AA35EF2205
:103DA700F07B017A02792C227B017A02792C900A26
:103DB700B4E0FF9004B1E4F0A322F0900004028184
:103DC7000FE4900396F0A3F022F0E4FD7F0212AA1D
:103DD70035EF229005AF1285DD90000202810FB109
:103DE700DA75F002908A791285D1F1C89000031232
:103DF700810FFD7C00EF2DFFEC3ECF24FFCF34FF7A
:103E0700900B26F0A3EFF0128203FFAEF012C07BF7
:103E1700EF600CB1DAD394024005900B26D19D9048
:103E270005AF1285DD1282032444FD2403FFE4332A
:103E3700FEEF7802CEC313CE13D8F9900B2AF0AF5A
:103E470005E4FCFDFE7B6D7A01F9F81282CD900B3B
:103E57002A124FD0FE900B27E02FFF900B26E03E53
:103E6700900B28F0A3EFF0900BB3E0B40208900B8F
:103E7700B4E064036010D195FF12BFDB9005AF1269
:103E87003791EF12814ED080D080D195FF22900BD1
:103E970028E0FEA3E022E475F0010281D7F17890D3
:103EA7000A2D1285E6F16CE4C39F900A32F0603E5A
:103EB700F172900A32E0FF900A86E4F16812373512
:103EC700900A291284DF900A321237001282B2F167
:103ED70078900A32E0FF7E00900A2EEE8FF0128172
:103EE700D7C3900A31E09FF0900A30E09EF0C3906C
:103EF7000A30E094014045E4900A33F0A3F0900AB9
:103F070030E0FFC3900A34E09F900A33E0940050FA
:103F17002BF16CF172900A867401F0A3E4F012376A
:103F270035F16CE42F1237DFF178900A2E740175A2
:103F3700F0001281D7900A33D19D80C27E00900A8B
:103F470030A3E0FF900A30EEF0A3EFF06012F172B9
:103F5700900A30E0FFA3E0900A86CFF16812373568
:103F670022F0A3EFF0900A290284D3900A2D02854C
:103F7700DD900A29028570900AC2EEF0A3EFF09057
:103F87000AC61285E6E4900AC4F0A3F0900AC212AA
:103F9700421E900AC5E09F900AC4E09E5015900A01
:103FA700C6F1BBFF1200E1900AC7D19D900AC4D1A8
:103FB7009D80D9221285DD0280F6E4FDFCFFFE21FB
:103FC70032E493FE740193FF22124046518BF1EBCA
:103FD70002103F125C6B5189900AE1F0F1EB12106D
:103FE7003F7F01227B017A0679DC7D0122AE071231
:103FF7002FF8EE543FFEED543FFD120FBB600A90C1
:1040070009D9EEF0A3EDF0800F120F56602E90093C
:10401700E2EEF09009E5EDF0909C48E020E20B908D
:104027009C41E0543F6E6002EEF0909C48E020E631
:104037000B909C42E0543F6D6002EDF0021FCE9062
:104047000B00E0FFAE07EE90098393FDFF809E7F94
:1040570024120DE3900B00E0FFAE07EE9009A49346
:10406700FDFF8089EF909C50B40105E054FCF022DD
:10407700E04402F0E054FEF022900BD3EFF0122F51
:10408700F8900BD3E0FF30E6023105EF30E702117D
:10409700FD900BD3E030E60211F5900BD3E030E74B
:1040A7000211ED121B41900BD3E0FF30E60211E540
:1040B700EF30E70211DD121B41900BD3E0FF30E632
:1040C7000311D5F0EF30E703121D19021FCE900937
:1040D700E2E0909C4122909C4FE04420F022909C8B
:1040E7004FE04440F022909C49E04410F022909C1D
:1040F70049E04402F022909C4CE04408F022909C56
:104107004CE04404F022122FF8909C00E4F0314573
:1041170074A3F0909C007480F09096417420F07D19
:10412700037F1D12B9467D037F1E12B9887D047F68
:104137001D12B9887D047F1E12B946021FCE909CBE
:10414700057442F0A322907FDFE493543FFF900B66
:10415700ABE4F0A3EFF0900BAB511E9424EE940068
:104167004009D3EF942CEE94004009900BABE4F098
:10417700A37428F0E4FDFF12B0157E007C0C7D1CB3
:104187001285EFC006C007900BABE0FEA3E0FBAAC9
:1041970006E4F9F8D007D006128358C3EF94B8EEB7
:1041A700940B50067E0B7FB8800DD3EF94F8EE94F6
:1041B7001140047E117FF82251021217B47B017A55
:1041C7000979901217B4900980E07002A3E0602685
:1041D700900980F1339009821284DFC000C001C0CA
:1041E70002C003314DE4FCFDD003D002D001D00062
:1041F700F1C1F1BA80D07F0102197A7B017A09797E
:104207007B22510212B5E4EF600C51027F32121784
:10421700B6E4FF12197A22E0FEA3E0FFC322900A58
:104227004C128570900A501285E6E4900A55F0A367
:10423700F07F0B5175900A4CF1857FFF1200E190DA
:104247000A53511E900A56E09F900A55E09E501659
:10425700120025900A501285DD900A55F14D900AFB
:1042670055123E9D80D9615571D4717C7F06AD078B
:10427700F13A0200E1900A57128570900A5B1285A5
:10428700E6900A5EE07002A3E070026132900A577E
:104297001284D3EF5401FFE4FEFDFCFBFAF9F8C3E7
:1042A70012840E6015900A5712853B900A5BF1AC99
:1042B7001280F6715D900A5EF1337F065175715574
:1042C7007FAD5175900A5771E971339138900A5F44
:1042D700E024FEFE900A5EE034FF900A60F0A3CE71
:1042E700F0D3900A61E09401900A60E094004015D1
:1042F7007FAD51757133900A6074FF75F0FE1281BE
:10430700D7913880DC7F0451757155717C900A5EB6
:10431700E0FEA3E0FF30E013E4FCFD900A57123300
:10432700AAF159900A5B123FBB715D22900A5BE4C8
:1043370075F0011205321280F6FF1200E1900A5B58
:10434700E475F0011205321280F6FF1200E1909633
:104357000AE04408F022900B0CF0900B08128570CD
:104367007F06517571557F025175900B0871E99061
:104377000B0CE071517F055175120025900BEBEF87
:10438700F071557F017E00128AF8900BEBE020E078
:10439700E422900B0D128570E4FF516F7155900B5D
:1043A70011E0FF5175715580CC900B031285707F1A
:1043B70043516F7155900B07E0FF5175900B07E064
:1043C70064C76005900B0371E9715580A8900BEAEB
:1043D700EFF07F50517571557F015175900BEAE0F1
:1043E70061511284D3E188900A62128570900A663F
:1043F7001285E6E4900A6BF0A3F07F0B5175900AE3
:104407006271E97FFF1200E1900A69511E900A6C00
:10441700E09F900A6BE09E5016120025900A6612E4
:1044270085DD900A6BF14D900A6B123E9D80D96134
:10443700557F017E00029001900BBDE0B403079009
:104447000B07915C61B0900BBDE0B40107900B11B5
:10445700915C71992274C7F07F007E007D007C001B
:1044670022B1BC12B5E4EF7002FF22B1BC7F051286
:1044770017B61264A6900BE4EFF090094EE024FE05
:10448700604F147002A15D24036002A199900BE4B0
:10449700E0F47014F1CAB1B512B5E4EF6007909675
:1044A70001E054BFF07F0022900BE4E0900943F055
:1044B700640C6004E0B41508B1A57FB87E0B8006D4
:1044C700B1A57FF47E011217B890094E7402F0A1CE
:1044D7009EF1A6EFB1B570087FD07E07FDFC800284
:1044E700915F12B5B2B1C36042E490094EF0EE6439
:1044F70001602DEE24FE601314601914601B240460
:10450700701E90961CE054BFF0801590961CE054E6
:10451700DFF0800C1279098007909601E054FBF0D8
:10452700B1AC2467F582E434098061B1A512B5E422
:10453700EF6064B1A1B424067FE87E0380047F2C7A
:104547007E011217B890094E7403F0B1AC2468F5D8
:1045570082E434098036B1C3600FE490094EF14616
:10456700246AF582E434098023B1A512B5E4EF602B
:1045770026B1A1B424067FE87E0380047F2C7E0148
:104587001217B8B1AC2469F582E43409F583E493D2
:10459700FF22E490094EF07F0022900943E07B015F
:1045A7007A09794422900943E025E025E0227B013E
:1045B7007A097959227B017A09794F22900BE4E035
:1045C700FF900943E0FE6F227D087F0C12B946F188
:1045D7006AE4900BBDF0B1F1900BBDE0FF600AEF0C
:1045E700B401067F1C71D4717C22F13A7F9F1200BF
:1045F700E1120025900B95EFF0D146EF12813CD1E7
:1046070046900001EF12814E7155E4900BBDF0907A
:104617000B95E0FFB4EF07900BBD7404F022EFB4E5
:10462700C807900BBD7401F022EFB4C207900BBD11
:104637007402F022EFB4BF06900BBD7403F0221290
:104647000025900B96E0FCA3E0AA04F97B002290DA
:104657000A88128570900A8C1285E6900A8CF1B34D
:10466700604C900A8F12372E6044900A8C1285DDB9
:10467700C3EA940F40167E00EF5403FF600E7404E4
:104687009FFFE49E900A8F8FF01281D7900BBDE0B9
:10469700B4030BD1C1900A53D1B651258010900BAA
:1046A700BDE0B40109D1C1900A69D1B671EE22CF3C
:1046B700F0A3EFF0900A880284D3900A8C1285DD6C
:1046C700900A8FE0FFA3E0227E007F377D00F12A6A
:1046D700900BBDE07002FF227A0879997B01900A5E
:1046E7008FE4F0A37420915ED1567FFE7E017DAAF0
:1046F7007C55900899121F2170079008B904F08023
:104707000BE49008B9F0FE7F20FDF12A9008A1E0A4
:10471700FFA3E090002CCFF0A3EFF090074A7401BD
:10472700F0FF227B017A0879990287C674FFF5F0BA
:104737000281D790960AE054F7F022E4900A12F02B
:10474700EE25E025E022E0FCA3E0F5828C83EF0272
:10475700814EEF24FFFFEE34FFFEED34FFFDEC3416
:10476700FFFC227155E04401F0E04402F090960C02
:10477700E04408F0E044011217F44402F0221284E6
:10478700D3900B55128570900B56E0FF1200E19005
:104797000B57E0FF1200E1900B58E0FF0200E19099
:1047A7000A20E0FF22E475F0010205321285DDE9F7
:1047B7004A4B227F057E00028AF81282B290098254
:1047C70002857090961CE054DFF0E054BFF090969D
:1047D70001E054FBF0E054FDF022909801E0FDEF7A
:1047E700543FFCED5CF0EF30E5061223C11223C8FD
:1047F7002212BA951223C190B100E044410223CEA0
:104807001223C1A3E054FBF00223C8D310AF01C3A6
:10481700C0D012BAA280FE90B004E030E016900B30
:1048270086E004F0E0B40A06900B887401F0E49087
:104837000B87F022900B87E004F0E0B40A03E4A3AF
:10484700F0E4900B86F022900BBFE070031228561D
:10485700111E021FF8900AF51285E6900AF4EFF090
:104867007117EFD394955008900AF51247B3700368
:104877007F0022900AF8E0FF900AF471284007743D
:10488700969D900AF8F0E4900BADF0900AF8711E2F
:104897005019900AF4E02EFFA31247AC1280F6FDE0
:1048A70012BA06900BADE004F080E0E4900BAEF096
:1048B7007F0122900AFA1285E6900AF9EFF0711744
:1048C700EFD394955008900AFA1247B370037F000C
:1048D70022900AFDE0FF900AF97128400774969D1F
:1048E700900AFDF0E4900BADF0900AFD711E501B8D
:1048F700900AF9E02EFF12BFF4900AFA1247ACEFC4
:1049070012813C900BADE004F080DE809E5171ABCC
:10491700079006D8E020E05D9006DBE0645A70550A
:104927009006F2E06B704E9006D8F09006DCE090AF
:104937000AFF5153942040037419F051264002E4B2
:10494700F0511E4002E4F05160900AFFE0FAB40112
:1049570009513A51159006E4800BEAB4020E512E24
:1049670051159006EE7151E4900702F0B17E5002A6
:104977004114E4F0227E007F1A7D007B017A0679DC
:10498700D91287C67A0679DB7B01900AFD7418F085
:10499700E4FF11BA5171AB079006DBE0B45A0790F8
:1049A70006F2E06F601E900A767401F0E49006D973
:1049B700F0A3F0A3745AF0A37401F05146F0A37466
:1049C70019F08046900A767401F0B170900AFFEFF3
:1049D7005153942040037419F051264002E4F051DA
:1049E7001E4002E4F05146E0FBB4010C9006DEE005
:1049F700900702F0513A800EEBB4020C9006E8E003
:104A0700900702F0512E511551601210FA221284AC
:104A1700D390074B0285709006DAE0C39405229085
:104A270006D9E0C3940B229006EDE0900A7AF09045
:104A370006E9229006E3E0900A7AF09006DF22E486
:104A47009006DEF09006E8F0900AFF22F09006DD6F
:104A5700E0543F900B00F0D3229006D9E090070076
:104A6700F09006DAE09006FFF0227B017A0679DB08
:104A77007D17900B511285E6900B54EDF0E4FE90F4
:104A87000B54E0FD14F0ED6025900B511247AC126A
:104A970080F66EFEE4FFEFC3940850E3EE30E007C4
:104AA700C313648CFE8004EEC313FE0F80E8AF06C9
:104AB70022900A79E07052900006E064017021129A
:104AC7009FB8129FDF9006DF121F21703C71117D86
:104AD7000B51799006E3E06F702F900A7904F0226A
:104AE700900006E064027021129FB8129FDF9006C3
:104AF700E9121F21701371117D0B51799006EDE0BA
:104B0700B50706900A797401F0229003D80285DD73
:104B1700900BAE7401F022E0FF900BADE0FEC39F57
:104B270022E0FD2FFFE433FED3EF9496EE648094EA
:104B37008022900AFFE0FBB401059006E48007EBB2
:104B4700B402059006EE715141601284D39003F3CD
:104B5700028570711190000812810F900B3DF09043
:104B6700000912810F900B3EF090000A12810F90FE
:104B77000B3FF0900B3DE0B44D10A3E0B4500BA3F6
:104B8700E0B43306A37401F08005E4900B40F09085
:104B97000BB6E07008900B40E0600251B8900B40F4
:104BA700E0FF22E4900BC6F0900BC5F090001812BE
:104BB70084D3E4900643F0A304F012C68612CF4FC5
:104BC7009000181284D39003DC1285701297661236
:104BD7009D6A900BDFEFF090002C12377C7BFE7AFA
:104BE700FFF9F8C31283F8500281F39003DBE070FA
:104BF7000312D7F2900BDFE0147002819E24FC7041
:104C07000281A7240570C5715AEF604590002C12E8
:104C17003E9D90002E123E9D900A79E0B40132909D
:104C27000A7BE07002A3E0702891F6900A7BCFF030
:104C3700A3EFF090002EE0FFA3E0900A7DCFF0A352
:104C4700EFF0900030E0FFA3E0900A77CFF0A3EFFA
:104C5700F0900030E07004A3E06401600261D3903B
:104C67000869E06401700261D37111E92408F9E46D
:104C77003AA801FCAD037BFF7A0079057E007F032C
:104C87001287A2EF600261D390086904F0FB7A08EB
:104C9700796A12983B61D3900032E475F00180473E
:104CA70012D90C900030E07004A3E06401700A91FF
:104CB700F6900036CFF0A3EFF012DB9B12DCACEFDF
:104CC70070037F0122900030123E9DE4900032F085
:104CD700A3F090002EF0A3F012D711EF600261D37A
:104CE70090003074FFF5F01281D761D37F012290D5
:104CF700002CE0FFA3E022900BE0EFF07E007F3274
:104D07007D007B017A0079061287C6900BE0E09060
:104D17000006F090000B12857CFFFFFFFF90000F4D
:104D270012857CFFFFFFFFE4900BB5F0A3B188125B
:104D370033B0EF7006900BB504800FE4900A79F05A
:104D470071AAEF700C900BB57402F0A304F07F000A
:104D57002290002CE07002A3E07006900BB574035C
:104D6700F0900BB67401F0FF229006DCE0FF227191
:104D77005A9006D3EFF022900702E0D36480948123
:104D870022F090040E7402F0A3E4F022900AD812E5
:104D9700857C0000000012B8F112443FB1F912DB24
:104DA70079EF704BB1F990047FB18CFD7C0F12A0A5
:104DB7002A900AD6F1C2700280357B017A0F7900FA
:104DC700900AD6E0FFA3E0900A98CFF0A3EFF09007
:104DD7000AD81284D3126A7D900AD81284DF900A07
:104DE700D612377C1282B2A3128570F1C980AD0248
:104DF700B8CC7B017A08796A22AB07AA06900B9890
:104E0700EDF0A3E4F0A304F0EDD3940240037F0098
:104E170022900B98E0F9701B9008A3F17240037F72
:104E270000229008A5E02BFEE43A900B99F0A3CE60
:104E3700F08038E9640170219008A4F17240037F83
:104E470000229008A5E02BFFE43AFE9008A3F1D0DA
:104E5700900B99F0A3EFF080129008A5F172400330
:104E67007F0022900B99EAF0A3EBF09008BAEBF0E1
:104E7700A3E9F09008CC12857C00000000900B9A03
:104E8700F189FF900B99F1812410FFE43EFEE4FCC9
:104E9700FD7A0879BC7B01900A8FF0A37410F01299
:104EA7004656900B98E06002E16F74FFFFFEFDFC31
:104EB7009008C0121F21700D9008C012857C000059
:104EC70000007F00227E007F2F7D00B1F91287C688
:104ED7007E007F047D307B017A0879791287C67856
:104EE7007D7C087D017B017A0879C47E007F0412EE
:104EF70080D078817C087D017B017A0879C97E00A2
:104F07007F031280D0F17B900895128570F17BEFBB
:104F170024FF1237DF1237EB128358900889128566
:104F2700709008A2F189FF9008A1F1812420FFE485
:104F37003EFEAB07FAE4F9F89008BC1237D9E4FB58
:104F47007A02F812835890088512857090088512A6
:104F570084D390088D12857090089112857C00008B
:104F670000009008847401F07F0122E0FFD3EB9FDB
:104F7700EA9400229008C00284D3E0C454F048FEAB
:104F8700EF22E0C4F8540FC86822E4FF900006E05F
:104F9700B4030BF1BAFFF1D87F01D080D080900025
:104FA70006E0B4040DF1BAFFE4FDD1007F01D08023
:104FB700D08022900516E0FEA3E022EEF0A3EFF0EA
:104FC7004E227F0A7E00029001E07C002FFFEC3E1C
:104FD70022900BC9EEF0A3EFF07F0022D310AF01B0
:104FE700C3C0D0711712BA06E4900BAEF0D0D092BE
:104FF700AF22D310AF01C3C0D0124B1712BFF4E4D6
:10500700900BAEF0D0D092AF22909904E054FEF00E
:1050170090980DE054FEF0E0440EF022900BF3EF71
:10502700F012C8DB12C8BB90988CE04401F0111055
:10503700900BF3E0FF02B905E4FD7F07120A2B7F0F
:10504700E87E03128AF81220183174E4FF120DE388
:10505700E4FF121F7531287F0180C19006D8E0FF59
:1050670064086007EF6420600221277B017A0A79D0
:105077006D7FAC7E0D1217B87B017A0A796D12B578
:10508700E4EF6002210C129766312F900A721285A5
:10509700707F807E7F7DA57C5A900A72121F2160E7
:1050A700607F807E7F7DA07C5F900A72121F2160E7
:1050B700507F807E7F7DA17C5E900A72121F2160E7
:1050C700407F807E7F7DA27C5D900A72121F2160E7
:1050D700307F807E7F7DA37C5C900A72121F2160E7
:1050E700207F807E7F7DA67C59900A72121F2160E7
:1050F700107F807E7F7DA47C5B900A72121F2170D7
:105107000431E821E031287F0912B9ACEF20E60C21
:105117007F0A7E00128AF812976680EB7F011123BF
:10512700227F017E0002BABB900A9A12857C00009A
:105137000000317B6005EF6420702C7B017A0A79CF
:105147009E7FE87E031217B8909A06E020E00F12C0
:1051570097667B017A0A799E12B5E4EF60EA12C07E
:105167003E900A9A128570900A9A0284D37D01E4D0
:10517700FF020DA29006D8E0FF640822900BF57499
:1051870014F031DA31D2F0E0700D900BF5E0FF1436
:10519700F0EF70F631D2F0909800E054FEF0317BDA
:1051A7006005EF6420701B31CABF0404E4FF800769
:1051B70031CABF08057F011223D57F0112C06B12C8
:1051C700C00E2290B009E0540CFF22909803E090A3
:1051D70006D822908000E49322909602E054BFF014
:1051E700227E007F1E7D007B017A0979230287C614
:1051F70031E87F0112CD82E4FD7F0651357F0751EB
:105207002C7F0951357F0B7EA3128F80513DD31020
:10521700AF01C3C0D09004037420F0A3E4F0F1DB26
:10522700D0D092AF227EA3128F807D107F087EA3FD
:10523700128F80E4FD227D04D1B17DC07F145135EA
:105247001279FD7F17122E01C0065178D0E04FFD6D
:10525700122FD97F17122B497F00FEC007C00651B6
:1052670078D0E0FED0E0EE4440FD7F177EA3028FAA
:10527700807F167EA3028C84900AE21285E6900A4C
:10528700E5ECF0A3EDF07D01D1B1C3900AE5E09420
:10529700025062900AE51262CC9440EE94004006F8
:1052A700A37440F08005900AE7EFF0900AE7E0FD6D
:1052B700FFC3900AE6E09FF0900AE5E09400F090C3
:1052C7000AE21285DD7F24F191122D507D207F1394
:1052D70051357F01126F20EF603D122D4E122FE7DF
:1052E700900AE7E0FF900AE3F1E1900AE5E0700237
:1052F700A3E0709F22122D4E7DB4122FE9900AE28F
:10530700F1CD900AE2F1C1900AE5F1AC900AE5F11E
:10531700997D1FD1A7D1D122122D577B017A077909
:10532700A07D1F7C00B1F5EF641F4E6002816D7890
:10533700A07C077D017BFF7A05796F7E007F0412D1
:1053470087A2EF6002816D9007A4E09007E4F090D8
:1053570007A5E09007E5F09007A6E09007E6F09034
:1053670007A7E09007E7F09007AFE012054953DD84
:1053770000540F03539A1253F01A54351B53F41E5B
:1053870053AF2353B32553B72853BB2A54312F00A8
:105397000054417BFF7A0579747D247C00517FF1AD
:1053A700B6517F90079F813C91F68145B11B81459E
:1053B700B13C800FB1AE7B017A0779F07FD07E07D1
:1053C7001217B890079F7402F07B017A07798E7FD6
:1053D7000A1217B68068916EEF70069007EDF0809D
:1053E700599007EDE060408051918E80519007B34E
:1053F700E0700C916EEF6007E49007EEF0802C9060
:1054070007EE7401F0E48023916EEF60069007EDDC
:10541700E060087BFF7A05799C80067BFF7A057937
:10542700AE7D127C00517FE48001E4FF800EE4FF33
:1054370091ED9007ED7401F080047F0191ED7B0100
:105447007A07798E12B5E4EF600A90079FE0B402FD
:10545700037401F09007807401F0FB7A0779897F64
:10546700B07E041217B822125B6FEF70069007EF39
:10547700F0800E9007EFE0700812B24F9007EFEF41
:10548700F09007EFE0FF22916EEF7004D1BF8056D6
:1054970012B8399007781285709007B1E024C1607F
:1054A7001E242370347BFF7A0579989007B3E0FFB9
:1054B700C39404500280027F04EFFDB11480277B60
:1054C700017A0779749007B3E0FFC3940C50028008
:1054D700027F0CEFFDB114800D7B007A007900E4A8
:1054E700FDFC517FE4FF9007ECEFF0F1B6417F91AF
:1054F7006EEF7004D1BF801312B8399007971285E9
:10550700707B017A0779937D0CB11480D97C0051A7
:105517007FE4FF22916EEF7004D1BF801612B83975
:105527001247599007811285707B017A0779817D2F
:1055370008B11480B19007B11284D39007B7E07A0D
:105547000F30E0027A0D7B00900AF2EAF0A3EBF04D
:10555700127352F1A2FED3E5F09401EE94004024B9
:10556700B1EB30E0027E0D7F001273DA9007B7E0EF
:105577007E0D30E0027E0F7F00B1A57C02517F12C5
:10558700244180CF1272FC9007B7E07E0D30E00215
:105597007E0F7F00B1A57C02517FE4FF81EDAA0653
:1055A700A9077B017D00229007B11284D31273EF04
:1055B700F1A2FED3E5F09400EE94004020B1EB3069
:1055C700E0027E0D7F00B1A57C02B1F5B1EE30E0BF
:1055D700027E0D7F001273B812244180D312731E0E
:1055E700E4FF81ED1297669007B7E07E0F22900ADD
:1055F700E81285E6900AEBECF0A3EDF07D02D1B15D
:10560700C3900AEBE0940250577F16122B4920E013
:1056170004E4FEFF22E4FD7F02126F20EF7003FE19
:10562700FF22126E09900AEDEFF0FDC2AF900AE873
:105637001285DD7F287EA3128A06D2AF900AEDE09D
:10564700700B7F16122B4954FEFD122FD97F1612AD
:105657002B4954FEFD122FD9900AEDE0FF7E002260
:10566700900AE8F1CD900AE8F1C1900AEBF1AC900D
:105677000AEBF199D1F9EF7003FEFF227D01122F9A
:10568700D97DA0D1B87D2DD1A7D1D1E4FDD1A77DFA
:10569700017F165135D1B8900AEBE0FEA3E0FF2257
:1056A7007F047EA5028F80F0E4FD7F0E7EA3028F2C
:1056B700807F177EA3028F807F81122CD17F0A7E85
:1056C70000128AF8122D577F0122D1F3900BF1EFC8
:1056D700F0126FAF30E0037F0122D1F3900BF1E0BE
:1056E700FEC3EF9ED3946440E87F00229006110228
:1056F70084D3D1F3900BF2EFF07F16122B4930E0F1
:10570700037F0122D1F3900BF2E0FEC3EF9ED39407
:105717006440E67F0022900B211285E6900B24EC73
:10572700F0A3EDF07D03D1B17F0E122B4964036026
:10573700047D03D1B1900B24A3E0FD900B211285CA
:10574700DD7F2CF191122D50122FE7900BC3E4F05F
:10575700A37432F0E4FD7F03126F20EF70047D081D
:105767008002E4FD122D50022FE7900BEDEFF18739
:105777007C00F11DE4900BEDF187FCF11D7F012208
:10578700F07B017A0B79ED7D01227EA312897A7D68
:105797000122E0FD7F0D7EA5028F809007B674FF82
:1057A700F5F00281EDA3E0FD7F0C7EA5028F807BE3
:1057B700017A0779E07D0D7C00221285DDEAFD7F05
:1057C700097EA5028F801285DDAD017F087EA502C7
:1057D7008F80611F90951CE0F022E48FF00281D743
:1057E70090B004E030E3F990980DE054F1F0E04414
:1057F70001F090981FE030E0F9909904E04401F03F
:1058070022A2AFE433900BD4F0C2AF9005FE12840E
:10581700D39006111233AA9005FB1285DD128495E9
:105827009005FB123791E412814E900BD4E024FFD0
:1058370092AFD080D08022122A5FE49007EDF090DB
:105847000780F09007EFF090079FF02212001DEFFE
:105857007002FF22120D9E120019120A0B7F0731E8
:105867001E7F09120DE37F021176113E7F0122EFA1
:10587700B401129009BC11E99009BA11F611DD7A49
:1058870006797D804BEFB40237900A0B11E9900A35
:1058970009E0FFA3E0900845CFF0A3EFF0900A0DD1
:1058A7001285DD9008491285E6900A061285DD907B
:1058B70008001285E6900A0311DD7A077904801043
:1058C7009009B511E99009B311F611DD7A0779242A
:1058D70090085E0285E61285DD9007F51285E67B66
:1058E700FF22E0FFA3E0900847CFF0A3EFF022E00C
:1058F700FFA3E0900845CFF0A3EFF09009BE128513
:10590700DD9008491285E69009B71285DD900800F9
:105917001285E69009B022900BD6EFF031E26013C2
:1059270024FD24FD502624FD6015240A7022121739
:10593700EF801D900BD6E064036015512280119013
:105947000BD6E0640C60091222208004318C317B75
:10595700900BD6E0900AFFF0900BC0F0120D9EE47A
:10596700900B01F01251E8120F4B90091BE0B401A4
:105977000231B52212284390966AE4F0900AE1F0CA
:1059870090079FF022317B7F0202B9CE5176EF70EC
:1059970002FF22120A0B7F03311EE4FD7F02120A67
:1059A7002B513E7FC0120DE3123FD07F012231E21F
:1059B700600E24FD24FD5008240770047D01800239
:1059C700E4FD7F011216E11216DDE490091DF012C5
:1059D70016617FE87E03FDFC02B5B2900AFFE02462
:1059E700FD22E4FF311EE4FF120DE37D087F201244
:1059F700B9467D087F2112B9887D087F1D12B988B5
:105A07007D087F1E12B9467D087F1C12B9887F0169
:105A17002290091BE0B4010231B5227D037F2712D2
:105A2700B9887D037F2612B9467D037F2912B9887D
:105A37007D037F2A02B9887D017F2612B9887D01FF
:105A47007F2712B9887D017F2912B9887D017F2AB6
:105A570012B9467D027F2612B9887D027F2712B9C7
:105A6700887D027F2912B9887D027F2A02B9469074
:105A7700960BE04410F090960EE054EFF0A3E0543C
:105A8700EFF090960CE054EFF0124FC9909609E0B2
:105A970030E40BE4900A44F0900A42F08014900A34
:105AA70042E0C394145005E004F08006900A447461
:105AB70001F0900A44E0FF22900A44E0900BDCF0EA
:105AC7005176900A44EFF0900BDCE0700A900A449C
:105AD700E060047F0180027F00221218761217B45B
