:10000000020359025A894D56460022025A8A0001BB
:10001000020322025AC50054552222025B13227F9A
:10002000012222025B14E4C3FA90960AE04401F034
:1000300054FEF0909609E0A2E2E492E02A23FA90BE
:10004000960AE04401F054FEF0909609E0A2E2E442
:1000500092E02A23FA90960AE04401F054FEF090D0
:100060009609E0A2E2E492E02A23FA90960AE0449C
:1000700001F054FEF0909609E0A2E2E492E02A2317
:10008000FA90960AE04401F054FEF0909609E0A23E
:10009000E2E492E02A23FA90960AE04401F054FE4A
:1000A000F0909609E0A2E2E492E02A23FA90960A00
:1000B000E04401F054FEF0909609E0A2E2E492E000
:1000C0002A23FA90960AE04401F054FEF090960933
:1000D000E0A2E2E492E02AFA90960AE04401F0EA13
:1000E000FF227808EF33FF90960AE092E154FEF089
:1000F00090960AE04401F0D8EB22126D55021834B4
:100100000000220000220000220000220000220045
:100110000022000022000022000022000022000035
:100120002200002200002200002200002200002203
:100130000000220000220000220000220000220015
:10014000002200002202675F00002200002200005F
:10015000220261BB023B54023EB200002200002298
:10016000000022000022000022021DF800002200F0
:10017000002200002200002200002200002202448F
:10018000BC000022026B3E000022000022026599A2
:100190000000220000220269F70000220000220075
:1001A00000220000220000220000220000220000A5
:1001B0002200002200002200002200002200002273
:1001C0000000220000220000220000220000220085
:1001D000002200002202689B0268A40260EE02680E
:1001E000B70238F7000022000022024EAB026584FD
:1001F0000000220000220000220000220000220055
:100200000022000022000022000022000022000044
:100210002200002200002200002200002200002212
:100220000000220000220257A202281B0000220028
:100230000022000022000022000022000022000014
:10024000220246DB000022000022000022000022E1
:1002500000002200002241096800410962004209B1
:1002600063000042096500004109670041088500FC
:1002700041088400410890004108820041089C0028
:100280004108A2004308930C02034108CA00410838
:10029000CC004108C4004108C2004108C300410825
:1002A000CB014108C0004108C100410A5701410A81
:1002B0005802410A5A004107610041075F004406A5
:1002C000F9FFFFFFFF4106F3004408630000000050
:1002D00042086100644408670000000041091700FB
:1002E000420918000042091A0000420914000041A6
:1002F00009160041091300410A83004108CDFF415E
:10030000096F01410A8B01450842000000000041CD
:10031000085300410A5E0241076D00410806004192
:10032000087600410A5F01410A6008410A62004103
:100330000A6101410A6401410A6301410A4D014118
:100340000A4B00410A4C00410A680041095500422D
:10035000095801F44109520000126516787FE4F64D
:10036000D8FD125A63EFFD9006D96003A3DFFD7F2D
:10037000277E11C3EF9DFF50011EE4F0A3DFFCDEDA
:10038000FA75810B1264B10203C50225E3E493A35D
:10039000F8E493A34003F68001F208DFF48029E437
:1003A00093A3F85407240CC8C333C4540F4420C883
:1003B000834004F456800146F6DFE4800B0102041A
:1003C0000810204080900256E47E019360BCA3FF99
:1003D000543F30E509541FFEE493A360010ECF544F
:1003E000C025E060A840B8E493A3FAE493A3F8E43E
:1003F00093A3C8C582C8CAC583CAF0A3C8C582C8AA
:10040000CAC583CADFE9DEE780BEBB0111F8E58219
:1004100029F582E5833AF583E0C828F0E8225009FF
:10042000C58229F8C58226C622BBFE0DC58229F8E1
:10043000E2C5822582F2E58222EA2583F583E993EB
:1004400022BB010FF8E58229F582E5833AF583E0C6
:1004500028F0225009C58229F8E58226F622BBFE43
:1004600009C58229F8E22582F222F8EA2583F5837C
:10047000E9932822F8E0FBA3A3E0F925F0F0E58258
:10048000158270021583E0FA38F022D083D082F80A
:10049000E4937012740193700DA3A393F874019305
:1004A000F5828883E4737402936860EFA3A3A3804A
:1004B000DF8F828E83ED7004EC600B1CE06455F0DE
:1004C000A3DDF90204B82246415431360000000091
:1004D0000000000000000000000002FAFCFDFEFC2D
:1004E000FAFA0202FF02FFFDFAFAFAFDFF0202FF2A
:1004F000FF0002020202FDFAFAFF0200FF00020200
:1005000001FFFEFAFEFEFEFCFAFE02FE02FFFFFD08
:10051000FAFAFAFA0202020101FFFEFEFEFDFDFDFB
:10052000FAFAFF010202020202FFFD0202020202C7
:1005300002FD0202FFFAFF020202020202020000B2
:10054000001A001F0024002A0031003A0043004E28
:10055000005B006B007D009300AD00CC00F0011A41
:10056000014C018701CC021D027C02EC0370040BDC
:1005700004C20599069607C0091E0ABA0C9E0ED839
:10058000000000000000000000000000000000006B
:10059000000000003F3E3A3633302D2A2725232124
:1005A0001F1D1B1917151311100F0E0D0C0B0A0927
:1005B0000706040201000000000000000000003FE8
:1005C0003E3A3633302D2A272523211F1D1B1917AC
:1005D000151311100F0E0D0C0B0A09080706050460
:1005E000000000000000000000005C000000061099
:1005F0001000071111000157570058585800595959
:1006000059005A5A5A005B5B5B0003090E13191E0E
:10061000242A2E2C2A2927262423211F1E1C1B9026
:1006200006D7EFF0E01313543FFF12B875123B20CA
:100630009006D7E01313543F25E025E0FFD1469004
:10064000098F7401F02212C94690060FE09006103F
:10065000F022123B337F0112B8757F01D146E4903E
:10066000098FF0029766900A48EFF0A3EDF0900A28
:100670005DE07002FF22900991E0900A4AF012CEEC
:10068000CF12593A900990E0B404077D017F01121E
:100690001356D152900A48E0FF1235D8123654EF63
:1006A000600512976680F5126145900A4AE090094C
:1006B00091F0900A49E060031256837F01227F0186
:1006C0001226EEEF14602B24F0601724FE60232422
:1006D000037034900991E0C3942A4002F1087F012D
:1006E000800D900991E0D394005002F110E4FF02D4
:1006F000201E900992E06006E4FD7F1B8004E4FD6B
:100700007F1AD16612159322E4FD7F15D16680060B
:10071000E4FD7F16D166900991E06046900968E09B
:100720006401701C900990E0B40307E4FF1236776F
:10073000F163900990E0B40C077F01123677F16302
:10074000E4FF1228F3123521900991E0D394004080
:100750000C9008CBE07006121FAE12B946E4900967
:1007600068F022900991E0FF9009CBEFF0E4A3F04C
:1007700078CD7C097D017BFF7A13794FF1F2122944
:10078000669009CCEFF0E4A3F09009CBE090082646
:10079000939009CEF0A3F09009CCE0FEC006122998
:1007A00066D0E04F9009CCF0E0FEC00612614CD05C
:1007B000E04FFF9009CCF022909C49E054EDF07F8F
:1007C000027E00F1D0909C4FE054F9F07F027E0051
:1007D000900A51EEF0A3EFF0900A5174FFF5F01279
:1007E00081ED45F0600B1297661215CC1215CC8086
:1007F000E722FE7F030280D07F00222222FFFFFF3C
:03080000140108D8
:100807007F002205320007D001F4006401F400C81C
:10081700320AC350271007D014503C140A1E140084
:10082700020406080A0C0E10121416181A1C1E20B1
:10083700222426282A2C2E30323436383A3C3E40A1
:10084700424446484A4C4E50525400A50000A50069
:1008570000C30000A4110000000000000000001009
:100867001D3F000000000000000000000000000025
:10087700000000007FFFFF000000000000000000F4
:100887000000000000007FFFFF00C800BFC4D5FFC5
:10089700ABFB241009FFABFA080009FFABFA000015
:1008A70009FFABFBA41829FFAD84000018FFAD8535
:1008B700001FFFFFAD81001212FFAD82001414FF6D
:1008C700AD83000088FFAD80005454FFAD8700540E
:1008D70054FFAD86000000FFAD86000001FFAD8626
:1008E70000000000C20000C97800DF0000DB28001C
:1008F700DB2800C70000E00A00D53000E33000CF56
:100907000000E17000CB0100E22F00D97F00E52F46
:1009170000E47000D73001D09000C60000DD010070
:10092700D40000DA0000DC4200A10500000000004E
:100937000100000C00001600004000D80000A105CF
:1009470000000100000000001800003A000040000D
:10095700D80000A1050000020000000000240000EC
:100967003A00004000D80000A10500000300000085
:1009770000003000003A00004000D80000A1050048
:10098700000400000000003C00003A00004000D8CE
:100997000000A10500000500000000004800003A23
:1009A70000004000D80000A105000006000000007C
:1009B700005400003A00004000D80000A1050000E4
:1009C7000700000000006000003A00004000D80067
:1009D70000A10500000800000000006C00003A00BC
:1009E700004000D80000A105000009000002000037
:1009F7007800001600004000D80000CF0100D100A9
:100A070000D10900D11200D11B00D12400D12D0043
:100A1700D13600D13F00D14800D14C00D10000CFE2
:100A27000000D20000CF0000D30000D60B00CF009B
:100A370000E83F00E93F00CF00FFABF4000001FFF3
:100A4700ABF5301A48FFABF620EE7DFFABF702900F
:100A570078FFABF4000002FFABF5101A4AFFABF6C4
:100A670021E600FFABF4000003FFABF5101095FF84
:100A7700ABF64FDCBAFFABF4000004FFABF5101385
:100A87009EFFABF6000000FFABF4000005FFABF5DF
:100A9700300F6CFFABF656F400FFABF70000A9FF71
:100AA700ABF4000006FFABF5300F66FFABF60AF0BC
:100AB70080FFABF70000B6FFABF4000007FFABF514
:100AC7002019E4FFABF663F400FFABF70002E00682
:100AD700AA0600A2D461F4000000E76170000002DA
:100AE700473C0A00380A0064F40000013460F4004F
:100AF7000001DA05F420FFFFFF0464A0204C00206A
:100B0700480044B8000CC4A000001657F4007FF753
:100B1700055F5C005F580057F4007FFF385F5C009B
:100B27005F5800205C0020580057F4007FFFBC5F2F
:100B37005C005F580057F4007FC7295F5C005F586F
:100B4700000AF08000007857F4007FF63A5F5C00F7
:100B57005F580057F4007FFF275F5C005F58002055
:100B67005C0020580057F4007FFFB65F5C005F58B9
:100B77000057F4007FC2235F5C005F580054F00009
:100B8700FFFFF10C1EE20140C60000070140C5004F
:100B970000010AF0A200008961F40000CDAC617089
:100BA7000000021461F40000C8326170000001FF08
:100BB70060F4000000EF6070000001F80BF08000A7
:100BC70000EF6CF00000024E74F4000000434CECA0
:100BD700000CC4A000000661F0000002510BE18088
:100BE70000000C44F0000002B20BF08000D2AB44CE
:100BF700F0000001B20BF08000D30161F4000000A7
:100C0700BD61700000024261F400FFFFF444F4008C
:100C170000000744590044B8000CC4A00000064473
:100C2700F4002019E40AF0800000B444F4003019FD
:100C3700E444610000000C61F00000022021BA00CA
:100C47000BE1800BF0800000C200000C0BF080006D
:100C5700D1390BF0800000C200000C6CF0000002DC
:100C67004E74F40000000A204C004EE40020CF0030
:100C77006CF00000024E74F400000003204C004E9C
:100C8700E40020CE0020000D0D104900001557F09C
:100C9700000002B746F40000000120005821E53AA1
:100CA70020006847F40000160046F078000048204E
:100CB700005821F3004EDB004E5C004EDB004E5C1B
:100CC700004EDB004E640000000C0BF08000D36880
:100CD70046F4004DF8F074F40000001E4E6C00005E
:100CE700000C55BE000140CEFFFF3F30FF0004CD92
:100CF700CD20001B22090000000B0D104A00000A3E
:100D07000A9DA10000F622090000000B0D104A0001
:100D170000040A9D810000FC08451A56F4000003F0
:100D2700FF20006208CC1A20A40007F02D00003E27
:100D370057F0000002AC45F40000000245F46AFFDA
:100D47000FFF20006E5570000002AC08C41A0000A7
:100D57000C02A7E000000002A7E100000002A7E2E2
:100D670002559602A7E302791F02A7E4029EC50275
:100D7700A7E502C6A802A7E602F0EA02A7E7031D55
:100D8700AF02A7E8034D1E02A7E9037F5F02A7EAA8
:100D970003B49D02A7EB03ED0502A7EC0428C802E4
:100DA700A7ED04681902A7EE04AB2D02A7EF04F222
:100DB7003F02A7F0053D8A02A7F1058D5002A7F271
:100DC70005E1D402A7F3063B5F02A7F4069A3D02AA
:100DD700A7F506FEBF02A7F607693B02A7F707DAE2
:100DE7000C02A7F808519202A7F908D03402A7FA13
:100DF70009565D02A7FB09E48102A7FC0A7B1902D9
:100E0700A7FD0B1AA602A7FE0BC3AF02A7FF0C761E
:100E1700C503A7000D348203A7010DFD8803A702B0
:100E27000ED28203A7030FB42603A70410A3360329
:100E3700A70511A07D03A70612ACD403A70713C902
:100E47002103A70814F65603A70916357603A70A40
:100E570017879103A70B18EDC803A70C1A694D0351
:100E6700A70D1BFB6603A70E1DA56A03A70F1F6827
:100E7700C503A7102146FB03A7112341A503A7120A
:100E8700255A7403A71327933403A71429EDCD0319
:100E9700A7152C6C4203A7162F10B803A71731DD2F
:100EA7007303A71834D4DA03A71937F97803A71AF5
:100EB7003B4E0203A71B3ED55403A71C010A4A0356
:100EC700A71D011A2303A71E012AED03A71F013C33
:100ED700B803A720014F9203A72101638D03A7221F
:100EE7000178B903A723018F2803A72401A6EF03DD
:100EF700A72501C02103A72601DAD603A72701F7F3
:100F07002403A72802152403A7290234F103A72ADB
:100F17000256A603A72B027A6303A72C02A0460357
:100F2700A72D02C87103A72E02F30A03A72F0320D8
:100F37003703A73003502003A7310382F403A732F6
:100F470003B8E003A73303F21703A734042ED10332
:100F5700A735046F4803A73604B3BA03A73704FCC1
:100F67006D03A7380549A903A739059BBF03A73A0E
:100F770005F30403A73B064FD803A73C06B2A20319
:100F8700A73D071BD103A73E078BE203A73F080333
:100F97005E03A7400882DC03A741090B0503A742AC
:100FA700099C9503A7430A385E03A7440ADF510348
:100FB700A7450B927D03A7460C531703A7470D229E
:100FC7008403A7480E026103A7490EF49103A74AB9
:100FD7000FFB4D03A74B11193703A74C125177038A
:100FE700A74D13A7E303A74E15212B03A74F16C33E
:100FF7002103A75018951803A7511AA06903A752F0
:101007001CF13903A7531F97A203A75422A9720300
:10101700A75526450003A7562A95CE03A7572FDCC9
:10102700A103A758367E5D03A7593F216603A75A38
:101037004AED4203A75B5C267303A75C77F3D503EE
:10104700A75D77F3D503A75E77F3D503A75F77F39C
:10105700D503A76077F3D503A76177F3D503A76215
:1010670077F3D503A76377F3D503A76477F3D5039E
:10107700A76577F3D503A76677F3D503A76777F354
:10108700D500AC00008500FFAD86000000FFAD86EF
:10109700000001FFAD8600000000C97800DF0000F6
:1010A700DB2800DB2800C70000E00A00D53000E39A
:1010B7003000CF0000E17000CB0100E22F00D97FA4
:1010C70000E52F00E47000D73001D09000C6000083
:1010D700DD0100D40000DA0000DC4200A1050000B9
:1010E7000000000100000C00001600004000D800BE
:1010F70000A10500000100000000001800003A00F0
:10110700004000D80000A105000002000000000018
:101117002400003A00004000D80000A105000003A9
:1011270000000000003000003A00004000D8000036
:10113700A10500000400000000003C00003A000088
:101147004000D80000A1050000050000000000488D
:1011570000003A00004000D80000A105000006008A
:10116700000000005400003A00004000D80000A131
:101177000500000700000000006000003A00004082
:1011870000D80000A10500000800000000006C0066
:10119700003A00004000D80000A105000009000047
:1011A7000200007800001600004000D80000CF01C0
:1011B70000D10000D10900D11200D11B00D12400B9
:1011C700D12D00D13600D13F00D14800D14C00D1FC
:1011D7000000CF0000D20000CF0000D30000D60BE4
:1011E70000CF0000E83F00E93F00CF0000C97800CA
:1011F700DF0000DB2800DB2800C70000E00A00D57D
:101207005000E35000CF0000E17000CB0100E22F57
:1012170000D94C00E52F00E47000D73001D09000D2
:10122700C60000DD0100D40000DA0000DC4200A1A6
:101237000500000000000100000C0000160000403F
:1012470000D80000A1050000010000000000180000
:10125700003A00004000D80000A10500000200008D
:101267000000002400003A00004000D80000A1055B
:1012770000000300000000003000003A00004000BA
:10128700D80000A10500000400000000003C000099
:101297003A00004000D80000A1050000050000004A
:1012A70000004800003A00004000D80000A10500F7
:1012B700000600000000005400003A00004000D87B
:1012C7000000A10500000700000000006000003AD0
:1012D70000004000D80000A1050000080000000041
:1012E700006C00003A00004000D80000A105000093
:1012F7000900000200007800001600004000D80036
:1013070000CF0100D10000D10900D11200D11B008C
:10131700D12400D12D00D13600D13F00D14800D1D2
:101327004C00D11300CF0000D22600CF0000D3001D
:1013370000D60B00CF0000E83F00E93F00CF0000D8
:10134700D10F00C700FFAD83FFAD807D01E4FF90A3
:101357000A6BEFF0ED64017006121FAE12B98890A8
:101367000A6BE06401701B122874900990E0B403C3
:1013770004E4FF719A900990E0B40C10E4FF719AAD
:10138700800AE4FF1207687F011228F39009687446
:1013970001F022900A71EFF0122FC2544490088492
:1013A700F0900A71E0F0FF900885E0B50706D15983
:1013B7007002A10D900A71E0701E909C49E05409DB
:1013C7006002B1B5D1526002D160909C49E05412DD
:1013D700700281FDB10E81FD900A71E0FF54096032
:1013E70040D1526007EF54247002D160909C49E0CD
:1013F70054126021126DC3701CEF54C0701790080F
:1014070085E054126004B10E800B900885E054C04B
:10141700600312348C909C49E0540964096002B15E
:10142700FE126DC36036909C49E054096007EF5483
:10143700097002B1B5D152600A900A71E054247064
:1014470002D160909C49E05412600BE05412FFD126
:10145700596F6002B10ED159FF12305F900A71E0E7
:10146700FF54246025909C49E054096007EF540914
:101477007002B1B5909C49E05412600C126DC370B4
:1014870007EF54C07002B10ED1B9900A71E0FF5452
:10149700C06063909C49E054096007EF54097002EB
:1014A700B1B5D152600A900A71E054247002D1603C
:1014B700909C49E054126006D1597002B10E909C7D
:1014C70049E05412FFB412047FC0800EEFB4020447
:1014D7007F408006EFB410027F80EFD39400400C6A
:1014E700900A71E054C06F600312348C900A71E067
:1014F70054C0FF12338E900A71E0FF900885E06FA9
:101507006002EFF0F1E8227F01122801126D2C50E2
:1015170004AF068000900A6FEFF0909C41E09008BE
:101527008FF0909C42E0900892F0900A6FE0C3948D
:10153700405014129766900A6F126E0BF0B1CC9060
:101547000A6FE004F080E3D1AB909C4FE0549F1208
:1015570007CB1207B8909C4FE054E71207CB909C3B
:101567004CE054FCF07F147E001207D012001AD111
:1015770049EFF47002EEF46012D149EFF47003EE14
:1015870064FE6007909C48E04401F022900992E0D5
:101597006007E4F0120716800A9009927401F0FDC3
:1015A700FF7156900853E0B401031223FF22122F54
:1015B700E01228EBD1AB909C48E04422F18D54F621
:1015C700F1434411F012B8A0EFFD7C007E017F903B
:1015D700128182EF2401FFE43EFE909904E020E0AF
:1015E7000BEF7802CEC313CE13D8F9FFEF1FAC066B
:1015F70070011E4C70F622909C437403F0A3F18D8A
:101607004409F14354EEF14354DDF0B1CCD149EF35
:10161700F47002EEF46008D149BEFE0ABFFF0790DE
:101627009C4374028005909C437401F0A3F0126EF2
:101637001C70051237CED1B1126E147F507E000296
:1016470007D090966BE0FEA3E0FF22909C49E05400
:101657002422900A71E0541222126D2C5004AF0616
:101667008000900A6EEFF0909C41E0900886F09021
:101677009C42E0900887F0900A6EE0C394405014B3
:10168700129766900A6E126E0B126DA1900A6EE0A9
:1016970004F080E3D1AB909C49E054DBF07F037EFC
:1016A700000207D0909C48E04444F07F0A7E000285
:1016B70007D01235CFF18E4424F0B1CC909C47E08F
:1016C7004403F07FF47E011207D0909C47E054FC5E
:1016D700F0126E1C70041237CEF0D1B2126D2C507E
:1016E70004AF068000900A53EFF0A3743FF0900A0E
:1016F70053E0FFA3E0D39F4032129766900886E03D
:10170700FF900A54E0FEC39F4005909C41EEF09085
:101717000887E0FFEEC39F4008900A54E0909C4280
:10172700F0B1CC900A54E014F080C3900886E090A2
:101737009C41F0900887E0909C42F022F0B1CC9059
:101747009C48E022900A6DEFF0126DA9D1B1909CF0
:1017570045E054FAD1B1909C46E0547FD1B1909CBA
:1017670046E054DFD1B1909C46E054EFF0900A6D0B
:10177700E0FF123052121B8E909C4BE020E30612C2
:10178700324660F42222F0B1CC909C49E022AE07A9
:10179700122823909C46E04410F0AF0612305212F4
:1017A7001B8E909C4BE020E20512324660F4126DCE
:1017B700A9126DA1909C46E04420F0B1CC909C45C5
:1017C700E04405F0B1CC909C46E0547F126DA190A7
:1017D7009C49E054BFF0B1CCE4900890F0900885A4
:1017E700F0900883E0701612573EC083C082E0FF76
:1017F700A3E054FED082D083CFF0A3EFF022124CA7
:1018070015600D24F76013240A701912375D8012D2
:10181700900991E0FF1239C68008900991E0FF1204
:1018270039D1112C227B017A0679DD7D01900A01DD
:101837001285E6900A04EDF0126D861251EC400213
:10184700E4F01251E44002E4F09006DB745AF090A1
:101857000990E0FF60049006DCF0900991E09006A3
:10186700DDF01257294002E4F0900990E0FBB40143
:1018770016900702E09006DEF0900917E09006E365
:1018870031399006DF8018EBB40217900702E09019
:1018970006E8F0900917E09006ED31399006E91255
:1018A70085701251F41250969006F2EFF011E7E9A5
:1018B7004A4B602B900A04E060257D5AE4FF12BA78
:1018C7000611E7C3E994DBFF11E7900A04E09009EA
:1018D700D4F01254579006F2E0FD7F1712BA062291
:1018E700900A010285DDC374E83140400FE4900699
:1018F700E8F07B017A0679E87D011134C374DE31A3
:1019070040400FE49006DEF07B017A0679DE7D0128
:101917001134C374DD94DBFF12BFF4900A82EFF039
:10192700900991E06F600A7B017A0679DD7D0111EC
:101937003422F090074B0284D394DBFF12BFF4905C
:101947000A82EFF0D3940122900990E0FBB40107DB
:10195700318E9006E48009EBB40208318E9006EED2
:10196700128570126D86900990E0B401087B017AA8
:101977000679E4800D900990E0B4020A7B017A06AB
:1019870079EE7D041134229003F30284D39006F399
:10199700E0600CF1A2EF6007E49006F3F080259079
:1019A70006F3E0701FF1A2EF701A9006F304F090AF
:1019B70006FDE0B4020E318EEF2401FFE43E123F34
:1019C700561253F0318E9006F9123796601112575E
:1019D7002031F0400A318E9006F9128570314F227E
:1019E700E47F2FFEFDFC9008671284DFD302840E8C
:1019F700900A5BEFF0E4A3F0D3900862E0940090C4
:101A07000861E0940040429008631284DFC000C080
:101A170001C002C003710F7E00C006C007710FEF3F
:101A2700FDD0E02DFFD0E03400FEC006C007710FE7
:101A3700EFFDD0E02DFFD0E0123F5ED003D002D003
:101A470001D000126DE8126D97900861E07002A353
:101A5700E06002610B7B64FAF9F8900863123F4675
:101A6700900867128570900861E4F0A37464F0A38E
:101A770012857C00000000124B10EF6002610EE43B
:101A87007F3231EA400890085B7402F08019E47FE6
:101A97003431EA400890085B7404F0800A31E7406B
:101AA7000690085B7405F031E74014E47F34FEFDCF
:101AB700FC900867123796500690085B7405F09003
:101AC7000A5BE0B4010A31E75006900A5C7401F042
:101AD700900A5BE0700A31E85006900A5C7401F0E6
:101AE700900A5CE0B4011D90085B7406F012000ACE
:101AF700129766E4FD7F0F1206667FE87E03128A5F
:101B0700F8124AA712000A227D017F0402B01512BB
:101B17004C0E7F007E00718E7B017A08796B7F0007
:101B27007E00718E124B10EF7052900861E07002C8
:101B3700A3E06044126D979008631284DFC000C071
:101B470001C002C003710F7E00C006C007710FEF0E
:101B5700FDD0E02DFFD0E03400FEC006C007710FB6
:101B6700EFFDD0E02DFFD0E0123F5ED003D002D0D2
:101B770001D000126DE880B27F0131F7227B017A34
:101B87000879787FF47E017D007C0002B5B27B0185
:101B97007A08797D12B5E4EF6019900877E0601351
:101BA700900991E0D39400400AE4900877F0F1AEF1
:101BB70012B946124C3BEF7D017F01600512B94611
:101BC700800312B988124C28EF7D207F0A60051226
:101BD700B946800312B988124C65EF6007F1AE125F
:101BE700B988800E900991E0D394004005F1AE12B8
:101BF700B946B10412B5E4EF60077D207F1C12B926
:101C0700887F011226EEEF12048B1C2D011C400663
:101C17001C57071C70101C80111C91571CB0601CAE
:101C2700F46100001D037184B10412B5E4EF707311
:101C37007D207F1C12B94680EF7184B10412B5E490
:101C4700EF70097D047F0112B94680EF7D0480158E
:101C57007184B10412B5E4EF70097D027F0112B9F6
:101C67004680EF7D027F0181F1900991E0C3942ABC
:101C770040031207087F01800E900991E0D394007A
:101C87005003120710E4FF02201EB1047FE87E0311
:101C9700718EB10412B5E4EF70097D207F1C12B973
:101CA7004680EF7D207F1C80417184B10412B5E42A
:101CB700EF70097D207F1C12B94680EFB1047F2C9D
:101CC700718CB10412B5E4EF70097D207F1C12B945
:101CD7008880EF7184B10412B5E4EF70097D207F2D
:101CE7001C12B94680EF7D207F1C02B988B1047FA2
:101CF700887E13718E7D207F1C12B946227B017A64
:101D070008797822126DE112B5E4EF7002FF221212
:101D17006DE17F0A7E00718E125CB09008CEEFF005
:101D2700A3E0146030146057147002A1BC24036050
:101D370002A1F09008CEE0FEB4FF037F00229008D6
:101D4700CDEEF07B017A0879D57F147E00718E90F5
:101D570008CF7401F0F199E06F6002A1F07B017A7E
:101D67000879D512B5E4EF7002A1F57B017A0879FD
:101D7700D57F587E02718E9008CF7402F0806FF184
:101D870099E0FE6F600C126DD624EAF582E4340503
:101D970080517B017A0879D512B5E4EF6050126D56
:101DA700CB718E9008CF7403F0126E0224EBF5828C
:101DB700E43405802EF199E0FE6F600C126DD62495
:101DC700EDF582E43405801B7B017A0879D512B5DD
:101DD700E4EF601A126DCB718E126E0224ECF5825D
:101DE700E43405F583E493FF22E49008CFF07F0005
:101DF70022D080D0807B017A0879E69006A1124F25
:101E0700B212B5B27B017A0879EB7F647E00718EDE
:101E170090057AE06403703A7F16F190EFF030E6B0
:101E2700147F16F1814480126DF17F16F181549F62
:101E3700FD7F16C1C190057BE0600B126DF920E0B4
:101E470002E10E7F01229008F0E020E002E10E7F20
:101E5700012290057AE0640470337F12F190EFF06D
:101E670030E50FF17F4480F188F17F54DEFD7F126A
:101E7700804890057BE0600B126DF920E002E10ECF
:101E87007F01229008F0E020E07D7F012290057A13
:101E9700E06004640270387F137EA3128C847E0096
:101EA700C0067F127EA3128C84D0E04F9008F0F01A
:101EB70030E212F17F54D9FD7F127EA3128F801278
:101EC700935E7F00229008F0E020E13B7F012290A3
:101ED700057AE06401702D7F13F1817F00FEC00752
:101EE700C006F17FFDD0E0FED0E04DFF9008F0EE98
:101EF700F0A3EFF030E2037F00229008F1E030E03A
:101F0700067F01227F00227F60F181645D60037F8D
:101F170000227B017A0879E612B5E4EF7006129782
:101F270058EF70357F16F190EFF054DF4401126DD2
:101F3700F190057AE064037014A3E070107F32FE1D
:101F47001290017F16F18130E0037F0122F17F5467
:101F5700D6F188E4F1887F00221297667B017A0820
:101F670079EB12B5E4EF7002C1177F0112AFF6EFFC
:101F770064016002C117FF227F127EA3128C84EFD7
:101F870022FD7F127EA3028F807EA3128C8490088D
:101F9700F0229008CEE0FF9008CD2290B100E07FBC
:101FA7000030E5027F01227D107F2012B9467D10A7
:101FB7007F2112B9887D107F1D12B9887D107F1E81
:101FC70012B9467D107F1C22900990E0B4020411DB
:101FD700058005120763112C900991E07010900994
:101FE70068E0700A900992F07D01FF12135690097C
:101FF70068E0B4010D900991E0D394004004A37404
:1020070001F0900992E0B40105E4F01207162212DC
:102017001FCF7F01020012EFB4010E900991E0C3B8
:10202700942A5011E004F0800C900991E0D39400B9
:102037004003E014F080D87F01D1EE9006FEEFF068
:10204700900760E0602E9006FEE070287B017A071B
:10205700796812B5E4EF601C12525BEF70119007BC
:1020670001E07D06B401027D077F0151E651AEE430
:10207700900760F09006FDE06406700221C9A3E0B6
:1020870012048B216B0621750720F30C20AF10205B
:10209700C611214813216B2A21752B212D2D20E0F4
:1020A7002E219C5F000021C97F0131E5C3942A508E
:1020B7000221C97123600221C97D017F158015E4C2
:1020C700FF31E5D39400400221C97123600221C981
:1020D7007D017F1612066621C99006FFE0B403044E
:1020E700E4F0803B9006FF7403F080339006FFE036
:1020F700700404F08005E49006FFF09006FFE0B45A
:10210700040B9007027401F09007328008E49007EF
:1021170002F090073012568BF0A3EFF012194F7FA1
:1021270001125D0621C9900700E004F0E0C3940B9B
:102137004002E4F012556712194F7F01125D0C211E
:10214700C9900992E060119006FDE0B402047D0198
:102157008002E4FD7F1B8004E4FD7F1A12066612ED
:102167001593805E713B405A31ECE4FF8008713B68
:10217700405031EC7F01125950E4900992F07B01F5
:102187007A0779687FE87E03FDFC12B5B290076095
:102197007401F0802D90076DE0B40126E4900A8168
:1021A700F09006FDE0B4020851B5900A817401F081
:1021B700124C8690076D7402F0900A81E0B4010218
:1021C700510E9006FDE014600F24FE600704700BAB
:1021D700510E800751B58003125760021994111EE2
:1021E700900991E0227B017A07793012A68F90033C
:1021F700F312857C0000000051AEE4FDFF12135678
:102207007F647E00028AF8125749600612CEB0EF4B
:1022170070129006FFE0640370237F0A12572212A0
:1022270019F0401931EC9006FFE064016005E4FF06
:1022370012595012525BEF700451E280427B017ACF
:1022470007796312B5E4EF6018900992E070129075
:10225700075FE0700C12071612375D90075F740175
:10226700F012569DEF701A31EC900701E0FF6402FF
:102277006003EF70047D0680027D077F0151E680D1
:1022870026F1C3600B24FE60181460152404701631
:1022970012CECF12593A9006FD7403F012135280F2
:1022A70003712AF0714B229006FD7401F022F1C3ED
:1022B700600B24FE601F14601C2404701D121FCFC6
:1022C70012CEB81259451256947E27121B8E9006CD
:1022D700FD74028002712AF0714B227D067F019006
:1022E70009F9ED126D6E12810FC3940840037F0048
:1022F700229009F9E0FFA3F1BC740112040AFD1250
:1023070080F62DFD7C00ED5407FD9009FAF1DCE91C
:102317002DF9EC3AFAEF12813C7F01229006FDE09D
:1023270064022231ECE490099222900853E0B40150
:1023370002B17F227131D390002DE0940190002CDF
:10234700E0940022900853E0B40102715D9006FD0D
:10235700E090084CF022900990E0FF64016005EFDF
:102367006402705971237020900855E054FDF0E025
:1023770054DFF0E04404F0E04440F0E0B158E4FDFD
:1023870071F57FE87E0380329006FDE0FF6401600F
:1023970005EF6403700B90085571DA7F007E0080AB
:1023A700199006FDE0600464067012900855B16D3F
:1023B700B15871C571F87F007E00121B8E227D0116
:1023C700E4FFEF700DED7D017F01600302B9461256
:1023D700B98822E054FDF0E054DFF0E054FBF0E070
:1023E70054BFF0E054FEF0E054EFF07D01E4FF71DC
:1023F700C97B017A08794E22B151600714602A24FB
:1024070002704C900992E064019008557013B16D09
:102417004401F0E04410F0E4FD71F57FE87E0380AD
:102427002B71DA7F007E008023900992E0640170AF
:1024370013900855F0E054FBF0E054BF71F17FE8CA
:102447007E038008F1CA71F57F007E00121B8E2281
:10245700F1ECEF64057013900855E04402F0E04496
:1024670020B174B158E4FDFF71C9900A5FE07D02A5
:102477007F1C600512B988800312B946900855E0A1
:102487007002A14171F812B5E4EF7002A1509008F3
:1024970055E0C31330E02C71F87F327E00121B8E9B
:1024A700900855E0C41354077F0020E0027F01EF36
:1024B7005401C43354E0FF900855E054DF4FF0E077
:1024C700C4805A900855E030E02A71F87FE87E030F
:1024D700121B8E900855E0C4540F7F0020E0027F46
:1024E70001EF5401C454F0FF900855E054EF4FF04A
:1024F700E0C4802A71F8121B8A900855E0C41313B0
:1025070054037F0020E0027F01EF5401C4333354AA
:10251700C0FF900855E054BF4FF0E0C413135401B7
:10252700900A8FF0B15160071460062402701A8078
:1025370000900A8FE0FDE4FF61C9B15160071460A4
:102547000624027004615DB16022900990E024FEC8
:102557002254FEF0E054EFF022900990E0B4030516
:10256700F1CAFF71C922E054FDF0E054DFF0E054F6
:10257700FBF0E054BFF0E02271C5E4900855F0711C
:10258700F87FE87E03FDFC02B5B2125B91900A84E6
:10259700EFF0600FE0FD7F0151E6900A84E0FDE473
:1025A700FF51E622900A8CEFF071F87F007E00124F
:1025B7001B8E126D39E0900854F0E4A3F0900841A7
:1025C70004F07E007F057D00FB7A0879421287C6FA
:1025D700125D2371C59008537401F0221232DC7426
:1025E700FFFFFE12B83F12B8CC129766123B3312A8
:1025F7005A66D2AF125B15F13DF1F2D16AE4FDFFE5
:10260700D1A9121FAE12B988E4FFB1AB125CBF7F2C
:10261700027E00128AF81229AD900A5F7401F01247
:102627001B1690057E1237E4E4FF1232541250D580
:10263700125D8912607D12480B129766124BD9B151
:102647009112488DB151600B14601124F760082472
:102657000B700C113E8008121B9580031206BEF109
:10266700D280D67F0112C99F12C9BD9006D8EFF05C
:102677009006D8E030E12A7B017A0979947FD07EF1
:1026870007121B8E7B017A09799412B5E4EF700E5D
:10269700129766B1917F01D1EEBF54E8E1F2124A79
:1026A700AC22F187EF700F90B204F090B203D1E73C
:1026B70090B205F08024EFB4010E90B204E4F0A3C9
:1026C700D1E790B203F08012EFB4020E90B203E4A8
:1026D700F090B205D1E790B204F090B000E4F02298
:1026E700F0ED90000E9322E49009FD126D6E1281B9
:1026F7000F603D9009FEF1DCC003C002C0019009E4
:10270700FE122FDAFF7C00D001D002D00329F9ECAA
:102717003AFA1280F69009FDF0EF045407FFA3126E
:1027270085DDEF12813C9009FEF1BC74FF12044174
:102737009009FDE0FF22125CB4E49008CFF0126D1F
:10274700E1FFFEFDFC12B5B27D407F0B12B9887D1B
:10275700407F0C12B9887D407F0E12B9887D407F7B
:102767000F12B9467D807F1D12B9887D807F1E12AA
:10277700B9887D807F2012B9887D807F2102B94684
:1027870090B00074FFF022900A95EFF012B95790BD
:102797000A95E0FF7008F187F1B34404800AEFB4AB
:1027A7000109F187F1B344081233872290B009E099
:1027B70054F3F0E0221285DD900001229006FEE03E
:1027C70024FE22E4900855F07D0122900853E0B4DE
:1027D70001029157221285DDE92402F9E43AFA222F
:1027E70031EC7F012290085BE0FF227E007F1E7D97
:1027F700007B017A0879070287C6900A6CEFF07FA1
:1028070001229005BFE0B40508A3E0B4AC037F0143
:10281700227F002211099006ACEFF022116C30E004
:10282700027F01900883EFF0909901C083C082E096
:10283700FFA3E04401D082D083CFF0A3EFF0909CB8
:1028470006E04480F022116C30E0027F01900A9785
:10285700EFF0909901C083C082E0FFA3E04401D06C
:1028670082D08380D4909901A3E07F00227F011159
:10287700F3F1C25444FFBF44028066909C49E05480
:10288700096004F1E011EB1216527005E054126072
:1028970041121652600B126D2C5004AF06800B804C
:1028A7000912347F5004AF068000900A72EFF0904F
:1028B7000A72E0C3943F5017129766900A72E004B9
:1028C700F0E0543F909C41F0A3F01215CC80E01249
:1028D70035CF909C48E0544464446005E04444117B
:1028E700EB0217E8F07F507E000207D09009C6EF91
:1028F700F0E4A3F078C87C097D017BFF7A1379495E
:102907001207F29009C6E07F0060027F019009CAB2
:10291700EFF031469009C7EFF09009C6E0701A90C2
:1029270009C974E0F0A3740AF09009C7E0FEC00675
:102937003146D0E04F9009C7F09009C7E0FF227BEE
:10294700017A0979C8801E1174126DB712B98812FD
:102957006C4012B9467D207F0A126CC202B9887B8F
:10296700017A0979CD900A111285E6E4900A14F0EC
:102977007F04513F7D047FE651D6900A14EFF0E0C3
:10298700FEC006900A111285DD90099D7404F07D42
:102997000391E3D0E04F900A14F07F047196F1B4ED
:1029A700900A14E0FF22E49009BFF0A3F0511B75D1
:1029B700F003A42451F9740835F0FA7BFF9009BCA1
:1029C7001285E6316C9009BFEF5127C394EA40DDC9
:1029D700E49009C0F0511B75F003A4240FF9740BA0
:1029E700512EC006316CD0E05123C394EA40E6E48F
:1029F7009009C0F0511B75F003A424CDF9740D5153
:102A07002EC006316CD0E05123C394EB40E6900909
:102A1700BFE0FF221297669009C0E0224F9009BFDE
:102A2700F0A3E004F0E02235F0FA7BFF9009BC1236
:102A370085E69009BFE0FE22900A86EFF07181904B
:102A47000A86E0FF7163900A86E0FFB149900A8623
:102A5700E0FF912D900A86E0FF7181900A867178D8
:102A6700129001900A86E0FF91A2900A86E0FFC2C9
:102A7700AFEF64036004EFB40407909601E054BF1E
:102A8700F0D2AF229009A31238E5A3EBF0A371515E
:102A9700700F7F0AFE128AF89009A77151700280A1
:102AA700219009A4A37158700280179009A6E064C9
:102AB700017019A3E0FF513F9009A3E04401715948
:102AC700700A9009A7E0FF71967F00227F0122908C
:102AD7000A3CEFF0A3EDF0FFA37408F0912D802CD2
:102AE700900A3EE0FF14F0EF602B900A3CE030E7DD
:102AF70007A3E0FF71818007900A3DE0FF91A29054
:102B07000A3CE025E0F0A37178129001900A3DE0BD
:102B1700FF517680CB900A3DE0FF900A8AEFF05193
:102B270076900A8AE0FF71C5900A8A71781290013F
:102B3700900A8AE0FFF1C9EF7F0070027F01AE07BC
:102B4700900A8AE0FF5176AF0622E0FF513F9009D5
:102B5700A3E0FF9009A7E0FD51D6EF22C2AFEF64D3
:102B6700036004EFB40407909601E04440F0D2AF4D
:102B770022E0FF71637F127E0022C2AFEF64036021
:102B870004EFB40407909601E04480F0D2AF22909E
:102B97000A87EFF0B149900A87E0FF912D900A87E5
:102BA700E0FF91A27F127E00129001900A87E0FF5A
:102BB7007163900A87E0FF7181900A87E0FFC2AFD7
:102BC700EF64036004EFB4040E909603E0547FF0C3
:102BD700909602E04480F0D2AF22900A3FEFF0A334
:102BE7007408F0E4A3F071C5900A40E0FF14F0EF19
:102BF7006027A3E025E0F0900A3FE0FFF1C9EF600E
:102C070007900A41E04401F0900A3F717812900161
:102C1700900A3FE0FF517680CF900A3FE0FF912D69
:102C2700900A41E0FF22C2AFEF64036004EFB404EF
:102C370003125CE6D2AF2290097D1285709009825B
:102C47007404F0900981E0FF912D803F900982E0A4
:102C5700FF14F0EF603E90097D1284D3E4FEFDEC93
:102C67005480FC9009816006E0FF71818004E0FFD9
:102C770091A290097D1284D3780112843290097D44
:102C87001285709009817178129001900981E0FF97
:102C9700517680B8900981E0FF6121C2AFEF6403EC
:102CA7006004EFB40407909601E0547FF0D2AF229E
:102CB700900A88EFF091A2900A887178129001909B
:102CC7000A88E0FF4176900A89EFF07181900A89BE
:102CD7007178129001900A89E0FF41769009991264
:102CE70085E690099CEDF090099CE0FF14F0EF60F9
:102CF70012900999B1E21280F6FF90099D715D70FB
:102D0700E6FF227F012290099E1285E69009A1ED38
:102D1700F09009A1E0FF14F0EF6024A3E0FF71E158
:102D270090099EB1E2EF12813C9009A1E07007A3E0
:102D3700E0FF91CD80DB9009A2E0FF91B780D27FC1
:102D47000122C2AFEF64036004EFB40403125CF521
:102D5700D2AF2290091F1285E6E4900924F090096A
:102D670023E09009A7F0E4FB518B900924EFF0BF13
:102D7700011890091F1285DD900922E0FDA3E0905C
:102D8700099DF091E3900924EFF0900923E0FF718A
:102D970096900924E0FF229009281285E6E490091D
:102DA7002DF090092CE09009A7F07B01518B900939
:102DB7002DEFF0BF01189009281285DD90092BE04F
:102DC700FDA3E09009A2F0B10D90092DEFF0900955
:102DD7002CE0FF719690092DE0FF22E475F00102C7
:102DE70004749008FD1285709009011285E6900918
:102DF70004E07002A3E07002C1A39008FD1284D31F
:102E0700EF5401FFE4FEFDFCFBFAF9F8C312840E50
:102E170060169008FD12853B900901B1E21280F619
:102E2700D1B2900904126D9A7F06D1AAF10B7FAD3A
:102E3700D1AA9008FDF1A6D1E9F1BB900905E024DC
:102E4700FEFE900904E034FF900906F0A3CEF0D30C
:102E5700900907E09401900906E0940040157FADC2
:102E6700D1AAD1E990090674FF75F0FE1281D7F156
:102E7700BB80DC7F04D1AAF10BD1D1900904E0FE1D
:102E8700A3E0FF30E016E4FCFD9008FD1284DF129A
:102E970082B2123EFE900901F1DAD1B222F14ED18F
:102EA700D17F06AD07125E150200E29009B1F090DE
:102EB70009AD1285707F06D1AAF10B7F02D1AA90C6
:102EC70009ADF1A69009B1E0F1077F05D1AA12007B
:102ED70026900A91EFF0F10BF1B4900A91E020E00F
:102EE700E922900901E475F0011204741280F6FFDB
:102EF7001200E2900901E475F0011204741280F6E1
:102F0700FF1200E290960AE04408F0229009B212FC
:102F17008570E4FFD1A4F10B9009B6E0FFD1AAF1C7
:102F27000B80A79009A81285707F43D1A4F10B905D
:102F370009ACE0FFD1AA9009ACE064C7600590092D
:102F4700A8F1A6F10B8083900A90EFF07F50D1AAE9
:102F5700F10B7F01D1AA900A90E080A4F0A3EFF0D3
:102F67009008DA1284D390092E12857090093212D4
:102F770085E6F1AB4E6027D3EF9400EE9401501E27
:102F87007F06D1AAF10B7F02D1AA90092EF1E7F1B2
:102F9700AB9009321285DD125E1DF10BD1D12212E1
:102FA70084D3803F900935E0FEA3E0FF227F017EB6
:102FB70000028AF87F017E000290011123909C484D
:102FC700E022EF64036004EFB40407909600E05436
:102FD70080FF221285DD0280F6909C01E0440322E7
:102FE7001284D3900A09128570900A0AE0FF120032
:102FF700E2900A0BE0FF1200E2900A0CE0FF0200E9
:10300700E2900A2DEFF0A37401F0129766909C46A8
:10301700E054F0900A2FF0E0FF900A2EE0FEEF4E0A
:10302700A3F0900A2DE0B4010BEEB40707900A2F26
:10303700E04408F0900A2FE0909C461216B1900ADF
:103047002EE004F0E0C3940840C02211087B017A07
:103057000879887FB87E0B22900A30EFF0909C4E5B
:103067005137909C4DE0543F900A3251D57002EE93
:10307700F46013121649EFF47003EE64FE600790D4
:103087009C48E054FEF0909C4CE04403F0909C4137
:10309700E4F0A3F0909C4FE044181207CB909C4FAC
:1030A700E044011207CB909C4FE044061207CB90F7
:1030B7009C49E044121207CB7B017A0879887F107C
:1030C7007E27121B8E900882E060022199909C4B0C
:1030D700E020E05C909C4BE030E002219351466099
:1030E700022193121649EFF47002EEF4600C1216E7
:1030F70049EFF47003EE64FE7024900A31E0145136
:1031070029909C4EE07025ED643F70022193900A50
:10311700317440F0A3E025E0F04401F0800E900AFE
:1031270031E014909C4EF05137E06060513F80A42D
:10313700909C4BE030E055909C4BE030E04E514680
:10314700704A121649EFF47002EEF4600C12164939
:10315700EFF47003EE64FE701F900A31E00451290A
:10316700909C4EE0643F7020ED6021900A3174FF1F
:10317700F0A3E0C313F08010900A31E004909C4E56
:10318700F05137E0643F6004513F80AB9008827490
:1031970001F01207B8909C4FE054FE1207CBB1CF55
:1031A700909C4FE044061207CB909C49E0441212D2
:1031B70007CB909C4FE044601207CB120019900890
:1031C70084E07003F1CEF01216B2917F5004AF067F
:1031D7008000900A32EFF0900A31743FF0900A3283
:1031E700E0FF900A31E0D39F40279176900A31E0C3
:1031F700FEC39F4005909C41EEF0916D4008900AF8
:1032070031E0909C42F01215CC900A31E014F08026
:10321700CC90088FE0909C41F0900892E0909C42FF
:10322700F022909C4EF0900A32E0FD909C4DF0A366
:10323700E0543F900A31F0227F057E000207D0124A
:1032470097667B017A08798812B5E4EF22AE07907A
:103257000890E07078122823AF0612174B909C0055
:10326700E4F0909C49E04440F01215CC123B1874EE
:1032770081F0909C001451D57002EEF4600912168B
:1032870049BEFE0DBFFF0A909C437402F0A3F08075
:103297000D909C437401F0A3F0909C4AE4F0909C3D
:1032A70004E4F01238DA7411F090088F740AF09081
:1032B7000892F0511CE4900885F090089004F012F1
:1032C7002FE0F07F327E001207D01217E822F012AB
:1032D7001649EFF42290988AE04430F090988CE0F9
:1032E70054FAF0122787909804E0B4170890B007B3
:1032F7007403F08009907FC0E49390B007F090B01A
:1033070000E451D54E600812278790B00871847D7C
:10331700027F0712B9887D027F0512B98890B0092C
:10332700E020E15812278790B0097184F50AF50B60
:10333700050BE50B7002050A640A450A70F2E4F50D
:103347000AF50B90B004E030E01F90B004E030E1E4
:10335700028011050BE50B7002050AD39440E50ABC
:10336700941F40DFE4FF02BA9A90B004E020E0DA4D
:10337700E020E1D6E4FF12BA9A124AAC22E04402F6
:10338700F090B000E4F022900A33EFF030E6031239
:103397003A6D900A33E0FF30E703123A65EF30E603
:1033A70006909C41743FF0900A33E030E706909C0A
:1033B70042743FF0900A33E0FF30E603123A5DEFC4
:1033C70030E703123A551207CC900A33E0FF30E694
:1033D70003123A4DEF30E703123A451207CC900833
:1033E70084E06444601A900A33E0FF30E607909C5B
:1033F70048E054FBF0EF30E707909C48E054BFF0FB
:103407001216B2917F5004AF068000900A34EFF095
:10341700A3743FF0900A34E0FFA3E0D39F403591B7
:1034270076900A35E0FEC39F400C900A33E030E601
:1034370005909C41EEF0916D400F900A33E030E724
:1034470008900A35E0909C42F01207CC900A35E0CC
:1034570014F080C0900A33E0FF30E603123A75EFAC
:1034670030E702512022900892E0FFEEC39F22121C
:10347700976690088FE0FF22900892E0FF90088FF0
:10348700E0FEC39F22917F5004AF068000900A7030
:10349700EFF0900A70E0D3943F502C129766909CFF
:1034A70049E030E108900A70E0909C41F0909C4917
:1034B700E030E408900A70E0909C42F01207CC904C
:1034C7000A70E004F080CB909C49E030E107909CC3
:1034D70048E04404F0909C49E030E407909C48E0C1
:1034E7004440F01216B2909C49E030E103123AD8FA
:1034F700909C49E030E403123AD01207CC909C49E3
:10350700E030E104E054FDF0909C49E030E404E051
:1035170054EFF07F027E000207D0122FC25444708E
:1035270002A1C3B1CF909C48E05444600BE054BB68
:10353700F07F1E7E001207D0909C49E0540960037B
:10354700126E141216527005E05412606F12165262
:103557006010126D2C5004AF068000B1C69008872A
:10356700800D917F5004AF068000B1C6900892E0AD
:103577009009EFF09009F0743FF09009EDE0FF90AB
:1035870009F0E0C39F40351297669009F0E014F008
:103597009009EEE0FF9009F0E0FEC39F4007EE546C
:1035A7003F909C41F09009EFE0FFEEC39F4008A3D6
:1035B700E0543F909C42F01215CC80BE0217E89071
:1035C70009EDEFF0A3EEF022909C41743FF0A3F0D9
:1035D70022900A92EFF0126108EF7002FF2212C7E1
:1035E700F79007E2E0FF12680B900A92E0FF7E0077
:1035F700E4FD124CF4EF7002FF22D147D1DEEF4E0B
:103607007002FF22D14712CDA09009917426F07F56
:103617000912139A7F02D177E4FF1228F39007E487
:103627001255CCB1219008CBE07006121FAE12B92B
:10363700467FC87E00128AF8F15D12CEB87F01225C
:10364700900403E0FEA3E0FF7D007C0222F16AEF15
:1036570060037F002212BD13EF70037F0122D14761
:10366700D1DEEF4E7002FF22D14712CDA07F01229B
:10367700900989EFF0E4A3F0788C7C097D017BFF4A
:103687007A13794C1207F2900989E0FFC454F0FECF
:10369700EF540F4E90098BF0D1D590098AEFF0E4E3
:1036A70090098CF0A3F090098BE090098EF09009B7
:1036B7008AE0FEC006D1D5D0E04F90098AF0E0FE3F
:1036C700C00612614CD0E04FFF90098AF0227B01BF
:1036D7007A09798C02296C900A0D1238E29007D08A
:1036E7001284D39007C01284DF1282B2C006C007CB
:1036F700900A0DE0FEA3E0AA06F97B01A3E0FFA371
:10370700E090093ECFF0A3EFF0D007D006125F019B
:103717009007D01284DF900A0F124FB21282B29034
:1037270007D01285709007BFE070229007D0123F34
:103737004CF1C7128358900795128570900795F141
:10374700C01284DF1282B2900791128570900A0F1F
:10375700E0FEA3E0FF2290057EF1E4900991E0FFEF
:103767000207689007C41284D39007D0F1967F00B0
:1037770040027F0122128358AC00AD01AE02AF03B5
:103787009008AD1285709008AD1284D39008A912E5
:1037970084DFC302840E9008777401F0900870F0FC
:1037A700126DB712B946F1D5D177126D551218348B
:1037B700126C40126CC202B9881284D390074B2254
:1037C700E4FB7A02F9F822909C48E054BB22E4FF1C
:1037D70012139A7F0122E4FF123F8980F1E493FCE0
:1037E700740193FDFFAE049009E91238E212282311
:1037F700121649EFF47002EEF4605F121649EFF407
:103807007003EE64FE60539009E9E0FEA3E07802DE
:10381700C333CE33CED8F911C29009E9EEF0FAA33B
:10382700EFF0FBA3E0FEA3E07802C333CE33CED89C
:10383700F911C29009EBEEF0A3EFF0D3EB94EAEAAB
:10384700940B40059009E911D2D39009ECE094EA72
:103857009009EBE0940B400211D29009E911CAA339
:1038670011CA9009E9E0FCA3E0FDECC454F0FBA306
:10387700E04B90088DF0AF05A3EFF09009EBA3E0C4
:10388700900891F0909C04EFF0909C02E0540FF0A8
:10389700C083C082E0FF90088DE0FE54F0FDEF4D3D
:1038A700D082D083F0900891E011DAE054F0F0E094
:1038B700FFEE540FFEEF4EF00217E8FF7C007D0588
:1038C700028182E0540FF0A3E0F022740BF0A3749E
:1038D700EAF022909C03F0909C0222EEF0A3EFF016
:1038E700A3ECF0A3EDF022900A2111E2E4FEFF22FF
:1038F7003168900A1DEEF0A3EFF0900006E0B403E4
:103907000C90047FE0FCA3E0FD11EE80139000060D
:10391700E0640470153168A3E0FCA3E0FD1236DE15
:10392700900A1FEEF0A3EFF080261207F8EF64016C
:10393700702B900A1FF0A3F012A044900A1FEEF01C
:10394700FCA3EFF0FD900A1DE0FEA3E0FF1204B117
:10395700D080D080900A1FE0FEA3E0FF22E4FEFFA4
:103967002290047DE0FEA3E0FF22AE07122823EE9B
:10397700543FFEED543FFD121652600A900886EE42
:10398700F0A3EDF08012909C49E05412602E90084D
:103997008FEEF0900892EDF0909C48E020E20B90BB
:1039A7009C41E0543F6E6002EEF0909C48E020E6B8
:1039B7000B909C42E0543F6D6002EDF00217E8AEB9
:1039C70007EE90059493FDFF80A0AE07EE9005BF2C
:1039D70093FDFF8095EF909C50B40105E054FCF0F7
:1039E70022E04402F0E054FEF022900A73EFF01256
:1039F7002823900A73E0FF30E602516DEF30E702AB
:103A07005165900A73E030E602515D900A73E03029
:103A1700E70251551207CC900A73E0FF30E60251D6
:103A27004DEF30E70251451207CC900A73E0FF30A3
:103A3700E6025175EF30E7031232200217E8909C37
:103A47004FE04420F022909C4FE04440F022909CAD
:103A570049E04410F022909C49E04402F022909CF7
:103A67004CE04408F022909C4CE04404F02290087B
:103A77008FE0909C41F022122823900885E0541291
:103A8700702E909C49E030E10251D8909C49E0307B
:103A9700E40251D01207CC909C49E030E104E05495
:103AA700FDF0909C49E030E404E054EFF01207CCBD
:103AB700909C4CE030E204E054FBF0909C4CE030EA
:103AC700E304E054F7F00217E8909C4FE054DFF06E
:103AD70022909C4FE054BFF022122823909C00E4D0
:103AE700F0711874A3F0909C007480F09096417464
:103AF70020F07D037F1D12B9467D037F1E12B98812
:103B07007D047F1D12B9887D047F1E12B9460217F6
:103B1700E8909C057442F0A322909904E054FEF0CB
:103B270090980DE054FEF0E0440EF02290B004E0CF
:103B370030E3F990980DE054F1F0E04401F09098EB
:103B47001FE030E0F9909904E04401F022A2AFE4CD
:103B570033900A74F0C2AF9005FE1284D390061119
:103B67001284DF1282B29005FB1285DD12849590D4
:103B770005FB718FE412814E900A74E024FF92AF27
:103B8700D080D0802290069D1285DD90000422907F
:103B970008A4EDF0A31285E69008A3EFF090053E88
:103BA700E0FEEFD39E50179008A3E0C39401400EA8
:103BB7009005451285DDE94A4B6003EE70037F00EF
:103BC700229008A3E0149008A8F09008A4E0FF90C2
:103BD70005451285DD9008A8D1A7EF12814E900800
:103BE700A51285DD12BF3FD1989008A4E064036059
:103BF70002A111A3718F12810FD39406400312BE45
:103C070090D1929008AD128570B1AD78009008AD53
:103C1700F146EF2402FFE43EF156E47B07F16CAF77
:103C2700039008B1EFF09008A5718F12810FFEC3C2
:103C37009F4013EEFF9008B1E0FDEF9DF118B1AD85
:103C4700F81282CD80279008A5718F12810FFF90FF
:103C570008B1E0C39FF118B1ADF81282CDC37480EB
:103C67009FFF743A9EFE74099DFDE49CFCC006C04C
:103C770007B1B4900001D007D0061284AFB1B4B138
:103C8700CBFAC003C002C0011284459008AD12846C
:103C9700DF1282B2D001D002D003128495B1A7F10E
:103CA70038D1989008ADB1AA780012377C9008A84F
:103CB700E075F006402BB1BBB1CBFAC003C002C020
:103CC70001128445C004C005C006C007F121B1DB5D
:103CD700F131AB07D007D006D005D0041282B2A1CC
:103CE70069B1BBB1CBFAC003C002C001128445C0A1
:103CF70004C005C006C007B1D2F131AB07D007D069
:103D070006D005D0041282BF80589008A4E0640250
:103D1700705BB1A7F138D198B1AD7800D192123765
:103D27007C4006F121B1DB8012B1D2C374809FFFC2
:103D370074519EFE74019DFDE49CFCC006C007B152
:103D4700B4900001D007D0061284AFB1B4B1CBFA5A
:103D5700C003C002C00112844590B1061284DF126D
:103D670082B2D001D002D00312849580259008A496
:103D7700E0B4011ED1929008AD1285709008A91287
:103D870084D3C006C007B1B4900001D007D0061293
:103D970084AF9008A3E0FF12C1CB12BA257F01229E
:103DA7009008A91284D37B807A517901229008A8C0
:103DB700E075F006A4FF9005451285DDE92FF9EAC5
:103DC70035F0FA22E92401F9E43A229008A912848D
:103DD700DF9008AD1284D30282BF9009E012857C80
:103DE70000000000E49009DFF090053EE0FF900935
:103DF700DFE0FEC39F4002C18FEEB1B8900005120D
:103E0700810F6401707AD19E12810FFBB4020FD12A
:103E170092EF2480FFEE3451FEED34018011EBB4B4
:103E27000313D192EF2480FFEE343AFEED3409FDFF
:103E3700E43CFC800AD19E12810FB40108D1929014
:103E470009E01285709009DFB1B79000011284650F
:103E57009009E012379660219009DFB1B7D1F2D10E
:103E6700FEC312840E60129009DFB1B7D1F2EF24BE
:103E7700FEF101C312840E70079009DFE004FF22F0
:103E87009009DFE004F0A1F07F002290B1060284E0
:103E9700D39008A90285709005451285DD9009DF4A
:103EA700E075F006A4F58285F08322A2AFE4339093
:103EB7000A75F0C2AF718C12810F701C128445F124
:103EC7000F900611B1DBE4FBFAF9F8C31283F8503F
:103ED70007718C740112814E900A75E024FF92AF2E
:103EE700D080D080718C12810FFF22900001128543
:103EF7000B9009E00284D3EF24FFFFEE34FFFEEDC1
:103F070034FFFDEC34FFFC22AB07AA06A905A80481
:103F170022FFE49400FEE4FCFD229008AD1284DF4A
:103F27009008A9221284DF1282B2A804A905AA0662
:103F3700227800128358AC00AD01AE02AF03221203
:103F470084D30283581284D3EF24FFFFEE3401FE9B
:103F5700E43DFDE43CFC223400CF2402CF3400FED4
:103F6700E4FCFD7B03FAF9F8028358900789128471
:103F7700DF900791B1DB1237C71282CD9007D002CD
:103F87008570900A76EFF0124C15600D24F76016D5
:103F9700240A701D1227E78018900A76E0640360F0
:103FA70010120022800B900A76E0640C600312293D
:103FB7004E900A76E0900990F0900A62F07D017FBA
:103FC70001121356E4900992F01227F21215AA0271
:103FD7002331E4900A77F09008CAE0B4010D7D011F
:103FE7007F01121356900A777401F0124045EF7063
:103FF700069008CAF0FF22900A77E070077D017FDC
:104007000112135674FFFFFE12B83F120652120731
:10401700FB12B24FEF7002FF227F02123F897F022D
:104027001236777F0912139AE4FD7F0D1206667F19
:1040370002117AEF7002FF2212531D7F01221173C2
:1040470012B5E4EF7006900428E0701A11737F64CC
:104057007E00121B8E9004287401F012B0CB9008DA
:10406700C0EFF012B83C9008C0E0FF227B017A084D
:1040770079C522900A80EFF07E007F327D007B01B8
:104087007A0079061287C6900A80E0900006F090C1
:10409700000B12857CFFFFFFFF90000F12857CFF4E
:1040A700FFFFFFE4900A59F0A3124FCF11EDEF7015
:1040B70006900A59048010E4900916F01257D2EFBF
:1040C700700C900A597402F0A304F07F002290004C
:1040D7002CE07002A3E07006900A597403F0900A6E
:1040E7005A7401F0FF2290082912857C0000000015
:1040F700E490083BF0900006E0B4010C12CD53EEBB
:10410700C313900836F080069008367401F0917456
:1041170091A57002FF229174919764AA7003EE64CF
:10412700556008900967E07002FF22E4900835F0B7
:10413700900835E0FFC39404400221EFEF75F010BB
:10414700A424BEFFE5F0340EFAA9077B0190083ED0
:104157001285E691B6FF6405600AEF640F6005EF0C
:104167006485703790083BE0FF6008900835E0C32E
:104177009F40289008291284DFC000C001C002C0F8
:1041870003918B129814D003D002D001D0009182F2
:10419700900835E00490083BF0211590083E123B4B
:1041A7008F12810FFF64046018EF64066013EF64D9
:1041B7000B600EEF640C6009EF64016004EFB40E4E
:1041C7001F9008291284DFC000C001C002C00391FC
:1041D7008B129814D003D002D001D00091828008AE
:1041E700900835E004F02137900835E0B4041B90BF
:1041F700083BE0FFD394004011EF9404500C900863
:104207002912857C0000000021159153FE90082992
:10421700916891A57002FF229153FE900829916839
:10422700919764AA7003EE64556008900967E0707F
:1042370002FF22900D0DE0900013F0900D0EE0FEAE
:10424700A3E0FF1297F890083CEEF0A3EFF0E4FC30
:10425700FD9008291284DF1282B290001412857033
:10426700900D11E0FEA3E0FF4E603D1297F87C0031
:104277007D201285EF123F31AB07900836E07F00B3
:1042870025E0FEE4FCFD1282B2123EFEC006C00726
:10429700E025E07B00FAE4F9F8D007D0061283584E
:1042A700900825128570800A90082512857C0000E9
:1042B7000000900D16E0FEA3E0FF4E60081297F88D
:1042C700E4FCFD8005900D24916E90082D128570F9
:1042D700900D13E0FEA3E0FF4E60081297F8E4FC90
:1042E700FD8005900D20916E900831128570915CCC
:1042F700123F31AB0790083C124FB21282B29008BE
:1043070025123F2BAB07900831123DDBC007900009
:1043170013E0FBE4FAF9F8D0071283589008371234
:104327008570E47FF57E0FFDFC90083712379650B5
:1043370008E4900008F07F0122E47FF57EFFFDFC92
:10434700900837123796500AE4900007F0A304F05C
:10435700802578367C0D7D017BFF7A0479C77E0046
:104367007F081287A2EF9000077003F080037401A3
:10437700F09000087401F0915C9000141284DF1231
:1043870082B29008251284DF1282B290001C128537
:1043970070900007E06010900D2C916E9008371216
:1043A70084DF1282B2800F9008371284D3EF240281
:1043B700FFE43E123F56900020128570900007E000
:1043C7006021900D2C916EEF24FEFBEE34FFFAED89
:1043D70034FFF9EC34FFF8900013E0FFE4FCFD91A3
:1043E7007A8005915C9000141284DF1282B29000EB
:1043F70018128570900013E0FE900836E0FFEE8FEC
:10440700F0A4900013F0A31284DFE4FCFDFE1282F7
:10441700CD90001412857090001C9150917A1285EE
:10442700709174900831123F2BAB079153FE1282A3
:10443700CD9000241285709000189150FE1282CD05
:104447009000181285707F01221284DF900836E0F1
:10445700FFE4FCFD22900D10E0FFE4FCFDFE900858
:104467002D1284DF0282CD1284D30298149008297A
:104477000284D3FE1282CD90001C221282B29008D1
:104487002902857090083E1285DD90000802846538
:1044970090000B128570900EFEE0FEA3E0229006BE
:1044A70006740DF0A3E4F0A304F012D177EF229085
:1044B700000402810FE490095FF0D080D080FE7F76
:1044C70008FD7B017A0579BF1287C6D1BDA37408A1
:1044D700F07B017A02792C9004B1E4D19D700AD166
:1044E700947006D1947002FF2290022CE0FF90098D
:1044F7005BF0900233E090095AF0D3EF9400748098
:1045070094814003E4A3F012BDF79006A17427F04D
:10451700A37410F012CA15EF7002FF22D1BD9009E3
:104527005AE0900398F0D1ABEFD1A17002FF22902F
:10453700023CE0900960F0900235E0FE900234E022
:104547007C002400FFEC3E9005BFF0A3EFF0900243
:1045570037E0FE900236E02400FFEC3E9005C1F103
:10456700E17A02792CD1B67409D1C57002FF229085
:10457700022EE090095BF0D394007480948140028E
:10458700E4F0D1ABEFD1C57002FF2212B007BF0133
:1045970007E49006ACF0FF227B017A02792C9009A0
:1045A7005C1285E690022EE0242CFFE43402FAA97F
:1045B700077B01C003C002C00190095C1285DDC3FF
:1045C700D082D083D0E0E99582EA95834002C191F9
:1045D70090095C1227BC12810FFF640470369000AB
:1045E7000512810FB4081990000612810FFE6405A9
:1045F7006004EEB4060A90000712810F645060074A
:10460700E4900961F080069009617401F0E4900973
:104617005FF0804EEF64057049900961E060439058
:10462700000312810F540364027037D1D530E719A4
:10463700540F900367F0A37405F091B6900369F0E7
:1046470090095FE04401F08019D1D5540F90036AB7
:10465700F0A37406F091B690036CF090095FE04404
:1046670002F090095FE0B4030F900231E0FF12CA35
:1046770064EF7F017016FF2290095C122FDAFF901A
:10468700095DE48FF01281D7A1AB7F00227B017A0D
:1046970002792C9004B1F0A37408F0E4FD7F0112B5
:1046A700AA35EF227B017A02792C90095BE0FF9013
:1046B70004B1E4F0A322E4900396F0A3F022F0E41F
:1046C700FD7F0212AA35EF229005AF1285DD90001B
:1046D7000202810FD1CF75F002908A791285D1E459
:1046E70093FE740193FF90000312810FFD7C00EF8E
:1046F7002DFFEC3ECF24FFCF34FF9009DAF0A3EF74
:10470700F0128203FFAEF012C07BEF6011D1CFD35E
:104717009402400A9009DAE475F0011281D79005F6
:10472700AF1285DD1282032444FD2403FFE433FE28
:10473700EF7802CEC313CE13D8F99009DEF0AF0598
:10474700E4FCFDFE7B6D7A01F9F81282CD9009DE5B
:10475700124FA2FE9009DBE02FFF9009DAE03E90AE
:1047670009DCF0A3EFF0900A57E0B40208900A586A
:10477700E06403600FF18F12BFDB9005AF123B8F30
:10478700EF12814ED080D0809009DCE0FEA3E0FFDD
:1047970022124A5FEF7002FF2274FFFFFE12B83F3A
:1047A7001206527F03123F89E4FD7F0C120666E46E
:1047B700FF123677E4FF12139A1200FA7F0122EFF5
:1047C70024FD600824F76006240A800480C3801152
:1047D700023FD9E0FFF1C6EF22CFF0A3EFF07B0154
:1047E7002274FFFFFE12B83F1206527F0C123F8958
:1047F700E4FD7F0B12066612379D7F0122E4FD7FE1
:104807001C0206667B017A0679F47F007E00121B84
:104817008E11867F007E00121B8E90963DE054FC21
:10482700F012B65B1240737F007E00121B8E7B0175
:104837007A0879967F2C121B8C7B017A087996125D
:10484700B5E4EF7006511B51CB80EE513D51EE118F
:10485700049008C4E0B401089009907403F0801232
:104867009008CAE0900990B401057402F0800374BF
:104877000CF09009901247DA70047F023194227B82
:10488700017A08799D22900990E0900A7AF0E4FF76
:104897001226EE90089BEFF0BF5C16A3E07012049F
:1048A700F0900A5FE06004E4F08006900A5F74010C
:1048B700F090089CE0601B900A5FE09008A26006F9
:1048C700E0FF71338004E0FF71639008A2E004F019
:1048D7008005E49008A2F090089BE0FF645560040F
:1048E700EFB4400251A751CBEF6023900990E0FF4E
:1048F7006407601AEF64086015900006E0B4030AC5
:10490700900990E0B40D031222AE7F0231A7511B2C
:10491700EF60047F0331A7118612B5E4EF60281119
:10492700867F647E00121B8E513DEF6008121FAE1A
:1049370012B98880129008CBE0700C900968E0707B
:1049470006121FAE12B9469115601904701F900622
:10495700D2E06008123FD9EF7013800D124045EF87
:10496700700B8005515FEF70047F01319490089BB5
:10497700E0B41218900006E0B4030A900990E0B47E
:104987000D031222AE900990E0FF31C222900A78FF
:10499700EFF01247C6EF7007900A78E0FF31C222A6
:1049A700900990E0900A79F01247C6EF700C900AD0
:1049B700791247DA70047F0131C222E4900A56F077
:1049C700900A56E0FEC39403501174932E5113E0DE
:1049D7006F6008900A56E004F080E5E4900A55F00D
:1049E700129766900A56510B4002E4F0900A56E07F
:1049F700249351131247DA700A900A55510B40E07D
:104A07001237DD22E004F0E0C3940322F582E43498
:104A170008F583229008C4E0900A7CF0515F900863
:104A2700C4EFF0900A7CE0700A9008C4E060047F4D
:104A37000180027F00229008CBE0900A7EF0719BF4
:104A47009008CBEFF0900A7EE0700A9008CBE06008
:104A5700047F0180027F002290960BE04410F090C3
:104A6700960EE054EFF0A3E054EFF090960CE0546C
:104A7700EFF09121909609E030E40BE49008C4F040
:104A87009008C1F080149008C1E0C3940A5005E073
:104A970004F080069008C47401F09008C4E0FF2277
:104AA70051B8121352D310AF01C3C0D012BAA280AB
:104AB700FE900853E0B40103125D5D126D39E0907A
:104AC7000854F0229008CAE0900A7BF01240459003
:104AD70008CAEFF0900A7BE0700A9008CAE0600409
:104AE7007F0180027F00229008C3E0900A7DF07169
:104AF700109008C3EFF0900A7DE0700A9008C3E0B9
:104B070060047F0180027F0022909629E04401F033
:104B1700A3E04401F0909627E054FEF0909626E03B
:104B2700440171CC7F0030E0027F0122E4900A93B8
:104B3700F0EFC39471501AEF75F003A424A0F97431
:104B4700107193C00612296CD0E04F900A93F08041
:104B570005E490089CF0900A93E0FF22E4900A9401
:104B6700F0EFC39471501AEF75F003A424F3F974AE
:104B7700117193C00612296CD0E04F900A94F0800F
:104B870005E490089CF0900A94E0FF2235F0FA7B48
:104B9700FFE0FE22909629E054FBF0A3E054FBF0DF
:104BA700909627E054FBF0909626E0440471CC30B1
:104BB700E207E49008CBF080069008CB7401F090F0
:104BC70008CBE0FF22F07F027E001290019096242E
:104BD700E022910E12B5E4EF602C910E7F327E0039
:104BE700121B8E7110EF6019E47F3AFEFDFC9008EE
:104BF7006712379690085B40057402F080037401D2
:104C0700F0E4FF1219F7227B017A08795C229009F8
:104C170090E024FD227F1D12B9467F0A7E00029094
:104C270001F1DAF1AA12B9887D02911C915C30E199
:104C3700027F00227D017F2012B9467D017F21126C
:104C4700B9887D017F1E12B9887D01911C915C3066
:104C5700E0027F00227F1B12B9ACEF7F01227D208B
:104C67007F0E12B9887D207F0F126CBA12B9887D2A
:104C7700207F0B911E7F09915E30E5027F00229015
:104C8700098512857C0000000012B8F1D18091EDF2
:104C970012DB79EF704D91ED90047FF1D3FD7C0F1E
:104CA70012A02A900983EEF0A3EFF04E7002803332
:104CB7007B017A0F7900900983E0FFA3E090094711
:104CC700CFF0A3EFF09009851284D3D1DB9009854B
:104CD7001284DF900983F1B21282B2A31285709118
:104CE7002180AB02B8CC7B017A07796E22AB07AA89
:104CF70006900A45EDF0A3E4F0A304F0EDD3940287
:104D070040037F0022900A45E0F9701B9007A7D166
:104D17006640037F00229007A9E02BFEE43A900A41
:104D270046F0A3CEF08038E9640170219007A8D13E
:104D37006640037F00229007A9E02BFFE43AFE902C
:104D470007A7F1A2900A46F0A3EFF080129007A9F7
:104D5700D16640037F0022900A46EAF0A3EBF09069
:104D670007BEEBF0A3E9F09007D012857C000000A6
:104D770000900A47D177900A46D16F2410FFE43E8E
:104D8700FEE4FCFD7A0779C07B0190093EF0A3742D
:104D970010F0125F01900A45E06002C16374FFFFE3
:104DA700FEFDFC9007C4123796700D9007C412855C
:104DB7007C000000007F00227E007F2F7D0091EDA8
:104DC7001287C67E007F047D307B017A07797D12CA
:104DD70087C678817C077D017B017A0779C87E00C9
:104DE7007F041280D078857C077D017B017A077963
:104DF700CD7E007F031280D09007C41284D3900722
:104E0700991285709007C4123F4C1237C712835806
:104E170090078D1285709007A6D1779007A5D16F5F
:104E27002420FFE43EFEAB07FAE4F9F89007C0122E
:104E37003DDBE4FB7A02F8128358900789128570EC
:104E47009007891284D39007911285709007951265
:104E5700857C000000009007887401F07F0122E044
:104E6700FFD3EB9FEA940022E0C454F048FEEF2200
:104E7700E0C4F8540FC868FF22900A5DE0B4030845
:104E87009009ACD19F022F2A900A5DE0B4010890E7
:104E970009B6D19F122F132274C7F07F007E007DC1
:104EA700007C0022E4FF900006E0B4030AD1D2F1AF
:104EB700C47F01D080D080900006E0B4040CD1D22A
:104EC700E4FD91F47F01D080D08022900516E0FEAA
:104ED700A3E0FF229009401285709009441285E6ED
:104EE700900A5DE0B4030AF115900904F10A022D56
:104EF700E9900A5DE0B4010AF1159008E1F10A12A0
:104F07005F9B22CFF0A3EFF09009400284D3900972
:104F1700441285DD900947E0FFA3E022900A4E1274
:104F270085E67FFF7EB07DB77CE190B1061219F070
:104F37004019F15B12B5E4EF700512976680F3D163
:104F4700A212B708F15B7F2C121B8C900A4E1285B8
:104F5700DD02AFD27B017A0979E42212BF3F900AC2
:104F670029128570F15B12B5E4EF7019F1BB64018A
:104F7700600EEF64026009EF64066004EFB408E4B2
:104F870012569D80DF900A291284D312B708F15B6D
:104F97007F2C121B8C12A6C102BA25E07C002FFFC2
:104FA700EC3E2212B9887D027F1E22E0FEA3E0FFBD
:104FB700E4FCFD22129766900A62E0FF22900A69DC
:104FC700EEF0A3EFF07F0022F090040E7402F0A33E
:104FD700E4F0227D027F2012B9467D027F21221252
:104FE700509090000812810F9009F1F0900009127B
:104FF700810F9009F2F090000A12810F9009F3F0E7
:105007009009F1E0B44D10A3E0B4500BA3E0B43322
:1050170006A37401F08005E49009F4F0900A5AE0C1
:1050270070089009F4E0600211379009F4E0FF225C
:10503700900916E07052900006E064017021129FFB
:10504700B8129FDF9006DF123796703C11907D0BE8
:1050570011969006E3E06F702F90091604F02290E6
:105067000006E064027021129FB8129FDF9006E9E4
:10507700123796701311907D0B11969006EDE0B5DF
:1050870007069009167401F0229003D80285DD9077
:105097000A051285E6900A08EDF0E4FE900A08E09A
:1050A700FD14F0ED6025900A05122DE21280F66ED0
:1050B700FEE4FFEFC3940850E3EE30E007C3136448
:1050C7008CFE8004EEC313FE0F80E8AF062231F496
:1050D7001196AB079006D8E020E0649006DBE06409
:1050E7005A705C9006F2E06B70559006D8F0900607
:1050F700DCE0900990512240037423F031EC400228
:10510700E4F031E44002E4F05131F0900990E0FA24
:10511700B4010D51091237C01285709006E4800F53
:10512700EAB4021231FD1237C01285709006EE7193
:10513700EDE4900702F0F129500221E3E4F0227E2A
:10514700007F1A7D007B017A0679D91287C67A0615
:1051570079DB7B019009D97418F0E4FF71F631F41B
:105167001196AB079006DBE0B45A079006F2E06FA2
:10517700601E9009137401F0E49006D9F0A3F0A320
:10518700745AF0A37401F05115F0A37423F0804909
:105197009009137401F0D17D900990EF51224003DB
:1051A7007423F031EC4002E4F031E44002E4F051C2
:1051B70015E0FBB4010C9006DEE0900702F0510900
:1051C700800EEBB402109006E8E0900702F031FD84
:1051D7001237C01285705131F01218ED229006DA9D
:1051E700E0C39405229006D9E0C3940B227B017A91
:1051F7000679DB7D17229006EDE0900917F09006FF
:10520700E9229006E3E0900917F09006DF22E49088
:1052170006DEF09006E8F090099022F09006DDE0B7
:10522700543F900991F0D3942A229006D9E0900731
:1052370000F09006DAE09006FF22900990E0FBB4B8
:1052470001059006E48007EBB402059006EE71EDC8
:105257005131F0227B007A007900900A361285E6F8
:10526700E4900760F0900702E0701690002C71162A
:1052770090072FE09F90072EE09E4005E4F0A304DF
:10528700F0900A361285DD9005131285E690072EF9
:10529700E0FFA3E09005161247E07A077930129CE9
:1052A7006BEF7007900A597405802B7B017A077999
:1052B7003F7D0B1196900917EFF07B017A0679DB9A
:1052C7007D181218347B017A07793012CEE6EF7019
:1052D70009900A597407F07F00229003F312857C26
:1052E70000000000900762E0601CE4F05141900369
:1052F700EF1284D39003F3123796400A9003F31208
:10530700857C0000000091D4EF7F017001FF22E04F
:10531700FEA3E0FFD322E4900702F0900760F0F1CC
:1053270054EF64017066900916E0700C900762F004
:1053370090072EF0A304804C90091871169400EE84
:105347009400406B9007627401F090002CE0FCA37E
:10535700E0FDD3EF9DEE9C4008900918E4F0A3040C
:10536700F09000307116900915E09F900914E09EA7
:105377004005E4F0A304F0E4900702F0900918D187
:105387008BF0A3EFF0E49006FFF08023E490076230
:10539700F0900703F0A304F090072EE4F0A304F0C5
:1053A700E49006FFF09003F312857C00000000E410
:1053B700900701F090002CE07002A3E070079006C0
:1053C700FD04F0FF221222AE515BEF70031222E2BE
:1053D700E4900918F0A3F090091AF0A3F0900914CB
:1053E700F0A3F07F01221284D39003F3028570901B
:1053F70009D61285E69009D591B0EFD39495500B55
:105407009009D61285DDE94A4B70037F0022900987
:10541700D9E0FF9009D591C3400774969D9009D9AB
:10542700F0E4900A67F09009D991B9501B9009D51B
:10543700E02EFF12BFF49009D6122DE2EF12813C45
:10544700900A67E004F080DEE4900A68F07F0122AA
:105457009009D11285E69009D091B0EFD394955079
:105467000B9009D11285DDE94A4B70037F0022902A
:1054770009D4E0FF9009D091C3400774969D900925
:10548700D4F0E4900A67F09009D491B950199009C3
:10549700D0E02EFFA3122DE21280F6FD12BA06907D
:1054A7000A67E004F080E0809FEFF0900A687401DB
:1054B700F022E0FF900A67E0FEC39F22E0FD2FFF86
:1054C700E433FED3EF9496EE648094802212C7F7FC
:1054D7009003E7E0FF12680B9003E9B1CCB167E4F2
:1054E70090075FF012CEB812198E12B7CAD1FE4ECE
:1054F700700E900A59E0640960037408F07F002277
:10550700B15E12CD92B15E900404E02FFF900403C8
:10551700E03EFE900405E0FCA3E0FDC390040FE02D
:105527009DFD90040EE09CFC12CDA0F133D1947E3A
:1055370027121B8EF1201219F04005E47FC8800264
:10554700E4FFFEFDFC7B017A07796312B5B2900692
:10555700FD7402F07F0122900405E0FEA3E0FF2224
:10556700900700E075F00AA424D0F9740435F0FA26
:105577007BFF900A191285E690040CE064017044E1
:10558700FF900A191285DD8F8275830012810F241F
:1055970009900A1CF0D394804004E4F0800C900A30
:1055A7001CE0C3940D4003740CF0900A1CE09006B5
:1055B7001293FE740D2FF582E43495F583EEF00F08
:1055C700EFB40ABD22E0FEA3E0FFEEFA909C0812BA
:1055D700857C01000000EAC3942750047B8D805D21
:1055E700EAC3942D50047BB38053EAC39436500426
:1055F7007B918049EAC3944A50047B95803FEAC374
:10560700945950047BB78035EAC3946D50047BB935
:10561700802BEAC3949450047B998021EAC394B306
:10562700501990966AE030E00E7B88909C081285AE
:105637007C001A000080067BA380027B8912284D1C
:10564700909C06E06B6013909C00E0547FF0909C68
:1056570006EBF0909C00E04480F0900A97E070150C
:10566700F13EC083C082E0FFA3E054FED082D08326
:10567700CFF0A3EFF0229006DCE0FF2290076274E0
:1056870001F0415BE0FFA3E090072ECF227B017A78
:105697000679F47F10229006FDE0B40204F1496018
:1056A700037F012212BD13EF70117B017A0679F493
:1056B70012B5E4EF7F01603E7F0022D1947E27126E
:1056C7001B8E9003E7E06401702AD1FE4E701290A2
:1056D70006FDF0900A59E0640960037408F07F0042
:1056E70022900403E0FEA3E0FF90040EE0FCA3E099
:1056F700FD12CDA07F01227B017A07793090040348
:10570700E0FCA3E0FD90040EE0FFA3E090047FCF50
:10571700F0A3EFF012A02AEF22E4FFFEFDFC9003B6
:10572700F322900702E0D364809481229006F91255
:10573700857CFFFFFFFF22909C06E0547FF0909945
:1057470001227B017A07793012DB79EF229006DBA1
:10575700E07F00B45A027F01221227C3600304705E
:105767000D515BEF70059006FD04F0121FCF22D399
:1057770010AF01C3C0D091B212BA06E4900A68F024
:10578700D0D092AF22D310AF01C3C0D091B212BF15
:10579700F4E4900A68F0D0D092AF22124FBB900683
:1057A700ADE06F601AEF64016013EF6402600EEF03
:1057B70064066009EF64076004EFB40802D19D1224
:1057C70025911208079006ACEFF022E4900A64F0E6
:1057D700900A63F09000181284D3E4900643F0A374
:1057E70004F012C68612CF4F9000181284D390038C
:1057F700DC128570129766129D6A900A7FEFF0900F
:10580700002C124FB27BFE7AFFF9F8C31283F850CF
:1058170002212F9003DBE0700312D7F2900A7FE09A
:1058270014700201D424FC700201DD240570C51236
:105837004FE6EF604D90002CE475F0011281D79090
:10584700002EE475F0011281D7900916E0B40132F9
:10585700900918E07002A3E070283132900918CF40
:10586700F0A3EFF090002EE0FFA3E090091ACFF02D
:10587700A3EFF0900030E0FFA3E0900914CFF0A36E
:10588700EFF0900030E07004A3E06401600302577A
:10589700FB90076DE0640170030257FB125090E91B
:1058A7002408F9E43AA801FCAD037BFF7A007906E6
:1058B7007E007F031287A2EF60030257FB90076DFC
:1058C70004F0FB7A07796E12983B0257FB9000327F
:1058D700E475F001804C12D90C900030E07004A3FD
:1058E700E06401700A3132900036CFF0A3EFF01276
:1058F700DB9B12DCACEF70037F0122900030E47574
:10590700F0011281D7E4900032F0A3F090002EF05E
:10591700A3F012D711EF60030257FB90003074FF1A
:10592700F5F01281D70257FB7F012290002CE0FF90
:10593700A3E0229006F912857CFFFFFFFF22900665
:10594700F912857CFFFFFFFF229009F5EFF0900029
:105957002CE0FEA3E0FF9009F6EEF0A3EFF04E7007
:105967000241629006FFE024FE70024112240224E5
:10597700FB500241579009F5E0FFB4020D9009F87A
:10598700740AF0E49009F5F08012EF9009F8B40377
:1059970008740AF09009F580007401F09009F5E0A9
:1059A70070329009F8E0FF7E0090072FE02FFD90FE
:1059B700072EE03EFCC39009F7E09D9009F6E09CB6
:1059C70090072E5007E4F0A304F04157EE8FF01232
:1059D70081D7807C9009F5E0640170749009F8E044
:1059E700F9FF90072EE0FCA3E0FDD39FEC94005055
:1059F700089009F612568B8053E9FFC3ED9FFEEC22
:105A0700940090072EF0A3CEF080459009F6E0FEB3
:105A1700A3E0FFFBAA06E4F9F8900611123F46EB54
:105A27002401FFE43AFE90072EE0B5060AA3E0B58D
:105A370007050FBF00010EC39009F7E09F9009F615
:105A4700E09E50047E007F0190072EEEF0A3EFF05A
:105A57009009F5E0900701F01207FC227F1A2290C7
:105A6700061112857C00000000C2A9C28C5389F080
:105A77004389027F01120646D2B9D2A9D28C43A923
:105A8700022232C0E0C0F0C083C082C0D075D0000F
:105A9700C000C001C002C003C004C005C006C007E3
:105AA70012C90BD007D006D005D004D003D002D03E
:105AB70001D000D0D0D082D083D0F0D0E032C0E087
:105AC700C0F0C083C082C0D075D000C000C001C084
:105AD70002C003C004C005C006C00712B9EB900A94
