:1000000002040BE1FB4D56460022320262E400017D
:1000100002032202631F021DC6222280ED227F00FE
:1000200022223280FDE4C3FA90960AE04401F054A3
:10003000FEF0909609E0A2E2E492E02A23FA90967C
:100040000AE04401F054FEF0909609E0A2E2E49246
:10005000E02A23FA90960AE04401F054FEF09096CC
:1000600009E0A2E2E492E02A23FA90960AE0440131
:10007000F054FEF0909609E0A2E2E492E02A23FA1E
:1000800090960AE04401F054FEF0909609E0A2E256
:10009000E492E02A23FA90960AE04401F054FEF03C
:1000A000909609E0A2E2E492E02A23FA90960AE010
:1000B0004401F054FEF0909609E0A2E2E492E02AB6
:1000C00023FA90960AE04401F054FEF0909609E07D
:1000D000A2E2E492E02AFA90960AE04401F0EAFFF4
:1000E000227808EF33FF90960AE092E154FEF090F8
:1000F000960AE04401F0D8EB22900980E0FF22222A
:100100000000220000220000220000220000220045
:100110000022000022000022000022000022000035
:100120002200002200002200002200002200002203
:100130000000220000220000220000220000220015
:100140000022000022026A85000022000022000036
:100150002202485102499E02277B00002200002211
:10016000000022000022000022021A630000220088
:100170000022000022000022000022000022025D76
:10018000080000220270B5000022000022026E4624
:10019000000022000022026FD9000022000022008D
:1001A00000220000220000220000220000220000A5
:1001B0002200002200002200002200002200002273
:1001C0000000220000220000220000220000220085
:1001D00000220000220258D3026FC60267A7023D28
:1001E000AC0257FB000022000022024E79026D6033
:1001F0000000220000220000220000220000220055
:100200000022000022000022000022000022000044
:100210002200002200002200002200002200002212
:10022000000022000022026A41026A7C00002200D3
:100230000022000022000022000022000022000014
:1002400022025F01000022000022000022000022A2
:10025000000022000022410AA000410A9A00420A3E
:100260009B0000420A9D0000410A9F004109C00016
:100270004109BF004109CB004109BD00410B6C01A0
:10028000410B6A00410B6B00410B89004209F300EE
:10029000004209F100004309F5FF05F84309EEFFAC
:1002A00006074309EBFF061641099B004209A60019
:1002B000004409910C020307410A0E00410A100094
:1002C000410A0800410A0700410A0F01410A0500DE
:1002D000410A06004209B600004209B4010642097B
:1002E000AF00004209AD01084309B8FF06244309E5
:1002F000B1FF06334309AAFF06404209A800634242
:1003000009BB0063410B8E01410B8F02410B910031
:100310004107610041075F00410762004107730028
:100320004406F9FFFFFFFF4106F300410972014453
:10033000096500000000420963006444096E000082
:100340000000410A5900420A5A0000420A5C0000BB
:10035000420A560000410A5800410A5500410A313C
:1003600000420A2A0000410A3200410A3300410AD1
:1003700029004109F8FF4509050000000000410976
:100380001B00410B97024108690041090200410925
:10039000030041097E0041097F00410B9900410B98
:1003A000980152084C1201100100000040000002A8
:1003B000021000010203014C079300000008001D19
:1003C000C3FF03000200480781001DC3FF000002B5
:1003D000004C07740B00000800020000000002003F
:1003E0004D07E0555342530870BA840000000000E6
:1003F000420B9C03E8410A8D00420A9001F4410A35
:100400008A00410B9F01410B9E0100126DD3787F42
:10041000E4F6D8FD1262BEEFFD9006D96003A3DFBB
:10042000FD7F277E11C3EF9DFF50011EE4F0A3DF87
:10043000FCDEFA75810B126D6E020477022EF4E475
:1004400093A3F8E493A34003F68001F208DFF4805D
:1004500029E493A3F85407240CC8C333C4540F44AD
:1004600020C8834004F456800146F6DFE4800B0187
:1004700002040810204080900256E47E019360BC84
:10048000A3FF543F30E509541FFEE493A360010E1F
:10049000CF54C025E060A840B8E493A3FAE493A346
:1004A000F8E493A3C8C582C8CAC583CAF0A3C8C567
:1004B00082C8CAC583CADFE9DEE780BEBB0111F886
:1004C000E58229F582E5833AF583E0C828F0E82241
:1004D0005009C58229F8C58226C622BBFE0DC582F9
:1004E00029F8E2C5822582F2E58222EA2583F58396
:1004F000E99322BB010FF8E58229F582E5833AF5FD
:1005000083E028F0225009C58229F8E58226F622E8
:10051000BBFE09C58229F8E22582F222F8EA25838A
:10052000F583E9932822F8E0FBA3A3E0F925F0F096
:10053000E582158270021583E0FA38F022D083D06C
:1005400082F8E4937012740193700DA3A393F8746E
:100550000193F5828883E4737402936860EFA3A328
:10056000A380DF5553424300008002021F000000B9
:100570004D5653490000000043617264205265618A
:10058000646572000000000056312E300300000048
:10059000700002000000000A000000003A000000A5
:1005A0000000700005000000000A000000002400A8
:1005B00000000000ED0303543FFD8E838F82E09026
:1005C000A621E0F88E838F82E090A621E0FB8E8347
:1005D0008F82E090A621E0FC8E838F82E090A6219E
:1005E000E08A838982C8F0A3EBF0A3ECF0A3E8F0E3
:1005F000A3AA83A982DDC3224D5653494C49434FD8
:100600004E2E494E432E004D562043415244205217
:100610004541444552003230313130393031313288
:10062000333435004D5653494C49434F4E2E494EB5
:10063000432E004D562055534220415544494F000A
:1006400032303131303930313132333435008F820C
:100650008E83ED7004EC600B1CE06455F0A3DDF9B3
:1006600002065522464154313600000000040309B9
:10067000040902870003010080FA09040000000158
:100680000100000924010001280001010C240201DD
:1006900001010002030000000A2406020101010218
:1006A0000200092403030103000200090401000001
:1006B00001020000090401010101020000072401F8
:1006C000010101000B2402010202100144AC0009E7
:1006D000050409C000010000072501010000000910
:1006E000040200010300000009210102000122218F
:1006F000000705830340000109022000010100807A
:10070000FA090400000208065000070581024000B3
:10071000010705020240000109029E000401008059
:10072000FA09040000020806500007058102400093
:100730000107050202400001090401000001010057
:10074000000924010001280001020C24020101011A
:100750000002030000000A24060201010102020057
:10076000092403030103000200090402000001023E
:100770000000090402010101020000072401010137
:1007800001000B2402010202100144AC000905041F
:1007900009C0000100000725010100000009040351
:1007A00000010300000009210102000122210007CD
:1007B000058303400001050C0901A1011500250175
:1007C00009E909EA09B509B609E209B309CD09B78A
:1007D000750195088142C03F3E3A3633302D2A27B5
:1007E0002523211F1D1B1917151311100F0E0D0C9A
:1007F0000B0A0907060402010231F83222FFFFFF4B
:03080000140108D8
:1008070002347105320007D001F4006401F400C816
:10081700320AC350271007D014503C140A1E140084
:1008270000000000000000000002FAFCFDFEFCFAD8
:10083700FA0202FF02FFFDFAFAFAFDFF0202FFFFCA
:100847000002020202FDFAFAFF0200FF00020201A3
:10085700FFFEFAFEFEFEFCFAFE02FE02FFFFFDFAB5
:10086700FAFAFA0202020101FFFEFEFEFDFDFDFAA1
:10087700FAFF010202020202FFFD02020202020265
:10088700FD0202FFFAFF020202020202020000005A
:100897001A001F0024002A0031003A0043004E00CE
:1008A7005B006B007D009300AD00CC00F0011A01E6
:1008B7004C018701CC021D027C02EC0370040B047F
:1008C700C20599069607C0091E0ABA0C9E0ED83FA4
:1008D7003E3A3633302D2A272523211F1D1B191792
:1008E7001514131211100F0E0D0C0B0A0908070629
:1008F700140000000665120007661300015B000084
:100907005859590003090E13192E2C2A2927262472
:1009170023211F1E1C1B9006D7EFF0E01313543F33
:10092700FF12B87512496A9006D7E01313543F2592
:10093700E025E0FF3144900ADD7401F02212C94638
:1009470090060FE0900610F02274FFFFFE12B83FEA
:1009570012497D7F0112B8757F013144E4900ADDA9
:10096700F0029766900B79EFF0A3EDF0900B96E00D
:100977007002FF22900ADFE0900B7BF012CECF12BD
:100987005FE4900ADEE0B40402F1CD3157900B79B1
:10099700E0FF123C60123CF7EF600512976680F5A6
:1009A700126808900B7BE0900ADFF0900B7AE0600A
:1009B700031268147F01227F0112514B9006FEEF4C
:1009C700F0900760E0602A9006FEE070247B017AD1
:1009D70007796E12B5E4EF601812211BEF700D90C6
:1009E7000701E07D06B401027D07B1EFE4900760DF
:1009F700F09006FDE0640670028118A3E012053D41
:100A07000B14060B20070AA00C0A4A120A6A130ADB
:100A1700F2150B80210B41260B41270B5D280B5D3F
:100A2700290B412A0B5D2B0B142C0B202D0AD72FDA
:100A37000A8D300B803C0BEA630A4A650A6A660036
:100A4700000C181257D450047F01F17C9006FEE089
:100A57006465600281181257C6600281187D017FA4
:100A670015801F1218324004E4FFF17C9006FEE067
:100A7700646660028118900ADFE0600281187D01D8
:100A87007F16316B81189006FFE0B40304E4F08011
:100A9700389006FF7403F080309006FFE07004047E
:100AA700F08005E49006FFF09006FFE0B4040B9099
:100AB70007027401F09007328008E4900702F09073
:100AC70007301262A6F01221DF7F011265768118C6
:100AD700900700E004F0E0C3940B4002E4F0125FDB
:100AE700EF1221DF7F0112657C8118900AE0E06038
:100AF700119006FDE0B402047D018002E4FD7F1B36
:100B07008004E4FD7F1A316B1219308118B1FA5055
:100B170002811891E7E4FF800AB1FA500281189127
:100B2700E77F011254A77B017A07796E7FE87E037E
:100B3700FDFC12B5B2900760803AB1FD50028118F2
:100B470091E77F021254A712211BEF60028118B1AF
:100B5700AC9006FD801EB1FD5002811891E77F031E
:100B67001254A712211BEF600281187D077F01B184
:100B7700B09006FD7401F081181245AD90002DE08C
:100B87009F90002CE09E402D126ABE4028900702DD
:100B9700E0702290072EE06E7003A3E06F6016915D
:100BA700E7900A2A1262A6F012372B12211BEF7068
:100BB700047D06B1EF12721FFF900A2A1257CD9FCC
:100BC700EC9E4011D3ED9400EC94004008D12E7FA9
:100BD700E87E038006D12E7F007E0012196512374A
:100BE7002B802E900869E0B40127E4900BBCF090AD
:100BF70006FDE0B40209122843900BBC7401F01201
:100C07004C849008697402F0900BBCE0B40102B107
:100C1700051272F16016900762E0701004F0FB7A1B
:100C270007796312728D9007737401F09006FDE0E7
:100C3700B4020C900762E06006E4F0900773F0904E
:100C47000773E060277B017A07796312B5E4EF60E9
:100C57001B1272F1600F12350FE4FD7F1B12722712
:100C6700122B5D8007E49007731237579006FDE05B
:100C770014601024FE600704700CB1058008122868
:100C870043800312282D9006F3E0600D126A35EFBA
:100C97006007E49006F3F080279006F3E0702112D6
:100CA7006A35EF701B9006F304F09006FDE0B4027E
:100CB7000F12221EEF2401FFE43E124FBE1227E15E
:100CC70012221E9006F912245160141272981229EA
:100CD70082400C12221E9006F91285701221DF2223
:100CE7001221D112A68F9003F312857C0000000019
:100CF700B1F3E4FDFFF1D17F647E00028AF812218F
:100D0700D112DB79EF600612CEB0EF70129006FFBA
:100D1700E0640370237F0A12729A122982401991A4
:100D2700E79006FFE064016005E4FF12539D12217E
:100D37001BEF7004B1AC80427B017A07796912B569
:100D4700E4EF6018900AE0E0701290075FE0700C23
:100D57001217F21239F390075F7401F0122892EF1D
:100D6700701A91E7900701E0FF64026003EF7004D7
:100D77007D0680027D077F01B1B0807012286D600B
:100D87000B24FE60181460152404701812CECF12BD
:100D97005FE49006FD7403F0127322800412287436
:100DA700F0126582227D067F01900B29ED127203F6
:100DB700C3940840037F0022900B29E0FFA312850C
:100DC700DD90000174011204BCFD1280F62DFD7C3C
:100DD70000ED5407FD900B2A1272CCE92DF9EC3A7D
:100DE700FAEF12813C7F01227F01B1B09006FD74BA
:100DF70001F0221231EED390002DE0940190002CE7
:100E0700E0940022E054FDF0E054DFF0E054FBF002
:100E1700E054BFF0E04401F0E04410F0E4FDFFD1FE
:100E2700B4E4FD7F01D1B47B017A097916221266F9
:100E37009F600D14602924FD24FD50482408706725
:100E47001237C690091D7008D10B7FE87E038054C6
:100E57001271C9D1AF7D01D12A7F007E0080451272
:100E670037C6701590091D1272D754BFF07D01E483
:100E7700FFD12C7FE87E038009126706D12C7F0003
:100E87007E0080201237C6701290091D126715F078
:100E9700E4FDFFD12C7FE87E038009126706D12C81
:100EA7007F007E0012196522F07D01E4FF900B950B
:100EB700EDF0900B94EFF07010A3E07D017F0160DF
:100EC7000512B988800312B946900B94E0B4010E5D
:100ED700A3E07D207F0A600302B98812B946221277
:100EE70037336005EF6402704D1272F1700B900991
:100EF7001DD10B7FF47E01803A9006FDE0FF64016F
:100F07006005EF640370111271C6F012670F7D015F
:100F1700D12A7F007E00801B9006FDE060046406F6
:100F270070141271C6D1AF7D017F01D1B4D12E7F6C
:100F3700007E0012196522900ADEE0640370351204
:100F470037C6700F90091DF01271C9D1227FF47E48
:100F570001801EE490091DF0E054FDF0E054DF121B
:100F670072D754BF126715F07D01E4D1257F007E4B
:100F77000012196522EFB4010A1257D4500DE0048C
:100F8700F080081218324003E014F0900ADFE0B452
:100F970020137D017F15127341B40C091200F9EF7C
:100FA70070031217F2900ADFE070137D017F1612AB
:100FB7007341B40C091200F9EF70031217F21227EC
:100FC700F77F010200097D017F01900BA4EFF0ED8F
:100FD70064017006122F9E12B988900BA4E0B40129
:100FE7001C12302B900ADEE0B40305E4FF12101345
:100FF700900ADEE0B40C0EE4FF11138008E4FDFC58
:10100700FFFE123905900AA07401F022900BAAEF97
:10101700F01230219009BFF0900BAAE0F0FF900981
:10102700C0E0B50706D1D070022151900BAAE0703D
:101037001671D2600271EFD1C96002918A71CB70CB
:1010470002214131522141900BAAE0FF5409603639
:10105700D1C96007EF54247002918A71CB601FF1E8
:10106700C3701BEF54C070169009C0E0541260049F
:101077003152800A9009C0E054C06002B15871D261
:10108700640960029135F1C3602D71D26007EF5496
:1010970009700271EFD1C9600A900BAAE05424705D
:1010A70002918A71CB600BE05412FFD1D06F6002BE
:1010B7003152D1D0FF5105900BAAE0FF5424601C98
:1010C70071D26007EF5409700271EF71CB600BF1B9
:1010D700C37007EF54C07002315291D2900BAAE04F
:1010E700FF54C0605571D26007EF5409700271EF69
:1010F700D1C9600A900BAAE054247002918A71CB7F
:101107006006D1D07002315271CBFFB412047FC098
:10111700800EEFB402047F408006EFB410027F8098
:10112700EFD39400400B900BAAE054C06F6002B15C
:1011370058900BAAE054C0FFB1E9900BAAE0FF90CA
:1011470009C0E06F6002EFF0F16A227F01122ABA4C
:10115700F1DF5004AF068000900BA8EFF0909C41A0
:10116700E09009CAF0909C42E09009CDF0900BA85E
:10117700E0C394405013129766900BA81273019125
:1011870003900BA8E004F080E4917D909C4FE0541D
:101197009F31E431D1909C4FE054E731E4909C4C6F
:1011A700E054FCF07F147E0031E912001A71C2EF9F
:1011B700F47002EEF4601271C2EFF47003EE64FE95
:1011C7006007909C48E04401F022909C49E054ED70
:1011D700F07F027E0031E9909C4FE054F9F07F02E6
:1011E7007E00900B82EEF0A3EFF0900B8212556514
:1011F70045F060091297669103910380ED22900BE9
:1012070064EFF0909C4E71E7909C4DE0543F900B3B
:1012170066F1EC7002EEF4601271C2EFF47003EE47
:1012270064FE6007909C48E054FEF0909C4CE044BC
:1012370003F0909C41E4F0A3F0909C4FE0441831F8
:10124700E4909C4FE0440131E4909C4FE044063128
:10125700E4909C49E0441231E47B017A0979C37F29
:10126700107E271219659009BDE060026134909CD9
:101277004BE020E058909C4BE030E002612EF1A259
:101287006002612E71C2EFF47002EEF4600B71C25E
:10129700EFF47003EE64FE7022900B65E01471D9D1
:1012A700909C4EE07023ED643F607C900B6574402A
:1012B700F0A3E025E0F04401F0800E900B65E01408
:1012C700909C4EF071E7E0605EF1BD80A8909C4B6A
:1012D700E030E053909C4BE030E04CF1A270487155
:1012E700C2EFF47002EEF4600B71C2EFF47003EE1C
:1012F70064FE701F900B65E00471D9909C4EE0640A
:101307003F7020ED6021900B6574FFF0A3E0C313DD
:10131700F08010900B65E004909C4EF071E7E0645C
:101327003F6004F1BD80AD9009BD7401F031D190EB
:101337009C4FE054FE31E4123146909C4FE0440646
:1013470031E4909C49E0441231E4909C4FE04460C2
:1013570031E41200129009BFE07003F1B0F09184FC
:10136700F1D25004AF068000900B66EFF0900B654A
:10137700743FF0900B66E0FF900B65E0D39F402A27
:10138700127339FF900B65E0FEC39F4005909C41A7
:10139700EEF01273319F4008900B65E0909C42F08D
:1013A7009103900B65E014F080C99009CAE0909C06
:1013B70041F09009CDE0909C42F02290966BE0FEC0
:1013C700A3E0FF22909C49E0541222909C49E054EC
:1013D7000922909C4EF0900B66E0FD909C4DF0A387
:1013E700E0543F900B65F022123138917D909C4874
:1013F700E04422F19A54F6F1874411F012B8A0EFB5
:10140700FD7C007E017F90128182EF2401FFE43E84
:10141700FE909904E020E00BEF7802CEC313CE13C1
:10142700D8F9FFEF1FAC0670011E4C70F622909C96
:10143700437403F0A3F19A4409F18754EEF18754FA
:10144700DDF0910371C2EFF47002EEF4600871C22F
:10145700BEFE0ABFFF07909C4374028005909C4321
:101467007401F0A3F0F1CB7004F1B09183127329EA
:101477007F507E0021E9909C48E04444F07F0A7E3B
:101487000021E9F1DF5004AF068000900BA7EFF0D1
:10149700909C41E09009C1F0909C42E09009C2F015
:1014A700900BA7E0C394405013129766900BA712B6
:1014B7007301F1B7900BA7E004F080E4917D909C55
:1014C70049E054DBF07F037E0021E9123146F19BAE
:1014D7004424F09103909C47E04403F07FF47E019D
:1014E70031E9909C47E054FCF0F1CB7003F1B0F088
:1014F7009184F1DF5004AF068000900B84EFF0A3D6
:10150700743FF0900B84E0FFA3E0D39F4032129723
:10151700669009C1E0FF900B85E0FEC39F400590F0
:101527009C41EEF09009C2E0FFEEC39F4008900B8C
:1015370085E0909C42F09103900B85E014F080C306
:101547009009C1E0909C41F09009C2E0909C42F064
:1015570022F1D25004AF068000900BA9EFF0900B58
:10156700A9E0D3943F502B129766909C49E030E155
:1015770008900BA9E0909C41F0909C49E030E4086A
:10158700900BA9E0909C42F031E5900BA9E004F0A4
:1015970080CC909C49E030E107909C48E04404F0FF
:1015A700909C49E030E407909C48E04440F09184E7
:1015B700909C49E030E103124136909C49E030E4C9
:1015C7000312412E31E5909C49E030E104E054FDDF
:1015D700F0909C49E030E404E054EFF07F027E0095
:1015E70021E9900B67EFF030E6031240D4900B67C8
:1015F700E0FF30E7031240CCEF30E606909C4174E1
:101607003FF0900B67E030E706909C42743FF09004
:101617000B67E0FF30E6031240C4EF30E7031240E8
:10162700BC31E5900B67E0FF30E6031240B4EF30C2
:10163700E7031240AC31E59009BFE06444601A90BB
:101647000B67E0FF30E607909C48E054FBF0EF3073
:10165700E707909C48E054BFF09184F1D25004AF63
:10166700068000900B68EFF0A3743FF0900B68E0E2
:10167700FFA3E0D39F4038127339FF900B69E0FE58
:10168700C39F400C900B67E030E605909C41EEF05D
:101697001273319F400F900B67E030E708900B699A
:1016A700E0909C42F031E5900B69E014F080BD902A
:1016B7000B67E0FF30E6041240A4F0EF30E7027159
:1016C700B922909C49E0542422900BAAE05412229C
:1016D700900BA6EFF0F18F44809183909C45E054E6
:1016E700FA9183909C46E0547F9183909C46E05406
:1016F700DF9183909C46E054EFF0900BA6E0FF1239
:101707003864121965909C4BE020E305F1A260F55F
:101717002222AE07122FF6909C46E04410F0AF0647
:10172700123864121965909C4BE020E204F1A26024
:10173700F5F18F4480F07F01F1914420F0910390FF
:101747009C45E04405F09103909C46E0547FF0F1FE
:10175700B7909C49E054BFF09103E49009CBF09017
:1017670009C0F09009BEE070161272A1C083C08252
:10177700E0FFA3E054FED082D083CFF0A3EFF022A6
:10178700F09103909C48E0227F647E0031E9909CB1
:1017970046E022F09103909C49E0221297667B0174
:1017A7007A0979C312B5E4EF22909C48E054BB2232
:1017B7007F017E0021E97F057E0021E9900BAAE0E9
:1017C700FF54122291039009BFE0229009CDE0FF58
:1017D7009009CAE0FEC39F229009C2E0FF9009C1A9
:1017E700E0FEC39F22F071C2EFF422900ADFE060AF
:1017F70039900AA0E064017019900ADEE0B403088A
:101807007FC01210131257AC900ADEE0B40C03121B
:10181700681D1230921132400C900A0FE0700612C8
:101827002F9E12B946E4900AA0F022900ADFE0D377
:101837009400223125EF6016900980E0701004F0C3
:10184700FB7A09798112728D90097F7401F0312535
:10185700EF701B900980E0601511324011900A0F5C
:10186700E07004900980F0315BE490097FF0900903
:1018770080E06008122F9E12B98880031217F27B4E
:10188700017A09798112B5E4EF602E90097FE06053
:10189700283125EF60151268E512B98812350FE473
:1018A700FD7F1B127227122B5D800EE490097FF0DB
:1018B7007B017A09798112375E7B017A0979871270
:1018C700B5E47F0112514B900BC7EFF024ED602C6C
:1018D70024AE6007146025245470421257D4500573
:1018E7007F01120F7C900BC7E0646570301257C6FA
:1018F700702B7D017F1531537023801E11324005F7
:10190700E4FF120F7C900BC7E0B46611900ADFE08A
:10191700700B7D017F16315370031217F222E4FF1B
:10192700126A1A30E7027F0022900AE0E06007E4BB
:10193700F01217F2800B900AE07401F0FDFF120F0E
:10194700D190091BE0B40103120E352212096B1264
:1019570000F9EF227B017A0979817F007E007D0003
:101967007C0002B5B21235BD12B5E4EF7002FF225A
:101977001235BD7F0A31631264D09009F9EFF0A3E5
:10198700E014603C14605A147002411F2403600283
:1019970041549009F9E0FEF4701590961CE054DF6D
:1019A700F0E054BF12731AF0E054FDF07F0022906C
:1019B70009F8EEF0515C7F1431639009FA7401F075
:1019C700F1D96F60024154515C12B5E4EF700241E6
:1019D70059515C7F587E0231659009FA7402F08094
:1019E70071F1D9FE6F600C1272C124F7F582E434ED
:1019F700088054515C12B5E4EF6057515C7FC831E1
:101A0700639009FA7403F09009F8E025E025E024D3
:101A1700F8F582E43408802FF1D9FE6F600C12725A
:101A2700C124FAF582E43408801D515C12B5E4EF55
:101A37006020515C7FC831639009F8E025E025E01C
:101A470024F9F582E43408F583E493FF22E490094E
:101A5700FAF07F00227B017A0A790022D080D080B9
:101A67007B017A0A791D9006A11272827B017A0A9C
:101A770079227F64316390057AE06403703D123AFE
:101A8700FE900A27EFF030E6147F1671E54480FDDB
:101A9700F1C87F1671E5549FFD7F16807890057B0E
:101AA700E0600C125286EF20E00261697F0122900C
:101AB7000A27E020E00261697F012290057AE0644D
:101AC7000470319187900A27EFF030E50D71E344F8
:101AD7008071DB54DEFD7F12803B90057BE0600A5E
:101AE700125286EF30E07B7F0122900A27E020E048
:101AF700717F012290057AE060046402702CB1BC0A
:101B0700C0069187D0E04F900A27F030E21271E3C8
:101B170054D9FD7F127EA3128F8012935E7F00221D
:101B2700900A27E020E13B7F012290057AE06401DB
:101B3700702D7F1371E57F00FEC007C00671E3FDBE
:101B4700D0E0FED0E04DFF900A27EEF0A3EFF03093
:101B5700E2037F0022900A28E030E0067F01227F1F
:101B670000227F6071E5645D60037F00227B017A5C
:101B77000A791D12B5E4EF7006129758EF70361206
:101B87003AFE900A27EFF054DF4401FDF1C89005B3
:101B97007AE064037014A3E070107F32FE129001A4
:101BA7007F1671E530E0037F012271E354D6B10B54
:101BB700B10A7F00221297667B017A0A792212B551
:101BC700E4EF7002417D7F0112AFF6EF640160021E
:101BD700417DFF22FD7F127EA3128F807F127EA39D
:101BE700128C84EF227F8171F27F02900BCAEFF093
:101BF700547FF1D1900BCAE030E73871E354DF71BD
:101C0700DB4440B10BB1BCC0069187D0E04FB10BAC
:101C17007F1371E57F00FEC007C0069187D0E0FE05
:101C2700D0E0EE4420FDF1C17D407F10123ABB7F2A
:101C37001180487F1671E554BFFDF1C87F1671E525
:101C47004480FDF1C8B1BCC0069187D0E04FB10B0D
:101C57007F1371E57F00FEC007C0069187D0E0FEC5
:101C6700D0E0EE54DFFDF1C17D407F14123ABB1284
:101C77003FD27F1671E54410FD7F167EA3028F8049
:101C87007F127EA3028C84900BC9EFF0540FF1D121
:101C9700900BC9E07025B1BCC0069187D0E04FB169
:101CA7000B7F1371E57F00FEC007C0069187D0E068
:101CB700FED0E0EE4401FD7F138042900BC9E03077
:101CC700E74071E34408B10BB1BCC0069187D0E08F
:101CD7004F4410B10B7F1371E57F00FEC007C006AC
:101CE70071E3FDD0E0FED0E04D4410EEFDF1C112EE
:101CF700731371E354CF71DB4440FD7F127EA3124F
:101D07008F8022E4FD7F127EA3028F80126D51EF38
:101D170030E210E4FF1234FC7F0471F27F8171F22C
:101D2700123AC37B017A0779F87D08125702EF70E0
:101D370002A1BB9007F8E020E7119007FEE0600BD7
:101D47007B017A0879617D081256A39007F8E05461
:101D570060704AA3E012053D1D7E001DBB011D807A
:101D6700031D86051D90061D93081D95091D9E0AD6
:101D77001DBB0B00001DA080209007FCE0801B907E
:101D870007FAE0547FFF0234FC026056801B71ECB7
:101D97007F8371F2023B058010E4FF818E9007F884
:101DA700E0B4A10DA3E0B4FE087D01E4FFFE026CE0
:101DB700FC126BC0227F137EA3128C847E0022B19B
:101DC700137B017A0779A07D1F7C001252B5EF645F
:101DD7001F4E6002E11A78A07C077D017BFF7A0520
:101DE70079637E007F041287A2EF6002E11A9007F1
:101DF700A4E09007E4F09007A5E09007E5F09007CE
:101E0700A6E09007E6F09007A7E09007E7F09007B5
:101E1700AFE012053D1E87001EBC031E41121E9B2C
:101E27001A1EE31B1EA01E1E57231E5C251E6128BB
:101E37001E662A1EDF2F00001EEF7BFF7A057968DA
:101E47007D247C00F11B1272B6F11B90079FC1EA3B
:101E5700124B47C1F3124BCFC1F31254FD800F123F
:101E670054AF7B017A0779F07FD07E073165900701
:101E77009F7402F07B017A07798E7F0A3163806C49
:101E8700124B28EF70069007EDF0805C9007EDE0AD
:101E970060438054124B7080539007B3E0700D126B
:101EA7004B28EF6007E49007EEF0802D9007EE7463
:101EB70001F0E48024124B28EF60069007EDE06004
:101EC700087BFF7A05799080067BFF7A0579A27DEA
:101ED700127C00F11BE48001E4FF800EE4FFF1E3D4
:101EE7009007ED7401F080047F01F1E37B017A072D
:101EF700798E12B5E4EF600A90079FE0B40203748D
:101F070001F09007807401F0FB7A0779897FB07E32
:101F170004316522900AC11285E6900AC4ECF0A349
:101F2700EDF07D01F1D2C3900AC4E09402506290B3
:101F37000AC412629F9440EE94004006A37440F0D6
:101F47008005900AC6EFF0900AC6E0FDFFC3900A2D
:101F5700C5E09FF0900AC4E09400F0900AC1128592
:101F6700DD7F2412730BB10C7D207F13123ABB7FE8
:101F7700011251F8EF6040B10AF1BF900AC6E0FFC5
:101F8700900AC21257C0900AC4E07002A3E0709F83
:101F970022B10A7DB4F1C1900AC1127276900AC1CA
:101FA70012726A900AC41272AC900AC41272E87D67
:101FB7001F12536B12528D227D207F137EA3028F37
:101FC700807F167EA3028F80F0E4FD7F0E7EA30242
:101FD7008F809009F9E0FF9009F8E0229007ECEF75
:101FE700F01272B6E11B1237D7600D24F7600E248A
:101FF7000A70171239F380081257AC80031268224F
:102007007B017A0679DD7D01111222900B31128551
:10201700E6900B34EDF012723171744002E4F07106
:102027006C4002E4F09006DB745AF0900ADEE0FFA1
:1020370060049006DCF0900ADFE09006DDF0F1ED39
:102047004002E4F0900ADEE0FBB40116900702E0DC
:102057009006DEF0900A59E09006E331D89006DF4B
:102067008018EBB40217900702E09006E8F0900A98
:1020770059E09006ED31D89006E912857051249009
:1020870006F2EFF0900B31F1CF6033900B34E06044
:102097002D7D5AE4FF12BA06900B311285DDC3E994
:1020A70094DBFF900B311285DD900B34E0900AD75B
:1020B700F012485F9006F2E0FD7F1712BA0622C3BE
:1020C70074E8310FD39401400FE49006E8F07B01E8
:1020D7007A0679E87D011112C374DE310FD39401BA
:1020E700400FE49006DEF07B017A0679DE7D011170
:1020F70012C374DD310F900ADFE06F600A7B017A4B
:102107000679DD7D0111122294DBFF12BFF4900BDB
:10211700BDEFF0227B007A007900900B6D1285E607
:10212700E4900760F0900702E0701612721FFFD369
:1021370090072FE09F90072EE09E4005E4F0A30450
:10214700F0900B6D1285DD9005131285E690072E32
:10215700E0FFA3E0900516CFF0A3EFF031D1129C7A
:102167006BEF7007900B90740580267B017A0779D7
:102177003F7D0B512C900A59EFF07B017A0679DBF2
:102187007D18111231D112CEE6EF7009900B9074C1
:1021970007F07F00229003F312857C000000009077
:1021A7000768E0601BE4F071C89003EF1284D390D6
:1021B70003F39151400A9003F312857C000000005D
:1021C700122AC2EF7F017001FF227B017A07793063
:1021D70022F090074B0284D3900ADEE0FBB401079C
:1021E700511E9006E48009EBB40208511E9006EEDA
:1021F700128570127231900ADEE0B401087B017A11
:102207000679E4800D900ADEE0B4020A7B017A06C3
:1022170079EE7D041112229003F30284D37B017AB5
:102227000679DB7D17900B351285E6900B38EDF0BC
:10223700E4FE900B38E0FD14F0ED6025900B3512AD
:1022470049151280F66EFEE4FFEFC3940850E3EEE3
:1022570030E007C313648CFE8004EEC313FE0F80C7
:10226700E8AF06225124AB079006D8E020E05D9046
:1022770006DBE0645A70559006F2E06B704E9006EC
:10228700D8F09006DCE0900ADE71AA94204003742F
:1022970019F071744002E4F0716C4002E4F071B718
:1022A700900ADEE0FAB401097191717C9006E4802E
:1022B7000BEAB4020E7185717C9006EEF1DEE490B4
:1022C7000702F0F1ED5002616BE4F0227E007F1A05
:1022D7007D007B017A0679D91287C67A0679DB7B7E
:1022E70001900ADC7418F0E4FF1248BC5124AB07D4
:1022F7009006DBE0B45A079006F2E06F601E900A82
:10230700557401F0E49006D9F0A3F0A3745AF0A332
:102317007401F0719DF0A37419F08046900A55740A
:1023270001F0F1E7900ADEEF71AA942040037419D7
:10233700F071744002E4F0716C4002E4F0719DE0CA
:10234700FBB4010C9006DEE0900702F07191800E5D
:10235700EBB4020C9006E8E0900702F07185717CFF
:1023670071B711C6229006DAE0C39405229006D908
:10237700E0C3940B221284D390074B02857090061A
:10238700EDE0900A59F09006E9229006E3E0900A02
:1023970059F09006DF22E49006DEF09006E8F09010
:1023A7000ADE22F09006DDE0543F900ADFF0D322E8
:1023B7009006D9E0900700F09006DAE09006FFF06B
:1023C70022900ADEE0FBB401059006E48007EBB437
:1023D70002059006EEF1DE80D7900A58E070509023
:1023E7000006E064017020129FB8129FDF9006DF9D
:1023F7009151703BF1C27D0B512C9006E3E06F7059
:102407002E900A5804F022900006E0640270201211
:102417009FB8129FDF9006E991517013F1C27D0BAF
:10242700512C9006EDE0B50706900A587401F0228A
:10243700128358AC00AD01AE02AF039009D81285E4
:10244700709009D81284D39009D41284DFC3028410
:102457000E9009CFEDF0A31285E69009CEEFF0902C
:10246700053EE0FEEFD39E50139009CEE0C39401E2
:10247700400A900545F1CF6003EE70037F0022907C
:1024870009CEE0149009D3F09009CFE0FF900545FD
:102497001285DD9009D3F170EF12814E9009D012A9
:1024A70085DD12BF3FF1BC9009CFE064036002A154
:1024B700D5A3F16012810FD39406400312BE90F1A9
:1024C700579009D8128570D16E78009009D8128478
:1024D700D3128358EF2402FFE43E124FBEE47B077A
:1024E700FAF9F8128358AF039009DCEFF09009D09E
:1024F700F16012810FFEC39F4014EEFF9009DCE0EC
:10250700FDEF9DF1D6FDD16EF81282CD802890099E
:10251700D0F16012810FFF9009DCE0C39FF1D6FD77
:10252700D16EF81282CDC374809FFF743A9EFE74F9
:10253700099DFDE49CFCC006C007D175900001D041
:1025470007D0061284AFD175D18CC003C002C00179
:102557001284459009D8123DA6D001D002D00312AB
:102567008495D168127242F1BC9009D8D16B78007A
:1025770091379009D3E075F006402BD17CD18CC000
:1025870003C002C001128445C004C005C006C007CD
:102597001272DED19DF1C8AB07D007D006D005D0A7
:1025A700041282B2807DD17CD18CC003C002C001ED
:1025B700128445C004C005C006C007D194F1C8AB5A
:1025C70007D007D006D005D0041282BF80559009E6
:1025D700CFE064027058D168127242F1BCD16E78B4
:1025E70000F157913740071272DED19D8012D194C6
:1025F700C374809FFF74519EFE74019DFDE49CFC93
:10260700C006C007D175900001D007D0061284AF6D
:10261700D175D18CC003C002C00112844590B106A8
:10262700123DA6D001D002D00312849580259009CF
:10263700CFE0B4011EF1579009D81285709009D4E4
:102647001284D3C006C007D175900001D007D00609
:102657001284AF9009CEE0FF12C1CB12BA257F01D9
:10266700229009D41284D37B807A51790122900970
:10267700D3E075F006A4FF9005451285DDE92FF933
:10268700EA35F0FA22E92401F9E43AFA229009D46A
:102697001284DF9009D81284D30282BF900B1012E4
:1026A700857C00000000E4900B0FF090053EE0FFF2
:1026B700900B0FE0FEC39F4002E154EED1799000EA
:1026C7000512810F6401707DF16712810FFBB4025F
:1026D7000FF157EF2480FFEE3451FEED34018011E6
:1026E700EBB40313F157EF2480FFEE343AFEED34D9
:1026F70009FDE43CFC800AF16712810FB40108F17F
:1027070057900B10128570900B0FD1789000011223
:102717008465900B1091516025900B0FD178127240
:102727005E124C02C312840E6014900B0FD1781204
:10273700725EEF24FE124C05C312840E7007900BD5
:102747000FE004FF22900B0FE004F0C1B27F0022DC
:1027570090B1060284D390069D1285DD9000042275
:102767009005451285DD900B0FE075F006A4F58204
:1027770085F08322A2AFE433900BAEF0C2AFF15DD8
:1027870012810F701D128445123EC2900611D19D11
:10279700E4FBFAF9F8C31283F85007F15D740112EC
:1027A700814E900BAEE024FF92AFD080D080F15DD8
:1027B70012810FFF229009D40285709003D80285F9
:1027C700DDA804A905AA06221285DDE94A4B22FFE6
:1027D700E49400FEE4FC221284D39003F302857094
:1027E7009006DCE0FF22900702E0D3648094812208
:1027F700121FED900ADFE07010900AA0E0700A90B7
:102807000AE0F07D01FF120FD1900AA0E0B40109A0
:102817001218324004A37401F0900AE0E0B40105F5
:10282700E4F01217F222116D600304700E12211BDF
:10283700EF70059006FD04F01227F722116D600B6B
:1028470024FE601B1460182404701A1227F712CE96
:10285700B8117C11871219659006FD740280021168
:1028670074F0126582229006FEE024FE22120CE725
:10287700E4900AE0229006F912857CFFFFFFFF2211
:102887007B017A0679F47F107E27229006FDE0B45B
:1028970002091221D112DB79EF60037F012212BDF9
:1028A70013EF70117B017A0679F412B5E4EF7F011B
:1028B700603D7F002211871219659003E7E06401EC
:1028C700702B1271E14E70129006FDF0900B90E0A4
:1028D700640960037408F07F0022900403E0FEA3FC
:1028E700E0FF90040EE0FCA3E0FD12CDA07F0122E3
:1028F70012BF3F900B5D128570313A12B5E4EF704D
:102907001A126A74FF6401600EEF64026009EF64D3
:10291700066004EFB408E2119280DE900B5D12842A
:10292700D331377F2C7E0112196512A6C102BA2551
:1029370012B7087B017A0B791422900B7F1285E678
:102947007FFF7EB07DB77CE190B1063182401931BF
:102957003A12B5E4EF700512976680F312475131CA
:10296700377F2C7E01121965900B7F1285DD02AF30
:10297700D2E47F487E0DFDFC90096E1284DFD302FE
:10298700840E900B92EFF0E4A3F0D3900964E094E7
:1029970000900963E0940040259009651284DFC028
:1029A70000C001C002C003124177E4FCFDD003D090
:1029B70002D001D0001272F890096312422F9009D9
:1029C70063E07002A3E0600241B77B64FAF9F89014
:1029D70009651284D312835890096E128570900985
:1029E70063E4F0A37464F0A312857C00000000E4A4
:1029F7007F107E0E317D400890095D7402F08019CA
:102A0700E47FAC317B400890095D7404F0800A31A3
:102A170078400690095D7405F031784015E47FAC85
:102A27007E0DFDFC90096E122451500690095D74CD
:102A370005F0900B92E0B4010A31785006900B93A1
:102A47007401F0900B92E0700A31795006900B9365
:102A57007401F0900B93E06401705590095D740662
:102A6700F0120019129766900972E0602EE4F07B6D
:102A7700017A0979697F107E27FDFC12B5B27D01C5
:102A87007F0F12096B1237DE900ADEE0640C7020AC
:102A97001200F9EF701A1217F280157B017A097983
:102AA7006912B5E4EF6009E4FD7F0F127227715DCB
:102AB700020019900BA5EFF07F012212C7F79003D0
:102AC700E7E0FF123BD59003E9E0FEA3E0FF123EEB
:102AD700D7125FEFE490075FF012CEB812221E12F2
:102AE700B7CA1271E14E700E900B90E06409600353
:102AF7007408F07F00227155FF12CD927155FF9037
:102B07000404E02FFF900403E03EFE900405E0FC80
:102B1700A3E0FDC390040FE09DFD90040EE09CFC34
:102B270012CDA0125FD911871219651272983182DE
:102B37004005E47FC88002E4FFFEFDFC7B017A07C5
:102B4700796912B5B29006FD7402F07F01229004F4
:102B570005E0FEA3E022F1D5127322D310AF01C323
:102B6700C0D012BAA280FE90988AE04430F09098C4
:102B77008CE054FAF09113909804E0B4170890B0E1
:102B8700077403F08009907FC0E49390B007F0903A
:102B9700B000E41217EC4E6007911390B008911A39
:102BA7007D027F0712B9887D027F0512B98890B030
:102BB70009E020E156911390B009911AF50AF50B37
:102BC700050BE50B7002050A640A450A70F2E4F585
:102BD7000AF50B90B004E030E01F90B004E030E15C
:102BE700028011050BE50B7002050AD39440E50A34
:102BF700941F40DFE4FF02BA9A90B004E020E0DAC5
:102C0700E020E1D6E4FF12BA9A71622290B0007414
:102C1700FFF022E04402F090B000E4F022900BCEE7
:102C2700EFF012B957900BCEE0FF70099113914A5C
:102C3700E04404800BEFB401099113914AE0440882
:102C4700911D2290B009E054F3F0229113EF700F19
:102C570090B204F090B203919090B205F08024EF07
:102C6700B4010E90B204E4F0A3919090B203F08007
:102C770012EFB4020E90B203E4F090B20591909077
:102C8700B204F090B000E4F022F0ED90000E932231
:102C9700900ADEE0900BB3F0E4FF12514B90099AD3
:102CA700EFF064576004E0B44202715D124C13EF19
:102CB700602D900ADEE0FF64076024EF6408601F60
:102CC700900006E0B4030A900ADEE0B40D03120D8B
:102CD700F3120FCD7F967E00128AF87F02B18C1215
:102CE7004FC6EF60047F03B18C124FE8EF60047F9B
:102CF70007B18CB1A512B5E4EF6025B1A57F6412C9
:102D07001963125046EF6007F19E12B9888011903F
:102D17000A0FE0700B900AA0E07005F19E12B94609
:102D27001237D7601F24FD24FD50232407703690E7
:102D370006D2E06007B1C6EF702B800E124AECEFA7
:102D470070238006124C35EF701B7F018015120827
:102D570007EF70117F907E01128AF8124FE8EF702B
:102D6700047F02D1E290099AE0B41418900006E0BB
:102D7700B4030A900ADEE0B40D03120DF3900ADEE5
:102D8700E0FFD12222900ADEE0900BB2F0B1ACEF67
:102D9700700B900BB2D16A70047F01D122227B01A4
:102DA7007A0979A122EF24FD600C24FC600E24FB34
:102DB7006007240A800902378C0237780249E9E460
:102DC700900BB0F0900A0EE0B40109120FCD900BF2
:102DD700B07401F0124AECEF7006900A0EF0FF2271
:102DE700120950120DF312001D900BB0E070031280
:102DF7000FCD12B24FEF7002FF227F0212319B7F7D
:102E070009121013E4FD7F0D12096B7F021258DBC4
:102E1700EF7002FF221261D47F0122E4900B8BF046
:102E2700900B8BE0FEC39404501174912EF17BE05C
:102E37006F6008900B8BE004F080E5E4900B8AF05C
:102E4700129766900B8BF1734002E4F0900B8BE0C6
:102E57002491F17BD16A700A900B8AF17340E112D9
:102E67004AB522E0FFB1ACEF227B017A0679F41272
:102E77001961B1A512196190963DE054FCF012B6A4
:102E87005B124B211219617B017A0979957F2C7EA0
:102E9700011219657B017A09799512B5E4EF70087B
:102EA700124C13124FC680EC125046124AE5900A94
:102EB70008E0B40108900ADE7403F08012900A0E4D
:102EC700E0900ADEB401057402F08003740CF09000
:102ED7000ADED16A70047F0CD1E222900BB1EFF0C9
:102EE700B1ACEF7007900BB1E0FFD12222716E7485
:102EF700FFFFFE12B83F12B8CC129766E4900B980A
:102F0700F012497D1262C1D2AF12636D1235C4123D
:102F17006374126383E4FDFF9152F19E12B988E452
:102F2700FF1264D41241E9E4FF12387112226B12C6
:102F3700475A124F25D170129766F1831235D991EE
:102F47009712669F600F14601624FC601724FB60BD
:102F570009240B70121209BE800D12183A8008124C
:102F6700519C80031200161265A580CBE004F0E0A7
:102F7700C3940422F582E43409F58322F19712B54C
:102F8700E4EF600BF1977F32121963E4FF31892276
:102F97007B017A09795E227D107F2012B9467D1068
:102FA7007F2112B9887D107F1D12B9887D107F1E81
:102FB70012B9467D107F1C22900B6CE0700F900BAE
:102FC70089E07009F1D5F19E12B9887162229009E2
:102FD7001BE0B4010312671E126556F0229005BF6D
:102FE700E0B40508A3E0B4AC037F01227F002212FE
:102FF700316E30E0027F019009BEEFF0909901C079
:1030070083C082E0FFA3E04401D082D083CFF0A346
:10301700EFF0909C06E04480F022122FF6909C4837
:10302700E05444221121FFBF4402805C1213D26096
:103037000231381216C97005E0541260401216C9E1
:10304700600B1217DF5004AF06800B80091217D2EE
:103057005004AF068000900BABEFF0900BABE0C3D2
:10306700943F5017129766900BABE004F0E0543F83
:10307700909C41F0A3F012140380E03146112464C0
:10308700446005E04444313E02176A112170022171
:103097002D31461124600BE054BBF07F1E7E0012D9
:1030A70011E91213D260031273291216C97005E0D1
:1030B700541260721216C960111217DF5004AF065E
:1030C70080003130F09009C2800F1217D25004AF40
:1030D7000680003130F09009CDE0900B1FF0900B87
:1030E70020743FF0900B1DE0FF900B20E0C39F4042
:1030F70035129766900B20E014F0900B1EE0FF90BE
:103107000B20E0FEC39F4007EE543F909C41F09098
:103117000B1FE0FFEEC39F4008A3E0543F909C4283
:10312700F012140380BE02176A900B1DEFF0A3EE96
:1031370022909C01E04403F07F507E000211E99049
:103147009C41743FF0A3F022316E30E0027F019082
:103157000BD0EFF0909901C083C082E0FFA3E04459
:1031670001D082D0830114909901A3E07F0022123D
:103177000FCD112BE4FF1210131268E512B9881254
:1031870068F112B94612693512654E12B9461269CD
:103197009402B988900BAFEFF0F1D7601224FD24A9
:1031A700FD502524FD6015240A7022F1D1801E9060
:1031B7000BAFE0640360161257DC8011900BAFE091
:1031C700640C60093176800591F51207F8900BAF12
:1031D700E0900ADEF0900B99F0120FCDE4900AE030
:1031E700F012637412194890091BE0B40102F1ED63
:1031F70022510890966AE4F0900AC0F090079FF079
:1032070022D310AF01C3C0D0909644E054FCF0D055
:10321700D092AF229096457403F071FFEF6018903B
:1032270006A0E064076010900A90740BF0A374B8CE
:10323700F09006A07407F09006A0E0FE702B71A234
:10324700EF600C71E1EF7007900A8BF0A3F0227129
:10325700CCFCC3E5F09464EC9400500261A171D6F4
:103267007402F0900A8A14F022EEB4012671A2EFDC
:103277007002619F71E1EF6002619F900A8B71D0CC
:10328700FED3E5F09464EE9400500261A1E4900649
:10329700A0F0229006A0E06402703D71B971A2EF20
:1032A700600A71E1EF700571D704F02212001EEF7A
:1032B7006401700261A1900A8E71CFFEC3E5F0949C
:1032C700D0EE9407500261A1E4900A8EF0A3F0912A
:1032D700109006A07403F0229006A0E0FE6403702D
:1032E7001E71A2EF7015F16571A2EF6008510871A8
:1032F700D67404F022510871B9619F71B9619FEECC
:10330700B4041A71A2EF600471B9619F71CCFED346
:10331700E5F094F4EE9401500261A1800D9006A0AF
:10332700E0FEB4051D71A2EF70079006A07406F0C9
:103337002271CCFCD3E5F09432EC9400405C71B977
:103347008056EEB40614126D58EF600271F871A240
:10335700EF60479006A07405F0229006A0E0FEB447
:10336700072171FFEF70069006A07406F0D3900A4C
:1033770091E09400900A90E09400401E74FFF5F0ED
:103387000281D7EEB4080F5108911071A2EF600ABD
:10339700510871B9800271B971F822900ADEE0B460
:1033A7000408909612E05402FF2290A628E05404E5
:1033B700FF22D310AF01C3C0D0909644E04460F021
:1033C700D0D092AF22900A8BE475F0010281EDE430
:1033D700900A8BF0A3F09006A022900ADEE0B404D6
:1033E70008909612E05401FF2290A628E05402FFAD
:1033F700229006A07402F022909644E05403FFBF87
:1034070003047F0180027F0022D310AF01C3C0D025
:10341700909644E0549FF0D0D092AF2212C8CB9040
:10342700A6227409F0909883E4F0911051087FF474
:103437007E01128AF8F165F1DEE4FDFF9169121B46
:10344700E54440FD7F019169121BE554DFFD7F01D3
:103457007EA3128F80E4FF91FC121BECE4900A8D8F
:10346700F0227EA3128F807F0122D310AF01C3C049
:10347700D09006A0E0FF6406600EEF64056009EFD8
:10348700640760047F008056900ADEE0B40416905B
:103497009901C083C082E0FFA3E04404D082D083B7
:1034A700CFF0A3EFF091EAE06F6010900A907401FB
:1034B700F0A374F4F091EAEFF08021900A90E070A5
:1034C70002A3E07017900A9004F0A374F4F0510877
:1034D70091109006A07408F07F0080027F01D0D081
:1034E70092AF227F0C7EA3128C84900A8D2231F832
:1034F7007F0202B9CE900BCBEFB10E900BCBE0FD64
:103507007F007EA3028F80F07F027E00028AF8E4AC
:103517009009FAF0B1BDF15E7D807F1D12B9887DFB
:10352700807F1E12B9887D807F2012B9887D807FB9
:103537002112B94690961DE054DFF0A3E04420F035
:10354700909620E04420F0A3E04420F090961CE001
:1035570054EFB10E90961DE054BFF0A3E04440F045
:10356700909620E04440F0A3E04440F090961CE0A1
:1035770054BFB10E909602E054FBF0A3E04404F070
:10358700909605E04404F0A3E0440412731AB10EC8
:10359700909602E054FDF0A3E04402F0909605E017
:1035A7004402F0A3E04402F0909601E054FDF07F5E
:1035B700027E00028AF87B017A0979FB22B116F1B3
:1035C7002BB1D2FFFEFDFC02B5B2F07B017A0A797E
:1035D7002C22F1E5900BBEEFF0600E12195BE49020
:1035E700097FF157E4900773F0900A33E0B40102C2
:1035F700F13B900A2AE07002A3E06025B1D212B530
:10360700E4EF7007900BBEE0B42216B1D27F887E3C
:1036170013121965900BBE7421F0E4900A33F0E1A0
:1036270014900BBEE0FFC394164074EFD394205060
:103637006EF1336007EF64026002E102F144F0903B
:103647000BBEE0FBB4201F900A2AE0FEA3E0FF7C3C
:10365700007D0A128182ED4C6002F12BF14D900A38
:10366700317401F08026900A31E06011EB24EAFF03
:10367700E434FF900A2A8FF01281D7800A900BBE9C
:10368700E024EAFF12640CE4900A31F0E4900BBEE8
:10369700B1D17FD07E07FDFC12B5B2F13B806E90B1
:1036A7000BBEE0FFC394314059EFD3943B5053F125
:1036B700336005EF64027055F144B1D17F887E1302
:1036C700FDFC12B5B2900BBEE0FFB43B04F14D8098
:1036D70007EF24CFFF12640CF13BF1336004EFB422
:1036E700021912721FFFD3900A2BE09F900A2AE05B
:1036F7009E5008900BBE743CF08012E4900BBEF015
:10370700800B900BBEE06005F12BF145F0900BBEEE
:10371700E0FD600F7F01120DB0900BBEE0FDE4FFEE
:10372700120DB022E4900A2AF0A3F022900ADEE0FC
:10373700FF640122900A2AE0FEA3E0FF22E4900A38
:1037470033F0900A3222900A2AE475F00A0281D7F0
:10375700F07B017A077963FFFEFDFC02B5B2D31057
:10376700AF01C3C0D0909644E04403F0D0D092AFED
:10377700221209507F0C319BE4FD7F0B12096B125B
:1037870068337F0122124C35EF7002FF2212095075
:103797007F03319BE4FD7F0C12096B1268FD7FC02C
:1037A700121013F1AF7F01221257ACF1BD1268DC82
:1037B700022012123A091217F2E4900AE0F022905E
:1037C7000AE0E064012280EB8094120CE77F01227B
:1037D700900ADEE024FD227F647E00028AF8E4FF7F
:1037E700700312196C22F1D7600E24FD24FD5008D6
:1037F700240770047D018002E4FD7F01120EB412DC
:103807000EB0E490091DF0120E2E7FE87E03FDFC3A
:1038170002B5B2900B61EFF0A37401F012976690B6
:103827009C46E054F0900B63F0E0FF900B62E0FEE3
:10383700EF4EA3F0900B61E0B4010BEEB4070790D5
:103847000B63E04408F0900B63E0909C46121483EE
:10385700900B62E004F0E0C3940840C022111A7B89
:10386700017A0979C37FB87E0B22AE079009CBE0B6
:10387700707B122FF6AF061216D7909C00E4F090DB
:103887009C49E04440F012140311F57481F0909CB8
:1038970000141217EC7002EEF460091213C2BEFE98
:1038A7000DBFFF0A909C437402F0A3F0800D909C1B
:1038B700437401F0A3F0909C4AE4F0909C04E4F078
:1038C70011FD7411F09009CA740AF09009CDF01235
:1038D70013B5E49009C0F09009CB04F0909C01E087
:1038E7004403F07F327E001211E912176A22909C7E
:1038F700057442F0A322909C03F0909C0222900B47
:1039070019F184122FF61213C2EFF47002EEF4606D
:10391700631213C2EFF47003EE64FE6057900B1945
:1039270031DCC333CE33CED8F9FF7C007D0512815D
:1039370082900B19EEF0FAA3EFF0FBA331DCC3334F
:10394700CE33CED8F9FF7C007D05128182900B1B08
:10395700EEF0A3EFF0D3EB94EAEA940B4005900B5B
:103967001931EBD3900B1CE094EA900B1BE0940BFE
:10397700400231EB900B1931E3A331E3900B19E0CF
:10398700FCA3E0FDECC454F0FBA3E04B9009C8F0A6
:10399700AF05A3EFF0900B1BA3E09009CCF0909C30
:1039A70004EFF0909C02E0540FF0C083C082E0FF68
:1039B7009009C8E0FE54F0FDEF4DD082D083F0901F
:1039C70009CCE011FDE054F0F0E0FFEE540FFEEFFC
:1039D7004EF002176AE0FEA3E0780222E0540FF0EF
:1039E700A3E0F022740BF0A374EAF022900ADFE060
:1039F70025E02494F582E43408F583F1E0FDAC0674
:103A070021059009A85134900B8CEEF0A3EFF090AC
:103A170009BB5134AD07AC06900B8CE0FEA3E0FF69
:103A270031057B017A0679DD7D01022012E0FEA3D4
:103A3700E0FF900ADFE075F0029008941285D1E468
:103A470093FC740193FD1285EFE47BE77A03F9F8A1
:103A5700028358123423517C12C7F712C8187F0308
:103A670071D59003E9126800FF7EACD1D7510912D6
:103A770017F202CEB81263747F0112CD82E4FD7F84
:103A87000651BB7F0751B27F0951BB7F0B7EA31243
:103A97008F8051C3D310AF01C3C0D09004037420EB
:103AA700F0A3E4F0F1A1D0D092AF227EA3128F80D1
:103AB7007D107F087EA3128F80E4FD227D04121FF4
:103AC700D27DC07F1451BBF1D27F17121DBEC00635
:103AD70051FED0E04FFD121FC87F17121BE57F0074
:103AE700FEC007C00651FED0E0FED0E0EE4440FD28
:103AF7007F177EA3028F807F167EA3028C84517C62
:103B0700710E7F0202B9BC90966AE0440DF0225113
:103B17005A1237BA900AC0F01268DC1220127F01DD
:103B270022900AC0E0603C7B017A0A79BB12B5E4B7
:103B3700EF60307B017A0A79BB7FE87E0312196553
:103B4700716B900B9AF1CB700A519B900AC074016C
:103B5700F08006900AC07402F0900B9AE0FEA3E092
:103B6700FF71792290950531DCC333CE33CED8F976
:103B7700FF22EF7802CEC313CE13D8F9FFC394F414
:103B8700EE94015017C374F49FFF74019E71CB2FFD
:103B9700FFE43EFEE4341AFDEC338020D3EF94F4C7
:103BA700EE9401401EEF240CFFEE34FE71CBC39F51
:103BB700FFE49EFE741A9400FDE49400FC909C08B8
:103BC70012857022FE7C007D14128170E42290041D
:103BD7000CEFF0E490040AF0909901C083C082E0F2
:103BE700FFA3E04402D082D083CFF0A3EFF012C846
:103BF70018909509E054E0F0909500E04408F090A3
:103C0700040CE024FE602514602924027048909675
:103C17006AE054F2F090951B7401F0A374C0F09021
:103C270095187403F0900403740F802390951DE09A
:103C37004402F0710E909500E04404F090951BE467
:103C4700F0A37480F0A3E04401F09004037420F023
:103C5700A3E4F07F01227F0022900BC6EFF09009CA
:103C6700027401F01267C7EF7002FF2212C7F790C4
:103C770008DEE0FF71D5900BC6E0FF7E00E4FD1281
:103C87004CEEEF7002FF2291EAB11AEF4E7002FF7D
:103C97002291EA12CDA0900BC6E0FF641E6009EFE7
:103CA700641D6004EFB41C08900ADF7410F08006EE
:103CB700900ADF7418F07F091210139008E0E0FEF5
:103CC700A3E0FFD1D7123092900A0FE07006122FAF
:103CD7009E12B9467F327E00128AF831F312CEB8AF
:103CE7007F0122900403E0FEA3E0FF7D007C022217
:103CF700F190EF60037F002212BD13EF70037F0185
:103D07002291EAB11AEF4E7002FF2291EA12CDA07A
:103D17007F0122900B3DF1849008CC1284D3900848
:103D2700BCB1A6C006C007900B3DE0FEA3E0AA0603
:103D3700F97B01A3E0FFA3E0900A6ECFF0A3EFF0B9
:103D4700D007D006124EAA9008CC1284DF900B3F02
:103D5700124FA49008CC1285709008BBE070289091
:103D670008CC1284D3EF24FF124FBAF1AD12835857
:103D77009008911285709008911284D390074BB1E7
:103D8700A690088D128570900B3FE0FEA3E0FF22FE
:103D97009004531285DD9000271284659004561213
:103DA70084DF0282B2900006E064046002C1B8902A
:103DB700045AE0B40231900456C083C0821284DFF3
:103DC700C000C001C002C003D1B990001F128465B2
:103DD700D003D002D001D0001282B2D082D0831299
:103DE700857090045AE4F090045AE0702B900456C2
:103DF700C083C0821284D3C004C005C006C007D1E7
:103E0700B9900027D1BFD007D006D005D0041282C1
:103E1700BFD082D083128570B197C004C005C00699
:103E2700C007D1B990001FD1BFD007D006D005D0A9
:103E370004C31283F85027D1B9900027128465A8CC
:103E470004C004C005C006C007D1B990001F128482
:103E570065D003D002D001D0001282BF8011B19784
:103E6700EC335011D1B99000271284651283EA9080
:103E77000456128570D1B9E92427F9E43AFAC00348
:103E8700C002C001D1CBD001D002D003128495D19A
:103E9700B9E92423F9E43AFAC003C002C001D1CB3F
:103EA700D001D002D003128495F1B4D080D0807FA6
:103EB70001229004530285DD128465AB07AA06A987
:103EC70005A804221284EB9004561284D30282B20E
:103ED700EEFA909C0812857C01000000EAC3942743
:103EE70050047B8D805DEAC3942D50047BB38053CF
:103EF700EAC3943650047B918049EAC3944A50043C
:103F07007B95803FEAC3945950047BB78035EAC359
:103F1700946D50047BB9802BEAC3949450047B9929
:103F27008021EAC394B3501990966AE030E00E7B83
:103F370088909C0812857C001A000080067BA3806D
:103F4700027B8912314F909C06E06B6013909C00B6
:103F5700E0547FF0909C06EBF0909C00E04480F0EA
:103F6700900BD0E070161272A1C083C082E0FFA34D
:103F7700E054FED082D083CFF0A3EFF022EEF0A37F
:103F8700EFF0A3ECF0A3EDF022F1A79008CC1224F8
:103F9700517F0040027F0122612890951CE0F022AA
:103FA7009008C00284D3E4FB7A02F9F822900885CE
:103FB7001284DF90088D12269DF1AD1282CD9008F4
:103FC700CC028570EEF0A3EFF04E227F157EA302A0
:103FD7008F80E4FDFCFFFE2105E493FE740193FF4F
:103FE70022AE07122FF6EE543FFEED543FFD121698
:103FF700C9600A9009C1EEF0A3EDF0800F1213CB50
:10400700602E9009CAEEF09009CDEDF0909C48E043
:1040170020E20B909C41E0543F6E6002EEF0909CD2
:1040270048E020E60B909C42E0543F6D6002EDF0C3
:1040370002176AEF909C50B40105E054FCF022E0AF
:104047004402F0E054FEF022900BACEFF0122FF692
:10405700900BACE0FF30E60211D4EF30E70211CC51
:10406700900BACE030E60211C4900BACE030E702F5
:1040770011BC1211E5900BACE0FF30E60211B4EF72
:1040870030E70211AC1211E5900BACE0FF30E6030C
:1040970011A4F0EF30E7031213B902176A9009CAA7
:1040A700E0909C4122909C4FE04420F022909C4F4E
:1040B700E04440F022909C49E04410F022909C4953
:1040C700E04402F022909C4CE04408F022909C4C83
:1040D700E04404F022122FF69009C0E05412702E2B
:1040E700909C49E030E1023136909C49E030E4028F
:1040F700312E1211E5909C49E030E104E054FDF0C7
:10410700909C49E030E404E054EFF01211E5909CF4
:104117004CE030E204E054FBF0909C4CE030E304C8
:10412700E054F7F002176A909C4FE054DFF02290BA
:104137009C4FE054BFF022122FF6909C00E4F0123F
:1041470038F574A3F0909C007480F0909641742029
:10415700F07D037F1D12B9467D037F1E12B9887D4E
:10416700047F1D12B9887D047F1E12B94602176AA3
:10417700907FDFE493543FFF900B86E4F0A3EFF0CA
:10418700900B86B1B09424EE94004009D3EF942CA1
:10419700EE94004009900B86E4F0A37428F0E4FD48
:1041A700FF12B0157E007C0C7D1C1285EFC006C087
:1041B70007900B86E0FEA3E0FBAA06E4F9F8D00718
:1041C700D006128358C3EF94B8EE940B50067E0BBB
:1041D7007FB8800DD3EF94F8EE941140047E117FE1
:1041E700F822122F971219617B017A097973121934
:1041F70061900963E07002A3E06028900963512F82
:104207009009651284DFC000C001C002C003317786
:10421700E4FCFDD003D002D001D0001272F8127373
:104227001380CE7F0102298974FFF5F00281D790B0
:104237000A3F128570900A431285E6900A46E0709D
:1042470002A3E0700241ED900A3F1284D3EF5401BC
:10425700FFE4FEFDFCFBFAF9F8C312840E6016902A
:104267000A3F12853B900A431249151280F651FC0A
:10427700900A46512F7F0651F4715A7FAD51F49041
:104287000A3F91C77138F101900A47E024FEFE907A
:104297000A46E034FF900A48F0A3CEF0D3900A49CB
:1042A700E09401900A48E0940040157FAD51F47105
:1042B70038900A4874FF75F0FE1281D7F10180DC4F
:1042C7007F0451F4715A711B900A46E0FEA3E0FF88
:1042D70030E013E4FCFD900A3F123DA6124C029019
:1042E7000A43F19851FC22719D711B7F06AD07129D
:1042F70067940200E1900AF0F0900AEC1285707F53
:104307000651F4715A7F0251F4900AEC91C7900A52
:10431700F0E071567F0551F4120025900BC5EFF0C0
:10432700715A7F017E00128AF8900BC5E020E0E405
:1043370022900A43E475F0011205261280F6FF1257
:1043470000E1900A43E475F0011205261280F6FF9A
:104357001200E190960AE04408F022900AF11285D3
:1043670070E4FF51EE715A900AF5E0FF51F4715A6B
:1043770080A2900AE71285707F4351EE715A900A26
:10438700EBE0FF51F4900AEBE064C76005900AE7A1
:1043970091C7715A611B900BC4EFF07F5051F471B4
:1043A7005A7F0151F4900BC4E080A4900A5E1285F5
:1043B70070900A621285E6900A65124F8A602CD3C4
:1043C700EF9400EE940150237F0651F4715A7F0257
:1043D70051F4900A5EF110900A65E0FEA3E0FF90A9
:1043E7000A621285DDB128715A711B2291D2900A97
:1043F700151285E691B7E4C39F900A1AF0603C91C5
:10440700CC900A1AE0FF900A65E491B371B2900A62
:10441700111284DF900A1A91C01282B291D2900AC7
:104427001AE0FF7E00900A16EE8FF01281D7C39034
:104437000A19E09FF0900A18E09EF0C3900A18E06E
:1044470094014044E4900A1BF0A3F0900A18E0FF9F
:10445700C3900A1CE09F900A1BE09400502A91B772
:1044670091CC900A657401F0A3E4F071B291B7E4BE
:104477002F124FBA91D2900A16740175F00012816B
:10448700D7900A1BB12180C37E00900A18A3E0FFD2
:10449700900A18EEF0A3EFF0601191CC900A18E0A3
:1044A700FFA3E0900A65CF91B371B222F0A3EFF0BA
:1044B700900A110284D3900D10E0FFE4FCFDFE2268
:1044C7001284D3E113900A150285DD900A11028543
:1044D70070900A4A128570900A4E1285E6E4900A97
:1044E70053F0A3F07F0B51F4900A4A91C77FFF1254
:1044F70000E1900A51B1B0900A54E09F900A53E04E
:104507009E5015120025900A4E1285DD900A53F130
:104517009E900A53B12180DA615AE475F001028155
:10452700D7900AA1EEF0A3EFF0900AA51285E6E472
:10453700900AA3F0A3F0900AA1B1B0900AA4E09F5B
:10454700900AA3E09E5015900AA5F198FF1200E18A
:10455700900AA6B121900AA3B12180DA22900A34E9
:10456700128570900A381285E6E4900A3DF0A3F0B0
:104577007F0B51F4900A34F1107FFF1200E1900A8B
:104587003BB1B0900A3EE09F900A3DE09E50151265
:104597000025900A381285DD900A3DF19E900A3D6C
:1045A700B12180DA615A900A2AE0FEA3E0FFC32214
:1045B700E4900B9FF0900B9EF09000181284D3E4C8
:1045C700900643F0A304F012C68612CF4F9000184E
:1045D7001284D39003DC128570129766129D6A903D
:1045E7000BBA12721DFFE4FCFD7BFE7AFFF9F8C3DC
:1045F7001283F85002C1FE9003DBE0700312D7F27A
:10460700900BBAE0147002C1AA24FC7002C1B32453
:104617000570C6125881EF604390002CB1219000BD
:104627002EB121900A58E0B40132900A5AE0700284
:10463700A3E07028F108900A5ACFF0A3EFF090009A
:104647002EE0FFA3E0900A5CCFF0A3EFF0900030DC
:10465700E0FFA3E0900A56CFF0A3EFF0900030E020
:104667007004A3E064016002A1E0900869E06401BE
:104677007002A1E01227C2E92408F9E43AA801FC74
:10468700AD037BFF7A0079057E007F031287A2EFD7
:104697006002A1E090086904F0FB7A08796A129831
:1046A7003BA1E0900032E475F001804612D90C90EE
:1046B7000030E07004A3E06401700AF1089000364E
:1046C700CFF0A3EFF012DB9B12DCACEF70037F019E
:1046D70022900030B121E4900032F0A3F090002E38
:1046E700F0A3F012D711EF6002A1E090003074FF41
:1046F700F5F01281D7A1E07F01227F017E000290B1
:104707000190002CE0FFA3E0221284D3900B391212
:104717008570900B3AE0FF1200E1900B3BE0FF122F
:1047270000E1900B3CE0FF0200E1900B96E0B40340
:1047370007900AEBF14E6179900B96E0B401079070
:104747000AF5F14E71622274C7F07F007E007D008A
:104757007C00227D087F0C12B946F17DE4900B9610
:10476700F012672E900B96E0FF600AEFB401067F08
:104777001C719D711B22715AE04401F0E04402F064
:1047870090960CE04408F0E044011272D74402F01E
:10479700221285DD0280F6E0FCA3E0F5828C83EF30
:1047A70002814E900A70128570900A741285E69005
:1047B7000B96E0B4030A127250900A46F1D94136BB
:1047C700900B96E0B4010A127250900A18F1D97151
:1047D700F322CFF0A3EFF0900A700284D3909801F0
:1047E700E0FDEF543FFCED5CF0EF30E50C122C13CD
:1047F70090B100E054BE122C1D2212BA95122C1350
:1048070090B100E04441022C1D122C13A3E054FB8D
:10481700F090B100E054BE022C1D90B004E030E0EF
:1048270016900B6AE004F0E0B40A06900B6C740172
:10483700F0E4900B6BF022900B6BE004F0E0B40A0D
:1048470003E4A3F0E4900B6AF022900B98E0700366
:1048570012321B1121022FBF900AD41285E6900A4B
:10486700D3EFF0311CEFD394955008900AD4122758
:10487700CF70037F0022900AD7E0FF900AD3312D33
:10488700400774969D900AD7F0E4900B88F0900A41
:10489700D731235018900AD3E02EFFA33115128089
:1048A700F6FD12BA06900B88E004F080E1E4900B65
:1048B70089F07F0122900AD91285E6900AD8EFF095
:1048C700311CEFD394955008900AD91227CF700363
:1048D7007F0022900ADCE0FF900AD8312D40077450
:1048E700969D900ADCF0E4900B88F0900ADC312367
:1048F700501A900AD8E02EFF12BFF4900AD931154A
:10490700EF12813C900B88E004F080DF809FE47514
:10491700F001020526900B897401F022E0FF900B4D
:1049270088E0FEC39F22E0FD2FFFE433FED3EF9420
:1049370096EE6480948022D310AF01C3C0D0311C9F
:1049470012BA06E4900B89F0D0D092AF22D310AF01
:1049570001C3C0D0311C12BFF4E4900B89F0D0D052
:1049670092AF22909904E054FEF090980DE054FE27
:10497700F0E0440EF02290B004E030E3F990980D97
:10498700E054F1F0E04401F090981FE030E0F99036
:104997009904E04401F022A2AFE433900BADF0C2DA
:1049A700AF9005FE1284D3900611123DA69005FB29
:1049B7001285DD1284959005FB122760E412814E63
:1049C700900BADE024FF92AFD080D0802212342329
:1049D700E49007EDF0900780F09007EFF090079FC5
:1049E700F022120807EF7002FF22120FCD12001DEE
:1049F7001209507F0712319B7F091210137F025152
:104A07000D31D47F0122EFB401129009B651809085
:104A170009B4518D51747A067971804BEFB402371E
:104A27009009F351809009F1E0FFA3E0900845CF8A
:104A3700F0A3EFF09009F51285DD9008491285E69D
:104A47009009EE1285DD9008001285E69009EB517A
:104A5700747A0679F880109009AF51809009AD51AA
:104A67008D51747A07791890085E0285E61285DD04
:104A77009007F51285E67BFF22E0FFA3E090084749
:104A8700CFF0A3EFF022E0FFA3E0900845CFF0A31B
:104A9700EFF09009B81285DD9008491285E6900974
:104AA700B11285DD9008001285E69009AA22E4FF7D
:104AB70012319BE4FF1210137D087F2012B9467D47
:104AC700087F2112B9887D087F1D12B9887D087F6C
:104AD7001E12B9467D087F1C12B9887F0122E4FDAA
:104AE7007F1C02096B712112B5E4EF700690042850
:104AF700E0702171217F2C7E0112196590042874C2
:104B070001F012B0CB900A05EFF012B83C7F147E8B
:104B170000128AF8900A05E0FF227B017A0A7909D8
:104B27002251ECEF70069007EFF0800E9007EFE050
:104B3700700812B24F9007EFEFF09007EFE0FF22F7
:104B47007128EF700471F0801312B839900797122B
:104B570085707B017A0779937D0C7168021FE3EFFB
:104B6700FD7C00121F1BE4FF227128EF700471F017
:104B7700805312B8399007781285709007B1E024F6
:104B8700C1601C242370307BFF7A05798C9007B3B2
:104B9700E0FFC39404500280027F04716680267B85
:104BA700017A0779749007B3E0FFC3940C50028031
:104BB700027F0C7166800E7B007A007900E4FDFCB1
:104BC700121F1BE4FF021FE37128EF700471F080CE
:104BD7001512B83991029007811285707B017A0707
:104BE70079817D087168021FE37F81121C8E7F0A1D
:104BF7007E00128AF8121D137F0122EF24FFFFEEB9
:104C070034FFFEED34FFFDEC34FFFC22900A0EE08A
:104C1700900BB4F051EC900A0EEFF0900BB4E070EB
:104C27000A900A0EE060047F0180027F00229096BE
:104C37000BE04410F090960EE054EFF0A3E054EF31
:104C4700F090960CE054EFF0917D909609E030E4F7
:104C57000BE4900A08F0900A06F08014900A06E028
:104C6700C394145005E004F08006900A087401F01C
:104C7700900A08E0FF227F0A7E00029001900AB79F
:104C870012857C0000000012B8F112473191E7123B
:104C9700DB79EF704891E790047FF1B3FD7C0F1249
:104CA700A02A900AB5123FCB700280317B017A0FA0
:104CB7007900900AB5E0FFA3E0900A77CFF0A3EF61
:104CC700F0900AB71284D31247AA900AB71284DF6A
:104CD700900AB5F1A4A3128570917D80B002B8CC7B
:104CE7007B017A08796A22AB07AA06900B76EDF06A
:104CF700A3E4F0A304F0EDD3940240037F002290D5
:104D07000B76E0F9701B9008A3D16040037F002267
:104D17009008A5E02BFEE43A900B77F0A3CEF08045
:104D270038E9640170219008A4D16040037F002214
:104D37009008A5E02BFFE43AFE9008A3F191900BB1
:104D470077F0A3EFF080129008A5D16040037F00B1
:104D570022900B77EAF0A3EBF09008BAEBF0A3E907
:104D6700F09008CC12857C00000000900B78D17180
:104D7700FF900B77D1692410FFE43EFEE4FCFD7A37
:104D87000879BC7B01900A6EF0A37410F0D1AA9049
:104D97000B76E06002C15D74FFFFFEFDFC9008C06A
:104DA700122451700D9008C012857C000000007F0E
:104DB70000227E007F2F7D0091E71287C67E007F4D
:104DC700047D307B017A0879791287C6787D7C0863
:104DD7007D017B017A0879C47E007F041280D07838
:104DE700817C087D017B017A0879C97E007F0312E7
:104DF70080D0123FA7900895128570123FA7EF2425
:104E0700FFF1BA123FAD128358900889128570904E
:104E170008A2D171FF9008A1D1692420FFE43EFECA
:104E2700AB07FAE4F9F89008BC12269DE4FB7A0276
:104E3700F81283589008851285709008851284D3DC
:104E470090088D12857090089112857C00000000F3
:104E57009008847401F07F0122E0FFD3EB9FEA946E
:104E67000022E0C454F048FEEF22E0C4F8540FC813
:104E77006822E4FF900006E0B4030BD1A2FFF1998A
:104E87007F01D080D080900006E0B4040DD1A2FF4E
:104E9700E4FD91EE7F01D080D08022900516E0FEE0
:104EA700A3E022900A67128570900A6B1285E6903C
:104EB7000A6B1227CF604D900A6EF18A6046900AFE
:104EC7006B1285DDC3EA940F40167E00EF5403FF93
:104ED700600E74049FFFE49E900A6E8FF01281D7D4
:104EE700900B96E0B4030CF117900A3BF10C1245B6
:104EF700648011900B96E0B4010AF117900A51F102
:104F07000C1244D822CFF0A3EFF0900A670284D3A3
:104F1700900A6B1285DD900A6EE0FFA3E0227E0007
:104F27007F377D00F181900B96E07002FF227A08AF
:104F370079997B01900A6EE4F0A37420124750D14F
:104F4700AA7FFE7E017DAA7C559008991224517094
:104F5700079008B904F0800BE49008B9F0FE7F20B1
:104F6700FDF1819008A1E0FFA3E090002CCFF0A312
:104F7700EFF090074A7401F0FF227B017A087999D4
:104F87000287C6E0FEA3E0FF4E22E07C002FFFEC85
:104F97003E22900BA2EEF0A3EFF07F0022E0FEA3EB
:104FA700E0FFE4FCFD0282B2F090040E7402F0A36D
:104FB700E4F022FFEE3401FEE43DFDE43CFC2290E8
:104FC7000A08E0900BB5F09135900A08EFF0900BC6
:104FD700B5E0700A900A08E060047F0180027F0054
:104FE70022900A07E0900BB6F0120807900A07EF25
:104FF700F0900BB6E0700A900A07E060047F01802A
:10500700027F0022909629E054FBF0A3E054FBF0C6
:10501700909627E054FBF0909626E04404F07F0238
:105027007E00129001909624E030E207E4900A0F88
:10503700F08006900A0F7401F0900A0FE0FF2290AB
:105047000A0FE0900BB7F0110B900A0FEFF0900BDF
:10505700B7E0700A900A0FE060047F0180027F00CA
:10506700227F01314B900BB8EFF0900AC0E06059F6
:10507700900BB8E0B412047F018009900BB8E0B43C
:105087001307E4FF120F7C8040900BB8E0FF640128
:105097006004EFB402047F40802D900BB8E0B405A4
:1050A700047F808022900BB8E0B406047F04801749
:1050B700900BB8E0B407047F08800C900BB8E0B4FD
:1050C70015071219307F1011D5F1BD023F9F900BC4
:1050D700C8EF11EB7C0011F5E4900BC811EBFC1144
:1050E700F57F0122F07B017A0B79C87D0122900BB5
:1050F700051285E6900B08ECF0A3EDF07D03121F77
:10510700D27F0E121BE5640360057D03121FD29048
:105117000B08A3E0FD900B051285DD7F2C12730BA6
:10512700121D0C121FBF900B9CE4F0A37432F0E425
:10513700FD7F0331F8EF70047D088002E4FD121D46
:105147000C021FBFE4900B2D1272036042900B2ECE
:105157001272CCC003C002C001900B2E124798FFF9
:105167007C00D001D002D00329F9EC3AFA1280F67C
:10517700900B2DF0EF045407FFA31285DDEF12818A
:105187003C900B2E1285DD90000174FF1204F39002
:105197000B2DE0FF227F01314B900BB9EFF014602C
:1051A7004C24EE602A24FE604424B0600714601F7C
:1051B7002454703CF1D450057F01120F7C900BB939
:1051C700E06465702BF1C670277D017F15801B1287
:1051D70018324005E4FF120F7C900BB9E0B466105B
:1051E700900ADFE0700A7D017F1602096B12193001
:1051F70022900A82EFF0A3EDF07B017A0A7984907E
:105207000B9C127282900B9C7403F0A374E8F0124B
:105217009766900A82E0FF64016005EF6403701EE1
:10522700900A83E060095186EF30E0447F01221243
:105237001C87900A89EFF0540370357F0122900A8A
:1052470082E064027018A3E060095186EF30E02025
:105257007F01227F16121BE530E0157F0122900A9D
:1052670082E07009121BE320E1067F01227F002202
:105277007B017A0A798412B5E4EF60937F00227F7D
:10528700007EA5028C8451AF900BCCEFF05186EFD6
:1052970030E0037F012251AF900BCCE0FEC3EF9EBD
:1052A700D3946440E87F00229006110284D3900AC9
:1052B700C71285E6900ACAECF0A3EDF07D02121F33
:1052C700D2C3900ACAE0940250557F16121BE520FC
:1052D700E004E4FEFF22E4FD7F0231F8EF7003FEF5
:1052E700FF22D1FB900ACCEFF0FDC2AF900AC712A4
:1052F70085DD7F287EA3128A06D2AF900ACCE070A4
:105307000B7F16121BE554FEFD121FC87F16121BDA
:10531700E554FEFD121FC8900ACCE0FF7E002290E4
:105327000AC7127276900AC712726A900ACA127274
:10533700AC900ACA1272E87179EF7003FEFF227D02
:1053470001121FC87DA071727D2D716B518DE4FD17
:10535700716B7D017F16123ABB7172900ACAE0FE2B
:10536700A3E0FF227F047EA5028F807F177EA30222
:105377008F8051AF900BCDEFF07F16121BE530E019
:10538700037F012251AF900BCDE0FEC3EF9ED39474
:105397006440E67F0022900B2512721DFF900B26BA
:1053A700123FCB700281A69006FFE024FE700281B7
:1053B70057240224FB5002819B900B25E0FFB40287
:1053C7000D900B28740AF0E4900B25F08012EF90F3
:1053D7000B28B40308740AF0900B2580007401F0C1
:1053E700900B25E07032900B28E0FF7E0090072F8E
:1053F700E02FFD90072EE03EFCC3900B27E09D9029
:105407000B26E09C90072E5007E4F0A304F0819B45
:10541700EE8FF01281D7807C900B25E064017074C9
:10542700900B28E0F9FF90072EF1CD9FEC940050E8
:105437000D900B26E0FFA3E090072ECF8052E9FFE7
:10544700C3ED9FFEEC940090072EF0A3CEF08044AE
:10545700900B26E0FEA3E0FFFBAA06E4F9F851AFA4
:10546700128358EB2401FFE43AFE90072EE0B506BD
:105477000AA3E0B507050FBF00010EC3900B27E095
:105487009F900B26E09E50047E007F0190072EEE32
:10549700F0A3EFF0900B25E0900701F01200212216
:1054A700719DE4900AE0F0229007B11284D3D1797C
:1054B700B162FED3E5F09400EE9400401D91E83010
:1054C700E0027E0D7F0091F251B591EB30E0027E54
:1054D7000D7F00D1571235D980D6B1BDE4FF021F29
:1054E700E31297669007B7E07E0F22AA06A9077B0B
:1054F700017D007C02229007B11284D39007B7E0A8
:105507007A0F30E0027A0D7B00900AD1EAF0A3EB24
:10551700F0B1F1B162FED3E5F09401EE94004022C0
:1055270091E830E0027E0D7F00B16C9007B7E07E16
:105537000D30E0027E0F7F0091F2121F1B1235D94A
:1055470080D1B1819007B7E07E0D30E0027E0F7FFA
:105557000091F2121F1BE4FF021FE39007B674FFCE
:10556700F5F00281EDAB07AA06B1A3EF7002FF22A7
:10557700AE02AF0312B6B27F0122B1A3EF7002FFF2
:1055870022B19B90053512857C000000007F0C023C
:10559700B1BBB1A3909720E054FBF0227F107E2788
:1055A700909720E020E50CEF1FAC0670011E4C70B1
:1055B700EFFF227F0122909720E030E202B199901D
:1055C700053512857C000000007F0C12B1BBEF701F
:1055D70002FF22D148909728E0C330E101D350F56C
:1055E700909721E04410F07F0122900ACDD1459099
:1055F7000431E07012900ACD1284D3123FAD1282AB
:10560700CD900ACD128570900AD1E0FEA3E0FF127B
:10561700B6B2900ACD1284D39005351285707F12E9
:1056270012B1BBEF7002800D909733E0541EFFC399
:105637001364046005B19B7F0022D148A1A31285A2
:1056470070909721E054EFF0909720E0547FF0227C
:10565700AB07AA06909720E030E202B1999097280D
:10566700E0C330E101D350F5AE02AF0312B6DF7FDE
:105677000122900B55D145900431E06008900B55FD
:105687001284D3800CE4FF7E02FDFC900B55125C64
:10569700B49005351285707F1902B1BB900AA81224
:1056A70085E6900AABEDF0900AAD7403F0A374E8B9
:1056B700121FCF900AADB16545F06035121BE3307C
:1056C700E0F1D1FB900AACEFF0900AABE0FEEFD32C
:1056D7009E4003A3EEF0900AACE0FD900AA8F149C2
:1056E700128A06121BE34440121D0B900AACE0FF1E
:1056F700227F00227F187EA3028C84900B001285E4
:10570700E6900B03EDF0E4FD7F0E121BDE30E02F79
:10571700D1FB900B04EFF0900B03E0FEEFD39E401C
:1057270003A3EEF0900B04E0FD900B00F149128A01
:1057370006121BE344C0121D0B900B04E0FF227FEF
:1057470000221285DD7F207EA322900AFB1285E6C8
:10575700900AFEED121FCF129766900AFEE0FFD364
:1057670094404006A37440F08005900AFFEFF09044
:105777000AFFE0FDC3EF9D900AFEF0900AFBF14996
:1057870012897A121BE34402121D0BE4FDFF31F864
:10579700EF6011900AFFE0FF900AFCF1C0900AFE4B
:1057A700E070B42222900ADFE0FFAE07EE9007D741
:1057B70093FDFF023FE8021D13E48FF00281D790AB
:1057C7000ADFE0642022E0FCA3E0FDD322900ADF99
:1057D700E0C39420227D037F2712B9887D037F26AB
:1057E70012B9467D037F2912B9887D037F2A02B942
:1057F700887F002212586FFF900B4DEEF0A3EFF059
:10580700900006E0B4030C90047FE0FCA3E0FD11D8
:10581700778014900006E064047016116FFFA3E010
:10582700FCA3E0FD123D1A900B4FEEF0A3EFF080C2
:10583700261257F8EF6401702B900B4FF0A3F0126C
:10584700A044900B4FEEF0FCA3EFF0FD900B4DE062
:10585700FEA3E0FF12064ED080D080900B4FE0FEF3
:10586700A3E0FF22E4FEFF2290047DE0FEA3E022F6
:10587700900B51123F84E4FEFF221227C2900008CA
:1058870012810F900B21F090000912810F900B22CB
:10589700F090000A12810F900B23F0900B21E0B4D7
:1058A7004D10A3E0B4500BA3E0B43306A37401F08A
:1058B7008005E4900B24F0900B91E07009900B2485
:1058C700E060031223E0900B24E0FF221181900691
:1058D700D3EFF022900BBBEFF07E007F327D007B91
:1058E700017A0079061287C6900BBBE0900006F09C
:1058F70090000B12857CFFFFFFFF90000F12857C45
:10590700FFFFFFFFE4900B90F0A3124FAF314EEF74
:105917007006900B90048010E4900A58F01245B777
:10592700EF700C900B907402F0A304F07F002290AC
:10593700002CE07002A3E07006900B907403F090C7
:105947000B917401F0FF2290094512857C0000003D
:1059570000E4900957F0900006E0B4010C12CD5313
:10596700EEC313900952F080069009527401F0912A
:10597700C391F17002FF2291C391E17003EE645568
:105987006008900A9FE07002FF22E4900951F090AE
:105997000951E0FFC3940440024148EF75F010A499
:1059A70024BEFFE5F0340EFAA9077B0190095A12CD
:1059B70085E6B102FF6405600AEF640F6005EF64D6
:1059C700857034900957E0FF6008900951E0C39F44
:1059D70040259009451284DFC000C001C002C00302
:1059E70091D2D003D002D001D00091C9900951E0E3
:1059F70004900957F0217690095A12276012810FF7
:105A0700FF64046018EF64066013EF640B600EEF29
:105A1700640C6009EF64016004EFB40E1C90094543
:105A27001284DFC000C001C002C00391D2D003D0EE
:105A370002D001D00091C98008900951E004F021FB
:105A470096900951E0B4041B900957E0FFD39400E6
:105A57004011EF9404500C90094512857C0000001A
:105A67000021769009521244C091B191F17002FF62
:105A7700229009521244C091B191E17003EE64552E
:105A87006008900A9FE07002FF22900D0DE09000E1
:105A970013F0900D0EE0FEA3E0FF1297F89009585F
:105AA700EEF0A3EFF0E4FCFD900945123DA690004F
:105AB70014128570900D11124F8A603A1297F87C74
:105AC700007D201285EF1227C8AB07900952E07FAF
:105AD7000025E0FE124FA9124C02C006C007E025C0
