:10000000020417E1FC4D56460022320260790001DD
:100010000203220260B42222022FB080ED7F002270
:1000200022223280FDE4C3FA90960AE04401F054A3
:10003000FEF0909609E0A2E2E492E02A23FA90967C
:100040000AE04401F054FEF0909609E0A2E2E49246
:10005000E02A23FA90960AE04401F054FEF09096CC
:1000600009E0A2E2E492E02A23FA90960AE0440131
:10007000F054FEF0909609E0A2E2E492E02A23FA1E
:1000800090960AE04401F054FEF0909609E0A2E256
:10009000E492E02A23FA90960AE04401F054FEF03C
:1000A000909609E0A2E2E492E02A23FA90960AE010
:1000B0004401F054FEF0909609E0A2E2E492E02AB6
:1000C00023FA90960AE04401F054FEF0909609E07D
:1000D000A2E2E492E02AFA90960AE04401F0EAFFF4
:1000E000227808EF33FF90960AE092E154FEF090F8
:1000F000960AE04401F0D8EB229003F30284D32265
:100100000000220000220000220000220000220045
:100110000022000022000022000022000022000035
:100120002200002200002200002200002200002203
:100130000000220000220000220000220000220015
:10014000002200002202673A000022000022000084
:100150002202347402517C02275F00002200002238
:10016000000022000022000022021D4200002200A6
:100170000022000022000022000022000022023B98
:10018000B900002202736A000022000022026CED16
:10019000000022000022026EC500002200002200A2
:1001A00000220000220000220000220000220000A5
:1001B0002200002200002200002200002200002273
:1001C0000000220000220000220000220000220085
:1001D0000022000022025D3B026EB20265BF0244B3
:1001E000EC025A94000022000022024DBE026C076D
:1001F0000000220000220000220000220000220055
:100200000022000022000022000022000022000044
:100210002200002200002200002200002200002212
:1002200000002200002202667D02346C00002200E1
:100230000022000022000022000022000022000014
:1002400022023DD4000022000022000022000022F1
:10025000000022000022410AAC00410AA600420A26
:10026000A70000420AA90000410AAB004109D800DA
:100270004109D7004109E3004109D500410B78014C
:10028000410B7600410B7700410B9500420A0B00B1
:1002900000420A090000430A0DFF0604430A06FF54
:1002A0000613430A03FF06224109B3004209BE00B8
:1002B000004409A90C020307410A1900410A1B0066
:1002C000410A1300410A1200410A1A01410A1000B2
:1002D000410A11004209CE00004209CC0106420940
:1002E000C700004209C501084309D0FF0630430991
:1002F000C9FF063F4309C2FF064C4209C0006342E2
:1003000009D30063410B9A01410B9B02410B9D00F5
:100310004107610041075F00410762004107730028
:100320004406F9FFFFFFFF4106F300410972014453
:10033000096500000000420963006444096E000082
:100340000000410A6500420A660000420A68000097
:10035000420A620000410A6400410A6100410A2524
:1003600000420A1D0000410A2600410A2700410AF6
:100370001F01410A1C00410991FF410992004109F6
:1003800093FF450905000000000041091B00410BD7
:10039000A502410869004109020041090300410921
:1003A0007E0041097F00410BA700410BA6015208C6
:1003B0004C12011001000000400000020210000178
:1003C0000203014C079300000008001DC3FF030057
:1003D0000200480781001DC3FF000002004C0774A3
:1003E0000B00000800020000000002004D07E0556D
:1003F0005342530870BA840000000000420BAA0365
:10040000E8410A9900420A9C01F4410A9600410B16
:10041000AD01410BAC0100126C7A787FE4F6D8FD97
:10042000126053EFFD9006D96003A3DFFD7F277EA6
:1004300011C3EF9DFF50011EE4F0A3DFFCDEFA754F
:10044000810B126C15020483022B22E493A3F8E4BF
:1004500093A34003F68001F208DFF48029E493A31C
:10046000F85407240CC8C333C4540F4420C8834035
:1004700004F456800146F6DFE4800B010204081004
:10048000204080900256E47E019360BCA3FF543F5D
:1004900030E509541FFEE493A360010ECF54C0253C
:1004A000E060A840B8E493A3FAE493A3F8E493A32C
:1004B000C8C582C8CAC583CAF0A3C8C582C8CAC590
:1004C00083CADFE9DEE780BEBB0111F8E58229F5CA
:1004D00082E5833AF583E0C828F0E8225009C58216
:1004E00029F8C58226C622BBFE0DC58229F8E2C5C1
:1004F000822582F2E58222EA2583F583E99322BBF5
:10050000010FF8E58229F582E5833AF583E028F0CA
:10051000225009C58229F8E58226F622BBFE09C5CC
:100520008229F8E22582F222F8EA2583F583E9930D
:100530002822F8E0FBA3A3E0F925F0F0E58215827C
:1005400070021583E0FA38F022D083D082F8E49369
:100550007012740193700DA3A393F8740193F58244
:100560008883E4737402936860EFA3A3A380DF55CC
:1005700053424300008002021F0000004D565349C1
:10058000000000004361726420526561646572007E
:100590000000000056312E30030000007000020001
:1005A0000000000A000000003A0000000000700097
:1005B00005000000000A0000000024000000000008
:1005C000ED0303543FFD8E838F82E090A621E0F877
:1005D0008E838F82E090A621E0FB8E838F82E09055
:1005E000A621E0FC8E838F82E090A621E08A838999
:1005F00082C8F0A3EBF0A3ECF0A3E8F0A3AA83A9D0
:1006000082DDC3224D5653494C49434F4E2E494E2D
:10061000432E004D5620434152442052454144450B
:1006200052003230313130393031313233343500EB
:100630004D5653494C49434F4E2E494E432E004D83
:10064000562055534220415544494F0032303131F4
:10065000303930313132333435008F828E83ED7052
:1006600004EC600B1CE06455F0A3DDF90206612286
:100670004641543136000000000403090409028792
:100680000003010080FA09040000000101000009D4
:1006900024010001280001010C24020101010002D3
:1006A000030000000A2406020101010202000924DD
:1006B000030301030002000904010000010200001D
:1006C00009040101010102000007240101010100E8
:1006D0000B2402010202100144AC0009050409C008
:1006E00000010000072501010000000904020001CB
:1006F00003000000092101020001222100070583F7
:10070000034000010902200001010080FA090400F1
:10071000000208065000070581024000010705029B
:100720000240000109029E0004010080FA09040051
:10073000000208065000070581024000010705027B
:100740000240000109040100000101000009240128
:100750000001280001020C24020101010002030033
:1007600000000A2406020101010202000924030319
:100770000103000200090402000001020000090454
:1007800002010101020000072401010101000B2404
:1007900002010202100144AC0009050409C0000175
:1007A0000000072501010000000904030001030007
:1007B00000000921010200012221000705830340F6
:1007C0000001050C0901A1011500250109E909EA4B
:1007D00009B509B609E209B309CD09B7750195084C
:1007E0008142C02E2C2A2927262423211F1E1C1BB0
:1007F00012C94690060FE0900610F02232FFFFFF6C
:03080000140108D8
:1008070002348205320007D001F4006401F400C805
:10081700320AC350271007D014503C140A1E140084
:1008270000000000000000000002FAFCFDFEFCFAD8
:10083700FA0202FF02FFFDFAFAFAFDFF0202FFFFCA
:100847000002020202FDFAFAFF0200FF00020201A3
:10085700FFFEFAFEFEFEFCFAFE02FE02FFFFFDFAB5
:10086700FAFAFA0202020101FFFEFEFEFDFDFDFAA1
:10087700FAFF010202020202FFFD02020202020265
:10088700FD0202FFFAFF020202020202020000005A
:100897001A001F0024002A0031003A0043004E00CE
:1008A7005B006B007D009300AD00CC00F0011A01E6
:1008B7004C018701CC021D027C02EC0370040B047F
:1008C700C20599069607C0091E0ABA0C9E0ED85F84
:1008D700A05EA15DA25CA35BA40000000000000075
:1008E7000000000000000000000000000000000001
:1008F70000000000000000000000000000000000F1
:1009070000000000000000EAF6E9F3E7A1F7E3A51D
:10091700BDADB5BAB9BBE6B8F2F8BFBC0000000080
:10092700000000E9EDEFFBFAF9F7F6F5F3F2F1FF56
:10093700FDFEEEE7E6E5EBEA00000000000000FA46
:10094700F9F7F3F2F1EFEEEDEBEAE9E1E5FFE7FEA8
:10095700FDFBF6F501020304E100000000000000C2
:100967000100000014640000585A5900076613007C
:10097700066512003F3E3A3633302D2A27252321BC
:100987001F1D1B1917151311100F0E0D0C0B0A093C
:1009970007060402013F3E3A3633302D2A27252326
:1009A700211F1D1B19171514131211100F0E0D0CF3
:1009B7000B0A090807069006D7EFF0E01313543F18
:1009C700FF12B8751251489006D7E01313543F250C
:1009D700E025E0FF1207F0900AE97401F02274FFA6
:1009E700FFFE12B83F12515B7F0112B8757F0112EB
:1009F70007F0E4900AE9F0029766900B85EFF0A301
:100A0700EDF0900BA4E07002FF22900AEBE0900B50
:100A170087F012CECF125F5A900AEAE0B40402F1CF
:100A2700D931EC900B85E0FF12439C124435EF60FF
:100A37000512976680F5126637900B87E0900AEBF0
:100A4700F0900B86E060061266431217F37F0122CF
:100A57007F011259969006FEEFF0900760E0602A3A
:100A67009006FEE070247B017A07796E12B5E4EFF9
:100A7700601812203FEF700D900701E07D06B4016A
:100A8700027D07F1CEE4900760F09006FDE0640672
:100A9700700281B3A3E01205490BAF060BBB070B2E
:100AA7003B0C0AE3120B04130B8D150C1B210BDCFB
:100AB700260BDC270BF8280BF8290BDC2A0BF82B65
:100AC7000BAF2C0BBB2D0B722F0B28300C1B3C0CC8
:100AD70085630AE3650B046600000CB3121B6750BD
:100AE700057F0112192D9006FEE06465600281B34F
:100AF700121FE6600281B37D017F15802012183333
:100B07004005E4FF12192D9006FEE064666002813D
:100B1700B3900AEBE0600281B37D017F165101813A
:100B2700B39006FFE0B40304E4F080389006FF7446
:100B370003F080309006FFE0700404F08005E49035
:100B470006FFF09006FFE0B4040B9007027401F073
:100B57009007328008E4900702F0900730125F4E4A
:100B6700F012612C7F011262FE81B3900700E0044E
:100B7700F0E0C3940B4002E4F012353412612C7F8D
:100B87000112630481B3900AECE060119006FDE066
:100B9700B402047D018002E4FD7F1B8004E4FD7F35
:100BA7001A510112197781B3D147500281B3B1822B
:100BB700E4FF800AD147500281B3B1827F01125E00
:100BC700577B017A07796E7FE87E03FDFC12B5B289
:100BD700900760803AD14A500281B3B1827F0212F6
:100BE7005E5712203FEF600281B3F18B9006FD80C4
:100BF7001ED14A500281B3B1827F03125E57122081
:100C07003FEF600281B37D077F01F18F9006FD748E
:100C170001F081B3124A0090002DE09F90002CE074
:100C27009E402D1267734028900702E070229007BC
:100C37002EE06E7003A3E06F6016B182900A1D125A
:100C47005F4EF0122DBE12203FEF70047D06F1CEED
:100C5700125D45FF900A1D125E6A9FEC9E4011D3FC
:100C6700ED9400EC94004008D17B7FE87E0380067A
:100C7700D17B7F007E00121C13122DBE802E9008A0
:100C870069E0B40127E4900BCAF09006FDE0B402D6
:100C970009125F70900BCA7401F0124D2590086914
:100CA7007402F0900BCAE0B40102B1A012760160A1
:100CB70016900762E0701004F0FB7A0779631275EB
:100CC700C09007737401F09006FDE0B4020C900722
:100CD70062E06006E4F0900773F0900773E0602726
:100CE7007B017A07796312B5E4EF601B1276016026
:100CF7000F1229EEE4FD7F1B1275A812281E80072C
:100D0700E490077312758E9006FDE014601024FEC0
:100D1700600704700CB1A08008125F708003122076
:100D2700299006F3E0600D126671EF6007E4900604
:100D3700F3F080279006F3E07021126671EF701BC5
:100D47009006F304F09006FDE0B4020F1200F9EFED
:100D57002401FFE43E124FC81227C51200F990067E
:100D6700F91224396014123492121B60400C1200DD
:100D7700F99006F912857012612C221220F512A63D
:100D87008F9003F312857C00000000F1D2E4FDFF91
:100D9700F1DD7F647E00028AF81220F512DB79EF1D
:100DA700600612CEB0EF70129006FFE06403702366
:100DB7007F0A123494121B604019B1829006FFE03B
:100DC70064016005E4FF125D4D12203FEF7004F1EE
:100DD7008B80427B017A07796912B5E4EF6018903E
:100DE7000AECE0701290075FE0700C1217F3123AEA
:100DF7000D90075F7401F0125FC6EF701AB1829011
:100E07000701E0FF64026003EF70047D0680027D46
:100E1700077F01F18FE1D2125F99600B24FE601802
:100E27001460152404701812CECF125F5A9006FD75
:100E37007403F01276398004125FA0F0125FB322B8
:100E4700124212D390002DE0940190002CE0940000
:100E570022E054FDF0E054DFF0E054FBF0E054BF33
:100E6700F0E04401F0E04410F0E4FDFFF101E4FD9F
:100E77007F01F1017B017A09791622126413600D53
:100E870014602924FD24FD50482408706712645615
:100E970090091D7008D1587FE87E03805412646062
:100EA700D1FC7D01D1777F007E00804512645670AA
:100EB7001590091D1264F054BFF07D01E4FFD1794C
:100EC7007FE87E0380091264D8D1797F007E008095
:100ED70020126456701290091D1264E1F0E4FDFFC0
:100EE700D1797FE87E0380091264D8D1797F007EAB
:100EF70000121C1322F07D01E4FF900BA3EDF0908C
:100F07000BA2EFF07010A3E07D017F01600512B91D
:100F170088800312B946900BA2E0B4010EA3E07DCE
:100F2700207F0A600302B98812B94622122DC660D3
:100F370005EF6402704D127601700B90091DD158B0
:100F47007FF47E01803A9006FDE0FF64016005EFC3
:100F57006403701112645DF01264EA7D01D1777F3A
:100F6700007E00801B9006FDE0600464067014128A
:100F7700645DD1FC7D017F01F101D17B7F007E00A3
:100F8700121C13227D067F01900B35ED125A5BC3AD
:100F9700940840037F0022900B35E0FFA31285DD04
:100FA70090000174011204C8FD1280F62DFD7C002B
:100FB700ED5407FD900B36125A41E92DF9EC3AFA38
:100FC700EF12813C7F01227F01F18F9006FD7401B2
:100FD700F0227D017F01900BB2EFF0ED6401700606
:100FE700122B0112B988900BB2E0B4011B12405FBB
:100FF700900AEAE0B40304E4FF111E900AEAE0B4A1
:101007000C0EE4FF111E8008E4FDFCFFFE12391EE2
:10101700900AAC7401F022900BB8EFF01240C59023
:1010270009D7F0900BB8E0F0FF9009D8E0B50706B4
:10103700D1DE7002215C900BB8E0701671DE6002A1
:1010470071FBD1D76002919671D77002214C315D47
:10105700214C900BB8E0FF54096036D1D76007EFF9
:1010670054247002919671D7601FF1D1701BEF5411
:10107700C070169009D8E054126004315D800A9060
:1010870009D8E054C06002B16671DE64096002915C
:1010970041F1D1602D71DE6007EF5409700271FBD9
:1010A700D1D7600A900BB8E054247002919671D79B
:1010B700600BE05412FFD1DE6F6002315DD1DEFFBD
:1010C7005111900BB8E0FF5424601C71DE6007EFEC
:1010D7005409700271FB71D7600BF1D17007EF549F
:1010E700C07002315D91DF900BB8E0FF54C06055CE
:1010F70071DE6007EF5409700271FBD1D7600A9067
:101107000BB8E054247002919671D76006D1DE7057
:1011170002315D71D7FFB412047FC0800EEFB402B5
:10112700047F408006EFB410027F80EFD394004025
:101137000B900BB8E054C06F6002B166900BB8E03B
:1011470054C0FFB1F7900BB8E0FF9009D8E06F608B
:1011570002EFF0F178227F011227F112418B500440
:10116700AF068000900BB6EFF0909C41E09009E24B
:10117700F0909C42E09009E5F0900BB6E0C39440F4
:101187005013129766900BB612760F910F900BB60D
:10119700E004F080E49189909C4FE0549F31F03156
:1011A700DD909C4FE054E731F0909C4CE054FCF00C
:1011B7007F147E0031F512001771CEEFF47002EE46
:1011C700F4601271CEEFF47003EE64FE6007909C3A
:1011D70048E04401F022909C49E054EDF07F027E04
:1011E7000031F5909C4FE054F9F07F027E00900BA0
:1011F7008EEEF0A3EFF0900B8E12579A45F0600930
:10120700129766910F910F80ED22900B70EFF0907F
:101217009C4E71F3909C4DE0543F900B72F1ED7032
:1012270002EEF4601271CEEFF47003EE64FE600715
:10123700909C48E054FEF0909C4CE04403F0909C56
:1012470041E4F0A3F0909C4FE0441831F0909C4F9C
:10125700E0440131F0909C4FE0440631F0909C4906
:10126700E0441231F07B017A0979DB7F107E271287
:101277001C139009D5E060026140909C4BE020E090
:1012870058909C4BE030E002613AF1B06002613A5D
:1012970071CEEFF47002EEF4600B71CEEFF47003D1
:1012A700EE64FE7022900B71E01471E5909C4EE0A5
:1012B7007023ED643F607C900B717440F0A3E025D0
:1012C700E0F04401F0800E900B71E014909C4EF01A
:1012D70071F3E0605EF1CB80A8909C4BE030E05367
:1012E700909C4BE030E04CF1B0704871CEEFF47059
:1012F70002EEF4600B71CEEFF47003EE64FE701F24
:10130700900B71E00471E5909C4EE0643F7020ED16
:101317006021900B7174FFF0A3E0C313F08010906D
:101327000B71E004909C4EF071F3E0643F6004F1B0
:10133700CB80AD9009D57401F031DD909C4FE0541E
:10134700FE31F0124182909C4FE0440631F0909CB0
:1013570049E0441231F0909C4FE0446031F01200B4
:10136700099009D7E07003F1BEF09190F1E05004C5
:10137700AF068000900B72EFF0900B71743FF09006
:101387000B72E0FF900B71E0D39F402A127650FF5B
:10139700900B71E0FEC39F4005909C41EEF01276E2
:1013A700489F4008900B71E0909C42F0910F900B82
:1013B70071E014F080C99009E2E0909C41F0900937
:1013C700E5E0909C42F02290966BE0FEA3E0FF22BE
:1013D700909C49E0541222909C49E0540922909C29
:1013E7004EF0900B72E0FD909C4DF0A3E0543F90BF
:1013F7000B71F0221240CF9189909C48E04422F172
:10140700A854F6F1954411F012B8A0EFFD7C007EC8
:10141700017F90128182EF2401FFE43EFE90990440
:10142700E020E00BEF7802CEC313CE13D8F9FFEF1D
:101437001FAC0670011E4C70F622909C437403F09B
:10144700A3F1A84409F19554EEF19554DDF0910FFD
:1014570071CEEFF47002EEF4600871CEBEFE0ABFE3
:10146700FF07909C4374028005909C437401F0A38E
:10147700F0F1D97004F1BE918F1276407F507E0053
:1014870021F5909C48E04444F07F0A7E0021F51244
:10149700418B5004AF068000900BB5EFF0909C4154
:1014A700E09009D9F0909C42E09009DAF0900BB5F2
:1014B700E0C394405013129766900BB512760FF164
:1014C700C5900BB5E004F080E49189909C49E05405
:1014D700DBF07F037E0021F5124182F1A94424F05D
:1014E700910F909C47E04403F07FF47E0131F59023
:1014F7009C47E054FCF0F1D97003F1BEF0919012D3
:10150700418B5004AF068000900B90EFF0A3743F1F
:10151700F0900B90E0FFA3E0D39F403212976690C4
:1015270009D9E0FF900B91E0FEC39F4005909C41D5
:10153700EEF09009DAE0FFEEC39F4008900B91E0D0
:10154700909C42F0910F900B91E014F080C39009AA
:10155700D9E0909C41F09009DAE0909C42F022F1AA
:10156700E05004AF068000900BB7EFF0900BB7E0A8
:10157700D3943F502B129766909C49E030E1089036
:101587000BB7E0909C41F0909C49E030E408900B49
:10159700B7E0909C42F031F1900BB7E004F080CCBB
:1015A700909C49E030E107909C48E04404F0909C0F
:1015B70049E030E407909C48E04440F09190909CCB
:1015C70049E030E1031248D7909C49E030E4031228
:1015D70048CF31F1909C49E030E104E054FDF090B0
:1015E7009C49E030E404E054EFF07F027E0021F5EF
:1015F700900B73EFF030E603124875900B73E0FF22
:1016070030E70312486DEF30E606909C41743FF0D7
:10161700900B73E030E706909C42743FF0900B7399
:10162700E0FF30E603124865EF30E70312485D310B
:10163700F1900B73E0FF30E603124855EF30E703F4
:1016470012484D31F19009D7E06444601A900B734A
:10165700E0FF30E607909C48E054FBF0EF30E707E7
:10166700909C48E054BFF09190F1E05004AF0680A1
:1016770000900B74EFF0A3743FF0900B74E0FFA39E
:10168700E0D39F4038127650FF900B75E0FEC39F62
:10169700400C900B73E030E605909C41EEF012761B
:1016A700489F400F900B73E030E708900B75E09070
:1016B7009C42F031F1900B75E014F080BD900B73F4
:1016C700E0FF30E604124845F0EF30E70271C5222B
:1016D700909C49E0542422900BB8E0541222900BBE
:1016E700B4EFF0F19D4480918F909C45E054FA91BE
:1016F7008F909C46E0547F918F909C46E054DF91F9
:101707008F909C46E054EFF0900BB4E0FF12387DC9
:10171700121C13909C4BE020E305F1B060F52222E8
:10172700AE071237E1909C46E04410F0AF0612383E
:101737007D121C13909C4BE020E204F1B060F5F1A0
:101747009D4480F07F01F19F4420F0910F909C45CC
:10175700E04405F0910F909C46E0547FF0F1C5906E
:101767009C49E054BFF0910FE49009E3F09009D849
:10177700F09009D6E070161275E3C083C082E0FFCF
:10178700A3E054FED082D083CFF0A3EFF022F091F4
:101797000F909C48E0227F647E0031F5909C46E0E4
:1017A70022F0910F909C49E0221297667B017A09FB
:1017B70079DB12B5E4EF22909C48E054BB227F010D
:1017C7007E0021F57F057E0021F5900BB8E0FF54E0
:1017D7001222910F9009D7E0229009E5E0FF9009C6
:1017E700E2E0FEC39F22F071CEEFF422900AEBE015
:1017F7006039900AACE064017019900AEAE0B4031A
:10180700087FC012101E12403A900AEAE0B40C0397
:1018170012404A1240DD1133400C900A1AE070065C
:10182700122B0112B946E4900AACF022900AEBE0C1
:10183700D39400223122EF6016900980E0701004E3
:10184700F0FB7A0979811275C090097F7401F03134
:1018570022EF701B900980E0601511334011900A48
:101867001AE07004900980F09109E490097FF090E4
:101877000980E06008122B0112B98880031217F360
:101887007B017A09798112B5E4EF602E90097FE038
:1018970060283122EF601512759C12B9881229EE63
:1018A700E4FD7F1B1275A812281E800EE490097FA5
:1018B700F07B017A0979811275957B017A0979871D
:1018C70012B5E47F01125996900BD6EFF024ED6024
:1018D7002924AE60071460222454703E71675004B7
:1018E7007F01312D900BD6E06465702EF1E6702AEA
:1018F7007D017F1531F97022801D11334004E4FF0B
:10190700312D900BD6E0B46611900AEBE0700B7D99
:10191700017F1631F970031217F322E4FF1266569E
:1019270030E7027F0022EFB401097167500CE00431
:10193700F0800711334003E014F0900AEBE0B42085
:10194700117D017F15716FB40C08319AEF70031286
:1019570017F3900AEBE070117D017F16716FB40CDD
:1019670008319AEF70031217F3F1F47F01020012A6
:10197700900AECE06007E4F01217F3800B900AEC92
:101987007401F0FDFF120FDD90091BE0B401031293
:101997000E8222900980E0FF227F01125996900B58
:1019A700C7EFF014604924EE602924FE604124B09B
:1019B700600714601E24547038716750047F01312A
:1019C7002D900BC7E064657028F1E670247D017FD8
:1019D70015801911334004E4FF312D900BC7E0B493
:1019E700660F900AEBE070097D017F16020A01314C
:1019F7007722120A01319AEF22900B9EEFF0E4A3AF
:101A0700F0D3900964E09400900963E094004025C6
:101A17009009651284DFC000C001C002C0031249EB
:101A270018E4FCFDD003D002D001D0001249F79092
:101A370009631249E9900963E07002A3E06002615B
:101A47002D7B64FAF9F89009651284D312835890B4
:101A5700096E128570900963E4F0A37464F0A31211
:101A6700857C00000000E47F107E0E715B400890CB
:101A7700095D7402F08019E47FAC71594008900940
:101A87005D7404F0800A7156400690095D7405F094
:101A970071564015E47FAC7E0DFDFC90096E122453
:101AA70039500690095D7405F0900B9EE0B4010A69
:101AB70071565006900B9F7401F0900B9EE0700AD0
:101AC70071575006900B9F7401F0900B9FE06401D3
:101AD700705490095D7406F012001612976690090B
:101AE70072E0602CE4F07B017A0979697F107E2728
:101AF700FDFC12B5B27D017F0F120A01F1ED900ACC
:101B0700EAE0640C7020319AEF701B1217F380160D
:101B17007B017A09796912B5E4EF600AE4FD7F0F6A
:101B27001275A812281E02001612434C600D24F7E6
:101B3700600E240A7018123A0D800812403A80038A
:101B470012404F7B017A0679DD7D011220FC22E4E9
:101B57007F487E0DFDFC90096E1284DFD302840E50
:101B6700900AEBE0C3942022120A01900AEAE022CD
:101B7700900ABBEFF0BF5821900A1CE0C3940240C3
:101B870002E4F0900A1CE004F0E0B4010C7B017A57
:101B97000A79BC7FF47E01911371FE700E900A1CC6
:101BA700E0B40107E4900ABBF0804671FE70149020
:101BB7000A1CE0B4020D900ABB7467F0E4900A1C9B
:101BC700F0802E71FE602A900A1CE064017022905A
:101BD7000ABB7458F0E4900A1CF012345EEF6011EF
:101BE700E4FD7F1E716FB40C08319AEF7003121772
:101BF700F3900ABBE0FF227B017A0A79BC12B5E4B5
:101C0700EF227B017A0979817F007E007D007C00CD
:101C170002B5B212760812B5E4EF7002FF2212760F
:101C2700087F05911112324D900BCEEFF090099E6F
:101C3700E024FE604914700281EF24036002A12FA3
:101C4700900BCEE0FEF47011127631E054BF12759E
:101C5700F9F0E054FDF07F0022900993EEF0640C58
:101C67006004E0B41508B13B7FB87E0B8006B13B3A
:101C77007FF47E01911390099E7402F0A1341275CE
:101C8700D7603BE490099EF0EE64016026EE24FEE7
:101C970060131460151460172404701790961CE0E5
:101CA70054BFF0800E127631800912762980041213
:101CB70075FAF0F1C52467F582E434098064B13B15
:101CC70012B5E4EF6067B137B424067FE87E03807E
:101CD700047F2C7E01911390099E7403F0F1C524B3
:101CE70068F582E43409803A1275D76013E49009E5
:101CF7009EF0EE25E025E0246AF582E4340980228F
:101D0700B13B12B5E4EF6025B137B424067FE87E16
:101D17000380047F2C7E019113F1C52469F582E4C9
:101D27003409F583E493FF22E490099EF07F0022B3
:101D3700900993E07B017A09799422D080D0807B47
:101D4700017A0A79349006A1126B837B017A0A79AA
:101D5700397F64911190057AE06403703BF1DF905D
:101D67000A3EEFF030E6147F16D1C04480FDF175CE
:101D77007F16D1C0549FFD7F16807690057BE0606B
:101D87000BF1D8EF20E002C1457F0122900A3EE027
:101D970020E002C1457F012290057AE0640470309B
:101DA700F165900A3EEFF030E50DD1BE4480D1B623
:101DB70054DEFD7F12803A90057BE06009F1D8EF91
:101DC70030E07B7F0122900A3EE020E0717F012214
:101DD70090057AE060046402702CF1CEC006F165CC
:101DE700D0E04F900A3EF030E212D1BE54D9FD7FC9
:101DF700127EA3128F8012935E7F0022900A3EE02C
:101E070020E13B7F012290057AE06401702D7F136A
:101E1700D1C07F00FEC007C006D1BEFDD0E0FED016
:101E2700E04DFF900A3EEEF0A3EFF030E2037F00B3
:101E370022900A3FE030E0067F01227F00227F6088
:101E4700D1C0645D60037F00227B017A0A79341276
:101E5700B5E4EF7006129758EF7035F1DF900A3E40
:101E6700EFF054DF4401FDF17590057AE0640370EB
:101E770014A3E070107F32FE1290017F16D1C0309C
:101E8700E0037F0122D1BE54D6F16DF16C7F0022B1
:101E97001297667B017A0A793912B5E4EF7002A1CD
:101EA7005C7F0112AFF6EF64016002A15CFF22FDC7
:101EB7007F127EA3128F807F127EA3128C84EF2263
:101EC7007F81D1CD7F02900BD9EFF0547F1237720B
:101ED700900BD9E030E739D1BE54DFD1B64440F199
:101EE7006DF1CEC006F165D0E04FF16D7F13D1C023
:101EF7007F00FEC007C006F165D0E0FED0E0EE44EB
:101F070020FD1237CD7D407F1012367F7F1180492B
:101F17007F16D1C054BFFDF1757F16D1C04480FD37
:101F2700F175F1CEC006F165D0E04FF16D7F13D1A9
:101F3700C07F00FEC007C006F165D0E0FED0E0EE2E
:101F470054DFFD1237CD7D407F1412367F1237DA0A
:101F57007F16D1C04410FD7F167EA3028F807F12AB
:101F67007EA3028C84E4FD7F127EA3028F807F16FE
:101F77007EA3028F8012C8CB90A6227409F0909896
:101F870083E4F01232011230287FF47E01128AF8BE
:101F9700126BEDF1EDE4FDFF127621D1C04440FD57
:101FA7007F01127621D1C054DFFD7F017EA3128FFE
:101FB70080E4FF12566CD1C7E4900A99F022900989
:101FC70093E025E025E0227F137EA3128C847E0018
:101FD700227F007EA5028C847F167EA3028C8490CC
:101FE7000AEBE06420227F647E00028AF871309059
:101FF7000AEBE07010900AACE0700A900AECF07DF2
:1020070001FF120FDD900AACE0B40109121833404A
:1020170004A37401F0900AECE0B40105E4F0121790
:10202700F322125F99600304700D113FEF70059062
:1020370006FD04F0121FF4227B007A007900900B52
:10204700791285E6E4900760F0900702E0701612B7
:102057005D45FFD390072FE09F90072EE09E400538
:10206700E4F0A304F0900B791285DD900513128537
:10207700E690072EE0FFA3E0900516CFF0A3EFF060
:1020870011F5129C6BEF7007900B9C740580267BF3
:10209700017A07793F7D0B5114900A65EFF07B01B8
:1020A7007A0679DB7D1811FC11F512CEE6EF70097F
:1020B700900B9C7407F07F00229003F312857C003D
:1020C700000000900768E0601BE4F071B09003EF38
:1020D7001284D39003F39139400A9003F312857C5D
:1020E7000000000012349BEF7F017001FF227B018B
:1020F7007A07793022900B3D1285E6900B40EDF080
:1021070012616D715C4002E4F071544002E4F0909A
:1021170006DB745AF0900AEAE0FF60049006DCF0F0
:10212700900AEBE09006DDF0F1D54002E4F0900A6A
:10213700EAE0FBB40116900702E09006DEF0900A91
:1021470065E09006E351059006DF8018EBB40217AF
:10215700900702E09006E8F0900A65E09006ED51DE
:10216700059006E9128570510C9006F2EFF0900B7E
:102177003DF1B36033900B40E0602D7D5AE4FF12D0
:10218700BA06900B3D1285DDC3E994DBFF900B3D4A
:102197001285DD900B40E0900AE3F012503D900667
:1021A700F2E0FD7F1712BA0622C374E831F9D3941F
:1021B70001400FE49006E8F07B017A0679E87D019B
:1021C70011FCC374DE31F9D39401400FE49006DEAD
:1021D700F07B017A0679DE7D0111FCC374DD31F9EC
:1021E700900AEBE06F600A7B017A0679DD7D0111C9
:1021F700FC2294DBFF12BFF4900BCBEFF022F090A0
:10220700074B0284D37B017A0679DB7D17900B415C
:102217001285E6900B44EDF0E4FE900B44E0FD14CC
:10222700F0ED6025900B411250F31280F66EFEE43C
:10223700FFEFC3940850E3EE30E007C313648CFE4E
:102247008004EEC313FE0F80E8AF0622510CAB07E4
:102257009006D8E020E05D9006DBE0645A70559068
:1022670006F2E06B704E9006D8F09006DCE0900A1C
:10227700EA7192942040037419F0715C4002E4F013
:1022870071544002E4F0719F900AEAE0FAB4010940
:10229700717971649006E4800BEAB4020E716D7176
:1022A700649006EEF1C2E4900702F0F1D5500261A6
:1022B70053E4F0227E007F1A7D007B017A0679D9EC
:1022C7001287C67A0679DB7B01900AE87418F0E476
:1022D700FF12509A510CAB079006DBE0B45A0790F7
:1022E70006F2E06F601E900A617401F0E49006D96F
:1022F700F0A3F0A3745AF0A37401F07185F0A374EE
:1023070019F08046900A617401F0F1EB900AEAEF48
:102317007192942040037419F0715C4002E4F071EB
:10232700544002E4F07185E0FBB4010C9006DEE056
:10233700900702F07179800EEBB4020C9006E8E08A
:10234700900702F0716D7164719F31B0229006DAC7
:10235700E0C39405229006D9E0C3940B221284D3DC
:1023670090074B0285709006EDE0900A65F09006A5
:10237700E9229006E3E0900A65F09006DF22E490F8
:1023870006DEF09006E8F0900AEA22F09006DDE01B
:10239700543F900AEBF0D3229006D9E0900700F063
:1023A7009006DAE09006FFF022900AEAE0FBB4011B
:1023B700059006E48007EBB402059006EEF1C280B3
:1023C700D7900A64E07050900006E0640170201214
:1023D7009FB8129FDF9006DF9139703BF1A07D0B0C
:1023E70051149006E3E06F702E900A6404F0229077
:1023F7000006E064027020129FB8129FDF9006E982
:1024070091397013F1A07D0B51149006EDE0B507DB
:1024170006900A647401F022128358AC00AD01AE35
:1024270002AF039009F01285709009F01284D390DF
:1024370009EC1284DFC302840E9009E7EDF0A312C2
:1024470085E69009E6EFF090053EE0FEEFD39E505B
:10245700139009E6E0C39401400A900545F1B36083
:1024670003EE70037F00229009E6E0149009EBF079
:102477009009E7E0FF9005451285DD9009EBF154DF
:10248700EF12814E9009E81285DD12BF3FF1A69049
:1024970009E7E064036002A1BCA3F14412810FD3F2
:1024A7009406400312BE90F13B9009F0128570D15B
:1024B7005478009009F01284D3128358EF2402FF56
:1024C700E43E124FC8E47B07FAF9F8128358AF03CA
:1024D7009009F4EFF09009E8F14412810FFEC39FD1
:1024E7004014EEFF9009F4E0FDEF9DF1BAFDD154E1
:1024F700F81282CD80289009E8F14412810FFF90ED
:1025070009F4E0C39FF1BAFDD154F81282CDC37428
:10251700809FFF743A9EFE74099DFDE49CFCC006F3
:10252700C007D15B900001D007D0061284AFD15B02
:10253700D172C003C002C0011284459009F0124451
:10254700E6D001D002D003128495D14E1275B2F1B4
:10255700A69009F0D1517800911F9009EBE075F032
:1025670006402AD162D172C003C002C0011284455D
:10257700C004C005C006C007F1CBD183F1ACAB07DF
:10258700D007D006D005D0041282B2807CD162D1A8
:1025970072C003C002C001128445C004C005C00652
:1025A700C007D17AF1ACAB07D007D006D005D0046D
:1025B7001282BF80549009E7E064027057D14E122F
:1025C70075B2F1A6D1547800F13B911F4006F1CBCB
:1025D700D1838012D17AC374809FFF74519EFE7499
:1025E700019DFDE49CFCC006C007D15B900001D0B3
:1025F70007D0061284AFD15BD172C003C002C001FD
:1026070012844590B1061244E6D001D002D00312DD
:10261700849580259009E7E0B4011EF13B9009F00D
:102627001285709009EC1284D3C006C007D15B9065
:102637000001D007D0061284AF9009E6E0FF12C16F
:10264700CB12BA257F01229009EC1284D37B807AC2
:10265700517901229009EBE075F006A4FF9005453A
:102667001285DDE92FF9EA35F0FA22E92401F9E4C8
:102677003AFA229009EC1284DF9009F01284D3020F
:1026870082BF900B1C12857C00000000E4900B1B9E
:10269700F090053EE0FF900B1BE0FEC39F4002E178
:1026A70038EED15F90000512810F6401707BF14B0A
:1026B70012810FFBB4020FF13BEF2480FFEE345180
:1026C700FEED34018011EBB40313F13BEF2480FFDF
:1026D700EE343AFEED3409FDE43CFC800AF14B127E
:1026E700810FB40108F13B900B1C128570900B1BF6
:1026F700D15E900001128465900B1C913960239084
:102707000B1BD15EF1DF12729AC312840E60139015
:102717000B1BD15EF1DFEF24FE12729DC312840EF4
:102727007007900B1BE004FF22900B1BE004F0C125
:10273700987F002290B1060284D390069D1285DD12
:10274700900004229005451285DD900B1BE075F083
:1027570006A4F58285F08322A2AFE433900BBCF088
:10276700C2AFF14112810F701D12844512460390CA
:102777000611D183E4FBFAF9F8C31283F85007F185
:1027870041740112814E900BBCE024FF92AFD080C0
:10279700D080F14112810FFF229003D80285DD908E
:1027A70009EC028570A804A905AA06221285DDE9AD
:1027B7004A4B22FFE49400FEE4FC221284D39003E8
:1027C700F30285709009F01284DF9009EC229007DC
:1027D70002E0D3648094812290000112850B900B54
:1027E7001C0284D39006DCE0FF22900BB3EFF07F4E
:1027F7000122900B78E0700F900B95E07009110F94
:10280700710112B98811232290091BE0B401031248
:1028170064F71262DEF022110F127639D310AF017E
:10282700C3C0D012BAA280FE90988AE04430F090DC
:10283700988CE054FAF011D4909804E0B4170890FB
:10284700B0077403F08009907FC0E49390B007F05D
:1028570090B000E41217ED4E600711D490B0081144
:10286700DB7D027F0712B9887D027F0512B9889048
:10287700B009E020E15611D490B00911DBF50AF553
:102887000B050BE50B7002050A640A450A70F2E4B2
:10289700F50AF50B90B004E030E01F90B004E0308B
:1028A700E1028011050BE50B7002050AD39440E5A0
:1028B7000A941F40DFE4FF02BA9A90B004E020E0D8
:1028C700DAE020E1D6E4FF12BA9A11232290B00091
:1028D70074FFF022E04402F090B000E4F022900B85
:1028E700DDEFF012B957900BDDE0FF700911D4311D
:1028F7000BE04404800BEFB4010911D4310BE04421
:102907000811DE2290B009E054F3F02211D4EF70E1
:102917000F90B204F090B203315190B205F08024C9
:10292700EFB4010E90B204E4F0A3315190B203F07A
:102937008012EFB4020E90B203E4F090B205315169
:1029470090B204F090B000E4F022F0ED90000E9306
:1029570022E490099EF0127608127595E4FF11E5BE
:10296700E4FF12C06B12C00E90961DE054DFF0A377
:10297700E04420F0909620E04420F0A3E04420F0CB
:1029870090961CE054EF31ED90961DE054BFF0A3F4
:10299700E04440F0909620E04440F0A3E04440F04B
:1029A70090961CE054BF31ED909602E054FBF0A3E3
:1029B700E04404F0909605E04404F0A3E0440412D8
:1029C70075F931ED909602E054FDF0A3E04402F072
:1029D700909605E04402F0A3E04402F01276297FC6
:1029E700027E00028AF8F07F027E00028AF8900ACF
:1029F700EAE0900BC1F0E4FF1259969009B2EFF0AC
:102A070064576004E0B44202111EF152EF602D904A
:102A17000AEAE0FF64076024EF6408601F9000067D
:102A2700E0B4030A900AEAE0B40D03120FD2120FC2
:102A3700D97F967E00128AF87F0251E8125807EF75
:102A470060047F0351E812582AEF60047F0751E8BA
:102A5700914E12B5E4EF6025914E7F64121C11125E
:102A67005888EF6007710112B9888011900A1AE03F
:102A7700700B900AACE07005710112B94612434C15
:102A8700601E24FD24FD5022240770359006D2E0F5
:102A97006007D103EF702A800DF174EF7023800671
:102AA700124353EF701B7F018015120018EF70114E
:102AB7007F907E01128AF812582AEF70047F02F184
:102AC7001C9009B2E0B41418900006E0B4030A9011
:102AD7000AEAE0B40D03120FD2900AEAE0FFD15ED2
:102AE70022900AEAE0900BC0F0B1EAEF700B900B6E
:102AF700C0F11670047F01D15E227D107F2012B9CC
:102B0700467D107F2112B9887D107F1D12B9887DFF
:102B1700107F1E12B9467D107F1C22112F74FFFFF4
:102B2700FE12B83F12B8CC129766E4900BA6F012CB
:102B3700515B126056D2AF126102915512610912B0
:102B47006118E4FDFF3113710112B988E4FF1262C5
:102B57005C12498AE4FF12388A12225312651B124B
:102B67004E37D1A61297661249D4916A31F512648D
:102B770013600F14601624FC601724FB6009240BF4
:102B87007012120A57800D12183B80081219A08084
:102B9700031251B212631A80CB9009867401F09028
:102BA7000978F012759C12B94612755612404A12EE
:102BB70017F3121922EF600D9009807401F071016B
:102BC70012B988800F900A1AE07004900980F0719A
:102BD7000112B946123FDF1220FC1275CB12B988D9
:102BE7001274F712B9887D207F0F12B98812747B8F
:102BF70012B9887D017F2012B9467D017F2112B964
:102C0700887D017F1E12B9887D017F1D12B9467D1F
:102C1700027F2012B9467D027F2112B9887D027F8B
:102C27001E12B9887D027F1D12B9467D807F021270
:102C3700B9467D807F0312B9887D807F0512B9462A
:102C47007D807F0602B9467B017A0979B92231581E
:102C5700B1BE9163FFFEFDFC02B5B2F07B017A0ABB
:102C670079202212617E900BCDEFF0600F121C09C4
:102C7700E490097F12758EE4900773F0900A27E0BD
:102C8700B40102B1CE900A1DE07002A3E060259165
:102C97006312B5E4EF7007900BCDE0B42216916391
:102CA7007F887E13121C13900BCD7421F0E4900AD9
:102CB70027F0A1A7900BCDE0FFC394164074EFD384
:102CC7009420506EB1C66007EF64026002A195B10F
:102CD700D7F0900BCDE0FBB4201F900A1DE0FEA3B8
:102CE700E0FF7C007D0A128182ED4C6002B1BEB12B
:102CF700E0900A257401F08026900A25E06011EB28
:102D070024EAFFE434FF900A1D8FF01281D7800A6E
:102D1700900BCDE024EAFF124A0AE4900A25F0E47A
:102D2700900BCD91627FD07E07FDFC12B5B2B1CE7C
:102D3700806E900BCDE0FFC394314059EFD3943BA5
:102D47005053B1C66005EF64027055B1D791627FE9
:102D5700887E13FDFC12B5B2900BCDE0FFB43B04A7
:102D6700B1E08007EF24CFFF124A0AB1CEB1C660A7
:102D770004EFB40219125D45FFD3900A1EE09F903D
:102D87000A1DE09E5008900BCD743CF08012E49031
:102D97000BCDF0800B900BCDE06005B1BEB1D8F044
:102DA700900BCDE0FD600F7F01120F8F900BCDE0F0
:102DB700FDE4FF120F8F22E4900A1DF0A3F022908A
:102DC7000AEAE0FF640122900A1DE0FEA3E0FF2269
:102DD700E4900A27F0900A2622900A1DE475F00A6B
:102DE7000281D7EF24FD600C24FC600D24FB6007F3
:102DF700240A800802421CE13E02423FE4900BBED7
:102E0700F0900A19E0B40109120FD9900BBE7401B2
:102E1700F0F174EF7006900A19F0FF221209E5121B
:102E27000FD2120020900BBEE07003120FD912B21E
:102E37004FEF7002FF227F021241BD7F0912101E61
:102E4700E4FD7F0D120A017F02125CC8EF7002FFDA
:102E570022125E717F0122E4900B97F0900B97E0AE
:102E6700FEC39404501174A92EF136E06F600890E8
:102E77000B97E004F080E5E4900B96F012976690CC
:102E87000B97F12E4002E4F0900B97E024A9F1365E
:102E9700F116700A900B96F12E40E11257D0227B63
:102EA700017A0679F4121C0F914E121C0F90963D71
:102EB700E054FCF012B65BF1A9121C0F7B017A09F2
:102EC70079AD7F2C7E01121C137B017A0979AD1233
:102ED700B5E4EF7007F15212580780ED12588812C7
:102EE7005800900A13E0B40108900AEA7403F080CE
:102EF70012900A19E0900AEAB401057402F08003FF
:102F0700740CF0900AEAF11670047F0CF11C22E0B1
:102F1700FFB1EAEF22900BBFEFF0B1EAEF70079035
:102F27000BBFE0FFD15E22E004F0E0C3940422F57A
:102F370082E43409F583221209E57F0C1241BDE4CE
:102F4700FD7F0B120A0171A07F0122900A19E09000
:102F57000BC2F0F174900A19EFF0900BC2E0700AFF
:102F6700900A19E060047F0180027F0022F1A91214
:102F7700B5E4EF7006900428E07021F1A97F2C7E5C
:102F870001121C139004287401F012B0CB900A10A0
:102F9700EFF012B83C7F147E00128AF8900A10E016
:102FA700FF227B017A0A791422D310AF01C3C0D064
:102FB7009006A0E0FF6406600EEF64056009EF6409
:102FC7000760047F008055900AEAE0B404169099E0
:102FD70001C083C082E0FFA3E04404D082D083CF46
:102FE700F0A3EFF0123441E06F600E900A9C1232AA
:102FF70046F0123441EFF08021900A9CE07002A362
:10300700E07017900A9C04F0A374F4F011285101A2
:103017009006A07408F07F0080027F01D0D092AFA5
:1030270022D310AF01C3C0D0909644E054FCF0D037
:10303700D092AF229096457403F05132EF6018900A
:1030470006A0E064076010900A9C740BF0A374B8A4
:10305700F09006A07407F09006A0E0FE702B31C236
:10306700EF600C5114EF7007900A97F0A3F022312C
:10307700ECFCC3E5F09464EC9400500221C131F6F6
:103087007402F0900A9614F022EEB4012631C2EFD2
:10309700700221BF5114EF600221BF900A9731F0EF
:1030A700FED3E5F09464EE9400500221C1E490064B
:1030B700A0F0229006A0E06402703D31D931C2EF42
:1030C700600A5114EF700531F704F02212001DEF6A
:1030D7006401700221C1900A9A31EFFEC3E5F094B2
:1030E700D0EE9407500221C1E4900A9AF0A3F05160
:1030F700019006A07403F0229006A0E0FE6403701E
:103107001F31C2EF7016126BED31C2EF6008112844
:1031170031F67404F022112831D921BF31D921BFEA
:10312700EEB4041A31C2EF600431D921BF31ECFE8D
:10313700D3E5F094F4EE9401500221C1800D90067E
:10314700A0E0FEB4051D31C2EF70079006A074061B
:10315700F02231ECFCD3E5F09432EC9400405B3183
:10316700D98055EEB406139164EF6002512B31C23A
:10317700EF60479006A07405F0229006A0E0FEB429
:1031870007215132EF70069006A07406F0D3900A1B
:103197009DE09400900A9CE09400401E74FFF5F0B7
:1031A7000281D7EEB4080F1128510131C2EF600A2E
:1031B700112831D9800231D9512B22900AEAE0B483
:1031C7000408909612E05402FF2290A628E05404C7
:1031D700FF22D310AF01C3C0D0909644E04460F003
:1031E700D0D092AF22900A97E475F0010281EDE406
:1031F700900A97F0A3F09006A022D310AF01C3C0A6
:10320700D0909644E0549FF0D0D092AF22900AEA33
:10321700E0B40408909612E05401FF2290A628E03B
:103227005402FF229006A07402F022909644E054C4
:1032370003FFBF03047F0180027F0022900AA77467
:1032470001F0A374F42212C032EF60175143F090DB
:103257000BA07401F0E4A3F012C03E90099A128506
:1032670070801A12C01EEF600D5143F0E4900BA05E
:10327700F0A304F08007E4900BA0F0A3F0900BA05C
:10328700E0FF7006A3E070028109EF6005E4900992
:1032970092F0900992E0C394055003E004F090097E
:1032A70092E075F046A4FFAEF0E4FCFD7B017A09DD
:1032B70079A412B5B290099BE0FF90099AE02FFF1D
:1032C700E433FEEFF44E6002810190099CE0647FD5
:1032D700707AA3E064807074900991F0912F941C28
:1032E70040028101EF25E024D6F582E43408F58316
:1032F700E493FE7401913A6E7003A3E06F704990F6
:103307000AEAE0640C60028115915EEF7002811594
:10331700900991E024FE601514601B1460212404B9
:103327006002811590961CE04440F0811590961C30
:10333700E04420F08115909601E04402F081159059
:103347009601E04404F081159128809090099CE053
:10335700F4701FA3E0701B900991F0912F941C400B
:10336700028101EF90090E913AB507028115912864
:1033770080E990099CE0FE64BF703EA3E0703A903C
:103387000991F0912F940C500FEF90092A913AB5BB
:103397000702807A912880EB900991740CF0912FA5
:1033A700941C5056EF90092A913AB5070890099155
:1033B700E02409803D912880E5EE64FD703C90098A
:1033C7009DE064027034900991F0912F940C500B9A
:1033D7009136B507028037912880EF900991740CD8
:1033E700F0912F942150139136B5070A900991E077
:1033F7002412F0E0FF22912880E790099174FFF0F2
:10340700FF227B017A0979A412B5E4EF70069009CF
:1034170091E0FF2290099A12857C000000007FFF4F
:1034270022900991E004F022900991E0FFC322EF76
:1034370090094693FF90099AE0227F0C7EA3128C95
:1034470084900A99229005BFE0B40508A3E0B4ACC4
:10345700037F01227F0022900A1FE0FF22909644FB
:10346700E05440FF22914C9006ACEFF022900BA65F
:10347700E07002113B12500D0227F9112890966A4D
:10348700E4F0900ACCF090079FF022E4FFFEFDFCE9
:103497009003F32212C7F79003E7E0FFB19190037F
:1034A700E9E0FEA3E0FFD1C3B134E490075FF01277
:1034B700CEB81200F912B7CA12602B4E700E900BDD
:1034C7009CE0640960037408F07F0022B12CFF12AE
:1034D700CD92B12CFF900404E02FFF900403E03E4F
:1034E700FE900405E0FCA3E0FDC390040FE09DFD02
:1034F70090040EE09CFC12CDA0125E5F125FA81232
:103507001C139192121B604005E47FC88002E4FF00
:10351700FEFDFC7B017A07796912B5B29006FD744E
:1035270002F07F0122900405E0FEA3E0229007004D
:10353700E075F00AA42426F9740835F0FA7BFF90A9
:103547000B551285E690040CE06401703CFF900B6C
:1035570055126B8E2409900B58F0D394804004E4E5
:10356700F0800C900B58E0C3940D4003740CF0905E
:103577000B58E09007E393FE740D2FF582E4349522
:10358700F583EEF00FEFB40AC52290040CEFF0E4D8
:1035970090040AF0909901C083C082E0FFA3E04441
:1035A70002D082D083CFF0A3EFF012C8189095090C
:1035B700E054E0F0909500E04408F090040CE0241B
:1035C700FE60251460292402704990966AE054F23F
:1035D700F090951B7401F0A374C0F09095187403D4
:1035E700F0900403740F802490951DE04402F012BC
:1035F70058B4909500E04404F090951BE4F0A37450
:1036070080F0A3E04401F09004037420F0A3E4F0F9
:103617007F01227F0022121F7CD14012C7F712C8F8
:10362700187F03B1919003E912662FFF7EACD1C3D7
:10363700123A231217F302CEB81261097F0112CD95
:1036470082E4FD7F06D17F7F07D1767F09D17F7F17
:103657000B7EA3128F80D187D310AF01C3C0D09048
:1036670004037420F0A3E4F0F1D4D0D092AF227E0B
:10367700A3128F807D107F087EA3128F80E4FD2226
:103687007D04F1737DC07F14D17FF1DA7F17121F9C
:10369700D0C006121FDFD0E04FFD121F757F171233
:1036A7001EC07F00FEC007C006121FDFD0E0FED09D
:1036B700E0EE4440FD7F177EA3028F80EEFA909CD8
:1036C7000812857C01000000EAC3942750047B8D13
:1036D700805DEAC3942D50047BB38053EAC39436CC
:1036E70050047B918049EAC3944A50047B95803FFC
:1036F700EAC3945950047BB78035EAC3946D5004EC
:103707007BB9802BEAC3949450047B998021EAC348
:1037170094B3501990966AE030E00E7B88909C082D
:1037270012857C001A000080067BA380027B891229
:10373700380C909C06E06B6013909C00E0547FF07F
:10374700909C06EBF0909C00E04480F0900BDFE04B
:1037570070161275E3C083C082E0FFA3E054FED069
:1037670082D083CFF0A3EFF022F0E4FD7F0E7EA39B
:10377700028F80900B111285E6900B14ECF0A3EDED
:10378700F07D03F1737F0E121EC0640360047D0396
:10379700F173900B14A3E0FD900B111285DD7F2CC4
:1037A700127619121F6EF1CB900BAAE4F0A37432B4
:1037B700F0E4FD7F03126AF4EF70047D088002E4F1
:1037C700FD121F6E7D207F137EA3028F8090951CB4
:1037D700E0F0227F157EA3028F8012382B30E002A3
:1037E7007F019009D6EFF0909901C083C082E0FF76
:1037F700A3E04401D082D083CFF0A3EFF0909C06E2
:10380700E04480F022112B30E0027F01900BDFEFC4
:10381700F0909901C083C082E0FFA3E04401D08209
:10382700D08380D4909901A3E07F0022900B6DEFA5
:10383700F0A37401F0129766909C46E054F0900B49
:103847006FF0E0FF900B6EE0FEEF4EA3F0900B6D74
:10385700E0B4010BEEB40707900B6FE04408F0905B
:103867000B6FE0909C4612148F900B6EE004F0E013
:10387700C3940840C02211337B017A0979DB7FB8F2
:103887007E0B22AE079009E3E0707B1237E1AF06AB
:103897001216E5909C00E4F0909C49E04440F01239
:1038A700140F310E7481F0909C00141217ED700202
:1038B700EEF460091213CEBEFE0DBFFF0A909C43C3
:1038C7007402F0A3F0800D909C437401F0A3F09074
:1038D7009C4AE4F0909C04E4F031167411F09009CE
:1038E700E2740AF09009E5F01213C1E49009D8F0E8
:1038F7009009E304F0909C01E04403F07F327E00DE
:103907001211F512177822909C057442F0A32290A9
:103917009C03F0909C0222900B25125B171237E153
:103927001213CEEFF47002EEF460631213CEEFF4CD
:103937007003EE64FE6057900B2531F6C333CE3328
:10394700CED8F9FF7C007D05128182900B25EEF021
:10395700FAA3EFF0FBA331F6C333CE33CED8F9FF8A
:103967007C007D05128182900B27EEF0A3EFF0D348
:10397700EB94EAEA940B4005900B255105D3900B85
:1039870028E094EA900B27E0940B40025105900B36
:103997002531FDA331FD900B25E0FCA3E0FDECC430
:1039A70054F0FBA3E04B9009E0F0AF05A3EFF090D4
:1039B7000B27A3E09009E4F0909C04EFF0909C02A1
:1039C700E0540FF0C083C082E0FF9009E0E0FE54AE
:1039D700F0FDEF4DD082D083F09009E4E03116E09E
:1039E70054F0F0E0FFEE540FFEEF4EF0021778E0D0
:1039F700FEA3E0780222E0540FF0A3E0F022740B5C
:103A0700F0A374EAF022900AEBE025E02494F58213
:103A1700E43408F583F1B6FDAC06211E9009C051C8
:103A27004E900B98EEF0A3EFF09009D3514EAD07EF
:103A3700AC06900B98E0FEA3E0FF311E7B017A06EF
:103A470079DD7D010220FCE0FEA3E0FF900AEBE0B8
:103A570075F0029008941285D1E493FC740193FDEC
:103A67001285EFE47BE77A03F9F8028358512312B2
:103A770017F3E4900AECF0229007F8E0642170193C
:103A8700A3E0B40114A3E07010A3E0B4010B900805
:103A970061E0B40102E1AF80D49007F8E0642170DF
:103AA7002AA3E0640170249007FBE06402701C9075
:103AB70007FAE0900862B4010771A99009C0800570
:103AC70071A99009D3F0A3EFF041239007F8E0B470
:103AD700A110A3E0B4820B9007FBE0B402047D02BF
:103AE70080789007F8E0B4A114A3E0B4830F90079F
:103AF700FBE0B402087D027FE77E0361A59007F82B
:103B0700E0B4A114A3E0B4840F9007FBE0B402086B
:103B17007D027F017E0061A59007F8E064A1702512
:103B2700A3E06481701F9007FBE0B402189007FAC6
:103B3700E0B401059009C080039009D3E0FEA3E03B
:103B4700FF7D0280599007F8E0B4A113A3E0B48188
:103B57000E9007FBE0B401077D01E4FFFE803F9074
:103B670007F8E0B4A10CA3E0B4FE077D01E4FFFE73
:103B7700802C9007F8E0B4A113A3E0B4810E90075E
:103B8700FBE0B40A077D01E4FFFE80129007F8E02E
:103B9700B4800E9007FEE060087D01E4FFFE126B23
:103BA7009922E0547FFE900861E07C002400FFEC3E
:103BB7003E22E4900AA3F0D080D080FE7F08FD7BF0
:103BC700017A0579BF1287C6B197A37408B1B5B159
:103BD70083700AB17A7006B17A7002FF2290022CC4
:103BE700E0FF900A9FF0900233E0900A9EF0D3EF37
:103BF7009400748094814003E4A3F012BDF790060B
:103C0700A17427F0A37410F012CA15EF7002FF22F7
:103C1700B197900A9EE0900398F0B1C1B187700206
:103C2700FF2290023CE0900AA4F0900235E0FE905B
:103C3700023471B09005BFF0A3EFF0900237E0FEB9
:103C4700900236E02400FFEC3E9005C1F0A3EFB1EF
:103C5700B5F0A37409B19F7002FF2290022EE09085
:103C67000A9FF0D39400748094814002E4F0B1C1BC
:103C7700B19F7002FF2212B007BF0107E49006ACA4
:103C8700F0FF227B017A02792C900AA01285E69038
:103C9700022EE0242CFFE43402FAA9077B01C003BB
:103CA700C002C001900AA01285DDC3D082D083D0A4
:103CB700E0E99582EA95834002A177900AA01285F0
:103CC700DD125A6FFF6404703690000512810FB43D
:103CD700081990000612810FFE64056004EEB40611
:103CE7000A90000712810F64506007E4900AA5F05C
:103CF7008006900AA57401F0E4900AA3F0804EEFC5
:103D070064057049900AA5E0604390000312810F93
:103D1700540364027037B1AF30E719540F9003674B
:103D2700F0A37405F0B191900369F0900AA3E04401
:103D370001F08019B1AF540F90036AF0A37406F035
:103D4700B19190036CF0900AA3E04402F0900AA3AB
:103D5700E0B4030F900231E0FF12CA64EF7F0170F5
:103D670011FF22900AA0F1A9FF900AA1F1D981962B
:103D77007F00227B017A02792C9004B1F0A37408AA
:103D8700F0E4FD7F0112AA35EF2290000402810FB3
:103D9700E4900396F0A3F022F0E4FD7F0212AA3527
:103DA700EF229005AF1285DD90000202810FF07BB4
:103DB700017A02792C9004B1E4227B017A02792CF2
:103DC700900A9FE0FF9004B1E4F0A3EF22B1A97538
:103DD700F002908A791285D1F1B690000312810F13
:103DE700FD7C00EF2DFFEC3ECF24FFCF34FF900B7F
:103DF70016F0A3EFF0128203FFAEF012C07BEF6064
:103E07000CB1A9D394024005900B16D18B9005AF46
:103E17001285DD1282032444FD2403FFE433FEEF01
:103E27007802CEC313CE13D8F9900B1AF0AF05E47E
:103E3700FCFDFE7B6D7A01F9F81282CD900B1A1208
:103E47004FA6FE900B17E02FFF900B16E03E900B4E
:103E570018F0A3EFF0900B9AE0B40208900B9BE0E8
:103E670064036010D183FF12BFDB9005AF122744B4
:103E7700EF12814ED080D080D183FF22900B18E0C3
:103E8700FEA3E022E475F0010281D7F166900A2CC7
:103E97001285E6F15AE4C39F900A31F0603EF16063
:103EA700900A31E0FF900A71E4F156124CD8900A5B
:103EB700281284DF900A311272531282B2F166908F
:103EC7000A31E0FF7E00900A2DEE8FF01281D7C3F2
:103ED700900A30E09FF0900A2FE09EF0C3900A2FDF
:103EE700E094014045E4900A32F0A3F0900A2FE0F5
:103EF700FFC3900A33E09F900A32E09400502BF101
:103F07005AF160900A717401F0A3E4F0124CD8F1F1
:103F17005AE42F124FC4F166900A2D740175F00010
:103F27001281D7900A32D18B80C27E00900A2FA3CC
:103F3700E0FF900A2FEEF0A3EFF06012F160900A15
:103F47002FE0FFA3E0900A71CFF156124CD822F070
:103F5700A3EFF0900A280284D3900A2C0285DD9003
:103F67000A28028570900AADEEF0A3EFF0900AB12F
:103F77001285E6E4900AAFF0A3F0900AAD124A0367
:103F8700900AB0E09F900AAFE09E5015900AB1F1F9
:103F9700A9FF1200E1900AB2D18B900AAFD18B80B2
:103FA700D9221285DD0280F6E4FDFCFFFE211EE426
:103FB70093FE740193FF2212403A5176F1DF0220FB
:103FC700FC12361D5174900ACCF0F1DF1220FC7FF1
:103FD7000122E48FF00281D77B017A0679DC7D012B
:103FE70022AE071237E1EE543FFEED543FFD1216A5
:103FF700D7600A9009D9EEF0A3EDF0800F1213D71E
:10400700602E9009E2EEF09009E5EDF0909C48E013
:1040170020E20B909C41E0543F6E6002EEF0909CD2
:1040270048E020E60B909C42E0543F6D6002EDF0C3
:10403700021778900AEBE0FFAE07EE90097B93FD3D
:10404700FF809E7F2412101E900AEBE0FFAE07EE62
:1040570090099C93FDFF808911C5FFBF4402805BD7
:104067001213DE600211CF1216D77005E0541260EA
:104077003F1216D7600A318B5004AF06800B8009B8
:104087001217E05004AF068000900BB9EFF0900BC9
:10409700B9E0C3943F5017129766900BB9E004F04C
:1040A700E0543F909C41F0A3F012140F80E031825E
:1040B70011C864446005E0444411D50217781237EB
:1040C700E1909C48E0544422909C01E04403F07F37
:1040D700507E000211F511C570022177318211C897
:1040E700600BE054BBF07F1E7E001211F51213DE49
:1040F70060031276401216D77005E05412607112F1
:1041070016D76010318B5004AF068000317AF090DB
:1041170009DA800F1217E05004AF068000317AF0F9
:104127009009E5E0900B2BF0900B2C743FF0900B6F
:1041370029E0FF900B2CE0C39F4035129766900B48
:104147002CE014F0900B2AE0FF900B2CE0FEC39FAD
:104157004007EE543F909C41F0900B2BE0FFEEC3DD
:104167009F4008A3E0543F909C42F012140F80BE7A
:10417700021778900B29EFF0A3EE22909C41743F31
:10418700F0A3F0229009DAE0FF9009D9E0FEC39F7F
:1041970022120FD9115FE4FF12101E12759C12B97B
:1041A700881275CB12B9461274F71262D612B94645
:1041B70012747B02B988900BBDEFF0714C60132429
:1041C700FD24FD502624FD6016240A702412604D3C
:1041D700801F900BBDE064036017125A7580129020
:1041E7000BBDE0640C600A319880061258BC1208B7
:1041F70007900BBDE0900AEAF0900BA7F0120FD9D9
:10420700E4900AECF012610912198F90091BE0B4CF
:104217000102711F227153EF7002FF221209E57F1D
:104227000331BDE4FD7F0C120A011275567FC012DF
:10423700101E123FBE7F0122120018EF7002FF22EC
:10424700120FD91200201209E57F0731BD7F09122D
:10425700101E7F025162710A7F0122EFB401129092
:1042670009CE51D59009CC51E251C97A06797D80A2
:104277004BEFB40237900A0B51D5900A09E0FFA320
:10428700E0900845CFF0A3EFF0900A0D1285DD907E
:1042970008491285E6900A061285DD900800128506
:1042A700E6900A0351C97A07790480109009C7512B
:1042B700D59009C551E251C97A07792490085E0261
:1042C70085E61285DD9007F51285E67BFF22E0FF84
:1042D700A3E0900847CFF0A3EFF022E0FFA3E09020
:1042E7000845CFF0A3EFF09009D01285DD9008497B
:1042F7001285E69009C91285DD9008001285E690BF
:1043070009C222121F7CE49007EDF0900780F0901D
:1043170007EFF090079FF022714C600E24FD24FDFB
:104327005008240770047D018002E4FD7F01120F0D
:1043370001120EFDE490091DF0120E7B7FE87E034B
:10434700FDFC02B5B2900AEAE024FD2290960BE04C
:104357004410F090960EE054EFF0A3E054EFF09085
:10436700960CE054EFF0124F9F909609E030E40B63
:10437700E4900A13F0900A11F08014900A11E0C338
:1043870094145005E004F08006900A137401F0902D
:104397000A13E0FF22900BD5EFF09009027401F0A9
:1043A7001265F7EF7002FF2212C7F79008DEE0FFF1
:1043B700123591900BD5E0FF7E00E4FD124B43EFE1
:1043C7007002FF2291289158EF4E7002FF22912828
:1043D70012CDA0900BD5E0FF641E6009EF641D604D
:1043E70004EFB41C08900AEB7410F08006900AEBF7
:1043F7007418F07F0912101E9008E0E0FEA3E0FF9A
:104407001236C311DD900A1AE07006122B0112B999
:10441700467F327E00128AF8123A0D12CEB87F011B
:1044270022900403E0FEA3E0FF7D007C0222F1A2BC
:10443700EF60037F002212BD13EF70037F0122910B
:10444700289158EF4E7002FF22912812CDA07F01CC
:1044570022900B49125B179008CC1284D39008BCAA
:1044670091E6C006C007900B49E0FEA3E0AA06F953
:104477007B01A3E0FFA3E0900A7ACFF0A3EFF0D08F
:1044870007D006124ACA9008CC1284DF900B4B1251
:104497004D869008CC1285709008BBE07029900873
:1044A700CC1284D3EF24FF124FC4124E9C128358B0
:1044B7009008911285709008911284D390074B91C0
:1044C700E690088D128570900B4BE0FEA3E0FF226B
:1044D7009004531285DD90002712846590045612CC
:1044E70084DF0282B2900006E064046002A1F990C2
:1044F700045AE0B40231900456C083C0821284DFAC
:10450700C000C001C002C003B1FA90001F12846549
:10451700D003D002D001D0001282B2D082D0831251
:10452700857090045AE4F090045AE0702B9004567A
:10453700C083C0821284D3C004C005C006C007B1BF
:10454700FA900027D100D007D006D005D0041282F8
:10455700BFD082D08312857091D7C004C005C00632
:10456700C007B1FA90001FD100D007D006D005D000
:1045770004C31283F85027B1FA900027128465A864
:1045870004C004C005C006C007B1FA90001F12841A
:1045970065D003D002D001D0001282BF801191D71D
:1045A700EC335011B1FA9000271284651283EA9018
:1045B7000456128570B1FAE92427F9E43AFAC003E0
:1045C700C002C001D10CD001D002D003128495B132
:1045D700FAE92423F9E43AFAC003C002C001D10C76
:1045E700D001D002D0031284951265D9D080D08033
:1045F7007F01229004530285DD128465AB07AA066A
:10460700A905A804221284EB9004561284D30282CF
:10461700B2900A4B128570900A4F1285E6900A52A3
:10462700E07002A3E07002C1D0900A4B1284D3EF6E
:104637005401FFE4FEFDFCFBFAF9F8C312840E6097
:1046470017900A4B12853B900A4F1250F31280F6CF
:10465700D1DF900A521249E97F06D1D7F13D7FADEC
:10466700D1D7900A4BF195F11BF19B900A53E024A7
:10467700FEFE900A52E034FF900A54F0A3CEF0D326
:10468700900A55E09401900A54E0940040157FADDC
:10469700D1D7F11B900A5474FF75F0FE1281D7F140
:1046A7009B80DC7F04D1D7F13DD1FE900A52E0FE1A
:1046B700A3E0FF30E013E4FCFD900A4B91E6127291
:1046C7009A900A4F123FA9D1DF22F180D1FE7F06CF
:1046D700AD071265A50200E1900AFCF0900AF812F6
:1046E70085707F06D1D7F13D7F02D1D7900AF8F1C7
:1046F70095900AFCE0F1397F05D1D7120025900B80
:10470700D4EFF0F13D7F017E00128AF8900BD4E0E0
:1047170020E0E422900A4FE475F00112053212807E
:10472700F6FF1200E1900A4FE475F001120532120C
:1047370080F6FF1200E190960AE04408F022900A02
:10474700FD128570E4FFD1D1F13D900B01E0FFD15F
:10475700D7F13D80A2900AF31285707F43D1D1F142
:104767003D900AF7E0FFD1D7900AF7E064C76005EC
:10477700900AF3F195F13DC1FE900BD3EFF07F5016
:10478700D1D7F13D7F01D1D7900BD3E080A412841C
:10479700D3024DA07F017E00029001124CBB90080E
:1047A700CC1224397F0040027F0122900BA4E0B491
:1047B7000307900AF7F1CF809C900BA4E0B40107A0
:1047C700900B01F1CFF1452274C7F07F007E007D89
:1047D700007C0022EF909C50B40105E054FCF022CD
:1047E700E04402F0E054FEF022900BBAEFF01237EB
:1047F700E1900BBAE0FF30E6021175EF30E70211E6
:104807006D900BBAE030E6021165900BBAE030E725
:1048170002115D1211F1900BBAE0FF30E60211555B
:10482700EF30E702114D1211F1900BBAE0FF30E6BD
:10483700031145F0EF30E7031213C502177890090B
:10484700E2E0909C4122909C4FE04420F022909C13
:104857004FE04440F022909C49E04410F022909CA5
:1048670049E04402F022909C4CE04408F022909CDE
:104877004CE04404F0221237E19009D8E05412705A
:104887002E909C49E030E10211D7909C49E030E43A
:104897000211CF1211F1909C49E030E104E054FD80
:1048A700F0909C49E030E404E054EFF01211F190ED
:1048B7009C4CE030E204E054FBF0909C4CE030E389
:1048C70004E054F7F0021778909C4FE054DFF02291
:1048D700909C4FE054BFF0221237E1909C00E4F027
:1048E70012390E74A3F0909C007480F09096417476
:1048F70020F07D037F1D12B9467D037F1E12B98804
:104907007D047F1D12B9887D047F1E12B9460217E8
:1049170078907FDFE493543FFF900B92E4F0A3EF8E
:10492700F0900B9251039424EE94004009D3EF9436
:104937002CEE94004009900B92E4F0A37428F0E465
:10494700FDFF12B0157E007C0C7D1C1285EFC006A2
:10495700C007900B92E0FEA3E0FBAA06E4F9F8D0AB
:1049670007D006128358C3EF94B8EE940B50067E17
:104977000B7FB8800DD3EF94F8EE941140047E11AD
:104987007FF82231CD121C0F7B017A097973121C33
:104997000F900963E07002A3E0602690096331E994
:1049A7009009651284DFC000C001C002C00331183E
:1049B700E4FCFDD003D002D001D00031F731F08004
:1049C700D07F01021A007B017A09795E2231CD126C
:1049D700B5E4EF600C31CD7F32121C11E4FF121ADF
:1049E700002274FFF5F00281D77F057E00028AF866
:1049F7001282B2900965028570900A1DE0FEA3E05D
:104A0700FFC322AB07510094E8EE940350117C00DA
:104A17007D0A128170EB2FFFEC3E900A1D8006AFD6
:104A270003900A1DE4F0A3EFF022900A401285706C
:104A3700900A441285E6E4900A49F0A3F07F0B122E
:104A470046D7900A40B19D7FFF1200E1900A475177
:104A570003900A4AE09F900A49E09E5016120025EB
:104A6700900A441285DD900A49B191900A49123E95
:104A77008B80D902473D900A56128570900A5A12C8
:104A870085E6E4900A5FF0A3F07F0B1246D7900A01
:104A9700561247957FFF1200E1900A5D5103900A75
:104AA70060E09F900A5FE09E5016120025900A5A18
:104AB7001285DD900A5FB191900A5F123E8B80D913
:104AC70002473D900A73128570900A771285E69027
:104AD7000A771227B3604B900A7A91D16044900A03
:104AE700771285DDC3EA940F40167E00EF5403FF6B
:104AF700600E74049FFFE49E900A7A8FF01281D7AC
:104B0700900BA4E0B4030B7135900A47712A513119
:104B17008010900BA4E0B401097135900A5D712AE9
:104B2700517D22CFF0A3EFF0900A730284D3900A4D
:104B3700771285DD900A7AE0FFA3E022AB07AA0689
:104B4700900B82EDF0A3E4F0A304F0EDD3940240C0
:104B5700037F0022900B82E0F9701B9008A391B2AB
:104B670040037F00229008A5E02BFEE43A900B83D8
:104B7700F0A3CEF08038E9640170219008A491B2C7
:104B870040037F00229008A5E02BFFE43AFE90083F
:104B9700A3F1A6900B83F0A3EFF080129008A591E4
:104BA700B240037F0022900B83EAF0A3EBF090085A
:104BB700BAEBF0A3E9F09008CC12857C0000000066
:104BC700900B8491C9FF900B8391C12410FFE43EA1
:104BD700FEE4FCFD7A0879BC7B01900A7AF0A374A5
:104BE70010F051CA900B82E0600281AF74FFFFFEA4
:104BF700FDFC9008C0122439700D9008C012857C06
:104C0700000000007F00227E007F2F7D00B11E1272
:104C170087C67E007F047D307B017A087979128709
:104C2700C6787D7C087D017B017A0879C47E007F88
:104C3700041280D078817C087D017B017A0879C9CC
:104C47007E007F031280D091BB90089512857091EA
:104C5700BBEF24FFF1C4D19C1283589008891285B9
:104C6700709008A291C9FF9008A191C12420FFE488
:104C77003EFEAB07FAE4F9F89008BC122683E4FB82
:104C87007A02F81283589008851285709008851269
:104C970084D390088D12857090089112857C00004E
:104CA70000009008847401F07F0122E0FFD3EB9F9E
:104CB700EA9400229008C00284D3E0C454F048FE6E
:104CC700EF22E0C4F8540FC86822E0FEA3E0FF4ECD
:104CD70022900A6A128570900A6E1285E6900A7110
:104CE70091D16032D3EF9400EE940150297F0612E0
:104CF70046D712473D7F021246D7900A6AB19D9068
:104D07000A71E0FEA3E0FF900A6E1285DD123F6C88
:104D170012473D1246FE227B017A08796A22900AE1
:104D2700C312857C0000000012B8F11247B2B11E11
:104D370012DB79EF7046B11E90047FF1BDFD7C0F49
:104D470012A02A900AC1F198700280307B017A0F75
:104D57007900900AC1E0FFA3E0900A83CFF0A3EFA8
:104D6700F0900AC31284D3B1EF900AC31284DF9084
:104D77000AC1B186A3128570F19F80B202B8CCE058
:104D8700FEA3E0FFE4FCFD0282B2E0FCA3E0F582B3
:104D97008C83EF02814E1284D3900B45128570905D
:104DA7000B46E0FF1200E1900B47E0FF1200E19095
:104DB7000B48E0FF0200E1E4FF900006E0B4030BBC
:104DC700B1E7FFF1AE7F01D080D080900006E0B45C
:104DD700040DB1E7FFE4FD71437F01D080D080224D
:104DE700900516E0FEA3E022900A7C128570900AD7
:104DF700801285E6900BA4E0B4030AD129900A52E9
:104E0700D11E024618900BA4E0B4010AD129900ADA
:104E17002FD11E123E9222CFF0A3EFF0900A7C0210
:104E270084D3900A801285DD900A83E0FFA3E022F5
:104E37007E007F377D00D193900BA4E07002FF22A4
:104E47007A0879997B01900A7AE4F0A374201247D3
:104E5700D151CA7FFE7E017DAA7C55900899122404
:104E67003970079008B904F0800BE49008B9F0FE98
:104E77007F20FDD1939008A1E0FFA3E090002CCF05
:104E8700F0A3EFF090074A7401F0FF227B017A0844
:104E970079990287C6E4FB7A02F9F822900AD9F1D8
:104EA7000E900431E07011900AD91284D3D19C126C
:104EB70082CD900AD9128570900ADDE0FEA3E0FF4B
:104EC70012B6B2900AD91284D39005351285707F35
:104ED7001212B1BBEF7002800D909733E0541EFFA2
:104EE700C31364046005F1567F0022F1117F107E21
:104EF70027909720E020E50CEF1FAC0670011E4CB1
:104F070070EFFF227F0122128570909721E054EF06
:104F1700F0909720E0547FF022909720E030E20253
:104F2700F15490053512857C000000007F0C12B10A
:104F3700BBEF7002FF22F111909728E0C330E10127
:104F4700D350F5909721E04410F07F0122D1F490DF
:104F57009720E054FBF022D1F4EF7002FF22F156C4
:104F670090053512857C000000007F0C02B1BBABB9
:104F770007AA06909720E030E202F154909728E0C4
:104F8700C330E101D350F5AE02AF0312B6DF7F01A4
:104F970022EEF0A3EFF04E227F0A7E00029001E09E
:104FA7007C002FFFEC3E22900BB0EEF0A3EFF07FDA
:104FB7000022F090040E7402F0A3E4F022FFEE3416
:104FC70001FEE43DFDE43CFC22909801E0FDEF5436
:104FD7003FFCED5CF0EF30E50C1228D490B100E017
:104FE70054BE1228DE2212BA951228D490B100E0DE
:104FF70044410228DE1228D4A3E054FBF090B1000C
:10500700E054BE0228DE90B004E030E016900B7644
:10501700E004F0E0B40A06900B787401F0E4900B1A
:1050270077F022900B77E004F0E0B40A03E4A3F0F2
:10503700E4900B76F022900AE01285E6900ADFEF03
:10504700F011FAEFD394955008900AE01227B37045
:10505700037F0022900AE3E0FF900ADF310B40074D
:1050670074969D900AE3F0E4900B94F0900AE33174
:10507700015018900ADFE02EFFA311F31280F6FD0E
:1050870012BA06900B94E004F080E1E4900B95F0DF
:105097007F0122900AE51285E6900AE4EFF011FA03
:1050A700EFD394955008900AE51227B370037F0059
:1050B70022900AE8E0FF900AE4310B400774969DBE
:1050C700900AE8F0E4900B94F0900AE83101501A46
:1050D700900AE4E02EFF12BFF4900AE511F3EF12F5
:1050E700813C900B94E004F080DF809FE475F00131
:1050F700020532900B957401F022E0FF900B94E0CB
:10510700FEC39F22E0FD2FFFE433FED3EF9496EE1C
:105117006480948022D310AF01C3C0D011FA12BAB1
:1051270006E4900B95F0D0D092AF22D310AF01C315
:10513700C0D011FA12BFF4E4900B95F0D0D092AF23
:1051470022909904E054FEF090980DE054FEF0E0B0
:10515700440EF02290B004E030E3F990980DE0544B
:10516700F1F0E04401F090981FE030E0F9909904E5
:10517700E04401F022A2AFE433900BBBF0C2AF9042
:1051870005FE1284D39006111244E69005FB1285A2
:10519700DD1284959005FB122744E412814E900B93
:1051A700BBE024FF92AFD080D0802291D57B017ADB
:1051B7000779A07D1F7C00D17FEF641F4E600241FD
:1051C700FF78A07C077D017BFF7A05796F7E007FE2
:1051D700041287A2EF600241FF9007A4E09007E462
:1051E700F09007A5E09007E5F09007A6E09007E6A6
:1051F700F09007A7E09007E7F09007AFE0120549A6
:10520700526F0052A103522C1252821A52C71B52DC
:10521700861E524123524525524928524D2A52C3D0
:105227002F000052D37BFF7A0579747D247C0071AF
:1052370000F1AB710090079F41CE912841D7914F64
:1052470041D79170800FD1277B017A0779F07FD002
:105257007E07121C1390079F7402F07B017A07796F
:105267008E7F0A121C1180689108EF70069007ED77
:10527700F080599007EDE06040805171A480519013
:1052870007B3E0700C9108EF6007E49007EEF08039
:105297002C9007EE7401F0E480239108EF600690EC
:1052A70007EDE060087BFF7A05799C80067BFF7A33
:1052B7000579AE7D127C007100E48001E4FF800E69
:1052C700E4FF71FF9007ED7401F080047F0171FF27
:1052D7007B017A07798E12B5E4EF600A90079FE0A9
:1052E700B402037401F09007807401F0FB7A077928
:1052F700897FB07E04121C1322900ACD1285E69096
:105307000AD0ECF0A3EDF07D01123773C3900AD0F9
:10531700E094025065900AD0125F3B9440EE9400EF
:105327004006A37440F08005900AD2EFF0900AD2AD
:10533700E0FDFFC3900AD1E09FF0900AD0E094000F
:10534700F0900ACD1285DD7F24127619121F6E7D2B
:10535700207F1312367F7F01126AF4EF603E121F1F
:105367006C1237CB900AD2E0FF900ACE123FD99049
:105377000AD0E07002A3E0709C22121F6C7DB41269
:1053870037CD900ACDF1C2900ACDF1B6900AD0F18F
:10539700A1900AD0F18E7D1FF133F141229108EFE0
:1053A7007004B180805212B83990077812857090D6
:1053B70007B1E024C1601C242370307BFF7A057994
:1053C700989007B3E0FFC39404500280027F0491D2
:1053D7004680257B017A0779749007B3E0FFC39471
:1053E7000C500280027F0C9146800D7B007A007979
:1053F70000E4FDFC7100E4FF9007ECEFF0F1AB6116
:1054070000122F74EF70069007EFF0800E9007EFF1
:10541700E0700812B24F9007EFEFF09007EFE0FF50
:10542700229108EF7004B180801312B83990079762
:105437001285707B017A0779937D0C914880B9EFCB
:10544700FD7C007100E4FF229108EF7004B18080B9
:105457001612B83912729A9007811285707B017AF9
:105467000779817D089148808F9007B11284D39086
:1054770007B7E07A0F30E0027A0D7B00900ADDEA89
:10548700F0A3EBF0124EA3F197FED3E5F09401EEF3
:1054970094004022D16230E0027E0D7F00127354E7
:1054A7009007B7E07E0D30E0027E0F7F00D11C71C0
:1054B70000122C6A80D1124F5E9007B7E07E0D3044
:1054C700E0027E0F7F00D11C7100E4FF61FF126CC8
:1054D70000EF30E211E4FFD16C7F04121ECD7F8113
:1054E700121ECD1236877B017A0779F87D0812687C
:1054F70073EF7002A17F9007F8E020E7119007FE95
:10550700E0600B7B017A0879617D081268BA900721
:10551700F8E05460704BA3E0120549554100557FF0
:105527000155430355490555520655550855570921
:1055370055620A557F0B0000556480219007FCE0F7
:10554700801C9007FAE0547FFFC16C026977801DC9
:10555700121EC77F83121ECD0258AA8010E4FF8057
:10556700289007F8E0B4A10DA3E0B4FE087D01E49C
:10557700FFFE026B99123A7F227F81B1907F0A7EEC
:1055870000128AF891D57F0122900BD8EFF0540FC3
:10559700123772900BD8E0702A121FCEC006121F66
:1055A70065D0E04F121F6D7F13121EC07F00FEC033
:1055B70007C006121F65D0E0FED0E0EE4401FD7F74
:1055C70013804C900BD8E030E74A121EBE440812F5
:1055D7001F6D121FCEC006121F65D0E04F44101278
:1055E7001F6D7F13121EC07F00FEC007C006121E6C
:1055F700BEFDD0E0FED0E04D4410EEFD1237CD12D7
:1056070049F0121EBE54CF121EB64440FD7F127ED3
:10561700A3128F8022AA06A9077B017D007C0222A4
:105627009007B11284D31272BCF197FED3E5F094C0
:1056370000EE9400401ED16230E0027E0D7F00D163
:105647001CD17FD16530E0027E0D7F00124F7612AC
:105657002C6A80D5124F20E4FF61FF1297669007EE
:10566700B7E07E0F22900BDAEF1229ED900BDAE00C
:10567700FD7F007EA3028F80900AD31285E6900AF1
:10568700D6ECF0A3EDF07D02123773C3900AD6E093
:10569700940250577F16121EC020E004E4FEFF223A
:1056A700E4FD7F02126AF4EF7003FEFF2212686CBA
:1056B700900AD8EFF0FDC2AF900AD31285DD7F289C
:1056C7007EA3128A06D2AF900AD8E0700B7F16121B
:1056D7001EC054FEFD121F757F16121EC054FEFD1C
:1056E700121F75900AD8E0FF7E0022900AD3F1C2FC
:1056F700900AD3F1B6900AD6F1A1900AD6F18EF1AD
:105707006AEF7003FEFF227D01121F757DA0F13A3B
:105717007D2DF133F141E4FDF1337D017F16123622
:105727007FF13A900AD6E0FEA3E0FF227F047EA530
:10573700028F807F177EA3028F80F164900BDBEFCF
:10574700F0121FD8EF30E0037F0122F164900BDBEA
:10575700E0FEC3EF9ED3946440E77F0022900611DA
:105767000284D3F164900BDCEFF07F16121EC03079
:10577700E0037F0122F164900BDCE0FEC3EF9ED3D0
:10578700946440E67F0022E0FD7F0D7EA5028F80B6
:105797009007B674FFF5F00281EDA3E0FD7F0C7E64
:1057A700A5028F807B017A0779E07D0D7C002212AC
:1057B70085DDEAFD7F097EA5028F801285DDAD01BB
:1057C7007F087EA5028F8081D5E4FF1241BDE4FFEB
:1057D70012101E7D087F2012B9467D087F2112B95D
:1057E700887D087F1D12B9887D087F1E12B9467D06
:1057F700087F1C12B9887F0122E4FD7F1C020A0181
:10580700900A13E0900BC3F0124353900A13EFF082
:10581700900BC3E0700A900A13E060047F018002D6
:105827007F0022900A12E0900BC4F0120018900A31
:1058370012EFF0900BC4E0700A900A12E060047F48
:105847000180027F0022909629E054FBF0A3E054E8
:10585700FBF0909627E054FBF0909626E04404F086
:105867007F027E00129001909624E030E207E490D8
:105877000A1AF08006900A1A7401F0900A1AE0FFDB
:1058870022900A1AE0900BC5F0114D900A1AEFF01A
:10589700900BC5E0700A900A1AE060047F0180024D
:1058A7007F002212364011B47F0202B9BC90966A7B
:1058B700E0440DF0221234827F0202B9CE7F01311B
:1058C70096900BC6EFF0900ACCE06059900BC6E0BB
:1058D700B412047F018009900BC6E0B41307E4FFFC
:1058E70012192D8040900BC6E0FF64016004EFB4ED
:1058F70002047F40802D900BC6E0B405047F8080B2
:1059070022900BC6E0B406047F048017900BC6E014
:10591700B407047F08800C900BC6E0B41507121972
:10592700777F1031741257CE900ACCE0603E7B012E
:105937007A0A79C712B5E4EF60327B017A0A79C730
:105947007FE87E03121C13514C900BA8124F9870DE
:105957000B12365F900ACC7401F08006900ACC7463
:1059670002F0900BA8E0FEA3E0FF31E522900BD7F1
:10597700EF318C7C0012377AE4900BD7318CFC1214
:10598700377A7F0122F07B017A0B79D77D0122E4F8
:10599700900B39515B6041900B3A5141C003C002F3
:1059A700C001900B3A123FA9FF7C00D001D002D072
:1059B7000329F9EC3AFA1280F6900B39F0EF045408
:1059C70007FFA31285DDEF12813C900B3A1285DDAC
:1059D70090000174FF1204FF900B39E0FF22EF786B
:1059E70002CEC313CE13D8F9FFC394F4EE9401503B
:1059F70017C374F49FFF74019E51372FFFE43EFED7
:105A0700E4341AFDEC338020D3EF94F4EE94014094
:105A17001EEF240CFFEE34FE5137C39FFFE49EFEBA
:105A2700741A9400FDE49400FC909C08128570227F
:105A3700FE7C007D14128170E4221285DDE92402C8
:105A4700F9E43AFA229095051239F6C333CE33CEEC
:105A5700D8F9FF22F0EF75F00AA42423F974093569
:105A6700F0FA7B01A31285E690000102810F7D0306
:105A77007F2712B9887D037F2612B9467D037F29C8
:105A870012B9887D037F2A02B9887F00227106FF39
:105A9700900B59EEF0A3EFF0900006E0B4030C90E2
:105AA700047FE0FCA3E0FD710E8014900006E06423
:105AB7000470167106FFA3E0FCA3E0FD12445890A2
:105AC7000B5BEEF0A3EFF080255191EF6401702B93
:105AD700900B5BF0A3F012A044900B5BEEF0FCA3DD
