:1000000002040BE1FB4D5646002232025E2700013E
:10001000020322025E6202187F222280ED0227C5BF
:1000200022223280FDE4C3FA90960AE04401F054A3
:10003000FEF0909609E0A2E2E492E02A23FA90967C
:100040000AE04401F054FEF0909609E0A2E2E49246
:10005000E02A23FA90960AE04401F054FEF09096CC
:1000600009E0A2E2E492E02A23FA90960AE0440131
:10007000F054FEF0909609E0A2E2E492E02A23FA1E
:1000800090960AE04401F054FEF0909609E0A2E256
:10009000E492E02A23FA90960AE04401F054FEF03C
:1000A000909609E0A2E2E492E02A23FA90960AE010
:1000B0004401F054FEF0909609E0A2E2E492E02AB6
:1000C00023FA90960AE04401F054FEF0909609E07D
:1000D000A2E2E492E02AFA90960AE04401F0EAFFF4
:1000E000227808EF33FF90960AE092E154FEF090F8
:1000F000960AE04401F0D8EB229003F30284D32265
:100100000000220000220000220000220000220045
:100110000022000022000022000022000022000035
:100120002200002200002200002200002200002203
:100130000000220000220000220000220000220015
:100140000022000022026389000022000022000039
:100150002202483602498302273B00002200002287
:10016000000022000022000022021B9D000022004D
:100170000022000022000022000022000022026C67
:10018000A4000022026F9400002200002202698F66
:10019000000022000022026B670000220000220003
:1001A00000220000220000220000220000220000A5
:1001B0002200002200002200002200002200002273
:1001C0000000220000220000220000220000220085
:1001D0000022000022025C8B026B540262CB0234CC
:1001E00005025A610000220000220252900268A912
:1001F0000000220000220000220000220000220055
:100200000022000022000022000022000022000044
:100210002200002200002200002200002200002212
:1002200000002200002202576E0238030000220064
:100230000022000022000022000022000022000014
:1002400022026EC1000022000022000022000022D3
:10025000000022000022410AA000410A9A00420A3E
:100260009B0000420A9D0000410A9F004109C00016
:100270004109BF004109CB004109BD00410B6C01A0
:10028000410B6A00410B6B00410B89004209F300EE
:10029000004209F100004309F5FF05F84309EEFFAC
:1002A00006074309EBFF061641099B004209A60019
:1002B000004409910C020307410A0E00410A100094
:1002C000410A0800410A0700410A0F01410A0500DE
:1002D000410A06004209B600004209B4010642097B
:1002E000AF00004209AD01084309B8FF06244309E5
:1002F000B1FF06334309AAFF06404209A800634242
:1003000009BB0063410B8E01410B8F02410B910031
:100310004107610041075F00410762004107730028
:100320004406F9FFFFFFFF4106F300410972014453
:10033000096500000000420963006444096E000082
:100340000000410A5900420A5A0000420A5C0000BB
:10035000420A560000410A5800410A5500410A313C
:1003600000420A2A0000410A3200410A3300410AD1
:1003700029004109F8FF4509050000000000410976
:100380001B00410B97024108690041090200410925
:10039000030041097E0041097F00410B9900410B98
:1003A000980152084C1201100100000040000002A8
:1003B000021000010203014C079300000008001D19
:1003C000C3FF03000200480781001DC3FF000002B5
:1003D000004C07740B00000800020000000002003F
:1003E0004D07E0555342530870BA840000000000E6
:1003F000420B9C03E8410A8D00420A9001F4410A35
:100400008A00410B9F01410B9E010012691C787FFD
:10041000E4F6D8FD125E01EFFD9006D96003A3DF7C
:10042000FD7F277E11C3EF9DFF50011EE4F0A3DF87
:10043000FCDEFA75810B1268B7020477022CDDE44A
:1004400093A3F8E493A34003F68001F208DFF4805D
:1004500029E493A3F85407240CC8C333C4540F44AD
:1004600020C8834004F456800146F6DFE4800B0187
:1004700002040810204080900256E47E019360BC84
:10048000A3FF543F30E509541FFEE493A360010E1F
:10049000CF54C025E060A840B8E493A3FAE493A346
:1004A000F8E493A3C8C582C8CAC583CAF0A3C8C567
:1004B00082C8CAC583CADFE9DEE780BEBB0111F886
:1004C000E58229F582E5833AF583E0C828F0E82241
:1004D0005009C58229F8C58226C622BBFE0DC582F9
:1004E00029F8E2C5822582F2E58222EA2583F58396
:1004F000E99322BB010FF8E58229F582E5833AF5FD
:1005000083E028F0225009C58229F8E58226F622E8
:10051000BBFE09C58229F8E22582F222F8EA25838A
:10052000F583E9932822F8E0FBA3A3E0F925F0F096
:10053000E582158270021583E0FA38F022D083D06C
:1005400082F8E4937012740193700DA3A393F8746E
:100550000193F5828883E4737402936860EFA3A328
:10056000A380DF5553424300008002021F000000B9
:100570004D5653490000000043617264205265618A
:10058000646572000000000056312E300300000048
:10059000700002000000000A000000003A000000A5
:1005A0000000700005000000000A000000002400A8
:1005B00000000000ED0303543FFD8E838F82E09026
:1005C000A621E0F88E838F82E090A621E0FB8E8347
:1005D0008F82E090A621E0FC8E838F82E090A6219E
:1005E000E08A838982C8F0A3EBF0A3ECF0A3E8F0E3
:1005F000A3AA83A982DDC3224D5653494C49434FD8
:100600004E2E494E432E004D562043415244205217
:100610004541444552003230313130393031313288
:10062000333435004D5653494C49434F4E2E494EB5
:10063000432E004D562055534220415544494F000A
:1006400032303131303930313132333435008F820C
:100650008E83ED7004EC600B1CE06455F0A3DDF9B3
:1006600002065522464154313600000000040309B9
:10067000040902870003010080FA09040000000158
:100680000100000924010001280001010C240201DD
:1006900001010002030000000A2406020101010218
:1006A0000200092403030103000200090401000001
:1006B00001020000090401010101020000072401F8
:1006C000010101000B2402010202100144AC0009E7
:1006D000050409C000010000072501010000000910
:1006E000040200010300000009210102000122218F
:1006F000000705830340000109022000010100807A
:10070000FA090400000208065000070581024000B3
:10071000010705020240000109029E000401008059
:10072000FA09040000020806500007058102400093
:100730000107050202400001090401000001010057
:10074000000924010001280001020C24020101011A
:100750000002030000000A24060201010102020057
:10076000092403030103000200090402000001023E
:100770000000090402010101020000072401010137
:1007800001000B2402010202100144AC000905041F
:1007900009C0000100000725010100000009040351
:1007A00000010300000009210102000122210007CD
:1007B000058303400001050C0901A1011500250175
:1007C00009E909EA09B509B609E209B309CD09B78A
:1007D000750195088142C03F3E3A3633302D2A27B5
:1007E0002523211F1D1B1917151311100F0E0D0C9A
:1007F0000B0A0907060402017F00223222FFFFFFD5
:03080000140108D8
:10080700023FD205320007D001F4006401F400C8AA
:10081700320AC350271007D014503C140A1E140084
:1008270000000000000000000002FAFCFDFEFCFAD8
:10083700FA0202FF02FFFDFAFAFAFDFF0202FFFFCA
:100847000002020202FDFAFAFF0200FF00020201A3
:10085700FFFEFAFEFEFEFCFAFE02FE02FFFFFDFAB5
:10086700FAFAFA0202020101FFFEFEFEFDFDFDFAA1
:10087700FAFF010202020202FFFD02020202020265
:10088700FD0202FFFAFF020202020202020000005A
:100897001A001F0024002A0031003A0043004E00CE
:1008A7005B006B007D009300AD00CC00F0011A01E6
:1008B7004C018701CC021D027C02EC0370040B047F
:1008C700C20599069607C0091E0ABA0C9E0ED83FA4
:1008D7003E3A3633302D2A272523211F1D1B191792
:1008E7001514131211100F0E0D0C0B0A0908070629
:1008F700140000000665120007661300015B000084
:100907005859590003090E13192E2C2A2927262472
:1009170023211F1E1C1B9006D7EFF0E01313543F33
:10092700FF12B87512494F9006D7E01313543F25AD
:10093700E025E0FF3144900ADD7401F02212C94638
:1009470090060FE0900610F02274FFFFFE12B83FEA
:100957001249627F0112B8757F013144E4900ADDC4
:10096700F0029766900B79EFF0A3EDF0900B96E00D
:100977007002FF22900ADFE0900B7BF012CECF12BD
:100987005C9E900ADEE0B40402F18E3157900B7939
:10099700E0FF123CCA123D61EF600512976680F5D1
:1009A700126343900B7BE0900ADFF0900B7AE060D4
:1009B7000612634F1210027F01227F01122C8C90C6
:1009C70006FEEFF0900760E0602A9006FEE07024D4
:1009D7007B017A07796E12B5E4EF6018122125EFD3
:1009E700700D900701E07D06B401027D07B1EEE4CA
:1009F700900760F09006FDE0640670028119A3E09D
:100A070012053D0B19060B25070AA50C0A4D120AFC
:100A17006E130AF7150B82210B45260B45270B6032
:100A2700280B60290B452A0B602B0B192C0B252D46
:100A37000ADC2F0A92300B823C0BEB630A4D650AE6
:100A47006E6600000C19122B2A50057F0112291916
:100A57009006FEE06465600281191272D26002811D
:100A6700197D017F1580201228204005E4FF1229F7
:100A7700199006FEE0646660028119900ADFE06063
:100A87000281197D017F16316B81199006FFE0B451
:100A97000304E4F080389006FF7403F0803090067A
:100AA700FFE0700404F08005E49006FFF09006FF75
:100AB700E0B4040B9007027401F09007328008E459
:100AC700900702F0900730125DE3F0125EDA7F01C3
:100AD700125FE28119900700E004F0E0C3940B4035
:100AE70002E4F0123F43125EDA7F01125FE88119D8
:100AF700900AE0E060119006FDE0B402047D0180F9
:100B070002E4FD7F1B8004E4FD7F1A316B1217FBA3
:100B17008119B1F95002811991E6E4FF800AB1F910
:100B27005002811991E67F01F1ED7B017A07796E19
:100B37007FE87E03FDFC12B5B29007608038B1FCF8
:100B47005002811991E67F02F1ED122125EF600233
:100B57008119B1AB9006FD801DB1FC50028119913E
:100B6700E67F03F1ED122125EF600281197D077FF2
:100B770001B1AF9006FD7401F0811912420F900088
:100B87002DE09F90002CE09E402D1263C2402890DC
:100B97000702E0702290072EE06E7003A3E06F60FB
:100BA7001691E6900A2A125DE3F01243B11221254D
:100BB700EF70047D06B1EE1247C1FF900A2A125763
:100BC700579FEC9E4011D3ED9400EC94004008D160
:100BD7002D7FE87E038006D12D7F007E00F1DF1296
:100BE70043B1802E900869E0B40127E4900BBCF074
:100BF7009006FDE0B40209125CB4900BBC7401F0DE
:100C07001250709008697402F0900BBCE0B40102B6
:100C1700B104F1E66016900762E0701004F0FB7A09
:100C27000779631272869007737401F09006FDE0EE
:100C3700B4020C900762E06006E4F0900773F0904E
:100C47000773E060267B017A07796312B5E4EF60EA
:100C57001AF1E6600F124477E4FD7F1B127214123B
:100C67002B3A8007E490077312463D9006FDE01487
:100C7700601024FE600704700CB1048008125CB495
:100C87008003125D009006F3E0600D12637DEF6054
:100C970007E49006F3F080279006F3E070211263D3
:100CA7007DEF701B9006F304F09006FDE0B4020F91
:100CB7001200F9EF2401FFE43E1237E91227A112CF
:100CC70000F99006F912241760141272A4122B234C
:100CD700400C1200F99006F9128570125EDA2212A2
:100CE70021DB12A68F9003F312857C00000000B170
:100CF700F2E4FDFFF1927F647E00028AF81221DBA5
:100D070012DB79EF600612CEB0EF70129006FFE0AB
:100D1700640370237F0A1272A6122B23401991E6EF
:100D27009006FFE064016005E4FF12545A12212582
:100D3700EF7004B1AB80427B017A07796912B5E4A1
:100D4700EF6018900AE0E0701290075FE0700C12F5
:100D57001002123CB490075F7401F01253EEEF706B
:100D67001A91E6900701E0FF64026003EF70047DCB
:100D77000680027D077F01B1AF8070125CDE600BD9
:100D870024FE60181460152404701812CECF125C6C
:100D97009E9006FD7403F01273108004125CE5F058
:100DA700125CED227D067F01900B29ED126F7AC34D
:100DB700940840037F0022900B29E0FFA31285DDF2
:100DC70090000174011204BCFD1280F62DFD7C0019
:100DD700ED5407FD900B2A1272C0E92DF9EC3AFA8F
:100DE700EF12813C7F01227F01B1AF9006FD7401B4
:100DF700F022121874D390002DE0940190002CE09B
:100E0700940022E054FDF0E054DFF0E054FBF0E002
:100E170054BFF0E04401F0E04410F0E4FDFFD1AD31
:100E2700E4FD7F01D1AD7B017A0979162212612D8C
:100E3700600D14602724FD24FD504424087061F1DF
:100E47006C90091D7008D10A7FE87E038050F17607
:100E5700D1A87D01D1297F007E008042F16C7014FA
:100E670090091DF1FB54BFF07D01E4FFD12B7FE812
:100E77007E038009126195D12B7F007E00801FF1D0
:100E87006C701290091D123FDAF0E4FDFFD12B7F41
:100E9700E87E038009126195D12B7F007E00F1DF88
:100EA70022F07D01E4FF900B95EDF0900B94EFF0AD
:100EB7007010A3E07D017F01600512B988800312DD
:100EC700B946900B94E0B4010EA3E07D207F0A6041
:100ED7000302B98812B946221243976005EF6402EC
:100EE7007048F1E6700B90091DD10A7FF47E0180EE
:100EF700379006FDE0FF64016005EF6403700FF1B2
:100F070073F0F1F67D01D1297F007E00801A9006EB
:100F1700FDE0600464067012F173D1A87D017F01C2
:100F2700D1ADD12D7F007E00F1DF22900ADEE06493
:100F3700037031F16C700E90091DF0F176D1217FAD
:100F4700F47E01801DE490091DF0E054FDF0E054AB
:100F5700DFF1FB54BF123FDAF07D01E4D1247F00BB
:100F67007E00F1DF22900AE0E064012290091DE093
:100F770054FDF0E054DFF0E054FBF0E054BFF0E044
:100F870054FEF0E054EF227D017F01900BA4EFF0B7
:100F9700ED64017006122B5A12B988900BA4E0B4C5
:100FA700011D12383F900ADEE0B40305E4FF12107A
:100FB70041900ADEE0B40C0FE4FF1210418008E410
:100FC700FDFCFFFE123BAD900AA07401F0227B01ED
:100FD7007A0979817F007E007D007C0002B5B2909E
:100FE70006FDE064022212545AE4900AE0F022E47B
:100FF700FDFFC1ADF0E054FBF0E022900ADFE060B6
:1010070038900AA0E064017018900ADEE0B4030784
:101017007FC01141124034900ADEE0B40C03124045
:1010270044F107122820400C900A0FE07006122B9B
:101037005A12B946E4900AA0F022900BAAEFF012D8
:1010470038369009BFF0900BAAE0F0FF9009C0E096
:10105700B50706F1BD70022182900BAAE0701691C8
:101067000660029123F100600291BF71FF700221B7
:101077007231832172900BAAE0FF54096037F100A7
:101087006007EF5424700291BF71FF60201272ADA8
:10109700701BEF54C070169009C0E0541260043101
:1010A70083800A9009C0E054C06002B18F91066442
:1010B70009600291691272AD602D91066007EF54C5
:1010C7000970029123F100600A900BAAE054247082
:1010D7000291BF71FF600BE05412FFF1BD6F600218
:1010E7003183F1BDFF5136900BAAE0FF5424601DF8
:1010F70091066007EF54097002912371FF600C128B
:1011070072AD7007EF54C070023183B108900BAA1B
:10111700E0FF54C0605591066007EF5409700291D3
:1011270023F100600A900BAAE05424700291BF716A
:10113700FF6006F1BD7002318371FFFFB412047FB7
:10114700C0800EEFB402047F408006EFB410027F28
:1011570080EFD39400400B900BAAE054C06F60025D
:10116700B18F900BAAE054C0FFD120900BAAE0FFEB
:101177009009C0E06F6002EFF0F1A0227F01122911
:1011870064F1EE5004AF068000900BA8EFF0909C3E
:1011970041E09009CAF0909C42E09009CDF0900B95
:1011A700A8E0C394405013129766900BA81272E2FE
:1011B7009137900BA8E004F080E491B2909C4FE047
:1011C700549F51155102909C4FE054E75115909C44
:1011D7004CE054FCF07F147E00511A12001971F68E
:1011E700EFF47002EEF4601271F6EFF47003EE6440
:1011F700FE6007909C48E04401F022909C49E0542F
:10120700EDF07F027E00511A909C4FE054F9F07F79
:10121700027E00900B82EEF0A3EFF0900B82124E4D
:10122700D445F060091297669137913780ED229087
:101237000B64EFF0909C4E911B909C4DE0543F90B7
:101247000B66123FAD7002EEF4601271F6EFF470A8
:1012570003EE64FE6007909C48E054FEF0909C4CBF
:10126700E04403F0909C41E4F0A3F0909C4FE044ED
:10127700185115909C4FE044015115909C4FE04444
:10128700065115909C49E0441251157B017A097962
:10129700C37F107E27120FDF9009BDE060026168EF
:1012A700909C4BE020E059909C4BE030E00261625B
:1012B7001239616002616271F6EFF47002EEF46058
:1012C7000B71F6EFF47003EE64FE7022900B65E08D
:1012D70014910D909C4EE07023ED643F607D900B60
:1012E700657440F0A3E025E0F04401F0800E900B18
:1012F70065E014909C4EF0911BE0605FF1E880A7D9
:10130700909C4BE030E054909C4BE030E04D12391C
:1013170061704871F6EFF47002EEF4600B71F6EF4E
:10132700F47003EE64FE701F900B65E004910D905E
:101337009C4EE0643F7020ED6021900B6574FFF0D8
:10134700A3E0C313F08010900B65E004909C4EF06F
:10135700911BE0643F6004F1E880AC9009BD740123
:10136700F05102909C4FE054FE511512720B909C65
:101377004FE044065115909C49E044125115909C4A
:101387004FE0446051151200129009BFE07003F15D
:10139700E1F091B9F1D45004AF068000900B66EFED
:1013A700F0900B65743FF0900B66E0FF900B65E0E3
:1013B700D39F402A12732FFF900B65E0FEC39F4017
:1013C70005909C41EEF01273279F4008900B65E053
:1013D700909C42F09137900B65E014F080C990091A
:1013E700CAE0909C41F09009CDE0909C42F0229099
:1013F700966BE0FEA3E0FF22909C49E054122290F6
:101407009C49E0540922909C4EF0900B66E0FD90B9
:101417009C4DF0A3E0543F900B65F0221238A79142
:10142700B2909C48E04422F1CC54F6F1C44411F048
:1014370012B8A0EFFD7C007E017F90128182EF241D
:1014470001FFE43EFE909904E020E00BEF7802CE26
:10145700C313CE13D8F9FFEF1FAC0670011E4C70F3
:10146700F622909C437403F0A3F1CC4409F1C454D1
:10147700EEF1C454DDF0913771F6EFF47002EEF43B
:10148700600871F6BEFE0ABFFF07909C4374028096
:1014970005909C437401F0A3F01273377004F1E1D7
:1014A70091B812731F7F507E00411A909C48E04408
:1014B70044F07F0A7E00411AF1EE5004AF06800027
:1014C700900BA7EFF0909C41E09009C1F0909C42EF
:1014D700E09009C2F0900BA7E0C394405014129714
:1014E70066900BA71272E2123FB4900BA7E004F0CC
:1014F70080E391B2909C49E054DBF07F037E00418A
:101507001A12720BF1CD4424F09137909C47E044B6
:1015170003F07FF47E01511A909C47E054FCF012CF
:1015270073377003F1E1F091B9F1EE5004AF068023
:1015370000900B84EFF0A3743FF0900B84E0FFA3BF
:10154700E0D39F40321297669009C1E0FF900B8568
:10155700E0FEC39F4005909C41EEF09009C2E0FF7A
:10156700EEC39F4008900B85E0909C42F091379026
:101577000B85E014F080C39009C1E0909C41F09086
:1015870009C2E0909C42F022F1D45004AF068000DB
:10159700900BA9EFF0900BA9E0D3943F502B129733
:1015A70066909C49E030E108900BA9E0909C41F0DF
:1015B700909C49E030E408900BA9E0909C42F051E0
:1015C70016900BA9E004F080CC909C49E030E1072D
:1015D700909C48E04404F0909C49E030E407909CDC
:1015E70048E04440F091B9909C49E030E103124152
:1015F70055909C49E030E40312414D5116909C49A7
:10160700E030E104E054FDF0909C49E030E404E070
:1016170054EFF07F027E00411A900B67EFF030E63F
:10162700031240F3900B67E0FF30E7031240EBEF44
:1016370030E606909C41743FF0900B67E030E70678
:10164700909C42743FF0900B67E0FF30E603124036
:10165700E3EF30E7031240DB5116900B67E0FF30F2
:10166700E6031240D3EF30E7031240CB511690093F
:10167700BFE06444601A900B67E0FF30E607909C78
:1016870048E054FBF0EF30E707909C48E054BFF088
:1016970091B9F1D45004AF068000900B68EFF0A326
:1016A700743FF0900B68E0FFA3E0D39F40381273BC
:1016B7002FFF900B69E0FEC39F400C900B67E03053
:1016C700E605909C41EEF01273279F400F900B6741
:1016D700E030E708900B69E0909C42F05116900BC0
:1016E70069E014F080BD900B67E0FF30E60412401C
:1016F700C3F0EF30E70271ED22909C49E0542422B9
:101707001238367002E1A012720B123838600AE004
:1017170054BBF07F1E7E00511A9106600312731F9F
:10172700F1007005E054126070F1006011F1EE50A5
:1017370004AF068000127317F09009C2800FF1D42E
:101747005004AF068000127317F09009CDE0900B9C
:101757001FF0900B20743FF0900B1DE0FF900B20C3
:10176700E0C39F4034129766900B20E014F0900B73
:101777001EE0FF900B20E0FEC39F4007EE543F9012
:101787009C41F0900B1FE0FFEEC39F4008A3E0547D
:101797003F909C42F0913780BF9009BEE0701612CF
:1017A70072B5C083C082E0FFA3E054FED082D0832D
:1017B700CFF0A3EFF022900BAAE0541222F091375A
:1017C700909C48E022F09137909C49E0229009CD07
:1017D700E0FF9009CAE0FEC39F22909C48E054BBFB
:1017E700227F057E00411A9009C2E0FF9009C1E0FF
:1017F700FEC39F22900AE0E06007E4F01210028027
:101807000B900AE07401F0FDFF120F9290091BE0A4
:10181700B40103120E3422900BAFEFF0126029606F
:101827001324FD24FD502724FD6016240A70251279
:101837005DFB8020900BAFE064036018125A428072
:1018470013900BAFE0640C600B1238DC8006125962
:10185700A7120016900BAFE0900ADEF0900B99F0FC
:10186700120F8EE4900AE0F0125EB7111390091B75
:10187700E0B40103125FFB22118F90966AE4F090A7
:101887000AC0F090079FF022D310AF01C3C0D090D9
:101897009644E054FCF0D0D092AF22909645740362
:1018A700F05187EF60189006A0E064076010900A77
:1018B70090740BF0A374B8F09006A07407F090062C
:1018C700A0E0FE702B512AEF600C5169EF70079072
:1018D7000A8BF0A3F0225154FCC3E5F09464EC9416
:1018E7000050024129515E7402F0900A8A14F022D6
:1018F700EEB40126512AEF700241275169EF6002C9
:101907004127900A8B5158FED3E5F09464EE94007A
:1019170050024129E49006A0F0229006A0E064025C
:10192700703D5141512AEF600A5169EF7005515FCF
:1019370004F0221207F8EF640170024129900A8E21
:101947005157FEC3E5F094D0EE940750024129E4C5
:10195700900A8EF0A3F051989006A07403F022909D
:1019670006A0E0FE6403701F512AEF701612688705
:10197700512AEF6008118F515E7404F022118F51C4
:1019870041412751414127EEB4041A512AEF60041F
:10199700514141275154FED3E5F094F4EE940150A0
:1019A700024129800D9006A0E0FEB4051D512AEFE3
:1019B70070079006A07406F0225154FCD3E5F0940A
:1019C70032EC9400405C51418056EEB40614126824
:1019D700A1EF60025180512AEF60479006A074057D
:1019E700F0229006A0E0FEB407215187EF70069021
:1019F70006A07406F0D3900A91E09400900A90E054
:101A07009400401E74FFF5F00281D7EEB4080F1161
:101A17008F5198512AEF600A118F5141800251412D
:101A2700518022900ADEE0B40408909612E0540236
:101A3700FF2290A628E05404FF22D310AF01C3C0B1
:101A4700D0909644E04460F0D0D092AF22900A8BB9
:101A5700E475F0010281EDE4900A8BF0A3F09006A3
:101A6700A022900ADEE0B40408909612E05401FF29
:101A77002290A628E05402FF229006A07402F022CA
:101A8700909644E05403FFBF03047F0180027F0068
:101A970022D310AF01C3C0D0909644E0549FF0D03A
:101AA700D092AF2212C8CB90A6227409F0909883E7
:101AB700E4F05198118F7FF47E01128AF81268873B
:101AC700127309E4FDFF12730171964440FD7F0113
:101AD700127301719654DFFD7F017EA3128F80E49C
:101AE700FF12464B51F3E4900A8DF0227F8151F9A2
:101AF7007F02900BCAEFF0547FF150900BCAE03091
:101B0700E737719454DF718C4440B198D148C006CF
:101B1700B114D0E04FB1987F1371967F00FEC007D4
:101B2700C006B114D0E0FED0E0EE4420FDF1A87D60
:101B3700407F10F1B87F1180477F16719654BFFD23
:101B4700D1527F1671964480FDD152D148C006B15B
:101B570014D0E04FB1987F1371967F00FEC007C085
:101B670006B114D0E0FED0E0EE54DFFDF1A87D40D1
:101B77007F14F1B81272EC7F1671964410FD7F1630
:101B87007EA3028F80FD7F127EA3128F807F127E3D
:101B9700A3128C84EF22D080D0807B017A0A791D32
:101BA7009006A11257C97B017A0A79227F64120F26
:101BB700DD90057AE06403703CF147900A27EFF067
:101BC70030E6147F1671964480FDD1527F167196C8
:101BD700549FFD7F16807890057BE0600C12558B33
:101BE700EF20E00281A37F0122900A27E020E00294
:101BF70081A37F012290057AE064047031B11490CB
:101C07000A27EFF030E50D71944480718C54DEFDA6
:101C17007F12803B90057BE0600A12558BEF30E026
:101C27007B7F0122900A27E020E0717F0122900547
:101C37007AE060046402702CD148C006B114D0E089
:101C47004F900A27F030E212719454D9FD7F127E2B
:101C5700A3128F8012935E7F0022900A27E020E173
:101C67003B7F012290057AE06401702D7F13719606
:101C77007F00FEC007C0067194FDD0E0FED0E04DA6
:101C8700FF900A27EEF0A3EFF030E2037F002290E7
:101C97000A28E030E0067F01227F00227F607196EC
:101CA700645D60037F00227B017A0A791D12B5E427
:101CB700EF7006129758EF7035F147900A27EFF04B
:101CC70054DF4401FDD15290057AE064037014A3F8
:101CD700E070107F32FE1290017F16719630E0039C
:101CE7007F0122719454D6B198B1977F0022129741
:101CF700667B017A0A792212B5E4EF700261B87F38
:101D07000112AFF6EF6401600261B8FF227F127E15
:101D1700A3028C84900BC9EFF0540FF150900BC9BC
:101D2700E07025D148C006B114D0E04FB1987F13B9
:101D370071967F00FEC007C006B114D0E0FED0E068
:101D4700EE4401FD7F138042900BC9E030E74071FC
:101D5700944408B198D148C006B114D0E04F44105C
:101D6700B1987F1371967F00FEC007C0067194FD7E
:101D7700D0E0FED0E04D4410EEFDF1A81272FA71EA
:101D87009454CF718C4440FD7F127EA3128F802222
:101D9700E4FD7F127EA3028F8012689AEF30E20F74
:101DA700E4FF12464B7F0451F97F8151F9F10F7B14
:101DB700017A0779F87D081264CAEF7002C147906B
:101DC70007F8E020E7119007FEE0600B7B017A0837
:101DD70079617D081265129007F8E05460704AA394
:101DE700E012053D1E0A001E47011E0C031E1205C8
:101DF7001E1C061E1F081E21091E2A0A1E470B004D
:101E0700001E2C80209007FCE0801B9007FAE0540E
:101E17007FFF02464B0266C4801B51F37F8351F953
:101E270002599C8010E4FFA11B9007F8E0B4A10DB4
:101E3700A3E0B4FE087D01E4FFFE0266A812656C0C
:101E4700227F137EA3128C847E00227F167EA3023C
:101E57008F80900AC71285E6900ACAECF0A3EDF0CE
:101E67007D02F151C3900ACAE0940250527F167165
:101E77009620E004E4FEFF22E4FD7F02125592EF74
:101E87007003FEFF221264C3900ACCEFF0FDC2AFCD
:101E9700900AC71285DD7F287EA3128A06D2AF90EB
:101EA7000ACCE070097F16719654FEFDD1527F1659
:101EB700719654FEFDD152900ACCE0FF7E0022902D
:101EC7000AC712726F900AC7124FC0900ACA124F00
:101ED700B6900ACA124FAD12561FEF7003FEFF22CB
:101EE7007D01D1527DA01272F37D2D124EC3125582
:101EF70069E4FD124EC37D017F16F1B81272F390AB
:101F07000ACAE0FEA3E0FF227D04F1517DC07F14E1
:101F1700F1B81272EC7F17D14AC006F147D0E04FF3
:101F2700FDD1527F1771967F00FEC007C006F147AB
:101F3700D0E0FED0E0EE4440FD7F177EA3028F8005
:101F47007F167EA3028C84F0E4FD7F0E7EA3028FB2
:101F570080900B051285E6900B08ECF0A3EDF07D61
:101F670003F1517F0E7196640360047D03F1519074
:101F77000B08A3E0FD900B051285DD7F2C124FA502
:101F8700B199F1A6900B9CE4F0A37432F0E4FD7FC5
:101F970003125592EF70047D088002E4FDB1997D2C
:101FA700207F137EA3028F807EA3128F807D107FF8
:101FB700087EA3128F80E4FD22125EB77F0112CD47
:101FC70082E4FD7F06F1B87F07F1AF7F09F1B87FA3
:101FD7000B7EA3128F80F10FD310AF01C3C0D09037
:101FE70004037420F0A3E4F0126BFDD0D092AF226B
:101FF700126029600D24F7600E240A7017123CB492
:10200700800812403480031240497B017A0679DD4B
:102017007D01111C22900B311285E6900B34EDF0F7
:10202700125F1B713A4002E4F071324002E4F09013
:1020370006DB745AF0900ADEE0FF60049006DCF0DD
:10204700900ADFE09006DDF0F1B14002E4F0900A7B
:10205700DEE0FBB40116900702E09006DEF0900A7E
:1020670059E09006E331E29006DF8018EBB40217DF
:10207700900702E09006E8F0900A59E09006ED31EB
:10208700E29006E912857031E99006F2EFF0900BC5
:1020970031F18F6033900B34E0602D7D5AE4FF12ED
:1020A700BA06900B311285DDC3E994DBFF900B3143
:1020B7001285DD900B34E0900AD7F0124844900661
:1020C700F2E0FD7F1712BA0622C374E83119D394E0
:1020D70001400FE49006E8F07B017A0679E87D017C
:1020E700111CC374DE3119D39401400FE49006DE4E
:1020F700F07B017A0679DE7D01111CC374DD31198D
:10210700900ADFE06F600A7B017A0679DD7D0111B5
:102117001C2294DBFF12BFF4900BBDEFF0227B0073
:102127007A007900900B6D1285E6E4900760F090D5
:102137000702E070161247C1FFD390072FE09F9068
:10214700072EE09E4005E4F0A304F0900B6D128586
:10215700DD9005131285E690072EE0FFA3E09005BA
:1021670016CFF0A3EFF031DB129C6BEF7007900BEB
:1021770090740580267B017A07793F7D0B31F190BA
:102187000A59EFF07B017A0679DB7D18111C31DBE8
:1021970012CEE6EF7009900B907407F07F00229043
:1021A70003F312857C00000000900768E0601BE4E1
:1021B700F0718E9003EF1284D39003F39117400AC6
:1021C7009003F312857C00000000123E8EEF7F0122
:1021D7007001FF227B017A07793022F090074B02CA
:1021E70084D37B017A0679DB7D17900B351285E660
:1021F700900B38EDF0E4FE900B38E0FD14F0ED6045
:1022070025900B351248FA1280F66EFEE4FFEFC3F5
:10221700940850E3EE30E007C313648CFE8004EEAD
:10222700C313FE0F80E8AF062231E9AB079006D84B
:10223700E020E05D9006DBE0645A70559006F2E01E
:102247006B704E9006D8F09006DCE0900ADE717055
:10225700942040037419F0713A4002E4F07132405F
:1022670002E4F0717D900ADEE0FAB401097157715A
:10227700429006E4800BEAB4020E714B714290065D
:10228700EEF19EE4900702F0F1B150026131E4F003
:10229700227E007F1A7D007B017A0679D91287C6D4
:1022A7007A0679DB7B01900ADC7418F0E4FF1248A8
:1022B700A131E9AB079006DBE0B45A079006F2E0DC
:1022C7006F601E900A557401F0E49006D9F0A3F0F0
:1022D700A3745AF0A37401F07163F0A37419F0802A
:1022E70047900A557401F0125F2C900ADEEF717067
:1022F700942040037419F0713A4002E4F0713240BF
:1023070002E4F07163E0FBB4010C9006DEE0900795
:1023170002F07157800EEBB4020C9006E8E09007CC
:1023270002F0714B7142717D11D0229006DAE0C341
:102337009405229006D9E0C3940B221284D3900708
:102347004B0285709006EDE0900A59F09006E9225D
:102357009006E3E0900A59F09006DF22E49006DE4B
:10236700F09006E8F0900ADE22F09006DDE0543F98
:10237700900ADFF0D3229006D9E0900700F090068C
:10238700DAE09006FFF022900ADEE0FBB401059048
:1023970006E48007EBB402059006EEF19E80D79025
:1023A7000A58E07050900006E064017020129FB850
:1023B700129FDF9006DF9117703BF17C7D0B31F1A7
:1023C7009006E3E06F702E900A5804F02290000602
:1023D700E064027020129FB8129FDF9006E9911700
:1023E7007013F17C7D0B31F19006EDE0B507069097
:1023F7000A587401F022128358AC00AD01AE02AF47
:10240700039009D81285709009D81284D39009D403
:102417001284DFC302840E9009CFEDF0A31285E684
:102427009009CEEFF090053EE0FEEFD39E5013905B
:1024370009CEE0C39401400A900545F18F6003EE91
:1024470070037F00229009CEE0149009D3F0900921
:10245700CFE0FF9005451285DD9009D3F130EF12EB
:10246700814E9009D01285DD12BF3FF1829009CFCE
:10247700E064036002A199A3F12012810FD39406AF
:10248700400312BE90F1179009D8128570D13078A9
:10249700009009D81284D3128358EF2402FFE43E38
:1024A7001237E9E47B07FAF9F8128358AF0390096A
:1024B700DCEFF09009D0F12012810FFEC39F40148A
:1024C700EEFF9009DCE0FDEF9DF196FDD130F812AB
:1024D70082CD80289009D0F12012810FFF9009DC6E
:1024E700E0C39FF196FDD130F81282CDC374809F6F
:1024F700FF743A9EFE74099DFDE49CFCC006C0076C
:10250700D137900001D007D0061284AFD137D14E12
:10251700C003C002C0011284459009D81233EDD020
:1025270001D002D003128495D12AF1DDF1829009FE
:10253700D8D12D780071FD9009D3E075F006402AB7
:10254700D13ED14EC003C002C001128445C004C0B1
:1025570005C006C007F1A7D15FF188AB07D007D048
:1025670006D005D0041282B2807BD13ED14EC00383
:10257700C002C001128445C004C005C006C007D10F
:1025870056F188AB07D007D006D005D0041282BF1A
:1025970080539009CFE064027056D12AF1DDF182B1
:1025A700D1307800F11771FD4006F1A7D15F801295
:1025B700D156C374809FFF74519EFE74019DFDE444
:1025C7009CFCC006C007D137900001D007D0061287
:1025D70084AFD137D14EC003C002C00112844590E9
:1025E700B1061233EDD001D002D0031284958025B5
:1025F7009009CFE0B4011EF1179009D812857090A9
:1026070009D41284D3C006C007D137900001D00780
:10261700D0061284AF9009CEE0FF12C1CB12BA25C3
:102627007F01229009D41284D37B807A51790122C9
:102637009009D3E075F006A4FF9005451285DDE902
:102647002FF9EA35F0FA22E92401F9E43AFA22905F
:1026570009D41284DF9009D81284D30282BF900B69
:102667001012857C00000000E4900B0FF090053EEF
:10267700E0FF900B0FE0FEC39F4002E114EED13B59
:1026870090000512810F6401707BF12712810FFB07
:10269700B4020FF117EF2480FFEE3451FEED340141
:1026A7008011EBB40313F117EF2480FFEE343AFEE9
:1026B700ED3409FDE43CFC800AF12712810FB401D7
:1026C70008F117900B10128570900B0FD13A9000FC
:1026D70001128465900B1091176023900B0FD13A6C
:1026E700F1D1124EE6C312840E6013900B0FD13A4C
:1026F700F1D1EF24FE124EE9C312840E7007900B3E
:102707000FE004FF22900B0FE004F0C1747F00225A
:1027170090B1060284D390069D1285DD90000422B5
:102727009005451285DD900B0FE075F006A4F58244
:1027370085F08322A2AFE433900BAEF0C2AFF11D58
:1027470012810F701D128445127232900611D15FEB
:10275700E4FBFAF9F8C31283F85007F11D7401126C
:10276700814E900BAEE024FF92AFD080D080F11D58
:1027770012810FFF229003D80285DD9009D40285CC
:1027870070A804A905AA06221285DDE94A4B22FF93
:10279700E49400FEE4FC221284D39003F3028570D4
:1027A7009009D81284DF9009D422900702E0D364FD
:1027B70080948122124034F1C812725A011C123BD4
:1027C7005C121002E4900AE0F02290000112850BDF
:1027D700900B100284D37800128358AC00AD01AE81
:1027E70002AF0322121FF7900ADFE07010900AA0D1
:1027F700E0700A900AE0F07D01FF120F92900AA0A4
:10280700E0B4010811204004A37401F0900AE0E04D
:10281700B40105E4F012100222900ADFE0D394001D
:1028270022310EEF6016900980E0701004F0FB7AF9
:1028370009798112728690097F7401F0310EEF7069
:102847001C900980E0601611204012900A0FE0707A
:1028570004900980F0120FD5E490097FF090098069
:10286700E06007715A12B98880031210027B017A5F
:1028770009798112B5E4EF602D90097FE060273177
:102887000EEF60141271FF12B988124477E4FD7FCE
:102897001B127214713A800EE490097FF07B017A63
:1028A7000979811246447B017A09798712B5E47F59
:1028B70001918C900BC7EFF024ED602A24AE6007DE
:1028C7001460232454703F712A50047F01311990FA
:1028D7000BC7E06465702F1272D2702A7D017F15D5
:1028E70031727022801D11204004E4FF3119900BD2
:1028F700C7E0B46611900ADFE0700B7D017F1631E7
:1029070072700312100222E4FF12636230E7027F43
:102917000022EFB40109712A500CE004F08007117E
:10292700204003E014F0900ADFE0B420117D017F1E
:10293700157132B40C08316CEF7003121002900A53
:10294700DFE070117D017F167132B40C08316CEF36
:1029570070031210021227EB7F01020009900BA5EA
:10296700EFF07F0122900980E0FF2212096B316CA2
:10297700EF227F01918C900BB9EFF014604A24EE9F
:10298700602A24FE604224B0600714601F2454703C
:102997003A712A50047F013119900BB9E0646570D0
:1029A7002A1272D270257D017F15801911204004EB
:1029B700E4FF3119900BB9E0B46610900ADFE070BC
:1029C7000A7D017F1602096B1217FB22900B92EF0B
:1029D700F0E4A3F0D3900964E09400900963E094D5
:1029E7000040259009651284DFC000C001C002C005
:1029F7000312419DE4FCFDD003D002D001D00012A8
:102A070072D990096312729D900963E07002A3E086
:102A1700600261007B64FAF9F89009651284D312A9
:102A2700835890096E128570900963E4F0A374646B
:102A3700F0A312857C00000000E47F107E0E711E5B
:102A4700400890095D7402F08019E47FAC711C4066
:102A57000890095D7404F0800A7119400690095DB9
:102A67007405F071194015E47FAC7E0DFDFC9009EB
:102A77006E122417500690095D7405F0900B92E0D2
:102A8700B4010A71195006900B937401F0900B92E0
:102A9700E0700A711A5006900B937401F0900B9333
:102AA700E06401705490095D7406F012001A1297E1
:102AB70066900972E0602DE4F07B017A0979697FFD
:102AC700107E27FDFC12B5B27D017F0F12096B1234
:102AD7007309900ADEE0640C701F316CEF701A12F4
:102AE700100280157B017A09796912B5E4EF600954
:102AF700E4FD7F0F127214713A02001A900B6CE01A
:102B0700700F900B89E07009714B715A12B9887177
:102B17003F22E47F487E0DFDFC90096E1284DFD3CF
:102B270002840E900ADFE0C394202212096B900AF8
:102B3700DEE022714B127310D310AF01C3C0D01265
:102B4700BAA280FE90091BE0B401031261E0127182
:102B5700DFF0227D107F2012B9467D107F2112B948
:102B6700887D107F1D12B9887D107F1E12B9467DA2
:102B7700107F1C22900ADEE0900BB3F0E4FF918CEB
:102B870090099AEFF064576004E0B44202713A1278
:102B970058C5EF602D900ADEE0FF64076024EF64FC
:102BA70008601F900006E0B4030A900ADEE0B40D47
:102BB70003120DF2120F8E7F967E00128AF87F02A3
:102BC700917112593EEF60047F039171124B1FEF11
:102BD70060047F079171D1F812B5E4EF6025D1F851
:102BE7007F64120FDD12591CEF6007715A12B98802
:102BF7008011900A0FE0700B900AA0E07005715ADF
:102C070012B946126029601F24FD24FD50232407B2
:102C170070379006D2E06007F1B2EF702C800E1289
:102C270058E7EF70248006125021EF701C7F018057
:102C370015124A99EF70127F907E01128AF8124B93
:102C47001FEF70057F021258B190099AE0B414196A
:102C5700900006E0B4030A900ADEE0B40D03120DFB
:102C6700F2900ADEE0FF1257DB22900ADEE0900BBB
:102C7700B2F0F198EF700D900BB212583470057FD7
:102C8700011257DB22E4900B2D126F7A6042900BF2
:102C97002E1272C0C003C002C001900B2E1237DF84
:102CA700FF7C00D001D002D00329F9EC3AFA128058
:102CB700F6900B2DF0EF045407FFA31285DDEF12FA
:102CC700813C900B2E1285DD90000174FF1204F3F6
:102CD700900B2DE0FF22B15A74FFFFFE12B83F128E
:102CE700B8CC129766E4900B98F0124962125E0412
:102CF700D2AF125EB01243C3125EB7125EC6E4FDD6
:102D0700FFD106715A12B988E4FF125FA7F152E4A6
:102D1700FF123A0B12223012620712538912583BE4
:102D2700129766F137124240717B12612D600F14C2
:102D3700601524FC601524FB6009240B7010120930
:102D4700C1800B1128800731798003124B41126033
:102D57003280CD90988AE04430F090988CE054FA15
:102D6700F0B1FF909804E0B4170890B0077403F02F
:102D77008009907FC0E49390B007F090B000E41210
:102D87003FAD4E6007B1FF90B008D1FF7D027F07CE
:102D970012B9887D027F0512B98890B009E020E159
:102DA70056B1FF90B009D1FFF50AF50B050BE50BFE
:102DB7007002050A640A450A70F2E4F50AF50B90F9
:102DC700B004E030E01F90B004E030E1028011056C
:102DD7000BE50B7002050AD39440E50A941F40DF08
:102DE700E4FF02BA9A90B004E020E0DAE020E1D6EE
:102DF700E4FF12BA9A713F2290B00074FFF022B13B
:102E0700FFEF700F90B204F090B203D1F190B205CA
:102E1700F08024EFB4010E90B204E4F0A3D1F19056
:102E2700B203F08012EFB4020E90B203E4F090B256
:102E370005D1F190B204F090B000E4F02290098639
:102E47007401F0900978F01271FF12B9461271857A
:102E5700124044121002310EEF600D900980740188
:102E6700F0715A12B988800F900A0FE07004900928
:102E770080F0715A12B94612725A12201C127291BE
:102E870012B98812712612B9887D207F0F12B9886E
:102E97001270AA12B9887D017F2012B9467D017F81
:102EA7002112B9887D017F1E12B9887D017F1D120D
:102EB700B9467D027F2012B9467D027F2112B9886B
:102EC7007D027F1E12B9887D027F1D12B9467D8063
:102ED7007F0212B9467D807F0312B9887D807F0506
:102EE70012B9467D807F0602B946F0ED90000E9339
:102EF700227B017A0979A122E04402F090B000E434
:102F0700F022900BCEEFF012B957900BCEE0FF7086
:102F170009B1FFF12FE04404800BEFB40109B1FFC1
:102F2700F12FE04408F1022290B009E054F3F022B7
:102F3700F14B12B5E4EF600BF14B7F32120FDDE47A
:102F4700FF31D3227B017A09795E22F14B120FDB25
:102F57007B017A097973120FDB900963E07002A392
:102F6700E0602A90096312729D9009651284DFC0A0
:102F770000C001C002C00312419DE4FCFDD003D094
:102F870002D001D0001272D91272FA80CC7F0121CF
:102F9700D3EF24FD600C24FC600E24FB6007240A99
:102FA7008009024FFC0257400249CEE4900BB0F073
:102FB700900A0EE0B40109120F8E900BB07401F065
:102FC7001258E7EF7006900A0EF0FF22120950120E
:102FD7000DF2120020900BB0E07003120F8E12B2A8
:102FE7004FEF7002FF227F0212181E7F0912104155
:102FF700E4FD7F0D12096B7F02110DEF7002FF22B6
:10300700125D167F0122900BBBEFF07E007F327DB1
:10301700007B017A0079061287C6900BBBE090000F
:1030270006F090000B12857CFFFFFFFF90000F1248
:10303700857CFFFFFFFFE4900B90F0A31257BE11B2
:1030470080EF7006900B90048010E4900A58F012FD
:103057005B37EF700C900B907402F0A304F07F00C5
:103067002290002CE07002A3E07006900B9074038E
:10307700F0900B917401F0FF2290094512857C00B6
:10308700000000E4900957F0900006E0B4010C122C
:10309700CD53EEC313900952F08006900952740184
:1030A700F0B11D12721E7002FF22B11D12723B7029
:1030B70003EE64556008900A9FE07002FF22E490D7
:1030C7000951F0900951E0FFC394044002217FEFBA
:1030D70075F010A424BEFFE5F0340EFAA9077B01B2
:1030E70090095A1285E6126E7EFF6405600AEF6446
:1030F7000F6005EF64857035900957E0FF60089011
:103107000951E0C39F40269009451284DFC000C0E3
:1031170001C002C00312724BD003D002D001D0000D
:10312700F1CB900951E004900957F001A890095A92
:1031370012272012810FFF64046018EF64066013E2
:10314700EF640B600EEF640C6009EF64016004EF3D
:10315700B40E1D9009451284DFC000C001C002C033
:103167000312724BD003D002D001D000F1CB8008FC
:10317700900951E004F001CA900951E0B4041B9092
:103187000957E0FFD394004011EF9404500C9009C5
:103197004512857C0000000001A890095271D77183
:1031A700F312721E7002FF2290095271D771F31247
:1031B700723B7003EE64556008900A9FE07002FF4F
:1031C70022900D0DE0900013F0900D0EE0FEA3E0AD
:1031D700FF1297F8900958EEF0A3EFF0E4FCFD908A
:1031E700094571ED900014128570900D11B123609F
:1031F700391297F87C007D201285EF122788AB07DC
:10320700900952E07F0025E0FEF1D9124EE6C00694
:10321700C007E025E07B00FAE4F9F8D007D00612F2
:103227008358900941128570800A90094112857C64
:1032370000000000900D16B12360081297F8E4FC17
:10324700FD8005900D2471FF900949128570900D3E
:1032570013B12360081297F8E4FCFD8005900D2058
:1032670071FF90094D12857071D490094971F6125A
:103277002788AB07900958F1D490094171ED1227BF
:1032870088AB0790094D12265FC007900013E0FB3B
:10329700E4FAF9F8D007128358900953128570E4BD
:1032A7007FF57E0FFDFC9009531224175008E49018
:1032B7000008F07F0122E47FF57EFFFDFC900953B3
:1032C700122417500AE4900007F0A304F080257831
:1032D700367C0D7D017BFF7A0679647E007F0812BC
:1032E70087A2EF9000077003F080037401F090004D
:1032F700087401F071D490094971F690001471EDCA
:1033070090094171ED90001C128570900007E060F4
:103317000971FC90095371ED800E9009531284D303
:10332700EF2402FFE43EF1E990002012857090003F
:1033370007E0601F71FCEF24FEFBEE34FFFAED346B
:10334700FFF9EC34FFF890001371D71282CD90008B
:103357001C800A71D490094971F690001471ED90A0
:103367000018128570900013E0FE900952E0FFEEFE
:103377008FF0A4900013F0A31284DFE4FCFDFE128B
:1033870082CD90001412857090001C1284DF900982
:103397005271D71282CD90001C128570B11D900911
:1033A7004D71ED122788AB0790095271D71282CD64
:1033B7009000241285709000181284DF90095271D2
:1033C700D71282CD9000181285707F0122900D10C0
:1033D700E0FFE4FCFDFE229004531285DD900027F8
:1033E7001284659004561284DF0282B29009451256
:1033F70084DF0282CD900D2C1284D30298149000A2
:1034070006E064046002A11690045AE0B402319009
:103417000456C083C0821284DFC000C001C002C04E
:1034270003B11790001F128465D003D002D001D0DA
:10343700001282B2D082D08312857090045AE4F0D1
:1034470090045AE0702C900456C083C0821284D333
:10345700C004C005C006C007B11790002712722F1D
:10346700D007D006D005D0041282BFD082D08312F5
:10347700857071DEC004C005C006C007B117900093
:103487001F12722FD007D006D005D004C31283F8BD
:103497005027B117900027128465A804C004C005FF
:1034A700C006C007B11790001F128465D003D00271
:1034B700D001D0001282BF801171DEEC335011B100
:1034C700179000271284651283EA900456128570BC
:1034D700B117E92427F9E43AFAC003C002C0011280
:1034E7007263D001D002D003128495B117E9242367
:1034F700F9E43AFAC003C002C001127263D001D0E6
:1035070002D0031284951262E5D080D0807F012219
:103517009004530285DD9009450284D3E0FEA3E0C1
:10352700FF4E22D13C900A151285E6B1EEE4C39F07
:10353700900A1AF0603CD136900A1AE0FF900A65AB
:10354700E4B1EAB1F4900A111284DF900A1A71D734
:103557001282B2D13C900A1AE0FF7E00900A16EE62
:103567008FF01281D7C3900A19E09FF0900A18E0F4
:103577009EF0C3900A18E094014044E4900A1BF0BF
:10358700A3F0900A18E0FFC3900A1CE09F900A1B63
:10359700E09400502AB1EED136900A657401F0A389
:1035A700E4F0B1F4B1EEE42FF1E5D13C900A1674E2
:1035B7000175F0001281D7900A1B12469A80C37ECC
:1035C70000900A18A3E0FF900A18EEF0A3EFF0604E
:1035D70011D136900A18E0FFA3E0900A65CFB1EA4F
:1035E700B1F422F0A3EFF0900A110284D3900A5E9F
:1035F700128570900A621285E6900A65B123602EE3
:10360700D3EF9400EE940150257F06D148F12A7F2D
:1036170002D148900A5E126299900A65E0FEA3E023
:10362700FF900A621285DD12465DF12AF151229060
:103637000A150285DD900A11028570F1A9F1517F03
:1036470006AD071262910200E1900A3F1285709061
:103657000A431285E6900A46E07002A3E07002E191
:1036670007900A3F1284D3EF5401FFE4FEFDFCFBF1
:10367700FAF9F8C312840E6017900A3F12853B903F
:103687000A431248FA1280F6F132900A4612729DE6
:103697007F06D148F12A7FADD148900A3FF1BEF1AC
:1036A70008F1C4900A47E024FEFE900A46E034FF82
:1036B700900A48F0A3CEF0D3900A49E09401900A0B
:1036C70048E0940040157FADD148F108900A48744E
:1036D700FF75F0FE1281D7F1C480DC7F04D148F179
:1036E7002AF151900A46E0FEA3E0FF30E012E4FC25
:1036F700FD900A3F71ED124EE6900A43F1DFF13279
:1037070022900A43E475F0011205261280F6FF1293
:1037170000E1900A43E475F0011205261280F6FFD6
:103727001200E190960AE04408F022900AF0F09027
:103737000AEC1285707F06D148F12A7F02D14890A2
:103747000AECF1BE900AF0E0F1267F05D14812009D
:1037570025900BC5EFF0F12A7F017E00128AF890C1
:103767000BC5E020E0E422900AF1128570E4FFD156
:1037770042F12A900AF5E0FFD148F12A80CC900A5D
:10378700E71285707F43D142F12A900AEBE0FFD11F
:1037970048900AEBE064C76005900AE7F1BEF12A9A
:1037A70080A8900BC4EFF07F50D148F12A7F01D158
:1037B70048900BC4E0E1261284D302629C7F017E0D
:1037C700000290011282B2900945028570E0FEA3C3
:1037D700E0FFE4FCFD0282B21285DD0280F6FFEE17
:1037E7003401FEE43DFDE43CFC229005BFE0B40556
:1037F70008A3E0B4AC037F01227F00221237F190C7
:1038070006ACEFF02211D430E0027F019009BEEF41
:10381700F0909901C083C082E0FFA3E04401D08209
:10382700D083CFF0A3EFF0909C06E04480F0221104
:103837000C909C48E05444221136FFBF4402805D3F
:10384700121406600211A71217007005E0541260E7
:1038570041121700600B1217EE5004AF06800B8061
:10386700091217D45004AF068000900BABEFF0900D
:103877000BABE0C3943F5017129766900BABE00475
:10388700F0E0543F909C41F0A3F012143780E0120F
:10389700720B113864446005E0444411AD0217A06F
:1038A700909C01E04403F07F507E0002121A11D46D
:1038B70030E0027F01900BD0EFF0909901C083C0F8
:1038C70082E0FFA3E04401D082D0830129909901CF
:1038D700A3E07F0022120F8E113FE4FF1210411266
:1038E70071FF12B98812729112B946127126F1C28C
:1038F70012B9461270AA02B988AE07110C909C46FD
:10390700E04410F0AF0631B4120FDF909C4BE0207B
:10391700E204316160F531554480F07F013157444D
:1039270020F0121437909C45E04405F012143790AC
:103937009C46E0547FF0F1B4909C49E054BFF012EC
:103947001437E49009CBF09009C0F00217A07F6408
:103957007E0012121A909C46E0221297667B017A2B
:103967000979C312B5E4EF22900BA6EFF031554465
:10397700801214B8909C45E054FA1214B8909C46F3
:10398700E0547F1214B8909C46E054DF1214B890AC
:103997009C46E054EFF0900BA6E0FF31B4120FDF26
:1039A700909C4BE020E305316160F5222231C17B19
:1039B700017A0979C37FB87E0B22900B61EFF0A3E0
:1039C7007401F0129766909C46E054F0900B63F0F8
:1039D700E0FF900B62E0FEEF4EA3F0900B61E0B4C6
:1039E700010BEEB40707900B63E04408F0900B63FC
:1039F700E0909C461214B8900B62E004F0E0C39488
:103A07000840C022AE079009CBE07079110CAF06D1
:103A1700316F909C00E4F0909C49E04440F0121410
:103A2700371241957481F0909C0014F1AD7002EE4D
:103A3700F460091213F6BEFE0DBFFF0A909C437493
:103A470002F0A3F0800D909C437401F0A3F0909CCA
:103A57004AE4F0909C04E4F0919A7411F09009CA3A
:103A6700740AF09009CDF01213E9E49009C0F090C0
:103A770009CB04F0909C01E04403F07F327E0012F2
:103A8700121A1217A022EEFA909C0812857C0100E8
:103A97000000EAC3942750047B8D805DEAC3942D10
:103AA70050047BB38053EAC3943650047B9180491A
:103AB700EAC3944A50047B95803FEAC39459500463
:103AC7007BB78035EAC3946D50047BB9802BEAC37A
:103AD700949450047B998021EAC394B3501990962B
:103AE7006AE030E00E7B88909C0812857C001A0003
:103AF7000080067BA380027B8911B5909C06E06B52
:103B07006013909C00E0547FF0909C06EBF0909C33
:103B170000E04480F0900BD0E070161272B5C083BD
:103B2700C082E0FFA3E054FED082D083CFF0A3EFA2
:103B3700F022121AAB121FC012C7F712C8187F0360
:103B4700D1039003E912633BFF7EAC518D715C1288
:103B5700100202CEB89009A87187900B8CEEF0A3E3
:103B6700EFF09009BB7187AD07AC06900B8CE0FEB8
:103B7700A3E0FF71AD7B017A0679DD7D0102201C90
:103B8700E0FEA3E0FF900ADFE075F00290089412D0
:103B970085D1E493FC740193FD1285EFE47BE77A0A
:103BA70003F9F8028358900B19F128110C1213F638
:103BB700EFF47002EEF460631213F6EFF47003EEA5
:103BC70064FE6057900B199183C333CE33CED8F977
:103BD700FF7C007D05128182900B19EEF0FAA3EFAE
:103BE700F0FBA39183C333CE33CED8F9FF7C007D9E
:103BF70005128182900B1BEEF0A3EFF0D3EB94EA52
:103C0700EA940B4005900B199192D3900B1CE0940A
:103C1700EA900B1BE0940B40029192900B19918A4A
:103C2700A3918A900B19E0FCA3E0FDECC454F0FBD0
:103C3700A3E04B9009C8F0AF05A3EFF0900B1BA3CF
:103C4700E09009CCF0909C04EFF0909C02E0540FB8
:103C5700F0C083C082E0FF9009C8E0FE54F0FDEF9A
:103C67004DD082D083F09009CCE0919AE054F0F0E7
:103C7700E0FFEE540FFEEF4EF00217A0E0FEA3E0C8
:103C8700780222E0540FF0A3E0F022740BF0A37443
:103C9700EAF022909C03F0909C022271391227C50A
:103CA700900AC0F012725A12201C7F0122900ADF7C
:103CB700E025E02494F582E43408F583F1CAFDACED
:103CC7000661AD900BC6EFF09009027401F0126324
:103CD70003EF7002FF2212C7F79008DEE0FFD1035F
:103CE700900BC6E0FF7E00E4FD1250D8EF7002FF94
:103CF70022B154B184EF4E7002FF22B15412CDA00D
:103D0700900BC6E0FF641E6009EF641D6004EFB40A
:103D17001C08900ADF7410F08006900ADF7418F010
:103D27007F091210419008E0E0FEA3E0FF518D12D9
:103D37001707900A0FE07006122B5A12B9467F3206
:103D47007E00128AF891B412CEB87F012290040344
:103D5700E0FEA3E0FF7D007C0222F134EF60037FE9
:103D6700002212BD13EF70037F0122B154B184EF1B
:103D77004E7002FF22B15412CDA07F0122900B3D5D
:103D8700F1289008CC1284D39008BC1233EDC006FA
:103D9700C007900B3DE0FEA3E0AA06F97B01A3E074
:103DA700FFA3E0900A6ECFF0A3EFF0D007D0061282
:103DB70047399008CC1284DF900B3F1237D4900814
:103DC700CC1285709008BBE070299008CC1284D380
:103DD700EF24FF1237E5F1A6128358900891128558
:103DE700709008911284D390074B1233ED90088D91
:103DF700128570900B3FE0FEA3E0FF2290040CEFCA
:103E0700F0E490040AF0909901C083C082E0FFA318
:103E1700E04402D082D083CFF0A3EFF012C818900D
:103E27009509E054E0F0909500E04408F090040C08
:103E3700E024FE60251460292402704890966AE009
:103E470054F2F090951B7401F0A374C0F09095188C
:103E57007403F0900403740F802390951DE04402CF
:103E6700F0F1D2909500E04404F090951BE4F0A3A4
:103E77007480F0A3E04401F09004037420F0A3E4FD
:103E8700F07F01227F002212C7F79003E7E0FFD1FE
:103E9700039003E9E0FEA3E0FF518DF143E49007AF
:103EA7005FF012CEB81200F912B7CA1271BD4E7088
:103EB7000E900B90E0640960037408F07F0022F114
:103EC70020FF12CD92F120FF900404E02FFF900411
:103ED70003E03EFE900405E0FCA3E0FDC390040F61
:103EE700E09DFD90040EE09CFC12CDA0125C9312A5
:103EF70057B3120FDF1272A4122B234005E47FC8B9
:103F07008002E4FFFEFDFC7B017A07796912B5B2F6
:103F17009006FD7402F07F0122900405E0FEA3E005
:103F270022EEF0A3EFF0A3ECF0A3EDF022F1A090C6
:103F370008CC1224177F0040027F0122900700E07F
:103F470075F00AA42426F9740835F0FA7BFF900B64
:103F5700491285E690040CE06401703CFF900B4920
:103F670012727B2409900B4CF0D394804004E4F048
:103F7700800C900B4CE0C3940D4003740CF0900B35
:103F87004CE090091093FE740D2FF582E43495F5FB
:103F970083EEF00FEFB40AC5229008C00284D3E481
:103FA700FB7A02F9F822F01213F6EFF4227F017E72
:103FB7000002121AE4FDFCFFFE61AD12B9467D2036
:103FC7007F0F22E493FE740193FF2290966AE044E8
:103FD7000DF022F0E04401F0E0441022AE07110C8E
:103FE700EE543FFEED543FFD121700600A9009C1E1
:103FF700EEF0A3EDF0800F1213FF602E9009CAEECA
:10400700F09009CDEDF0909C48E020E20B909C41A8
:10401700E0543F6E6002EEF0909C48E020E60B9083
:104027009C42E0543F6D6002EDF00217A0900ADF5A
:10403700E0FFAE07EE9007D793FDFF809F7F241226
:104047001041900ADFE0FFAE07EE9008D693FDFF20
:10405700808AEF909C50B40105E054FCF022E044C4
:1040670002F0E054FEF022900BACEFF012380C9007
:104077000BACE0FF30E60211F3EF30E70211EB90F3
:104087000BACE030E60211E3900BACE030E7021135
:10409700DB121216900BACE0FF30E60211D3EF30C3
:1040A700E70211CB121216900BACE0FF30E60311BA
:1040B700C3F0EF30E7031213ED0217A09009CAE02F
:1040C700909C4122909C4FE04420F022909C4FE02E
:1040D7004440F022909C49E04410F022909C49E033
:1040E7004402F022909C4CE04408F022909C4CE063
:1040F7004404F02212380C9009C0E05412702E903C
:104107009C49E030E1023155909C49E030E40231AE
:104117004D121216909C49E030E104E054FDF090F6
:104127009C49E030E404E054EFF0121216909C4CE6
:10413700E030E204E054FBF0909C4CE030E304E014
:1041470054F7F00217A0909C4FE054DFF022909CA8
:104157004FE054BFF02212380C909C00E4F03195E8
:1041670074A3F0909C007480F09096417420F07DC9
:10417700037F1D12B9467D037F1E12B9887D047F18
:104187001D12B9887D047F1E12B9460217A0909CA4
:10419700057442F0A322907FDFE493543FFF900B16
:1041A70086E4F0A3EFF0900B8651129424EE94006E
:1041B7004009D3EF942CEE94004009900B86E4F06D
:1041C700A37428F0E4FDFF12B0157E007C0C7D1C63
:1041D7001285EFC006C007900B86E0FEA3E0FBAA9E
:1041E70006E4F9F8D007D006128358C3EF94B8EE67
:1041F700940B50067E0B7FB8800DD3EF94F8EE94A6
:104207001140047E117FF822900A2AE0FEA3E0FF06
:10421700C322AB07510F94E8EE940350117C007D45
:104227000A128170EB2FFFEC3E900A2A8006AF033B
:10423700900A2AE4F0A3EFF022D12E900BBEEFF004
:10424700600E120FD5E490097FD13DE4900773F01B
:10425700900A33E0B40102719F900A2AE07002A32A
:10426700E06025719012B5E4EF7007900BBEE0B4E3
:10427700221671907F887E13120FDF900BBE742178
:10428700F0E4900A33F06178900BBEE0FFC3941618
:104297004073EFD39420506D71976007EF6402600D
:1042A70002616671A8F0900BBEE0FBB4201F900A74
:1042B7002AE0FEA3E0FF7C007D0A128182ED4C60BC
:1042C7000271B171B9900A317401F08025900A31F9
:1042D700E06011EB24EAFFE434FF900A2A8FF01222
:1042E70081D78009900BBEE024EAFF5119E4900AB8
:1042F70031F0E4900BBE718F7FD07E07FDFC12B5C5
:10430700B2719F806C900BBEE0FFC394314057EFB2
:10431700D3943B505171976005EF6402705371A8B5
:10432700718F7F887E13FDFC12B5B2900BBEE0FF44
:10433700B43B0471B98006EF24CFFF5119719F7107
:10434700976004EFB40218F1C1FFD3900A2BE09FE6
:10435700900A2AE09E5008900BBE743CF08012E44D
:10436700900BBEF0800B900BBEE0600571B171A998
:10437700F0900BBEE0FD600F7F01120DAF900BBEFA
:10438700E0FDE4FF120DAF22F07B017A0A792C22BF
:10439700900ADEE0FF640122900A2AE0FEA3E0FF14
:1043A70022E4900A33F0900A3222E4900A2AF0A31A
:1043B700F022900A2AE475F00A0281D771D071B110
:1043C7007190FFFEFDFC02B5B2E49009FAF0917E10
:1043D700D1447D807F1D12B9887D807F1E12B988E8
:1043E7007D807F2012B9887D807F2112B946909603
:1043F7001DE054DFF0A3E04420F0909620E0442035
:10440700F0A3E04420F090961CE054EF917690964C
:104417001DE054BFF0A3E04440F0909620E04440F4
:10442700F0A3E04440F090961CE054BF917690963C
:1044370002E054FBF0A3E04404F0909605E0440446
:10444700F0A3E04404D1359176909602E054FDF054
:10445700A3E04402F0909605E04402F0A3E0440292
:10446700F0909601E054FDF07F027E00028AF8F09A
:104477007F027E00028AF87B017A0979FB22917E0E
:1044870012B5E4EF7002FF22917E7F0A120FDDB1B1
:10449700909009F9EFF0A3E014603C14605B14708E
:1044A70002A13724036002A16C9009F9E0FEF470C1
:1044B7001490961CE054DFF0E054BFD135F0E0547F
:1044C700FDF07F00229009F8EEF0B1747F14120F0F
:1044D700DD9009FA7401F0B17B6F6002A16CB174D1
:1044E70012B5E4EF7002A171B1747F587E02120F0A
:1044F700DF9009FA7402F08071B17BFE6F600BB137
:104507008524F7F582E434088055B17412B5E4EFD9
:104517006058B1747FC8120FDD9009FA7403F090E8
:1045270009F8E025E025E024F8F582E43408802F37
:10453700B17BFE6F600BB18524FAF582E434088005
:104547001EB17412B5E4EF6021B1747FC8120FDD9C
:104557009009F8E025E025E024F9F582E43408F530
:1045670083E493FF22E49009FAF07F00227B017A2B
:104577000A7900229009F9E0FF9009F8E022E49017
:1045870009FAF0EE25E025E0227F05900BBFEFF05A
:104597007D0112B0157E00C006C007D121D0E02DE5
:1045A700FFD0E03400FEC006C007D121D0E02DFFC8
:1045B700D0E03400CF2402CF3400FE7C007D03120C
:1045C7008182AB077E05E4FDEDC39E504AED90095D
:1045D7000B93FCEBC39C503C900ADEE0640C7031FB
:1045E700ED24FE601314601914601F2403702290D9
:1045F7009601E04404F08019909601E04402F080AF
:104607001090961CE04440F0800790961CE04420F0
:10461700F0AF05220D80B17FFF22900BBFE0FF7D39
:104627000112B015EFFD22E4FF7002918522F09090
:104637009601E054FB22F07B017A077963FFFEFDC8
:10464700FC02B5B2900BCBEF9176900BCBE0FD7FE0
:10465700007EA3028F80900AA1EEF0A3EFF0900AEC
:10466700A51285E6E4900AA3F0A3F0900AA15112DF
:10467700900AA4E09F900AA3E09E5016900AA51204
:1046870037DFFF1200E1900AA6D19A900AA3D19AC8
:1046970080D922E475F0010281D7900A341285701F
:1046A700900A381285E6E4900A3DF0A3F07F0B12DA
:1046B7003648900A341262997FFF1200E1900A3B54
:1046C7005112900A3EE09F900A3DE09E501512005D
:1046D70025900A381285DD900A3DF1A5900A3DD153
:1046E7009A80DA02372A900A4A128570900A4E1287
:1046F70085E6E4900A53F0A3F07F0B123648900A40
:104707004A1237BE7FFF1200E1900A515112900AF8
:1047170054E09F900A53E09E5015120025900A4ED0
:104727001285DD900A53F1A5900A53D19A80DA02D7
:10473700372A900A67128570900A6B1285E6900AED
:104747006B12278F604C900A6E1235236044900AD3
:104757006B1285DDC3EA940F40167E00EF5403FF0A
:10476700600E74049FFFE49E900A6E8FF01281D74B
:10477700900B96E0B4030BF1B1900A3BF19AD1A1EB
:104787008010900B96E0B40109F1B1900A51F19AAB
:10479700D1ED22CFF0A3EFF0900A670284D3E0FCBB
:1047A700A3E0F5828C83EF02814E900A6B1285DDC0
:1047B700900A6EE0FFA3E022EFF090002CE0FEA34A
:1047C700E022909801E0FDEF543FFCED5CF0EF3004
:1047D700E50C122DFF90B100E054BE122F022212F9
:1047E700BA95122DFF90B100E04441022F02122D1D
:1047F700FFA3E054FBF090B100E054BE022F0290FB
:10480700B004E030E016900B6AE004F0E0B40A066A
:10481700900B6C7401F0E4900B6BF022900B6BE043
:1048270004F0E0B40A03E4A3F0E4900B6AF02290EA
:104837000B98E070031218A21106022B03900AD4FA
:104847001285E6900AD3EFF03101EFD39495500823
:10485700900AD412278F70037F0022900AD7E0FFB7
:10486700900AD33112400774969D900AD7F0E490CE
:104877000B88F0900AD731085018900AD3E02EFF22
:10488700A311FA1280F6FD12BA06900B88E004F025
:1048970080E1E4900B89F07F0122900AD91285E626
:1048A700900AD8EFF03101EFD394955008900AD9C8
:1048B70012278F70037F0022900ADCE0FF900AD84E
:1048C7003112400774969D900ADCF0E4900B88F053
:1048D700900ADC3108501A900AD8E02EFF12BFF474
:1048E700900AD911FAEF12813C900B88E004F0800E
:1048F700DF809FE475F001020526900B897401F0B3
:1049070022E0FF900B88E0FEC39F22E0FD2FFFE42B
:1049170033FED3EF9496EE6480948022D310AF01D8
:10492700C3C0D0310112BA06E4900B89F0D0D092FF
:10493700AF22D310AF01C3C0D0310112BFF4E4904E
:104947000B89F0D0D092AF22909904E054FEF090FA
:10495700980DE054FEF0E0440EF02290B004E030F1
:10496700E3F990980DE054F1F0E04401F090981FBE
:10497700E030E0F9909904E04401F022A2AFE4337B
:10498700900BADF0C2AF9005FE1284D390061112C2
:1049970033ED9005FB1285DD1284959005FB1227F8
:1049A70020E412814E900BADE024FF92AFD080D06F
:1049B7008022121AABE49007EDF0900780F0900781
:1049C700EFF090079FF0225199EF7002FF22120F2C
:1049D7008E1200201209507F0712181E7F0912102D
:1049E700417F0231F131B97F0122EFB40112900901
:1049F700B651649009B4517151587A067971804B58
:104A0700EFB402379009F351649009F1E0FFA3E096
:104A1700900845CFF0A3EFF09009F51285DD9008D7
:104A2700491285E69009EE1285DD9008001285E6A9
:104A37009009EB51587A0679F880109009AF5164C4
:104A47009009AD517151587A07791890085E02851F
:104A5700E61285DD9007F51285E67BFF22E0FFA3CE
:104A6700E0900847CFF0A3EFF022E0FFA3E0900823
:104A770045CFF0A3EFF09009B81285DD90084912F1
:104A870085E69009B11285DD9008001285E6900948
:104A9700AA22D310AF01C3C0D09006A0E0FF6406DE
:104AA700600EEF64056009EF640760047F008058BB
:104AB700900ADEE0B40416909901C083C082E0FF3B
:104AC700A3E04404D082D083CFF0A3EFF07114E0C9
:104AD7006F6010900A907401F0A374F4F07114EFF2
:104AE700F08023900A90E07002A3E07019900A907A
:104AF70004F0A374F4F012188F121A989006A07499
:104B070008F07F0080027F01D0D092AF227F0C7E19
:104B1700A3128C84900A8D22900A07E0900BB6F0BE
:104B27005199900A07EFF0900BB6E0700A900A07C8
:104B3700E060047F0180027F0022121DA07B017AC2
:104B47000779A07D1F7C00121E59EF641F4E60027B
:104B5700819078A07C077D017BFF7A0579637E00D1
:104B67007F041287A2EF600281909007A4E090076C
:104B7700E4F09007A5E09007E5F09007A6E090071E
:104B8700E6F09007A7E09007E7F09007AFE012057F
:104B97003D4C00004C32034BBD124C131A4C581BB2
:104BA7004C171E4BD2234BD6254BDA284BDE2A4C0B
:104BB700542F00004C647BFF7A0579687D247C00C4
:104BC70091B1D1DB91B190079F815FB1B88168B195
:104BD700DF8168B1FF800FD16D7B017A0779F07FA4
:104BE700D07E07120FDF90079F7402F07B017A07D0
:104BF700798E7F0A120FDD80689191EF700690071A
:104C0700EDF080599007EDE060408051B15480513C
:104C17009007B3E0700C9191EF6007E49007EEF016
:104C2700802C9007EE7401F0E480239191EF6006E9
:104C37009007EDE060087BFF7A05799080067BFF9F
:104C47007A0579A27D127C0091B1E48001E4FF80AE
:104C57000EE4FFB1AF9007ED7401F080047F01B15E
:104C6700AF7B017A07798E12B5E4EF600A90079F50
:104C7700E0B402037401F09007807401F0FB7A0737
:104C870079897FB07E04120FDF221258E7EF700692
:104C97009007EFF0800E9007EFE0700812B24F9088
:104CA70007EFEFF09007EFE0FF22900AC11285E6C9
:104CB700900AC4ECF0A3EDF07D01121F51C3900AD6
:104CC700C4E094025062900AC4D1CA9440EE9400A2
:104CD7004006A37440F08005900AC6EFF0900AC61C
:104CE700E0FDFFC3900AC5E09FF0900AC4E094007E
:104CF700F0900AC11285DD7F24F1A5121D997D2050
:104D07007F13121FB87F01125592EF603F121D9754
:104D1700121FA6900AC6E0FF900AC2F19F900AC42C
:104D2700E07002A3E0709F22121D977DB4121FA8A6
:104D3700900AC112726F900AC1F1C0900AC4F1B60D
:104D4700900AC4F1AD7D1FD1C3125569229191EF2D
:104D57007004D1B1805212B83990077812857090DB
:104D670007B1E024C1601C242370307BFF7A0579EA
:104D77008C9007B3E0FFC39404500280027F04B114
:104D8700D680257B017A0779749007B3E0FFC39437
:104D97000C500280027F0CB1D6800D7B007A00791F
:104DA70000E4FDFC91B1E4FF9007ECEFF0D1DB816B
:104DB700B19191EF7004D1B1801312B83990079770
:104DC7001285707B017A0779937D0CB1D880D9EF72
:104DD700FD7C0091B1E4FF229191EF7004D1B18085
:104DE7001512B839D1E69007811285707B017A07D1
:104DF70079817D08B1D880B09007B11284D390072C
:104E0700B7E07A0F30E0027A0D7B00900AD1EAF022
:104E1700A3EBF0126C12D1D1FED3E5F09401EE941E
:104E2700004021D1A730E0027E0D7F00D1F7900727
:104E3700B7E07E0D30E0027E0F7F00D16291B112A4
:104E4700424080D2F10C9007B7E07E0D30E0027E41
:104E57000F7F00D16291B1E4FFA1AFAA06A9077B3A
:104E6700017D007C02229007B11284D3126C7AD1A3
:104E7700D1FED3E5F09400EE9400401ED1A730E0B8
:104E8700027E0D7F00D162121E59D1AA30E0027E48
:104E97000D7F00F17D12424080D5F148E4FFA1AFBC
:104EA7001297669007B7E07E0F227F81121D1B7F46
:104EB7000A7E00128AF8121DA07F01227F047EA5B8
:104EC700028F80E0FEA3E0FFD3229007B674FFF5C0
:104ED700F00281ED7B017A0779E07D0D7C0022EFFE
:104EE70024FFFFEE34FFFEED34FFFDEC34FFFC2220
:104EF700AB07AA06F12EEF7002FF22AE02AF031234
:104F0700B6B27F0122F12EEF7002FF22F126900543
:104F17003512857C000000007F0C02B1BBF12E909A
:104F27009720E054FBF0227F107E27909720E02007
:104F3700E50CEF1FAC0670011E4C70EFFF227F01DE
:104F470022909720E030E202F12490053512857C0B
:104F5700000000007F0C12B1BBEF7002FF22126C41
:104F67006B909728E0C330E101D350F5909721E08B
:104F77004410F07F0122AB07AA06909720E030E2A9
:104F870002F124909728E0C330E101D350F5AE0237
:104F9700AF0312B6DF7F0122E48FF00281D77EA331
:104FA70012897A7D0122E0FD7F0D7EA5028F80A305
:104FB700E0FD7F0C7EA5028F801285DDEAFD7F096B
:104FC7007EA5028F80E4FF12181EE4FF1210417DB8
:104FD700087F2012B9467D087F2112B9887D087F96
:104FE7001D12B9887D087F1E12B9467D087F1C12E5
:104FF700B9887F0122125021EF7002FF2212095057
:105007007F0312181EE4FD7F0C12096B1271857F56
:10501700C01210411227BB7F012290960BE044106B
:10502700F090960EE054EFF0A3E054EFF090960C5A
:10503700E054EFF01169909609E030E40BE4900A30
:1050470008F0900A06F08014900A06E0C394145002
:1050570005E004F08006900A087401F0900A08E061
:10506700FF227F0A7E00029001900AB712857C001A
:1050770000000012B8F1516511D112DB79EF7047CA
:1050870011D190047FF1C2FD7C0F12A02A900AB5BE
:105097009153700280317B017A0F7900900AB5E055
:1050A700FFA3E0900A77CFF0A3EFF0900AB712843E
:1050B700D351C1900AB71284DF900AB51237D4A32F
:1050C700128570116980B102B8CC7B017A08796AC0
:1050D70022AB07AA06900B76EDF0A3E4F0A304F049
:1050E700EDD3940240037F0022900B76E0F9701B0A
:1050F7009008A3514C40037F00229008A5E02BFEA7
:10510700E43A900B77F0A3CEF08038E96401702180
:105117009008A4514C40037F00229008A5E02BFF84
:10512700E43AFE9008A3F1A0900B77F0A3EFF0808C
:10513700129008A5514C40037F0022900B77EAF0AC
:10514700A3EBF09008BAEBF0A3E9F09008CC128536
:105157007C00000000900B78515DFF900B77515554
:105167002410FFE43EFEE4FCFD7A0879BC7B019045
:105177000A6EF0A37410F0124739900B76E06002C4
:10518700414974FFFFFEFDFC9008C0122417700D03
:105197009008C012857C000000007F00227E007FFF
:1051A7002F7D0011D11287C67E007F047D307B01E1
:1051B7007A0879791287C6787D7C087D017B017A28
:1051C7000879C47E007F041280D078817C087D0135
:1051D7007B017A0879C97E007F031280D0123FA035
:1051E700900895128570123FA0EF24FF1237E51241
:1051F7003FA61283589008891285709008A2515DC6
:10520700FF9008A151552420FFE43EFEAB07FAE4C6
:10521700F9F89008BC12265FE4FB7A02F81283586B
:105227009008851285709008851284D390088D1296
:10523700857090089112857C0000000090088474A6
:1052470001F07F0122E0FFD3EB9FEA940022E0C444
:1052570054F048FEEF22E0C4F8540FC86822900BC0
:1052670096E0B40308900AEB5184023785900B96B9
:10527700E0B40108900AF5518412376E2274C7F022
:105287007F007E007D007C0022E4FF900006E0B4F2
:10529700030B51B9FFF1A87F01D080D080900006A1
:1052A700E0B4040D51B9FFE4FD11D87F01D080D0DF
:1052B7008022900516E0FEA3E022900A7012857006
:1052C700900A741285E6900B96E0B4030A51FB909E
:1052D7000A4651F0023650900B96E0B4010A51FB92
:1052E700900A1851F012352A22CFF0A3EFF0900A56
:1052F700700284D3900A741285DD900A77E0FFA3C9
:10530700E022900B7F1285E67FFF7EB07DB77CE1C0
:1053170090B106122B234018714312B5E4EF7005C4
:1053270012976680F3518771407F2C7E01120FDF41
:10533700900B7F1285DD02AFD212B7087B017A0B83
:1053470079142212BF3F900B5D128570714312B51D
:10535700E4EF7019F166FF6401600EEF6402600903
:10536700EF64066004EFB408E371EE80DF900B5D35
:105377001284D371407F2C7E01120FDF12A6C10267
:10538700BA257E007F377D0071E5900B96E07002AD
:10539700FF227A0879997B01900A6EE4F0A37420C2
:1053A70051861247397FFE7E017DAA7C5590089968
:1053B70012241770079008B904F0800BE49008B91D
:1053C700F0FE7F20FD71E59008A1E0FFA3E09000CB
:1053D7002CCFF0A3EFF090074A7401F0FF227B0176
:1053E7007A0879990287C69006FDE0B4020912216E
:1053F700DB12DB79EF60037F012212BD13EF70111F
:105407007B017A0679F412B5E4EF7F01603D7F00F6
:1054170022F1B3120FDF9003E7E06401702B1271E2
:10542700BD4E70129006FDF0900B90E0640960038A
:105437007408F07F0022900403E0FEA3E0FF9004CD
:105447000EE0FCA3E0FD12CDA07F0122EEF0A3EF5A
:10545700F04E22900B251247BFFF900B26915370F9
:1054670002A1629006FFE024FE7002A11324022429
:10547700FB5002A157900B25E0FFB4020D900B28BB
:10548700740AF0E4900B25F08012EF900B28B40318
:1054970008740AF0900B2580007401F0900B25E04A
:1054A7007032900B28E0FF7E0090072FE02FFD90D1
:1054B700072EE03EFCC3900B27E09D900B26E09C57
:1054C70090072E5007E4F0A304F0A157EE8FF012D7
:1054D70081D7807C900B25E064017074900B28E0E5
:1054E700F9FF90072EF1579FEC9400500D900B2673
:1054F700E0FFA3E090072ECF8052E9FFC3ED9FFEA8
:10550700EC940090072EF0A3CEF08044900B26E099
:10551700FEA3E0FFFBAA06E4F9F8B163128358EB98
:105527002401FFE43AFE90072EE0B5060AA3E0B592
:1055370007050FBF00010EC3900B27E09F900B26B6
:10554700E09E50047E007F0190072EEEF0A3EFF05F
:10555700900B25E0900701F012002122900611021E
:1055670084D3B163900BCCEFF0B18BEF30E0037FC6
:105577000122B163900BCCE0FEC3EF9ED39464404D
:10558700E87F00227F007EA5028C84900A82EFF0DC
:10559700A3EDF07B017A0A7984900B9CF1C9900BFB
:1055A7009C7403F0A374E8F0129766900A82E0FFF8
:1055B70064016005EF6403701E900A83E06009B11F
:1055C7008BEF30E0447F0122121D14900A89EFF01F
:1055D700540370357F0122900A82E064027018A399
:1055E700E06009B18BEF30E0207F01227F16121BAC
:1055F7009630E0157F0122900A82E07009121B9411
:1056070020E1067F01227F00227B017A0A7984123A
:10561700B5E4EF60937F0022B163900BCDEFF07F8D
:1056270016121B9630E0037F0122B163900BCDE089
:10563700FEC3EF9ED3946440E67F0022900AC0E049
:10564700603E7B017A0A79BB12B5E4EF60327B01D9
:105657007A0A79BB7FE87E03120FDF126C03900B87
:105667009A9153700B121FDF900AC07401F08006E5
:10567700900AC07402F0900B9AE0FEA3E0FFD18875
:1056870022EF7802CEC313CE13D8F9FFC394F4EEFA
:1056970094015017C374F49FFF74019ED1DA2FFF52
:1056A700E43EFEE4341AFDEC338020D3EF94F4EEAD
:1056B7009401401EEF240CFFEE34FED1DAC39FFFA6
:1056C700E49EFE741A9400FDE49400FC909C08127A
:1056D700857022FE7C007D14128170E422900AFB03
:1056E7001285E6900AFEED121F4E129766900AFE8B
:1056F700E0FFD394404006A37440F08005900AFF72
:10570700EFF0900AFFE0FDC3EF9D900AFEF0900ACC
:10571700FBF15E12897A121B944402121D98E4FD74
:10572700FFB192EF6012900AFFE0FF900AFC124F60
:105737009F900AFEE070B322221209507F0C1218C4
:105747001EE4FD7F0B12096B122E447F0122C14319
:10575700E0FCA3E0FDD3221285DD7F207EA3221289
:105767009766900B99E022F166FF9006ADE06F60B7
:105777001AEF64016013EF6402600EEF64066009BC
:10578700EF64076004EFB4080271EE124240F19D26
:105797009006ACEFF0227F0022E07C002FFFEC3E6A
:1057A70022900BA2EEF0A3EFF07F00227B017A0696
:1057B70079F47F107E2722F090040E7402F0A3E4A0
:1057C700F022E0FEA3E0FFE4FCFD02B5B2E4FD7FBA
:1057D7001C02096BE4900B8BF0900B8BE0FEC394DB
:1057E70004501274912E12582CE06F6008900B8BA6
:1057F700E004F080E4E4900B8AF0129766900B8B3C
:1058070011244002E4F0900B8BE02491112C113409
:10581700700A900B8A112440E1124FCC22E004F069
:10582700E0C3940422F582E43409F58322E0FF12F1
:105837002F98EF227B017A0679F4120FDB122EF8EC
:10584700120FDB90963DE054FCF012B65B11AA12E2
:105857000FDB7B017A0979957F2C7E01120FDF7BA5
:10586700017A09799512B5E4EF700611C5313E80CA
:10587700EE311C1257D4900A08E0B40108900ADEF2
:105887007403F08012900A0EE0900ADEB4010574EA
:1058970002F08003740CF0900ADE113470047F0C60
:1058A70011B1227B017A0A790922900BB1EFF0122C
:1058B7002F98EF7008900BB1E0FF1257DB22900A88
:1058C7000EE0900BB4F011E7900A0EEFF0900BB4D6
:1058D700E0700A900A0EE060047F0180027F0022D8
:1058E70011AA12B5E4EF7006900428E0702111AAFE
:1058F7007F2C7E01120FDF9004287401F012B0CBC9
:10590700900A05EFF012B83C7F147E00128AF890D7
:105917000A05E0FF22900A0FE0900BB7F031619083
:105927000A0FEFF0900BB7E0700A900A0FE06004DF
:105937007F0180027F0022900A08E0900BB5F012E9
:105947005021900A08EFF0900BB5E0700A900A0812
:10595700E060047F0180027F0022909629E054FBDB
:10596700F0A3E054FBF0909627E054FBF0909626C6
:10597700E04404F07F027E00129001909624E0300C
:10598700E207E4900A0FF08006900A0F7401F09086
:105997000A0FE0FF22121FC01208077F0202B9BCDC
:1059A70012187F7F0202B9CE7F01122C8C900BB8A0
:1059B700EFF0900AC0E06059900BB8E0B412047F92
:1059C700018009900BB8E0B41307E4FF122919808E
:1059D70040900BB8E0FF64016004EFB402047F401D
:1059E700802D900BB8E0B405047F808022900BB81F
:1059F700E0B406047F048017900BB8E0B407047F77
:105A070008800C900BB8E0B415071217FB7F1051F4
:105A17001D513F025755900BC8EF51357C00121F9F
:105A270058E4900BC85135FC121F587F0122F07BB8
:105A3700017A0B79C87D0122021DA07D037F271201
:105A4700B9887D037F2612B9467D037F2912B9885D
:105A57007D037F2A02B9887F002251D3FF900B4D27
:105A6700EEF0A3EFF0900006E0B4030C90047FE0A3
:105A7700FCA3E0FD51DB8014900006E0640470167F
:105A870051D3FFA3E0FCA3E0FD123D84900B4FEE42
:105A9700F0A3EFF08025515EEF6401702B900B4F60
:105AA700F0A3F012A044900B4FEEF0FCA3EFF0FD33
:105AB700900B4DE0FEA3E0FF12064ED080D0809001
:105AC7000B4FE0FEA3E0FF22E4FEFF2290047DE0FF
:105AD700FEA3E022900B51123F28E4FEFF2212277B
